:020000022000DC
:1070000000000420757302005D7302005F730200CC
:1070100061730200637302006573020000000000E8
:107020000000000000000000000000006773020084
:1070300069730200000000006B7302006D730200B0
:107040005DAC02006F730200F9B002006F730200C2
:107050006F7302006F73020079AF02006F7302005A
:107060006F7302006F7302006F7302006F73020090
:107070006F7302006F7302006F7302006F73020080
:107080006F730200718702006F7302006F7302005A
:107090006F7302006F730200BD1703006F7302006D
:1070A0006F7302006F7302006F7302006F73020050
:1070B0006F7302006F730200000000000000000008
:1070C0006F7302006F7302006F7302006F73020030
:1070D0006F7302006F7302006F7302006F73020020
:1070E0006F7302006F7302006F73020000000000F4
:1070F000000000006F730200000000006F730200C8
:10710000000000000000000000000000000000007F
:10711000000000000000000000000000000000006F
:10712000000000000000000000000000000000005F
:10713000000000000000000000000000000000004F
:10714000000000000000000000000000000000003F
:10715000000000000000000000000000000000002F
:10716000000000000000000000000000000000001F
:10717000000000000000000000000000000000000F
:1071800000000000000000000000000000000000FF
:1071900000000000000000000000000000000000EF
:1071A00000000000000000000000000000000000DF
:1071B00000000000000000000000000000000000CF
:1071C00000000000000000000000000000000000BF
:1071D00000000000000000000000000000000000AF
:1071E000000000000000000000000000000000009F
:1071F000000000000000000000000000000000008F
:10720000354936480A1A02D0072291438D4634493F
:1072100034480A1A06D00722914381F309880222D2
:1072200082F3148830483149314A00F044F831483B
:107230003149324A00F03FF831483249324A00F0D1
:107240003AF832483249334A00F035F83248334987
:10725000334A00F030F833483349344A00F02BF811
:1072600033483449344A00F026F83448344900227F
:1072700000F02CF833483449002200F027F8334856
:107280003349091A082902DB002202604160314AB1
:1072900090471F481F49884205D00268043003B454
:1072A000904703BCF7E700208646EC46002000210B
:1072B000294A9047FEE7884207D0521A05D0037842
:1072C00001300B700131013AF9D17047884202D088
:1072D00002700130FAE770470000042000E003204C
:1072E0000000042000000420CC450300742200208C
:1072F000E0220020D0730200D0730200281E030099
:10730000CC4503007422002074220020C81F030013
:10731000C81F0300C81F0300C81F0300C81F0300C5
:10732000C81F0300C81F0300C81F0300CA4503008D
:1073300038460300E0220020E0220020E022002066
:1073400046390020483900204839002048390020BB
:10735000485900209D730200EDC20200FEE7FEE7DF
:10736000FEE7FEE7FEE7FEE7FEE7FEE7FEE7FEE7F5
:1073700000F002B8FFF7FCBF0F484FF00701884349
:1073800085460E4880470E48016841F4700101604F
:10739000BFF34F8FBFF36F8FFFF732BF09480A4922
:1073A0000A4A884207D0521A05D0037801300B7080
:1073B0000131013AF9D170470000042075A602009E
:1073C00088ED00E0B41F030060220020742200203A
:1073D0007047000007B5044B0093044A402300F0B7
:1073E00032F803B05DF804FBF1730200E1220020E3
:1073F0002DE9F84388461446B2B10F4B0F4E0325D2
:10740000002743F00109224608EB0701002005F0A0
:1074100025FA0744241A48B933782BB14FF47A403F
:10742000C847013D02D13570BDE8F88301233370B0
:10743000002CE8D1F8E700BFD01F0300E0220020B5
:10744000704705F03FBAF0B595B01D4616460846A0
:107450000C4602F0EBFF1A9B0D93CDE90865002561
:107460002B46082205A920460A958DF82C500C952C
:1074700002F0F9FF079B0293069B03939DF81430DB
:107480008DF8115003F00302012A1DD1BDF814201C
:10749000059DC3F3C203C2F383168DF81030B2000A
:1074A00008230EA9204602F0DEFFC5F3952508ABA0
:1074B0000093324602AB0EA9284600F0CFFB2046CF
:1074C00002F0B8FF15B0F0BD022AF8D1BDF8165091
:1074D000C3F3C203C5F389158DF810300827082DB2
:1074E0002E4628BF08263B4632460EA9204602F00B
:1074F000BAFFAD1B08AB02AA31460EA8374400F014
:1075000011FC002DEBD1DAE7014B01221A70704714
:10751000622300207047000070B5124D06460FCD63
:1075200088B06C460FC495E80F00002E84E80F0069
:107530004FF0FF334FF00602CDE90023CDE90233CF
:10754000094A0A484FF0EB7308BF002269460693C8
:1075500003F00AFB08B100F0ADFD054B1E7008B04A
:1075600070BD00BFE41F03000975020074220020F3
:107570002123002007B5044B0093044A4023FFF762
:1075800062FF03B05DF804FB917502002223002026
:1075900038B50D4B0D4D002018700D4804782D5D49
:1075A000D2B21C4665B1043004F050FA08B100F0C4
:1075B00081FD084B1A7812B12378002BFBD038BD1F
:1075C0000C3003F0E7FFF1E762230020F02B0020EE
:1075D000742200202123002008B50848084A0378B7
:1075E000D35C3BB1043004F0ADF9BDE808400020A5
:1075F000FFF792BF0C3003F071FFF6E77422002012
:10760000F02B00200120FFF787BF000038B50A4D9E
:10761000FFF717FF0421284600F08AFA074B0124E0
:107620005C71FFF7EFFF042105F1100000F080FA14
:10763000034B5C7138BD00BF941F030088220020FB
:1076400090220020037813F0040216D003F0030305
:10765000012B03D0022B09D0012070470A68008853
:107660000232C0F3831002440A60F5E70B684288D7
:10767000023303EB92130B60EEE7104670470000F5
:107680002DE9F04F87B000230446861C0DF107005A
:107690000F4615468DF8073000F0FCFE404A516851
:1076A0003960936803F580735B1A924602F21C47B7
:1076B00002F5836902F21448B3421AD30020002D68
:1076C00069D004F00F039B0143F0050363F30F003F
:1076D000DAF80430DAB203321E444AF822009DF888
:1076E0000700CAF8046000F0F9FE012007B0BDE809
:1076F000F08F0121384602F005F9484602F01DF9E5
:10770000404602F01AF9DAF808000290C0B20330DD
:107710000AEB800002A9FFF795FF029B30BBDAB2AB
:107720000AEB8202D16803919A1C0133DBB20AEBA7
:1077300083030292D3F80CB001F00303012B22D093
:10774000022B15D08346404602F0FAF810B1029B96
:10775000CAF808305946384602F0D4F8DAF808304A
:10776000DAF8042003F580739B1AA5E7D8B2CEE7B8
:10777000BDF80E30C3F3891303334FEA1B4B02EB02
:1077800093030293DFE7BDF80C30C3F383134FEA92
:107790001B4B1344F5E7A40544F0060098E700BF2F
:1077A00034240020064B074810B500221A7002F05E
:1077B000F6FD044610B9044802F09EFE204610BDB6
:1077C00034240020B01E03004820030030B50A4CCA
:1077D00071B10A4A0A49121BD20800239A4201D108
:1077E000002030BD31F82350854202D00133F5E747
:1077F000034654F83300F4E7C41E0300941F03004B
:1078000074220020094B013903EBC000032909D879
:10781000DFE801F00A02040604207047007970478F
:10782000407970470020704702207047C41E030053
:10783000034BD3E90130C31A58425841704700BF87
:10784000342400202DE9F04186B0FFF7F1FF054612
:10785000002840F0E680744CC4F81804BFF34F8F42
:10786000A3680293DBB2033304EB830002A9FFF7A2
:10787000E9FE029B18B1D4F81824002A55D0DAB2D8
:10788000991C013304EB8202DBB204EB8303D26860
:10789000DB68049302F00303022B039202914FD1A1
:1078A000BDF80E306148C3F38917502F3E4628BFFC
:1078B000502666F38F1306F10801ADF80E3002F082
:1078C00086FD0546002800F0978002F0AFFD0023FA
:1078D00003A90822284602F0BCFD0299CB43DBB283
:1078E0000133C9B20331B6EB830F4FEA830804EBCF
:1078F000810122D908234246A6EB0806284602F059
:10790000A8FDF6B24A4908F108033246284602F0BB
:10791000A0FD029B033703EB97070297D4F81834B6
:10792000002B41D1D4F8106451E062689A4299D892
:10793000A260284606B0BDE8F08108233246E5E79C
:10794000012B59D1BDF80C303848C3F383110629F7
:1079500028BF062161F3891302318900ADF80C308C
:1079600002F035FD0546002846D002F05FFD0023F9
:10797000082203A9284602F06CFD0026BDF80C2061
:10798000C2F38312B300964203F10803C6D20299F0
:107990004A1CC9B20331029204EB81010422284639
:1079A00002F057FD0136E9E7284602F043FDFFF7F4
:1079B0003FFF80F00100C5B2BBE7F3685B7923B1FC
:1079C000336829461B6830469847F3681E68002EC6
:1079D000F3D1284602F02EFD0DF107008DF8076067
:1079E00000F058FDD4F818340BB9029BA3609DF841
:1079F000070000F073FDDAE7D4F8104454B90D4BDA
:107A00000D480E49C01AC008000440F0020000F002
:107A10005DF8CCE7236820469B689847E3681C68BC
:107A2000ECE7002585E700BF34240020B01E0300EA
:107A300040240020C41E0300EC1E0300312003007C
:107A40002DE9F34704460E46924601A90122184645
:107A50009946FFF715FE1B4F10B3019D4FF000082C
:107A6000AA1CC84508EB020123D11748002101F0E8
:107A700002FF80F31000000440EA1440E4006B1C95
:107A800004F03804DBB2EDB244F0010407EB8303E9
:107A9000033544EA881444EA8624D86047F8254030
:107AA0003B781BB1FFF7CEFE0028FBD102B0BDE84A
:107AB000F087C9B207EB81015AF82830CB6008F192
:107AC0000108CEE7342400205028002000231A4665
:107AD000FFF7B6BF07B50123019201AAFFF7B0FF78
:107AE00003B05DF804FB07B5CDE9002302236A4625
:107AF000FFF7A6FF03B05DF804FB1FB5CDE9012336
:107B0000069B039301AA0323FFF79AFF05B05DF8D4
:107B100004FB1FB5CDE90023069B0293079B03934B
:107B20006A460423FFF78CFF05B05DF804FB0000F4
:107B300030B50F49D1F8102403460020144634B95B
:107B4000DC6820714AB9C1F81034226030BDE468A5
:107B50002579854206D02468F1E7D2681168216052
:107B60001360F3E701300A28E8D14FF0FF30EDE76A
:107B700034240020084A38B50123D2F81044137089
:107B80001D4604B938BDE3685D71236820465B6813
:107B90009847E3681C68F4E73424002007B50346DF
:107BA0000846197A052911D05B7A2BB1094A0A498E
:107BB000019001F028FF01980849019001F023FF8E
:107BC000019803B05DF804EB01F012BF002AF8D071
:107BD000F2E700BF542003009B3803007620030027
:107BE00030B5C38885B004460D4633B1144A0092BF
:107BF0001449154A284601F006FF217A05291DD0AF
:107C0000637A4BB1A088FFF7FDFD104B104953F884
:107C10002020284601F0F7FE227A0E4BA08853F868
:107C2000222003920021FFF7D1FD039A0A4903465F
:107C3000284605B0BDE8304001F0E5BE05B030BDD6
:107C4000542003006120030059200300E0200300BA
:107C50009B38030004210300792003002DE9F04341
:107C600085B01F460C9D002395F80C902B7306469B
:107C70000C46904629463846FFF7B2FFB8F1060F8A
:107C800009D8DFE808F00412181F283340003146F5
:107C9000284601F0B8FE002229463846FFF77EFF4D
:107CA00085F80C9005B0BDE8F0832268314628467F
:107CB00001F0A9FEEFE7D4E900233146284601F0A0
:107CC000A2FEE8E7A36800933146D4E900232846E2
:107CD00001F099FEDFE7E3680193A3680093314662
:107CE000D4E90023284601F08EFED4E723690293ED
:107CF000E3680193A36800933146D4E90023284642
:107D000001F081FEC7E76369039323690293E36887
:107D10000193A36800933146D4E90023284601F07B
:107D200072FEB8E708292DE9F74F80460E46174640
:107D30001C463CD8002593F80C901D73194610463C
:107D4000FFF74EFFDFF888A0DFF888B0AE4231D9E8
:107D500018F805205946204601F055FE0135082D3A
:107D6000F4D11949194DDFF870A0204601F04BFEFF
:107D70004FF0000B5E4522D918F80B207E2A05D85B
:107D80001046019209F06AFF019A00B92E2251466D
:107D9000204601F038FE0BF1010BBBF1080FE9D1D1
:107DA000012221463846FFF7F9FE84F80C9003B013
:107DB000BDE8F08F5146204601F025FECEE729466A
:107DC000204601F020FEE6E78D2003008B20030013
:107DD00089200300832003008F200300C30710B510
:107DE00007D4F023054A4008145C2340194311547A
:107DF00010BD0901C9B20F23F4E700BF20290020FC
:107E000030B5094B1C78094B196800239C4202DCF1
:107E10000022104630BD11F83350854201EBC302F9
:107E2000F7D00133F2E700BFEC2800204029002002
:107E300013B504460191FFF7E3FF38B143682BB156
:107E40000199204602B0BDE81040184702B010BDAD
:107E5000034B044819680022490800F02ABA00BF01
:107E6000F0280020F828002010B5C0B2FFF7C8FFA6
:107E70000446007803F072F863785A1E5342534167
:107E8000834208D1044BD3E90023134303D1BDE857
:107E90001040FFF7DDBF10BD1829002037B543089B
:107EA000354AD35CC2074CBF1B0903F00F030446DD
:107EB0000D46042B35D8DFE803F003252C383C00B1
:107EC00079B30121FFF78AFF00230DF107008DF838
:107ED000073000F0DFFA0120A4F12003C4F12001F3
:107EE000264A20FA01F100FA03F30B43A040D2E93D
:107EF000004120430B43C2E900039DF8070000F056
:107F0000EDFA0EE0002918BF02212046FFF766FFB8
:107F100007E041B10321FFF761FF01212046FFF790
:107F200087FF03B030BD0121EFE70029F9D104211B
:107F3000EBE709B10321E8E7FFF750FF29462046A8
:107F4000FFF776FF0DF107008DF8075000F0A2FA59
:107F50000120A4F12003C4F12001084A20FA01F114
:107F600000FA03F30B43A040D2E9004124EA0000E9
:107F700021EA0303BFE700BF2029002018290020C1
:107F80002DE9F041124E134F00243378A34208DC50
:107F9000114BD3E90023134318D0BDE8F041FFF79C
:107FA00057BF3D6805EBC40815F8340002F0D6FF52
:107FB00098F801305A1E53425341181A4142414128
:107FC00015F83400FFF76AFF0134DEE7BDE8F08101
:107FD000EC2800204029002018290020092AF7B5A4
:107FE00005460C4616463CD902F0E8FED8B11E4BB9
:107FF0001E481D601E4B1F4F1C701F4B002120226E
:108000001E6009F08CFE1D4B00200021C3E9000119
:10801000013CE4B20326FF2C0BD1194A1948002178
:1080200000F03CF903E002F083FE0028DFD003B04B
:10803000F0BD9DF8063015F834008DF8046005EBAE
:10804000C40223F007038DF8063001A993788DF858
:1080500005303A4602F0BCFE013CE4B20028DAD01A
:10806000E5E70720E3E700BF4029002020290020A2
:10807000EC280020697E0200F0280020182900204A
:10808000817F02002421030070B5084D084E0024B2
:108090002B789C4201D3002070BD3368012113F876
:1080A000340002F011FF0134F2E700BFEC28002099
:1080B000402900201FB50021039001AA44F20100CD
:1080C000CDE9011100F004F805B05DF804FB0000F3
:1080D00010B572B6FFF74EFDFFF7B4FB0028FBD1D9
:1080E000104B114C1149E41AE408240444F0010037
:1080F000FFF7ECFC0E4B1B68DB0700D500BE0D49FB
:1081000044F00200FFF7E2FCBFF34F8F0A490B4B2C
:10811000CA6802F4E0621343CB60BFF34F8F00BF25
:10812000FDE700BFC41E0300EC1E0300282103006E
:10813000F0ED00E03421030000ED00E00400FA055A
:10814000D0E90223D1E90201994208BF90422CBF35
:10815000012000207047000008B50B4800F0F1FA3C
:108160000A4B0B49D3E900231218D1E9000143F16E
:1081700000038B4208BF824203D212F1807243F1A6
:1081800000031046194608BD982200204829002007
:10819000C029002037B505460C460A4801A901F060
:1081A0009EFA60B10570446001A9064801F0C1FA69
:1081B00018B1054800F0CAFA002003B030BD042011
:1081C000FBE700BFAC2900209822002038B5184BEF
:1081D0001B78044613B90025284638BD0028FAD07C
:1081E000037F03F0FF05002BF5D0FFF7B5FFD4E9BF
:1081F0000223994208BF904214D3236903B923771D
:10820000D4E90530984721690029E4D0237F03F0A1
:10821000FF05002BDFD0D4E90223521843F10003FD
:10822000C4E902230348214602F085F9D4E700BFE0
:10823000502900205021030013B5114B1149186833
:10824000019008231048582201F014FA044698B906
:108250000E4A0F4801A900F065F9044660B90C48C0
:10826000012100F051FA01230A4A0948194600F099
:10827000B3F9094B01221A70204602B010BD00BFAD
:108280004C21030054290020AC290020FD8202006B
:1082900098220020FFFF7F00502900203AB1036898
:1082A0005A614A1E5142514119610020704707200E
:1082B000704738B5037F04460D4683B98261FFF7E6
:1082C0004BFF2369401941F10001C4E9020103B1E8
:1082D000256121460020BDE83840FFF75BBF002044
:1082E00038BD0023014603770120FFF753BF00008C
:1082F000014800F026BA00BF982200202DE9F04F77
:1083000085B0804600F008FA40B15A4AD2E90031FF
:1083100013F1807341F10001C2E9003100214046B0
:1083200000F009FA38B1544E336823B13068FFF7D2
:108330004DFF002333600121404600F0FCF920B1DD
:10834000FFF70AFF4D4BC3E900014D484A4F4D4E20
:10835000DFF8389103A901F0FCF9002845D1DFF8D6
:108360002491454EDFF828A1484602F0FAF8336818
:10837000002875D07BB13368D0E90201D3E902232C
:10838000994208BF90422DD233681B7F1BB13168E0
:10839000484602F0D0F8484602F0DDF8D0E902B3D2
:1083A00007460193FFF7D8FE019BBBEB000463EB8C
:1083B0000105012C75F1000345DBB4F5350F40D301
:1083C000FFF796FF304A02444FF4960300215046CF
:1083D00000F022F900283ED1336813B9404600F07E
:1083E000F3F8376005B0BDE8F08F0378012B1DD09E
:1083F000022B09D14FF0000A304602F0ACF80028F9
:1084000034D080F81CA0F7E73BB941680B7F23B953
:1084100001230B77304602F08EF803A9184801F0CB
:10842000C3F903A9164801F094F996E741683B683F
:10843000994202D100233B60EFE7304602F094F806
:10844000EBE7BA68C0E70021504600F06AF9384609
:10845000FFF7BCFE01E00D28F9D00023336083E76D
:10846000002BBFD1404600F0B3F8BBE7012389F8E9
:108470000030D2E748290020C8290020C029002068
:10848000AC29002050210300FFFFB4005029002038
:108490009822002070B5EFF3108672B60C4A9468EB
:1084A00001239CB993600B4B0B4DD3F880102940EE
:1084B0001160C3F88050D3F8841051604FF0FF3240
:1084C000C3F88420047006B962B670BD0370FAE781
:1084D000CC29002000E100E0FC06FFBD084B9A68B3
:1084E00010B55AB150B9EFF3108172B6054A1C6845
:1084F00014605C685460986001B962B610BD00BF3A
:10850000CC29002000E100E0435882B03BB10023B9
:10851000435043580193019B012002B07047184615
:10852000FBE70000F8B5204B4479204D43F82420A8
:108530001F4A204B05EBC4049B1A2279DB081B045D
:1085400032B143F002001C49FFF7C0FA0820F8BD21
:1085500002680C88C2F8084590F904608A780479AA
:108560005201002ED2B219DB14498F1987F800236B
:108570000122760904F01F0402FA04F441F82640AF
:10858000427905EBC201012445F832000C7143F039
:1085900003000B49FFF79AFA0020D8E7094904F0D5
:1085A0000F040A55ECE700BFE0290020D82900207D
:1085B000C41E0300FC1E03005C21030000E100E078
:1085C0007E21030014ED00E0036801221A60704769
:1085D000036801225A60704773B501F15005AD0080
:1085E0000068ADB24FF480348C400026C0F80843D8
:1085F000C0F84843465101F5A8714559019522F04C
:108600007F42019D40F82120C0F844430BB1C0F8DF
:10861000044302B070BD00002DE9F74F0D4622F073
:108620007F4402684FF4803705F150068F40804642
:10863000B60002EB8500C2F84873B6B2C2F8087300
:10864000D2F8041599464FF0000BD0F84035C0F829
:10865000401542F806B05B1A9259009223F07F430E
:10866000012B009A4FEA850A0CD1264B4FF480600B
:1086700043F001039847D8F8003043F806B09B59FF
:108680000193019BD8F80010D1F80465C1F8447338
:10869000A31B23F07F43012B1CD11A4B05F5A875B2
:1086A000013443F0010341F825404FF480609847BE
:1086B000D8F80030D3F804359E4209D1D8F80030FC
:1086C0000020C3F84473C3F8047303B0BDE8F08F0F
:1086D0000D20FAE78A44C9F1FF13CAF84045D1F8E2
:1086E0000405221A013A22F07F4203F57F439342A8
:1086F000EED3002AE2D10134CAF84045D1F804355E
:108700009842DAE79021030003680222C3F8442369
:1087100009B1C3F80423704700684FF48271FFF772
:10872000F3BE4FF4803303FA01F10368C3F8481332
:10873000C3F80813704750318900006889B2FFF709
:10874000E3BE0368D3F804057047000090F90430D5
:10875000002B09DB5A09012103F01F0301FA03F37F
:108760004032024941F82230704700BF00E100E08A
:10877000024B034A1B681068184700BFE02900201D
:10878000D829002070B5064D0646002455F8043B54
:108790000BB1304698470134042CF7D170BD00BFAF
:1087A000F0290020033080B240F2FE33984230B509
:1087B0001FD8134B1A783AB91C895D892C4404449C
:1087C000A4B2B4F5806F0AD91A7DAAB99A8BDC8B52
:1087D0002244024492B2B2F5806F0DD801220A8081
:1087E0001446142202FB04335A8910445881002095
:1087F00030BD48F20860FBE748F20660F8E700BFCA
:10880000242A00200B4A0C4B5188142000FB013114
:10881000CB6833B90420496810700122074801F081
:1088200087BB07490523137002238B800122096847
:108830000023F3E7082A0020242A002060220020D9
:10884000EC2A002007B5002305490093054A096872
:108850000548082301F0D6FA03B05DF804FB00BF19
:10886000EC2A0020A42103006022002007B5002389
:1088700001460093034A0448082301F0C3FA03B0F9
:108880005DF804FB9C2103006022002013B5002347
:108890000C4600930146084A0848042301F0B2FA46
:1088A00038B90749142303FB04140123237402B0CD
:1088B00010BD48F20D60FAE7982103006022002005
:1088C000242A002037B50A480A4B42689C88196858
:1088D00053880325033305709BB2002000909B0052
:1088E00001EB8401044801F08DFA03B030BD00BFF4
:1088F000082A0020EC2A00206022002010B5014642
:10890000044800F0ECFE1C220446002109F007FA9E
:10891000204610BDD82A002068B10268084B9A4250
:1089200009D14068074B984207D00133984214BFE1
:10893000032001207047032070470020704700BFCC
:10894000DEC0ADDEFE011EF14388033300EB83037E
:1089500099420BD382884FF6FF739A4208D003885E
:1089600033B18068431C5842584170470220704719
:10897000012070472DE9F0410D460223154F2B8051
:10898000164600F5805100F108044FF001088C42B2
:108990000ED2236801330BD02046FFF7D5FF48B134
:1089A0000EB186F80080022809D14FF480632B8035
:1089B000BDE8F081A3683A68934200D93B602B88F8
:1089C0006288033313442B806388033304EB8304EE
:1089D000DDE700BF1C2A002038B5144B14220D46D9
:1089E00002FB00302B68446804F58051A3B15C8819
:1089F000033403EB84048C4215D22368013312D074
:108A00002046FFF7A1FF012808D002280BD000283C
:108A1000F1D12C60012038BD0834ECE763880333C2
:108A200004EB8304E7E70020F5E700BF242A0020D9
:108A3000426873B504460D466AB3244BD9688A422E
:108A400029D31B699A4226D812F0030323D1204967
:108A50000089098988421ED12068916888421AD10C
:108A60001C494868824203D900F5805082420DD3E8
:108A700089698A420CD901F580518A4208D20122C3
:108A80002A80B3FA83F0400902B070BD1A46F7E7B6
:108A900048F20963F5E700232B801E4601962888DB
:108AA00001A9FFF799FF30B92B8801339BB2012B45
:108AB0002B80F3D9E8E7019B226899689142EED1B7
:108AC0006360034B1B892381DEE700BF6022002027
:108AD000082A0020242A00202DE9F8431C461D4BBB
:108AE0001B7806460F46154673B382B37CB3DFF896
:108AF0006C804FF01409A388012B02D948F2096059
:108B000020E009FB03F318F803302BB9A0882146B5
:108B1000FFF762FF20B92060A3880133A380EAE752
:108B200023681EB1998832889142EFD11FB119880C
:108B30003A889142EAD19A68C5E90023064B1B891D
:108B40002B810020BDE8F88348F20160FAE748F283
:108B50000460F7E7002A0020082A0020242A0020C9
:108B600008B5074B5888191DFFF736FF18B1BDE847
:108B70000840FFF7A7BEBDE80840FFF743BE00BFAF
:108B8000082A00202DE9F04FA44FDFF8B49289B0F5
:108B90000646B8463B6823B9A148494600F0D9FDCE
:108BA0003860D8F8005029784B1E052B07D8DFE82D
:108BB00013F022007C007C000E010E01660148F2D9
:108BC0000E641422002103A809F0A9F841F61D53F0
:108BD0009C4208BF0024D8F8003004941A78013A67
:108BE000052A00F2F881DFE812F0E401E80108024A
:108BF000180224022E022EB18A4B00225A604FF432
:108C00000644DEE72B79032B1DD8DFE803F01502BD
:108C10002B3685490B78022B08461AD00B7D022B88
:108C20004FF0010317D114225343C2180020C85437
:108C30005068FFF71BFE03E001232B71FFF702FED4
:108C4000002800F0BE80774B00225A6048F20D6485
:108C5000B7E70023E7E7734A13700023536041F638
:108C60001D54AEE771497248002302222B718A809D
:108C70000968012201F05CF9E2E76C4C00262E71D4
:108C80002068694DFFF7F2FD6A4BD4F800C05A889E
:108C900014235343EA18EE5451682160A188C2F8A6
:108CA00004C011810222A280CAE7B5F814A0AA7DEF
:108CB000DFF874B1AEB1022AEB8806D9142101FBAA
:108CC0000AB1DA1C088902440A81142202FB0ABA9A
:108CD000C3F57F43BAF80A20FD331344AAF80A30DB
:108CE0008DE7142303FB0AB318895C6804EB800446
:108CF000062A69D8DFE802F0274E36441D5A0400E0
:108D000041F61D54AA7DEB88022A06D9142101FBE5
:108D10000AB1DA1C088902440A81142202FB0ABA49
:108D2000C3F57F43BAF80A20FD331344AAF80A308A
:108D300047E74148414900234360AB690360FFF7BF
:108D400077FE00285BD00223AB7500230093042339
:108D5000EA182146364801F055F8002831D048F28B
:108D60000D64CFE72B69002B14BF03230123AB75E0
:108D70000023009305F10C02042304F10801E9E744
:108D80000123AB750022EB8800922A699B0004F155
:108D90000C01DFE703290CBF05230623AB75002375
:108DA0000093042305F10802E118D3E70623AB750D
:108DB000224B1988204B5868FFF768FD04460028AD
:108DC000A0D109B0BDE8F08F48F20E649AE7002EFA
:108DD0007FF415AF2B79012B34D0022B3FF43FAF3A
:108DE000002B7FF4ECAE02232B710DF10A01EB682E
:108DF000039303A8CDE90466FFF71AFE10B948F201
:108E00000964DEE60498BDF80A108388EB800388C5
:108E10002B81FFF73BFD044627E000BF202A0020FE
:108E2000D82A0020002A0020242A0020EC2A002032
:108E300060220020082A0020E4290020F82A0020CF
:108E4000182A0020814B03AA3146A81DFFF744FED3
:108E50007E4B044668B999880498FFF717FD0446CD
:108E600048F209639C423FF4FAAE002C7FF4A9AEAD
:108E7000A7E708223146184608F051FFF0E7002E18
:108E80007FF4BDAE724B1A7BB2B11E731A78013AF1
:108E9000062A3FF694AE01A151F822F0478F020056
:108EA0006D8F02008B8F0200918F0200BF8B02003A
:108EB000978F0200A98F02001A78072AE6D801A12D
:108EC00051F822F0E58E02008D8E02008D8E020098
:108ED0000B8F02001F8F0200438F0200438F02009E
:108EE000078F02001A895B4901321A8100225A80D9
:108EF0001A730A78B2FA82F252099A720A7DB2FAA9
:108F000082F25209DA72012207E0534958688A88CE
:108F10004088033202448A8002221A70B6E74D4C20
:108F20005A884D49142505FB024208685468506070
:108F30008888108102200C6088800021117406222C
:108F4000EBE70722E9E79A7A32B9DA7A8AB900229E
:108F50001A705A805A6082E63E4900229A72CA68A4
:108F6000002AF2D1097C0029EFD05A80FFF7F8FDE2
:108F700051E70022DA72374A116A0029E7D192F8E4
:108F80002420002AE3D00122EFE7FFF79BFC42E711
:108F9000FFF738FC3FE72F4A5B88142101FB0323CE
:108FA0005868FFF763FC36E700225A60FFF74AFC77
:108FB00031E700238DF80C300DE001228DF80C20F4
:108FC0001A89ADF818209A88DB680593ADF81A2045
:108FD00000238DF81C3003A8FFF7D4FB0026494678
:108FE0001E48C8F8006000F0DFFB1D48012100F0BA
:108FF00095FC00287FF4CEADE3E602228DF80C202C
:109000001A89ADF818209A88ADF81A20DA689B7D85
:1090100005929A1F53425341DBE703228DF80C203F
:10902000DA88ADF818201A89DB68ADF81A200593A4
:10903000D1E704228DF80C20DB88ADF8183000232E
:10904000ADF81A30F3E70523B4E700BFFC2A00208F
:10905000082A0020242A0020EC2A0020D82A0020F8
:10906000E82A00204068FFF78DBD000008B50548DC
:10907000012100F03BFC18B9BDE80840FFF782BDB4
:1090800008BD00BFE82A00202DE9F3419846374B80
:109090001B7806460D46002B5CD000295DD0098860
:1090A0004FF6FF7399425BD06B88002B58D06B68EA
:1090B0009B0758D14AB92F890DF102013846FFF7B5
:1090C00071FB30B102B0BDE8F08113885788ADF86C
:1090D000023001A8FFF712FC044660B9BDF8023067
:1090E000234A142101FB032358890338C01B5881EC
:1090F00048F20760E6E780F8008000238375BDF83A
:10910000023083826B68036101211A4800F0FAFB88
:109110002B882381B8F1030F6B88A38004BF04233D
:10912000A3754FF0000508BF3368E06008BFA36176
:109130001148E780658101A900F0FBFA36B1E368C8
:1091400033600E4B75601B89B5723381FFF78EFF5C
:109150000020B7E748F20160B4E748F20460B1E7E5
:1091600048F20360AEE748F20260ABE7002A002055
:10917000242A00201C2A0020D82A0020082A0020A7
:1091800008B5034607480268042A08D00168064A61
:1091900042F82130012100F0B5FB002008BD48F263
:1091A0000B60FBE7F42A0020F02900202DE9F04FA6
:1091B00089B01422002103A808F0B1FD794A137880
:1091C00003F0FF01009190463BB103A8FFF7DAFAE4
:1091D0000027384609B0BDE8F08F101D00F0AAFB4B
:1091E0000028F5D140F6F8734FF080521B685C1CE4
:1091F00008BF6D4B6D4C08BF1B6811695269581C44
:1092000008BF02FB01F323616949A3F54053002223
:109210002046E36000F0C4FD019407460028D8D141
:1092200064496548DFF8A4B11C238C2200F022FABF
:10923000BA463D464FF003093C46019BDE68564462
:109240003046FFF769FB012862D0032817D00028B9
:109250003DD15A494FF0140C0CFB04FC01EB0C02FD
:1092600001F80C0056600CF110020CF1080C0A44D5
:1092700030466144FFF77EFB45F0020545E0326869
:10928000531C02D04E4B9A4234D1321D06F5805108
:10929000106801302ED104329142F9D1DBF8002060
:1092A0003AB902220123CBF80060ABF80420009306
:1092B0000BE014226243414B022099189854414A12
:1092C0004E60548001340881A4B245F001050AF5CE
:1092D000805ABAF5405FB0D1B9F1010F98BF0025AF
:1092E000EDB2022D03D0062D31D0002D39D148F238
:1092F0000A676EE7314914226243881809F1FF3981
:109300004660032088541FFA89F90134A4B2DEE7CD
:10931000009B6BB1294B1422624399180220985488
:10932000DBF800204A60274A088154800134A4B247
:1093300000222549CBF800603046FFF71BFBBBF845
:109340000420022A0CBF042208221543BFE7012390
:1093500088F8003003A80023C8F80430FFF712FA99
:1093600037E702A8FFF7CAFAC8B10123013D03702D
:109370000A2D09D8DFE805F00608060807080708DF
:109380000F110F000023037102A90B4800F0D1F95F
:10939000FFF76CFE1DE70323F5E70223F3E748F22E
:1093A000076716E7002A0020141000106022002032
:1093B000982303004C2A0020D82A0020242A0020C9
:1093C000DEC0ADDE082A0020F02A0020EC2A0020B2
:1093D00073B50D460446C8B1C1B10DF10601FFF7E2
:1093E00027FBB0B10C4BBDF806006668142202FBE7
:1093F000003001210C3000F085FA63682E600C33D8
:109400006B600123A372002002B070BD48F20460BB
:10941000FAE748F20960F7E7242A002013B504466A
:10942000A8B10DF10601FFF703FB98B10C4ABDF896
:109430000630142101FB0323DA6872B1A27A62B10B
:10944000DA680020013ADA60A07202B010BD48F27A
:109450000460FAE748F20960F7E748F20560F4E7CC
:10946000242A002002230022FFF70EBE18B1032396
:109470000022FFF709BE48F204607047114B1B78C9
:1094800013B50446ABB14FF6FF73984214D001A850
:10949000FFF734FA98B10523037001230371C480E8
:1094A00001A9094800F045F9FFF7E0FD002002B0EE
:1094B00010BD48F20160FAE748F20360F7E748F2AE
:1094C0000760F4E7002A0020D82A00200F4B1B7801
:1094D00007B5A3B101A8FFF711FA98B106230370ED
:1094E00001A90B4800F025F90A4B1A780AB10122AC
:1094F0001A73FFF7BBFD002003B05DF804FB48F2D0
:109500000160F9E748F20760F6E700BF002A002093
:10951000D82A0020082A002007B5ADF80600ADF8CB
:1095200004100DF1060001A9FFF7D6FA03B05DF8AB
:1095300004FB07B51346ADF806000A4600200DF1FE
:109540000601FFF7C9FA03B05DF804FB07B513463F
:10955000ADF806000A460DF106000021FFF7BCFA3F
:1095600003B05DF804FB20B119B103680B60002063
:10957000704748F2046070472DE9F84F3B4B1B7869
:109580000446002B6CD000286DD0DFF8E4A0122236
:10959000002108F0C4FB032323804FF0000BD046CA
:1095A00014274FF00109DAF80410BAF80A50BAF893
:1095B00008600846FFF7B0F9032808BF23886288CF
:1095C00004BF03F1FF33238007FB0B832E44DB68CA
:1095D0001344638023891D4463892581B6B23344D3
:1095E0006381C6F58066A389B6B2B34201F108056E
:1095F00038BFA68101F58051A94229D92B680133D2
:1096000026D02846FFF7A0F901280AD0022815D055
:109610000028F1D1A3880133A3800AE04FF0010BA9
:10962000C1E7E3880133E380E3896A8803331344A5
:10963000E3816B88033305EB8305DDE7E38884F87A
:1096400010900133E380E389491B03EBA101E18121
:109650000AF1140ABBF1000FE0D00020BDE8F88F3A
:1096600048F20160FAE748F20460F7E7002A0020B8
:10967000242A002010B561B1B2FBF3F403FB1424DB
:10968000A4B244B9C0E9001484608281C381204639
:1096900010BD0E20FCE70920FAE782B050E8022F47
:1096A000C188B2EB324F4FF0000317BF92B241EACC
:1096B000014142EA014104E04268B2EB324F08BF87
:1096C000012340E80212002AE8D18DF807309DF806
:1096D0000730002B0CBF1120002002B0704737B5B7
:1096E00050E8013F9DB2C48925448489A54228BF22
:1096F0002D1B0489A54202BFBFF32F8F002207E074
:10970000C5EA030540E80154002CE9D14FF00102FD
:109710008DF803200193019B9DF803200B6002F05C
:10972000FF0322B10B880068184403B030BD18460F
:10973000FBE70A884B889A4209D150E8012FC2EA18
:10974000024240E80123002BF7D10120704700209E
:10975000704737B550E8023F1FFAA3F5C488A54209
:1097600002BFBFF32F8F00220DE0C48925448489F6
:10977000A54228BF2D1BC3EA054540E80254002C32
:10978000E8D14FF001028DF803200193019B9DF871
:1097900003200B6002F0FF0322B14B8800681844DD
:1097A00003B030BD1846FBE70A884B889A4209D1BE
:1097B00050E8022FC2EA224240E80223002BF7D1F0
:1097C000012070470020704701F01F024B09012162
:1097D000914000EB830000F065B84B0910B501F033
:1097E0001F040121A14000EB830000F04FF8E0408E
:1097F00000F0010010BD01F01F0301229A404B0947
:1098000000EB8300D14300F065B84B0901F01F0164
:1098100050F82300C84000F0010070472DE9F047E0
:109820004F1E7F0980460E460137002558F8254017
:1098300008EB8509E44394FAA4F4B4FA84F44FEAFB
:10984000451A202C06D10135AF42EFD834462046C8
:10985000BDE8F0875444A642F5D921464046FFF7BB
:10986000BCFF0028F3D0D9F80040E44394FAA4F4F4
:10987000B4FA84F4E5E710B5034653E8000F0A464E
:1098800043E8002494F0000FF7D110BD10B5034653
:1098900053E8000F40EA010243E8002494F0000F6F
:1098A000F6D110BD10B5034653E8002F42EA01007F
:1098B00043E8000494F0000FF6D110BD10B5034644
:1098C00053E8000F00EA010243E8002494F0000F7F
:1098D000F6D110BD10B5034653E8002F02EA01008F
:1098E00043E8000494F0000FF6D110BD10B5034614
:1098F00053E8000F00EB010243E8002494F0000F4E
:10990000F6D110BD10B5034653E8002F02EB01005D
:1099100043E8000494F0000FF6D110BD10B50346E3
:1099200053E8002FA2EB010043E8000494F0000F7D
:10993000F6D110BD0121FFF7A9BF0121FFF7B2BF8A
:109940000021FFF7BBBF10B590B1D0E9012301683A
:109950009B1ADBB20A60013BDBB2FF2B026802D12B
:109960000020107110BD11684C1C14600B70F2E7E0
:109970000E20F7E737B5054600240DF107008DF8F6
:109980000740FEF787FD2A686B68116899420ED977
:10999000481E106011F8014CEB68298A01FB043461
:1099A000AB6811791B1ADBB2994238BF13719DF86D
:1099B0000700FEF793FD204603B030BD37B50546DE
:1099C00000230DF107000C468DF80730FEF762FD0D
:1099D0002A681368591C1160E968641A298AB4FB63
:1099E000F1F41C709DF80700FEF778FD03B030BD60
:1099F000826810B504462AB1436901680069984736
:109A00000023A36010BD0EB403B5039921B104ABCC
:109A100001AA019300F076F802B05DF804EB03B000
:109A200070470A2938B504460D4602D10D21FFF7CB
:109A3000F8FFA3682268591CA160D554D4E901320B
:109A40009A4204D32046BDE83840FFF7D1BF38BD65
:109A50002DE9F84F9846DDE90A43154682460F4640
:109A60000A464FF00109AA420FD2C14538BFC1468C
:109A700013F0010B01D16CB900240126B8F1010FDC
:109A80001BD908F1FF386E43F8E709F10109B2FB71
:109A9000F5F2E8E79B070ED5B8F1000F0CBF3026B2
:109AA0002026A145E9D2013C31465046FFF7B9FFD7
:109AB000002CF6D1E0E72026F3E7B7FBF6F39D4252
:109AC000E1D9DFF83C80B7FBF6F3504618F80310F5
:109AD00006FB1377FFF7A5FF3346AB42B6FBF5F65F
:109AE000F1D2BBF1000F02D00CB1A14501D3BDE80A
:109AF000F88F20215046013CFFF793FFF4E700BFA9
:109B0000AC2103002DE9F74F05461746884600298A
:109B100000F0428118F8011B49B92B7B002B00F0A3
:109B20003B81284603B0BDE8F04FFFF761BF252910
:109B300040F0B780002698F800302D2B424608F1FF
:109B4000010823D0302B24D02B2B25D000242A2B06
:109B500002F1010123D13B681A1D1B683A601C44C5
:109B60000A4613782E2B26D101324FF0000A1046F8
:109B700010F8011BA1F1300CBCF1090F1DD80A230C
:109B800003FB0A13A3F1300A0246F0E746F0010690
:109B9000D1E746F00206CEE746F00406CBE711F81F
:109BA000013CA3F130000928DBD80A2202FB04346F
:109BB000303C0A46CBE74FF0000A12F8011B01F0D7
:109BC000FB0068289046F8D0782909D86F290CD86E
:109BD000632962D022D8252963D0582900F08880D3
:109BE00098F80030002B95D197E770390829F7D8FD
:109BF00001A353F821F000BF739D0200E19B020016
:109C0000E19B0200019D0200E19B0200DF9C02003B
:109C1000E19B0200E19B0200F19C0200642901D05B
:109C20006929DDD13A68D2F80090111D89EAE972FC
:109C30003960A2EBE9724FF0010B092A35DCD345FC
:109C400038BFD3462CB1B9F1000F01DB720700D544
:109C5000013CB30702D5BAF1000F03D0F00701D4DD
:109C60004CBB0024B9F1000F2DDAC9F100092D21F8
:109C70002846FFF7D6FE06F00302022A04D1BAF105
:109C8000000F01D11CBB0024CDE9004653460A2237
:109C900049462846FFF7DCFEA2E73B681A1D197803
:109CA0003A602846FFF7BDFE9AE70A230BF1010B45
:109CB000B2FBF3F2C1E7A345D4D220212846013CF0
:109CC000FFF7AFFECCE77107D5D52B21D0E7A34531
:109CD000DAD230212846013CFFF7A3FED2E73968EB
:109CE000CDE900460A1D3A6053460A220968D0E7CA
:109CF00039680A1D3A60CDE9004653461022F5E75F
:109D00003B681A1D3A6016F00106D3F8009028D17E
:109D1000B9F1000F03D0484608F056F80646B442A1
:109D200000D904BB09F1FF3919F8011F00293FF4DC
:109D300057AF2846FFF775FEF6E728460136FFF7CE
:109D400070FE19F806100029F7D1A642BFF448AFFB
:109D5000002C3FF445AF20212846013CFFF761FE6F
:109D6000F3E70026EDE720212846013CFFF759FEE6
:109D7000D5E73B681A1D3A60302128461C68FFF77A
:109D800050FE78212846FFF74CFE00220823CDE93B
:109D90000032214610227CE703B0BDE8F08F00BFFF
:109DA00013B50B46114680B9104B1148114AC01A21
:109DB0000E23C0080093104B0004104940F001002E
:109DC000FDF79BFE0E2002B010BD4BB9074B0848B3
:109DD0000B4AC01AC0080E2300930004064BECE7A0
:109DE00003601B6802B0BDE810401847C41E0300A2
:109DF0001C1F0300BC21030052230300C1210300E8
:109E0000F02103002DE9F34188B93D4B3D483E4A1E
:109E1000C01AC0080E243D4B009400043C4940F099
:109E20000100FDF76AFE204602B0BDE8F0814AB9A4
:109E3000334B3448374AC01AC0080E24334B0094C1
:109E40000004EBE7D0F800E0BEF1000F09D12C4B85
:109E50002C48314AC01AC00808242C4B0094000436
:109E6000DCE74BB9264B27482C4AC01AC008092406
:109E7000264B00940004D1E74568D5F80480B3FB75
:109E8000F8F508FB15354DB11D4B1E48244AC01A84
:109E9000C00809241D4B00940004BFE78D0709D0BA
:109EA000174B18481F4AC01AC0081024174B0094BB
:109EB0000004B3E712F0030F09D0114B11481A4AFE
:109EC000C01AC0081024114B00940004A6E7C5680E
:109ED000A9420BD34D1EEC180569AC4206D8DEF83A
:109EE0000C40A44602B0BDE8F0416047044B054871
:109EF0000E4AC01AC0081024044B009400048DE7D9
:109F0000C41E03001C1F0300BC21030064230300C4
:109F1000C12103003E220300EA210300FD210300CA
:109F2000442203006E22030086220300A9220300BC
:109F3000F7B580B92A4B2B482B4AC01AC0080E240B
:109F40002A4B009400042A4940F00100FDF7D5FD9A
:109F5000204603B0F0BDD0F800C0BCF1000F09D11D
:109F60001F4B2048234AC01AC00808241F4B0094E6
:109F70000004E8E74AB91A4B1A481F4AC01AC00839
:109F800009241A4B00940004DDE74768D7F800E085
:109F90000EF1FF370F4209D0114B1248174AC01A71
:109FA000C0081024114B00940004CCE7C768B942E4
:109FB0000CD304694D1E0EFB0255A54206D8DCF8F1
:109FC0001040A44603B0BDE8F0406047044B05488C
:109FD0000B4AC01AC0081024044B00940004B2E7D6
:109FE000C41E03001C1F0300BC21030077230300D1
:109FF000C1210300EA210300FD210300D022030058
:10A00000F622030029DF704728DF704770B5036828
:10A010009E6886B004460D466EB114220021684643
:10A0200007F07DFEA3680593237901952BB1012BE1
:10A030000DD06846B04706B070BD01238DF80030E2
:10A0400023690293E368039363690493F1E70223AE
:10A050008DF80030E3681B030293F5E7084670476C
:10A0600000207047024B187A003818BF0120704753
:10A07000A02B0020034B187A0122B0FA80F05A740A
:10A0800040097047A02B002008B510461A4607F07B
:10A090001DFE002008BD000008B514220021044860
:10A0A00007F03DFE0348FFF7F8FA002008BD00BFA7
:10A0B000A02B0020902B002010B5094C094B4360C9
:10A0C0002046FFF737FC40B907F05EFB06492074D5
:10A0D0001C2306488C22FFF7CDFA002010BD00BFDC
:10A0E000A02B00208C230300042B0020902B0020A9
:10A0F00070B5244C244E237A25463BB92349244885
:10A10000FFF727FB306008B9606070BD0223346838
:10A110002B72237973B1012B24D020460321FFF742
:10A1200075FF00232B726B6018491948BDE8704019
:10A13000FFF73ABBD4E90523D21AB2F5805FD4E920
:10A14000031028BF4FF480529208012A38BF012221
:10A1500019441844FFF756FF50B11128DDD10123EF
:10A160002B72D2E7D4E903031844FFF74DFFF3E75E
:10A170002B7C002BC9D10146BDE87040022000F0C5
:10A1800009B800BFA02B0020B82B0020B42B002062
:10A19000902B002038B5831E012B45D8234C237A01
:10A1A000002B41D0022B09D1032830D0204B0022B4
:10A1B0001B68E2601A793AB1012A22D0637C7BBB2A
:10A1C000BDE83840FFF794BFD3E905128D1AB5F505
:10A1D000805F94BF521902F580529A619142EDD18D
:10A1E00002284FF0000308BF19462372104B18BF16
:10A1F0000D211868FFF70AFF0E490F48FFF7D4FA40
:10A20000DCE71A6901321A615B699A42E7E7E368A1
:10A210000133082B01D8E360D0E70023E360DFE7D8
:10A22000BDE8384007F08ABA38BD00BFA02B002037
:10A23000B82B0020B42B0020902B002000F0FD0351
:10A24000012B08D1044B00225A74421E5042504147
:10A250001874FFF74DBF7047A02B002010B5064CB7
:10A26000201DFFF767FB28B9637C1BB9BDE81040D0
:10A27000FFF73EBF10BD00BFA02B00202DE9F3412A
:10A2800080460D460F4801A916461F46FFF727FADC
:10A290000446A8B11C22002107F041FD2D0B01232B
:10A2A000237101A90748C4F80080A760E5606661D2
:10A2B000FFF73FFAFFF7D2FF002002B0BDE8F081C0
:10A2C0000420FAE7902B00202DE9F74381468846C9
:10A2D000104801A917461E46FFF701FA0446B0B11F
:10A2E0001C22002107F01BFD00250A9BA36001A989
:10A2F000C4E9037807482571C4F800906661FFF748
:10A3000018FAFFF7ABFF284603B0BDE8F08304203E
:10A31000FAE700BF902B00202DE9F84FB0F806A017
:10A320004579D2F800B09DF828900AFB05F5043D68
:10A3300088460BEB0301A94203F1040488BFA5EB97
:10A34000030BB4FBFAF607460AFB1644C2F800B04A
:10A350004EB9AAEB04055D4528BF5D46BBF1000F71
:10A3600004D1BDE8F88F3F68013EF1E7043408EB03
:10A3700006003C442A46B9F1000F0DD02146ABEB54
:10A38000050B07F0A3FCDA452E443F6855464FF015
:10A39000000428BF5D46E1E701462046EFE7FFF7EE
:10A3A000D2BAF8B546790146721E0546002393429B
:10A3B0002D6803D30024A64202D8F8BD0133F6E786
:10A3C0000F682846FFF7FAFA01343946F3E72DE91A
:10A3D000F843068ACD1C0746FFF7CCFA043E354405
:10A3E0000446B5FBF6F5F0B14FF48073EDB283800F
:10A3F000C680013D076081464FF00008A84512D293
:10A400003846FFF7B7FA064648B1637901336371FE
:10A4100008F10108C9F8000007608146EEE7204610
:10A42000FFF7BFFF34462046BDE8F8830121043022
:10A43000FFF768BA10B5012104460430FFF76EFA41
:10A4400010F0FF0F04D12046BDE81040FFF7A9BF70
:10A4500010BD1FB503920022009203AAFFF75CFF14
:10A4600005B05DF804FB1FB503920122009203AA18
:10A47000FFF752FF05B05DF804FB41DF70470000B5
:10A48000064B10B500241C70054B1C60BFF35F8F9A
:10A490000449054800F039F8204610BDC42B0020BF
:10A4A000C82B0020C4230300BC2B002007B50023C9
:10A4B0000DF107008DF80730FDF7ECFFF1EE103AD3
:10A4C00023F09F03E1EE103ABFF35F8F094B402268
:10A4D000C3F884219DF80700FEF700F807F054F94F
:10A4E00020B1FFF7CAFF03B05DF804FB20BF40BFF7
:10A4F00020BFF8E700E100E0836800225A60C3E96A
:10A5000004229A60DA601A6070470B684A684360F8
:10A51000934208BF0023016008BF4360704743684F
:10A5200043B10268916852680B449342436004BF90
:10A5300000234360704770B5446806460D462068A6
:10A5400018B1B3682946984718B923682B6025606D
:10A5500070BD2468F3E74368186808B102681A60A0
:10A5600070474368186870474368186800B97047B7
:10A57000884203D102681A600120704703460068D0
:10A58000F4E7000010B50D49A1F59472914201D88D
:10A5900000200FE08C1AE30F03EBE4035B1002EBE7
:10A5A000C30452F83330834205D802D204F10802C2
:10A5B000ECE7606810BD2146E8E700BFD028030043
:10A5C00008B5FFF7DFFF024B002808BF184608BD9B
:10A5D000932703000B7B23B14B68036000230371B7
:10A5E00070470B6803600123F9E703684A688968CC
:10A5F00010B5D41A8C428BBF5B1800230360026035
:10A6000098BF037110BD03680A68896810B59C1A69
:10A610008C428BBF5B1A01230360026098BF0371F9
:10A6200010BD037910B504461BB1FFF7DEFF2068AB
:10A6300010BDFFF7E8FFFAE7034B1868A0F1080325
:10A6400058425841704700BF30010010064B1B684C
:10A65000082B06D1054B1B68032B02D8044AD05C9B
:10A6600070470020704700BF300100103401001017
:10A67000D028030008B5FFF7DFFF40B14FF080435B
:10A680000022C3F80C21C3F81021C3F83825FFF7C6
:10A69000D3FF002846D04FF080525E4BD2F804140E
:10A6A000C3F82015D2F80814C3F82415D2F80C14F6
:10A6B000C3F82815D2F81014C3F82C15D2F81414C6
:10A6C000C3F83015D2F81814C3F83415D2F81C1496
:10A6D000C3F84015D2F82014C3F84415D2F8241456
:10A6E000C3F84815D2F82814C3F84C15D2F82C1426
:10A6F000C3F85015D2F83014C3F85415D2F83414F6
:10A70000C3F86015D2F83814C3F86415D2F83C14B5
:10A71000C3F86815D2F84014C3F86C15D2F8442475
:10A72000C3F87025FFF792FF10B13B4B3B4A1A600C
:10A73000FFF78CFF18B13A4BFB22C3F81825FFF73F
:10A7400085FF48B13749384B0A681B6822F00F0271
:10A7500003F00F0313430B60FFF778FF18B1334B7F
:10A760004FF400721A60FFF767FF48B14FF0804363
:10A77000D3F80024D20744BF6FF00102C3F80024CD
:10A780002B4AD2F8883043F47003C2F88830BFF304
:10A790004F8FBFF36F8F4FF01023D3F80022002AA2
:10A7A00003DBD3F80432002B2FDA224B0122C3F84B
:10A7B0000425D3F80024002AFBD04FF010221221E8
:10A7C000C2F80012D3F80024002AFBD04FF0102367
:10A7D0001222C3F80422174B1A46D3F8001400299A
:10A7E000FBD00021C3F80415D2F80034002BFBD0B5
:10A7F000BFF34F8F0E49104BCA6802F4E062134357
:10A80000CB60BFF34F8F00BFFDE70C4B0C4A1A60C3
:10A8100008BD00BF00C000408C56004048810300C6
:10A8200000F00040E40E0040580200104096024044
:10A8300000ED00E000E001400400FA05A022002045
:10A840000090D003074B1B5C1F2B8ABF064A4FF0BA
:10A85000A04203F01F03D2F80405D840C04300F023
:10A8600001007047D828030000030050074B1B5C11
:10A870001F2B86BF064903F01F034FF0A0410122A2
:10A8800002FA03F3C1F80C35704700BFD828030063
:10A8900000030050074B1B5C1F2B86BF064903F0CB
:10A8A0001F034FF0A041012202FA03F3C1F808355B
:10A8B000704700BFD82803000003005008B50020EF
:10A8C000FFF7E8FF0120FFF7E5FF0220FFF7E2FFB7
:10A8D000BDE808400320FFF7DDBF08B50020FFF703
:10A8E000C5FF0120FFF7C2FF0220FFF7BFFFBDE851
:10A8F00008400320FFF7BABF0A4B185C1F288ABF25
:10A90000094B4FF0A04300F01F00D3F804250121AC
:10A91000814021EA02000A40C3F80805C3F80C256B
:10A92000704700BFD828030000030050074B1B5C92
:10A930001F2B8ABF064A4FF0A04203F01F03D2F834
:10A940001005D840C04300F001007047D428030030
:10A95000000300500B2809D00C2809D0182809D072
:10A9600019280CBF03204FF0FF30704700207047BC
:10A970000120704702207047014B185C704700BFF0
:10A98000D4280300C20710B504460CD54FF0A043ED
:10A990000322C3F83427C3F83827C3F83C27C3F889
:10A9A0004027FFF78BFFA3070AD54FF0A0430C22E7
:10A9B000C3F82C27C3F83027C3F86027C3F86427EF
:10A9C00010BD000038B5074C051E04F1080318BF80
:10A9D0001C4623682BB11A6822605B68284698479A
:10A9E000F7E738BDD42B002020B9054B01225A705F
:10A9F000FFF7E8BF012802D1014A9070F8E77047DD
:10AA0000CC2B002020B9034B01225A70FFF7DABF8C
:10AA1000704700BFCC2B002038B50E4C2378B3B95B
:10AA20000D486360A3602361E36000F0E5F805462C
:10AA300006F0AAFE08B900F0EBF801232370074BDB
:10AA4000D3F800340BB10123A370284638BD852507
:10AA5000F5E700BFCC2B0020E9A90200000001406F
:10AA600037B50D4C00230DF107008DF80730FDF7C9
:10AA700011FDE368013BE360E36833B9074BD3F8AA
:10AA8000005415B900F0D6F8A5709DF80700FDF741
:10AA900025FD03B030BD00BFCC2B002000000140DD
:10AAA000012813B50CD0032820D038B9124B01224D
:10AAB000C3F88020BFF34F8FBFF36F8F02B010BD7C
:10AAC0000E4C00230DF107008DF80730FDF7E2FC76
:10AAD00023780BB9FFF7A0FFE3689DF80700013367
:10AAE000E3600123A370FDF7F9FCE7E700F090F8BD
:10AAF000FFF7B6FFE2E700BF00E100E0CC2B00204B
:10AB00001FB503788DF800304368019383688DF892
:10AB10000830C368054A0393054B684653F8213053
:10AB200052F82110984705B05DF804FBE02B002097
:10AB3000E82B00201FB503788DF80030436801939F
:10AB400083688DF80830C368054A0393054B68464F
:10AB500053F8213052F82110984705B05DF804FBF6
:10AB6000E02B0020E82B0020F0B5194B90F800C036
:10AB7000DFF86CE043F82C20164B16460A6943F8C0
:10AB80002C204B7F0EF80C300C4607460FCC89B0BA
:10AB90006D460FC594E80F0085E80F001EF80C30D5
:10ABA000CDF810C04BB1002E0B4A694608BF3246A3
:10ABB000381D00F0E9FD09B0F0BD002E074A6946D6
:10ABC00008BF324607F10C0000F0B6FBF3E700BF08
:10ABD000E82B0020E02B002001AB020035AB020087
:10ABE000F02B002000F18040002382B00360036856
:10ABF0000193019B02B07047044A137923B90121E4
:10AC0000106091801846704785207047F42B002013
:10AC1000074B1A68D20704D4C02283F8002301220C
:10AC20001A604FF080430122C3F81825704700BF17
:10AC300000E100E04FF0804208B50223C2F808337B
:10AC40004FF48270FFF7CEFF034B01211960D2F859
:10AC50001834DB03FBD408BD0C000040124B1B680A
:10AC600010B573B14FF48070FFF7BCFF4FF0804315
:10AC70000122C3F808230D4B587910B95A711B688B
:10AC800098470B4B1B6873B14FF48270FFF7AAFF14
:10AC90004FF080430222C3F80823044BBDE8104064
:10ACA0001B680120184710BD00010040F42B002054
:10ACB0000401004000F1804000F5C040002382B054
:10ACC000036003680193019B02B0704703681F2B68
:10ACD00083BF03F01F03036001484FF0A04070479B
:10ACE0000003005007B5019001A8FFF7EFFF019B9B
:10ACF00000EB8300D0F8003723F44033C0F800376E
:10AD0000D0F8003743EA0141C0F8001703B05DF8FE
:10AD100004FB0000054B4FF0FF32072843F82020CA
:10AD200084BFC01880F85820704700BFFC2B00205B
:10AD300038B51E4C94F86A30ABBB4FF6FF71FF205C
:10AD40005A09012A14BF4FF0FF320A4603F01F05CB
:10AD5000EA40D20748BFE21803F1010348BF82F876
:10AD60003000302BECD10021C8B2FFF7D3FF013106
:10AD70000C29F9D1062200210D4806F0D0FF0D4B19
:10AD8000C02283F8062340221A604FF4BE70FFF7FA
:10AD900091FF094B4FF00042C3F80423012384F8CC
:10ADA0006A30002038BD0820FCE700BFFC2B0020E3
:10ADB000602C002000E100E000600040034B93F8AD
:10ADC0006A00003818BF0120704700BFFC2B00202C
:10ADD000F7B53B4E3318054693F93030002B6CDA4B
:10ADE0008B78C3F34003002B0BBF082400240C20F6
:10ADF0000820844202D1042003B0F0BD56F824702C
:10AE0000013743D1701946F8242080F8304013B937
:10AE1000331983F858508B785A0717D4D80737D589
:10AE200001A80195FFF752FF019B00EB8300D0F8CA
:10AE3000003723F00203C0F800372248EA0805F083
:10AE400007070123BB40875C3B4383548B780A7818
:10AE500013F0020328D0A40004F1804404F5C04498
:10AE60002D02D4F8103523F44F3323F44073C4F883
:10AE700010351204D4F8103505F47C5502F4403234
:10AE800015431D43C4F810550020B5E70134B0E761
:10AE900001A84A780195FFF719FF019B03F5E073BC
:10AEA000920040F82320C8E7083C344494F86050EE
:10AEB00045EA821284F86020E6E708209CE700BF9C
:10AEC000FC2B0020602C002073B5224C2618054670
:10AED00096F93020072A1ADD224492F858309B094F
:10AEE000032B0FD1019001A8FFF7F0FE019BD0F8D2
:10AEF0001015D94001F0010102312846FFF7F2FE9A
:10AF000002B070BD012B0CBF02210321F5E7D3B2C3
:10AF1000072BF5D8930003F1804303F5C043D3F822
:10AF2000100540F00100C3F8100502F14000800058
:10AF300080B2FFF7BFFE0029E2D096F9303054F816
:10AF40002330002BDCD0012303FA02F2024BC3F8BA
:10AF50000423D5E7FC2B00200060004007B50190DA
:10AF600001A8FFF7B3FE019BD0F81005D84000F010
:10AF7000010003B05DF804FB2DE9FF470024CDE993
:10AF80000244584D4FF48072012102F1804303F5D1
:10AF9000C04390B21B68012B06D1D5F804330B4295
:10AFA00002D0FFF787FE0C430432B2F5907F4FEAE0
:10AFB0004101EAD14C4B1B68012B11D14FF4BE70FB
:10AFC000FFF778FE4FF0A04344F00044D3F820256B
:10AFD0000292C3F82025D3F820280392C3F8202832
:10AFE00014F0FF0F1AD0414F00250126344210D033
:10AFF000AB0003F1804303F5C043D3F81005D3F849
:10B00000101557F8253023B1C1F30141C0F30520D5
:10B0100098470135082D4FEA4606E7D1002C59DA4A
:10B02000324D334C334E4FF00008012716F9013BE7
:10B030005A1C3CD0C3F3C20104A801445FFA83F94F
:10B0400011F8081C03F03F0203F0070307FA03F3AB
:10B0500019422CD001A80192FFF738FE019B03F59D
:10B06000E07350F82330C3F3014ABAF1020F1046DF
:10B070000CBF03210221FFF735FE01A80192FFF763
:10B0800025FE019B07FA03F3C0F82035AB1893F9AE
:10B09000303055F8233053B14FEA9911032904D0C9
:10B0A000BAF1020F19D1012901D11046984708F1D0
:10B0B0000108B8F1040FB9D14FF0A043D3F820250F
:10B0C0000292C3F82025D4F820350393C4F8203524
:10B0D0001343A7D104B0BDE8F087BAF1030FE6D15E
:10B0E0000229E1E7006000407C610040FC2B002069
:10B0F000000300505C2C0020014B1B68184700BF68
:10B10000682C00200E4B984237B50C4602D0002028
:10B1100003B030BD00230DF107008DF80730FDF7B7
:10B12000B9F9084B1D7915B901221C601A719DF8F7
:10B130000700FDF7D3F9002DE9D01120E8E700BFA3
:10B1400000200040682C0020034B984201BF034BB5
:10B1500000221A601A71704700200040682C0020FD
:10B160000023435082B043580193019B02B07047C3
:10B170000A4610B54FF48E71FFF7F2FF136A91681B
:10B18000C95C136A01331362C0F81C1510BD8B69CA
:10B190000A4610B54FF4847123B9FFF7E1FFD0F8E8
:10B1A000183510BDFFF7DCFF536AD168D0F81805D9
:10B1B000C854536A01335362F3E700001FB50123FB
:10B1C0008DF80030044BCDE90110D3E90012684638
:10B1D000904705B05DF804FB702C002030B54C485A
:10B1E000D0F8043313F4007F85B005464DD0D0F875
:10B1F0002431002B49D04FF49271FFF7B1FF4FF487
:10B200000173C0F80833434B93F829200AB901228F
:10B2100042603F4902228DF80020D1F88024C1F815
:10B22000802403929A690292DA6801920022C3E9AB
:10B2300006226846D3E9001290473548D0F81C3101
:10B240005BB134494A690B6A9A420A464AD991F875
:10B250002830002B46D1FFF78BFF2D48D0F8443122
:10B260008BB14FF4A271FFF77BFF2A4B93F8292093
:10B270000AB1012202609A692AB10022586AD9688B
:10B280009A61FFF79BFF05B030BDD5F804335B072B
:10B29000D3D5D5F80831002BCFD01E4C1C48214601
:10B2A000FFF775FF636AA2699A422346C5D1E26936
:10B2B000E1684AB12369E3600023606AA261E36147
:10B2C0006362FFF77BFFB8E794F829200AB90122EF
:10B2D0006A600F4A4FF40170C2F808030022586AEE
:10B2E0009A61EEE70A484FF48E71FFF739FF536910
:10B2F000002BB2D051690291002391688DF8003083
:10B30000019153616846D2E900139847A5E700BF51
:10B3100000200040702C00201F2886BF00F01F0076
:10B32000044B4FF0A04300F5E070022243F82020C8
:10B33000704700BF000300502DE9F843614B0579C9
:10B3400091462C2202FB0532064692F82A200C4632
:10B350009846002A40F0B1805B490068FFF7D2FEB2
:10B360000746002840F0AB8021684A1C10D01F29F6
:10B3700087BF564A01F01F030B464FF0A042012041
:10B38000984003F5E073C2F80805032042F8230053
:10B390006068431C0DD01F288BBF00F01F030346BD
:10B3A0004A4A4FF0A04203F5E0734FF0000C42F818
:10B3B00023C03368A269C3F8242594F814C0627DC1
:10B3C000BCF1010F4CEA0202C3F86C25C3F8140566
:10B3D000C3F80C152BD1A168481C0DD01F298BBFB9
:10B3E00001F01F020A4639484FF0A04002F5E07212
:10B3F0004FF0000C40F822C0E068421C13D01F2818
:10B4000087BF324A00F01F0C84464FF0A0424FF035
:10B41000010E0EFA0CFE0CF5E07CC2F808E54FF0C8
:10B42000030E42F82CE0C3F80805C3F810152C23CE
:10B430006B4308EB0302C2F80490226948F803202A
:10B44000B9F1000F21D03068247F4FF48E71FFF7DF
:10B4500087FE4FF4A2713068FFF782FE32681C4B02
:10B46000C2F80433110B42F307326301002ADBB246
:10B470001EDB1848841884F800330123520901F0B8
:10B480001F0103FA01F140F8221033680422C3F8C7
:10B4900000252C2303FB05830022C3E9062283F841
:10B4A00029205A61012283F82A203846BDE8F88312
:10B4B000094A01F00F015354E7E70827F5E7112780
:10B4C000F3E700BF702C0020DDB102000003005044
:10B4D0008000020000E100E014ED00E02DE9F04101
:10B4E00003680479284D0022C3F800252C2202FBB2
:10B4F000045201465268A2B1244AC3F808231A0B29
:10B5000043F30733002B0CDB02F01F005B09012221
:10B51000824020331E4840F82320BFF34F8FBFF3F3
:10B520006F8F0B68D3F80C05D3F81485D3F8086532
:10B53000D3F810754FF0FF329042C3F81425C3F8CA
:10B540000C25C3F80825C3F8102501D0FFF7E4FE49
:10B55000B8F1FF3F02D04046FFF7DEFE7A1C02D072
:10B560003846FFF7D9FE731C02D03046FFF7D4FEF1
:10B570000868FFF7E9FD2C2303FB0454002384F83B
:10B580002A306360BDE8F081702C00208402020044
:10B5900000E100E02DE9F047204F90F804904FF0D3
:10B5A0002C0808FB097405466669002E34D16261D7
:10B5B0000068A16026624FF48E7184F82860FFF75E
:10B5C000CFFD2868012383602146FFF7D1FD636822
:10B5D000A0468BB92868D4F814A0236A9A4511D8DC
:10B5E0002A68D2F81C31002BFBD00123D3602C2316
:10B5F00003FB097300225A613046BDE8F08794F8D6
:10B6000028303BB9D0F81C31002BF8D04146FFF769
:10B61000AFFDE2E70F26EAE71126EDE7702C0020E8
:10B620000023435082B043580193019B02B07047FE
:10B630001FB501238DF80030044BCDE90110D3E98B
:10B6400000126846904705B05DF804FB9C2C002072
:10B650001F2886BF00F01F00044B4FF0A04300F5E9
:10B66000E070022243F82020704700BF0003005022
:10B670007FB5434AD2F82461002E60D010464FF4C3
:10B680009271FFF7CDFF02238DF80030D2F880349D
:10B69000C2F880340393D2F83C350293394BDA6810
:10B6A00001920022C3E906226846D3E900129047BE
:10B6B0003348D0F8443173B14FF4A271FFF7B0FFB3
:10B6C000304B9A693AB10022C3E90622D968D0F812
:10B6D0003C05FFF7ADFF2A48D0F82031ABB14FF45D
:10B6E0009071FFF79DFF0123C360264B5A6962B139
:10B6F000D0F84C150291002299688DF80020019134
:10B700005A616846D3E9001290471D48D0F8583175
:10B710009BB14FF4AC71FFF783FF1A4B5A6962B1CA
:10B72000D0F84C150291002299688DF80020019103
:10B730005A616846D3E90012904704B070BDD2F850
:10B740001031002BB4D04FF488711046FFF768FF1A
:10B750000C4BD2F83C0599698842A9D1DC69D968BB
:10B7600064B1D2F8005225F02005C2F800521A69DF
:10B770009C61DA60DE61FFF75BFF99E79C61FAE7A5
:10B78000002000409C2C00202DE9F843674B0679EF
:10B790009146242202FB0632044692F820200D46F0
:10B7A0009846002A40F0BE8061490068FFF7AAFC75
:10B7B0000746002840F0B8802868421C10D01F2897
:10B7C00087BF5C4A00F01F0303464FF0A0420121EF
:10B7D000994003F5E073C2F80815032142F82310DD
:10B7E00069684B1C0DD01F298BBF01F01F030B464E
:10B7F000504A4FF0A04203F5E0734FF0000C42F8BE
:10B8000023C02368AA69C3F8242595F814C06A7D6B
:10B81000BCF1010F4CEA0202C3F86C25C3F80C0519
:10B82000C3F814152BD1A968481C0DD01F298BBF54
:10B8300001F01F020A463F484FF0A04002F5E072B7
:10B840004FF0000C40F822C0E868421C13D01F28BB
:10B8500087BF384A00F01F0C84464FF0A0424FF0DB
:10B86000010E0EFA0CFE0CF5E07CC2F808E54FF074
:10B87000030E42F82CE0C3F80805C3F81015242382
:10B88000734308EB0302C2F804902A6948F80320C6
:10B89000B9F1000F30D020682A7F4FF48871FFF78C
:10B8A000BFFE20684FF49071FFF7BAFE20684FF496
:10B8B0009271FFF7B5FE20684FF4A271FFF7B0FE5A
:10B8C0004FF4AC712068FFF7ABFE23681A49C3F848
:10B8D0000413190B43F307335201002BD2B21CDBC4
:10B8E0001648C51885F8002301225B0901F01F01E5
:10B8F00002FA01F140F8231023680822C3F800255A
:10B90000242303FB06830022C3E906225A61012295
:10B9100083F820203846BDE8F883094B01F00F0179
:10B920005A54E9E70827F5E71127F3E79C2C002094
:10B9300071B60200000300501003420000E100E075
:10B9400014ED00E02DE9F0413D4E05790468242313
:10B9500003FB056302465B68ABB13A4BC4F808339E
:10B9600044F30733002B4FEA14310CDB01F01F00C6
:10B970005B09012181402033334840F82310BFF395
:10B980004F8FBFF36F8FD4F8003223F02003C4F839
:10B990000032242303FB05639B6933B14FF4A2718A
:10B9A0002046FFF73DFE012363604FF4AC71204653
:10B9B000FFF736FE0123E360242303FB0563D4F87D
:10B9C00058110029FBD0996919B1D4F84411002904
:10B9D000F5D00023C4F800351368D3F80C05D3F86C
:10B9E0001485D3F80815D3F810754FF0FF32904244
:10B9F000C3F80C25C3F81425C3F80825C3F810258F
:10BA000001D0FFF725FEB8F1FF3F02D04046FFF717
:10BA10001FFE7A1C02D03846FFF71AFE4B1C02D0DC
:10BA20000846FFF715FE2046FFF78EFB242303FB95
:10BA30000565002385F820306B60BDE8F08100BF0C
:10BA40009C2C00201003420000E100E001F0604364
:10BA5000B3F1005F2DE9F041064638D11E4B07795E
:10BA6000242505FB073598466C69002C31D16A61A5
:10BA70000068A9604FF49071FFF7D2FD4FF4AC71EC
:10BA80003068FFF7CDFD33686A69A968C3F84415CB
:10BA9000C3F8482501229A606A68AAB9D3F8202120
:10BAA000D3F858411AB9002CF8D00F2407E0002C25
:10BAB000FBD10122DA60D3F85821002AFBD02423DD
:10BAC00003FB078700237B612046BDE8F08110243B
:10BAD000FAE71124F8E700BF9C2C00200220FEF7B3
:10BAE0000BBF00002DE9F04780460D46FEF732FF00
:10BAF0000328044610D8012D10D0022D30D05DB996
:10BB00001A48FCF7EEFB1A4B04EB440213449E78F0
:10BB1000184B1B5DB34219D0BDE8F087144D00EB04
:10BB20004002A918AE5C4A78470052B1DFF84C9049
:10BB30000E484A464FF48041FCF7BBFB08B989F830
:10BB400000803B192B449A780A4B1A55002EE3D0FB
:10BB5000094B1B68002BDFD03046BDE8F047184783
:10BB600000EB4004024804446678EFE7E82C00202C
:10BB7000282D0020412D00203C2D0020C02C00202D
:10BB800000780221FFF7AEBF08B5094B1B7853B10F
:10BB90000020FEF77FFE0120FEF77CFEBDE8084096
:10BBA0000320FEF777BEBDE80840FEF787BE00BF62
:10BBB000C12C0020F8B57B4C237805461BB100232F
:10BBC0002370FFF7E1FF172D00F28880DFE805F012
:10BBD0000C17174354657680888D888D959A9A9AAC
:10BBE0009A9AC4C9D1D9E4E4FFF7CEFF6E48FCF7B6
:10BBF00078FB6E4B002204461A702046F8BD0020E8
:10BC0000FEF720FEF8B10020FEF744FE022D0CBF27
:10BC10004FF4E1614FF47A61644B1D704FF40040C2
:10BC20004FF47A740025E0FB01454FF4FA620023DB
:10BC30002046294605F052FF00220146BDE8F840A3
:10BC40005948FCF736BBFEF711FE022D0CBFC82188
:10BC50004FF4C871E0E70020FEF7F4FD40B100208A
:10BC6000FEF718FE4FF44871504B03221A70D5E7C7
:10BC7000FEF7FCFDC821F7E70020FEF7E3FD38B131
:10BC80000020FEF707FE4FF47A61484B0422EDE7EF
:10BC9000FEF7ECFD4FF4C871F7E70020FEF7D2FD88
:10BCA00048B10020FEF7F6FD404B05221A7040F621
:10BCB000CD410022C2E7FEF7D9FDF5E70020FEF7EF
:10BCC0001BFE3A4B06221A70002240F26661B5E76D
:10BCD0000020FEF7CBFD354B07221A7000248CE7BD
:10BCE00001202070FEF708FEEEE701202070FEF72D
:10BCF00003FE00224FF40051A0E7FEF7EEFD2B4BB0
:10BD00000C22EAE72A482B4EFCF7EBFAD5F1110595
:10BD100004461CD0D8B9012D13D0C8235D434FF47D
:10BD200000474FF47A7000214FF4FA620023C7FBFA
:10BD3000050105F0D3FE224601461D48FCF7B9FA7D
:10BD400004460220FEF792FD0123337055E70220DE
:10BD5000FEF7A0FD0023F8E7FFF716FF134B1222B2
:10BD6000BBE7FFF711FF0020FEF780FD0F4B13220A
:10BD7000B3E7FFF709FF0120FEF778FD0B4B142214
:10BD8000ABE7FFF701FF0020FEF770FD0120FEF793
:10BD90006DFD064B1522A0E7FEF79FFD034B1D70BE
:10BDA0009CE700BF382D0020082D0020402D0020EA
:10BDB000C82C0020C12C0020044B1B68DB0703D5D6
:10BDC000034B1878FFF7F6BE704700BF342D0020F4
:10BDD000402D0020002910B514BF03240024FEF7D5
:10BDE000CBFD1F288ABF0A4B4FF0A04300F01F0075
:10BDF00003EB8000D0F8002722F44032C0F800277F
:10BE0000D0F8003743EA0443C0F80037002010BDE3
:10BE100000030050032801D8FEF788BD00207047BA
:10BE2000044B1B6813F0010301D0FFF7C3BE184693
:10BE3000704700BF342D002038B51C4B18601C4BD8
:10BE400010F00204054619601AD01A4B1A480E2247
:10BE50001A700F22DA7010229A7111225A7204217C
:10BE600040F23332FCF7BAF8044648B9FCF70CF953
:10BE7000044628B90146114A1148FCF70FFA044656
:10BE8000EB0711D50120FEF77DFD6CB921460D4A67
:10BE90000D48FCF703FA044630B9BDE838400B4AB8
:10BEA0000B480121FCF7FAB9204638BD342D00209B
:10BEB0003C2D0020282D00200029030081BB02001A
:10BEC00024290300B9BD020028290300DDBA0200BD
:10BED00020290300032811D8012A0AD101290FD1F2
:10BEE00000F10E02D2B20D4B00EB40001A540020BC
:10BEF00070470129F7D0022904D049B107207047C3
:10BF00000022F8E7054B00EB400018444270EEE7D2
:10BF1000024B00EB400018448270E8E7282D002017
:10BF2000032802D80121FFF755BF0620704708B546
:10BF3000012202210020FFF7CDFF08B1072810D110
:10BF4000072202210120FFF7C5FF08B1072808D109
:10BF500000210A220846FFF7BDFF10B1072808BFDD
:10BF6000002008BD0388102B10B502D0112B1ED065
:10BF700010BD1A4C2168B1B901220846FFF7AAFF8B
:10BF800008B1072824D1072202210120FFF7A2FFD0
:10BF900008B107281CD1042202210020FFF79AFFD4
:10BFA00008B1072814D1236801332360E0E70B4A66
:10BFB0001368013B1360002BDAD1FFF7B8FF0028AC
:10BFC000D6D0074B1B68002BD2D0BDE810401847D5
:10BFD000034B1B68002BE6D09847E4E74C2D00206C
:10BFE000482D002008B50020FFF79AFF08B1062869
:10BFF00006D10120FFF794FF10B1062808BF0020EA
:10C0000008BD00000D4B10B518600C4629B1012089
:10C01000FFF700FF40B102232370094B1B6853B99F
:10C02000BDE81040FFF783BFFFF7F4FE08B10B2314
:10C03000F2E72070F1E7002010BD00BF482D00207E
:10C040004C2D002076DF704778DF70477ADF70472D
:10C050007CDF70478FDF704769DF704733DF7047E1
:10C06000FCF728B81FB50023184919488DF802308D
:10C070000124ADF80040FEF7D4FA1649ADF80400EB
:10C080001548FEF7CEFA15498DF806001448FEF75C
:10C09000C8FABDF80430ADF80800B3F5407F114888
:10C0A00088BF8DF80240694605F043FA30F0080277
:10C0B00009D020F00202112A05D043F20142904239
:10C0C00001D0FBF7F7FF04B010BD00BF5C320020C9
:10C0D0006C320020D0310020E0310020E831002017
:10C0E000F83100204032002008B50D490D48FEF718
:10C0F00098FA4FF6FE72C1B20B4804F0F9FF30F027
:10C1000008020BD020F00202112A07D043F20142AC
:10C11000904203D0BDE80840FBF7CCBF08BD00BF8C
:10C1200098310020A83100208431002008B500207B
:10C13000FFF776FE08B1FBF7BDFFFFF753FF08B12D
:10C14000FBF7B8FFFFF78AFF18B1BDE80840FBF71F
:10C15000B1BF08BD0388212B13B5044639D005D8DB
:10C16000102B0CD0112B25D002B010BD3B2B01D0D1
:10C17000562BF9D1A0881321FFF764FF15E0194B66
:10C1800019481A49C01AC008000440F00300FBF720
:10C190009DFC0720FFF744FE08B1FBF78BFF144B13
:10C1A000A1881448198002F0F3FC0028DCD0FBF7CA
:10C1B00081FFD9E70B4B0C480F49C01AC008000497
:10C1C00040F00300FBF782FC094B4FF6FF721A8028
:10C1D000CAE7002301A98088ADF80430FFF73AFFD1
:10C1E000E3E700BFC41E0300EC1E03002C2903007C
:10C1F000B0220020143200203729030008B503784C
:10C200004BB9054B3B211888FFF71CFF18B1BDE85F
:10C210000840FBF74FBF08BDB0220020072808B533
:10C2200013D00A280DD0042819D10D4B13211888DA
:10C23000FFF708FF30F0080311D0BDE80840FBF716
:10C2400039BFBDE80840FFF771BF054B1A884FF6AC
:10C25000FF739A4203D1034801F059F8EAE708BD99
:10C26000B0220020502D002008B598B1032815D128
:10C270000B4B0C480C49C01AC008000440F00300E6
:10C28000FBF724FC0220FFF7CBFD38B1BDE80840E6
:10C29000FBF710BFBDE80840FFF748BF08BD00BF6F
:10C2A000C41E0300EC1E03004529030008B5054821
:10C2B000032100F0E5FE18B1BDE80840FBF7FABE27
:10C2C00008BD00BF502D002010B5044603F07EFFCE
:10C2D000204603F05DFD23780C2B03D1BDE8104010
:10C2E000FFF7E4BF10BDFBF7E5BE000000B54FF45B
:10C2F0008041C1B00020FBF755FA08B1FBF7DAFE28
:10C30000FBF784F9FBF798FF08B1FBF7D3FEB54ABA
:10C31000B5480121FBF7C2FF08B1FBF7CBFEB34ADA
:10C32000B3480121FBF7BAFF08B1FBF7C3FEB149DF
:10C330000320FFF781FD08B1FBF7BCFE15A9002023
:10C34000FFF760FE08B1FBF7B5FE9DF85450FEF70D
:10C3500097F808B1FBF7AEFE05F082F908B1FBF7DC
:10C36000A9FE00230FA901200F9305F07DFA08B163
:10C37000FBF7A0FE0C22002115A805F0D0FCBDF8AB
:10C3800054309D4823F47F7323F0030343F48873F0
:10C3900043F00103ADF8543000231693ADF85C3040
:10C3A00005F012FD0F9AADF85E0015A94120FFF7C8
:10C3B00053FE08B1FBF77EFE0FA805F023FB08B182
:10C3C000FBF778FE11238C488DF83C3005F0FCFC1F
:10C3D000894982B20FA8FFF73BFE08B1FBF76AFE5E
:10C3E0004FF48860FFF730FE08B1FBF763FE834C23
:10C3F0000822002115A805F092FC4FF0C87315A87B
:10C40000CDE91543FFF722FE08B1FBF753FE7C4848
:10C41000002102F0B5FA08B1FBF74CFEAC22002176
:10C4200015A805F07CFC40F20163ADF856300323FB
:10C43000ADF86430734B1A9302220123282044F292
:10C440005061CDE93701CDE93C238DF8D0308DF82E
:10C45000EC306D486D4B8DF8542015A93E9300F0DB
:10C4600065FD08B1FBF726FE6748012100F05AFD83
:10C47000674B68480093694602F078FB08B1FBF708
:10C4800019FE182200210FA805F049FC624A1092FB
:10C49000002301226148ADF84C300FA90F93ADF88D
:10C4A00044208DF8463004F0D9FF08B1FBF702FEB6
:10C4B000102200210BA805F032FC00230B9301226F
:10C4C0000D935748574B8DF830200BA90E9304F06D
:10C4D0009BFD08B1FBF7EEFD534B01934022002179
:10C4E00015A805F01CFC514915A801F006FA5049A1
:10C4F00017A801F002FA4F4919A801F0FEF94E49B8
:10C500001BA801F0FAF94D491DA801F0F6F91FA882
:10C510004B4901F0F2F959220023CDE90623ADF889
:10C520000A20484B484A0893039201AB06AA049399
:10C530002192042304AA8DF814302292012302AA26
:10C5400015A88DF8083023928DF8903004F066FE1F
:10C5500008B1FBF7AFFD3D493D4851226423C1E9D5
:10C56000002301238B600B73FEF734F839498020D8
:10C570004FF4D0630024C1E900034FF4C073364880
:10C580008B600C73FEF726F8344935480C73A023F2
:10C590002826C1E9006314268E60FEF71BF8314996
:10C5A00031480E6005234FF07D0CC1E901C30C73C7
:10C5B000FEF710F81C22214615A805F0B0FB4FF439
:10C5C000F0234FF4A03ECDE916E303238DF860304D
:10C5D000124B15945B89ADF86230244B1A9315A861
:10C5E00046E000BFE9C00200002A030065C0020067
:10C5F000042A03001DC202005729030090012003F2
:10C6000000320020A4220020502D002069C2020028
:10C6100061C00200143200200101050040320020F8
:10C62000843100206401010100010203902903000C
:10C63000A4290300AA290300B3290300BB2903008E
:10C64000C129030056341200010002009831002075
:10C65000A83100205C3200206C320020D031002054
:10C66000E0310020E8310020F8310020FDC1020057
:10C670002F4B8DF864401B9300F066FF08B1FBF769
:10C6800019FD03F055F808B1FBF714FD294803F034
:10C69000D1F808B1FBF70EFD0522002115A805F021
:10C6A0003EFB159B03F07C42234B134315939DF8EF
:10C6B000583023F0030343F0030315A88DF85830D6
:10C6C00003F0D0F808B1FBF7F5FC1C4B1C4C1D49DE
:10C6D000E41AE408240444F003042046FBF7F6F9C6
:10C6E000194800224FF40041FBF7E3FD08B1FBF7C6
:10C6F000E1FC164800224FF48041FBF7DAFD08B157
:10C70000FBF7D8FC022D0FD111492046FBF7DEF9CB
:10C7100003F0D4F808B1FBF7CDFCFBF793F8002841
:10C72000FBD1FDF7C3FEF8E7FFF7C0FDF5E700BF5B
:10C73000E7C20200C9C2020031071003C41E030091
:10C74000EC1E0300C7290300B03100202032002076
:10C75000F22903000369C1688B429DBF8268D21829
:10C7600002F1FF3203F1FF3394BF501A581A704799
:10C770002DE9F843D0E902940546A9EB0408406886
:10C78000904520440F46144404D905F09FFAEC600C
:10C79000BDE8F8834246A4EB090405F097FA6868FF
:10C7A000224607EB0801F0E72DE9F843C568064685
:10C7B000894617464FF000083469B3687068A5428F
:10C7C00028BFE418013C621B5C1BBC4228BF3C46EE
:10C7D000944228BF144649462844224605F076FA7A
:10C7E000B3682544AB4208BF00253F1BA044A144C9
:10C7F000F560E1D14046BDE8F883000010B5114C6A
:10C80000114AA2610223C4E90433104BE361A2641C
:10C810004FF400730E4A0F492362E2640023102292
:10C82000E01DA3626362E362A3656365E36522655D
:10C8300005F0A8FA0849204605F0A4FA2023A371C0
:10C8400010BD00BF74320020082A0300FC32002013
:10C85000EC320020112A0300152A0300F8B5184C09
:10C86000182300FB033503FB00402544C46A012C58
:10C870000F4616460FD0022C1AD0F4B92846FFF7FF
:10C8800069FF864205D8324639462846FFF770FFD1
:10C8900034462046F8BD2846FFF75CFF8642344602
:10C8A00028BF0446224639462846FFF761FFF0E7D5
:10C8B0002846BDE8F840FFF777BF0024E9E700BF4E
:10C8C00074320020FFF79ABF6DDF704779DF704741
:10C8D0007DDF704764DF70472DE9F04F85B000259C
:10C8E0000E9CBDF83CB0B4F800A0019107469046FC
:10C8F0001E46A9463A884A450DDC45B12388013BCE
:10C90000A3EB0A039BB2FF2B3AD806F80A300020AB
:10C9100005B0BDE8F08F7A6852F829000390002234
:10C920000DF10B0103A8FFF7D5FF0028F0D19DF80A
:10C930000B20424521D12288002D14BF0020022067
:10C9400002EB0801014459451ADC3DB9013292B2AB
:10C95000019B2280B35422880132228022880DF16B
:10C960000B01324403A8FFF7B5FF0028D0D121887E
:10C970009DF80B200A442280012509F10109B9E73D
:10C980000C20C5E72DE9F341089FBDF8248015462A
:10C99000CDE90078022204461E46FFF79DFF50B9FC
:10C9A0003346102229462046CDE9087802B0BDE87A
:10C9B000F041FFF791BF02B0BDE8F0812DE9F04FE3
:10C9C00000231788138090F82D3085B006460D4659
:10C9D0001446002B3DD0084B08480949C01AC0082E
:10C9E000000440F00300FBF771F823880933BB42D1
:10C9F00008D90C2082E100BFC41E0300EC1E030016
:10CA00001C2A030002A8FFF75FFF002840F0768190
:10CA100023880822EA54238801339BB21B222380F7
:10CA2000EA542088013080B2208006220DF10901ED
:10CA3000284405F04BF923889DF8082006339BB263
:10CA400012F0FE0218BF01222380EA54238801332A
:10CA50002380B3784BB3B64BB648B749C01AC00869
:10CA6000000440F00300FBF731F823880433BB4295
:10CA7000BFD802A8FFF72AFF002840F03F81238893
:10CA80000322EA54238801339BB219222380EA54FB
:10CA90002388BDF8082001339BB2E9182380EA54AB
:10CAA000120A4A70238802332380F378F3B1A04B33
:10CAB000A048A249C01AC008000440F00300FBF7D8
:10CAC00005F82388DA1CBA4293D80221F278E95497
:10CAD000238801339BB201212380E95423880B442E
