:020000021000EC
:10C0000000F001206DC3010055C3010057C30100BA
:10C0100059C301005BC301005DC3010000000000C3
:10C020000000000000000000000000005FC30100ED
:10C0300061C301000000000063C3010065C301008B
:10C0400067C3010067C3010067C3010067C3010044
:10C0500067C3010067C30100892C030067C30100A7
:10C0600067C3010067C301002100030067C301002B
:10C0700067C3010067C3010067C3010067C3010014
:10C0800067C30100A9A00300A926020067C301003D
:10C090000DA1030067C301005537030067C301000A
:10C0A00067C3010067C3010067C3010067C30100E4
:10C0B00067C3010067C3010000000000000000002A
:10C0C00067C3010067C3010067C3010067C30100C4
:10C0D00067C3010067C3010067C3010067C30100B4
:10C0E00067C3010000000000000000000000000025
:10C0F0000000000067C301000000000067C30100EA
:10C10000000000000000000000000000000000002F
:10C11000000000000000000000000000000000001F
:10C12000000000000000000000000000000000000F
:10C1300000000000000000000000000000000000FF
:10C1400000000000000000000000000000000000EF
:10C1500000000000000000000000000000000000DF
:10C1600000000000000000000000000000000000CF
:10C1700000000000000000000000000000000000BF
:10C1800000000000000000000000000000000000AF
:10C19000000000000000000000000000000000009F
:10C1A000000000000000000000000000000000008F
:10C1B000000000000000000000000000000000007F
:10C1C000000000000000000000000000000000006F
:10C1D000000000000000000000000000000000005F
:10C1E000000000000000000000000000000000004F
:10C1F000000000000000000000000000000000003F
:10C20000344935480A1A02D0072291438D463349F2
:10C2100033480A1A06D00722914381F30988022283
:10C2200082F314882F483049304A00F042F83048F1
:10C230003049314A00F03DF830483149314A00F088
:10C2400038F831483149324A00F033F83148324940
:10C25000324A00F02EF832483249334A00F029F8C9
:10C2600032483349334A00F024F833483349002236
:10C2700000F02AF832483349002200F025F832480D
:10C280003249091A082902DB0022026041601F4876
:10C290001F49884205D00268043003B4904703BCAC
:10C2A000F7E700208646EC4600200021284A904708
:10C2B000FEE7884207D0521A05D0037801300B7090
:10C2C0000131013AF9D17047884202D00270013041
:10C2D000FAE7704700F0012000E8012000F001209B
:10C2E00000F00120D8CB0300601F00201C2000209C
:10C2F000A0C30100A0C3010006A60300D8CB030021
:10C30000601F0020601F0020E0A90300E0A90300D7
:10C31000E0A90300E0A90300E0A90300E0A90300ED
:10C32000E0A90300E0A90300D8CB030094CC0300EC
:10C330001C2000201C2000201C200020685300200E
:10C34000685300206853002068530020685700207D
:10C3500091CB0100FEE7FEE7FEE7FEE7FEE7FEE722
:10C36000FEE7FEE7FEE7FEE700F002B8FFF7FCBFDE
:10C3700008484FF00701884385460748804707482B
:10C38000016841F470010160BFF34F8FBFF36F8FFD
:10C39000FFF736BF00F00120353B030088ED00E0D9
:10C3A00041DF704710B586B05068E0B11A4B1B688A
:10C3B00013F4804F03D0194B1B68032B01DC06B02C
:10C3C00010BD174BD3F8043549881478527804907F
:10C3D000039202940191134A0092ED221249042023
:10C3E00007F078FAEBE70C4B1B6813F4804FE6D0AC
:10C3F0000A4B1B68032BE2DD094BD3F8043549884F
:10C40000127802920191094A0092F2220649042010
:10C4100007F060FAD3E700BFB41F0020B01F002070
:10C420000010014068AA03005EAA0300BCAA030032
:10C4300000B583B0012A1ED0022A35D03AB1244A71
:10C44000E121032017F036FC03B05DF804FB214B1B
:10C450001B6813F4804FF7D01F4B1B68032BF3DDD1
:10C460001E4BD3F804351E4A0092D4221D490420E5
:10C4700007F030FAE8E7062232210F2000F00EFE26
:10C48000144B1B6813F4804FDED0134B1B68032B37
:10C49000DADD124BD3F80435134A0092D922114940
:10C4A000042007F017FACFE70A4B1B6813F4804FFC
:10C4B000CAD0094B1B68032BC6DD084BD3F80435E3
:10C4C0000A4A0092DD220749042007F003FABBE77D
:10C4D000FCA90300B41F0020B01F00200010014081
:10C4E000E8AA03005EAA030008AB030028AB030020
:10C4F00000B58DB02022002103A81EF01FF80123F3
:10C500008DF80C3007238DF80F3006238DF814308A
:10C510001F4B07931F4B0B931F4903A80BF0B0FB56
:10C5200060B30B2829D11D4B1B6813F4804F03D037
:10C530001B4B1B68032B14DC184B1B6813F4804F38
:10C540001CD0174B1B68032B18DD164BD3F8043592
:10C55000154A00924FF4C6721449042007F0BAF944
:10C560000CE0104BD3F80435114A009240F28B12C4
:10C570000E49042007F0AEF9DEE710B90DB05DF802
:10C5800004FB0C4A40F2911117F094FBF6E700BF50
:10C5900035C7010055C6010084200020B41F0020CB
:10C5A000B01F0020001001409CAB03005EAA0300F6
:10C5B0004CAB0300FCA9030000B583B01D4A042165
:10C5C00046F2010007F06AF91B4B1B6813F4804F19
:10C5D00003D01A4B1B68032B13DC1DF09BFDE0B945
:10C5E00000F09CFD164800F0CDFDE0B900F086FF9C
:10C5F00000F0BAFF00F0E6FFFFF77AFF03B05DF846
:10C6000004FB104BD3F804350F4A00924FF4CC7260
:10C610000E49042007F05EF9DFE70D4A4FF4CD71B3
:10C6200017F048FBDCE70A4A4FF4CF7117F042FBE2
:10C63000DCE700BF71380200B41F0020B01F0020EB
:10C64000FDC9010000100140D8AB03005EAA030041
:10C65000FCA9030010B582B0194B1B6813F4804F7E
:10C6600003D0184B1B68032B01DC002411E0164B90
:10C67000D3F80435154A009240F26F121449042091
:10C6800007F028F9F1E7134A4FF4BC7117F012FBD9
:10C690000134012C12D8104B342000FB04300F4B16
:10C6A00003630023836280F82C3080F82D30611CF6
:10C6B000C9B21DF059F90028EAD0E4E702B010BD74
:10C6C000B41F0020B01F00200010014008AC030080
:10C6D0005EAA0300FCA903001C20002040AD03005B
:10C6E00000B583B00E4B1B6813F4804F03D00D4B85
:10C6F0001B68032B09DC0322C8210F2000F0CEFCAD
:10C700000BF01EFB03B05DF804FB074BD3F80435B8
:10C71000064A0092F9220649042007F0DBF8EAE70E
:10C72000B41F0020B01F00200010014028AC0300FF
:10C730005EAA030008B50378232B00D008BDFFF7DD
:10C74000CFFFFBE710B5044600210F2000F090FC5E
:10C7500004EB840462003221032000F09FFC10BD32
:10C7600008B500F0CDFC08BD00B585B003A811F0F8
:10C7700045FC0D4B1B6813F4804F03D00B4B1B681B
:10C78000032B02DC05B05DF804FB094BD3F804353C
:10C79000BDF80C200192074A0092AE2206490420FF
:10C7A00007F098F8EEE700BFB41F0020B01F00208C
:10C7B0000010014044AC03005EAA030030B58BB00A
:10C7C0006421234800F074FB224B1B788BB903AC27
:10C7D000214D0FCD0FC495E8070084E8070003A89A
:10C7E00000F0FEFA38B11D4A4FF4DE7117F062FA1C
:10C7F00001E0FFF7B9FF01F00BF800F0FBFC0BF0D4
:10C8000091FA98B9164B1B6813F4804F03D0154B5F
:10C810001B68032B10DC00210F2000F029FC0222F2
:10C82000C8210F2000F03AFC0BB030BD0B4A40F29B
:10C83000C51117F03FFAE5E70B4BD3F804350B4A67
:10C84000009240F2C7120A49042007F043F8E2E7D9
:10C850003DCB01008420002024AD0300FCA903008F
:10C86000B41F0020B01F0020001001404CAD030099
:10C870005EAA030000B583B0134B1B6813F4804F0E
:10C8800003D0124B1B68032B13DC00F06DFE00F08D
:10C8900099FEFFF769FF00F033FC00210F2000F044
:10C8A000E7FB0422C8210F2000F0F8FB03B05DF87D
:10C8B00004FB074BD3F80435064A0092B32206491D
:10C8C000042007F007F8E0E7B41F0020B01F0020A5
:10C8D000001001405CAC03005EAA030010B588B0F4
:10C8E0002A4B93E8030006908DF81C10C123ADF885
:10C8F00008305923ADF80A3006AB03930523ADF891
:10C90000103002A9224B18880EF07EFE0446214BFF
:10C910001B6813F4804F03D01F4B1B68032B0CDCE8
:10C92000082C16D0112C14D0042C12D004B31B4A9E
:10C930009121204617F0BEF91AE0194BD3F80435BF
:10C940000190184A009287221749042006F0C2FF7E
:10C95000E6E7104B1B6813F4804F03D00E4B1B68A7
:10C96000032B07DC042232214FF4F03000F096FB59
:10C9700008B010BD0A4BD3F804350C4A00928C2243
:10C980000949042006F0A6FFECE700BFA8AC0300AD
:10C990001C200020B41F0020B01F0020FCA90300B1
:10C9A0000010014078AC03005EAA030088AC0300CD
:10C9B00000B583B00C4B1B6813F4804F03D00B4BB6
:10C9C0001B68012B04DCFFF789FF03B05DF804FB53
:10C9D000074BD3F80435074A0092C52206490220C6
:10C9E00006F078FFEFE700BFB41F0020B01F002063
:10C9F00000100140B0AC03005EAA030030B587B060
:10CA0000441C444B1B6813F4804F03D0424B1B68FB
:10CA1000032B1DDC022C28D9E31E012B26D8022370
:10CA200003AA05A93D481CF0D5FF05469DF8141042
:10CA30000E2000F0C7FA112D63D8DFE805F02E6252
:10CA400062623062624C3062626262626262623072
:10CA5000334BD3F804350194324A00924FF48B7271
:10CA60003149042006F036FFD4E7A4B9294B1B68EE
:10CA700013F4804F11D0284B1B68032B0DDD284B7E
:10CA8000D3F80435294A009240F23F122649042087
:10CA900006F020FF01E0FFF721FF07B030BD1D4B7E
:10CAA0001B6813F4804F03D01B4B1B68032B05DC62
:10CAB000062232210F2000F0F1FAEEE7184BD3F8EE
:10CAC000043501941A4A009240F24B121649042090
:10CAD00006F000FFECE70F4B1B6813F4804FDCD02F
:10CAE0000D4B1B68032BD8DD0D4BD3F80435019497
:10CAF000104A009240F257120B49042006F0EAFE59
:10CB0000CBE7002DC9D00C4A40F25B11284617F044
:10CB1000D1F8C2E7B41F0020B01F00205020002031
:10CB200000100140CCAC03005EAA03004CAD030032
:10CB3000E0AC0300F8AC0300FCA9030000B583B02F
:10CB40003138032814D90D4B1B6813F4804F11D0D2
:10CB50000B4B1B68032B0DDD0A4BD3F804350A4A37
:10CB6000009240F269120949042006F0B3FE01E088
:10CB7000FFF744FF03B05DF804FB00BFB41F0020C3
:10CB8000B01F0020001001404CAD03005EAA03005E
:10CB900008B5FFF711FDFFF711FEFFF701FCFCE7F9
:10CBA00069DF704703781F2B00D07047014B0122CB
:10CBB0001A70FAE7882000203A4B1B78002B70D0BF
:10CBC00000B587B0012804D0032863D007B05DF812
:10CBD00004FB0023019301A9012016F061FC002849
:10CBE00042D1002303930122114662F307118DF80D
:10CBF0000C108DF80D200493ADF814301123ADF80E
:10CC00001630019A03A94120FFF7CAFF78BB01A89B
:10CC100016F09CFC70BB244B1B6803B198470123A2
:10CC2000029302A90DF1020012F030F828BBBDF802
:10CC3000020011F0D3FB0DF1010111F081FDF8B9F3
:10CC40000CF038FB9DF8011000200CF043FED0B929
:10CC500004F0E8FAD8B9134B00221A70124B5B6843
:10CC6000002BB3D09847B1E717F016F8B9E717F0E3
:10CC700013F8CCE717F010F8CDE717F00DF8D6E76A
:10CC800017F00AF8DCE7784600F080FDE0E717F0DF
:10CC900003F8E0E716F0D4FC002897D016F0FCFF6C
:10CCA00094E77047872000208C20002008B5064BB1
:10CCB00001221A70054804F023FB04F005FB00B9BB
:10CCC00008BD16F0E9FFFBE787200020601F002069
:10CCD00008B503781C2B00D008BD074B1B78002B30
:10CCE000FAD016F0F1FC18B9044804F00DFBF3E794
:10CCF00016F0D2FFF8E700BF87200020601F002059
:10CD000008B5094B1B7863B90849094817F07EFC40
:10CD100040B90323002207494969074817F092FCEC
:10CD200000E0082008BD00BF88200020A8200020C7
:10CD3000142400208C200020E022002008B5037875
:10CD4000023B082B3FD8DFE803F01C05113E3E2CC8
:10CD50003E3E36001E4B9B68002B34D0007A0028E4
:10CD600031D01C4A0121117098472CE0184BDB6828
:10CD70004BB3184A127832B3164A00211170984703
:10CD800021E0154B1B784BB9114B1B691BB1114AA4
:10CD9000002111709847FFF7B3FF14E0FFF786FFFB
:10CDA00011E010220A4B99690C4817F0D5FC50B1DC
:10CDB00016F072FF07E08168C0680AF0E1FE18B95A
:10CDC000054B01221A7008BD16F066FFF8E700BF98
:10CDD0008C2000208520002086200020E0220020DA
:10CDE00070B586B00446214A03AB07CA03C323F8D3
:10CDF000022B120C1A701E4E35460FCC0FC594E84C
:10CE0000070085E80700B369002B2DD0194B00936C
:10CE100003AB194A19491A4817F0B6FB034610B17B
:10CE2000184606B070BD174819F012F901461448AB
:10CE300017F0D6FB03460028F2D1134819F082FA06
:10CE400003460028ECD1104819F0B2FA01460C480C
:10CE500017F0C6FB03460028E2D10C4804F050FA54
:10CE6000FFF74EFF0346DBE70723D9E764AF030074
:10CE70008C2000203DCD0100A8200020142400209B
:10CE8000E0220020C8200020902200206C1F0020FB
:10CE900008B5064B1B681BB906E0044B1B68984796
:10CEA00014F06AFA0028F8DA08BD00BF5424002004
:10CEB00010B50C46144B1860144A012114481DF09B
:10CEC00063F9A0B9610CE00341F26F7200238B4259
:10CED00008BF824210D24FF47A7200231DF0CCF9C1
:10CEE000014600220B481DF065F938B910BD0A4A09
:10CEF0004A2116F0DFFEE5E70521F2E7064A4B215D
:10CF000016F0D8FEF2E700BF5424002091CE0100B5
:10CF1000D4AF03005824002070AF030070B505465D
:10CF2000002403E00D4A93420ED80134032C14D898
:10CF30000B4B1B5DAB42F8D10A4B1E6804F0CAFCD8
:10CF4000331AEFD5831BEDE704F0C4FC054B1860E2
:10CF5000054B1B6820469847E7E770BD801A06001E
:10CF6000E0AF0300A4240020A02400201F280CD937
:10CF700000F01F00064BD3F8043523FA00F010F040
:10CF8000010F0CBF0120002070474FF0A043F2E7D3
:10CF90000003005070B505460024264606E0084B05
:10CFA000185DFFF7E3FFA04006430134032C04D8CB
:10CFB0000123A3402B42F8D0F1E7304670BD00BFFB
:10CFC000E4AF030008B511B115F068FD08BD15F018
:10CFD00055FDFBE770B5054600240BE0094B1E5DCF
:10CFE0003046FFF7C3FF80F00101C9B23046FFF7BA
:10CFF000E9FF0134032C04D80123A3402B42F8D0CD
:10D00000ECE770BDE4AF030010B5144B1B684BB1E7
:10D01000134B1868FFF7DEFF104B1C68013C1C60C7
:10D0200024B110BD002016F037FEF1E70D481DF0C9
:10D03000E3F809E00C4B1968E14001F001010B4BEA
:10D04000185DFFF7BFFF0134032CEAD80123A3408A
:10D05000034A12681342F6D0ECE700BF78240020A0
:10D060007C24002080240020A8240020E4AF0300BA
:10D0700070B505460E46002405E03146064B185DA6
:10D08000FFF7A0FF0134032C04D80123A3402B4257
:10D09000F8D0F2E770BD00BFE4AF03003AB338B593
:10D0A0000C461346132900D838BD114A10605B00A6
:10D0B000013B104A1360FFF76DFF0F4B186000250E
:10D0C000610CE0034FF47A72002310F5FA706941A5
:10D0D0001DF0D2F801462A4608481DF06BF80028DA
:10D0E000E2D10121024B1868FFF7C2FFDCE770476D
:10D0F0007C24002078240020A82400208024002004
:10D1000008B504481DF078F80021034B1868FFF7B4
:10D11000AFFF08BD802400207C24002010B582B021
:10D1200015F028FC40B10024ADF804408DF806400D
:10D1300001238DF8053009E015F0CAFB0028F2D074
:10D1400016F0AAFDEFE716F0A7FD0134032C07D86F
:10D1500001A9094B185D15F017FC0028F5D0F2E77E
:10D16000064A012106481DF00FF808B902B010BDAB
:10D1700016F092FDFAE700BFE4AF030009D001000A
:10D18000DCAF030060B310B582B0164A106015F032
:10D19000F1FB40B1144B1B68ADF804301B0C8DF84B
:10D1A000063000240EE015F093FB0028F2D016F0B4
:10D1B00073FDEFE716F070FD01210C4B185D15F0C3
:10D1C000F7FC0134032C08D8094A01A9074B185D64
:10D1D00015F074FC0028EFD0ECE7002002B010BD81
:10D1E0000E207047A0240020D8AF0300E0AF03005A
:10D1F0001DCF0100002800F082802DE9F04FD1B052
:10D2000004463F4B1B6813F4804F03D03D4B1B6813
:10D21000032B0BDC3A4B1B6813F4804F03D0394BC4
:10D220001B68032B2ADC51B0BDE8F08F00230F2BC5
:10D230000FD8E25C34490D68100959002E5C0FA824
:10D2400000F8136002F00F020131AA5C425401336E
:10D25000EDE70FAA00238DF85C3003F1804303F55E
:10D260008833D3F804350292284A0192284A009262
:10D2700042222849042006F02DFBCBE7264BD3F8A9
:10D2800004350D932068020202F47F0242EA006234
:10D29000010A01F47F4142EA010CA5882A0292B2F8
:10D2A000E688310289B2277A637A94F80AE094F822
:10D2B0000B8094F80C9094F80DA094F80EB0E47BD9
:10D2C0000B94CDF828B0CDF824A0CDF82090CDF85F
:10D2D0001C80CDF818E00593049741EA16210391CC
:10D2E00042EA152202924CEA106001900B4A009229
:10D2F0000D9B43220749042006F0ECFA93E77047A0
:10D30000B41F0020B01F0020B81F002050B0030041
:10D3100064B003003DB00300001001406CB0030096
:10D3200072DF704773DF704774DF70472DE9F04795
:10D33000A2B006460F469046314A02F10409002584
:10D340005560D5602F480378C3EB431C2E4C6444D2
:10D3500014602E49614491601F21918091810133B5
:10D3600003F0010303704FF03C0A5246294613A80C
:10D370001DF0E4F806238DF84F30ADF84860012326
:10D380008DF84A30ADF85C3012AA1892ADF83C60C6
:10D39000ADF8408011970DEB0A021D928DF87830A0
:10D3A0005246294668461DF0C9F802238DF8003020
:10D3B0004A46214613A815F065FF90B9104B03F1BA
:10D3C0000C029968684615F05DFF68B9104A0C496F
:10D3D0001048FFF7A5FF082809D070B922B0BDE8B2
:10D3E000F08716F059FCE9E716F056FCEEE700224C
:10D3F00003490848FFF794FFEFE716F04DFCEDE70F
:10D40000F0240020AC240020B024002000250020BF
:10D410007C1F0020781F0020B0F5202F0AD2074B78
:10D42000A3FB0023DB0808B103B90123044A93815D
:10D43000916070474FF6FF73F5E700BFCDCCCCCCC1
:10D440007C1F002008B50121054B1878FFF76AFF03
:10D4500018B9002004F02AFE08BD16F01DFCF8E7FC
:10D46000781F002008B5044B1878FFF75DFF00B95E
:10D4700008BD16F011FCFBE7781F002076DF70472F
:10D480007ADF70477CDF704769DF704708B516F0B8
:10D4900003FC08BD08B503F03BFF08BD00B583B031
:10D4A000037823B1012B0BD003B05DF804FB3B21C3
:10D4B0004088FFF7E3FF0028F6D016F0EDFBF3E716
:10D4C000094B1B6813F4804FEED0084B1B68032BED
:10D4D000EADD074BD3F80435064A00926822064974
:10D4E000042006F0F7F9DFE7B41F0020B01F00208A
:10D4F000001001401CB1030001B1030000B585B06C
:10D5000016F09EF818BB0023039303A9012015F021
:10D51000C7FFF8B9002300930122114662F30711F7
:10D520008DF800108DF801200193ADF8083011231B
:10D53000ADF80A30039A69464120FFF7A5FF60B9AC
:10D5400003A816F003F858B905B05DF804FB16F00F
:10D55000A3FBD8E716F0A0FBDCE716F09DFBEFE796
:10D5600016F09AFBF0E7000000B585B09DF80C308E
:10D57000012262F3030362F307138DF80C301122CA
:10D580000F4903A8FFF77EFF98B97823ADF8043060
:10D59000C823ADF806300023ADF808304FF4C87347
:10D5A000ADF80A3001A8FFF76BFF28B905B05DF8A8
:10D5B00004FB16F071FBE8E716F06EFBF6E700BF20
:10D5C00048B1030000B58BB07823ADF80430C82310
:10D5D000ADF806300023ADF808304FF4C872ADF84E
:10D5E0000A200693079301AA039240F6CD420492C3
:10D5F0004FF48032059203228DF81820ADF81A30CE
:10D600008DF81C30064B0893064B099303A816F0BF
:10D61000FDF910B90BB05DF804FB16F03DFBF9E71E
:10D620009DD401008DD401000620704700B587B05D
:10D6300044F20103984262D01BD8012836D041F24F
:10D640000103984276D1474B1B6813F4804F36D0C4
:10D65000454B1B68002B32DD444BD3F80435029256
:10D660000191434A009263224249012006F032F9B7
:10D6700025E044F2020398425CD13A4B1B6813F454
:10D68000804F1CD0384B1B68002B18DD374BD3F86C
:10D69000043510680390526802920191364A009254
:10D6A00069223449012006F015F908E02D4B1B686A
:10D6B00013F4804F03D02C4B1B68002B12DC4FF06F
:10D6C000A0434FF4F032C3F81825C3F80C25EFF34C
:10D6D000108372B64DF6AD6C284B1B78002B3ED0F4
:10D6E00030BFF9E7214BD3F8043502920191244A67
:10D6F000009260221F49012006F0ECF8DFE7194B89
:10D700001B6813F4804FDAD0174B1B68002BD6DD53
:10D71000164BD3F8043510680490506803900291BA
:10D7200092680192174A009273221249012006F072
:10D73000D1F8C4E70B4B1B6813F4804FBFD00A4BE2
:10D740001B68002BBBDD094BD3F8043501910E4A51
:10D7500000927B220749012006F0BCF8AFE707B032
:10D760005DF804FBB41F0020B01F00200010014032
:10D77000E0B10300B1B1030004B20300941F002024
:10D78000C4B1030024B2030048B2030000B583B063
:10D79000014600230093054B01936A4644F20200C0
:10D7A000FFF744FF03B05DF804FB00BF44B2030081
:10D7B00010B40346044C006859689A68DB680FC4CB
:10D7C0005DF8044B704700BF402500200D4B0E4A0A
:10D7D00092E8030083E8030003F108020B4903C940
:10D7E00082E8030093F9062002F00F0242F04002A3
:10D7F0009A7193F9082002F03F0242F080021A72F7
:10D80000704700BF4025002060000010A4000010F9
:10D81000004870474025002000231F2B09D80749E6
:10D8200001EBC30000224280426001F83320013343
:10D83000F3E7034B00221A60704700BF5025002019
:10D840005026002030B405460F4B1B6800240AE028
:10D850001F230E4A12F83300A0B102EBC302528814
:10D86000AA4207D001341F2C0BD85A1E002BEFD030
:10D870001346EEE7054A02EBC30252688A42F1D131
:10D8800000E0002030BC70475026002050250020CA
:10D8900030B40A4A13680A4C04EBC3056880696017
:10D8A000012104F833100B441360202B01D030BC4D
:10D8B0007047134600221A60F9E700BF5026002087
:10D8C00050250020006F024BC01A18BF012070477E
:10D8D00014270020F0B414461D46002300E0013355
:10D8E000072B0ED81A0108498A5A8242F7D101EB58
:10D8F0000312D2E90267AF4208BFA642EFD101206E
:10D9000000E00020F0BC70475826002030B4C16908
:10D910008269C3880D0A0C06C2F30C01994216D223
:10D920005B1A1344A3F50053E41845F10005094AB6
:10D930001368591C116003F00703808A064A190115
:10D9400002EB03135052C3E9024530BC70475B1A27
:10D950001344E9E7D826002058260020C37D002B79
:10D9600042D0C3780A7802F0800203F07F031343A9
:10D970000B7002780B7803F07F0343EAC2130B703D
:10D980000378002B41D030B48378082B14BF0022D9
:10D9900001224B7803F07F0343EAC2134B70C58822
:10D9A00003F08003C5F3861423434B708A7802F09A
:10D9B000030242EA8502D2B28A70057A02F0FC02C2
:10D9C000C5F3C10422438A70CB7803F01F0343EAF6
:10D9D0004513DBB2CB70427A03F0E00302F01F0282
:10D9E0001343CB7030BC7047C3780A7802F0BF0293
:10D9F0009B0103F0400313430B70027903F0C00353
:10DA000002F03F0213430B70B3E770470023032B70
:10DA10002CD810B402E00133032B23D8144C742209
:10DA200002FB034292F84C20012AF4D1742202FB3B
:10DA30000342948AC2899442EDD10D4C742202FBB8
:10DA40000342D2888A42E6D1742202FB0342B2F832
:10DA50005C2012B1848AA242DDD10548742202FB07
:10DA6000030000E000205DF8044B70470020704781
:10DA700094280020002300E00133032B13D80B4926
:10DA8000742202FB031292F84C20022AF4D1742271
:10DA900002FB0312918A828A9142EDD103487422DB
:10DAA00002FB030070470020704700BF942800204D
:10DAB00008B9042070470820704730B403460C466C
:10DAC0000978C17000214162A1680B2903D8217B2C
:10DAD000F9B1012100E0012119700020987029B1ED
:10DAE000A1680731C9080139597218720121D97525
:10DAF00003F10C056169206985E80300E1899982D9
:10DB0000A1691962217F9975216AD9629A6230BC34
:10DB100070470021E0E700000021164B1B688B4294
:10DB200026D90023144A02EBC10252689A421DD939
:10DB300010B4114A52F8312002EBC30412F833201A
:10DB400082420DD001330C4A02EBC10252689A4264
:10DB5000EFD80131074B1B688B4205D90023F2E750
:10DB600060685DF8044B70470020FAE70131D4E7A4
:10DB700000207047DC260020E026002030B58DB064
:10DB800005460C462C22002101A81CF0D7FC1023CE
:10DB90008DF8043002958DF80C4001A801F08EFB41
:10DBA0000DB030BD70B58CB006460D4614462C2223
:10DBB000002101A81CF0C2FC0F238DF80430ADF841
:10DBC00008604FF0000365F300038DF80A308DF80C
:10DBD0000B4001A801F072FB0CB070BD00B58DB018
:10DBE00010B913F1020F06D1074B186804F08CFC32
:10DBF0000DB05DF804FB01218DF80410029303922F
:10DC000001A801F05BFBEFE7F8260020F8B5069CC1
:10DC1000002960D01E460F4615685168D2F808C02A
:10DC2000D368E5602161C4F814C0A3611569516926
:10DC3000E5612162002363700278D20922705AB331
:10DC40000423BB4249D8E17D41B3037803F07F034D
:10DC5000E3700023A3709AB143789B0103F4FE5351
:10DC6000827843EA9203E3808378DB0003F01803B1
:10DC7000C27843EA52132372C37803F01F0363721E
:10DC8000002363623378032B21D83278144B53F886
:10DC90002230E3620020F8BD0123D2E70178C1F30E
:10DCA0008011E170017801F03F01217142B190F9DA
:10DCB0000130002B02DB0423A370CCE70823FBE731
:10DCC0000421A1700B44BB42C5D90920E3E7784683
:10DCD000FFF75CFDD9E70920DDE70920DBE700BF9E
:10DCE000E4B4030070B50C461D4603789BB10426CE
:10DCF0003244A26000F10C032360836A6360C36A4C
:10DD0000E36000232374204604F06EFF10B96369BA
:10DD10001E442E6070BD0126EAE72DE9F0418EB069
:10DD20000D4616461C46804600282DD0002D2FD0CB
:10DD3000002C31D0636A0233059304F10C00E378C0
:10DD4000002B2DD00121A27801AF3B46082A14BF39
:10DD50000022012204F01DFD0697CDF81C80B2B20E
:10DD6000ADF820200B9515440C95A3788DF8343030
:10DD7000237B022B16D00023ADF8283005A804F031
:10DD800000FD0EB0BDE8F0817846FFF7FFFCCDE75F
:10DD90007846FFF7FBFCCBE77846FFF7F7FCC9E7CF
:10DDA0000221D0E723692BB1236909931023ADF831
:10DDB0002830E3E77846FFF7E9FCF5E72DE9F04185
:10DDC00088B004460D46C37D002B3CD0082605FBD9
:10DDD00006F8637AAB4238D0257201AB324602A90D
:10DDE0002046FFF77FFF074648BB4DB994F85730F0
:10DDF00033B9A369C3F30C03E380012384F85730DC
:10DE0000E37D7BB994F8563063B91DBB206FB4F83D
:10DE10004E10A27823468A1A0146FFF77EFF01239F
:10DE200084F8563007992046FFF798FD216F324657
:10DE3000414401981CF059FB02A804F0FBFE38464F
:10DE400008B0BDE8F0810C26C1E7B4F84E60A6EB3F
:10DE50000806C1E77846FFF799FCD7E770B5054695
:10DE60000E4609B100230B6095F85440002104E0F0
:10DE7000631C85F854300134E4B26B7AA34210D3AA
:10DE80002A6D0123A3401A42F5D121462846FFF707
:10DE900095FF014628B9002EEAD03368013333607C
:10DEA000E6E7084670BDF0B589B004460E46154653
:10DEB00083789A18C37D63B10B239A4221D801ABB2
:10DEC00002A92046FFF70EFF074620B1384609B0E9
:10DED000F0BD0F23F1E707992046FFF73FFDE37DF3
:10DEE00043B12A46314601981CF0FFFA02A804F01B
:10DEF000A1FEEBE723462A4601993046FFF70DFFC6
:10DF0000F4E70927E2E7000010B5044690F84C302A
:10DF1000012B0FD103F0DEFC237B012B0ED00B4B2A
:10DF2000D968012384F84830014404F1300003F03B
:10DF30009DFC10BD7846FFF729FCEBE7A17D034B64
:10DF4000DA681B6903FB0121EBE700BFFC26002018
:10DF500030B583B0002403E02846FFF7D5FF013435
:10DF6000032C16D80C4A742303FB042393F84C307B
:10DF7000012BF4D100230193742505FB042501A98D
:10DF80002846FFF76BFF0428E6D0019B002BE6D064
:10DF9000E2E703B030BD00BF9428002038B5044646
:10DFA00090F84C30022B09D1064B1D6803F092FC0F
:10DFB000411904F1300003F059FC38BD7846FFF7F1
:10DFC000E5FBF1E7FC26002038B5044690F84C301C
:10DFD000022B10D10A4B5D7D5A689B6803FB052517
:10DFE00003F078FC411904F1540003F03FFC0123D5
:10DFF00084F86C3038BD7846FFF7C8FBEAE700BF0D
:10E00000FC26002010B50446FFF75CFC90B904F133
:10E01000300003F013FC94F84C30022B0ED0742225
:10E02000002120461CF08AFA002084F84C0002F0FF
:10E0300043FC10BD206F09F07EFDE8E704F15400B9
:10E0400003F0FCFBEBE7000030B585B00D4604465D
:10E05000A8B194F84C30022B15D02946A06DFFF7DB
:10E060008DFD2046FFF7CEFF114B1B6813F0040F08
:10E0700003D0104B1B68032B09DC05B030BD78467C
:10E08000FFF784FBE5E72046FFF740FCE5E70A4B96
:10E09000D3F8043594F84C2002950192074A009277
:10E0A00040F2F3120649042005F014FCE5E700BF36
:10E0B000B41F0020B01F002000100140C0B20300B8
:10E0C000B3B2030038B50546002406E029467420A3
:10E0D00000FB0420FFF7B8FF0134032C08D8054AE1
:10E0E000742303FB042393F84C30022BF4D1EDE7A7
:10E0F00038BD00BF9428002008B508460021FFF76E
:10E10000A3FF08BD10B58CB0044690F84C30012B2D
:10E110000FD101238DF80430A36D029303F0DAFBD5
:10E12000039001A801F0CAF82046FFF76BFF0CB07E
:10E1300010BD7846FFF72AFBEBE708B5037B012B00
:10E1400002D0FFF7DFFF08BD0121FFF77DFFFAE7EF
:10E1500008B590F8553053B1013B80F85530002395
:10E1600080F85430034B186804F0CEF908BDFFF76F
:10E17000E4FFFBE7F826002010B582B0234B1B68B4
:10E1800013F4804F03D0224B1B68032B01DC0024C7
:10E1900020E0204BD3F804351F4A009240F2E322DE
:10E1A0001E49042005F096FBF1E71A4BD3F804351D
:10E1B00001941B4A009240F2E6221849042005F01F
:10E1C00089FB184A742303FB042393F84C30012B7A
:10E1D0000CD00134032C16D80C4B1B6813F4804F61
:10E1E000EFD00B4B1B68032BEBDDDEE7742303FB47
:10E1F000042393F84830022BEBD1742000FB042059
:10E20000FFF7A6FFE5E702B010BD00BFB41F002076
:10E21000B01F002000100140E4B20300B3B20300BD
:10E22000F8B203009428002010B582B004460378A9
:10E23000192B3ED01A2B1ED0182B01D002B010BDC6
:10E240002A4B1B6813F4804F03D0294B1B68032B08
:10E2500005DC0820FFF736FFFFF78EFFEEE7254BC2
:10E26000D3F80435244A00924FF43D722349042028
:10E2700005F030FBEDE71D4B1B6813F4804F03D016
:10E280001B4B1B68032B08DC2379012BD6D10620FE
:10E29000FFF718FFFFF770FFD0E7164BD3F80435F0
:10E2A000174A009240F2FA221449042005F012FBAA
:10E2B000EAE70E4B1B6813F4804F03D00C4B1B682E
:10E2C000032B06DC2379012BB8D10720FFF7FAFED8
:10E2D000B4E7084BD3F804350A4A009240F20532FD
:10E2E0000649042005F0F6FAECE700BFB41F002051
:10E2F000B01F002000100140FCB20300B3B20300C5
:10E3000024B3030048B30300062976D1F0B585B0E5
:10E3100015460678B20102F4FE5241788478C3783B
:10E320001B0443EA0463047943EA042344791C434D
:10E3300076B242EA91012846FFF768FB0746E0B152
:10E34000002E2FDBC289A98A8A422BD02B4B1B6857
:10E3500013F0040F3ED02A4B1B68012B3ADD294BEA
:10E36000D3F8043502910192274A009240F2856267
:10E370002649022005F0AEFA2CE0204B1B6813F072
:10E38000040F27D01E4B1B68012B23DD1D4BD3F838
:10E3900004351F4A009240F281621C49022005F0B8
:10E3A00099FA17E0002E17DB3D6D25433D65BCB1A2
:10E3B0003B78D3B17B7A5A1C01239340013B9D42A9
:10E3C00017D0002187F854103846FFF747FD38462C
:10E3D000FFF79AFD05B0F0BDAB8AA7F85C30E3E724
:10E3E00003213846FFF730FEF4E77846FFF7CEF911
:10E3F000E0E73846FFF786FEECE77047B41F0020E1
:10E40000B01F002000100140A0B30300B3B203000E
:10E4100070B3030010B50446808A02F0C3FD0128E2
:10E420001CD1237BE3B194F91620002A1ADBE27D8C
:10E430004AB1022B18D094F90330002B16DBA378D5
:10E44000B3B900200BE0E2780AB9012B12D123788E
:10E4500093B9A378042B11D1002000E0102010BD47
:10E460001020FCE70720FAE71020F8E70720F6E77E
:10E470000720F4E70720F2E70020F0E70720EEE7A7
:10E4800038B5044603784BB1C388C2698169808A74
:10E4900006F062FD054645B9284638BDC269816966
:10E4A000808A06F053FD0546F5E7E169002201F098
:10E4B0000101A08AFFF776FBEEE72DE9F0418AB073
:10E4C00007460E4614461D461046FFF7D9FF50B9C1
:10E4D00094F80380B8F1000F08D12B46224631464C
:10E4E0003846FFF711FF0AB0BDE8F0814046FFF75C
:10E4F00013FB02460028F6D08DF80480236A0793A8
:10E50000A38AADF8123005AB2169E06883E8030007
:10E51000A37D8DF820300297039623788DF8103074
:10E52000E36A0993294601A89047DCE72DE9F04109
:10E5300007460D4616464B1EDBB2012B10D8B6F52A
:10E54000C07F11D8012D13D00024032C24D83E4ABB
:10E55000742303FB042393F84C305BB10134F4E7DC
:10E560007846FFF713F9EAE77846FFF70FF9E9E78E
:10E570000124EAE74FF0740808FB04281CB9334B68
:10E58000C8F870300AE0304609F0D1FA2E4B7422F8
:10E5900002FB0434206701E04FF00008B8F1000FDF
:10E5A00032D0D8F87030002B4BD03B46424607F1B2
:10E5B000300ED3F800C05C689868D968C2F800C013
:10E5C00054609060D160103310327345F1D1002354
:10E5D000C8F85030A8F84E60012D18D06FF0010334
:10E5E000C8F82830002388F86C30194BC8F85C3024
:10E5F000C8F86480174BC8F83830C8F8408001204C
:10E6000002F05AF988F84C504046BDE8F081124BB0
:10E610001B7D88F85530002388F8563088F857302D
:10E6200088F85430BA6AC8F85820A8F85C306FF0FF
:10E630000103C8F82830094BC8F83830C8F84080C2
:10E64000DDE79846E0E700BF94280020142700206B
:10E650001FEE0100F9E00100FC260020BBE70100ED
:10E66000F0B5C7B00F46164682783244C37D2BB151
:10E670004FF48073934279D3002303E04FF4C073C7
:10E68000F8E70133032B17D83A4D742404FB0354E5
:10E6900094F84C40012CF4D1742101FB03518C8A75
:10E6A000818A8C42EDD1742101FB0351CC89C1894F
:10E6B0008C42E6D1082552E00121FFF737FF0446DE
:10E6C000002855D032463946006F1BF00EFF00235C
:10E6D000459345A92046FFF7C1FB054608B104282C
:10E6E00040D1459B0BBB244B1B6813F0040F35D066
:10E6F000224B1B68032B31DDB4F84E70802F28BFEE
:10E7000080270023BB4214D2226FD25C1C490D68C3
:10E71000100959002E5C04A800F8136002F00F02E3
:10E720000131AA5C42540133ECE72046FFF7ECFBD1
:10E73000D9E704AA002302F8173003F1804303F558
:10E740008833D3F8043502920E4A01920E4A0092A1
:10E750004FF4AD620D49042005F0BCF800252846B1
:10E7600047B0F0BD2046FFF74DFCF8E70925F6E776
:10E770000425F4E794280020B41F0020B01F0020D7
:10E78000B81F0020E4B3030064B00300B3B2030079
:10E7900070B504460D461646FFF73CFE30B92378A7
:10E7A0002BB1324629462046FFF75AFF70BD32464C
:10E7B00029462046FFF777FBF8E710B50C4691F89D
:10E7C0004C30012B09D108F0F5FC50B1002008F0C5
:10E7D000F7FC022384F8483010BD7846FEF7D6FFD8
:10E7E000F1E72046FFF7B4FCF6E7000000B585B07E
:10E7F00000228DF80F20E8B10B46024602320A6073
:10E800000DF10F01184603F0C0FF9DF80F308BB1DA
:10E81000174B1B6813F0040F03D0164B1B68032B18
:10E820000DDC134B1B6813F4804F03D0114B1B6896
:10E83000032B10DC9DF80F0005B05DF804FB0E4BB8
:10E84000D3F804350D4A009240F21C420C490420D2
:10E8500005F040F8E5E7084BD3F80435074A009285
:10E8600040F21D420649042005F034F8E2E700BFFB
:10E87000B41F0020B01F002000100140F4B30300BB
:10E88000B3B203002DE9F04391B005460E4614469D
:10E890001F46D0F8188003784BB1C388C8F30C0228
:10E8A0009A4230D29B1A4344A3F50053AB6105F161
:10E8B0000C00EB7853B30121AA780DF130094B46D7
:10E8C000082A14BF0022012203F063FFC5F8188054
:10E8D000CDF810900596AB78E21A92B2ADF81820F8
:10E8E00032440A9209978DF82C300023ADF820307D
:10E8F000EB78002B40D02B7B022B09D000236B62DE
:10E900000193029324E09B1A4344CFE70221D3E70B
:10E910001023ADF820302B690793EFE70134012C69
:10E9200014D810AB03EB840353F83C0C70B103A96B
:10E93000FFF75CFF0028F1D010AB03EB840454F820
:10E940003C3C6B62002011B0BDE8F083019B3BB101
:10E9500002AB01AA2979286A10F032FD0024DEE713
:10E960002B7B022B2CD105F10C01E88910F0E2FD84
:10E970000028C0D10520E6E72B7B012B01D0052024
:10E98000E1E7EB89ADF80430AB8AADF8063000243E
:10E99000012C13D82946002341F8243F10AB03EB88
:10E9A000440333F83C0C10F030FD03A9686AFFF70C
:10E9B0001DFF08B90134EBE70020C4E70520C2E7DA
:10E9C0000520C0E770B5F0B00E4614461D4610ABEA
:10E9D0000A4601462046FFF755FF50B1214B1B6800
:10E9E00013F0040F03D0204B1B68052B2DDC70B0F7
:10E9F00070BD2046FFF744FD0028F8D103AB01228B
:10EA00008DF80C20A28AADF80E20002204928DF819
:10EA1000142010AA0692A178711AADF81C1008AA49
:10EA200093E8030082E803000AAB2169E06883E809
:10EA30000300A37D8DF83830236A0C93636A0D932D
:10EA40000F9505A800F03AFCD1E7084BD3F8043540
:10EA5000074A009240F20B720649062004F03AFF82
:10EA6000C5E700BFB41F0020B01F00200010014008
:10EA700008B40300B3B2030010B5547814F0010FCA
:10EA800003D0D47D14B1FFF718FD10BDFFF79AFF36
:10EA9000FBE708B501390130FFF7EEFF08BD0000C4
:10EAA00038B504460D46CB695B780371CB691B789A
:10EAB00083F00103C370CB6943628B8A0B2B07D8A9
:10EAC000CB7A002B35D10B7B012B02D0002300E049
:10EAD00001232370002B31D0287B02282BD0FEF796
:10EAE000E7FFA070AB8A03440B33174A82FB032372
:10EAF0005B10013B6372002323720023E37504F172
:10EB00000C0395E8030083E80300AB6923622B89BB
:10EB1000A382AB7AA3752B6AA362DF23E362284644
:10EB200010F074FD20B12B78012B0AD0FF23E36293
:10EB300038BD0123CDE7054B987DD0E70423A370B2
:10EB4000DBE72023F3E700BFABAAAA2AFC260020BC
:10EB500010B54FF4E872002115481BF0EFFC06F0E9
:10EB6000C7F90024134B1C608022214612481BF079
:10EB7000E5FC124B124A1A60124A5A604CF25032AB
:10EB80009A601149D9601A6104221A759C7508228D
:10EB90005A750E4803F098FC0D4B18600D4B1C6025
:10EBA0000D4806F09FFC0D4802F0AAFB10BD00BF07
:10EBB00094280020D826002058260020FC2600207B
:10EBC00080969800F049020020A1070011EE010094
:10EBD000F8260020DC260020DDDB0100981F002045
:10EBE00008B506F0A5F908BD98B110B58CB004467B
:10EBF000036983B1C36983B1836983B10146684600
:10EC0000FFF74EFFA28A21696846FFF7C1FD0CB0ED
:10EC100010BD0E2070470E20F9E70E20F7E70E20FA
:10EC2000F5E7000058B310B590B00A4604464368B3
:10EC30003BB383693BB3014604A8FEF73EFF134B89
:10EC40001B6813F0040F03D0114B1B68062B06DC66
:10EC5000A268616804A8FFF79BFD10B010BD0D4BC2
:10EC6000D3F804352278A169029101920A4A0092F0
:10EC700040F60D020949072004F02CFEE8E70E20BB
:10EC800070470E20E9E70E20E7E700BFB41F002021
:10EC9000B01F00200010014034B40300B3B20300E1
:10ECA000037B012B01D00020704730B591B00446A2
:10ECB0000D463D4B1B6813F0040F03D03B4B1B6804
:10ECC000032B4ADC384B1B6813F4804F03D0374BBF
:10ECD0001B68032B4DDC04A900230593CDF81730E6
:10ECE000E288C2F3861092008DF811202A0E8DF86A
:10ECF00012202A0C8DF813202A0A8DF814208DF882
:10ED000015506278022A0CBF80221A4642EA00029D
:10ED10008DF810204FF0060209924FF001028DF895
:10ED20002C20A28AADF82E200C938DF81C3008916F
:10ED3000226A0D928DF82830E36A0F9325D0E3897B
:10ED4000ADF82A30A37D53BB8DF838306FF0010148
:10ED500007A8FFF767FF11B030BD154BD3F8043596
:10ED6000144A009240F263221349042004F0B2FDD9
:10ED7000A8E70F4BD3F80435104A00924FF41972EC
:10ED80000D49042004F0A6FDA5E70DF10E0103A82E
:10ED900010F0ECFBBDF80C30ADF82A30D2E7084B90
:10EDA0005B7D8DF83830D1E7B41F0020B01F002004
:10EDB0000010014060B40300B3B2030070B403005C
:10EDC000FC26002090F84C30022B00D0704710B584
:10EDD000044690F86C30022B00D010BD016DFFF797
:10EDE0005FFF0028F9D1002384F86C30F5E70000BC
:10EDF00010B5002406E0054B742000FB0430FFF73B
:10EE0000E1FF0134032CF6D910BD00BF9428002087
:10EE100008B5FFF79DF8FFF7EBFF012008BD10B51F
:10EE20000C4691F84C30022B06D1022384F86C304A
:10EE30002046FFF7C7FF10BD7846FEF7A7FCF4E7B2
:10EE4000F0B583B00446C5698269C3882F0A2E06CF
:10EE5000C2F30C05AB4232D95B1B1344A3F500533C
:10EE6000F61847F1000732463B46A08AFEF732FD0E
:10EE7000002840F0B8802046FEF7FCFD054648B368
:10EE8000D0F81CC08269C3884FEA1C214FEA0C608D
:10EE9000C2F30C0C9C4515D2A3EB0C031344A3F551
:10EEA0000053C01841F10001B94208BFB0420DD370
:10EEB0008F4208BF86423BD3284603B0F0BD5B1BA0
:10EEC0001344CDE7A3EB0C031344EAE705212846DE
:10EED000FFF7BAF8E388E269A169A08A06F00EF9A3
:10EEE000002841D108F066F9002857D1627A531CF6
:10EEF000E17D002956D0082202FB03F2002953D0FD
:10EF00004FF48073934252D302212046FFF70EFB49
:10EF100005460028D0D108F04DF900285FD1002126
:10EF20002046FFF7BDFE02210020FEF727FEC3E7C3
:10EF300008F040F940B12D4B1B6813F0040F03D0CB
:10EF40002B4B1B68012B01DC0025B5E7294BD3F8BF
:10EF50000435E2880192284A009240F23D32274966
:10EF6000022004F0B7FCEFE7E388E269A169A08A18
:10EF700006F03CF960B1237863B1617A4B1C012142
:10EF8000994001392046FFF78BFE2046FFF778FABB
:10EF9000002591E77846FEF7F9FBEEE70520FFF73D
:10EFA00091F8A3E70C22A7E74FF4C073AAE70F4B31
:10EFB0001B6813F0040F03D00D4B1B68002B01DC02
:10EFC000002579E70B4BD3F8043501920C4A0092E7
:10EFD00040F285320949012004F07CFCF0E77846D4
:10EFE000FEF7D4FB9BE7002566E700BFB41F0020B7
:10EFF000B01F00200010014094B40300B3B203001E
:10F00000C0B403002DE9F04182B007460E46144615
:10F0100098461046FFF714FF00284ED00546504B87
:10F020001B6813F0040F03D04E4B1B68032B47DC07
:10F030004B4B1B6813F4804F03D04A4B1B68032BC8
:10F040004CDC08F0B7F8002856D02B6D217A01224D
:10F050008A40134231D11A432A65043E237AE27D65
:10F06000002A57D04FF0080C0CFB03FC697A8B4246
:10F0700053D0002A56D00823B34255D1AA69A369B8
:10F080009A4209D205F10C0E0C340FCCAEE80F00F9
:10F0900094E803008EE80300286F3246391D60446F
:10F0A0001BF023FA2C6D2B78002B42D06B7A5A1C64
:10F0B00001239340013B9C423FD002B0BDE8F08168
:10F0C000294BD3F80435227A0192284A009240F263
:10F0D000A9322749042004F0FDFBA9E7224BD3F80D
:10F0E0000435227A0192214A009240F2AA32204944
:10F0F000042004F0EFFBA4E72846FEF74FFF2B7B2C
:10F10000012BA2D195F86C30002B9ED12846FEF73A
:10F110005BFF9AE74FF00C0CA6E70CEB0603A5F893
:10F120004E30ABE70C23A7E704212846FEF78CFFFF
:10F13000C3E77846FEF72AFBB8E708F03BF850B182
:10F1400043462A46B5F84E10286FFFF795FC28462F
:10F15000FEF758FFB1E7296D2846FFF7A1FDEFE75D
:10F16000B41F0020B01F002000100140D4B40300E1
:10F17000B3B203002DE9F04190B000284FD00F4604
:10F1800014461E468046002A4BD004AB00933346FB
:10F19000FEF73CFD054618B1284610B0BDE8F081E9
:10F1A00004A8FFF737F905460028F5D1204608F0F6
:10F1B00021F800230293039302A9608810F0BAF9A2
:10F1C00028B19DF8113043F001038DF81130226908
:10F1D000E168208905F04AFF38B19DF8113003F04D
:10F1E000FE038DF81130002BD6D09DF81130002B86
:10F1F000D2D013F0010F01D0039B08939DF810307B
:10F2000033B1334604AA39464046FFF7FBFEC3E755
:10F21000334604AA39464046FFF73BFCBCE70E25BF
:10F22000BAE70E25B8E7000020B3F8B50E4605464C
:10F23000164B1F68022F1FD80024B4420FD205EBD3
:10F24000C4035B68D3B115F8340015F93430002BD2
:10F2500016DBB8B1FEF760FCB0B90134EDE70C4B3A
:10F2600043F8375003EBC7035E600137074B1F605D
:10F27000002002E00E2070470420F8BD0E20FCE7BD
:10F280000B20FAE70F20F8E70F20F6E7DC26002036
:10F29000E0260020084B196861B110B504E006486B
:10F2A00004F082FA214624B10C680B79002BF9D0C6
:10F2B000F5E710BD704700BF682A002038B5054645
:10F2C00030B1104B1C68C4B10F4B01221A7004E01E
:10F2D0007846FEF75BFAF4E724683CB12379002B0B
:10F2E000FAD154F8043C28469847F5E7064B1B78BA
:10F2F000022B03D0044B00221A7038BDFFF7CAFF5F
:10F30000F8E700BF682A0020642A002010B50446F0
:10F3100030B100232372211D034804F01AFA10BDF6
:10F320007846FEF733FAF4E7682A002010B5044661
:10F3300058B10A4B1B78013BDBB2012B09D8074BB4
:10F3400002221A700123237210BD7846FEF71EFABE
:10F35000EFE7211D024804F027FAF5E7642A0020B0
:10F36000682A00200A8883689B5A07339BB223F0DF
:10F37000030313449BB20288043A934200D900234A
:10F380000B80704710B582B004468368C91AADF887
:10F3900006100DF10601FFF7E5FFBDF80630A06885
:10F3A000184402B010BD0088043880B2704743880A
:10F3B0008268D018D152012383707047826800237D
:10F3C0009370438083807047073189B221F0030135
:10F3D00089B2428883889A4204D29B1A99421EDCE1
:10F3E0000020704710B59A420FD90488A41AA14290
:10F3F00017D98B4217D3032C03D9836813440422F3
:10F400009A7000234380184604E0826813449B7876
:10F410000BB1042010BDFFF7D1FF0020FAE7042054
:10F4200070470020F6E70420F4E738B504460D469F
:10F430008368828813448B4202D07846FEF7A6F98F
:10F440000023AB70211D2046FFF78CFFA288A36824
:10F4500013449B78042B00D038BD0023A380FBE726
:10F4600010B50C468368428813448B4202D078461C
:10F47000FEF78CF90023A37010BD70B50546144645
:10F480000E46002944D0002D46D0B6F1005F08D9C1
:10F490004FF08053D3F80C3103F50023B6EB832FE4
:10F4A0000ED3B6F5000F08D94FF08053D3F80C31C6
:10F4B00003F50053B6EB832F02D37846FEF766F9C7
:10F4C000631E3344B3F1005F08D94FF08052D2F885
:10F4D0000C2102F50022B3EB822F0ED3B3F5000FFF
:10F4E00008D94FF08052D2F80C2102F50052B3EB4C
:10F4F000822F02D37846FEF749F9042C10D92C80CC
:10F5000000236B80AB80AE60043C3480B37070BD70
:10F510007846FEF73BF9B6E77846FEF737F9B4E7E9
:10F520007846FEF733F9EAE738B50446A0B16288B9
:10F53000A36813449B78012B12D0EFF3108572B6A9
:10F54000A388A16819448B78032B0DD02046FFF7C0
:10F5500035FF05B962B638BD7846FEF717F9E6E71C
:10F560007846FEF713F9E8E72046FFF70BFFA3689C
:10F57000C31A638000238370EBE72DE9F0410E4648
:10F5800014460546D0B1EEB16A88AB6813449B7847
:10F59000012B1BD024B32846FFF705FFA04221D33F
:10F5A000EFF3108872B621462846FFF70DFF074695
:10F5B00080B1B8F1000F16D162B614E07846FEF7BC
:10F5C000E5F8E0E77846FEF7E1F8DDE77846FEF794
:10F5D000DDF8DFE721462846FFF7E9FE3060E8E77F
:10F5E000092700E009273846BDE8F081F8B50C4648
:10F5F00015460646E0B1FCB1A378012B20D1238843
:10F60000AB4221D325B3EFF3108772B625800223D6
:10F61000A370F1183046FFF7A5FE7388B2889342B5
:10F6200003D0B268134400229A7007B962B6F8BDDD
:10F630007846FEF7ABF8DEE77846FEF7A7F8DBE79B
:10F640007846FEF7A3F8DAE77846FEF79FF8D9E7A1
:10F650007846FEF79BF8D6E770B50C46054690B1A4
:10F66000ACB1EFF3108672B6AA88AB6813449A78EF
:10F67000042A10D09A78022A15D0032A18D005201F
:10F6800006B962B670BD7846FEF780F8E8E77846BE
:10F69000FEF77CF8E5E7291D2846FFF763FEAA88F8
:10F6A000AB681344E6E703229A7023600020E7E783
:10F6B0007846FEF76BF80020E2E738B5044680B1E3
:10F6C000EFF3108572B6A088A16801448B78042BF3
:10F6D0000BD08878022814BF0020012005B962B63B
:10F6E00038BD7846FEF752F8EAE72046FFF74AFEB3
:10F6F0000146EEE738B5054678B1EFF3108472B6EF
:10F70000A888A96801448878C31EDBB2012B08D8F9
:10F710002846FFF737FE0146F5E77846FEF736F84C
:10F72000EBE7022814BF0020012004B962B638BDFF
:10F7300070B50C46064678B194B1EFF3108572B6F9
:10F74000A378012B10D0032B13D121463046FFF7AD
:10F750006CFE05B962B670BD7846FEF717F8EBE7A8
:10F760007846FEF713F8E8E721463046FFF778FEC3
:10F77000EFE77846FEF70AF8EBE710B5EFF31084F1
:10F7800072B68388816819448B78042B06D08878F8
:10F79000B0FA80F0400904B962B610BDFFF7F2FD7F
:10F7A0000146F4E7024B00221A769A600220704765
:10F7B0006C2A002008B5064B986800221A605A602F
:10F7C0009A60DA601A615A619A6105F04BF808BDD7
:10F7D0006C2A002000B585B00A4BDB6802228DF848
:10F7E000002001934FF480530293074A6946012099
:10F7F00001F0EEFA18B9012005B05DF804FB002015
:10F80000FAE700BF6C2A00208A2A002000B585B0E4
:10F810000A4B1B6802228DF8002001934FF480539D
:10F820000293074A6946012001F0D2FA18B9012073
:10F8300005B05DF804FB0020FAE700BF8C2A002029
:10F840008A2A0020164BDA68137951795B1A03F57E
:10F850007F2303F6FF7302EB03339A4205D002F5D0
:10F8600080520F4BDA600320704700B585B00D4B16
:10F870001B6801208DF8000001930B4B03930423B8
:10F8800002930A4A694601F0A3FA18B1002005B0B4
:10F890005DF804FB024B01221A760220F7E700BF55
:10F8A0006C2A00208C2A0020902A00208A2A00201E
:10F8B00000B585B00C4BDA680C4B1B680433012093
:10F8C0008DF800000192039340F6FC730293084AFE
:10F8D000694601F07DFA28B90120034B187605B07E
:10F8E0005DF804FB0020FAE76C2A00208C2A002037
:10F8F0008A2A002000B585B00A4B1B6801208DF8CC
:10F9000000000193084B039304230293074A6946BE
:10F9100001F05EFA18B9012005B05DF804FB002083
:10F92000FAE700BF8C2A0020782A00208A2A0020CB
:10F9300010B584B0104BDA681478104B1B68043390
:10F9400001208DF800000193039202940C4A69464D
:10F9500001F03EFA70B9094B1B6804F0FC041C442A
:10F960000434054B5C61D9680A780A441A610120A5
:10F9700004B010BD0020FBE76C2A00208C2A002078
:10F980008A2A002008B500230A2B09D8064A52F813
:10F990002320824201D00133F6E7044A536002E09B
:10F9A0007846FDF7F3FE08BD90B503006C2A0020F1
:10F9B00010B5214BDB6853B11F4B1B7E5BB91E4B4F
:10F9C0005B680A2B26D97846FDF7E0FE22E07846F0
:10F9D000FDF7DCFEF0E77846FDF7D8FEEFE7164AC4
:10F9E0005368013353600A2B21D97846FDF7CEFEC8
:10F9F0001DE0114B00225A6019E00F4B1B7E1BB11A
:10FA00000D4B02221A7012E0FFF7D4FE0FE00A4BF2
:10FA10001B7E83B9084B5A68084B53F8223098472D
:10FA200004460228E9D00328E3D00128D7D0012CCE
:10FA3000EDD0032CEBD010BD6C2A002090B5030054
:10FA4000104B1B681B685A1E12F1030F18D8C3F322
:10FA50000B020AB10020704710B50B4AD360002397
:10FA6000137653760124147093600848FFF78AFFD9
:10FA70000749204601F09AF9FFF79AFF204610BD8A
:10FA8000002070478C2A00206C2A0020D5F7010046
:10FA900095FA010008B50B78032B06D00B4B1B78A9
:10FAA000012B06D0022B0BD008BD084B00221A7682
:10FAB000F4E7064B1B7E002BF6D1FFF779FFF3E747
:10FAC0000B78032BF0D1FFF775FEEDE76C2A0020D1
:10FAD00000B585B0174BDB6818784FF6FF7203F559
:10FAE0008051184405F0B4FCE0B10246114BD968CE
:10FAF0000B780B44984217D00E4B5B7E83B10E4BB4
:10FB000001208DF8000001920393042302930B4A15
:10FB1000694601F05DF948B90120064B187606E008
:10FB2000074BEDE7012002E0012000E0002005B0D6
:10FB30005DF804FB6C2A002074B803008A2A0020B8
:10FB400070B8030008B5104BDB681878002203F585
:10FB50008051184405F07CFC08B1012008BD0A4B17
:10FB6000DA68137951795B1A03F57F2303F6FF7383
:10FB700002EB03339A4205D002F58052024BDA6061
:10FB80000320EBE70220E9E76C2A0020F0B585B0FE
:10FB9000514BDE6872793379591E8A4214D006F5CA
:10FBA00080510D780D444D490968081D0F790744AF
:10FBB0009B1A06EB03366B88013B9BB247F6FE624D
:10FBC000934260D92C461AE00120434B58767EE0E0
:10FBD0007846FDF7DBFD15E024F47F6424F00F0484
:10FBE00004F5805423781C44A64247D9A54247D245
:10FBF0006388013B9BB247F6FE62934211D923888A
:10FC0000002BE5D0238804EB830323F47F6222F0EA
:10FC10000F029342E0D06288B2F5FE4FDCD01C4662
:10FC2000E2E725462FE07846FDF7B0FD15E024F425
:10FC30007F6424F00F0404F5805423781C44A6420A
:10FC400020D9A5423BD26388013B9BB247F6FE62B6
:10FC5000934211D92388002BE5D0238804EB83033A
:10FC600023F47F6222F00F029342E0D06288B2F563
:10FC7000FE4FDCD01C46E2E7254604E0002502E00A
:10FC8000002500E00025E5B1144B19686A8801F5EC
:10FC90008051384605F0DCFB074690B101200E4B41
:10FCA00018768DF8000001950D4B03930423029301
:10FCB0000C4A694601F08CF858B92C46CAE7002571
:10FCC000E1E7B5FA85F56D09034B5D76012005B0D6
:10FCD000F0BD0020FBE700BF6C2A00208C2A00202A
:10FCE0006CB803008A2A00202DE9F04186B0644BED
:10FCF0001B692BB1624B5B6933B14FF0000846E0E2
:10FD00007846FDF743FDF5E77846FDF73FFDF4E75C
:10FD10007846FDF73BFD15E025F47F6525F00F05DE
:10FD200005F580552B781D44AF421CD9AC421ED23C
:10FD30006B88013B9BB247F6FE62934211D92B8838
:10FD4000002BE5D02B8805EB830323F47F6222F0A0
:10FD50000F029342E0D06A88B2F5FE4FDCD01D4618
:10FD6000E2E72C4600E000241CB100943AE00024B5
:10FD7000FAE700230093019B002B5CD14FF00108B0
:10FD8000002C77D0628847F6FF739A4272D0B8F1A0
:10FD9000000F73D13A4B5A6922F47F6626F00F06A2
:10FDA000B61A06F580561C69DF683B797A799B1A8A
:10FDB00007EB0337002301936388013B9BB247F6AF
:10FDC000FE629342D1D92546B9E77846FDF7DEFCBD
:10FDD00023E024F47F6424F00F0404F58054237896
:10FDE00023441C46A742C6D92388019A02EB83020A
:10FDF0009642C0D9009B634023F47F6323F00F0336
:10FE0000002BB8D16388013B9BB247F6FE618B4261
:10FE1000B1D801922388002BD7D0238804EB830329
:10FE200023F47F6222F00F029342D2D06288B2F5AF
:10FE3000FE4FD6D1CDE7124A526901208DF8080055
:10FE40000392009A059204930E4A02A900F0C0FFA3
:10FE500070B90B49019B23F003024B6913444B61BA
:10FE600014B1074B1C618BE77846FDF78FFCF8E770
:10FE7000002000E0012006B0BDE8F0810120FAE793
:10FE80006C2A00208A2A002000B585B0274B00226A
:10FE90001A7040F6F8731B68B3F1FF3F09D0B3F155
:10FEA000FF3F0CD07BB1B3F1FF3F37D0A3F58052B9
:10FEB0000FE01F4A1268B2F1FF3FF0D103E01C4A85
:10FEC0001268002AEFD14FF080514B690A6902FB9A
:10FED00003F2A2F58052174B1A60174B1B6813F4FC
:10FEE000801F16D0154B1B68062B12DD144BD3F860
:10FEF000043540F6F8710968B1F1FF3F13D0029262
:10FF00000191104A009240F276220F49072003F037
:10FF1000E1FCFFF795FD05B05DF804FB044B1A68A2
:10FF2000A2F58052D5E702490968E8E7882A00204F
:10FF3000141000108C2A0020B41F0020B01F0020D5
:10FF4000001001405CB5030043B5030010B5044642
:10FF5000B0B1104B1B78BBB10E4BD968E368587930
:10FF6000A3EB0032914211D31A79121A02F57F22C3
:10FF700002F6FF7203EB0233994209D8012004E034
:10FF80007846FDF703FCE4E7002010BD0020FCE705
:10FF90000020FAE76C2A0020024B1878003818BFBE
:10FFA000012070476C2A002010B50446124B1B78C4
:10FFB000BBB92378032B18D10F4B9C60E268DA6041
:10FFC0000E4B1B78ABB10A220B4B5A6000221A76FB
:10FFD000012018705A760A4900F0E8FEFFF7E8FCA5
:10FFE00010BD7846FDF7D2FBE3E77846FDF7CEFB80
:10FFF000E2E70022E8E700BF6C2A0020882A002000
:020000022000DC
:1000000095FA0100014B1868704700BF8C2A002048
:1000100010B5044680B163681BB123680BB1A368B7
:1000200013B97846FDF7B2FBA3685A1E134207D1F5
:100030000023E360236110BD7846FDF7A7FBEAE7E4
:100040007846FDF7A3FBF3E7F8B500B30F46044687
:100050008368F3B1EFF3108572B60369C268934207
:1000600011D0016842688668013E334003FB0211EB
:1000700017B138461AF039FA23690133236155B9AB
:1000800062B62846F8BD05B962B60525F9E70E2522
:10009000F7E70925F5E70025F3E700000246C0F37E
:1000A0000B0040BB49B310B401F6FF710C0B144BAD
:1000B0000221C3F80415124BD3F80034002BFAD0F8
:1000C00001460AE00E4BC3F808250D4BD3F8003467
:1000D000002BFAD002F580520131A142F2D3084B35
:1000E0000022C3F80425064BD3F80034002BFAD0C5
:1000F0005DF8044B7047102070470920704700BF1F
:1001000000E0014010F0030F2FD110B4044611F0AD
:10011000030F2CD16AB312F0030F2CD19008174BA8
:100120000122C3F80425154BD3F80034002BFAD074
:1001300002E0043404311046421E50B10B68B3F1A2
:10014000FF3FF6D023600D4BD3F80034002BFAD0DC
:10015000EFE70A4B0022C3F80425084BD3F800341C
:10016000002BFAD05DF8044B704710207047102028
:10017000F8E70920F6E70920F4E700BF00E00140B6
:10018000094B1B7813F0040F02D00378122B00D018
:100190007047064B1A68064B5A60034B1A786FF388
:1001A00082021A70F4E700BF382B0020282B0020B1
:1001B000C42A002010B582B001900C46000C012822
:1001C00010D12368094A136009490B7843F00103F1
:1001D0000B705B0883F0010303F00103137100202F
:1001E00002B010BD7846FDF7D1FAEAE7282B0020CF
:1001F000382B002010B582B001900C46000C02286C
:100200000FD12268094B1A6022791A7100205871A7
:100210009871D871064A137843F00203137002B044
:1002200010BD7846FDF7B2FAEBE700BF202B0020A7
:10023000382B002010B582B001900C46000C03282A
:1002400006D1054B186820601B79237102B010BDE0
:100250007846FDF79BFAF4E7282B002010B582B012
:1002600001900C46000C03280CD1084B2068186044
:1002700022791A71064A137843F0010313700020A3
:1002800002B010BD7846FDF781FAEEE7282B00207A
:10029000382B002010B582B001900C46000C0428C9
:1002A00005D1054B03CB2060616002B010BD7846DC
:1002B000FDF76CFAF5E700BF202B002010B582B0E7
:1002C00001900C46000C04280BD1084B2068616893
:1002D00003C3074A137843F002031370002002B0EF
:1002E00010BD7846FDF752FAEFE700BF202B002043
:1002F000382B002000B583B00190000C032806D1F4
:10030000054B00221A601A7103B05DF804FB7846B1
:10031000FDF73CFAF4E700BF282B002000B583B0BE
:100320000190000C042806D1054B00221A605A6087
:1003300003B05DF804FB7846FDF728FAF4E700BF48
:10034000202B002000B585B0184B1B7813F0400F10
:100350000FD0164B1B7813F0040F07D1144B5B68BA
:1003600003F500530193B3F1807F06D905B05DF822
:1003700004FB7846FDF70AFAEBE70E4B1B788DF885
:1003800008300A4A137843F0040313700023ADF8D1
:100390000C300323ADF80E3001A9039806F01AFAC9
:1003A0000028E3D07846FDF7F1F9DFE7382B00208D
:1003B000C42A0020392B002000B585B00022ADF8FA
:1003C00009200F4B996801911B7B8DF808300D496E
:1003D0000B780133DBB20B708DF80B30ADF80C20CD
:1003E0000423ADF80E300DEB0301039806F0F2F98B
:1003F00010B905B05DF804FB7846FDF7C7F9F8E7DA
:10040000C42A0020392B002000B585B00F4B9A6814
:1004100001921A7B8DF808201B8AADF809300C4B2D
:100420001B788DF80B300023ADF80C300423ADF8A9
:100430000E300DEB0301039806F0CCF910B905B0AE
:100440005DF804FB7846FDF7A1F9F8E7C42A00201F
:10045000392B002000B58DB00B4B1B7B012B0ED030
:10046000094A926804928DF80830039002238DF8AF
:10047000043001A8FEF722FF0DB05DF804FB024A2C
:100480009268013A0492EEE7C42A002008B51D489C
:100490001D4B036000F034FF1C4B1B7813F0200F42
:1004A0002AD103F00303032B14D1194B1968194AFD
:1004B000916019791173B3F805001082DB79164A3F
:1004C0001370164A1279934217D0B1B9114B00221A
:1004D0001A6007E00F4B00221A609A601A731A82A2
:1004E000FFF76AFF0B4B1A685A60084A137843F00B
:1004F00040031370FFF726FF08BD084B1A68054B31
:100500001A60EFE7142B002081010200382B002035
:10051000202B0020C42A0020392B0020282B00206B
:1005200010B582B00024ADF800400123ADF80230D0
:10053000009806F080F9ADF804400223ADF80630CB
:10054000019806F078F902B010BD000008B500204F
:1005500006F098F9084B00221A605A609A60DA6037
:100560001A61064A137803F0DF0343F04003137067
:10057000FFF7E8FE08BD00BFC42A0020382B00208A
:1005800038B50C4D00242C606C60AC60EC602C61C4
:1005900001F0A0F9084B5860084A9A60084ADA60EE
:1005A0001C615C61074B1A7864F3C3021A706C60BB
:1005B00038BD00BFC42A0020A02A00202107020065
:1005C00000879303382B002008B50C4B1B7813F0E1
:1005D000100F00D008BD0A480A4B036000F090FEDF
:1005E000FFF754FFFFF79CFF074801F0F7F8034AB5
:1005F000137843F010031370ECE700BF382B002092
:10060000B82A002079080200A02A0020034B18789D
:10061000800880F0010000F001007047382B0020B6
:1006200010B501F0D9FE174B1B7B1BBB154B9B7BF9
:100630002BBB144B1A8A41F282639A4206D8124BA2
:100640001B7813F0080F05D0012300E001231BB92C
:10065000082410E00023FAE70A4B01221A73002451
:100660001C829A6801329A60FFF7A6FE2046FFF7C7
:10067000F1FE00E0082401F0F3FE204610BD08243E
:10068000F9E700BFC42A0020382B002010B501F084
:10069000A3FE214B5B7BABB11F4B9B7B03BB1E4B74
:1006A0001A8A41F282639A4206D81C4B1B7813F0D7
:1006B000080F05D0012300E001239BB1012302E0D4
:1006C0000023FAE700231C460BB3134B00225A7396
:1006D0001B7B4BB1012B0ED07846FDF757F816E087
:1006E0000023F0E70023EEE7FFF79AFF78B17846A2
:1006F000FDF74CF80BE0084B0020186058601873A9
:100700001882FFF7A7FEFFF757FEFFF71BFE01F069
:10071000A7FE204610BD00BFC42A0020382B0020B1
:1007200008B52C4B1B7BDBB1012B2ED07846FDF797
:100730002DF8284A138A01339BB21382264AA2FB62
:1007400003121209C2EB0212A3EB42039BB2002B6D
:100750003DD0204B5B8A13B1013B1E4A538208BD3A
:100760001C4B1A8A41F282639A4206D81B4B1B78B3
:1007700013F0080F07D0012300E00123002BD8D08D
:10078000FFF784FFE5E70023F8E7124B1B8A41F2ED
:100790008262934206D8114A127812F0080F14D0E0
:1007A000012200E00122002AC3D042F2B01293429B
:1007B00002D9084B01225A73FFF768FF0028C8D1FD
:1007C000044B5B7B012BB4D1C3E70022EBE7FFF7BF
:1007D0001BFEBEE7C42A002089888888382B0020A9
:1007E00010B5244B1B7B002B35D10446214B5B8A73
:1007F0002BBB1AB91F4B9B688B4205D3FAB11D4B1B
:100800009B6801338B421AD21A4B9B682A338B4266
:1008100023D3184B9B7B03BB164B996000221A60B5
:100820005A601A8242F6065159825A731A73FFF7B8
:10083000C3FDFFF787FD2046FFF70CFE0DE062B118
:100840000C4B9B6801338B4207D10A4B01225A7330
:10085000FFF71CFF01E0012B00D010BD002AFCD1E6
:10086000044B9B688B42F8D1024B01225A73FFF76D
:100870000DFFF2E7C42A002010B50378042B02D044
:10088000162B11D010BD42681278002AF8D0846867
:10089000027E437E012A14BF00220122416904F135
:1008A0001000FFF79DFFEDE7037A427AC168002050
:1008B000FFF796FFE6E7000008B538B10D4B0122BF
:1008C0009A730D4A13680133136008BD0A4B1B6805
:1008D0005BB1094A1368013B1360002BF5D1054B4E
:1008E00000229A73FFF7D2FEEFE77846FCF74EFF3F
:1008F000EFE700BFC42A0020942A002000B58DB085
:10090000ADF808008DF81020039103238DF8043012
:1009100001A8FEF7D3FC0DB05DF804FB014B98680D
:10092000704700BFC42A0020054B1B7B012B02D05F
:10093000034B98687047024B98680138704700BFB6
:10094000C42A00201D4B1B7813F0400F34D070B523
:1009500004460D461A4B1A685B689A4228D2184B17
:100960001B7B012B17D0174B9A4216D2144B1A68D7
:100970005B68403B9A4218D2EFF3108672B6104A79
:100980001368591C11602B60FFF7CEFF206006B979
:1009900062B6002070BD0C4BE6E7094B01225A738A
:1009A000FFF774FE0028E7D1E0E7FFF7CBFCE3E7B1
:1009B000FFF7C8FC0F20EDE70F207047382B002011
:1009C000C42A0020FFFF7F0000E0FF00044B9B686B
:1009D000584010F0010F00D0013B1846704700BF8F
:1009E000C42A0020014B187B704700BFC42A002096
:1009F000F8B5104B1B7813F0200F01D00820F8BD7C
:100A000017460C4E43F0200333700B4DA86029733A
:100A100000242C82FFF7D0FC2046FFF71BFD2F603F
:100A20006F60337843F040033370FFF78BFC204650
:100A3000E5E700BF382B0020C42A002008B50022BB
:100A4000FFF7D6FF08BD00002DE9F041002624E0A5
:100A50002449BC2303FB04F3CA5A0132CA520221BF
:100A6000284602F0BBFC01370221284602F086FC32
:100A7000014679B11B4ABC2303FB0423D3F8088049
:100A8000B8F1000FE4D0BC2303FB04F3D25A304684
:100A9000C047DDE797B90136F6B2022E1FD83446BB
:100AA000BC2303FB06F308330E4D1D44043502211D
:100AB000284602F063FC01460027DAE7284602F0E8
:100AC000F5FC0828E7D1074BBC2202FB0434A368DD
:100AD000002BE0D00022044930469847DBE7012094
:100AE000BDE8F081442B0020CCB5030008B50823F5
:100AF00083731023437300F11C03436103230373C7
:100B000000F1180303610C3002F0A2FC08BD0000E4
:100B100008B50378012B06D0022B06D07846FCF7E7
:100B200035FE002002E02B2000E0014808BD00BF98
:100B3000CC55010008B50378012B07D0022B12D049
:100B40007846FCF723FE4FF4FA7307E08368591ADE
:100B500089082B2303FB01F303F5FA730648984237
:100B600028BF184608BD8368591A090B034B03FBBD
:100B700001F303F5FA73F1E760850100CC5501003C
:100B800038B5044601210C3002F0F8FB054678B177
:100B9000084BC4F89C300023C4F8A0306168FFF70C
:100BA000C9FFC4F8A800C4F8AC40012384F8B830E9
:100BB000284638BDD50C020010B50446FFF7E0FF0B
:100BC00020B104F19C000FF0D7FA00B910BD7846AF
:100BD000FCF7DCFDFAE70000F8B505460C461646C2
:100BE00017680378012B19D11249A1FB0431C908F8
:100BF0008B00AC68E41BB4EB810F00D31C468CB1B6
:100C0000686827F00307E968224639443844FFF74B
:100C100079FA58B933681C443460F8BD7846FCF75B
:100C2000B5FDE1E77846FCF7B1FDE9E77846FCF76A
:100C3000ADFDEFE783BEA02FF8B506460C4615467E
:100C400017680378022B17D1114BA3FB04231B0C4D
:100C50001A03B468E41BB4EB033F00D314467CB121
:100C6000706827F0030721463844FFF717FA58B990
:100C70002B681C442C60F8BD7846FCF787FDE3E741
:100C80007846FCF783FDEBE77846FCF77FFDEFE75E
:100C90002D57BDBF38B505460C4611462378012BAC
:100CA00006D0022B0FD07846FCF770FD002304E03D
:100CB000021D2046FFF790FFA3686868984214BFA2
:100CC0000020012038BD021D2046FFF7B5FFA368B4
:100CD000F3E700002DE9F8430F46D1F8A850254B63
:100CE0001B786BB90446A5F5FA7501F10C080121D2
:100CF000404602F043FB064648B14FF0000924E0AD
:100D00000FF076FA002387F8B830BDE8F88378460C
:100D1000FCF73CFDF1E70FF06BFA0121404602F0D1
:100D20005DFB00237B6087F8B830134B186801F037
:100D3000EBFB3846FFF740FFE7E7A4EB000930463E
:100D4000FFF7E6FE4844A8420DD8A5EB090231465C
:100D50003846FFF79FFF0028DDD101F00FFAB0EB16
:100D60000409ECD5E9E70FF043FA3846FFF724FF12
:100D7000CBE700BF402B00203C2B002010B50848DB
:100D800001F0A2FB074B1860002406E0064BBC20D4
:100D900000FB0430FFF7AAFE0134022CF6D910BD87
:100DA000490A02003C2B0020442B002038B50446A1
:100DB0000D46022805D80548BC2303FB0404A560A2
:100DC00038BD7846FCF7E2FCF5E700BF442B002075
:100DD0002DE9F84305460C461746022816D8CCB133
:100DE0002378012B1AD0022B3ED16368C3F30B0387
:100DF000002B31D1A368C3F30B03002B30D1A368C0
:100E0000002B34D17846FCF7C1FC30E07846FCF783
:100E1000BDFCE4E77846FCF7B9FCE1E7636813F052
:100E2000030F0DD1E36813F0030F0DD1A36813F086
:100E3000030F0DD1A368D3B97846FCF7A7FC16E0E1
:100E40007846FCF7A3FCEDE77846FCF79FFCEDE75E
:100E50007846FCF79BFCEDE77846FCF797FCC9E782
:100E60007846FCF793FCCAE77846FCF78FFCEFF373
:100E7000108872B6BC2606FB05F606F108032A4E5A
:100E80001E4404360021304602F078FA814678B3D9
:100E90000021304602F0A2FA20686168A268E36887
:100EA000C9F80000C9F80410C9F80820C9F80C30C6
:100EB0002FB11D4ABC2303FB05235B883B801A4AE4
:100EC000BC2303FB05235A8801325A8093F8B830BB
:100ED00083B9164B1B7813B10024A1460CE0124BCA
:100EE000BC2000FB0530FFF74BFE8146002403E0E9
:100EF000042401E00024A146B8F1000F00D162B63D
:100F0000B9F1000F09D0BC2000FB05F09830064D68
:100F1000284404300FF030F910B92046BDE8F883BA
:100F20007846FCF733FCF8E7442B0020402B0020E8
:100F300038B50446EFF3108572B610B9164B1B682E
:100F400073B18CB1144A136801331360124B1B68E0
:100F5000003B18BF0123114A137005B962B638BDB2
:100F60007846FCF713FCECE70B4B1C68013C1C605B
:100F700034B1EBE7BC2000FB0420FFF71DFE013479
:100F8000022CE3D8064ABC2303FB042393F8B830B1
:100F9000002BF4D1EEE700BF782D0020402B00207D
:100FA000442B002018B1830B024AD05C704700200C
:100FB000704700BFDCB5030012DF704700B583B097
:100FC00001F0EEFE40B10C4B1B6813F0400F03D054
:100FD0000A4B1B68012B02DC03B05DF804FB084BD5
:100FE000D3F804350190074A009275220649022081
:100FF00002F070FCF0E700BFB41F0020B01F00201B
:10100000001001403CB603002FB6030000B58DB0C0
:10101000104B1B78022B06D07846FCF7B7FB01205B
:101020000DB05DF804FBFFF7F1FA18B90A48FEF7B6
:101030006DF9F4E7074B03221A702C22002101A856
:1010400019F07CFA1D238DF8043001A8FEF736F95B
:10105000E5E700BF802D0020A41F00200B4B1B786C
:10106000042B00D0704700B58DB0084B05221A70D4
:101070002C22002101A819F061FA1C238DF80430FC
:1010800001A8FEF71BF90DB05DF804FB802D0020D0
:1010900008B50378122B00D008BD0448FEF746F9C6
:1010A000034B186801F030FAF6E700BFA41F0020D8
:1010B0007C2D002070B58AB00FF04AFE48B306467A
:1010C00000238DF8103005AC05460FCD0FC42B68FA
:1010D0002360727D052A04D9337D03F00F03072BAB
:1010E0001ED1174B1A688AB104AB0393337DC3F347
:1010F00003038DF80430737D062B1BD9063B8DF856
:10110000053006F11D03029301A8904730460FF009
:10111000FFFD0FF039FE80F00100C0B20AB070BDD3
:10112000307D04AB063A06F11D0100F00F000EF011
:10113000DFFAD6E700238DF805300293E4E700BF1D
:10114000842D002070B582B0314B1B78002B54D118
:101150000446002855D0067A0F2E01D0062E52D113
:1011600006F0E4FCE06870B1FCF722FB0DF107002B
:10117000FFF722FF0546002840D19DF80730012BDC
:1011800004D002253AE0FCF721FBEFE7FCF744FB33
:1011900000F00CFB304601F0C7F8E07800F030F9C1
:1011A00000F0B8FE0EF06AFF1A480FF089FE0EF04C
:1011B00047FC0EF07FFAFFF7E1FD05F0CFFA00F0F3
:1011C00005FD06F073FC06F011FA204601F0F8FC6C
:1011D000FDF7BEFC04F0FCFCFCF726FA08B106287B
:1011E00013D10D4801F070F90C4B18600C4B002224
:1011F0001A60074B01221A7000E00825284602B049
:1012000070BD0E25FAE70725F8E70546F6E700BFAB
:10121000802D0020B51002000D1002007C2D002052
:10122000842D002010B582B0204B1B78012B0DD0EF
:101230005AB2002A35D0043BDBB2012B33D80EF072
:101240008BFF044628B3204602B010BD01F0C8FC55
:10125000FDF7C6FCFCF7E8F90446B8B1062815D03E
:10126000134B1B6813F4804FEDD0124B1B68012BFE
:10127000E9DD114BD3F804350190104A00924FF488
:10128000C2720F49022002F025FBDCE701F078F87A
:10129000D5E7064B02221A700A4B186801F034F9A0
:1012A000D1E70824CFE70824CDE700BF802D002038
:1012B000B41F0020B01F00200010014068B60300DA
:1012C0002FB603007C2D002008B5094B1B78032B9B
:1012D00001D0082008BD064B04221A7005480EF004
:1012E000EFFE0028F6D07846FCF750FA0020F1E730
:1012F000802D00205D10020008B5FDF775FC08BDCB
:1013000008B5FEF703F808BD08B5FEF70FF808BDED
:1013100008B500F0C5FD002008BD08B508F05EF86E
:1013200008BD0000064A136801331360B3F1704F23
:1013300002D0034B18687047134601221A60F8E781
:10134000882D002010B5044618B100232360636087
:1013500010BD7846FCF71AFAF7E738B50C46054693
:1013600068B184B100236360EFF3108372B62A681A
:101370006AB16A6854606C6003B962B638BD784679
:10138000FCF704FAEDE77846FCF700FAEAE72C6090
:10139000F1E710B5044658B1EFF3108372B6206838
:1013A00008B142682260226832B103B962B610BD4A
:1013B0007846FCF7EBF9EFE76260F6E710B5044614
:1013C00008B1206810BD7846FCF7E0F9F9E735DF91
:1013D0007047000008B54FF0FF30FFF7F8FFBFF38C
:1013E0004F8F0549CA6802F4E062044B1343CB6097
:1013F000BFF34F8F00BFFDE700ED00E00400FA05EA
:10140000072814D8DFE800F0080C1504110F0A06AD
:101410006420704714207047FA2070471E207047E0
:101420004FF4FA707047322070474B207047FA2013
:101430007047962070470000024B5868103840B241
:10144000704700BF00ED00E0034600280FDB5B1192
:10145000084A52F82330424200F01F0002F01F02F7
:1014600058BF504223FA00F000F00100704700F12D
:101470001F03ECE700E100E046DF7047F8B50446E3
:101480000D464B1EDBB2012B09D80023236163619B
:10149000A361E3612046FFF7EFFF012016E07846E5
:1014A000FCF774F9F1E7CA5CCE185200D2B2767834
:1014B00042EAD612CA5401339BB20E2BF3D9CB7B2E
:1014C0005B00CB73002F08DB0130C0B2A8420BD801
:1014D000214611F9207F0023EFE794F82F3083F0A5
:1014E000870384F82F30EFE7F8BD2DE9F04190B085
:1014F00084460C4696461F4602F10F084FEA28160E
:1015000004AD0068DCF80410DCF80820DCF80C30CE
:101510000FC50EF00F055FEA181302D07DB100234E
:1015200000E00023984663B1012104A8FFF7A6FF5D
:10153000B8F1000F1AD0701E000110230EE0012335
:10154000F0E70221F1E7013B9BB22218D25C10A91F
:10155000194411F8101C4A400DF80320002BF2D159
:1015600000250C950D950E950F9533E0711EADB2CB
:101570002A4604EB0111684618F0B7FF80230DF8E6
:1015800005306B1C03E000220DF8032001330F2B04
:10159000F9DD10230AE0013B9BB21DF8032010A9DE
:1015A000194411F8101C4A400DF80320002BF2D109
:1015B000D6E7013A92B210AB134413F8100C63183B
:1015C0009B5C584008AB9854002AF2D104A8FFF75E
:1015D00053FF0135731EAB4202DD29011022F3E7F0
:1015E00010230AE0013B9BB210AAD11811F8402C3D
:1015F00011F8101C4A4008A9CA54002BF2D104A8C3
:10160000FFF73AFF0CAC0FCC38607960BA60FB6032
:1016100010B0BDE8F081000010B50446134B1B6804
:1016200093B14168114B1B685B68CB1A002B0BDB35
:101630000E4B1B6818465B691BB15A68521A002A88
:10164000F8DB6361446103E0084B1A6862611C6067
:10165000064A93889BB201339BB2938013B1012356
:10166000237010BD7846FCF791F8F8E7942D002020
:1016700038B505461CE07846FCF788F86369204ACF
:1016800013600023636193889BB2591E89B29180D5
:10169000F3B1A36803B302232370A368216928462A
:1016A000984700F017F905462378DBB2022B17D0D4
:1016B000134B1B681BB3124B1B685B685B1B642BD3
:1016C0001DD50F4B1C682378DBB2012BD6D0D2E797
:1016D0007846FCF75BF8DCE77846FCF757F8DAE782
:1016E000E26812B900232370E2E763681344636081
:1016F0005B1B642BF9D42046FFF78EFFD8E738BD7B
:10170000942D002010B50446144B1B68834207D06B
:10171000124B1B68D3B15A69A2420ED01346F9E7A7
:1017200043690E4A136093889BB2591E89B2918017
:1017300063B97846FCF72AF808E062695A610749FC
:101740008B889BB25A1E92B28A8013B100232370F9
:1017500010BD7846FCF71AF8F8E700BF942D00207A
:1017600008B5064B1B6833B1044B1B680449586825
:1017700000F05CF908BD00F0B7F9FBE7942D0020FC
:101780009D17020008B500F0A5F8FFF771FF00F003
:10179000A1F8FFF7E5FF012008BD000008B5024BE6
:1017A000186800F0B1FE08BD8C2D002008B500239C
:1017B000064A1370064A13605360064800F084FE20
:1017C000054B186000F078F808BD00BF902D002090
:1017D000942D0020851702008C2D002010B50446A2
:1017E000154B1B789BB900F063FFA0B1BCB1A36897
:1017F000CBB12378DBB2012B19D0002363612046E3
:10180000FFF70AFF00F066F8FFF7AAFF10BD784661
:10181000FBF7BCFFE7E77846FBF7B8FFE6E778465B
:10182000FBF7B4FFE3E77846FBF7B0FFE1E7784664
:10183000FBF7ACFFE1E700BF902D002010B5044698
:1018400000F036FF50B16CB12046FFF75BFF00237C
:10185000636100F03FF8FFF783FF10BD7846FBF7A8
:1018600095FFF0E77846FBF791FFEDE738B50446C2
:101870000D46104B1B788BB900F01AFF90B1ACB13C
:101880002046FFF73FFF0023636165602046FFF7B6
:10189000C3FE00F01FF8FFF763FF38BD7846FBF783
:1018A00075FFE9E77846FBF771FFE8E77846FBF755
:1018B0006DFFE5E7902D002008B518F0B3FC00B1EE
:1018C00008BD18F027FC0028FAD07846FBF75EFF29
:1018D000F6E7000070B4EFF3108172B6184B1A6887
:1018E000184BD3F80455D3F80431012B22D001B999
:1018F00062B645EA026500266B01EA0E5B1B62EBED
:101900000602510241EAD3515802431941EB060045
:10191000810141EA93619A01D31A61EB00005B19DE
:1019200046EB000013F580437041DB0B43EA404077
:1019300070BC7047034BD3F804550132D7E700BFA2
:101940009C2D00200010014010B50A4B4FF40032CE
:10195000C3F84823C3F80823074B1B682BB1064B79
:101960001C68FFF7B7FFA04710BD7846FBF70EFFD6
:10197000F5E700BF00100140A82D0020EFF3108113
:1019800072B6254B0022C3F80421244A13680133A0
:10199000136001B962B6224B1B68002B3AD0204B72
:1019A0001A68013A1A601B68002B33D103F1804397
:1019B00003F58833D3F804251A4B1B689A421BD2CF
:1019C000EFF3108272B6144BD3F80435981C154906
:1019D000096888420DD303330F49C1F8443502B971
:1019E00062B60D4B4FF40032C3F84423C3F804230E
:1019F00070470C4B1B68EFE710B50B4B1B682BB106
:101A0000094B1C68FFF766FFA04710BD7846FBF73F
:101A1000BDFEF5E7704700BF001001409C2D00207F
:101A2000A02D0020A42D0020A82D002030B583B0CB
:101A30000446002301930D46002936D0244B1D6037
:101A4000FFF748FF031B002B33DB0023590CD8039F
:101A5000204C214A002300194FF0000444EB0101FF
:101A600018F00AFCEFF31083019372B61B4BD3F806
:101A70000435032838BF0320C3F1FF1202F57F426B
:101A8000824218D30344154AC2F844354FF4003358
:101A9000C2F84433C2F80433114A1460114A146086
:101AA000019B03B962B603B030BD7846FBF76EFE0A
:101AB000C4E7231ACAE7034403F17F4301331A0E34
:101AC000013207490A6023F07F43064A1360E7E7C3
