:020000021000EC
:10C0000000F001206DC3010055C3010057C30100BA
:10C0100059C301005BC301005DC3010000000000C3
:10C020000000000000000000000000005FC30100ED
:10C0300061C301000000000063C3010065C301008B
:10C0400067C3010067C30100F5E1010067C3010098
:10C0500067C3010067C30100AD23030067C301008C
:10C0600067C3010067C3010025FD020067C301002B
:10C0700067C3010067C3010067C3010067C3010014
:10C0800067C30100C9970300492E020067C301007E
:10C090002D98030067C30100792E030067C30100D8
:10C0A00067C3010067C3010067C3010067C30100E4
:10C0B00067C3010067C3010000000000000000002A
:10C0C00067C3010067C3010067C3010067C30100C4
:10C0D00067C3010067C3010067C3010067C30100B4
:10C0E00067C3010000000000000000000000000025
:10C0F0000000000067C301000000000067C30100EA
:10C10000000000000000000000000000000000002F
:10C11000000000000000000000000000000000001F
:10C12000000000000000000000000000000000000F
:10C1300000000000000000000000000000000000FF
:10C1400000000000000000000000000000000000EF
:10C1500000000000000000000000000000000000DF
:10C1600000000000000000000000000000000000CF
:10C1700000000000000000000000000000000000BF
:10C1800000000000000000000000000000000000AF
:10C19000000000000000000000000000000000009F
:10C1A000000000000000000000000000000000008F
:10C1B000000000000000000000000000000000007F
:10C1C000000000000000000000000000000000006F
:10C1D000000000000000000000000000000000005F
:10C1E000000000000000000000000000000000004F
:10C1F000000000000000000000000000000000003F
:10C20000344935480A1A02D0072291438D463349F2
:10C2100033480A1A06D00722914381F30988022283
:10C2200082F314882F483049304A00F042F83048F1
:10C230003049314A00F03DF830483149314A00F088
:10C2400038F831483149324A00F033F83148324940
:10C25000324A00F02EF832483249334A00F029F8C9
:10C2600032483349334A00F024F833483349002236
:10C2700000F02AF832483349002200F025F832480D
:10C280003249091A082902DB0022026041601F4876
:10C290001F49884205D00268043003B4904703BCAC
:10C2A000F7E700208646EC4600200021284A904708
:10C2B000FEE7884207D0521A05D0037801300B7090
:10C2C0000131013AF9D17047884202D00270013041
:10C2D000FAE7704700F0012000E8012000F001209B
:10C2E00000F00120B8CA0300601F00201C200020BD
:10C2F000A0C30100A0C3010044A40300B8CA030006
:10C30000601F0020601F002014A8030014A8030071
:10C3100014A8030014A8030014A8030014A8030021
:10C3200014A8030014A80300B7CA030074CB0300C9
:10C330001C2000201C2000201C2000202453002052
:10C34000245300202453002024530020245700208D
:10C35000C9CD0100FEE7FEE7FEE7FEE7FEE7FEE7E8
:10C36000FEE7FEE7FEE7FEE700F002B8FFF7FCBFDE
:10C3700008484FF00701884385460748804707482B
:10C38000016841F470010160BFF34F8FBFF36F8FFD
:10C39000FFF736BF00F001205932030088ED00E0BE
:10C3A00041DF70470C4B1B6813F4804F03D00B4BDD
:10C3B0001B68012B00DC704700B583B0084BD3F835
:10C3C0000435084A009240F21F12074902200BF080
:10C3D000A1FD03B05DF804FBC41F0020C01F0020B6
:10C3E00000100140A0A8030099A8030010B586B072
:10C3F0005068E8B11B4B1B6813F4804F03D01A4BF5
:10C400001B68032B01DC06B010BD184BD3F80435B4
:10C410004988147852780490039202940191144A46
:10C4200000924FF4A372134904200BF073FDEAE766
:10C430000C4B1B6813F4804FE5D00B4B1B68032B90
:10C44000E1DD0A4BD3F80435498812780292019154
:10C45000094A009240F24B12064904200BF05AFDA3
:10C46000D1E700BFC41F0020C01F00200010014002
:10C47000C0A8030099A8030014A9030000B583B065
:10C48000012A20D0022A38D042B1264A4FF49D71A9
:10C49000032016F0A1FF03B05DF804FB224B1B68DC
:10C4A00013F4804FF7D0214B1B68032BF3DD204B97
:10C4B000D3F804351F4A009240F22D121E49042081
:10C4C0000BF028FDE7E7062232210F2000F002FFE3
:10C4D000154B1B6813F4804FDDD0144B1B68032BE6
:10C4E000D9DD134BD3F80435144A00924FF49972F6
:10C4F000114904200BF00EFDCDE70B4B1B6813F424
:10C50000804FC8D0094B1B68032BC4DD084BD3F800
:10C5100004350B4A00924FF49B72074904200BF03C
:10C52000F9FCB8E730A80300C41F0020C01F00209A
:10C530000010014040A9030099A8030060A903006E
:10C5400080A9030030B583B00378012B44D0022BBF
:10C550003ED00BB103B030BD214C2078214D284492
:10C5600001F020FB23780133DBB22370013BEB5C4D
:10C570000A2BEFD11C4B1B6813F4804F03D01B4BCD
:10C580001B68032B0CDC184B1B6813F4804F03D083
:10C59000164B1B68032B0EDC114B00221A70D9E7D7
:10C5A000134BD3F80435134A0092B52212490420E4
:10C5B0000BF0B0FCE7E70E4BD3F80435094A0192C3
:10C5C0000E4A0092B9220C4904200BF0A3FCE3E7C9
:10C5D000406816F0F3FEBDE7406816F0EFFEB9E7DD
:10C5E0009C2000201C200020C41F0020C01F002011
:10C5F00000100140A4A9030099A80300D0A90300DA
:10C6000030B58BB004AC0D4D0FCD0FC495E80300D1
:10C6100084E803000A4B00934FF480730193094AA6
:10C62000029203930723084A694604A801F054FACA
:10C6300008B90BB030BD16F0C1FEFAE7ECAB030051
:10C640000C2100201022002045C5010000B58DB04E
:10C650002022002103A81DF082FB01238DF80C305D
:10C6600007238DF80F3006238DF814301F4B0793E6
:10C670001F4B0B931F4903A80BF0F8FC60B30B286A
:10C6800029D11D4B1B6813F4804F03D01B4B1B6833
:10C69000032B14DC184B1B6813F4804F1CD0174B72
:10C6A0001B68032B18DD164BD3F80435154A00928E
:10C6B00040F2E512144904200BF02CFC0CE0104B66
:10C6C000D3F80435114A00924FF4F2720E49042057
:10C6D0000BF020FCDEE710B90DB05DF804FB0C4A4E
:10C6E0004FF4F57116F078FEF6E700BF99C8010027
:10C6F000B5C7010008210020C41F0020C01F002072
:10C70000001001402CAA030099A80300DCA9030033
:10C7100030A8030000B583B0FFF772FF1D4A042163
:10C7200046F201000BF0DAFB1B4B1B6813F4804F41
:10C7300003D01A4B1B68032B13DC1DF07BF8E0B908
:10C7400000F008FE164800F039FEE0B900F0F2FFF4
:10C7500001F026F801F052F8FFF778FF03B05DF81A
:10C7600004FB104BD3F804350F4A009240F2F31249
:10C770000E4904200BF0CEFBDFE70D4A40F2F51125
:10C7800016F02AFEDCE70A4A40F2F91116F024FE00
:10C79000DCE700BFBD7E0200C41F0020C01F0020D8
:10C7A000C5CB01000010014068AA030099A803004E
:10C7B00030A8030010B582B0194B1B6813F4804FEA
:10C7C00003D0184B1B68032B01DC002411E0164B2F
:10C7D000D3F80435154A00924FF4E472144904204A
:10C7E0000BF098FBF1E7134A40F2D11116F0F4FD7B
:10C7F0000134012C12D8104B342000FB04300F4BB5
:10C8000003630023836280F82C3080F82D30611C94
:10C81000C9B21CF039FC0028EAD0E4E702B010BD30
:10C82000C41F0020C01F00200010014098AA030070
:10C8300099A8030030A80300A020002020AC03002A
:10C8400000B583B00F4B1B6813F4804F03D00E4B21
:10C850001B68032B09DC0322C8210F2000F03AFDDE
:10C860000BF064FC03B05DF804FB084BD3F804350F
:10C87000074A00924FF4A972064904200BF04AFBC4
:10C88000E9E700BFC41F0020C01F002000100140C6
:10C89000B8AA030099A8030008B50378232B00D099
:10C8A00008BDFFF7CDFFFBE710B5044600210F20C0
:10C8B00000F0FAFC04EB840462003221032000F053
:10C8C00009FD10BD08B500F037FD08BD00B585B005
:10C8D00003A811F0CDFB0D4B1B6813F4804F03D060
:10C8E0000B4B1B68032B02DC05B05DF804FB094B06
:10C8F000D3F80435BDF80C200192074A00924FF49A
:10C900008472064904200BF005FBEDE7C41F0020EC
:10C91000C01F002000100140D4AA030099A8030002
:10C9200030B58BB06421234800F0DEFB224B1B782E
:10C930008BB903AC214D0FCD0FC495E8070084E8F7
:10C94000070003A800F068FB38B11D4A40F2172128
:10C9500016F042FD01E0FFF7B9FF01F0C1FC00F065
:10C9600065FD0BF0D5FB98B9164B1B6813F4804F8F
:10C9700003D0154B1B68032B10DC00210F2000F0A7
:10C9800093FC0222C8210F2000F0A4FC0BB030BDA4
:10C990000B4A4FF4087116F01FFDE5E70B4BD3F877
:10C9A00004350B4A009240F222220A4904200BF07F
:10C9B000B1FAE2E775CD01000821002004AC0300C4
:10C9C00030A80300C41F0020C01F00200010014039
:10C9D0002CAC030099A8030000B583B0144B1B686E
:10C9E00013F4804F03D0134B1B68032B13DC00F0B0
:10C9F000D7FE00F003FFFFF769FF00F09DFC002168
:10CA00000F2000F051FC0422C8210F2000F062FC2E
:10CA100003B05DF804FB084BD3F80435074A0092D5
:10CA200040F20D12064904200BF074FADFE700BF54
:10CA3000C41F0020C01F002000100140ECAA03000A
:10CA400099A80300002900F0A38030B587B0044600
:10CA50000D46C123ADF808305923ADF80A304D4BCF
:10CA60001B6813F4804F03D04B4B1B68032B3ADC3D
:10CA70000394ADF81050474B1B6813F4804F03D05C
:10CA8000454B1B68032B39DC424B1B6813F4804F6A
:10CA900003D0414B1B68032B3CDC02A93F4B188899
:10CAA0000EF048FF04463B4B1B6813F4804F03D045
:10CAB000394B1B68032B38DC364B1B6813F4804F53
:10CAC00003D0354B1B68032B3ADC082C44D0112CC7
:10CAD00042D0042C40D0002C4DD0314AA221204617
:10CAE00016F07AFC47E02F4BD3F804352E4A00921B
:10CAF0008C222E4904200BF00DFAB9E7294BD3F80C
:10CB0000043501952A4A00928F22284904200BF00F
:10CB100001FAB9E7234BD3F80435264A0092942250
:10CB2000224904200BF0F6F9B7E71E4BD3F8043581
:10CB3000214A009297221D4904200BF0EBF9BBE734
:10CB4000184BD3F8043501941C4A009299221749D6
:10CB500004200BF0DFF9B8E70E4B1B6813F4804F8D
:10CB600003D00D4B1B68032B07DC042232214FF44A
:10CB7000F03000F0AFFB07B030BD0A4BD3F80435FE
:10CB80000F4A00929D22094904200BF0C3F9ECE7FB
:10CB9000704700BFC41F0020C01F0020A02000203D
:10CBA00030A803000010014008AB030099A803005F
:10CBB00014AB030028AB030034AB030040AB03000D
:10CBC00050AB030030B587B0441C5D4B1B6813F4B9
:10CBD000804F03D05B4B1B68032B06DC631E032BCB
:10CBE00013D8DFE803F00F430F43574BD3F8043556
:10CBF0000194564A009240F26F12554904200BF0FE
:10CC000089F9EBE701238DF81430524A1378591C47
:10CC100011708DF815303223049364230393484B2D
:10CC20001B6813F4804F03D0464B1B68032B21DC99
:10CC3000022C2ED9E31E012B2CD8022303AA05A90E
:10CC400045481CF057FA05469DF814100E2000F0D8
:10CC5000D5FA112D6BD8DFE805F0366A6A6A386AB2
:10CC60006A54386A6A6A6A6A6A6A6A3800238DF89E
:10CC70001430CAE7344BD3F804359DF814200192E0
:10CC8000364A00924FF4C372314904200BF042F946
:10CC9000CEE7A4B92A4B1B6813F4804F13D0294B5D
:10CCA0001B68032B0FDD284BD3F804352C4A009268
:10CCB0004FF4CC72264904200BF02CF903E0072135
:10CCC0002848FFF7BFFE07B030BD1D4B1B6813F4AB
:10CCD000804F03D01B4B1B68032B05DC062232213F
:10CCE0000F2000F0F7FAEEE7174BD3F80435019464
:10CCF0001D4A00924FF4D272154904200BF00AF934
:10CD0000ECE70F4B1B6813F4804FDCD00D4B1B6816
:10CD1000032BD8DD0C4BD3F804350194134A009251
:10CD20004FF4D8720A4904200BF0F4F8CBE7002D39
:10CD3000C9D00F4A4FF4DA71284616F04DFBC2E70E
:10CD4000C41F0020C01F00200010014070AB030072
:10CD500099A803000C220020D420002084AB0300FB
:10CD60002CAC0300A0AB0300A8AB0300C0AB0300D6
:10CD700030A8030000B583B03138032814D90D4B17
:10CD80001B6813F4804F11D00B4B1B68032B0DDD78
:10CD90000A4BD3F804350A4A00924FF4E17209496C
:10CDA00004200BF0B7F801E0FFF70CFF03B05DF8CB
:10CDB00004FB00BFC41F0020C01F00200010014062
:10CDC0002CAC030099A8030008B5FFF7A3FCFFF7FC
:10CDD000A7FDFFF7E5FAFCE769DF704703781F2B33
:10CDE00000D07047014B01221A70FAE7132300208C
:10CDF0003A4B1B78002B70D000B587B0012804D0C7
:10CE0000032863D007B05DF804FB0023019301A958
:10CE1000012015F0D7FE002842D100230393012200
:10CE2000114662F307118DF80C108DF80D20049354
:10CE3000ADF814301123ADF81630019A03A9412042
:10CE4000FFF7CAFF78BB01A815F012FF70BB244B97
:10CE50001B6803B198470123029302A90DF1020058
:10CE600011F058FE28BBBDF8020011F0CBFA0DF10D
:10CE7000010111F06BFCF8B90CF012FC9DF80110E7
:10CE800000200CF007FFD0B904F09CFDD8B9134B7B
:10CE900000221A70124B5B68002BB3D09847B1E7A1
:10CEA00016F08CFAB9E716F089FACCE716F086FA94
:10CEB000CDE716F083FAD6E716F080FADCE778467D
:10CEC00000F080FDE0E716F079FAE0E715F04AFFA0
:10CED000002897D016F072FA94E7704712230020CA
:10CEE0001423002008B5064B01221A70054804F0EF
:10CEF000D7FD04F0B9FD00B908BD16F05FFAFBE7F5
:10CF000012230020601F002008B503781C2B00D0DE
:10CF100008BD074B1B78002BFAD015F067FF18B936
:10CF2000044804F0C1FDF3E716F048FAF8E700BF43
:10CF300012230020601F002008B5094B1B7863B93D
:10CF40000849094816F0F4FE40B9032300220749B6
:10CF50004969074816F008FF00E0082008BD00BF37
:10CF600013230020302300209C26002014230020BF
:10CF70006825002008B50378023B082B3FD8DFE87E
:10CF800003F01C05113E3E2C3E3E36001E4B9B68B6
:10CF9000002B34D0007A002831D01C4A01211170B6
:10CFA00098472CE0184BDB684BB3184A127832B321
:10CFB000164A00211170984721E0154B1B784BB998
:10CFC000114B1B691BB1114A002111709847FFF7E3
:10CFD000B3FF14E0FFF786FF11E010220A4B9969B6
:10CFE0000C4816F04BFF50B116F0E8F907E08168E5
:10CFF000C0680AF0BBFF18B9054B01221A7008BDC2
:10D0000016F0DCF9F8E700BF1423002010230020FD
:10D01000112300206825002070B586B00446214AFF
:10D0200003AB07CA03C323F8022B120C1A701E4E5F
:10D0300035460FCC0FC594E8070085E80700B369B3
:10D04000002B2DD0194B009303AB194A19491A48EC
:10D0500016F02CFE034610B1184606B070BD1748F6
:10D0600018F086FB0146144816F04CFE03460028D3
:10D07000F2D1134818F0F6FC03460028ECD1104812
:10D0800018F026FD01460C4816F03CFE0346002829
:10D09000E2D10C4804F004FDFFF74EFF0346DBE746
:10D0A0000723D9E744AE03001423002075CF010005
:10D0B000302300209C2600206825002050230020DB
:10D0C000182500206C1F002008B5064B1B681BB9F3
:10D0D00006E0044B1B68984713F0ECFE0028F8DAD2
:10D0E00008BD00BFDC26002010B50C46144B1860AC
:10D0F000144A012114481CF0D7FBA0B9610CE003CD
:10D1000041F26F7200238B4208BF824210D24FF46B
:10D110007A7200231CF040FC014600220B481CF0F0
:10D12000D9FB38B910BD0A4A4A2116F055F9E5E78E
:10D130000521F2E7064A4B2116F04EF9F2E700BF4F
:10D14000DC260020C9D00100B8AE0300E026002094
:10D1500050AE030070B50546002403E00D4A93422B
:10D160000ED80134032C14D80B4B1B5DAB42F8D105
:10D170000A4B1E6804F07EFF331AEFD5831BEDE7E0
:10D1800004F078FF054B1860054B1B682046984754
:10D19000E7E770BD801A0600C4AE03002C2700200C
:10D1A000282700201F280CD900F01F00064BD3F8B9
:10D1B000043523FA00F010F0010F0CBF012000200D
:10D1C00070474FF0A043F2E70003005070B50546EA
:10D1D0000024264606E0084B185DFFF7E3FFA04059
:10D1E00006430134032C04D80123A3402B42F8D07A
:10D1F000F1E7304670BD00BFC8AE030008B511B1FD
:10D2000014F0DEFF08BD14F0CBFFFBE770B5054658
:10D2100000240BE0094B1E5D3046FFF7C3FF80F092
:10D220000101C9B23046FFF7E9FF0134032C04D8ED
:10D230000123A3402B42F8D0ECE770BDC8AE030039
:10D2400010B5144B1B684BB1134B1868FFF7DEFF8A
:10D25000104B1C68013C1C6024B110BD002016F06E
:10D26000ADF8F1E70D481CF057FB09E00C4B1968CD
:10D27000E14001F001010B4B185DFFF7BFFF0134E6
:10D28000032CEAD80123A340034A12681342F6D0C4
:10D29000ECE700BF0027002004270020082700201B
:10D2A00030270020C8AE030070B505460E460024A6
:10D2B00005E03146064B185DFFF7A0FF0134032C53
:10D2C00004D80123A3402B42F8D0F2E770BD00BF81
:10D2D000C8AE03003AB338B50C461346132900D83C
:10D2E00038BD114A10605B00013B104A1360FFF724
:10D2F0006DFF0F4B18600025610CE0034FF47A724C
:10D30000002310F5FA7069411CF046FB01462A46DD
:10D3100008481CF0DFFA0028E2D10121024B18680E
:10D32000FFF7C2FFDCE7704704270020002700203A
:10D33000302700200827002008B504481CF0ECFA2C
:10D340000021034B1868FFF7AFFF08BD0827002036
:10D350000427002010B582B014F09EFE40B10024D6
:10D36000ADF804408DF8064001238DF8053009E042
:10D3700014F040FE0028F2D016F020F8EFE716F087
:10D380001DF80134032C07D801A9094B185D14F0CE
:10D390008DFE0028F5D0F2E7064A012106481CF070
:10D3A00083FA08B902B010BD16F008F8FAE700BF1A
:10D3B000C8AE030041D20100C0AE030060B310B597
:10D3C00082B0164A106014F067FE40B1144B1B681F
:10D3D000ADF804301B0C8DF8063000240EE014F07C
:10D3E00009FE0028F2D015F0E9FFEFE715F0E6FF9F
:10D3F00001210C4B185D14F06DFF0134032C08D88B
:10D40000094A01A9074B185D14F0EAFE0028EFD085
:10D41000ECE7002002B010BD0E2070472827002046
:10D42000BCAE0300C4AE030055D10100002800F0DB
:10D4300082802DE9F04FD1B004463F4B1B6813F4B6
:10D44000804F03D03D4B1B68032B0BDC3A4B1B6812
:10D4500013F4804F03D0394B1B68032B2ADC51B0E7
:10D46000BDE8F08F00230F2B0FD8E25C34490D6824
:10D47000100959002E5C0FA800F8136002F00F028B
:10D480000131AA5C42540133EDE70FAA00238DF865
:10D490005C3003F1804303F58833D3F804350292FE
:10D4A000284A0192284A00924222284904200AF080
:10D4B00031FDCBE7264BD3F804350D9320680202EB
:10D4C00002F47F0242EA0062010A01F47F4142EA6B
:10D4D000010CA5882A0292B2E688310289B2277A25
:10D4E000637A94F80AE094F80B8094F80C9094F81E
:10D4F0000DA094F80EB0E47B0B94CDF828B0CDF8D5
:10D5000024A0CDF82090CDF81C80CDF818E005932C
:10D51000049741EA1621039142EA152202924CEA4D
:10D52000106001900B4A00920D9B43220749042092
:10D530000AF0F0FC93E77047C41F0020C01F0020D2
:10D54000C81F00203CAF030050AF030028AF03000A
:10D550000010014058AF030072DF704773DF70475F
:10D5600074DF70472DE9F047A2B006460F4690469B
:10D57000314A02F1040900255560D5602F4803782F
:10D58000C3EB431C2E4C644414602E4961449160EB
:10D590001F2191809181013303F0010303704FF04B
:10D5A0003C0A5246294613A81CF0D9FB06238DF8E5
:10D5B0004F30ADF8486001238DF84A30ADF85C304B
:10D5C00012AA1892ADF83C60ADF8408011970DEBAF
:10D5D0000A021D928DF878305246294668461CF0A2
:10D5E000BEFB02238DF800304A46214613A815F0F1
:10D5F000DBF990B9104B03F10C029968684615F0FD
:10D60000D3F968B9104A0C491048FFF7A5FF08285C
:10D6100009D070B922B0BDE8F08715F0CFFEE9E778
:10D6200015F0CCFEEEE7002203490848FFF794FF0F
:10D63000EFE715F0C3FEEDE7782700203427002040
:10D6400038270020882700207C1F0020781F00201A
:10D65000B0F5202F0AD2074BA3FB0023DB0808B14B
:10D6600003B90123044A9381916070474FF6FF7319
:10D67000F5E700BFCDCCCCCC7C1F002008B5012144
:10D68000054B1878FFF76AFF18B9002005F0DEF89F
:10D6900008BD15F093FEF8E7781F002008B5044B8D
:10D6A0001878FFF75DFF00B908BD15F087FEFBE7AE
:10D6B000781F002076DF70477ADF70477CDF704785
:10D6C00069DF704708B515F079FE08BD08B504F0AC
:10D6D000EFF908BD00B583B0037823B1012B0BD05F
:10D6E00003B05DF804FB3B214088FFF7E3FF00280F
:10D6F000F6D015F063FEF3E7094B1B6813F4804F77
:10D70000EED0084B1B68032BEADD074BD3F804353A
:10D71000064A00926822064904200AF0FBFBDFE774
:10D72000C41F0020C01F00200010014010B00300E3
:10D73000F4AF030000B585B015F014FB18BB00234F
:10D74000039303A9012015F03DFAF8B900230093D3
:10D750000122114662F307118DF800108DF80120A7
:10D760000193ADF808301123ADF80A30039A6946E9
:10D770004120FFF7A5FF60B903A815F079FA58B961
:10D7800005B05DF804FB15F019FED8E715F016FE9C
:10D79000DCE715F013FEEFE715F010FEF0E70000F0
:10D7A00000B585B09DF80C30012262F3030362F3EB
:10D7B00007138DF80C3011220F4903A8FFF77EFFE5
:10D7C00098B97823ADF80430C823ADF806300023AB
:10D7D000ADF808304FF4C873ADF80A3001A8FFF770
:10D7E0006BFF28B905B05DF804FB15F0E7FDE8E72D
:10D7F00015F0E4FDF6E700BF3CB0030000B58BB0C8
:10D800007823ADF80430C823ADF806300023ADF816
:10D8100008304FF4C872ADF80A200693079301AAA6
:10D82000039240F6CD4204924FF4803205920322D7
:10D830008DF81820ADF81A308DF81C30064B08937F
:10D84000064B099303A815F073FC10B90BB05DF8F3
:10D8500004FB15F0B3FDF9E7D5D60100C5D60100EC
:10D860000620704700B587B044F20103984262D0A9
:10D870001BD8012836D041F20103984276D1474B9C
:10D880001B6813F4804F36D0454B1B68002B32DDEC
:10D89000444BD3F8043502920191434A009263222B
:10D8A000424901200AF036FB25E044F20203984287
:10D8B0005CD13A4B1B6813F4804F1CD0384B1B686B
:10D8C000002B18DD374BD3F80435106803905268ED
:10D8D00002920191364A00926922344901200AF0ED
:10D8E00019FB08E02D4B1B6813F4804F03D02C4B21
:10D8F0001B68002B12DC4FF0A0434FF4F032C3F84A
:10D900001825C3F80C25EFF3108372B64DF6AD6CF5
:10D91000284B1B78002B3ED030BFF9E7214BD3F8C2
:10D92000043502920191244A009260221F4901208D
:10D930000AF0F0FADFE7194B1B6813F4804FDAD0D6
:10D94000174B1B68002BD6DD164BD3F80435106837
:10D95000049050680390029192680192174A0092D5
:10D960007322124901200AF0D5FAC4E70B4B1B6859
:10D9700013F4804FBFD00A4B1B68002BBBDD094B53
:10D98000D3F8043501910E4A00927B220749012009
:10D990000AF0C0FAAFE707B05DF804FBC41F00202F
:10D9A000C01F002000100140DCB00300ACB0030039
:10D9B00000B10300941F0020C0B0030020B1030099
:10D9C00044B1030000B583B0014600230093054B2A
:10D9D00001936A4644F20200FFF744FF03B05DF88A
:10D9E00004FB00BF40B1030010B50446C0B200F014
:10D9F000F9F8204610BD000000B583B00378012B74
:10DA000006D0022B38D0002B45D003B05DF804FBC4
:10DA1000037A2BB901222949294800F061FBF4E778
:10DA200043681978274800F002FC90B101228DF874
:10DA300000200190244B1B6868469847214A916852
:10DA4000D3685B1A92889A4210D2204B01221A7036
:10DA5000DBE71C4B9A68DB689A42EFD000238DF815
:10DA60000030194B1B6868469847E7E701221349C5
:10DA7000134800F035FBC8E702238DF80030C36877
:10DA8000019301220D490E4800F02AFB0E4B1B6842
:10DA900068469847B9E70E490E4800F0DCFB38B1FC
:10DAA00003238DF80030084B1B6868469847ACE7A5
:10DAB00001220749024800F0BFFAA6E7F02700203C
:10DAC0009C1F0020CC270020C8270020DC27002036
:10DAD000F4270020E0270020F0B589B01E46284B2F
:10DAE0001A6000294AD004460D468A8809682548EC
:10DAF00000F08AFB034610B1184609B0F0BDAA89B0
:10DB0000A968214800F080FB03460028F4D16D4647
:10DB10001E4F0FCF0FC597E80F0085E80F00636910
:10DB20000693237C003B18BF01238DF814308DF839
:10DB30001C60637C03B30E238DF81530E3680293F9
:10DB4000A36803932368019363680093104A6946AE
:10DB5000104800F085F803460028CDD10E4A002178
:10DB600011702268B2F1FF3FC6D001220B490C4868
:10DB700000F0B6FA0346BFE70023DDE70723BBE763
:10DB8000C8270020CC270020E027002060B1030038
:10DB9000F9D90100981F0020DC270020F027002081
:10DBA0009C1F002038B501460A4B1D780A4800F03A
:10DBB00052FB04460DB9204638BD064B00221A70B0
:10DBC00001220649064800F08BFA0028F3D015F030
:10DBD000F5FBF0E7DC270020CC270020F027002011
:10DBE0009C1F002010B501460C4800F020FB0446A5
:10DBF00008B1204610BD0A4800F010FA0028F8D1FC
:10DC00000849064800F027FB0028F2D10122054907
:10DC1000034800F011FA0446EBE700BFE0270020BC
:10DC20009C1F0020F427002000B585B003788DF8F4
:10DC300000304368019383688DF80830C36803930C
:10DC4000054B53F82130054A52F821106846984791
:10DC500005B05DF804FB00BF00280020F827002075
:10DC6000F0B589B00C461646074617F804CB0C4BA6
:10DC700043F82C200A690B4B43F82C206D460FCC3F
:10DC80000FC594E80F0085E80F00CDF810C006B16D
:10DC9000054E32466946384600F08CF909B0F0BDB1
:10DCA00000280020F827002029DC010010B40B68B0
:10DCB000B3F1FF3F14D01F2B37D903F01F033B4CA8
:10DCC000012202FA03F3C4F808350B681F2B2FD981
:10DCD00003F01F03354A03F5E073032442F82340A1
:10DCE0004B68B3F1FF3F09D01F2B24D903F01F036A
:10DCF0002E4A03F5E073002442F8234003688A6942
:10DD0000C3F8242502684B7D0C7D2343C2F86C3593
:10DD100003680C684A68C3F80C45C3F814250B7DEA
:10DD2000012B0BD05DF8044B70474FF0A044C7E7C0
:10DD30004FF0A042CFE74FF0A042DAE78B68B3F193
:10DD4000FF3F0CD01F2B03D903F01F03174A01E03C
:10DD50004FF0A04203F5E073002442F82340CB6863
:10DD6000B3F1FF3F14D01F2B1AD903F01F030F4C40
:10DD7000012202FA03F3C4F80835CB681F2B12D92D
:10DD800003F01F03094A03F5E073032442F823401C
:10DD90000368C8688A68C3F80805C3F81025C1E796
:10DDA0004FF0A044E4E74FF0A042ECE7000300503E
:10DDB00086B002680023C2F81031D2F81021059213
:10DDC000059A0268C2F82031D2F820210492049A00
:10DDD0000268C2F82431D2F824210392039A02681F
:10DDE000C2F84431D2F844210292029A0268C2F881
:10DDF0005831D2F858310193019B0368144AC3F893
:10DE0000042303681A0B43F30733002B18DB490183
:10DE1000C9B203F1604303F5614383F8001303685B
:10DE20001A0B43F30733002B08DB02F01F025B09D8
:10DE3000012101FA02F2074941F8232006B0704798
:10DE400002F00F024901C9B2034B9954E7E700BF42
:10DE50001003420000E100E014ED00E000B585B0E1
:10DE600001238DF8003002910192436801686846F1
:10DE7000984705B05DF804FB00B585B000238DF828
:10DE800000300291826801924361436801686846EC
:10DE9000984705B05DF804FB30B589B004460D46DF
:10DEA000D0F82431002B44D00023C0F82431D0F81E
:10DEB00024210092009A02228DF81020D0F88024AC
:10DEC000C0F880240792D0F83C250692CA680592D3
:10DED0008B61CB614B68096804A89847D4F844313A
:10DEE0004BB10023C4F84431D4F844310293029B6F
:10DEF000AB69002B47D1D4F820315BB10023C4F8C3
:10DF00002031D4F820310393039B0123E3606B6934
:10DF1000002B42D1D4F858314BB10023C4F858310A
:10DF2000D4F858310493049B6B69002B3BD109B0A2
:10DF300030BDD0F81031002BD0D00023C0F8103104
:10DF4000D0F810310193019BD0F83C15AB698B429E
:10DF5000C4D1EB6983B1EA68D0F8003223F0200322
:10DF6000C0F80032EB69AB612B69EB600023EB6119
:10DF70002846FFF773FFB1E70023AB61EA68284644
:10DF8000FFF76CFFAAE70023AB61EB61D4F83C1507
:10DF9000EA682846FFF762FFADE7D4F84C1528463B
:10DFA000FFF76AFFB6E7D4F84C152846FFF764FF81
:10DFB000BDE70000F8B51746047904EBC402164B20
:10DFC00003EB820393F820301BBB05460E46FFF798
:10DFD0006DFE114B04EBC40203EB82014F6031690B
:10DFE00043F822101FB1317F2846FFF7E1FE2B686E
:10DFF0000822C3F80025084A04EBC40302EB83039C
:10E0000000209861D86158611C46012384F82030B3
:10E01000F8BD0820FCE700BF08280020037903EBC7
:10E02000C303044A02EB83035869003818BF012078
:10E03000704700BF08280020F0B583B0067901F0D2
:10E040006043B3F1005F02D0102003B0F0BD04467E
:10E050000D461746FFF7E2FF00283CD106EBC6034A
:10E060001E4A02EB83035F619D6022680021C2F8B3
:10E070002011D2F820210192019A2268C2F8581189
:10E08000D2F858210092009A22685969C2F8445582
:10E09000C2F848152268012191605B680BB100202D
:10E0A000D3E72368D3F82021D3F858010AB9002810
:10E0B000F7D070B90122DA602368D3F85831002B09
:10E0C000FAD006EBC603054A02EB830300225A612D
:10E0D000BBE70F20F5E71120B7E700BF08280020B5
:10E0E00070B483B00346007901F06044B4F1005F7E
:10E0F0007BD100EBC0043E4D05EB8404666826B17D
:10E100001C684FF40475C4F8085300EBC004384D84
:10E1100005EB8404A469B4B100EBC00405EB8404EE
:10E12000E46944B9324C00EBC00504EB8505296174
:10E13000EA61012010E026B11B684FF40472C3F8B5
:10E14000042311202EE02A4C00EBC00504EB8505CA
:10E15000AA61E9600020E8611C680025C4F810513C
:10E16000D4F810410194019C1C68C4F84451D4F8BF
:10E1700044410094009C1C68C4F83415C4F8382548
:10E1800098B91A68012111601D7905EBC501184A7B
:10E1900002EB8102526882B11B684FF40472C3F82B
:10E1A0000423002003B070BC70471968D1F8002226
:10E1B00042F02002C1F80022E6E71A68D2F81041C6
:10E1C000D2F84411D2F8240114B909B90028F4D0C6
:10E1D00005EBC505064B03EB85050023AB6100B1DC
:10E1E00003200029DED00F20DCE71020DAE700BF93
:10E1F0000828002008B502490248FFF74DFE08BD77
:10E2000008280020002000400B4651B15AB1511E91
:10E210000A420AD10360818000238360C3601846EC
:10E2200070470E20704709207047092070478268A8
:10E23000C3689B1A82889A4201D20420704710B4A6
:10E240000368C46822409954C3680133C360002046
:10E250005DF8044B70478268C3689A420DD010B4D1
:10E260000268836884882340D35C0B708368013321
:10E27000836000205DF8044B704705207047000064
:10E2800010B40346044C006859689A68DB680FC4F0
:10E290005DF8044B704700BF2C2800200D4B0E4A40
:10E2A00092E8030083E8030003F108020B4903C965
:10E2B00082E8030093F9062002F00F0242F04002C8
:10E2C0009A7193F9082002F03F0242F080021A721C
:10E2D000704700BF2C28002060000010A400001030
:10E2E000004870472C28002000231F2B09D807491D
:10E2F00001EBC30000224280426001F83320013369
:10E30000F3E7034B00221A60704700BF3C2800204F
:10E310003C29002030B405460F4B1B6800240AE05E
:10E320001F230E4A12F83300A0B102EBC302528839
:10E33000AA4207D001341F2C0BD85A1E002BEFD055
:10E340001346EEE7054A02EBC30252688A42F1D156
:10E3500000E0002030BC70473C2900203C28002011
:10E3600030B40A4A13680A4C04EBC305688069603C
:10E37000012104F833100B441360202B01D030BC72
:10E380007047134600221A60F9E700BF3C290020BD
:10E390003C280020F0B414461D46002300E0013361
:10E3A000072B0ED81A0108498A5A8242F7D101EB8D
:10E3B0000312D2E90267AF4208BFA642EFD10120A3
:10E3C00000E00020F0BC70474029002030B4C16953
:10E3D0008269C3880D0A0C06C2F30C01994216D259
:10E3E0005B1A1344A3F50053E41845F10005094AEC
:10E3F0001368591C116003F00703808A064A19014B
:10E4000002EB03135052C3E9024530BC70475B1A5C
:10E410001344E9E7C029002040290020C37D002BD8
:10E4200042D0C3780A7802F0800203F07F031343DE
:10E430000B7002780B7803F07F0343EAC2130B7072
:10E440000378002B41D030B48378082B14BF00220E
:10E4500001224B7803F07F0343EAC2134B70C58857
:10E4600003F08003C5F3861423434B708A7802F0CF
:10E47000030242EA8502D2B28A70057A02F0FC02F7
:10E48000C5F3C10422438A70CB7803F01F0343EA2B
:10E490004513DBB2CB70427A03F0E00302F01F02B7
:10E4A0001343CB7030BC7047C3780A7802F0BF02C8
:10E4B0009B0103F0400313430B70027903F0C00388
:10E4C00002F03F0213430B70B3E770470023032BA6
:10E4D00031D810B402E00133032B28D8C3EBC302B8
:10E4E000164C04EB021292F84820012AF3D1C3EB38
:10E4F000C30204EB0212948AC2899442EBD1C3EBAB
:10E50000C3020E4C04EB0212D2888A42E3D1C3EB61
:10E51000C30204EB0212B2F8582012B1848AA2425C
:10E52000D9D1C3EBC303054800EB031000E0002082
:10E530005DF8044B70470020704700BFEC290020B5
:10E54000002300E00133032B16D8C3EBC3020B49B1
:10E5500001EB021292F84820022AF3D1C3EBC30266
:10E5600001EB0212918A828A9142EBD1C3EBC30381
:10E57000024800EB0310704700207047EC29002090
:10E5800008B9042070470820704730B403460C4691
:10E590000978C17000214162A1680B2903D8217B51
:10E5A000F9B1012100E0012119700020987029B112
:10E5B000A1680731C9080139597218720121D9754A
:10E5C00003F10C056169206985E80300E1899982FE
:10E5D000A1691962217F9975216AD9629A6230BC5A
:10E5E00070470021E0E700000021164B1B688B42BA
:10E5F00026D90023144A02EBC10252689A421DD95F
:10E6000010B4114A52F8312002EBC30412F833203F
:10E6100082420DD001330C4A02EBC10252689A4289
:10E62000EFD80131074B1B688B4205D90023F2E775
:10E6300060685DF8044B70470020FAE70131D4E7C9
:10E6400000207047C4290020C829002070B58CB074
:10E6500006460D4614462C22002101A81BF07FFB24
:10E660000F238DF80430ADF808604FF0000365F318
:10E6700000038DF80A308DF80B4001A801F0F6F97F
:10E680000CB070BD30B58DB005460C462C22002173
:10E6900001A81BF064FB10238DF8043002958DF85F
:10E6A0000C4001A801F0E2F90DB030BD00B58DB00D
:10E6B00010B913F1020F06D1074B186804F0F4FAF1
:10E6C0000DB05DF804FB01218DF804100293039254
:10E6D00001A801F0CBF9EFE7D0290020F8B5069C9E
:10E6E000002960D01E460F4615685168D2F808C050
:10E6F000D368E5602161C4F814C0A361156951694C
:10E70000E5612162002363700278D20922705AB356
:10E710000423BB4249D8E17D41B3037803F07F0372
:10E72000E3700023A3709AB143789B0103F4FE5376
:10E73000827843EA9203E3808378DB0003F01803D6
:10E74000C27843EA52132372C37803F01F03637243
:10E75000002363623378032B21D83278144B53F8AB
:10E760002230E3620020F8BD0123D2E70178C1F333
:10E770008011E170017801F03F01217142B190F9FF
:10E780000130002B02DB0423A370CCE70823FBE756
:10E790000421A1700B44BB42C5D90920E3E77846A8
:10E7A000FFF710F9D9E70920DDE70920DBE700BF13
:10E7B0002CB3030070B50C461D4603789BB10426AC
:10E7C0003244A26000F10C032360836A6360C36A71
:10E7D000E36000232374204604F0D8FD10B9636978
:10E7E0001E442E6070BD0126EAE72DE9F0418EB08F
:10E7F0000D4616461C46804600282DD0002D2FD0F1
:10E80000002C31D0636A0233059304F10C00E378E5
:10E81000002B2DD00121A27801AF3B46082A14BF5E
:10E820000022012204F085FB0697CDF81C80B2B2CD
:10E83000ADF820200B9515440C95A3788DF8343055
:10E84000237B022B16D00023ADF8283005A804F056
:10E8500068FB0EB0BDE8F0817846FFF7B3F8CDE76E
:10E860007846FFF7AFF8CBE77846FFF7ABF8C9E794
:10E870000221D0E723692BB1236909931023ADF856
:10E880002830E3E77846FFF79DF8F5E72DE9F041FA
:10E8900088B004460D46C37D002B3CD0082605FBFE
:10E8A00006F8637AAB4238D0257201AB324602A932
:10E8B0002046FFF77FFF074648BB4DB994F8533019
:10E8C00033B9A369C3F30C03E380012384F8533005
:10E8D000E37D7BB994F8523063B91DBBE06EB4F8A8
:10E8E0004A10A27823468A1A0146FFF77EFF0123C9
:10E8F00084F8523007992046FFF790FDE16E3246CA
:10E90000414401981BF002FA02A804F065FD384664
:10E9100008B0BDE8F0810C26C1E7B4F84A60A6EB68
:10E920000806C1E77846FFF74DF8D7E770B505460A
:10E930000E4609B100230B6095F85040002104E019
:10E94000631C85F850300134E4B26B7AA34210D3D3
:10E95000EA6C0123A3401A42F5D121462846FFF76D
:10E9600095FF014628B9002EEAD0336801333360A1
:10E97000E6E7084670BDF0B589B004460E46154678
:10E9800083789A18C37D63B10B239A4221D801ABD7
:10E9900002A92046FFF70EFF074620B1384609B00E
:10E9A000F0BD0F23F1E707992046FFF737FDE37D20
:10E9B00043B12A46314601981BF0A8F902A804F099
:10E9C0000BFDEBE723462A4601993046FFF70DFF82
:10E9D000F4E70927E2E7000010B5044690F8483054
:10E9E000012B0CD103F046FB237B012B0BD0094BF1
:10E9F000D968014404F1300003F008FB10BD7846EB
:10EA0000FEF7E0FFEEE7A17D024BDA681B6903FB2E
:10EA10000121EEE7D429002030B583B0002403E0C3
:10EA20002846FFF7D9FF0134032C18D8C4EBC403E0
:10EA30000C4A02EB031393F84830012BF3D1002367
:10EA40000193C4EBC40502EB051501A92846FFF7A5
:10EA50006DFF0428E4D0019B002BE4D0E0E703B075
:10EA600030BD00BFEC29002038B5044690F848308E
:10EA7000022B09D1064B1D6803F0FCFA411904F181
:10EA8000300003F0C3FA38BD7846FEF79BFFF1E78C
:10EA9000D429002038B5044690F84830022B10D114
:10EAA0000A4B5D7D5A689B6803FB052503F0E2FA7B
:10EAB000411904F1500003F0A9FA012384F86830E9
:10EAC00038BD7846FEF77EFFEAE700BFD429002074
:10EAD00010B50446808A02F033FE01281CD1237B46
:10EAE000E3B194F91620002A1ADBE27D4AB1022B29
:10EAF00018D094F90330002B16DBA378B3B90020AB
:10EB00000BE0E2780AB9012B12D1237893B9A378EC
:10EB1000042B11D1002000E0102010BD1020FCE7D4
:10EB20000720FAE71020F8E70720F6E70720F4E7C8
:10EB30000720F2E70020F0E70720EEE738B50446AB
:10EB400003784BB1C388C2698169808A06F068FD89
:10EB5000054645B9284638BDC2698169808A06F0F4
:10EB600059FD0546F5E7E169002201F00101A08A9F
:10EB7000FFF76CFDEEE700002DE9F04780460E46FA
:10EB800017464B1EDBB2012B0FD8B7F5C07F10D84C
:10EB90000024032C1AD8C4EBC403314A02EB03133C
:10EBA00093F848304BB10134F3E77846FEF70AFF9B
:10EBB000EBE77846FEF706FFEAE7C4EBC40502EB95
:10EBC0000515384609F071F9E86600E000255DB3E7
:10EBD000EB6E002B42D043462C4608F1300ED3F8A2
:10EBE00000C058689968DA68C4F800C06060A16025
:10EBF000E260103310347345F1D10023EB64A5F8C3
:10EC00004A70012E13D06FF00103AB62002385F828
:10EC10006830144BAB652D66134BAB632D6401203C
:10EC200002F018FA85F848602846BDE8F0870F4BD7
:10EC30001B7D85F85130002385F8523085F853301C
:10EC400085F85030D8F828206A65A5F858306FF05C
:10EC50000103AB62064BAB632D64E0E71D46E3E7BF
:10EC6000EC29002077F60100C1EF0100D429002033
:10EC70000DF0010000B585B000228DF80F20A0B185
:10EC80000B46024602320A600DF10F01184604F0ED
:10EC90004CF99DF80F3043B10C4B1B6813F0040F77
:10ECA00003D00B4B1B68032B04DC9DF80F0005B051
:10ECB0005DF804FB074BD3F80435074A009240F295
:10ECC00015420649042009F025F9EEE7C41F00208B
:10ECD000C01F002000100140E4B10300D6B10300C2
:10ECE0002DE9F04391B005460E4614461F46D0F874
:10ECF000188003784BB1C388C8F30C029A4230D213
:10ED00009B1A4344A3F50053AB6105F10C00EB786B
:10ED100053B30121AA780DF130094B46082A14BFDC
:10ED20000022012204F005F9C5F81880CDF81090F2
:10ED30000596AB78E21A92B2ADF8182032440A92E6
:10ED400009978DF82C300023ADF82030EB78002B9C
:10ED500040D02B7B022B09D000236B6201930293DE
:10ED600024E09B1A4344CFE70221D3E71023ADF8F8
:10ED700020302B690793EFE70134012C14D810AB36
:10ED800003EB840353F83C0C70B103A9FFF772FF47
:10ED90000028F1D010AB03EB840454F83C3C6B62C8
:10EDA000002011B0BDE8F083019B3BB102AB01AA8A
:10EDB0002979286A10F0C4F90024DEE72B7B022BA6
:10EDC0002CD105F10C01E88910F074FA0028C0D1AB
:10EDD0000520E6E72B7B012B01D00520E1E7EB893D
:10EDE000ADF80430AB8AADF806300024012C13D8FE
:10EDF0002946002341F8243F10AB03EB440333F8CA
:10EE00003C0C10F0C2F903A9686AFFF733FF08B998
:10EE10000134EBE70020C4E70520C2E70520C0E786
:10EE200070B5F0B00E4614461D4610AB0A460146BA
:10EE30002046FFF755FF50B1214B1B6813F0040F1C
:10EE400003D0204B1B68052B2DDC70B070BD204615
:10EE5000FFF774FE0028F8D103AB01228DF80C20D7
:10EE6000A28AADF80E20002204928DF8142010AA78
:10EE70000692A178711AADF81C1008AA93E8030055
:10EE800082E803000AAB2169E06883E80300A37D00
:10EE90008DF83830236A0C93636A0D930F9505A89B
:10EEA00000F0E4FDD1E7084BD3F80435074A00929F
:10EEB00040F203720649062009F02CF8C5E700BFAE
:10EEC000C41F0020C01F002000100140F8B1030043
:10EED000D6B1030010B50446C06E08F0EAFF04F195
:10EEE000300003F07BF894F84830022B0AD07022EF
:10EEF000002120461AF033FF002084F8480002F079
:10EF0000A9F810BD04F1500003F068F8EFE710B560
:10EF10008CB0044690F84830012B0FD101238DF8B6
:10EF20000430636D029303F0A5F8039001A800F08C
:10EF30009DFD2046FFF7CEFF0CB010BD7846FEF7D2
:10EF400041FDEBE730B585B00D460446A8B194F815
:10EF50004830022B15D02946606DFFF793FB204601
:10EF6000FFF7B8FF114B1B6813F0040F03D0104BD1
:10EF70001B68032B09DC05B030BD7846FEF722FD87
:10EF8000E5E72046FFF722FAE5E70A4BD3F8043518
:10EF900094F8482002950192074A009240F2F31239
:10EFA0000649042008F0B6FFE5E700BFC41F0020B3
:10EFB000C01F00200010014024B20300D6B103009E
:10EFC00008B508460021FFF7BDFF08BD08B5037B63
:10EFD000012B02D0FFF79BFF08BD0121FFF7B2FF15
:10EFE000FAE7000008B590F8513053B1013B80F8C2
:10EFF0005130002380F85030034B186803F054FE62
:10F0000008BDFFF7E3FFFBE7D029002010B50C4651
:10F0100091F84830012B03D12046FFF7E3FF10BDE4
:10F020007846FEF7CFFCF7E7062976D1F0B585B034
:10F0300015460678B20102F4FE5241788478C3780E
:10F040001B0443EA0463047943EA042344791C4320
:10F0500076B242EA91012846FFF738FA0746E0B156
:10F06000002E2FDBC289A98A8A422BD02B4B1B682A
:10F0700013F0040F3ED02A4B1B68012B3ADD294BBD
:10F08000D3F8043502910192274A009240F27D6242
:10F090002649022008F03EFF2CE0204B1B6813F0AD
:10F0A000040F27D01E4B1B68012B23DD1D4BD3F80B
:10F0B00004351F4A009240F279621C49022008F090
:10F0C00029FF17E0002E17DBFD6C2543FD64BCB162
:10F0D0003B78D3B17B7A5A1C01239340013B9D427C
:10F0E00017D0002187F850103846FFF71FFC38462C
:10F0F000FFF772FC05B0F0BDAB8AA7F85830E3E724
:10F1000003213846FFF71EFFF4E77846FEF75AFC66
:10F11000E0E73846FFF7FBFEECE77047C41F00202E
:10F12000C01F00200010014078B20300D6B10300D8
:10F1300048B203002DE9F0418AB007460E46144656
:10F140001D461046FFF7FAFC50B994F80380B8F159
:10F15000000F08D12B46224631463846FFF764FFA0
:10F160000AB0BDE8F0814046FFF73EFA02460028AB
:10F17000F6D08DF80480236A0793A38AADF8123085
:10F1800005AB2169E06883E80300A37D8DF820309A
:10F190000297039623788DF81030E36A0993294685
:10F1A00001A89047DCE710B5547814F0010F03D0A4
:10F1B000D47D14B1FFF7BEFF10BDFFF731FEFBE7B2
:10F1C00008B501390130FFF7EEFF08BDF0B5C7B053
:10F1D0000F46164682783244C37D2BB14FF48073BC
:10F1E00093427CD3002303E04FF4C073F8E701336C
:10F1F000032B1AD8C3EBC3043B4D05EB041494F85E
:10F2000048100129F3D1C3EBC30105EB01118C8A2E
:10F21000818A8C42EBD1C3EBC30105EB0111CC8990
:10F22000C1898C42E3D1082552E00121FFF7A4FCFB
:10F230000446002855D032463946C06E1AF066FDA5
:10F240000023459345A92046FFF770FB054608B10A
:10F25000042840D1459B0BBB244B1B6813F0040FC3
:10F2600035D0234B1B68032B31DDB4F84A70802F57
:10F2700028BF80270023BB4214D2E26ED25C1D4916
:10F280000D68100959002E5C04A800F8136002F004
:10F290000F020131AA5C42540133ECE72046FFF72C
:10F2A0009BFBD9E704AA002302F8173003F180433F
:10F2B00003F58833D3F8043502920F4A01920F4ABE
:10F2C00000924FF4AC620E49042008F023FE0025A2
:10F2D000284647B0F0BD2046FFF7FCFDF8E70925BA
:10F2E000F6E70425F4E700BFEC290020C41F002046
:10F2F000C01F0020C81F0020BCB2030050AF030095
:10F30000D6B1030070B504460D461646FFF7E0FB84
:10F3100030B923782BB1324629462046FFF756FFF5
:10F3200070BD324629462046FFF725FBF8E700006E
:10F3300038B504460D46CB695B780371CB691B7801
:10F3400083F00103C370CB6943628B8A0B2B07D810
:10F35000CB7A002B35D10B7B012B02D0002300E0B0
:10F3600001232370002B31D0287B02282BD0FFF7FC
:10F3700007F9A070AB8A03440B33174A82FB0323BF
:10F380005B10013B6372002323720023E37504F1D9
:10F390000C0395E8030083E80300AB6923622B8923
:10F3A000A382AB7AA3752B6AA362DF23E3622846AC
:10F3B0000FF0AEFF20B12B78012B0AD0FF23E362C0
:10F3C00038BD0123CDE7054B987DD0E70423A3701A
:10F3D000DBE72023F3E700BFABAAAA2AD429002049
:10F3E00010B54FF4E072002113481AF0B8FC06F093
:10F3F000E3F80024114B1C608022214610481AF0CB
:10F40000AEFC104B104A1A60104A5A604CF250324F
:10F410009A600F49D9601A6104221A759C750822F6
:10F420005A750C4803F020FC0B4B18600B4B1C600A
:10F430000B4806F0BBFB10BDEC290020C0290020C2
:10F4400040290020D429002080969800F04902002D
:10F4500020A1070069F60100D0290020C42900205E
:10F46000ADE6010008B506F0C7F808BD98B110B5C3
:10F470008CB00446036983B1C36983B1836983B1E6
:10F4800001466846FFF754FFA28A21696846FFF7E4
:10F4900039FF0CB010BD0E2070470E20F9E70E208A
:10F4A000F7E70E20F5E7000058B310B590B00A4614
:10F4B000044643683BB383693BB3014604A8FFF7A6
:10F4C00064F8134B1B6813F0040F03D0114B1B6837
:10F4D000062B06DCA268616804A8FFF713FF10B0D2
:10F4E00010BD0D4BD3F804352278A1690291019229
:10F4F0000A4A009240F605020949072008F00AFD71
:10F50000E8E70E2070470E20E9E70E20E7E700BF8E
:10F51000C41F0020C01F002000100140CCB2030017
:10F52000D6B10300037B012B01D00020704730B51A
:10F5300091B004460D46334B1B6813F0040F03D003
:10F54000314B1B68032B41DC04A900230593CDF844
:10F550001730E288C2F3861092008DF811202A0E2F
:10F560008DF812202A0C8DF813202A0A8DF8142009
:10F570008DF815506278022A0CBF80221A4642EAA2
:10F5800000028DF810204FF0060209924FF00102A0
:10F590008DF82C20A28AADF82E200C938DF81C300B
:10F5A0000891226A0D928DF82830E36A0F9319D0E2
:10F5B000E389ADF82A30A37DF3B98DF838306FF0C8
:10F5C000010107A8FFF770FF11B030BD0F4BD3F852
:10F5D00004350F4A009240F263220E49042008F0DD
:10F5E00099FCB1E70DF10E0103A80FF07FFEBDF805
:10F5F0000C30ADF82A30DEE7074B5B7D8DF83830F4
:10F60000DDE700BFC41F0020C01F00200010014024
:10F61000F8B20300D6B10300D429002090F8483096
:10F62000022B00D0704710B5044690F86830022BCA
:10F6300000D010BDC16CFFF775FF0028F9D1002381
:10F6400084F86830F5E7000010B5002407E0C4EB4B
:10F65000C402130103481844FFF7E0FF0134032CF0
:10F66000F5D910BDEC29002008B5FFF7D5F9FFF753
:10F67000EBFF012008BD10B50C4691F84830022B75
:10F6800006D1022384F868302046FFF7C7FF10BD7B
:10F690007846FEF797F9F4E7F0B583B00446C569FC
:10F6A0008269C3882F0A2E06C2F30C05AB4232D9F9
:10F6B0005B1B1344A3F50053F61847F100073246CD
:10F6C0003B46A08AFEF766FE002840F08B8020466D
:10F6D000FEF736FF054648B3D0F81CC08269C388E0
:10F6E0004FEA1C214FEA0C60C2F30C0C9C4515D26A
:10F6F000A3EB0C031344A3F50053C01841F1000120
:10F70000B94208BFB0420DD38F4208BF864230D302
:10F71000284603B0F0BD5B1B1344CDE7A3EB0C03FD
:10F720001344EAE705212846FFF70CFCE388E26969
:10F73000A169A08A06F046F8E8B9627A531CE17D17
:10F7400099B3082202FB03F289B34FF4807393420A
:10F7500030D302212046FFF70FFA05460028D7D103
:10F7600000212046FFF7DEFE02210020FEF78AFF7F
:10F77000CEE70025CCE7E388E269A169A08A06F01C
:10F7800099F860B1237863B1617A4B1C01219940EB
:10F7900001392046FFF7C6FE2046FFF7CFF90025C6
:10F7A000B6E77846FEF70EF9EEE70C22CAE74FF40B
:10F7B000C073CCE70C4B1B6813F0040F03D00B4B4A
:10F7C0001B68002B01DC0025A2E7094BD3F80435A8
:10F7D0000192084A009240F27F320749012008F066
:10F7E00099FBF0E7002593E7C41F0020C01F00200D
:10F7F0000010014008B30300D6B103002DE9F04129
:10F8000082B007460E46144698461046FFF744FF5E
:10F81000002846D00546404B1B6813F0040F03D068
:10F820003E4B1B68032B3FDC2846FFF71DF92B7B63
:10F83000012B47D0EB6C217A01228A40134230D150
:10F840001A43EA64043E237AE27D002A42D04FF054
:10F85000080C0CFB03FC697A8B423ED0002A41D095
:10F860000823B34240D1AA69A3699A4209D205F19B
:10F870000C0E0C340FCCAEE80F0094E803008EE8B9
:10F880000300E86E3246391D60441AF03FFAEC6C12
:10F890002B7873B36B7A5A1C01239340013B9C4233
:10F8A0002BD002B0BDE8F0811D4BD3F80435227A8D
:10F8B00001921C4A009240F2A3321B49042008F036
:10F8C00029FBB1E795F86830002BB3D12846FFF744
:10F8D000E1F8AFE74FF00C0CBBE70CEB0603A5F823
:10F8E0004A30C0E70C23BCE704212846FFF72AFB77
:10F8F000D7E77846FEF766F8CCE7E96C2846FFF7CD
:10F9000011FE43462A46B5F84A10E86EFFF74BFC55
:10F910002846FFF7DFFAC4E7C41F0020C01F0020FD
:10F92000001001401CB30300D6B103002DE9F041E3
:10F9300090B000284CD00F4614461E468046002A40
:10F9400048D004AB00933346FEF7C8FE054618B115
:10F95000284610B0BDE8F08104A8FFF7B9F80546C5
:10F960000028F5D100230293039302A960880FF0C9
:10F97000A1FC28B19DF8113043F001038DF811303E
:10F980002269E168208905F0D5FE38B19DF8113073
:10F9900003F0FE038DF81130002BD9D09DF8113003
:10F9A000002BD5D013F0010F01D0039B08939DF8D5
:10F9B000103033B1334604AA39464046FFF71EFFE4
:10F9C000C6E7334604AA39464046FFF7F9FBBFE7CE
:10F9D0000E25BDE70E25BBE7F8B508B30E46054674
:10F9E000164B1F68F7B93C46B4420FD205EBC4036F
:10F9F0005B68D3B115F8340015F93430002B16DBF1
:10FA0000B8B1FEF7F1FDB0B90134EDE70C4B43F8A6
:10FA1000375003EBC7035E607B1C084A136002E0AB
:10FA20000E2700E004273846F8BD0E27FBE70B271A
:10FA3000F9E70F27F7E70F27F5E700BFC4290020F4
:10FA4000C8290020084B196861B110B504E00648C8
:10FA500004F04CFA214624B10C680B79002BF9D044
:10FA6000F5E710BD704700BFB02B002038B5054644
:10FA700030B1104B1C68C4B10F4B01221A7004E066
:10FA80007846FDF79FFFF4E724683CB12379002B0B
:10FA9000FAD154F8043C28469847F5E7064B1B7802
:10FAA000022B03D0044B00221A7038BDFFF7CAFFA7
:10FAB000F8E700BFB02B0020AC2B002010B50446A7
:10FAC00030B100232372211D034804F0E4F910BD76
:10FAD0007846FDF777FFF4E7B02B002010B5044619
:10FAE00058B10A4B1B78013BDBB2012B09D8074BFD
:10FAF00002221A700123237210BD7846FDF762FFBF
:10FB0000EFE7211D024804F0F1F9F5E7AC2B0020E6
:10FB1000B02B00200A8883689B5A07339BB223F0DE
:10FB2000030313449BB20288043A934200D9002392
:10FB30000B80704710B582B004468368C91AADF8CF
:10FB400006100DF10601FFF7E5FFBDF80630A068CD
:10FB5000184402B010BD0088043880B27047438852
:10FB60008268D018D15201238370704782680023C5
:10FB70009370438083807047073189B221F003017D
:10FB800089B2428883889A4204D29B1A99421EDC29
:10FB90000020704710B59A420FD90488A41AA142D8
:10FBA00017D98B4217D3032C03D98368134404223B
:10FBB0009A7000234380184604E0826813449B78BF
:10FBC0000BB1042010BDFFF7D1FF0020FAE704209D
:10FBD00070470020F6E70420F4E738B504460D46E8
:10FBE0008368828813448B4202D07846FDF7EAFE90
:10FBF0000023AB70211D2046FFF78CFFA288A3686D
:10FC000013449B78042B00D038BD0023A380FBE76E
:10FC100010B50C468368428813448B4202D0784664
:10FC2000FDF7D0FE0023A37010BD70B50546144645
:10FC30000E46002944D0002D46D0B6F1005F08D909
:10FC40004FF08053D3F80C3103F50023B6EB832F2C
:10FC50000ED3B6F5000F08D94FF08053D3F80C310E
:10FC600003F50053B6EB832F02D37846FDF7AAFEC7
:10FC7000631E3344B3F1005F08D94FF08052D2F8CD
:10FC80000C2102F50022B3EB822F0ED3B3F5000F47
:10FC900008D94FF08052D2F80C2102F50052B3EB94
:10FCA000822F02D37846FDF78DFE042C10D92C80CC
:10FCB00000236B80AB80AE60043C3480B37070BDB9
:10FCC0007846FDF77FFEB6E77846FDF77BFEB4E7A2
:10FCD0007846FDF777FEEAE738B50446A0B16288BA
:10FCE000A36813449B78012B12D0EFF3108572B6F2
:10FCF000A388A16819448B78032B0DD02046FFF709
:10FD000035FF05B962B638BD7846FDF75BFEE6E71C
:10FD10007846FDF757FEE8E72046FFF70BFFA3689C
:10FD2000C31A638000238370EBE72DE9F0410E4690
:10FD300014460546D0B1EEB16A88AB6813449B788F
:10FD4000012B1BD024B32846FFF705FFA04221D387
:10FD5000EFF3108872B621462846FFF70DFF0746DD
:10FD600080B1B8F1000F16D162B614E07846FDF705
:10FD700029FEE0E77846FDF725FEDDE77846FDF74A
:10FD800021FEDFE721462846FFF7E9FE3060E8E77D
:10FD9000092700E009273846BDE8F081F8B50C4690
:10FDA00015460646E0B1FCB1A378012B20D123888B
:10FDB000AB4221D325B3EFF3108772B6258002231F
:10FDC000A370F1183046FFF7A5FE7388B2889342FE
:10FDD00003D0B268134400229A7007B962B6F8BD26
:10FDE0007846FDF7EFFDDEE77846FDF7EBFDDBE754
:10FDF0007846FDF7E7FDDAE77846FDF7E3FDD9E75A
:10FE00007846FDF7DFFDD6E770B50C46054690B1A4
:10FE1000ACB1EFF3108672B6AA88AB6813449A7837
:10FE2000042A10D09A78022A15D0032A18D0052067
:10FE300006B962B670BD7846FDF7C4FDE8E77846BE
:10FE4000FDF7C0FDE5E7291D2846FFF763FEAA88F8
:10FE5000AB681344E6E703229A7023600020E7E7CB
:10FE60007846FDF7AFFD0020E2E738B5044680B1E3
:10FE7000EFF3108572B6A088A16801448B78042B3B
:10FE80000BD08878022814BF0020012005B962B683
:10FE900038BD7846FDF796FDEAE72046FFF74AFEB3
:10FEA0000146EEE738B5054678B1EFF3108472B637
:10FEB000A888A96801448878C31EDBB2012B08D842
:10FEC0002846FFF737FE0146F5E77846FDF77AFD4D
:10FED000EBE7022814BF0020012004B962B638BD48
:10FEE00070B50C46064678B194B1EFF3108572B642
:10FEF000A378012B10D0032B13D121463046FFF7F6
:10FF00006CFE05B962B670BD7846FDF75BFDEBE7A8
:10FF10007846FDF757FDE8E721463046FFF778FEC3
:10FF2000EFE77846FDF74EFDEBE710B5EFF31084F1
:10FF300072B68388816819448B78042B06D0887840
:10FF4000B0FA80F0400904B962B610BDFFF7F2FDC7
:10FF50000146F4E7024B00221A769A6002207047AD
:10FF6000B42B002008B5064B986800221A605A602E
:10FF70009A60DA601A615A619A6104F0D7FF08BD8D
:10FF8000B42B002000B585B00A4BDB6802228DF847
:10FF9000002001934FF480530293074A69460120E1
:10FFA00001F0E4FA18B9012005B05DF804FB002067
:10FFB000FAE700BFB42B0020D22B002000B585B09B
:10FFC0000A4B1B6802228DF8002001934FF48053E6
:10FFD0000293074A6946012001F0C8FA18B90120C6
:10FFE00005B05DF804FB0020FAE700BFD42B002029
:10FFF000D22B0020164BDA68137951795B1A03F57E
:020000022000DC
:100000007F2303F6FF7302EB03339A4205D002F518
:1000100080520F4BDA600320704700B585B00D4B5E
:100020001B6801208DF8000001930B4B0393042300
:1000300002930A4A694601F099FA18B1002005B006
:100040005DF804FB024B01221A760220F7E700BF9D
:10005000B42B0020D42B0020D82B0020D22B002042
:1000600000B585B00C4BDA680C4B1B6804330120DB
:100070008DF800000192039340F6FC730293084A46
:10008000694601F073FA28B90120034B187605B0D0
:100090005DF804FB0020FAE7B42B0020D42B0020ED
:1000A000D22B002000B585B00A4B1B6801208DF8CB
:1000B00000000193084B039304230293074A694607
:1000C00001F054FA18B9012005B05DF804FB0020D6
:1000D000FAE700BFD42B0020C02B0020D22B002039
:1000E00010B584B0104BDA681478104B1B680433D9
:1000F00001208DF800000193039202940C4A694696
:1001000001F034FA70B9094B1B6804F0FC041C447C
:100110000434054B5C61D9680A780A441A610120ED
:1001200004B010BD0020FBE7B42B0020D42B00202E
:10013000D22B002008B500230A2B09D8064A52F812
:100140002320824201D00133F6E7044A536002E0E3
:100150007846FDF737FC08BDE0B30300B42B002060
:1001600010B5214BDB6853B11F4B1B7E5BB91E4B97
:100170005B680A2B26D97846FDF724FC22E07846F6
:10018000FDF720FCF0E77846FDF71CFCEFE7164A88
:100190005368013353600A2B21D97846FDF712FCCE
:1001A0001DE0114B00225A6019E00F4B1B7E1BB162
:1001B0000D4B02221A7012E0FFF7D4FE0FE00A4B3B
:1001C0001B7E83B9084B5A68084B53F82230984776
:1001D00004460228E9D00328E3D00128D7D0012C17
:1001E000EDD0032CEBD010BDB42B0020E0B3030006
:1001F000104B1B681B685A1E12F1030F18D8C3F36B
:100200000B020AB10020704710B50B4AD3600023DF
:10021000137653760124147093600848FFF78AFF21
:100220000749204601F090F9FFF79AFF204610BDDC
:1002300000207047D42B0020B42B002085FF010044
:100240004502020008B50B78032B06D00B4B1B7838
:10025000012B06D0022B0BD008BD084B00221A76CA
:10026000F4E7064B1B7E002BF6D1FFF779FFF3E78F
:100270000B78032BF0D1FFF775FEEDE7B42B0020D0
:1002800000B585B0174BDB6818784FF6FF7203F5A1
:100290008051184405F040FCE0B10246114BD9688A
:1002A0000B780B44984217D00E4B5B7E83B10E4BFC
:1002B00001208DF8000001920393042302930B4A5E
:1002C000694601F053F948B90120064B187606E05B
:1002D000074BEDE7012002E0012000E0002005B01F
:1002E0005DF804FBB42B0020B4B60300D22B002031
:1002F000B0B6030008B5104BDB681878002203F590
:100300008051184405F008FC08B1012008BD0A4BD3
:10031000DA68137951795B1A03F57F2303F6FF73CB
:1003200002EB03339A4205D002F58052024BDA60A9
:100330000320EBE70220E9E7B42B0020F0B585B0FD
:10034000514BDE6872793379591E8A4214D006F512
:1003500080510D780D444D490968081D0F790744F7
:100360009B1A06EB03366B88013B9BB247F6FE6295
:10037000934260D92C461AE00120434B58767EE028
:100380007846FDF71FFB15E024F47F6424F00F048A
:1003900004F5805423781C44A64247D9A54247D28D
:1003A0006388013B9BB247F6FE62934211D92388D2
:1003B000002BE5D0238804EB830323F47F6222F033
:1003C0000F029342E0D06288B2F5FE4FDCD01C46AB
:1003D000E2E725462FE07846FDF7F4FA15E024F42D
:1003E0007F6424F00F0404F5805423781C44A64253
:1003F00020D9A5423BD26388013B9BB247F6FE62FF
:10040000934211D92388002BE5D0238804EB830382
:1004100023F47F6222F00F029342E0D06288B2F5AB
:10042000FE4FDCD01C46E2E7254604E0002502E052
:10043000002500E00025E5B1144B19686A8801F534
:100440008051384605F068FB074690B101200E4BFD
:1004500018768DF8000001950D4B03930423029349
:100460000C4A694601F082F858B92C46CAE70025C3
:10047000E1E7B5FA85F56D09034B5D76012005B01E
:10048000F0BD0020FBE700BFB42B0020D42B0020E0
:10049000ACB60300D22B00202DE9F04186B0644BAE
:1004A0001B692BB1624B5B6933B14FF0000846E02A
:1004B0007846FDF787FAF5E77846FDF783FAF4E723
:1004C0007846FDF77FFA15E025F47F6525F00F05E6
:1004D00005F580552B781D44AF421CD9AC421ED285
:1004E0006B88013B9BB247F6FE62934211D92B8881
:1004F000002BE5D02B8805EB830323F47F6222F0E9
:100500000F029342E0D06A88B2F5FE4FDCD01D4660
:10051000E2E72C4600E000241CB100943AE00024FD
:10052000FAE700230093019B002B5CD14FF00108F8
:10053000002C77D0628847F6FF739A4272D0B8F1E8
:10054000000F73D13A4B5A6922F47F6626F00F06EA
:10055000B61A06F580561C69DF683B797A799B1AD2
:1005600007EB0337002301936388013B9BB247F6F7
:10057000FE629342D1D92546B9E77846FDF722FAC3
:1005800023E024F47F6424F00F0404F580542378DE
:1005900023441C46A742C6D92388019A02EB830252
:1005A0009642C0D9009B634023F47F6323F00F037E
:1005B000002BB8D16388013B9BB247F6FE618B42AA
:1005C000B1D801922388002BD7D0238804EB830372
:1005D00023F47F6222F00F029342D2D06288B2F5F8
:1005E000FE4FD6D1CDE7124A526901208DF808009E
:1005F0000392009A059204930E4A02A900F0B6FFF6
:1006000070B90B49019B23F003024B6913444B6102
:1006100014B1074B1C618BE77846FDF7D3F9F8E777
:10062000002000E0012006B0BDE8F0810120FAE7DB
:10063000B42B0020D22B002000B585B0274B002220
:100640001A7040F6F8731B68B3F1FF3F09D0B3F19D
:10065000FF3F0CD07BB1B3F1FF3F37D0A3F5805201
:100660000FE01F4A1268B2F1FF3FF0D103E01C4ACD
:100670001268002AEFD14FF080514B690A6902FBE2
:1006800003F2A2F58052174B1A60174B1B6813F444
:10069000801F16D0154B1B68062B12DD144BD3F8A8
:1006A000043540F6F8710968B1F1FF3F13D00292AA
:1006B0000191104A009240F276220F49072007F07C
:1006C00029FCFFF795FD05B05DF804FB044B1A68A3
:1006D000A2F58052D5E702490968E8E7D02B00204F
:1006E00014100010D42B0020C41F0020C01F0020B5
:1006F00000100140ACB3030092B3030010B50446F0
:10070000B0B1104B1B78BBB10E4BD968E368587978
:10071000A3EB0032914211D31A79121A02F57F220B
:1007200002F6FF7203EB0233994209D8012004E07C
:100730007846FDF747F9E4E7002010BD0020FCE70C
:100740000020FAE7B42B0020024B1878003818BFBD
:1007500001207047B42B002010B50446124B1B78C3
:10076000BBB92378032B18D10F4B9C60E268DA6089
:100770000E4B1B78ABB10A220B4B5A6000221A7643
:10078000012018705A760A4900F0DEFEFFF7E8FCF7
:1007900010BD7846FDF716F9E3E77846FDF712F944
:1007A000E2E70022E8E700BFB42B0020D02B0020B6
:1007B00045020200014B1868704700BFD42B00208F
:1007C00010B5044680B163681BB123680BB1A36800
:1007D00013B97846FDF7F6F8A3685A1E134207D1FD
:1007E0000023E360236110BD7846FDF7EBF8EAE7EC
:1007F0007846FDF7E7F8F3E7F8B500B30F4604468F
:100800008368F3B1EFF3108572B60369C26893424F
:1008100011D0016842688668013E334003FB021133
:1008200017B1384619F072FA23690133236155B9BB
:1008300062B62846F8BD05B962B60525F9E70E256A
:10084000F7E70925F5E70025F3E700000246C0F3C6
:100850000B0040BB49B310B401F6FF710C0B144BF5
:100860000221C3F80415124BD3F80034002BFAD040
:1008700001460AE00E4BC3F808250D4BD3F80034AF
:10088000002BFAD002F580520131A142F2D3084B7D
:100890000022C3F80425064BD3F80034002BFAD00D
:1008A0005DF8044B7047102070470920704700BF67
:1008B00000E0014010F0030F2FD110B4044611F0F6
:1008C000030F2CD16AB312F0030F2CD19008174BF1
:1008D0000122C3F80425154BD3F80034002BFAD0BD
:1008E00002E0043404311046421E50B10B68B3F1EB
:1008F000FF3FF6D023600D4BD3F80034002BFAD025
:10090000EFE70A4B0022C3F80425084BD3F8003464
:10091000002BFAD05DF8044B704710207047102070
:10092000F8E70920F6E70920F4E700BF00E00140FE
:10093000094B1B7813F0040F02D00378122B00D060
:100940007047064B1A68064B5A60034B1A786FF3D0
:1009500082021A70F4E700BF802C0020702C002067
:100960000C2C002010B582B001900C46000C012820
:1009700010D12368094A136009490B7843F0010339
:100980000B705B0883F0010303F001031371002077
:1009900002B010BD7846FDF715F8EAE7702C00208C
:1009A000802C002010B582B001900C46000C02286B
:1009B0000FD12268094B1A6022791A7100205871F0
:1009C0009871D871064A137843F00203137002B08D
:1009D00010BD7846FCF7F6FFEBE700BF682C00205F
:1009E000802C002010B582B001900C46000C03282A
:1009F00006D1054B186820601B79237102B010BD29
:100A00007846FCF7DFFFF4E7702C002010B582B0C9
:100A100001900C46000C03280CD1084B206818608C
:100A200022791A71064A137843F0010313700020EB
:100A300002B010BD7846FCF7C5FFEEE7702C002031
:100A4000802C002010B582B001900C46000C0428C8
:100A500005D1054B03CB2060616002B010BD784624
:100A6000FCF7B0FFF5E700BF682C002010B582B09E
:100A700001900C46000C04280BD1084B20686168DB
:100A800003C3074A137843F002031370002002B037
:100A900010BD7846FCF796FFEFE700BF682C0020FA
:100AA000802C002000B583B00190000C032806D1F3
:100AB000054B00221A601A7103B05DF804FB7846FA
:100AC000FCF780FFF4E700BF702C002000B583B076
:100AD0000190000C042806D1054B00221A605A60D0
:100AE00003B05DF804FB7846FCF76CFFF4E700BF49
:100AF000682C002000B585B0184B1B7813F0400F10
:100B00000FD0164B1B7813F0040F07D1144B5B6802
:100B100003F500530193B3F1807F06D905B05DF86A
:100B200004FB7846FCF74EFFEBE70E4B1B788DF885
:100B300008300A4A137843F0040313700023ADF819
:100B40000C300323ADF80E3001A9039806F0ACF980
:100B50000028E3D07846FCF735FFDFE7802C002043
:100B60000C2C0020812C002000B585B00022ADF8AF
:100B700009200F4B996801911B7B8DF808300D49B6
:100B80000B780133DBB20B708DF80B30ADF80C2015
:100B90000423ADF80E300DEB0301039806F084F941
:100BA00010B905B05DF804FB7846FCF70BFFF8E7D9
:100BB0000C2C0020812C002000B585B00F4B9A68CA
:100BC00001921A7B8DF808201B8AADF809300C4B76
:100BD0001B788DF80B300023ADF80C300423ADF8F2
:100BE0000E300DEB0301039806F05EF910B905B065
:100BF0005DF804FB7846FCF7E5FEF8E70C2C0020D6
:100C0000812C002000B58DB00B4B1B7B012B0ED02F
:100C1000094A926804928DF80830039002238DF8F7
:100C2000043001A8FEF722FF0DB05DF804FB024A74
:100C30009268013A0492EEE70C2C002008B51D489A
:100C40001D4B036000F02CFF1C4B1B7813F0200F92
:100C50002AD103F00303032B14D1194B1968194A45
:100C6000916019791173B3F805001082DB79164A87
:100C70001370164A1279934217D0B1B9114B002262
:100C80001A6007E00F4B00221A609A601A731A82EA
:100C9000FFF76AFF0B4B1A685A60084A137843F053
:100CA00040031370FFF726FF08BD084B1A68054B79
:100CB0001A60EFE75C2C002031090200802C002034
:100CC000682C00200C2C0020812C0020702C00208F
:100CD00010B582B00024ADF800400123ADF8023019
:100CE000009806F012F9ADF804400223ADF8063082
:100CF000019806F00AF902B010BD000008B5002006
:100D000006F02AF9084B00221A605A609A60DA60ED
:100D10001A61064A137803F0DF0343F040031370AF
:100D2000FFF7E8FE08BD00BF0C2C0020802C00203F
:100D300038B50C4D00242C606C60AC60EC602C610C
:100D400001F098F9084B5860084A9A60084ADA603E
:100D50001C615C61074B1A7864F3C3021A706C6003
:100D600038BD00BF0C2C0020E82B0020D10E020063
:100D700000879303802C002008B50C4B1B7813F0E0
:100D8000100F00D008BD0A480A4B036000F088FE2F
:100D9000FFF754FFFFF79CFF074801F0EFF8034A05
:100DA000137843F010031370ECE700BF802C002091
:100DB000002C002029100200E82B0020034B18789B
:100DC000800880F0010000F001007047802C0020B6
:100DD00010B501F0D1FE174B1B7B1BBB154B9B7B4A
:100DE0002BBB144B1A8A41F282639A4206D8124BEB
:100DF0001B7813F0080F05D0012300E001231BB975
:100E0000082410E00023FAE70A4B01221A73002499
:100E10001C829A6801329A60FFF7A6FE2046FFF70F
:100E2000F1FE00E0082401F0EBFE204610BD08248E
:100E3000F9E700BF0C2C0020802C002010B501F039
:100E40009BFE214B5B7BABB11F4B9B7B03BB1E4BC4
:100E50001A8A41F282639A4206D81C4B1B7813F01F
:100E6000080F05D0012300E001239BB1012302E01C
:100E70000023FAE700231C460BB3134B00225A73DE
:100E80001B7B4BB1012B0ED07846FCF79BFD16E087
:100E90000023F0E70023EEE7FFF79AFF78B17846EA
:100EA000FCF790FD0BE0084B0020186058601873A9
:100EB0001882FFF7A7FEFFF757FEFFF71BFE01F0B2
:100EC0009FFE204610BD00BF0C2C0020802C00206F
:100ED00008B52C4B1B7BDBB1012B2ED07846FCF7E1
:100EE00071FD284A138A01339BB21382264AA2FB62
:100EF00003121209C2EB0212A3EB42039BB2002BB6
:100F00003DD0204B5B8A13B1013B1E4A538208BD82
:100F10001C4B1A8A41F282639A4206D81B4B1B78FB
:100F200013F0080F07D0012300E00123002BD8D0D5
:100F3000FFF784FFE5E70023F8E7124B1B8A41F235
:100F40008262934206D8114A127812F0080F14D028
:100F5000012200E00122002AC3D042F2B0129342E3
:100F600002D9084B01225A73FFF768FF0028C8D145
:100F7000044B5B7B012BB4D1C3E70022EBE7FFF707
:100F80001BFEBEE70C2C002089888888802C00205E
:100F900010B5244B1B7B002B35D10446214B5B8ABB
:100FA0002BBB1AB91F4B9B688B4205D3FAB11D4B63
:100FB0009B6801338B421AD21A4B9B682A338B42AF
:100FC00023D3184B9B7B03BB164B996000221A60FE
:100FD0005A601A8242F6065159825A731A73FFF701
:100FE000C3FDFFF787FD2046FFF70CFE0DE062B161
:100FF0000C4B9B6801338B4207D10A4B01225A7379
:10100000FFF71CFF01E0012B00D010BD002AFCD12E
:10101000044B9B688B42F8D1024B01225A73FFF7B5
:101020000DFFF2E70C2C00200378042B00D0704752
:1010300043681B78002BFAD010B58468027E437E8B
:10104000012A14BF00220122416904F11000FFF7B8
:101050009FFF10BD08B538B10D4B01229A730D4AA0
:1010600013680133136008BD0A4B1B685BB1094A62
:101070001368013B1360002BF5D1054B00229A73D6
:10108000FFF7DCFEEFE77846FCF79CFCEFE700BFDC
:101090000C2C0020DC2B002000B58DB0ADF8080032
:1010A0008DF81020039103238DF8043001A8FEF77A
:1010B000DDFC0DB05DF804FB014B9868704700BF84
:1010C0000C2C0020054B1B7B012B02D0034B986896
:1010D0007047024B98680138704700BF0C2C002005
:1010E0001D4B1B7813F0400F34D070B504460D46ED
:1010F0001A4B1A685B689A4228D2184B1B7B012B4B
:1011000017D0174B9A4216D2144B1A685B68403BB3
:101110009A4218D2EFF3108672B6104A1368591C1F
:1011200011602B60FFF7CEFF206006B962B6002089
:1011300070BD0C4BE6E7094B01225A73FFF77EFEA8
:101140000028E7D1E0E7FFF7D5FCE3E7FFF7D2FCA3
:101150000F20EDE70F207047802C00200C2C002082
:10116000FFFF7F0000E0FF00044B9B68584010F039
:10117000010F00D0013B1846704700BF0C2C002027
:10118000014B187B704700BF0C2C0020F8B5104BAA
:101190001B7813F0200F01D00820F8BD17460C4E25
:1011A00043F0200333700B4DA860297300242C8278
:1011B000FFF7DAFC2046FFF725FD2F606F603378DC
:1011C00043F040033370FFF795FC2046E5E700BF8E
:1011D000802C00200C2C002008B50022FFF7D6FF41
:1011E00008BD00002DE9F041002624E02449BC237D
:1011F00003FB04F3CA5A0132CA520221284602F004
:10120000BDFC01370221284602F088FC014679B175
:101210001B4ABC2303FB0423D3F80880B8F1000F5A
:10122000E4D0BC2303FB04F3D25A3046C047DDE7C9
:1012300097B90136F6B2022E1FD83446BC2303FB01
:1012400006F308330E4D1D4404350221284602F0F2
:1012500065FC01460027DAE7284602F0F7FC08287B
:10126000E7D1074BBC2202FB0434A368002BE0D07B
:101270000022044930469847DBE70120BDE8F081B1
:101280008C2C00201CB4030008B5082383731023A2
:10129000437300F11C0343610323037300F118033C
:1012A00003610C3002F0A4FC08BD000008B503780F
:1012B000012B06D0022B06D07846FCF783FB0020DA
:1012C00002E02B2000E0014808BD00BFCC55010022
:1012D00008B50378012B07D0022B12D07846FCF713
:1012E00071FB4FF4FA7307E08368591A89082B23BE
:1012F00003FB01F303F5FA730648984228BF18462A
:1013000008BD8368591A090B034B03FB01F303F56E
:10131000FA73F1E760850100CC55010038B5044649
:1013200001210C3002F0FAFB054678B1084BC4F8F5
:101330009C300023C4F8A0306168FFF7C9FFC4F8EF
:10134000A800C4F8AC40012384F8B830284638BD62
:101350007114020010B50446FFF7E0FF20B104F15C
:101360009C000EF08BFD00B910BD7846FCF72AFBFF
:10137000FAE70000F8B505460C46164617680378EC
:10138000012B19D11249A1FB0431C9088B00AC68AB
:10139000E41BB4EB810F00D31C468CB1686827F0C6
:1013A0000307E968224639443844FFF783FA58B9FD
:1013B00033681C443460F8BD7846FCF703FBE1E772
:1013C0007846FCF7FFFAE9E77846FCF7FBFAEFE727
:1013D00083BEA02FF8B506460C461546176803785D
:1013E000022B17D1114BA3FB04231B0C1A03B46867
:1013F000E41BB4EB033F00D314467CB1706827F0C4
:10140000030721463844FFF721FA58B92B681C44DA
:101410002C60F8BD7846FCF7D5FAE3E77846FCF790
:10142000D1FAEBE77846FCF7CDFAEFE72D57BDBFD1
:1014300038B505460C4611462378012B06D0022B01
:101440000FD07846FCF7BEFA002304E0021D2046C8
:10145000FFF790FFA3686868984214BF002001203E
:1014600038BD021D2046FFF7B5FFA368F3E7000073
:101470002DE9F8430F46D1F8A850254B1B786BB9DE
:101480000446A5F5FA7501F10C080121404602F069
:1014900045FB064648B14FF0000924E00EF02AFD56
:1014A000002387F8B830BDE8F8837846FCF78AFA5D
:1014B000F1E70EF01FFD0121404602F05FFB002323
:1014C0007B6087F8B830134B186801F0EDFB3846A5
:1014D000FFF740FFE7E7A4EB00093046FFF7E6FE21
:1014E0004844A8420DD8A5EB090231463846FFF71B
:1014F0009FFF0028DDD101F011FAB0EB0409ECD513
:10150000E9E70EF0F7FC3846FFF724FFCBE700BF12
:10151000882C0020842C002010B5084801F0A4FB82
:10152000074B1860002406E0064BBC2000FB04308B
:10153000FFF7AAFE0134022CF6D910BDE511020016
:10154000842C00208C2C002038B504460D4602283F
:1015500005D80548BC2303FB0404A56038BD7846C4
:10156000FCF730FAF5E700BF8C2C00202DE9F8439A
:1015700005460C461746022816D8CCB12378012B15
:101580001AD0022B3ED16368C3F30B03002B31D179
:10159000A368C3F30B03002B30D1A368002B34D115
:1015A0007846FCF70FFA30E07846FCF70BFAE4E7F0
:1015B0007846FCF707FAE1E7636813F0030F0DD1F3
:1015C000E36813F0030F0DD1A36813F0030F0DD1DF
:1015D000A368D3B97846FCF7F5F916E07846FCF72E
:1015E000F1F9EDE77846FCF7EDF9EDE77846FCF721
:1015F000E9F9EDE77846FCF7E5F9C9E77846FCF745
:10160000E1F9CAE77846FCF7DDF9EFF3108872B626
:10161000BC2606FB05F606F108032A4E1E440436D6
:101620000021304602F07AFA814678B30021304634
:1016300002F0A4FA20686168A268E368C9F80000B3
:10164000C9F80410C9F80820C9F80C302FB11D4A98
:10165000BC2303FB05235B883B801A4ABC2303FBA6
:1016600005235A8801325A8093F8B83083B9164B53
:101670001B7813B10024A1460CE0124BBC2000FBE8
:101680000530FFF74BFE8146002403E0042401E00F
:101690000024A146B8F1000F00D162B6B9F1000FE5
:1016A00009D0BC2000FB05F09830064D28440430DA
:1016B0000EF0E4FB10B92046BDE8F8837846FCF74D
:1016C00081F9F8E78C2C0020882C002038B50446DE
:1016D000EFF3108572B610B9164B1B6873B18CB15D
:1016E000144A136801331360124B1B68003B18BF88
:1016F0000123114A137005B962B638BD7846FCF76C
:1017000061F9ECE70B4B1C68013C1C6034B1EBE762
:10171000BC2000FB0420FFF71DFE0134022CE3D89F
:10172000064ABC2303FB042393F8B830002BF4D102
:10173000EEE700BFC02E0020882C00208C2C00205B
:1017400018B1830B024AD05C70470020704700BF7D
:101750002CB4030012DF704700B583B001F0F2FE35
:1017600040B10C4B1B6813F0400F03D00A4B1B68B1
:10177000012B02DC03B05DF804FB084BD3F8043501
:101780000190074A009275220649022006F0C2FB2A
:10179000F0E700BFC41F0020C01F00200010014060
:1017A00094B4030086B4030000B58DB0114B1B78D0
:1017B000022B06D07846FCF705F901200DB05DF844
:1017C00004FBFFF7FBFA18B90B48FEF777F9F4E7CB
:1017D0000FF0C8F8074B03221A702C22002101A831
:1017E00018F0BDFA1D238DF8043001A8FEF73EF96C
:1017F000E3E700BFC82E0020A41F00200B4B1B787E
:10180000042B00D0704700B58DB0084B05221A702C
:101810002C22002101A818F0A2FA1C238DF8043014
:1018200001A8FEF723F90DB05DF804FBC82E0020D7
:1018300008B50378122B00D008BD0448FEF74EF916
:10184000034B186801F030FAF6E700BFA41F002030
:10185000C42E002070B58AB00FF0C6F848B3064613
:1018600000238DF8103005AC05460FCD0FC42B6852
:101870002360727D052A04D9337D03F00F03072B03
:101880001ED1174B1A688AB104AB0393337DC3F39F
:1018900003038DF80430737D062B1BD9063B8DF8AE
:1018A000053006F11D03029301A8904730460FF062
:1018B0007BF80FF0B5F880F00100C0B20AB070BD3F
:1018C000307D04AB063A06F11D0100F00F000DF06B
:1018D00091FDD6E700238DF805300293E4E700BFC1
:1018E000CC2E002070B582B0314B1B78002B54D128
:1018F0000446002855D0067A0F2E01D0062E52D16C
:1019000006F0D2FAE06870B1FCF7BAFC0DF10700FE
:10191000FFF720FF0546002840D19DF80730012B36
:1019200004D002253AE0FCF7B9FCEFE7FCF7DCFC59
:1019300000F00CFB304601F0C7F8E07800F030F919
:1019400000F0B8FE0EF01CFA1A480FF005F90DF081
:10195000F9FE0DF031FDFFF7DFFD05F069FA00F04B
:1019600005FD06F061FA05F0FFFF204601F0F8FCE6
:10197000FDF736FD04F07CFCFBF772FF08B106288A
:1019800013D10D4801F070F90C4B18600C4B00227C
:101990001A60074B01221A7000E00825284602B0A1
:1019A00070BD0E25FAE70725F8E70546F6E700BF04
:1019B000C82E002055180200A9170200C42E0020CE
:1019C000CC2E002010B582B0204B1B78012B0DD0FF
:1019D0005AB2002A35D0043BDBB2012B33D80EF0CB
:1019E0003DFA044628B3204602B010BD01F0C8FC01
:1019F000FDF738FDFBF734FF0446B8B1062815D0D3
:101A0000134B1B6813F4804FEDD0124B1B68012B56
:101A1000E9DD114BD3F804350190104A00924FF4E0
:101A2000C2720F49022006F075FADCE701F078F87F
:101A3000D5E7064B02221A700A4B186801F034F9F8
:101A4000D1E70824CFE70824CDE700BFC82E002047
:101A5000C41F0020C01F002000100140C0B40300BC
:101A600086B40300C42E002008B5094B1B78032B55
:101A700001D0082008BD064B04221A7005480EF05C
:101A8000A1F90028F6D07846FBF79CFF0020F1E78B
:101A9000C82E0020FD17020008B5FDF7E7FC08BDC1
:101AA00008B5FEF70BF808BD08B5FEF717F808BD36
:101AB00008B500F0C5FD002008BD08B507F084FE9C
:101AC00008BD0000064A136801331360B3F1704F7C
