:020000021000EC
:10C0000000F001206DC3010055C3010057C30100BA
:10C0100059C301005BC301005DC3010000000000C3
:10C020000000000000000000000000005FC30100ED
:10C0300061C301000000000063C3010065C301008B
:10C0400067C3010067C30100FDEC010067C3010085
:10C0500067C3010067C30100B938030067C301006B
:10C0600067C3010067C301003112030067C3010009
:10C0700067C3010067C3010067C3010067C3010014
:10C0800067C30100D1BE0300D13B020067C30100BA
:10C0900035BF030067C301008543030067C3010088
:10C0A00067C3010067C3010067C3010067C30100E4
:10C0B00067C3010067C3010000000000000000002A
:10C0C00067C3010067C3010067C3010067C30100C4
:10C0D00067C3010067C3010067C3010067C30100B4
:10C0E00067C3010000000000000000000000000025
:10C0F0000000000067C301000000000067C30100EA
:10C10000000000000000000000000000000000002F
:10C11000000000000000000000000000000000001F
:10C12000000000000000000000000000000000000F
:10C1300000000000000000000000000000000000FF
:10C1400000000000000000000000000000000000EF
:10C1500000000000000000000000000000000000DF
:10C1600000000000000000000000000000000000CF
:10C1700000000000000000000000000000000000BF
:10C1800000000000000000000000000000000000AF
:10C19000000000000000000000000000000000009F
:10C1A000000000000000000000000000000000008F
:10C1B000000000000000000000000000000000007F
:10C1C000000000000000000000000000000000006F
:10C1D000000000000000000000000000000000005F
:10C1E000000000000000000000000000000000004F
:10C1F000000000000000000000000000000000003F
:10C20000344935480A1A02D0072291438D463349F2
:10C2100033480A1A06D00722914381F30988022283
:10C2200082F314882F483049304A00F042F83048F1
:10C230003049314A00F03DF830483149314A00F088
:10C2400038F831483149324A00F033F83148324940
:10C25000324A00F02EF832483249334A00F029F8C9
:10C2600032483349334A00F024F833483349002236
:10C2700000F02AF832483349002200F025F832480D
:10C280003249091A082902DB0022026041601F4876
:10C290001F49884205D00268043003B4904703BCAC
:10C2A000F7E700208646EC4600200021284A904708
:10C2B000FEE7884207D0521A05D0037801300B7090
:10C2C0000131013AF9D17047884202D00270013041
:10C2D000FAE7704700F0012000E8012000F001209B
:10C2E00000F001205C200400601F002018220020C4
:10C2F000A0C30100A0C30100CCF003005C20040037
:10C30000601F0020601F002040F5030040F503007F
:10C3100040F5030040F5030040F5030040F503003D
:10C3200040F5030040F503005B20040014230400E3
:10C3300018220020182200201822002090660020D9
:10C34000906600209066002090660020906A002091
:10C3500079CB0100FEE7FEE7FEE7FEE7FEE7FEE73A
:10C36000FEE7FEE7FEE7FEE700F002B8FFF7FCBFDE
:10C3700008484FF00701884385460748804707482B
:10C38000016841F470010160BFF34F8FBFF36F8FFD
:10C39000FFF736BF00F001206547030088ED00E09D
:10C3A00041DF7047704700000D4B1B6813F4804F4E
:10C3B00003D00C4B1B68032B00DC704700B585B025
:10C3C000094BD3F8043502920191084A0092A52244
:10C3D000074904200CF0A8FC05B05DF804FB00BF81
:10C3E000BC210020B821002000100140CCF5030042
:10C3F000C5F503000D4B1B6813F4804F03D00C4BA5
:10C400001B68032B00DC704700B585B0094BD3F8DF
:10C41000043502920191084A0092AE220749042095
:10C420000CF082FC05B05DF804FB00BFBC210020CD
:10C43000B821002000100140F4F50300C5F5030009
:10C4400010B50C460D2001F0CFFA207010BD000091
:10C4500010B582B00C460D4B1B6813F4804F03D00F
:10C460000B4B1B68032B05DC21460D2001F0E8FA7D
:10C4700002B010BD074BD3F804350191064A009273
:10C480009422064904200CF04FFCEDE7BC2100206B
:10C49000B8210020001001401CF60300C5F5030080
:10C4A00000B583B00F4B1B6813F4804F03D00E4BC5
:10C4B0001B68032B0BDC1EF081FB0322C8210F201D
:10C4C00001F02AFB0CF046FD03B05DF804FB074BBE
:10C4D000D3F80435064A0092D222064904200CF013
:10C4E00023FCE8E7BC210020B82100200010014017
:10C4F00034F60300C5F5030010B582B0441C374B79
:10C500001B6813F4804F03D0354B1B68032B18DCDA
:10C51000012C22D0042C42D0304B1B6813F4804FE6
:10C5200030D02F4B1B68032B2CDD2E4BD3F804355A
:10C530002D4A00924FF488722C4904200CF0F4FB31
:10C5400020E0284BD3F804350194294A0092EE22CA
:10C55000264904200CF0E8FBDAE7204B1B6813F4B3
:10C56000804F03D01E4B1B68032B0DDC0D2001F008
:10C570003BFA80F00101C9B20D2001F061FA1D48BB
:10C5800000F05AFC02B010BD164BD3F804351A4A1D
:10C590000092F622154904200CF0C6FBE6E70CF0E9
:10C5A0006BFCA0B90D4B1B6813F4804FEAD00C4B09
:10C5B0001B68032BE6DD0B4BD3F804350F4A0092C2
:10C5C0004FF48572094904200CF0AEFBDAE70EF057
:10C5D0002BFA0CF045FCFFF763FFD3E7BC210020EA
:10C5E000B8210020001001404CF80300C5F50300FD
:10C5F00050F60300701F002064F6030074F6030079
:10C6000000B583B03138032814D90D4B1B6813F4DF
:10C61000804F11D00B4B1B68032B0DDD0A4BD3F859
:10C6200004350A4A00924FF48F72094904200CF035
:10C630007BFB01E0FFF760FF03B05DF804FB00BF88
:10C64000BC210020B8210020001001404CF803005C
:10C65000C5F5030008B50378232B00D008BDFFF70C
:10C660001FFFFBE730B58BB004AC0D4D0FCD0FC4F1
:10C6700095E8030084E803000A4B00934FF48073AD
:10C680000193094A029203930723084A694604A8C2
:10C6900001F0C6FF08B90BB030BD18F015F9FAE784
:10C6A00010F803007422002074230020A5C30100A9
:10C6B00000B58DB01EF03EFA2022002103A822F022
:10C6C00092F901238DF80D3007238DF80F300623E2
:10C6D0008DF81430244B0793244B0B93244903A863
:10C6E0000CF0CEFB034618B3002B32D00B2B2FD10E
:10C6F0001EF064FA1F4B1B6813F4804F03D01E4BCF
:10C700001B68032B18DC1B4B1B6813F4804F20D0D5
:10C71000194B1B68032B1CDD184BD3F80435184A42
:10C72000009240F26912174904200CF0FDFA10E063
:10C730001EF020FA0346D7E7104BD3F80435124A0F
:10C7400000924FF4B4720F4904200CF0EDFADAE7CE
:10C7500013B90DB05DF804FB0C4A4FF4B7711846DD
:10C7600018F0C0F8F5E700BF55C6010065C9010023
:10C7700018220020BC210020B82100200010014018
:10C78000FCF60300C5F50300ACF603005CF50300FE
:10C7900000B583B0FFF766FF1D4A05214FF4103046
:10C7A0000CF0A6FA1B4B1B6813F4804F03D01A4BF6
:10C7B0001B68032B13DC1FF0C1FBE0B901F0ECF99F
:10C7C000164801F01DFAE0B901F058FD01F08CFDAA
:10C7D00001F0B8FDFFF76CFF03B05DF804FB104BF0
:10C7E000D3F804350F4A009240F293120E49042008
:10C7F0000CF09AFADFE70D4A40F2951118F072F842
:10C80000DCE70A4A40F2991118F06CF8DCE700BF47
:10C81000D18C0200BC210020B8210020F9C4010005
:10C820000010014038F70300C5F503005CF5030074
:10C8300000B583B000213F4800F034FB002835D11B
:10C840003D4B1B6813F4804F03D03C4B1B68032BFC
:10C8500031DC00213A4800F0A5FB002839D1364BE5
:10C860001B6813F4804F03D0344B1B68032B35DC5B
:10C870000021344800F08CFE00283DD13249314877
:10C8800000F0B4FE00283CD12E492A4800F062FB9B
:10C8900000283BD1284B1B6813F4804F03D0274B53
:10C8A0001B68032B37DC03B05DF804FB274AB62175
:10C8B00018F018F8C4E7264BD3F804351D4A12883F
:10C8C0000192244A0092B722234904200CF02CFA4A
:10C8D000BFE71E4ABB2118F005F8C0E71C4BD3F890
:10C8E0000435174A128801921C4A0092BC221A4948
:10C8F00004200CF019FABBE7144ABF2117F0F2FF2D
:10C90000BCE7124AC02117F0EDFFBDE70F4AC12175
:10C9100017F0E8FFBEE70E4BD3F80435094A12883A
:10C9200001920F4A0092C2220B4904200CF0FCF93C
:10C93000B9E700BF701F0020BC210020B8210020F3
:10C940001C220020682000205C2000205CF50300F1
:10C950000010014068F70300C5F5030084F70300E9
:10C96000A0F7030000B583B00C4B1B6813F4804F95
:10C9700003D00B4B1B68032B04DCFFF759FF03B0FC
:10C980005DF804FB074BD3F80435074A009240F2E8
:10C990004912064904200CF0C7F9EEE7BC2100203B
:10C9A000B821002000100140BCF70300C5F50300CA
:10C9B00010B5044600210F2001F098F804EB840420
:10C9C00062003221032001F0A7F810BD08B50378FA
:10C9D0001D2B00D008BD044800F0A2FA0028F9D0B1
:10C9E00017F072FFF6E700BF701F002008B501F0D6
:10C9F000C5F808BD00B585B003A812F0D9FB0D4BF2
:10CA00001B6813F4804F03D00B4B1B68032B02DC15
:10CA100005B05DF804FB094BD3F80435BDF80C20D4
:10CA20000192074A009240F23312064904200CF0AA
:10CA30007BF9EDE7BC210020B82100200010014067
:10CA4000DCF70300C5F5030030B58BB06421254841
:10CA500000F06CFF244B1B788BB903AC234D0FCD3A
:10CA60000FC495E8070084E8070003A800F0F6FE6D
:10CA700038B11F4A40F2B71117F034FF01E0FFF759
:10CA8000B9FF02F0B1F901F0F3F81A4805F002FE1F
:10CA90000CF050FA98B9184B1B6813F4804F03D070
:10CAA000164B1B68032B10DC00210C2001F01EF834
:10CAB0000222C8210C2001F02FF80BB030BD0C4A27
:10CAC00040F2C31117F00EFFE5E70D4BD3F8043524
:10CAD0000C4A009240F2C5120B4904200CF024F9D4
:10CAE000E2E700BF01C601001822002028F8030079
:10CAF0005CF50300601F0020BC210020B82100204D
:10CB0000001001404CF80300C5F5030000B583B0E8
:10CB1000144B1B6813F4804F03D0134B1B68032B7B
:10CB200013DC01F0E1FB01F00DFCFFF763FF01F006
:10CB300025F800210F2000F0D9FF0422C8210F2082
:10CB400000F0EAFF03B05DF804FB084BD3F80435AE
:10CB5000074A00924FF49C72064904200CF0E4F856
:10CB6000DFE700BFBC210020B821002000100140F9
:10CB7000F4F70300C5F5030008B5FFF709FEFFF75A
:10CB800063FFFFF70DFCFCE730B583B004460023DC
:10CB900080F86C302D23836631B14A68C0F880205C
:10CBA0000B68036603B030BD00250195D0F8F03066
:10CBB000186B83685B6801AA29469847019B236626
:10CBC000C4F88050EEE708B5836B13B190F84810B5
:10CBD000984708BD08B59C3801F010FA08BD000060
:10CBE0002DE9F04184B004460F4615461E46A0F1DB
:10CBF000EC0850F8B03C0DF10F0140469847A4F105
:10CC0000A20214F8BC1C38461DF0DEFE50B9019695
:10CC1000029514F8A22C9DF80F309A4208D104B066
:10CC2000BDE8F081084A40F20F1117F05BFEEEE715
:10CC30009C3C204601F0E2F901A94046FFF7A4FF21
:10CC4000204601F0CDF9EAE790F9030008B5034664
:10CC5000084613F8A42C13F8BC1C1DF09DFE00B967
:10CC600008BD034A4FF4817117F03CFEF8E700BF9E
:10CC700090F9030030B583B004461546124B1B688B
:10CC800013F4804F03D0114B1B68032B11DCE36BB3
:10CC900004F148012046984794F848302B7094F8E6
:10CCA0004A306B7004F1500001F0B6F9686003B0CF
:10CCB00030BD074BD3F80435064A00928722064957
:10CCC00004200CF031F8E2E7BC210020B82100205C
:10CCD00000100140F8F90300ECF90300F0B585B04D
:10CCE000044615461F460A9E224B1B6813F4804FCC
:10CCF00003D0214B1B68032B1CDCE36B0DF10F01F0
:10CD000020469847297884F84A1094F830001DF09E
:10CD10001BFEE0B92A789DF80F309A421CD10025FD
:10CD200036B194F84830337094F84A3073707560B7
:10CD300005B0F0BD114BD3F8043512780192104ABA
:10CD400000929A220F4904200BF0EEFFD5E70E4A1D
:10CD5000A22117F0C7FDDDE739462046FFF714FF93
:10CD6000256E04F1500001F03BF9D4F8F00000F01A
:10CD700051FCD5E7BC210020B82100200010014063
:10CD800004FA0300ECF9030090F9030030B583B016
:10CD90000446A0F1500510F8082C10F8063C9A4201
:10CDA00018D114F8083C8DF8003014F8063C8DF8C2
:10CDB0000130002301936946A4F150001DF014FDD9
:10CDC00054F8103C23B114F8062C216A28469847E1
:10CDD00003B030BD00F8083C2846FFF7F4FEE0E75A
:10CDE00030B583B00446A0F1500510F8073C13B9E4
:10CDF00010F8063C4BB954F8103C23B114F8062C3B
:10CE0000216A2846984703B030BD00F8083C284600
:10CE1000FFF7D9FE0023009314F8083C8DF800308A
:10CE200014F8063C8DF80130236A019369462846C0
:10CE30001DF0DAFCDFE7000030B583B00446503067
:10CE400001F0DCF894F84850E36B04F14801204607
:10CE5000984794F8483084F84A308DF800308DF8BF
:10CE6000013000230193694620461DF0BDFC94F873
:10CE7000481094F830001DF067FD28B994F8483048
:10CE8000AB4207D103B030BD054A40F2371117F06D
:10CE900029FDF3E7D4F8F00000F0BCFBF2E700BF97
:10CEA00090F9030070B310B50446194BC362C36B0D
:10CEB0005BB3836B33B120461DF064FC034630B195
:10CEC000184610BD036C002BF5D10E23F8E704F1D2
:10CED00030001DF08DFD03460028F1D10D4BC4F844
:10CEE000EC30002323650C4A6265A3650B4BE365B8
:10CEF00004F15000C4F8D8000123636601F0B0F8D3
:10CF00000346DDE70E23184670470E23D8E700BF1F
:10CF100014FA03001CFA0300E1CD01008DCD0100DD
:10CF200010B582B004460DF1070190F830001DF0F5
:10CF300021FD30B99DF8071020461DF061FC02B0BC
:10CF400010BD034A40F2731117F0CCFCF2E700BFAA
:10CF500090F9030020B129B1C0F8F010002070470B
:10CF60000E2070470E20704708B51146007B1EF05A
:10CF7000F5F800B908BD024A4B2117F0B3FCF9E7F8
:10CF800028FA030008B511681960007B1EF0D2F87A
:10CF900000B908BD024A562117F0A4FCF9E700BF0A
:10CFA00028FA030060B110B50446064B83601EF0FA
:10CFB0000DF800B110BD04F10C001EF0E1F8F9E726
:10CFC0000E20704790FA03005038704710B586B0B5
:10CFD000FFF7FAFF0446154B1B6813F4804F03D08C
:10CFE000134B1B68042B0BDC0023A4F84830236C84
:10CFF00023B1B4F84A20216F2046984706B010BDEF
:10D000000C4BD3F8043590F83420B0F84A10006F78
:10D010000490606F039002910192074A00924FF4CE
:10D02000C672064905200BF07FFEDDE7BC2100201B
:10D03000B82100200010014000FB0300F4FA0300B7
:10D0400000B583B0FFF7C0FF0D4B1B6813F4804F92
:10D0500003D00C4B1B68042B02DC03B05DF804FB0F
:10D06000094BD3F8043590F834200192074A009216
:10D0700040F28312064905200BF056FEEDE700BF93
:10D08000BC210020B82100200010014044FB030017
:10D09000F4FA030000B585B08DF80410B0F84830FC
:10D0A000ADF80630B0F84A30ADF80830039201A967
:10D0B00004301EF091FA05B05DF804FB10B584B0A1
:10D0C000FFF782FF0446B0F84A20A0F8482000236A
:10D0D000A0F84A30134B1B6813F4804F03D0124B57
:10D0E0001B68042B0DDC236C23B1B4F84A20216F9C
:10D0F00020469847226F00212046FFF7CBFF04B05F
:10D1000010BD0A4BD3F8043590F834100292019107
:10D11000074A00924FF4D272064905200BF004FE34
:10D12000E1E700BFBC210020B82100200010014031
:10D1300060FB0300F4FA030070B138B50C460546F5
:10D140003C301EF0EDFB00B138BD044BAB63214613
:10D1500028461EF04FFAF7E70E207047CCFC03007C
:10D1600038B5044680F86C20012343662D2383667E
:10D170000D4629B16B68C4F880302B68236638BD32
:10D18000784601F0C3F9F5E72DE9F0418AB015467C
:10D190001F46109E0446E0B1DAB1B4F84820298851
:10D1A0008A421AD1002246B13270B4F848307380F6
:10D1B000B4F84A30B380236EB360424B1B6813F45B
:10D1C000804F03D0404B1B68032B67DC0AB0BDE8DF
:10D1D000F081784601F09AF9DFE70DF11B0294F82F
:10D1E0003C001EF061FB8046002855D100230893C7
:10D1F0000993D7B1002239462046FFF7B1FF2B88AB
:10D20000A4F84A30D4F8EC30434520D82D4B1B68A5
:10D2100013F4804F03D02C4B1B68042B26DC04F145
:10D22000500000F0DDFE0022BDE7236B9B685B68C9
:10D230004BB1206B83685B6807AA00219847079B66
:10D24000089308AFD6E7784601F060F9F1E708F1F6
:10D250003A0354F8230003685F68236ED4F88020F3
:10D260009DF81B10B84708F10108CBE7174BD3F81E
:10D2700004352A88216E0491D4F8801003919DF81A
:10D280001B1002910192124A009240F22B12114996
:10D2900005200BF049FDC2E7022284E70B4BD3F8CF
:10D2A0000435B4F84810B4F84A0003900291019292
:10D2B000094A00924FF49F72064904200BF034FD96
:10D2C00084E700BFBC210020B821002000100140ED
:10D2D00098FB0300F4FA0300D0FB030070B5064688
:10D2E0000D46002405E0094A622117F0FBFA0235D9
:10D2F00001340F2C08D82A46E1B296F83C001EF003
:10D30000DBFA0028F3D0EEE770BD00BF98FA030007
:10D3100030B583B014460546A0B19AB100232370FE
:10D32000B5F848306380211D2846FFF7D7FF0E4B24
:10D330001B6813F4804F03D00C4B1B68032B05DCD8
:10D3400003B030BD784601F0E1F8E7E7084BD3F8C9
:10D35000043562880192074A0092F82206490420A7
:10D360000BF0E2FCECE700BFBC210020B82100205C
:10D370000010014004FC0300F4FA030030B587B04C
:10D3800014460546E0B1DAB100232370B5F8483001
:10D390006380B5F84A30A38095F87C30022B13D116
:10D3A0002B6F0BB14FF0FF33A360144B1B6813F4CA
:10D3B000804F03D0124B1B68032B0BDC07B030BD32
:10D3C000784601F0A3F8DFE705F1500000F024FEF5
:10D3D000A060EAE70B4BD3F804356288A188686F38
:10D3E0000490A068039002910192074A0092E22201
:10D3F000064904200BF098FCE0E700BFBC210020A8
:10D40000B82100200010014028FC0300F4FA0300BA
:10D41000F0B587B016461D460446E0B1DAB10DF10D
:10D420001702318894F83C001EF060FA074620BBD2
:10D43000B4F8482033889A4203D0B4F84A20934283
:10D4400017D104F1500000F0D9FD0023A4F84A30B0
:10D45000A4F848300DE0784601F058F8DFE707F10E
:10D460003A0354F8230003689B689DF81710984707
:10D470000137D4F8EC30BB42F1D845B100232B7012
:10D48000B4F848306B80291D2046FFF727FF0E4B6C
:10D490001B6813F4804F03D00C4B1B68032B01DC7B
:10D4A00007B0F0BD0A4BD3F80435B4F84A20B4F8FD
:10D4B000481002910192074A0092C32206490420B3
:10D4C0000BF032FCECE700BFBC210020B8210020AB
:10D4D0000010014070FC0300F4FA0300F0B587B0BF
:10D4E00015461C46074628B322B30DF117022988BA
:10D4F00097F83C001EF0B4F9064650BB2B88A7F8FD
:10D500004830D7F8EC30B34218D800253CB125702C
:10D51000B7F848306380211D3846FFF7DFFE174B10
:10D520001B6813F4804F03D0154B1B68032B12DCD0
:10D5300007B0F0BD784600F0E9FFD6E706F13A0300
:10D5400057F8230003681B689DF8171098470136A9
:10D55000D7E70125DAE70B4BD3F80435B7F84A20B3
:10D56000B7F84810039102920195074A0092982259
:10D57000064904200BF0D8FBDAE700BFBC210020ED
:10D58000B82100200010014098FC0300F4FA0300C9
:10D5900000B310B50446036CFBB1FFF7CDFD0346A5
:10D5A00008B1184610BD0023A4F848300C4A226583
:10D5B0000C4A6265A3650C4BE36504F15000C4F8A6
:10D5C000D80000F04DFD03460028EAD10022C4F83F
:10D5D000EC20E6E70E23184670470E23E1E700BF74
:10D5E00041D00100CDCF0100BDD00100034658B1AC
:10D5F00061B1D0F8EC0058B900F13A0243F82210BA
:10D60000421CC3F8EC2070470E2070470E20704774
:10D61000042070470023A0F84830704769DF704746
:10D6200003781F2B00D07047014B01221A70FAE7D4
:10D63000772400203A4B1B78002B70D000B587B0C0
:10D64000012804D0032863D007B05DF804FB002351
:10D65000019301A9012016F03BFD002842D10023CF
:10D6600003930122114662F307118DF80C108DF817
:10D670000D200493ADF814301023ADF81630019A44
:10D6800003A94120FFF7CAFF78BB01A816F076FD79
:10D6900070BB244B1B6803B198470123029302A976
:10D6A0000DF1020012F036FB28BBBDF8020011F0AC
:10D6B00049FF0DF1010112F0F7F8F8B90CF004FF81
:10D6C0009DF8011000200DF0F9F9D0B904F074FFB5
:10D6D000D8B9134B00221A70124B5B68002BB3D0E1
:10D6E0009847B1E717F0F0F8B9E717F0EDF8CCE795
:10D6F00017F0EAF8CDE717F0E7F8D6E717F0E4F807
:10D70000DCE7784600F002FFE0E717F0DDF8E0E73D
:10D7100016F0AEFD002897D017F0D6F894E77047C2
:10D72000762400207824002008B5064B01221A70C8
:10D73000054804F0AFFF04F091FF00B908BD17F0F1
:10D74000C3F8FBE7762400205821002008B50378B1
:10D750001C2B00D008BD074B1B78002BFAD016F00D
:10D76000CBFD18B9044804F099FFF3E717F0ACF8C3
:10D77000F8E700BF762400205821002008B5094BA7
:10D780001B7863B90849094817F058FD40B90323CD
:10D79000002207494969074817F06CFD00E008209E
:10D7A00008BD00BF7724002094240020002800201A
:10D7B00078240020CC26002008B50378023B082BF3
:10D7C0003FD8DFE803F01C05113E3E2C3E3E3600FC
:10D7D0001E4B9B68002B34D0007A002831D01C4AA5
:10D7E0000121117098472CE0184BDB684BB3184AA5
:10D7F000127832B3164A00211170984721E0154B78
:10D800001B784BB9114B1B691BB1114A00211170D8
:10D810009847FFF7B3FF14E0FFF786FF11E01022EF
:10D820000A4B99690C4817F0AFFD50B117F04CF84E
:10D8300007E08168C0680BF0A3FA18B9054B012214
:10D840001A7008BD17F040F8F8E700BF78240020F0
:10D850007424002075240020CC26002070B586B0EA
:10D860000446214A03AB07CA03C323F8022B120C58
:10D870001A701E4E35460FCC0FC594E8070085E898
:10D880000700B369002B2DD0194B009303AB194A45
:10D8900019491A4817F090FC034610B1184606B013
:10D8A00070BD174819F0EAF90146144817F0B0FCAA
:10D8B00003460028F2D1134819F05AFB034600280A
:10D8C000ECD1104819F08AFB01460C4817F0A0FC77
:10D8D00003460028E2D10C4804F0DCFEFFF74EFFBF
:10D8E0000346DBE70723D9E7E0FC030078240020A8
:10D8F000B9D701009424002000280020CC26002065
:10D90000B42400207C2600206421002008B5064BAA
:10D910001B681BB906E0044B1B68984714F050FDC8
:10D920000028F8DA08BD00BF4028002010B50C46DA
:10D93000144B1860144A012114481EF039FBA0B999
:10D94000610CE00341F26F7200238B4208BF8242F8
:10D9500010D24FF47A72002320F062FE01460022BA
:10D960000B481EF03BFB38B910BD0A4A4A2116F09D
:10D97000B9FFE5E70521F2E7064A4B2116F0B2FFB1
:10D98000F2E700BF402800200DD9010054FD03003C
:10D9900044280020ECFC030070B50546002403E099
:10D9A0000D4A93420ED80134032C14D80B4B1B5D47
:10D9B000AB42F8D10A4B1E6805F0B8F9331AEFD51F
:10D9C000831BEDE705F0B2F9054B1860054B1B68AA
:10D9D00020469847E7E770BD801A060060FD030007
:10D9E000902800208C2800201F280CD900F01F0050
:10D9F000064BD3F8043523FA00F010F0010F0CBFEA
:10DA00000120002070474FF0A043F2E700030050D0
:10DA100070B505460024264606E0084B185DFFF762
:10DA2000E3FFA04006430134032C04D80123A340A4
:10DA30002B42F8D0F1E7304670BD00BF64FD030013
:10DA400008B511B115F042FE08BD15F02FFEFBE739
:10DA500070B5054600240BE0094B1E5D3046FFF70C
:10DA6000C3FF80F00101C9B23046FFF7E9FF01347E
:10DA7000032C04D80123A3402B42F8D0ECE770BD5F
:10DA800064FD030010B5144B1B684BB1134B1868B1
:10DA9000FFF7DEFF104B1C68013C1C6024B110BD79
:10DAA000002016F011FFF1E70D481EF0B9FA09E069
:10DAB0000C4B1968E14001F001010B4B185DFFF7B9
:10DAC000BFFF0134032CEAD80123A340034A1268A4
:10DAD0001342F6D0ECE700BF64280020682800203D
:10DAE0006C2800209428002064FD030070B50546D2
:10DAF0000E46002405E03146064B185DFFF7A0FFF7
:10DB00000134032C04D80123A3402B42F8D0F2E7C0
:10DB100070BD00BF64FD03003AB338B50C46134630
:10DB2000132900D838BD114A10605B00013B104A30
:10DB30001360FFF76DFF0F4B18600025610CE003C9
:10DB40004FF47A72002310F5FA70694120F068FDF5
:10DB500001462A4608481EF041FA0028E2D1012178
:10DB6000024B1868FFF7C2FFDCE770476828002007
:10DB700064280020942800206C28002008B5044860
:10DB80001EF04EFA0021034B1868FFF7AFFF08BDE7
:10DB90006C2800206828002010B582B015F002FD26
:10DBA00040B10024ADF804408DF8064001238DF803
:10DBB000053009E015F0A4FC0028F2D016F084FE30
:10DBC000EFE716F081FE0134032C07D801A9094BB9
:10DBD000185D15F0F1FC0028F5D0F2E7064A0121A6
:10DBE00006481EF0E5F908B902B010BD16F06CFE4B
:10DBF000FAE700BF64FD030085DA01005CFD030065
:10DC000060B310B582B0164A106015F0CBFC40B17D
:10DC1000144B1B68ADF804301B0C8DF80630002443
:10DC20000EE015F06DFC0028F2D016F04DFEEFE787
:10DC300016F04AFE01210C4B185D15F0D1FD0134A0
:10DC4000032C08D8094A01A9074B185D15F04EFDB1
:10DC50000028EFD0ECE7002002B010BD0E20704786
:10DC60008C28002058FD030060FD030099D90100B5
:10DC7000002800F082802DE9F04FD1B004463F4BE0
:10DC80001B6813F4804F03D03D4B1B68032B0BDC48
:10DC90003A4B1B6813F4804F03D0394B1B68032B9E
:10DCA0002ADC51B0BDE8F08F00230F2B0FD8E25CC7
:10DCB00034490D68100959002E5C0FA800F8136054
:10DCC00002F00F020131AA5C42540133EDE70FAAC2
:10DCD00000238DF85C3003F1804303F58833D3F8DB
:10DCE00004350292284A0192284A00924222284989
:10DCF00004200BF019F8CBE7264BD3F804350D932D
:10DD00002068020202F47F0242EA0062010A01F482
:10DD10007F4142EA010CA5882A0292B2E6883102CC
:10DD200089B2277A637A94F80AE094F80B8094F821
:10DD30000C9094F80DA094F80EB0E47B0B94CDF801
:10DD400028B0CDF824A0CDF82090CDF81C80CDF8D7
:10DD500018E00593049741EA1621039142EA15223F
:10DD600002924CEA106001900B4A00920D9B4322F4
:10DD7000074904200AF0D8FF93E77047BC21002030
:10DD8000B8210020C0210020D8FD0300ECFD0300D5
:10DD9000C4FD030000100140F4FD030008B5034B6F
:10DDA00053F820300846984708BD00BF34FE0300F2
:10DDB00008B5034B53F820300846984708BD00BF0C
:10DDC0004CFE030008B5836803B1984708BD006B9B
:10DDD000003818BF012070470369013B13F1030F9E
:10DDE00003D843691BB90020704700207047012009
:10DDF000704708B5024601218C300AF0CEF808BD04
:10DE000008B50A4600230B63022102F18C000AF0D8
:10DE1000C4F808BD90F82C30022B01D100207047C7
:10DE200070B5054638301CF0E8FF4B01420143EA6B
:10DE3000D064131A64EB0102940044EA93749E00C8
:10DE40002246331841EB0202D40044EA5374D9004D
:10DE5000C80B40EA4440E10B2A6A0023994208BFFC
:10DE6000904201D3012070BD0020FCE710B50446AC
:10DE7000002303630362703004F00CFF04F13800E8
:10DE80001CF0F7FF10BD10B5044638301CF0F1FF50
:10DE900000232362E3680BB12046984710BD38B5D4
:10DEA000044600F1200500F110030FCB85E80F00B8
:10DEB0002046FFF7E8FF38BD08B5FFF7E4FF08BDCF
:10DEC0002DE9F843044600F1380528461CF0D1FF3F
:10DED00004F1200604F110030FCB86E80F00636AFB
:10DEE00083EAE378A8EBE378002B4CD0216A4A015F
:10DEF000CB0E521A63F10003980040EA927096002C
:10DF0000761840F10007FB0043EA5673F20016460C
:10DF10001F46424600233046394620F081FB064624
:10DF20000F46A16A4A01CB0E521A63F10003980012
:10DF300040EA92704FEA820C1CEB010240F10003B0
:10DF4000D90041EA5271D000804689468F4208BF0D
:10DF5000864201D3B046B946B9F1000F08BFB8F503
:10DF60007A7F14D221220023C4E91023012384F8EC
:10DF7000383028461CF054FF18B963680BB12046AE
:10DF80009847BDE8F883784600F0C0FAAEE74FEA5C
:10DF9000C93141EA58414FEAC830064E064A0023CB
:10DFA00080194FF0000646EB010120F039FBC4E96F
:10DFB0001001DBE720A1070040420F0010B5044626
:10DFC00004F0B4FE236B4FF47A7101FB030104F1FA
:10DFD000700004F077FE23680BB12046984710BD0F
:10DFE00010B5044630B12246002104F18C0009F03E
:10DFF000D4FF10BD784600F089FAF4E710B5044666
:10E0000030B12246032104F18C0009F0C6FF10BD97
:10E01000784600F07BFAF4E770B50446E0B1256A73
:10E0200004F138001CF0E9FE4B01420143EAD064E0
:10E03000131A64EB0102940044EA93749E00224692
:10E04000331841EB0202D10041EA5371D800C30BEF
:10E0500043EA4143E81A70BD784600F057FADEE71C
:10E0600038B5044690B1C4F880400A4BA367A46455
:10E07000094BE36404F138001CF012FF0546074920
:10E0800004F18C0009F073FF284638BD784600F093
:10E090003DFAE8E701DE0100F3DD010084FE030044
:10E0A00072DF704773DF704774DF70472DE9F04708
:10E0B000A2B006460F469046314A02F104090025F7
:10E0C0005560D5602F480378C3EB431C2E4C644445
:10E0D00014602E49614491601F2191809181013328
:10E0E00003F0010303704FF03C0A5246294613A87F
:10E0F00020F079FC06238DF84F30ADF848600123FD
:10E100008DF84A30ADF85C3012AA1892ADF83C6038
:10E11000ADF8408011970DEB0A021D928DF8783012
:10E1200052462946684620F05EFC02238DF80030F6
:10E130004A46214613A815F0BDFE90B9104B03F1D5
:10E140000C029968684615F0B5FE68B9104A0C498A
:10E150001048FFF7A5FF082809D070B922B0BDE824
:10E16000F08716F0B1FBE9E716F0AEFBEEE7002210
:10E1700003490848FFF794FFEFE716F0A5FBEDE72A
:10E18000DC280020982800209C280020EC28002073
:10E190007421002070210020B0F5202F0AD2074BF7
:10E1A000A3FB0023DB0808B103B90123044A9381D0
:10E1B000916070474FF6FF73F5E700BFCDCCCCCC34
:10E1C0007421002008B50121054B1878FFF76AFF7C
:10E1D00018B9002005F0FEF908BD16F075FBF8E748
:10E1E0007021002008B5044B1878FFF75DFF00B9D7
:10E1F00008BD16F069FBFBE77021002076DF704751
:10E200007ADF70477CDF704769DF704708B516F02A
:10E210005BFB08BD08B504F045FA08BD00B583B046
:10E22000037823B1012B0BD003B05DF804FB3B2135
:10E230004088FFF7E3FF0028F6D016F045FBF3E730
:10E24000094B1B6813F4804FEED0084B1B68032B5F
:10E25000EADD074BD3F80435064A009268220649E6
:10E2600004200AF061FDDFE7BC210020B821002076
:10E27000001001400CFF0300F0FE030000B585B064
:10E2800015F0F6FF18BB0023039303A9012015F036
:10E290001FFFF8B9002300930122114662F3071112
:10E2A0008DF800108DF801200193ADF8083010238F
:10E2B000ADF80A30039A69464120FFF7A5FF60B91F
:10E2C00003A815F05BFF58B905B05DF804FB16F024
:10E2D000FBFAD8E716F0F8FADCE716F0F5FAEFE704
:10E2E00016F0F2FAF0E7000000B585B09DF80C30AA
:10E2F000012262F3030362F307138DF80C3010223E
:10E300000F4903A8FFF77EFF98B97823ADF80430D2
:10E31000C823ADF806300023ADF808304FF4C873B9
:10E32000ADF80A3001A8FFF76BFF28B905B05DF81A
:10E3300004FB16F0C9FAE8E716F0C6FAF6E700BFE4
:10E3400038FF030000B58BB07823ADF80430C82344
:10E35000ADF806300023ADF808304FF4C872ADF8C0
:10E360000A200693079301AA039240F6CD42049235
:10E370004FF48032059203228DF81820ADF81A3040
:10E380008DF81C30064B0893064B099303A816F032
:10E3900055F910B90BB05DF804FB16F095FAF9E7E2
:10E3A0001DE201000DE201000620704700B587B0B4
:10E3B00044F20103984262D01BD8012836D041F2C2
:10E3C0000103984276D1474B1B6813F4804F36D037
:10E3D000454B1B68002B32DD444BD3F804350292C9
:10E3E0000191434A00926322424901200AF09CFCB9
:10E3F00025E044F2020398425CD13A4B1B6813F4C7
:10E40000804F1CD0384B1B68002B18DD374BD3F8DE
:10E41000043510680390526802920191364A0092C6
:10E420006922344901200AF07FFC08E02D4B1B686B
:10E4300013F4804F03D02C4B1B68002B12DC4FF0E1
:10E44000A0434FF4F032C3F81825C3F80C25EFF3BE
:10E45000108372B64DF6AD6C284B1B78002B3ED066
:10E4600030BFF9E7214BD3F8043502920191244AD9
:10E47000009260221F4901200AF056FCDFE7194B89
:10E480001B6813F4804FDAD0174B1B68002BD6DDC6
:10E49000164BD3F80435106804905068039002912D
:10E4A00092680192174A00927322124901200AF0E1
:10E4B0003BFCC4E70B4B1B6813F4804FBFD00A4BE7
:10E4C0001B68002BBBDD094BD3F8043501910E4AC4
:10E4D00000927B22074901200AF026FCAFE707B033
:10E4E0005DF804FBBC210020B82100200010014091
:10E4F000D8FF0300A8FF0300FCFF03008C210020CD
:10E50000BCFF03001C0004004000040000B583B001
:10E51000014600230093054B01936A4644F2020032
:10E52000FFF744FF03B05DF804FB00BF3C000400AC
:10E5300010B50446C0B200F0D9F8204610BD000066
:10E5400000B583B00378012B06D0022B38D0002B06
:10E5500045D003B05DF804FB037A2BB901222949A9
:10E56000294800F041FBF4E743681978274800F098
:10E57000E2FB90B101228DF800200190244B1B6832
:10E5800068469847214A9168D3685B1A92889A42F4
:10E5900010D2204B01221A70DBE71C4B9A68DB6813
:10E5A0009A42EFD000238DF80030194B1B68684663
:10E5B0009847E7E701221349134800F015FBC8E725
:10E5C00002238DF80030C368019301220D490E48E3
:10E5D00000F00AFB0E4B1B6868469847B9E70E49E6
:10E5E0000E4800F0BCFB38B103238DF80030084B17
:10E5F0001B6868469847ACE701220749024800F0CB
:10E600009FFAA6E7542900209421002030290020F9
:10E610002C290020402900205829002044290020CE
:10E62000F0B589B01E46284B1A6000294AD004462E
:10E630000D468A880968254800F06AFB034610B138
:10E64000184609B0F0BDAA89A968214800F060FB0E
:10E6500003460028F4D16D461E4F0FCF0FC597E833
:10E660000F0085E80F0063690693237C003B18BF09
:10E6700001238DF814308DF81C60637C03B30E23E6
:10E680008DF81530E3680293A36803932368019320
:10E6900063680093104A6946104800F065F8034625
:10E6A0000028CDD10E4A002111702268B2F1FF3F3F
:10E6B000C6D001220B490C4800F096FA0346BFE78A
:10E6C0000023DDE70723BBE72C29002030290020A9
:10E6D000442900205C00040041E501009021002055
:10E6E00040290020542900209421002010B5014623
:10E6F0000C4800F020FB044608B1204610BD0A4833
:10E7000000F010FA0028F8D10849064800F027FB6D
:10E710000028F2D101220549034800F011FA04460D
:10E72000EBE700BF44290020942100205829002055
:10E7300000B585B003788DF8003043680193836895
:10E740008DF80830C3680393054B53F82130054A10
:10E7500052F821106846984705B05DF804FB00BFE9
:10E76000642900205C290020F0B589B00C461646CB
:10E77000074617F804CB0C4B43F82C200A690B4BC7
:10E7800043F82C206D460FCC0FC594E80F0085E8A8
:10E790000F00CDF810C006B1054E32466946384626
:10E7A00000F08CF909B0F0BD642900205C2900203C
:10E7B00031E7010010B40B68B3F1FF3F14D01F2BF9
:10E7C00037D903F01F033B4C012202FA03F3C4F8CC
:10E7D00008350B681F2B2FD903F01F03354A03F5AB
:10E7E000E073032442F823404B68B3F1FF3F09D0A4
:10E7F0001F2B24D903F01F032E4A03F5E0730024D6
:10E8000042F8234003688A69C3F8242502684B7DD7
:10E810000C7D2343C2F86C3503680C684A68C3F862
:10E820000C45C3F814250B7D012B0BD05DF8044B70
:10E8300070474FF0A044C7E74FF0A042CFE74FF03A
:10E84000A042DAE78B68B3F1FF3F0CD01F2B03D94E
:10E8500003F01F03174A01E04FF0A04203F5E073F5
:10E86000002442F82340CB68B3F1FF3F14D01F2BA4
:10E870001AD903F01F030F4C012202FA03F3C4F864
:10E880000835CB681F2B12D903F01F03094A03F583
:10E89000E073032442F823400368C8688A68C3F819
:10E8A0000805C3F81025C1E74FF0A044E4E74FF096
:10E8B000A042ECE70003005086B002680023C2F8D3
:10E8C0001031D2F810210592059A0268C2F8203161
:10E8D000D2F820210492049A0268C2F82431D2F8B6
:10E8E00024210392039A0268C2F84431D2F84421E9
:10E8F0000292029A0268C2F85831D2F85831019354
:10E90000019B0368144AC3F8042303681A0B43F3FA
:10E910000733002B18DB4901C9B203F1604303F54B
:10E92000614383F8001303681A0B43F30733002B8A
:10E9300008DB02F01F025B09012101FA02F207491C
:10E9400041F8232006B0704702F00F024901C9B216
:10E95000034B9954E7E700BF1003420000E100E0D9
:10E9600014ED00E000B585B001238DF80030029170
:10E970000192436801686846984705B05DF804FB5A
:10E9800000B585B000238DF80030029182680192B5
:10E990004361436801686846984705B05DF804FB29
:10E9A00030B589B004460D46D0F82431002B44D050
:10E9B0000023C0F82431D0F824210092009A0222CA
:10E9C0008DF81020D0F88024C0F880240792D0F869
:10E9D0003C250692CA6805928B61CB614B68096839
:10E9E00004A89847D4F844314BB10023C4F844310B
:10E9F000D4F844310293029BAB69002B47D1D4F881
:10EA000020315BB10023C4F82031D4F820310393C6
:10EA1000039B0123E3606B69002B42D1D4F858318A
:10EA20004BB10023C4F85831D4F858310493049BF7
:10EA30006B69002B3BD109B030BDD0F81031002BF1
:10EA4000D0D00023C0F81031D0F810310193019BD1
:10EA5000D0F83C15AB698B42C4D1EB6983B1EA684D
:10EA6000D0F8003223F02003C0F80032EB69AB612C
:10EA70002B69EB600023EB612846FFF773FFB1E7DA
:10EA80000023AB61EA682846FFF76CFFAAE7002382
:10EA9000AB61EB61D4F83C15EA682846FFF762FFEA
:10EAA000ADE7D4F84C152846FFF76AFFB6E7D4F86F
:10EAB0004C152846FFF764FFBDE70000F8B5174680
:10EAC000047904EBC402164B03EB820393F8203065
:10EAD0001BBB05460E46FFF76DFE114B04EBC4024F
:10EAE00003EB82014F60316943F822101FB1317F7F
:10EAF0002846FFF7E1FE2B680822C3F80025084AE4
:10EB000004EBC40302EB830300209861D8615861D1
:10EB10001C46012384F82030F8BD0820FCE700BF24
:10EB20006C290020037903EBC303044A02EB83033F
:10EB30005869003818BF0120704700BF6C290020B9
:10EB4000F0B583B0067901F06043B3F1005F02D005
:10EB5000102003B0F0BD04460D461746FFF7E2FF54
:10EB600000283CD106EBC6031E4A02EB83035F611B
:10EB70009D6022680021C2F82011D2F82021019264
:10EB8000019A2268C2F85811D2F858210092009ACE
:10EB900022685969C2F84455C2F848152268012113
:10EBA00091605B680BB10020D3E72368D3F8202184
:10EBB000D3F858010AB90028F7D070B90122DA60F9
:10EBC0002368D3F85831002BFAD006EBC603054A68
:10EBD00002EB830300225A61BBE70F20F5E7112007
:10EBE000B7E700BF6C29002070B483B003460079FA
:10EBF00001F06044B4F1005F7BD100EBC0043E4DF6
:10EC000005EB8404666826B11C684FF40475C4F8EB
:10EC1000085300EBC004384D05EB8404A469B4B17B
:10EC200000EBC00405EB8404E46944B9324C00EB0A
:10EC3000C00504EB85052961EA61012010E026B1D9
:10EC40001B684FF40472C3F8042311202EE02A4CF1
:10EC500000EBC00504EB8505AA61E9600020E861CE
:10EC60001C680025C4F81051D4F810410194019C8F
:10EC70001C68C4F84451D4F844410094009C1C68BA
:10EC8000C4F83415C4F8382598B91A680121116000
:10EC90001D7905EBC501184A02EB8102526882B169
:10ECA0001B684FF40472C3F80423002003B070BC47
:10ECB00070471968D1F8002242F02002C1F8002202
:10ECC000E6E71A68D2F81041D2F84411D2F82401CC
:10ECD00014B909B90028F4D005EBC505064B03EBC0
:10ECE00085050023AB6100B103200029DED00F2091
:10ECF000DCE71020DAE700BF6C29002008B50249E4
:10ED00000248FFF74DFE08BD6C290020002000409E
:10ED10000B4651B15AB1511E0A420AD1036081809B
:10ED200000238360C360184670470E207047092097
:10ED30007047092070478268C3689B1A82889A428C
:10ED400001D20420704710B40368C468224099546B
:10ED5000C3680133C36000205DF8044B70478268CC
:10ED6000C3689A420DD010B4026883688488234037
:10ED7000D35C0B7083680133836000205DF8044B23
:10ED8000704705207047000010B40346044C00682B
:10ED900059689A68DB680FC45DF8044B704700BF80
:10EDA000902900200D4B0E4A92E8030083E80300EF
:10EDB00003F108020B4903C982E8030093F9062016
:10EDC00002F00F0242F040029A7193F9082002F01B
:10EDD0003F0242F080021A72704700BF9029002063
:10EDE00060000010A4000010004870479029002027
:10EDF00000231F2B09D8074901EBC30000224280E2
:10EE0000426001F833200133F3E7034B00221A601C
:10EE1000704700BFA0290020A02A002030B405467A
:10EE20000F4B1B6800240AE01F230E4A12F8330020
:10EE3000A0B102EBC3025288AA4207D001341F2CB2
:10EE40000BD85A1E002BEFD01346EEE7054A02EB13
:10EE5000C30252688A42F1D100E0002030BC704702
:10EE6000A02A0020A029002030B40A4A13680A4CC6
:10EE700004EBC30568806960012104F833100B447A
:10EE80001360202B01D030BC7047134600221A605B
:10EE9000F9E700BFA02A0020A0290020F0B4144602
:10EEA0001D46002300E00133072B0ED81A01084944
:10EEB0008A5A8242F7D101EB0312D2E90267AF42CC
:10EEC00008BFA642EFD1012000E00020F0BC70474F
:10EED000A82A002030B4C1698269C3880D0A0C06D3
:10EEE000C2F30C01994216D25B1A1344A3F50053E6
:10EEF000E41845F10005094A1368591C116003F034
:10EF00000703808A064A190102EB03135052C3E932
:10EF1000024530BC70475B1A1344E9E7282B0020F8
:10EF2000A82A0020C37D002B42D0C3780A7802F0C3
:10EF3000800203F07F0313430B7002780B7803F019
:10EF40007F0343EAC2130B700378002B41D030B427
:10EF50008378082B14BF002201224B7803F07F0333
:10EF600043EAC2134B70C58803F08003C5F38614CF
:10EF700023434B708A7802F0030242EA8502D2B240
:10EF80008A70057A02F0FC02C5F3C10422438A703C
:10EF9000CB7803F01F0343EA4513DBB2CB70427A10
:10EFA00003F0E00302F01F021343CB7030BC704744
:10EFB000C3780A7802F0BF029B0103F040031343B9
:10EFC0000B70027903F0C00302F03F0213430B7091
:10EFD000B3E770470023032B31D810B402E00133AC
:10EFE000032B28D8C3EBC302164C04EB021292F891
:10EFF0004820012AF3D1C3EBC30204EB0212948A26
:10F00000C2899442EBD1C3EBC3020E4C04EB021253
:10F01000D2888A42E3D1C3EBC30204EB0212B2F8F6
:10F02000582012B1848AA242D9D1C3EBC303054848
:10F0300000EB031000E000205DF8044B7047002057
:10F04000704700BF5C2B0020002300E00133032B3E
:10F0500016D8C3EBC3020B4901EB021292F8482009
:10F06000022AF3D1C3EBC30201EB0212918A828A16
:10F070009142EBD1C3EBC303024800EB031070478E
:10F08000002070475C2B002008B90420704708203E
:10F09000704700000021164B1B688B4226D90023C5
:10F0A000144A02EBC10252689A421DD910B4114AA7
:10F0B00052F8312002EBC30412F8332082420DD003
:10F0C00001330C4A02EBC10252689A42EFD8013177
:10F0D000074B1B688B4205D90023F2E760685DF897
:10F0E000044B70470020FAE70131D4E70020704755
:10F0F0002C2B0020302B002070B58CB006460D461E
:10F1000014462C22002101A81FF06DFC0F238DF85E
:10F110000430ADF808604FF0000365F300038DF88C
:10F120000A308DF80B4001A801F09AFA0CB070BDBE
:10F1300030B58DB005460C462C22002101A81FF0E9
:10F1400052FC10238DF8043002958DF80C4001A874
:10F1500001F086FA0DB030BD00B58DB010B913F1D5
:10F16000020F06D1074B186804F062FC0DB05DF881
:10F1700004FB01218DF804100293039201A801F011
:10F180006FFAEFE7402B0020F8B5069C002960D00D
:10F190001E460F4615685168D2F808C0D368E5606E
:10F1A0002161C4F814C0A36115695169E561216248
:10F1B000002363700278D20922705AB30423BB4241
:10F1C00049D8E17D41B3037803F07F03E370002366
:10F1D000A3709AB143789B0103F4FE53827843EA0B
:10F1E0009203E3808378DB0003F01803C27843EADC
:10F1F00052132372C37803F01F0363720023636208
:10F200003378032B21D83278144B53F82230E36241
:10F210000020F8BD0123D2E70178C1F38011E1702D
:10F22000017801F03F01217142B190F90130002BCA
:10F2300002DB0423A370CCE70823FBE70421A170C1
:10F240000B44BB42C5D90920E3E77846FFF75EF9D6
:10F25000D9E70920DDE70920DBE700BF2802040029
:10F2600070B50C461D4603789BB104263244A2605B
:10F2700000F10C032360836A6360C36AE3600023C8
:10F280002374204604F046FF10B963691E442E60C3
:10F2900070BD0126EAE72DE9F0418EB00D46164615
:10F2A0001C46804600282DD0002D2FD0002C31D0B8
:10F2B000636A0233059304F10C00E378002B2DD030
:10F2C0000121A27801AF3B46082A14BF0022012287
:10F2D00004F0F3FC0697CDF81C80B2B2ADF8202004
:10F2E0000B9515440C95A3788DF83430237B022BB5
:10F2F00016D00023ADF8283005A804F0D6FC0EB0D7
:10F30000BDE8F0817846FFF701F9CDE77846FFF7D1
:10F31000FDF8CBE77846FFF7F9F8C9E70221D0E717
:10F3200023692BB1236909931023ADF82830E3E753
:10F330007846FFF7EBF8F5E72DE9F04188B0044691
:10F340000D46C37D002B3CD0082605FB06F8637AEA
:10F35000AB4238D0257201AB324602A92046FFF7F6
:10F360007FFF074648BB4DB994F8533033B9A369C2
:10F37000C3F30C03E380012384F85330E37D7BB9AE
:10F3800094F8523063B91DBBE06EB4F84A10A2780D
:10F3900023468A1A0146FFF77EFF012384F8523084
:10F3A00007992046FFF7BEFDE16E324641440198C1
:10F3B0001FF0F0FA02A804F0D3FE384608B0BDE80A
:10F3C000F0810C26C1E7B4F84A60A6EB0806C1E755
:10F3D0007846FFF79BF8D7E770B505460E4609B1AA
:10F3E00000230B6095F85040002104E0631C85F871
:10F3F00050300134E4B26B7AA34210D3EA6C01239B
:10F40000A3401A42F5D121462846FFF795FF014651
:10F4100028B9002EEAD0336801333360E6E70846A6
:10F4200070BDF0B589B004460E46154683789A182B
:10F43000C37D63B10B239A4221D801AB02A92046B8
:10F44000FFF70EFF074620B1384609B0F0BD0F2385
:10F45000F1E707992046FFF765FDE37D43B12A46B2
:10F46000314601981FF096FA02A804F079FEEBE706
:10F4700023462A4601993046FFF70DFFF4E7092796
:10F48000E2E7000010B5044690F84830012B0CD19B
:10F4900003F04CFC237B012B0BD0094BD9680144B2
:10F4A00004F1300003F00EFC10BD7846FFF72EF893
:10F4B000EEE7A17D024BDA681B6903FB0121EEE751
:10F4C000442B002030B583B0002403E02846FFF72A
:10F4D000D9FF0134032C18D8C4EBC4030C4A02EB47
:10F4E000031393F84830012BF3D100230193C4EBAD
:10F4F000C40502EB051501A92846FFF76DFF042896
:10F50000E4D0019B002BE4D0E0E703B030BD00BFA6
:10F510005C2B002038B5044690F84830022B09D106
:10F52000064B1D6803F002FC411904F1300003F0A2
:10F53000C9FB38BD7846FEF7E9FFF1E7442B002010
:10F5400038B5044690F84830022B10D10A4B5D7D47
:10F550005A689B6803FB052503F0E8FB411904F199
:10F56000500003F0AFFB012384F8683038BD7846C3
:10F57000FEF7CCFFEAE700BF442B002038B5044675
:10F580000B460978C1700021416299680B2903D8A4
:10F59000197B49B3012100E0012121700020A070F6
:10F5A00029B199680731C9080139617220720121B6
:10F5B000E17504F10C055969186985E80300D989DA
:10F5C000A18299692162197FA1751B6AE362A26217
:10F5D00020461EF0D9F930B1237B012B06D0E36A17
:10F5E00043F02003E36238BD0021D6E72023E36225
:10F5F000F9E710B50446808A02F09CFE01281CD170
:10F60000237BE3B194F91620002A1ADBE27D4AB18C
:10F61000022B18D094F90330002B16DBA378B3B972
:10F6200000200BE0E2780AB9012B12D1237893B9BC
:10F63000A378042B11D1002000E0102010BD102071
:10F64000FCE70720FAE71020F8E70720F6E7072095
:10F65000F4E70720F2E70020F0E70720EEE738B5EF
:10F66000044603784BB1C388C2698169808A06F079
:10F67000D5FE054645B9284638BDC2698169808AEC
:10F6800006F0C6FE0546F5E7E169002201F001013A
:10F69000A08AFFF731FDEEE72DE9F04780460E46E0
:10F6A00017464B1EDBB2012B0FD8B7F5C07F10D821
:10F6B0000024032C1AD8C4EBC403314A02EB031311
:10F6C00093F848304BB10134F3E77846FEF71EFF5C
:10F6D000EBE77846FEF71AFFEAE7C4EBC40502EB56
:10F6E0000515384609F0EBFAE86600E000255DB341
:10F6F000EB6E002B42D043462C4608F1300ED3F877
:10F7000000C058689968DA68C4F800C06060A160F9
:10F71000E260103310347345F1D10023EB64A5F897
:10F720004A70012E13D06FF00103AB62002385F8FD
:10F730006830144BAB652D66134BAB632D64012011
:10F7400002F082FA85F848602846BDE8F0870F4B42
:10F750001B7D85F85130002385F8523085F85330F1
:10F7600085F85030D8F828206A65A5F858306FF031
:10F770000103AB62064BAB632D64E0E71D46E3E794
:10F780005C2B0020EF010200FDFA0100442B002059
:10F7900049FB010000B585B000228DF80F20A0B113
:10F7A0000B46024602320A600DF10F01184604F0C2
:10F7B00080FA9DF80F3043B10C4B1B6813F0040F17
:10F7C00003D00B4B1B68032B04DC9DF80F0005B026
:10F7D0005DF804FB074BD3F80435074A009240F26A
:10F7E00015420649042009F09FFAEEE7BC210020EB
:10F7F000B821002000100140E0000400D200040005
:10F800002DE9F04391B005460E4614461F46D0F848
:10F81000188003784BB1C388C8F30C029A4230D2E7
:10F820009B1A4344A3F50053AB6105F10C00EB7840
:10F8300053B30121AA780DF130094B46082A14BFB1
:10F840000022012204F039FAC5F81880CDF8109092
:10F850000596AB78E21A92B2ADF8182032440A92BB
:10F8600009978DF82C300023ADF82030EB78002B71
:10F8700040D02B7B022B09D000236B6201930293B3
:10F8800024E09B1A4344CFE70221D3E71023ADF8CD
:10F8900020302B690793EFE70134012C14D810AB0B
:10F8A00003EB840353F83C0C70B103A9FFF772FF1C
:10F8B0000028F1D010AB03EB840454F83C3C6B629D
:10F8C000002011B0BDE8F083019B3BB102AB01AA5F
:10F8D0002979286A10F074FD0024DEE72B7B022BC7
:10F8E0002CD105F10C01E88910F024FE0028C0D1CC
:10F8F0000520E6E72B7B012B01D00520E1E7EB8912
:10F90000ADF80430AB8AADF806300024012C13D8D2
:10F910002946002341F8243F10AB03EB440333F89E
:10F920003C0C10F072FD03A9686AFFF733FF08B9B9
:10F930000134EBE70020C4E70520C2E70520C0E75B
:10F9400070B5F0B00E4614461D4610AB0A4601468F
:10F950002046FFF755FF50B1214B1B6813F0040FF1
:10F9600003D0204B1B68052B2DDC70B070BD2046EA
:10F97000FFF775FE0028F8D103AB01228DF80C20AB
:10F98000A28AADF80E20002204928DF8142010AA4D
:10F990000692A178711AADF81C1008AA93E803002A
:10F9A00082E803000AAB2169E06883E80300A37DD5
:10F9B0008DF83830236A0C93636A0D930F9505A870
:10F9C00000F04EFED1E7084BD3F80435074A009209
:10F9D00040F203720649062009F0A6F9C5E700BF08
:10F9E000BC210020B821002000100140F4000400D8
:10F9F000D200040010B50446C06E09F064F904F1A9
:10FA0000300003F047F994F84830022B0AD07022F6
:10FA1000002120461EF0E7FF002084F8480002F095
:10FA200013F910BD04F1500003F034F9EFE710B5FD
:10FA30008CB0044690F84830012B0FD101238DF88B
:10FA40000430636D029303F071F9039001A800F094
:10FA500007FE2046FFF7CEFF0CB010BD7846FEF73C
:10FA600055FDEBE730B585B00D460446D0B1E188D1
:10FA700094F84830022B19D094F84830022B1ED04D
:10FA80002946606DFFF754FB2046FFF7B3FF164B86
:10FA90001B6813F0040F03D0144B1B68032B12DCFC
:10FAA00005B030BD7846FEF731FDE0E7637813F02E
:10FAB000020FE1D00022A08A1DF0C0FFDCE7204643
:10FAC000FFF708FADCE70A4BD3F8043594F848202E
:10FAD00002950192074A009240F2F312064904206F
:10FAE00009F022F9DCE700BFBC210020B82100208A
:10FAF0000010014020010400D200040008B50846AF
:10FB00000021FFF7AFFF08BD08B5037B012B02D032
:10FB1000FFF78DFF08BD0121FFF7A4FFFAE7000002
:10FB200008B590F8513053B1013B80F851300023B3
:10FB300080F85030034B186803F07AFF08BDFFF7D8
:10FB4000E3FFFBE7402B002010B50C4691F848304E
:10FB5000012B03D12046FFF7E3FF10BD7846FEF7E7
:10FB6000D5FCF7E7062976D1F0B585B015460678BD
:10FB7000B20102F4FE5241788478C3781B0443EA50
:10FB80000463047943EA042344791C4376B242EACD
:10FB900091012846FFF71EFA0746E0B1002E2FDB41
:10FBA000C289A98A8A422BD02B4B1B6813F0040F01
:10FBB0003ED02A4B1B68012B3ADD294BD3F8043584
:10FBC00002910192274A009240F27D62264902206A
:10FBD00009F0AAF82CE0204B1B6813F0040F27D083
:10FBE0001E4B1B68012B23DD1D4BD3F804351F4A28
:10FBF000009240F279621C49022009F095F817E062
:10FC0000002E17DBFD6C2543FD64BCB13B78D3B1FE
:10FC10007B7A5A1C01239340013B9D4217D000215F
:10FC200087F850103846FFF7D7FB3846FFF72AFC15
:10FC300005B0F0BDAB8AA7F85830E3E7032138469A
:10FC4000FFF710FFF4E77846FEF760FCE0E7384680
:10FC5000FFF7EDFEECE77047BC210020B821002043
:10FC60000010014074010400D200040044010400AB
:10FC70002DE9F0418AB007460E4614461D4610464F
:10FC8000FFF7EDFC50B994F80380B8F1000F08D1EC
:10FC90002B46224631463846FFF764FF0AB0BDE8DE
:10FCA000F0814046FFF7F6F902460028F6D08DF8BD
:10FCB0000480236A0793A38AADF8123005AB21694B
:10FCC000E06883E80300A37D8DF820300297039657
:10FCD00023788DF81030E36A0993294601A89047EC
:10FCE000DCE710B5547814F0010F03D0D47D14B1C3
:10FCF000FFF7BEFF10BDFFF723FEFBE7F8B5054693
:10FD00000E4614461F46537813F0020F06D13B46A9
:10FD10002246711E681CFFF7E4FFF8BD0123C9B23B
:10FD20001DF0A6FDF3E70000F0B5C7B00F4616467C
:10FD300082783244C37D2BB14FF4807393427CD3DD
:10FD4000002303E04FF4C073F8E70133032B1AD804
:10FD5000C3EBC3043B4D05EB041494F84810012990
:10FD6000F3D1C3EBC30105EB01118C8A818A8C426C
:10FD7000EBD1C3EBC30105EB0111CC89C1898C42E6
:10FD8000E3D1082552E00121FFF786FC0446002854
:10FD900055D032463946C06E1EF0FCFD0023459317
:10FDA00045A92046FFF718FB054608B1042840D1B5
:10FDB000459B0BBB244B1B6813F0040F35D0234B22
:10FDC0001B68032B31DDB4F84A70802F28BF8027D1
:10FDD0000023BB4214D2E26ED25C1D490D681009AB
:10FDE00059002E5C04A800F8136002F00F020131E4
:10FDF000AA5C42540133ECE72046FFF743FBD9E706
:10FE000004AA002302F8173003F1804303F5883376
:10FE1000D3F8043502920F4A01920F4A00924FF430
:10FE2000AC620E49042008F07FFF0025284647B049
:10FE3000F0BD2046FFF7DEFDF8E70925F6E70425CB
:10FE4000F4E700BF5C2B0020BC210020B82100207B
:10FE5000C0210020B8010400ECFD0300D200040022
:10FE600070B504460D461646FFF7C3FB30B923783C
:10FE70002BB1324629462046FFF756FF70BD324669
:10FE800029462046FFF7CDFAF8E7000038B50446CA
:10FE90000D46CB695B780371CB691B7883F0010356
:10FEA000C370CB6943628B8A0B2B07D8CB7A002BAC
:10FEB00040D10B7B012B02D0002300E001232370F3
:10FEC000002B3CD0287B022836D0FFF7DDF8A0704D
:10FED000AB8A03440B331E4A82FB03235B10013BB6
:10FEE0006372002323720023E37504F10C0395E889
:10FEF000030083E80300AB6923622B89A382AB7AFA
:10FF0000A3752B6AA362DF23E362284610F086FC08
:10FF100020B12B78012B15D0FF23E36220461DF082
:10FF200033FD30B1237B012B0ED0E36A43F0200375
:10FF3000E36238BD0123C2E7064B987DC5E7042381
:10FF4000A370D0E72023E8E72023E362F1E700BFB6
:10FF5000ABAAAA2A442B002010B54FF4E07200216E
:10FF600013481EF040FD06F025FA0024114B1C60DA
:10FF70008022214610481EF036FD104B104A1A60B0
:10FF8000104A5A604CF250329A600F49D9601A6197
:10FF900004221A759C7508225A750C4803F028FD36
:10FFA0000B4B18600B4B1C600B4806F0FDFC10BDA2
:10FFB0005C2B0020282B0020A82A0020442B0020A6
:10FFC00080969800F049020020A10700E10102009C
:10FFD000402B00202C2B002059F1010008B506F021
:10FFE00009FA08BD98B110B58CB00446036983B115
:10FFF000C36983B1836983B101466846FFF746FF51
:020000022000DC
:10000000A28A21696846FFF72BFF0CB010BD0E20B5
:1000100070470E20F9E70E20F7E70E20F5E7000005
:1000200058B310B590B00A46044643683BB38369A1
:100030003BB3014604A8FFF7A1FA134B1B6813F06A
:10004000040F03D0114B1B68062B06DCA268616805
:1000500004A8FFF705FF10B010BD0D4BD3F8043511
:100060002278A169029101920A4A009240F60502A3
:100070000949072008F058FEE8E70E2070470E20D7
:10008000E9E70E20E7E700BFBC210020B8210020EF
:1000900000100140C8010400D2000400037B012BC2
:1000A00001D00020704730B591B004460D46334B67
:1000B0001B6813F0040F03D0314B1B68032B41DC8A
:1000C00004A900230593CDF81730E288C2F3861007
:1000D00092008DF811202A0E8DF812202A0C8DF82E
:1000E00013202A0A8DF814208DF815506278022A00
:1000F0000CBF80221A4642EA00028DF810204FF011
:10010000060209924FF001028DF82C20A28AADF868
:100110002E200C938DF81C300891226A0D928DF8D8
:100120002830E36A0F9319D0E389ADF82A30A37D14
:10013000F3B98DF838306FF0010107A8FFF770FFB1
:1001400011B030BD0F4BD3F804350F4A009240F286
:1001500063220E49042008F0E7FDB1E70DF10E011E
:1001600003A810F003FABDF80C30ADF82A30DEE732
:10017000074B5B7D8DF83830DDE700BFBC210020E8
:10018000B821002000100140F4010400D200040056
:10019000442B002090F84830022B00D0704710B557
:1001A000044690F86830022B00D010BDC16CFFF7F8
:1001B00075FF0028F9D1002384F86830F5E70000C6
:1001C00010B5002407E0C4EBC4021301034818442F
:1001D000FFF7E0FF0134032CF5D910BD5C2B0020A4
:1001E00008B5FFF76FF9FFF7EBFF012008BD10B569
:1001F0000C4691F84830022B06D1022384F868306F
:100200002046FFF7C7FF10BD7846FEF77FF9F4E7F9
:10021000F0B583B00446C5698269C3882F0A2E06EB
:10022000C2F30C05AB4232D95B1B1344A3F5005358
:10023000F61847F1000732463B46A08AFEF72EFE2D
:10024000002840F0A4802046FEF7FEFE054648B395
:10025000D0F81CC08269C3884FEA1C214FEA0C60A9
:10026000C2F30C0C9C4515D2A3EB0C031344A3F56D
:100270000053C01841F10001B94208BFB0420DD38C
:100280008F4208BF864239D3284603B0F0BD5B1BBE
:100290001344CDE7A3EB0C031344EAE705212846FA
:1002A000FFF7E0FBE388E269A169A08A06F088F91C
:1002B00030BB32463B46A08A1DF0E4FB002839D112
:1002C000627A531CE17D002944D0082202FB03F22C
:1002D000002941D04FF48073934240D3022120463D
:1002E000FFF7DAF905460028CED100212046FFF7B6
:1002F000D5FE02210020FEF71BFFC5E70025C3E75E
:10030000E388E269A169A08A06F0D2F960B1237896
:1003100063B1617A4B1C0121994001392046FFF7F6
:10032000BDFE2046FFF79BF90025ADE77846FEF7B6
:10033000EDF8EEE723784BB1617A4B1C012199402F
:1003400001392046FFF7AAFE00259DE77846FEF713
:10035000DDF8F1E70C22B9E74FF4C073BCE70D4BB1
:100360001B6813F0040F03D00B4B1B68002B01DC40
:10037000002589E7094BD3F804350192084A009219
:1003800040F27F320749012008F0CEFCF0E700255B
:100390007AE700BFBC210020B821002000100140F6
:1003A00004020400D20004002DE9F04782B00746A1
:1003B0000E46154698461046FFF72AFF00284ED0F5
:1003C00004464D4B1B6813F0040F03D04B4B1B68C6
:1003D000032B47DC2046FFF79DF8237B012B4FD0F2
:1003E000E16C2B7A01229A40114238D10A43E2642F
:1003F000A6F1040A2B7AEA7D002A49D04FF0080CB6
:100400000CFB03FC617A8B4245D0002A48D00823BC
:10041000534547D1A269AB699A420BD204F10C0E45
:1004200005F10C09B9E80F00AEE80F0099E80300E8
:100430008EE80300E06E5246391D60441EF0AAFAB1
:100440006B7813F0020F32D1E66C2378002B35D095
:10045000637A5A1C01239340013B9E4232D002B082
:10046000BDE8F087264BD3F804352A7A0192254A55
:10047000009240F2A3322449042008F055FCA9E779
:1004800094F86830002BABD12046FFF759F8A7E766
:100490004FF00C0CB4E70CEB0A03A4F84A30B9E7B0
:1004A0000C23B5E704212046FFF7DCFAD7E7012348
:1004B0002A46F1B238461DF0DBF9C5E77846FEF76B
:1004C00025F8C5E7E16C2046FFF7E8FD6B7813F0EF
:1004D000020F0AD143462246B4F84A10E06EFFF7F5
:1004E00000FC2046FFF786FAB9E70122E988A88ACE
:1004F0001DF0A4FAEEE700BFBC210020B8210020C7
:100500000010014018020400D20004002DE9F0415F
:1005100090B0002856D00F4614461E468046002A4A
:1005200052D004AB00933346FEF72EFE054618B1B9
:10053000284610B0BDE8F08104A8FFF75AF8054638
:100540000028F5D104A81DF01FFA28B19DF811303C
:1005500043F002038DF8113000230293039302A9A4
:1005600060880FF0E7FF28B19DF8113043F00103D8
:100570008DF811302269E168208905F0D9FF38B182
:100580009DF8113003F0FE038DF81130002BCFD011
:100590009DF81130002BCBD013F0010F01D0039B3D
:1005A00008939DF8103033B1334604AA39464046CB
:1005B000FFF7FAFEBCE7334604AA39464046FFF788
:1005C0009DFBB5E70E25B3E70E25B1E720B3F8B5DF
:1005D0000E460546164B1F68012F1FD80024B44253
:1005E0000FD205EBC4035B68D3B115F8340015F9DD
:1005F0003430002B16DBB8B1FEF74CFDB0B9013436
:10060000EDE70C4B43F8375003EBC7035E6001374F
:10061000074B1F60002002E00E2070470420F8BD49
:100620000E20FCE70B20FAE70F20F8E70F20F6E793
:100630002C2B0020302B0020084B196861B110B51D
:1006400004E0064804F050FB214624B10C680B7905
:10065000002BF9D0F5E710BD704700BF202D00201A
:1006600038B5054630B1104B1C68C4B10F4B0122A0
:100670001A7004E07846FDF749FFF4E724683CB1BE
:100680002379002BFAD154F8043C28469847F5E723
:10069000064B1B78022B03D0044B00221A7038BD86
:1006A000FFF7CAFFF8E700BF202D00201C2D002017
:1006B00010B5044630B100232372211D034804F015
:1006C000E8FA10BD7846FDF721FFF4E7202D002061
:1006D00010B5044658B10A4B1B78013BDBB2012B25
:1006E00009D8074B02221A700123237210BD7846E5
:1006F000FDF70CFFEFE7211D024804F0F5FAF5E7DE
:100700001C2D0020202D00200A8883689B5A073367
:100710009BB223F0030313449BB20288043A934232
:1007200000D900230B80704710B582B0044683685F
:10073000C91AADF806100DF10601FFF7E5FFBDF887
:100740000630A068184402B010BD0088043880B29A
:10075000704743888268D018D15201238370704754
:10076000826800239370438083807047073189B289
:1007700021F0030189B2428883889A4204D29B1AED
:1007800099421EDC0020704710B59A420FD90488A8
:10079000A41AA14217D98B4217D3032C03D983681B
:1007A000134404229A7000234380184604E08268B0
:1007B00013449B780BB1042010BDFFF7D1FF00203C
:1007C000FAE7042070470020F6E70420F4E738B584
:1007D00004460D468368828813448B4202D07846D3
:1007E000FDF794FE0023AB70211D2046FFF78CFF20
:1007F000A288A36813449B78042B00D038BD002343
:10080000A380FBE710B50C468368428813448B42F3
:1008100002D07846FDF77AFE0023A37010BD70B5B4
:10082000054614460E46002944D0002D46D0B6F1A8
:10083000005F08D94FF08053D3F80C3103F5002343
:10084000B6EB832F0ED3B6F5000F08D94FF08053C7
:10085000D3F80C3103F50053B6EB832F02D378465F
:10086000FDF754FE631E3344B3F1005F08D94FF027
:100870008052D2F80C2102F50022B3EB822F0ED366
:10088000B3F5000F08D94FF08052D2F80C2102F5D1
:100890000052B3EB822F02D37846FDF737FE042CCB
:1008A00010D92C8000236B80AB80AE60043C348078
:1008B000B37070BD7846FDF729FEB6E77846FDF7C0
:1008C00025FEB4E77846FDF721FEEAE738B5044691
:1008D000A0B16288A36813449B78012B12D0EFF378
:1008E000108572B6A388A16819448B78032B0DD0AC
:1008F0002046FFF735FF05B962B638BD7846FDF7EB
:1009000005FEE6E77846FDF701FEE8E72046FFF73B
:100910000BFFA368C31A638000238370EBE72DE904
:10092000F0410E4614460546D0B1EEB16A88AB6878
:1009300013449B78012B1BD024B32846FFF705FFF7
:10094000A04221D3EFF3108872B621462846FFF764
:100950000DFF074680B1B8F1000F16D162B614E062
:100960007846FDF7D3FDE0E77846FDF7CFFDDDE7FC
:100970007846FDF7CBFDDFE721462846FFF7E9FE85
:100980003060E8E7092700E009273846BDE8F08134
:10099000F8B50C4615460646E0B1FCB1A378012B2C
:1009A00020D12388AB4221D325B3EFF3108772B651
:1009B00025800223A370F1183046FFF7A5FE738847
:1009C000B288934203D0B268134400229A7007B9E8
:1009D00062B6F8BD7846FDF799FDDEE77846FDF78B
:1009E00095FDDBE77846FDF791FDDAE77846FDF700
:1009F0008DFDD9E77846FDF789FDD6E770B50C4641
:100A0000054690B1ACB1EFF3108672B6AA88AB6818
:100A100013449A78042A10D09A78022A15D0032A0F
:100A200018D0052006B962B670BD7846FDF76EFD98
:100A3000E8E77846FDF76AFDE5E7291D2846FFF758
:100A400063FEAA88AB681344E6E703229A7023602A
:100A50000020E7E77846FDF759FD0020E2E738B5CA
:100A6000044680B1EFF3108572B6A088A1680144F6
:100A70008B78042B0BD08878022814BF002001202B
:100A800005B962B638BD7846FDF740FDEAE7204675
:100A9000FFF74AFE0146EEE738B5054678B1EFF3B9
:100AA000108472B6A888A96801448878C31EDBB296
:100AB000012B08D82846FFF737FE0146F5E77846B0
:100AC000FDF724FDEBE7022814BF0020012004B944
:100AD00062B638BD70B50C46064678B194B1EFF3F6
:100AE000108572B6A378012B10D0032B13D12146A9
:100AF0003046FFF76CFE05B962B670BD7846FDF76B
:100B000005FDEBE77846FDF701FDE8E721463046B5
:100B1000FFF778FEEFE77846FDF7F8FCEBE710B556
:100B2000EFF3108472B68388816819448B78042BA4
:100B300006D08878B0FA80F0400904B962B610BDDA
:100B4000FFF7F2FD0146F4E7024B00221A769A60A5
:100B500002207047242D002008B5064B986800221B
:100B60001A605A609A60DA601A615A619A6105F0F7
:100B7000DBF808BD242D002000B585B00A4BDB68EA
:100B800002228DF8002001934FF480530293074A0C
:100B90006946012001F0E4FA18B9012005B05DF8BA
:100BA00004FB0020FAE700BF242D0020422D002086
:100BB00000B585B00A4B1B6802228DF80020019316
:100BC0004FF480530293074A6946012001F0C8FAA6
:100BD00018B9012005B05DF804FB0020FAE700BF5A
:100BE000442D0020422D0020164BDA6813795179EC
:100BF0005B1A03F57F2303F6FF7302EB03339A427C
:100C000005D002F580520F4BDA600320704700B523
:100C100085B00D4B1B6801208DF8000001930B4B34
:100C20000393042302930A4A694601F099FA18B122
:100C3000002005B05DF804FB024B01221A76022069
:100C4000F7E700BF242D0020442D0020482D002070
:100C5000422D002000B585B00C4BDA680C4B1B68A8
:100C6000043301208DF800000192039340F6FC73D9
:100C70000293084A694601F073FA28B90120034B30
:100C8000187605B05DF804FB0020FAE7242D00205B
:100C9000442D0020422D002000B585B00A4B1B6872
:100CA00001208DF800000193084B03930423029365
:100CB000074A694601F054FA18B9012005B05DF8F9
:100CC00004FB0020FAE700BF442D0020302D002057
:100CD000422D002010B584B0104BDA681478104B08
:100CE0001B68043301208DF80000019303920294E5
:100CF0000C4A694601F034FA70B9094B1B6804F0DC
:100D0000FC041C440434054B5C61D9680A780A442D
:100D10001A61012004B010BD0020FBE7242D002043
:100D2000442D0020422D002008B500230A2B09D8AD
:100D3000064A52F82320824201D00133F6E7044AE2
:100D4000536002E07846FDF7E1FB08BDDC020400D9
:100D5000242D002010B5214BDB6853B11F4B1B7EA7
:100D60005BB91E4B5B680A2B26D97846FDF7CEFB94
:100D700022E07846FDF7CAFBF0E77846FDF7C6FBB0
:100D8000EFE7164A5368013353600A2B21D978469E
:100D9000FDF7BCFB1DE0114B00225A6019E00F4B20
:100DA0001B7E1BB10D4B02221A7012E0FFF7D4FE1E
:100DB0000FE00A4B1B7E83B9084B5A68084B53F867
:100DC0002230984704460228E9D00328E3D00128BE
:100DD000D7D0012CEDD0032CEBD010BD242D00205A
:100DE000DC020400104B1B681B685A1E12F1030F33
:100DF00018D8C3F30B020AB10020704710B50B4A94
:100E0000D36000231376537601241470936008484E
:100E1000FFF78AFF0749204601F090F9FFF79AFF94
:100E2000204610BD00207047442D0020242D0020B6
:100E3000790B0200390E020008B50B78032B06D09F
:100E40000B4B1B78012B06D0022B0BD008BD084B97
:100E500000221A76F4E7064B1B7E002BF6D1FFF733
:100E600079FFF3E70B78032BF0D1FFF775FEEDE781
:100E7000242D002000B585B0174BDB6818784FF69D
:100E8000FF7203F58051184405F044FDE0B10246BD
:100E9000114BD9680B780B44984217D00E4B5B7EF0
:100EA00083B10E4B01208DF80000019203930423BF
:100EB00002930B4A694601F053F948B90120064BE9
:100EC000187606E0074BEDE7012002E0012000E084
:100ED000002005B05DF804FB242D0020B0050400BF
:100EE000422D0020AC05040008B5104BDB681878D3
:100EF000002203F58051184405F00CFD08B10120D3
:100F000008BD0A4BDA68137951795B1A03F57F2320
:100F100003F6FF7302EB03339A4205D002F58052C9
:100F2000024BDA600320EBE70220E9E7242D0020E2
:100F3000F0B585B0514BDE6872793379591E8A421B
:100F400014D006F580510D780D444D490968081DEF
:100F50000F7907449B1A06EB03366B88013B9BB263
:100F600047F6FE62934260D92C461AE00120434BBB
:100F700058767EE07846FDF7C9FA15E024F47F64E0
:100F800024F00F0404F5805423781C44A64247D96A
:100F9000A54247D26388013B9BB247F6FE6293426B
:100FA00011D92388002BE5D0238804EB830323F495
:100FB0007F6222F00F029342E0D06288B2F5FE4FCA
:100FC000DCD01C46E2E725462FE07846FDF79EFA86
:100FD00015E024F47F6424F00F0404F58054237892
:100FE0001C44A64220D9A5423BD26388013B9BB258
:100FF00047F6FE62934211D92388002BE5D023885F
:1010000004EB830323F47F6222F00F029342E0D0CB
:101010006288B2F5FE4FDCD01C46E2E7254604E0CC
:10102000002502E0002500E00025E5B1144B196819
:101030006A8801F58051384605F06CFC074690B18E
:1010400001200E4B18768DF8000001950D4B03938F
:10105000042302930C4A694601F082F858B92C46E1
:10106000CAE70025E1E7B5FA85F56D09034B5D7622
:10107000012005B0F0BD0020FBE700BF242D0020BB
:10108000442D0020A8050400422D00202DE9F04148
:1010900086B0644B1B692BB1624B5B6933B14FF077
:1010A000000846E07846FDF731FAF5E77846FDF7A7
:1010B0002DFAF4E77846FDF729FA15E025F47F6567
:1010C00025F00F0505F580552B781D44AF421CD93E
:1010D000AC421ED26B88013B9BB247F6FE62934244
:1010E00011D92B88002BE5D02B8805EB830323F443
:1010F0007F6222F00F029342E0D06A88B2F5FE4F81
:10110000DCD01D46E2E72C4600E000241CB1009430
:101110003AE00024FAE700230093019B002B5CD106
:101120004FF00108002C77D0628847F6FF739A428F
:1011300072D0B8F1000F73D13A4B5A6922F47F662E
:1011400026F00F06B61A06F580561C69DF683B7953
:101150007A799B1A07EB0337002301936388013BDD
:101160009BB247F6FE629342D1D92546B9E778464D
:10117000FDF7CCF923E024F47F6424F00F0404F598
:101180008054237823441C46A742C6D92388019A59
:1011900002EB83029642C0D9009B634023F47F6335
:1011A00023F00F03002BB8D16388013B9BB247F6B5
:1011B000FE618B42B1D801922388002BD7D02388BF
:1011C00004EB830323F47F6222F00F029342D2D018
:1011D0006288B2F5FE4FD6D1CDE7124A526901209E
:1011E0008DF808000392009A059204930E4A02A912
:1011F00000F0B6FF70B90B49019B23F003024B6965
:1012000013444B6114B1074B1C618BE77846FDF723
:101210007DF9F8E7002000E0012006B0BDE8F0818C
:101220000120FAE7242D0020422D002000B585B0D2
:10123000274B00221A7040F6F8731B68B3F1FF3F8A
:1012400009D0B3F1FF3F0CD07BB1B3F1FF3F37D0F2
:10125000A3F580520FE01F4A1268B2F1FF3FF0D1B0
:1012600003E01C4A1268002AEFD14FF080514B690D
:101270000A6902FB03F2A2F58052174B1A60174B62
:101280001B6813F4801F16D0154B1B68062B12DD4C
:10129000144BD3F8043540F6F8710968B1F1FF3FFB
:1012A00013D002920191104A009240F276220F4927
:1012B000072007F039FDFFF795FD05B05DF804FB49
:1012C000044B1A68A2F58052D5E702490968E8E79D
:1012D000402D002014100010442D0020BC210020BF
:1012E000B821002000100140A80204008E02040072
:1012F00010B50446B0B1104B1B78BBB10E4BD9688A
:10130000E3685879A3EB0032914211D31A79121A8B
:1013100002F57F2202F6FF7203EB0233994209D8ED
:10132000012004E07846FDF7F1F8E4E7002010BD65
:101330000020FCE70020FAE7242D0020024B18785B
:10134000003818BF01207047242D002010B5044636
:10135000124B1B78BBB92378032B18D10F4B9C6021
:10136000E268DA600E4B1B78ABB10A220B4B5A6075
:1013700000221A76012018705A760A4900F0DEFE23
:10138000FFF7E8FC10BD7846FDF7C0F8E3E77846C4
:10139000FDF7BCF8E2E70022E8E700BF242D0020BB
:1013A000402D0020390E0200014B1868704700BF25
:1013B000442D002010B5044680B163681BB123683A
:1013C0000BB1A36813B97846FDF7A0F8A3685A1EBD
:1013D000134207D10023E360236110BD7846FDF777
:1013E00095F8EAE77846FDF791F8F3E7F8B500B32A
:1013F0000F4604468368F3B1EFF3108572B60369B4
:10140000C268934211D0016842688668013E334049
:1014100003FB021117B138461DF0BCFA23690133F2
:10142000236155B962B62846F8BD05B962B60525EF
:10143000F9E70E25F7E70925F5E70025F3E70000B2
:101440000246C0F30B0040BB49B310B401F6FF7174
:101450000C0B144B0221C3F80415124BD3F80034C3
:10146000002BFAD001460AE00E4BC3F808250D4BBD
:10147000D3F80034002BFAD002F580520131A1429A
:10148000F2D3084B0022C3F80425064BD3F80034EE
:10149000002BFAD05DF8044B7047102070470920EC
:1014A000704700BF00E0014010F0030F2FD110B4CF
:1014B000044611F0030F2CD16AB312F0030F2CD1A4
:1014C0009008174B0122C3F80425154BD3F80034BC
:1014D000002BFAD002E0043404311046421E50B111
:1014E0000B68B3F1FF3FF6D023600D4BD3F8003407
:1014F000002BFAD0EFE70A4B0022C3F80425084B73
:10150000D3F80034002BFAD05DF8044B704710205C
:1015100070471020F8E70920F6E70920F4E700BF3C
:1015200000E00140094B1B7813F0040F02D0037850
:10153000122B00D07047064B1A68064B5A60034BBB
:101540001A786FF382021A70F4E700BFF02D0020C2
:10155000E02D00207C2D002010B582B001900C46BB
:10156000000C012810D12368094A136009490B783F
:1015700043F001030B705B0883F0010303F00103E8
:101580001371002002B010BD7846FCF7BFFFEAE7F8
:10159000E02D0020F02D002010B582B001900C4607
:1015A000000C02280FD12268094B1A6022791A71A7
:1015B000002058719871D871064A137843F00203DD
:1015C000137002B010BD7846FCF7A0FFEBE700BF38
:1015D000D82D0020F02D002010B582B001900C46CF
:1015E000000C032806D1054B186820601B79237175
:1015F00002B010BD7846FCF789FFF4E7E02D00202B
:1016000010B582B001900C46000C03280CD1084B99
:101610002068186022791A71064A137843F0010392
:101620001370002002B010BD7846FCF76FFFEEE7A4
:10163000E02D0020F02D002010B582B001900C4666
:10164000000C042805D1054B03CB2060616002B07B
:1016500010BD7846FCF75AFFF5E700BFD82D0020F3
:1016600010B582B001900C46000C04280BD1084B39
:101670002068616803C3074A137843F002031370BC
:10168000002002B010BD7846FCF740FFEFE700BF36
:10169000D82D0020F02D002000B583B00190000C63
:1016A000032806D1054B00221A601A7103B05DF8B9
:1016B00004FB7846FCF72AFFF4E700BFE02D00208A
:1016C00000B583B00190000C042806D1054B002220
:1016D0001A605A6003B05DF804FB7846FCF716FF09
:1016E000F4E700BFD82D002000B585B0184B1B785B
:1016F00013F0400F0FD0164B1B7813F0040F07D1D7
:10170000144B5B6803F500530193B3F1807F06D956
:1017100005B05DF804FB7846FCF7F8FEEBE70E4BEE
:101720001B788DF808300A4A137843F004031370CD
:101730000023ADF80C300323ADF80E3001A9039857
:1017400006F0BCFA0028E3D07846FCF7DFFEDFE7BE
:10175000F02D00207C2D0020F12D002000B585B05B
:101760000022ADF809200F4B996801911B7B8DF881
:1017700008300D490B780133DBB20B708DF80B305C
:10178000ADF80C200423ADF80E300DEB03010398E7
:1017900006F094FA10B905B05DF804FB7846FCF742
:1017A000B5FEF8E77C2D0020F12D002000B585B0B6
:1017B0000F4B9A6801921A7B8DF808201B8AADF8AE
:1017C00009300C4B1B788DF80B300023ADF80C3032
:1017D0000423ADF80E300DEB0301039806F06EFA0A
:1017E00010B905B05DF804FB7846FCF78FFEF8E70A
:1017F0007C2D0020F12D002000B58DB00B4B1B7B04
:10180000012B0ED0094A926804928DF8083003909B
:1018100002238DF8043001A8FEF722FF0DB05DF819
:1018200004FB024A9268013A0492EEE77C2D002004
:1018300008B51D481D4B036000F02CFF1C4B1B78A6
:1018400013F0200F2AD103F00303032B14D1194BFB
:101850001968194A916019791173B3F8050010825B
:10186000DB79164A1370164A1279934217D0B1B930
:10187000114B00221A6007E00F4B00221A609A6099
:101880001A731A82FFF76AFF0B4B1A685A60084AEC
:10189000137843F040031370FFF726FF08BD084B91
:1018A0001A68054B1A60EFE7CC2D002025150200C1
:1018B000F02D0020D82D00207C2D0020F12D0020BF
:1018C000E02D002010B582B00024ADF800400123C7
:1018D000ADF80230009806F022FAADF80440022379
:1018E000ADF80630019806F01AFA02B010BD0000FB
:1018F00008B5002006F03AFA084B00221A605A6038
:101900009A60DA601A61064A137803F0DF0343F045
:1019100040031370FFF7E8FE08BD00BF7C2D0020D8
:10192000F02D002038B50C4D00242C606C60AC60AC
:10193000EC602C6101F0FAF9084B5860084A9A6093
:10194000084ADA601C615C61074B1A7864F3C302D1
:101950001A706C6038BD00BF7C2D0020582D00200F
:10196000C51A020000879303F02D002008B50C4B28
:101970001B7813F0100F00D008BD0A480A4B036013
:1019800000F088FEFFF754FFFFF79CFF074801F0C7
:1019900051F9034A137843F010031370ECE700BFCA
:1019A000F02D0020702D00201D1C0200582D00205D
:1019B000034B1878800880F0010000F001007047A8
:1019C000F02D002010B501F09BFF174B1B7B1BBBBC
:1019D000154B9B7B2BBB144B1A8A41F282639A42B4
:1019E00006D8124B1B7813F0080F05D0012300E036
:1019F00001231BB9082410E00023FAE70A4B012257
:101A00001A7300241C829A6801329A60FFF7A6FEBE
:101A10002046FFF7F1FE00E0082401F0B5FF204664
:101A200010BD0824F9E700BF7C2D0020F02D002018
:101A300010B501F065FF214B5B7BABB11F4B9B7B6E
:101A400003BB1E4B1A8A41F282639A4206D81C4B92
:101A50001B7813F0080F05D0012300E001239BB190
:101A6000012302E00023FAE700231C460BB3134BCB
:101A700000225A731B7B4BB1012B0ED07846FCF72A
:101A800045FD16E00023F0E70023EEE7FFF79AFF9D
:101A900078B17846FCF73AFD0BE0084B002018605F
:101AA000586018731882FFF7A7FEFFF757FEFFF77D
:101AB0001BFE01F069FF204610BD00BF7C2D0020F9
:101AC000F02D002008B52C4B1B7BDBB1012B2ED059
