:020000021000EC
:10C0000000F001206DC3010055C3010057C30100BA
:10C0100059C301005BC301005DC3010000000000C3
:10C020000000000000000000000000005FC30100ED
:10C0300061C301000000000063C3010065C301008B
:10C0400067C3010067C3010067C3010067C3010044
:10C0500067C3010067C301008140030067C301009B
:10C0600067C3010067C301003114030067C3010007
:10C0700067C3010067C3010067C3010067C3010014
:10C0800067C301009DC603004936020067C3010073
:10C0900001C7030067C301004D4B030067C30100E4
:10C0A00067C3010067C3010067C3010067C30100E4
:10C0B00067C3010067C3010000000000000000002A
:10C0C00067C3010067C3010067C3010067C30100C4
:10C0D00067C3010067C3010067C3010067C30100B4
:10C0E00067C3010000000000000000000000000025
:10C0F0000000000067C301000000000067C30100EA
:10C10000000000000000000000000000000000002F
:10C11000000000000000000000000000000000001F
:10C12000000000000000000000000000000000000F
:10C1300000000000000000000000000000000000FF
:10C1400000000000000000000000000000000000EF
:10C1500000000000000000000000000000000000DF
:10C1600000000000000000000000000000000000CF
:10C1700000000000000000000000000000000000BF
:10C1800000000000000000000000000000000000AF
:10C19000000000000000000000000000000000009F
:10C1A000000000000000000000000000000000008F
:10C1B000000000000000000000000000000000007F
:10C1C000000000000000000000000000000000006F
:10C1D000000000000000000000000000000000005F
:10C1E000000000000000000000000000000000004F
:10C1F000000000000000000000000000000000003F
:10C20000344935480A1A02D0072291438D463349F2
:10C2100033480A1A06D00722914381F30988022283
:10C2200082F314882F483049304A00F042F83048F1
:10C230003049314A00F03DF830483149314A00F088
:10C2400038F831483149324A00F033F83148324940
:10C25000324A00F02EF832483249334A00F029F8C9
:10C2600032483349334A00F024F833483349002236
:10C2700000F02AF832483349002200F025F832480D
:10C280003249091A082902DB0022026041601F4876
:10C290001F49884205D00268043003B4904703BCAC
:10C2A000F7E700208646EC4600200021284A904708
:10C2B000FEE7884207D0521A05D0037801300B7090
:10C2C0000131013AF9D17047884202D00270013041
:10C2D000FAE7704700F0012000E8012000F001209B
:10C2E00000F00120D4200400601F0020182200204C
:10C2F000A0C30100A0C3010076F10300D420040014
:10C30000601F0020601F0020F4F50300F4F5030017
:10C31000F4F50300F4F50300F4F50300F4F503006D
:10C32000F4F50300F4F50300D42004008C2304008A
:10C33000182200201822002018220020496700201F
:10C340004C6700204C6700204C6700204C6B00209D
:10C3500025CB0100FEE7FEE7FEE7FEE7FEE7FEE78E
:10C36000FEE7FEE7FEE7FEE700F002B8FFF7FCBFDE
:10C3700008484FF00701884385460748804707482B
:10C38000016841F470010160BFF34F8FBFF36F8FFD
:10C39000FFF736BF00F001202D4F030088ED00E0CD
:10C3A00041DF70470D4B1B6813F4804F03D00C4BDB
:10C3B0001B68032B00DC704700B585B0094BD3F830
:10C3C000043502920191084A00929F2207490420F5
:10C3D00008F05CFA05B05DF804FB00BFAC2100205A
:10C3E000A8210020001001407CF6030072F6030033
:10C3F0000D4B1B6813F4804F03D00C4B1B68032BB1
:10C4000000DC704700B585B0094BD3F804350292C3
:10C410000191084A0092A8220749042008F036FA40
:10C4200005B05DF804FB00BFAC210020A82100206E
:10C4300000100140A4F6030072F6030010B50C468C
:10C440000D2001F0A7FA207010BD000010B582B0D9
:10C450000C460D4B1B6813F4804F03D00B4B1B682D
:10C46000032B05DC21460D2001F0C0FA02B010BDFF
:10C47000074BD3F804350191064A00928E220649F3
:10C48000042008F003FAEDE7AC210020A8210020E9
:10C4900000100140CCF6030072F6030000B583B033
:10C4A0000F4B1B6813F4804F03D00E4B1B68032BFC
:10C4B0000BDC1EF069FF0322C8210F2001F002FBF4
:10C4C0000CF030FC03B05DF804FB074BD3F80435E7
:10C4D000064A0092CC220649042008F0D7F9E8E782
:10C4E000AC210020A821002000100140E4F6030048
:10C4F00072F6030010B582B0441C374B1B6813F46E
:10C50000804F03D0354B1B68032B18DC012C22D045
:10C51000042C42D0304B1B6813F4804F30D02F4B8B
:10C520001B68032B2CDD2E4BD3F804352D4A0092CB
:10C530004FF485722C49042008F0A8F920E0284B1C
:10C54000D3F804350194294A0092E82226490420B0
:10C5500008F09CF9DAE7204B1B6813F4804F03D0F6
:10C560001E4B1B68032B0DDC0D2001F013FA80F02D
:10C570000101C9B20D2001F039FA1D4800F032FC6A
:10C5800002B010BD164BD3F804351A4A0092F022BF
:10C590001549042008F07AF9E6E70CF055FBA0B93C
:10C5A0000D4B1B6813F4804FEAD00C4B1B68032B18
:10C5B000E6DD0B4BD3F804350F4A00924FF482723C
:10C5C0000949042008F062F9DAE70EF02BF90CF0C3
:10C5D0002FFBFFF763FFD3E7AC210020A821002049
:10C5E00000100140E4F8030072F6030000F70300B6
:10C5F000701F002014F7030024F7030000B583B078
:10C600003138032814D90D4B1B6813F4804F11D017
:10C610000B4B1B68032B0DDD0A4BD3F804350A4A7C
:10C6200000924FF48C720949042008F02FF901E0C0
:10C63000FFF760FF03B05DF804FB00BFAC210020F2
:10C64000A821002000100140E4F8030072F6030066
:10C6500008B50378232B00D008BDFFF71FFFFBE7C9
:10C6600000B58DB01EF04CFE2022002103A822F060
:10C670001DFD01238DF80C3007238DF80F300623A4
:10C680008DF81430244B0793244B0B93244903A8B3
:10C690000CF0DEFA034618B3002B32D00B2B2FD14F
:10C6A0001EF072FE1F4B1B6813F4804F03D01E4B0D
:10C6B0001B68032B18DC1B4B1B6813F4804F20D026
:10C6C000194B1B68032B1CDD184BD3F80435184A93
:10C6D000009240F263121749042008F0D7F810E0E6
:10C6E0001EF02EFE0346D7E7104BD3F80435124A4E
:10C6F00000924FF4B1720F49042008F0C7F8DAE74E
:10C7000013B90DB05DF804FB0C4A4FF4B471184630
:10C7100018F0CCFCF5E700BF51C6010011C90100BB
:10C7200018220020AC210020A82100200010014088
:10C73000ACF7030072F603005CF7030010F6030089
:10C7400000B583B01D4A05214FF4103008F082F87F
:10C750001B4B1B6813F4804F03D01A4B1B68032B31
:10C7600013DC1FF0D1FFE0B901F0ECF9164801F03D
:10C770001DFAE0B901F058FD01F08CFD01F0B8FDA3
:10C78000FFF76EFF03B05DF804FB104BD3F80435E0
:10C790000F4A00924FF4B9720E49042008F076F85F
:10C7A000DFE70D4A4FF4BA7118F080FCDCE70A4A63
:10C7B0004FF4BC7118F07AFCDCE700BF2948020096
:10C7C000AC210020A8210020F5C401000010014088
:10C7D000E8F7030072F6030010F6030000B583B01B
:10C7E00000213F4800F034FB002835D13D4B1B6849
:10C7F00013F4804F03D03C4B1B68032B31DC00212A
:10C800003A4800F0A5FB002839D1364B1B6813F4D9
:10C81000804F03D0344B1B68032B35DC0021344898
:10C8200000F08CFE00283DD13249314800F0B4FEC2
:10C8300000283CD12E492A4800F062FB00283BD159
:10C84000284B1B6813F4804F03D0274B1B68032B26
:10C8500037DC03B05DF804FB274AB02118F026FC52
:10C86000C4E7264BD3F804351D4A12880192244AA6
:10C870000092B1222349042008F008F8BFE71E4ABD
:10C88000B52118F013FCC0E71C4BD3F80435174A48
:10C89000128801921C4A0092B6221A49042007F01D
:10C8A000F5FFBBE7144AB92118F000FCBCE7124AB7
:10C8B000BA2118F0FBFBBDE70F4ABB2118F0F6FBCD
:10C8C000BEE70E4BD3F80435094A128801920F4A8D
:10C8D0000092BC220B49042007F0D8FFB9E700BF43
:10C8E000701F0020AC210020A82100201C22002065
:10C8F000682000205C20002010F60300001001409A
:10C9000018F8030072F6030034F8030050F803002F
:10C9100000B583B00C4B1B6813F4804F03D00B4B56
:10C920001B68032B04DCFFF759FF03B05DF804FB21
:10C93000074BD3F80435074A009240F243120649E8
:10C94000042007F0A3FFEEE7AC210020A82100207F
:10C95000001001406CF8030072F6030010B50446A5
:10C9600000210F2001F098F804EB840462003221CA
:10C97000032001F0A7F810BD08B503781D2B00D0E7
:10C9800008BD044800F0A2FA0028F9D018F080FB96
:10C99000F6E700BF701F002008B501F0C5F808BD1C
:10C9A00000B585B003A812F027FC0D4B1B6813F4EB
:10C9B000804F03D00B4B1B68032B02DC05B05DF8E6
:10C9C00004FB094BD3F80435BDF80C200192074A4B
:10C9D000009240F22D120649042007F057FFEDE7C0
:10C9E000AC210020A8210020001001408CF8030099
:10C9F00072F6030030B58BB06421254800F06CFF5F
:10CA0000244B1B788BB903AC234D0FCD0FC495E895
:10CA1000070084E8070003A800F0F6FE38B11F4ABB
:10CA20004FF4CB7118F042FB01E0FFF7B9FF01F0C2
:10CA300085FD01F0F3F81A4805F068FB0CF062F987
:10CA400098B9184B1B6813F4804F03D0164B1B6822
:10CA5000032B10DC00210C2001F01EF80222C8215B
:10CA60000C2001F02FF80BB030BD0C4A4FF4D171FF
:10CA700018F01CFBE5E70D4BD3F804350C4A009287
:10CA80004FF4D2720B49042007F000FFE2E700BF29
:10CA9000FDC5010018220020C0F8030010F60300B5
:10CAA000601F0020AC210020A821002000100140C0
:10CAB000E4F8030072F6030000B583B0144B1B6862
:10CAC00013F4804F03D0134B1B68032B13DC01F0CE
:10CAD000E1FB01F00DFCFFF763FF01F025F80021F9
:10CAE0000F2000F0D9FF0422C8210F2000F0EAFF38
:10CAF00003B05DF804FB084BD3F80435074A0092F5
:10CB00004FF499720649042007F0C0FEDFE700BF2A
:10CB1000AC210020A821002000100140A4F803004F
:10CB200072F6030008B5FFF70BFEFFF763FFFFF790
:10CB300037FCFCE730B583B00446002380F86C3046
:10CB40002D23836631B14A68C0F880200B680366E4
:10CB500003B030BD00250195D0F8F030186B836824
:10CB60005B6801AA29469847019B2366C4F8805058
:10CB7000EEE708B5836B13B190F84810984708BDED
:10CB800008B59C3801F010FA08BD00002DE9F0410D
:10CB900084B004460F4615461E46A0F1EC0850F836
:10CBA000B03C0DF10F0140469847A4F1A20214F8E1
:10CBB000BC1C38461EF0EEFA50B90196029514F8E6
:10CBC000A22C9DF80F309A4208D104B0BDE8F08144
:10CBD000084A40F20F1118F069FAEEE79C3C204633
:10CBE00001F0E2F901A94046FFF7A4FF204601F059
:10CBF000CDF9EAE728FA030008B50346084613F81A
:10CC0000A42C13F8BC1C1EF0ADFA00B908BD034AF1
:10CC10004FF4817118F04AFAF8E700BF28FA0300D0
:10CC200030B583B004461546124B1B6813F4804F91
:10CC300003D0114B1B68032B11DCE36B04F148019B
:10CC40002046984794F848302B7094F84A306B701F
:10CC500004F1500001F0B6F9686003B030BD074B35
:10CC6000D3F80435064A009287220649042007F0CB
:10CC70000DFEE2E7AC210020A821002000100140B9
:10CC80008CFA03007DFA0300F0B585B00446154622
:10CC90001F460A9E224B1B6813F4804F03D0214B82
:10CCA0001B68032B1CDCE36B0DF10F01204698473A
:10CCB000297884F84A1094F830001EF02BFAE0B975
:10CCC0002A789DF80F309A421CD1002536B194F88D
:10CCD0004830337094F84A307370756005B0F0BD19
:10CCE000114BD3F8043512780192104A00929A221F
:10CCF0000F49042007F0CAFDD5E70E4AA22118F01B
:10CD0000D5F9DDE739462046FFF714FF256E04F11B
:10CD1000500001F03BF9D4F8F00000F051FCD5E7E9
:10CD2000AC210020A82100200010014098FA030047
:10CD30007DFA030028FA030030B583B00446A0F161
:10CD4000500510F8082C10F8063C9A4218D114F837
:10CD5000083C8DF8003014F8063C8DF801300023B3
:10CD600001936946A4F150001EF024F954F8103CD8
:10CD700023B114F8062C216A2846984703B030BD29
:10CD800000F8083C2846FFF7F4FEE0E730B583B032
:10CD90000446A0F1500510F8073C13B910F8063C02
:10CDA0004BB954F8103C23B114F8062C216A2846DC
:10CDB000984703B030BD00F8083C2846FFF7D9FE7D
:10CDC0000023009314F8083C8DF8003014F8063C5A
:10CDD0008DF80130236A0193694628461EF0EAF86F
:10CDE000DFE7000030B583B00446503001F0DCF8D6
:10CDF00094F84850E36B04F148012046984794F8B2
:10CE0000483084F84A308DF800308DF80130002326
:10CE10000193694620461EF0CDF894F8481094F826
:10CE200030001EF077F928B994F84830AB4207D1AA
:10CE300003B030BD054A40F2371118F037F9F3E777
:10CE4000D4F8F00000F0BCFBF2E700BF28FA0300C2
:10CE500070B310B50446194BC362C36B5BB3836BED
:10CE600033B120461EF074F8034630B1184610BDA9
:10CE7000036C002BF5D10E23F8E704F130001EF00F
:10CE80009DF903460028F1D10D4BC4F8EC30002386
:10CE900023650C4A6265A3650B4BE36504F1500002
:10CEA000C4F8D8000123636601F0B0F80346DDE75B
:10CEB0000E23184670470E23D8E700BFA8FA0300D8
:10CEC000B0FA03008DCD010039CD010010B582B05C
:10CED00004460DF1070190F830001EF031F930B929
:10CEE0009DF8071020461EF071F802B010BD034AED
:10CEF00040F2731118F0DAF8F2E700BF28FA0300E5
:10CF000020B129B1C0F8F010002070470E20704702
:10CF10000E20704708B51146007B1EF005FD00B9D4
:10CF200008BD024A4B2118F0C1F8F9E7BCFA03002A
:10CF300008B511681960007B1EF0E2FC00B908BD5D
:10CF4000024A562118F0B2F8F9E700BFBCFA030014
:10CF500060B110B50446064B83601EF01DFC00B1A5
:10CF600010BD04F10C001EF0F1FCF9E70E20704733
:10CF70001CFB03005038704710B586B0FFF7FAFF6E
:10CF80000446154B1B6813F4804F03D0134B1B68EA
:10CF9000042B0BDC0023A4F84830236C23B1B4F835
:10CFA0004A20216F2046984706B010BD0C4BD3F89D
:10CFB000043590F83420B0F84A10006F0490606F88
:10CFC000039002910192074A00924FF4C6720649FB
:10CFD000052007F05BFCDDE7AC210020A821002044
:10CFE0000010014088FB030079FB030000B583B00B
:10CFF000FFF7C0FF0D4B1B6813F4804F03D00C4BA1
:10D000001B68042B02DC03B05DF804FB094BD3F86A
:10D01000043590F834200192074A009240F28312BE
:10D020000649052007F032FCEDE700BFAC210020E7
:10D03000A821002000100140CCFB030079FB030075
:10D0400000B585B08DF80410B0F84830ADF8063062
:10D05000B0F84A30ADF80830039201A904301EF050
:10D06000A1FE05B05DF804FB10B584B0FFF782FFA8
:10D070000446B0F84A20A0F848200023A0F84A301F
:10D08000134B1B6813F4804F03D0124B1B68042B07
:10D090000DDC236C23B1B4F84A20216F2046984759
:10D0A000226F00212046FFF7CBFF04B010BD0A4BD2
:10D0B000D3F8043590F8341002920191074A009297
:10D0C0004FF4D2720649052007F0E0FBE1E700BF0C
:10D0D000AC210020A821002000100140E8FB030043
:10D0E00079FB030070B138B50C4605463C301EF0A4
:10D0F000FDFF00B138BD044BAB63214628461EF04E
:10D100005FFEF7E70E20704754FD030038B5044674
:10D1100080F86C20012343662D2383660D4629B1D8
:10D120006B68C4F880302B68236638BD784601F000
:10D13000C3F9F5E72DE9F0418AB015461F46109E68
:10D140000446E0B1DAB1B4F8482029888A421AD1FD
:10D15000002246B13270B4F848307380B4F84A30D7
:10D16000B380236EB360424B1B6813F4804F03D02F
:10D17000404B1B68032B67DC0AB0BDE8F0817846A2
:10D1800001F09AF9DFE70DF11B0294F83C001EF064
:10D1900071FF8046002855D1002308930993D7B129
:10D1A000002239462046FFF7B1FF2B88A4F84A3009
:10D1B000D4F8EC30434520D82D4B1B6813F4804F36
:10D1C00003D02C4B1B68042B26DC04F1500000F02C
:10D1D000DDFE0022BDE7236B9B685B684BB1206BD3
:10D1E00083685B6807AA00219847079B089308AFEC
:10D1F000D6E7784601F060F9F1E708F13A0354F810
:10D20000230003685F68236ED4F880209DF81B100C
:10D21000B84708F10108CBE7174BD3F804352A8843
:10D22000216E0491D4F8801003919DF81B10029197
:10D230000192124A009240F22B121149052007F088
:10D2400025FBC2E7022284E70B4BD3F80435B4F880
:10D250004810B4F84A00039002910192094A0092E2
:10D260004FF49F720649042007F010FB84E700BFCB
:10D27000AC210020A82100200010014020FC030068
:10D2800079FB030058FC030070B506460D460024E8
:10D2900005E0094A622117F009FF023501340F2C1D
:10D2A00008D82A46E1B296F83C001EF0EBFE0028B2
:10D2B000F3D0EEE770BD00BF24FB030030B583B0B0
:10D2C00014460546A0B19AB100232370B5F8483042
:10D2D0006380211D2846FFF7D7FF0E4B1B6813F410
:10D2E000804F03D00C4B1B68032B05DC03B030BD13
:10D2F000784601F0E1F8E7E7084BD3F80435628897
:10D300000192074A0092F8220649042007F0BEFA6B
:10D31000ECE700BFAC210020A82100200010014054
:10D320008CFC030079FB030030B587B0144605463A
:10D33000E0B1DAB100232370B5F848306380B5F866
:10D340004A30A38095F87C30022B13D12B6F0BB1A0
:10D350004FF0FF33A360144B1B6813F4804F03D0CE
:10D36000124B1B68032B0BDC07B030BD784601F075
:10D37000A3F8DFE705F1500000F024FEA060EAE723
:10D380000B4BD3F804356288A188686F0490A068BD
:10D39000039002910192074A0092E222064904207A
:10D3A00007F074FAE0E700BFAC210020A8210020BC
:10D3B00000100140B0FC030079FB0300F0B587B01A
:10D3C00016461D460446E0B1DAB10DF11702318868
:10D3D00094F83C001EF070FE074620BBB4F84820CD
:10D3E00033889A4203D0B4F84A20934217D104F10B
:10D3F000500000F0D9FD0023A4F84A30A4F84830CA
:10D400000DE0784601F058F8DFE707F13A0354F8E9
:10D41000230003689B689DF8171098470137D4F8DC
:10D42000EC30BB42F1D845B100232B70B4F8483042
:10D430006B80291D2046FFF727FF0E4B1B6813F456
:10D44000804F03D00C4B1B68032B01DC07B0F0BDF1
:10D450000A4BD3F80435B4F84A20B4F848100291C6
:10D460000192074A0092C3220649042007F00EFAEF
:10D47000ECE700BFAC210020A821002000100140F3
:10D48000F8FC030079FB0300F0B587B015461C4695
:10D49000074628B322B30DF11702298897F83C00FC
:10D4A0001EF0C4FD064650BB2B88A7F84830D7F8BD
:10D4B000EC30B34218D800253CB12570B7F848309D
:10D4C0006380211D3846FFF7DFFE174B1B6813F4FE
:10D4D000804F03D0154B1B68032B12DC07B0F0BD47
:10D4E000784600F0E9FFD6E706F13A0357F8230043
:10D4F00003681B689DF8171098470136D7E7012588
:10D50000DAE70B4BD3F80435B7F84A20B7F84810E0
:10D51000039102920195074A00929822064904203D
:10D5200007F0B4F9DAE700BFAC210020A821002001
:10D530000010014020FD030079FB030000B310B58B
:10D540000446036CFBB1FFF7CDFD034608B1184656
:10D5500010BD0023A4F848300C4A22650C4A6265CD
:10D56000A3650C4BE36504F15000C4F8D80000F04B
:10D570004DFD03460028EAD10022C4F8EC20E6E77E
:10D580000E23184670470E23E1E700BFEDCF0100E0
:10D5900079CF010069D00100034658B161B1D0F8DC
:10D5A000EC0058B900F13A0243F82210421CC3F8CB
:10D5B000EC2070470E2070470E2070470420704703
:10D5C0000023A0F84830704769DF704703781F2BAD
:10D5D00000D07047014B01221A70FAE77722002031
:10D5E0003A4B1B78002B70D000B587B0012804D0CF
:10D5F000032863D007B05DF804FB0023019301A961
:10D60000012017F049F9002842D100230393012299
:10D61000114662F307118DF80C108DF80D2004935C
:10D62000ADF814301023ADF81630019A03A941204B
:10D63000FFF7CAFF78BB01A817F084F970BB244B31
:10D640001B6803B198470123029302A90DF1020060
:10D6500012F01AFC28BBBDF8020011F0BDFF0DF15D
:10D66000010112F06BF9F8B90CF016FE9DF80110EB
:10D6700000200DF021F9D0B904F0DAFCD8B9134B31
:10D6800000221A70124B5B68002BB3D09847B1E7A9
:10D6900017F0FEFCB9E717F0FBFCCCE717F0F8FC3D
:10D6A000CDE717F0F5FCD6E717F0F2FCDCE778469B
:10D6B00000F002FFE0E717F0EBFCE0E717F0BCF941
:10D6C000002897D017F0E4FC94E7704776220020FA
:10D6D0007822002008B5064B01221A70054804F094
:10D6E00015FD04F0F7FC00B908BD17F0D1FCFBE70D
:10D6F000762200205821002008B503781C2B00D08A
:10D7000008BD074B1B78002BFAD017F0D9F918B9D0
:10D71000044804F0FFFCF3E717F0BAFCF8E700BF99
:10D72000762200205821002008B5094B1B7863B9E8
:10D730000849094818F066F940B90323002207494F
:10D740004969074818F07AF900E0082008BD00BFD1
:10D75000772200209422002000260020782200203A
:10D76000CC24002008B50378023B082B3FD8DFE823
:10D7700003F01C05113E3E2C3E3E36001E4B9B68BE
:10D78000002B34D0007A002831D01C4A01211170BE
:10D7900098472CE0184BDB684BB3184A127832B329
:10D7A000164A00211170984721E0154B1B784BB9A0
:10D7B000114B1B691BB1114A002111709847FFF7EB
:10D7C000B3FF14E0FFF786FF11E010220A4B9969BE
:10D7D0000C4818F0BDF950B117F05AFC07E0816809
:10D7E000C0680BF0B5F918B9054B01221A7008BDD5
:10D7F00017F04EFCF8E700BF7822002074220020CA
:10D8000075220020CC24002070B586B00446214A41
:10D8100003AB07CA03C323F8022B120C1A701E4E67
:10D8200035460FCC0FC594E8070085E80700B369BB
:10D83000002B2DD0194B009303AB194A19491A48F4
:10D8400018F09EF8034610B1184606B070BD174890
:10D8500019F0FAFD0146144818F0BEF803460028F6
:10D86000F2D1134819F06AFF03460028ECD11048A2
:10D8700019F09AFF01460C4818F0AEF8034600284C
:10D88000E2D10C4804F042FCFFF74EFF0346DBE711
:10D890000723D9E768FD03007822002065D701003F
:10D8A0009422002000260020CC240020B422002056
:10D8B0007C2400206421002008B5064B1B681BB99E
:10D8C00006E0044B1B68984714F052FF0028F8DA72
:10D8D00008BD00BF4026002010B50C46144B186050
:10D8E000144A012114481EF049FFA0B9610CE0035D
:10D8F00041F26F7200238B4208BF824210D24FF474
:10D900007A72002321F070FA014600220B481EF0C3
:10D910004BFF38B910BD0A4A4A2117F0C7FBE5E7AB
:10D920000521F2E7064A4B2117F0C0FBF2E700BFE2
:10D9300040260020B9D80100D8FD0300442600206D
:10D9400074FD030070B50546002403E00D4A9342C0
:10D950000ED80134032C14D80B4B1B5DAB42F8D10D
:10D960000A4B1E6804F01EFF331AEFD5831BEDE748
:10D9700004F018FF054B1860054B1B6820469847BC
:10D98000E7E770BD801A0600E4FD03009026002042
:10D990008C2600201F280CD900F01F00064BD3F85E
:10D9A000043523FA00F010F0010F0CBF0120002015
:10D9B00070474FF0A043F2E70003005070B50546F2
:10D9C0000024264606E0084B185DFFF7E3FFA04061
:10D9D00006430134032C04D80123A3402B42F8D082
:10D9E000F1E7304670BD00BFE8FD030008B511B196
:10D9F00016F050FA08BD16F03DFAFBE770B5054683
:10DA000000240BE0094B1E5D3046FFF7C3FF80F09A
:10DA10000101C9B23046FFF7E9FF0134032C04D8F5
:10DA20000123A3402B42F8D0ECE770BDE8FD0300D2
:10DA300010B5144B1B684BB1134B1868FFF7DEFF92
:10DA4000104B1C68013C1C6024B110BD002017F075
:10DA50001FFBF1E70D481EF0C9FE09E00C4B1968E9
:10DA6000E14001F001010B4B185DFFF7BFFF0134EE
:10DA7000032CEAD80123A340034A12681342F6D0CC
:10DA8000ECE700BF64260020682600206C260020FA
:10DA900094260020E8FD030070B505460E460024DC
:10DAA00005E03146064B185DFFF7A0FF0134032C5B
:10DAB00004D80123A3402B42F8D0F2E770BD00BF89
:10DAC000E8FD03003AB338B50C461346132900D8D5
:10DAD00038BD114A10605B00013B104A1360FFF72C
:10DAE0006DFF0F4B18600025610CE0034FF47A7254
:10DAF000002310F5FA70694121F076F901462A46B3
:10DB000008481EF051FE0028E2D10121024B18689E
:10DB1000FFF7C2FFDCE7704768260020642600207C
:10DB2000942600206C26002008B504481EF05EFEF6
:10DB30000021034B1868FFF7AFFF08BD6C260020DB
:10DB40006826002010B582B016F010F940B100240C
:10DB5000ADF804408DF8064001238DF8053009E04A
:10DB600016F0B2F80028F2D017F092FAEFE717F0AB
:10DB70008FFA0134032C07D801A9094B185D16F060
:10DB8000FFF80028F5D0F2E7064A012106481EF00A
:10DB9000F5FD08B902B010BD17F07AFAFAE700BF38
:10DBA000E8FD030031DA0100E0FD030060B310B5C9
:10DBB00082B0164A106016F0D9F840B1144B1B68B9
:10DBC000ADF804301B0C8DF8063000240EE016F082
:10DBD0007BF80028F2D017F05BFAEFE717F058FA5D
:10DBE00001210C4B185D16F0DFF90134032C08D825
:10DBF000094A01A9074B185D16F05CF90028EFD01F
:10DC0000ECE7002002B010BD0E2070478C260020EB
:10DC1000DCFD0300E4FD030045D90100002800F00D
:10DC200082802DE9F04FD1B004463F4B1B6813F4BE
:10DC3000804F03D03D4B1B68032B0BDC3A4B1B681A
:10DC400013F4804F03D0394B1B68032B2ADC51B0EF
:10DC5000BDE8F08F00230F2B0FD8E25C34490D682C
:10DC6000100959002E5C0FA800F8136002F00F0293
:10DC70000131AA5C42540133EDE70FAA00238DF86D
:10DC80005C3003F1804303F58833D3F80435029206
:10DC9000284A0192284A009242222849042006F08C
:10DCA000F5FDCBE7264BD3F804350D93206802022F
:10DCB00002F47F0242EA0062010A01F47F4142EA73
:10DCC000010CA5882A0292B2E688310289B2277A2D
:10DCD000637A94F80AE094F80B8094F80C9094F826
:10DCE0000DA094F80EB0E47B0B94CDF828B0CDF8DD
:10DCF00024A0CDF82090CDF81C80CDF818E0059335
:10DD0000049741EA1621039142EA152202924CEA55
:10DD1000106001900B4A00920D9B4322074904209A
:10DD200006F0B4FD93E77047AC210020A821002045
:10DD3000B021002054FE030068FE030041FE0300F2
:10DD40000010014070FE030008B5034B53F820306B
:10DD50000846984708BD00BFB0FE030008B5034B56
:10DD600053F820300846984708BD00BFC8FE03009E
:10DD700008B5836803B1984708BD006B003818BF29
:10DD8000012070470369013B13F1030F03D8436976
:10DD90001BB900207047002070470120704708B56C
:10DDA000024601218C3009F06CFE08BD08B50A4618
:10DDB00000230B63022102F18C0009F062FE08BD12
:10DDC00090F82C30022B01D10020704770B5054629
:10DDD00038301DF0F8FB4B01420143EAD064131ABE
:10DDE00064EB0102940044EA93749E0022463318C7
:10DDF00041EB0202D40044EA5374D900C80B40EA54
:10DE00004440E10B2A6A0023994208BF904201D3A3
:10DE1000012070BD0020FCE710B504460023036319
:10DE20000362703004F072FC04F138001DF007FC4E
:10DE300010BD10B5044638301DF001FC00232362EC
:10DE4000E3680BB12046984710BD38B5044600F191
:10DE5000200500F110030FCB85E80F002046FFF7E7
:10DE6000E8FF38BD08B5FFF7E4FF08BD2DE9F8432A
:10DE7000044600F1380528461DF0E1FB04F12006B8
:10DE800004F110030FCB86E80F00636A83EAE3789E
:10DE9000A8EBE378002B4CD0216A4A01CB0E521A32
:10DEA00063F10003980040EA92709600761840F102
:10DEB0000007FB0043EA5673F20016461F4642462F
:10DEC00000233046394620F08FFF06460F46A16AF0
:10DED0004A01CB0E521A63F10003980040EA927097
:10DEE0004FEA820C1CEB010240F10003D90041EA29
:10DEF0005271D000804689468F4208BF864201D3C6
:10DF0000B046B946B9F1000F08BFB8F57A7F14D210
:10DF100021220023C4E91023012384F83830284645
:10DF20001DF064FB18B963680BB120469847BDE843
:10DF3000F883784600F0C0FAAEE74FEAC93141EA0B
:10DF400058414FEAC830064E064A002380194FF068
:10DF5000000646EB010120F047FFC4E91001DBE7B2
:10DF600020A1070040420F0010B5044604F01AFC3F
:10DF7000236B4FF47A7101FB030104F1700004F08C
:10DF8000DDFB23680BB12046984710BD10B5044651
:10DF900030B12246002104F18C0009F072FD10BD61
:10DFA000784600F089FAF4E710B5044630B122460D
:10DFB000032104F18C0009F064FD10BD784600F0E7
:10DFC0007BFAF4E770B50446E0B1256A04F1380045
:10DFD0001DF0F9FA4B01420143EAD064131A64EBD5
:10DFE0000102940044EA93749E002246331841EBE8
:10DFF0000202D10041EA5371D800C30B43EA414306
:10E00000E81A70BD784600F057FADEE738B50446E6
:10E0100090B1C4F880400A4BA367A464094BE36441
:10E0200004F138001DF022FB0546074904F18C007D
:10E0300009F011FD284638BD784600F03DFAE8E7C2
:10E04000ADDD01009FDD010000FF030072DF7047BE
:10E0500073DF704774DF70472DE9F047A2B00646C2
:10E060000F469046314A02F1040900255560D560FB
:10E070002F480378C3EB431C2E4C644414602E4994
:10E08000614491601F2191809181013303F001036C
:10E0900003704FF03C0A5246294613A821F006F8B7
:10E0A00006238DF84F30ADF8486001238DF84A30D3
:10E0B000ADF85C3012AA1892ADF83C60ADF8408023
:10E0C00011970DEB0A021D928DF8783052462946C1
:10E0D000684620F0EBFF02238DF800304A462146C7
:10E0E00013A816F0CBFA90B9104B03F10C02996803
:10E0F000684616F0C3FA68B9104A0C491048FFF791
:10E10000A5FF082809D070B922B0BDE8F08716F045
:10E11000BFFFE9E716F0BCFFEEE70022034908481D
:10E12000FFF794FFEFE716F0B3FFEDE7DC260020E2
:10E13000982600209C260020EC2600207421002038
:10E1400070210020B0F5202F0AD2074BA3FB00233B
:10E15000DB0808B103B90123044A93819160704739
:10E160004FF6FF73F5E700BFCDCCCCCC7421002077
:10E1700008B50121054B1878FFF76AFF18B9002090
:10E1800004F064FF08BD16F083FFF8E7702100205B
:10E1900008B5044B1878FFF75DFF00B908BD16F00D
:10E1A00077FFFBE77021002076DF70477ADF70474A
:10E1B0007CDF704769DF704708B516F069FF08BD5E
:10E1C00008B503F0ABFF08BD00B583B0037823B1F9
:10E1D000012B0BD003B05DF804FB3B214088FFF717
:10E1E000E3FF0028F6D016F053FFF3E7094B1B6856
:10E1F00013F4804FEED0084B1B68032BEADD074B6E
:10E20000D3F80435064A009268220649042006F035
:10E210003DFBDFE7AC210020A821002000100140D9
:10E2200080FF030065FF030000B585B016F004FC15
:10E2300018BB0023039303A9012016F02DFBF8B9A6
:10E24000002300930122114662F307118DF800109C
:10E250008DF801200193ADF808301023ADF80A3095
:10E26000039A69464120FFF7A5FF60B903A816F09D
:10E2700069FB58B905B05DF804FB16F009FFD8E753
:10E2800016F006FFDCE716F003FFEFE716F000FFDD
:10E29000F0E7000000B585B09DF80C30012262F374
:10E2A000030362F307138DF80C3010220F4903A803
:10E2B000FFF77EFF98B97823ADF80430C823ADF896
:10E2C00006300023ADF808304FF4C873ADF80A30BB
:10E2D00001A8FFF76BFF28B905B05DF804FB16F045
:10E2E000D7FEE8E716F0D4FEF6E700BFACFF030068
:10E2F00000B58BB07823ADF80430C823ADF80630F4
:10E300000023ADF808304FF4C872ADF80A20069328
:10E31000079301AA039240F6CD4204924FF4803253
:10E32000059203228DF81820ADF81A308DF81C30B4
:10E33000064B0893064B099303A816F063FD10B92A
:10E340000BB05DF804FB16F0A3FEF9E7C9E101008C
:10E35000B9E101000620704700B587B044F201031F
:10E36000984262D01BD8012836D041F2010398426E
:10E3700076D1474B1B6813F4804F36D0454B1B6852
:10E38000002B32DD444BD3F8043502920191434A0D
:10E39000009263224249012006F078FA25E044F217
:10E3A000020398425CD13A4B1B6813F4804F1CD097
:10E3B000384B1B68002B18DD374BD3F80435106839
:10E3C0000390526802920191364A009269223449C0
:10E3D000012006F05BFA08E02D4B1B6813F4804F18
:10E3E00003D02C4B1B68002B12DC4FF0A0434FF4E2
:10E3F000F032C3F81825C3F80C25EFF3108372B67A
:10E400004DF6AD6C284B1B78002B3ED030BFF9E7A2
:10E41000214BD3F8043502920191244A00926022E4
:10E420001F49012006F032FADFE7194B1B6813F48D
:10E43000804FDAD0174B1B68002BD6DD164BD3F874
:10E44000043510680490506803900291926801921C
:10E45000174A009273221249012006F017FAC4E706
:10E460000B4B1B6813F4804FBFD00A4B1B68002B6B
:10E47000BBDD094BD3F8043501910E4A00927B2293
:10E480000749012006F002FAAFE707B05DF804FB88
:10E49000AC210020A821002000100140440004000D
:10E4A00015000400680004008C21002028000400EE
:10E4B00088000400AC00040000B583B001460023CE
:10E4C0000093054B01936A4644F20200FFF744FFB4
:10E4D00003B05DF804FB00BFA800040010B40346BD
:10E4E000044C006859689A68DB680FC45DF8044BF7
:10E4F000704700BF2C2700200D4B0E4A92E8030006
:10E5000083E8030003F108020B4903C982E8030012
:10E5100093F9062002F00F0242F040029A7193F93B
:10E52000082002F03F0242F080021A72704700BFDA
:10E530002C27002060000010A40000100048704745
:10E540002C27002000231F2B09D8074901EBC3000B
:10E5500000224280426001F833200133F3E7034B8D
:10E5600000221A60704700BF3C2700203C28002092
:10E5700030B405460F4B1B6800240AE01F230E4AE7
:10E5800012F83300A0B102EBC3025288AA4207D0AE
:10E5900001341F2C0BD85A1E002BEFD01346EEE788
:10E5A000054A02EBC30252688A42F1D100E0002022
:10E5B00030BC70473C2800203C27002030B40A4A79
:10E5C00013680A4C04EBC30568806960012104F8F4
:10E5D00033100B441360202B01D030BC704713461E
:10E5E00000221A60F9E700BF3C2800203C270020E9
:10E5F000006F024BC01A18BF012070470429002089
:10E60000F0B414461D46002300E00133072B0ED85A
:10E610001A0108498A5A8242F7D101EB0312D2E962
:10E620000267AF4208BFA642EFD1012000E0002000
:10E63000F0BC70474028002030B4C1698269C388AB
:10E640000D0A0C06C2F30C01994216D25B1A134450
:10E65000A3F50053E41845F10005094A1368591C55
:10E66000116003F00703808A064A190102EB0313C5
:10E670005052C3E9024530BC70475B1A1344E9E7C6
:10E68000C028002040280020C37D002B42D0C37842
:10E690000A7802F0800203F07F0313430B700278C4
:10E6A0000B7803F07F0343EAC2130B700378002B4F
:10E6B00041D030B48378082B14BF002201224B785C
:10E6C00003F07F0343EAC2134B70C58803F0800355
:10E6D000C5F3861423434B708A7802F0030242EAA2
:10E6E0008502D2B28A70057A02F0FC02C5F3C10439
:10E6F00022438A70CB7803F01F0343EA4513DBB251
:10E70000CB70427A03F0E00302F01F021343CB7098
:10E7100030BC7047C3780A7802F0BF029B0103F057
:10E72000400313430B70027903F0C00302F03F0271
:10E7300013430B70B3E770470023032B2CD810B49E
:10E7400002E00133032B23D8144C742202FB034252
:10E7500092F84C20012AF4D1742202FB0342948ADD
:10E76000C2899442EDD10D4C742202FB0342D2883F
:10E770008A42E6D1742202FB0342B2F85C2012B155
:10E78000848AA242DDD10548742202FB030000E026
:10E7900000205DF8044B704700207047842A002059
:10E7A000002300E00133032B13D80B49742202FB32
:10E7B000031292F84C20022AF4D1742202FB0312B5
:10E7C000918A828A9142EDD10348742202FB0300B0
:10E7D00070470020704700BF842A002008B9042039
:10E7E00070470820704700000021164B1B688B42C1
:10E7F00026D90023144A02EBC10252689A421DD95D
:10E8000010B4114A52F8312002EBC30412F833203D
:10E8100082420DD001330C4A02EBC10252689A4287
:10E82000EFD80131074B1B688B4205D90023F2E773
:10E8300060685DF8044B70470020FAE70131D4E7C7
:10E8400000207047C4280020C828002030B58DB0B3
:10E8500005460C462C22002101A820F027FC10239D
:10E860008DF8043002958DF80C4001A801F02CFCC5
:10E870000DB030BD70B58CB006460D4614462C2246
:10E88000002101A820F012FC0F238DF80430ADF810
:10E8900008604FF0000365F300038DF80A308DF82F
:10E8A0000B4001A801F010FC0CB070BD00B58DB09C
:10E8B00010B913F1020F06D1074B186804F0F4FDEC
:10E8C0000DB05DF804FB01218DF804100293039252
:10E8D00001A801F0F9FBEFE7E8280020F8B5069C55
:10E8E000002960D01E460F4615685168D2F808C04E
:10E8F000D368E5602161C4F814C0A361156951694A
:10E90000E5612162002363700278D20922705AB354
:10E910000423BB4249D8E17D41B3037803F07F0370
:10E92000E3700023A3709AB143789B0103F4FE5374
:10E93000827843EA9203E3808378DB0003F01803D4
:10E94000C27843EA52132372C37803F01F03637241
:10E95000002363623378032B21D83278144B53F8A9
:10E960002230E3620020F8BD0123D2E70178C1F331
:10E970008011E170017801F03F01217142B190F9FD
:10E980000130002B02DB0423A370CCE70823FBE754
:10E990000421A1700B44BB42C5D90920E3E77846A6
:10E9A000FFF78AFDD9E70920DDE70920DBE700BF93
:10E9B0004803040070B50C461D4603789BB104263D
:10E9C0003244A26000F10C032360836A6360C36A6F
:10E9D000E36000232374204605F0D6F810B963697C
:10E9E0001E442E6070BD0126EAE72DE9F0418EB08D
:10E9F0000D4616461C46804600282DD0002D2FD0EF
:10EA0000002C31D0636A0233059304F10C00E378E3
:10EA1000002B2DD00121A27801AF3B46082A14BF5C
:10EA20000022012204F085FE0697CDF81C80B2B2C8
:10EA3000ADF820200B9515440C95A3788DF8343053
:10EA4000237B022B16D00023ADF8283005A804F054
:10EA500068FE0EB0BDE8F0817846FFF72DFDCDE7EA
:10EA60007846FFF729FDCBE77846FFF725FDC9E794
:10EA70000221D0E723692BB1236909931023ADF854
:10EA80002830E3E77846FFF717FDF5E72DE9F04179
:10EA900088B004460D46C37D002B3CD0082605FBFC
:10EAA00006F8637AAB4238D0257201AB324602A930
:10EAB0002046FFF77FFF074648BB4DB994F8573013
:10EAC00033B9A369C3F30C03E380012384F85730FF
:10EAD000E37D7BB994F8563063B91DBB206FB4F861
:10EAE0004E10A27823468A1A0146FFF77EFF0123C3
:10EAF00084F8563007992046FFF7C6FD216F32464D
:10EB00004144019820F0A9FA02A805F063F83846BC
:10EB100008B0BDE8F0810C26C1E7B4F84E60A6EB62
:10EB20000806C1E77846FFF7C7FCD7E770B505468A
:10EB30000E4609B100230B6095F85440002104E013
:10EB4000631C85F854300134E4B26B7AA34210D3CD
:10EB50002A6D0123A3401A42F5D121462846FFF72A
:10EB600095FF014628B9002EEAD03368013333609F
:10EB7000E6E7084670BDF0B589B004460E46154676
:10EB800083789A18C37D63B10B239A4221D801ABD5
:10EB900002A92046FFF70EFF074620B1384609B00C
:10EBA000F0BD0F23F1E707992046FFF76DFDE37DE8
:10EBB00043B12A463146019820F04FFA02A805F0E9
:10EBC00009F8EBE723462A4601993046FFF70DFF87
:10EBD000F4E70927E2E7000010B5044690F84C304E
:10EBE000012B0FD103F0DEFD237B012B0ED00B4B4D
:10EBF000D968012384F84830014404F1300003F05F
:10EC00009DFD10BD7846FFF757FCEBE7A17D034B58
:10EC1000DA681B6903FB0121EBE700BFEC28002049
:10EC200030B583B0002403E02846FFF7D5FF013458
:10EC3000032C16D80C4A742303FB042393F84C309E
:10EC4000012BF4D100230193742505FB042501A9B0
:10EC50002846FFF76BFF0428E6D0019B002BE6D087
:10EC6000E2E703B030BD00BF842A002038B5044677
:10EC700090F84C30022B09D1064B1D6803F092FD31
:10EC8000411904F1300003F059FD38BD7846FFF713
:10EC900013FCF1E7EC28002038B5044690F84C301E
:10ECA000022B10D10A4B5D7D5A689B6803FB05253A
:10ECB00003F078FD411904F1540003F03FFD0123F6
:10ECC00084F86C3038BD7846FFF7F6FBEAE700BF02
:10ECD000EC28002010B50446FFF78AFC90B904F137
:10ECE000300003F013FD94F84C30022B0ED0742248
:10ECF0000021204620F0DAF9002084F84C0002F0D0
:10ED0000E1FC10BD206F09F0FEFEE8E704F15400BD
:10ED100003F0FCFCEBE7000030B585B00D4604467F
:10ED2000D0B1E18894F84C30022B19D094F84C30D3
:10ED3000022B1ED02946A06DFFF788FD2046FFF765
:10ED4000C9FF164B1B6813F0040F03D0144B1B684C
:10ED5000032B12DC05B030BD7846FFF7ADFBE0E7D2
:10ED6000637813F0020FE1D00022A08A1FF04AFA64
:10ED7000DCE72046FFF760FCDCE70A4BD3F80435FC
:10ED800094F84C2002950192074A009240F2F31247
:10ED90000649042005F07AFDDCE700BFAC21002025
:10EDA000A8210020001001402401040017010400E4
:10EDB00038B50546002406E02946742000FB0420EF
:10EDC000FFF7AAFF0134032C08D8054A742303FB7C
:10EDD000042393F84C30022BF4D1EDE738BD00BF8B
:10EDE000842A002008B508460021FFF795FF08BDDA
:10EDF00010B58CB0044690F84C30012B0FD1012394
:10EE00008DF80430A36D029303F0CCFC039001A8AD
:10EE100001F05AF92046FFF75DFF0CB010BD7846AF
:10EE2000FFF74AFBEBE708B5037B012B02D0FFF7A6
:10EE3000DFFF08BD0121FFF76FFFFAE708B590F883
:10EE4000553053B1013B80F85530002380F85430E1
:10EE5000034B186804F028FB08BDFFF7E4FFFBE74D
:10EE6000E828002010B582B0234B1B6813F4804FB4
:10EE700003D0224B1B68032B01DC002420E0204B35
:10EE8000D3F804351F4A009240F2E3221E490420C1
:10EE900005F0FCFCF1E71A4BD3F8043501941B4A4A
:10EEA000009240F2E6221849042005F0EFFC184ACF
:10EEB000742303FB042393F84C30012B0CD0013452
:10EEC000032C16D80C4B1B6813F4804FEFD00B4B60
:10EED0001B68032BEBDDDEE7742303FB042393F8AD
:10EEE0004830022BEBD1742000FB0420FFF7A6FF73
:10EEF000E5E702B010BD00BFAC210020A821002032
:10EF00000010014048010400170104005C010400E6
:10EF1000842A002010B582B004460378192B3ED015
:10EF20001A2B1ED0182B01D002B010BD2A4B1B6823
:10EF300013F4804F03D0294B1B68032B05DC0820FA
:10EF4000FFF736FFFFF78EFFEEE7254BD3F80435CA
:10EF5000244A00924FF43D722349042005F096FCA8
:10EF6000EDE71D4B1B6813F4804F03D01B4B1B6850
:10EF7000032B08DC2379012BD6D10620FFF718FFDD
:10EF8000FFF770FFD0E7164BD3F80435174A00920D
:10EF900040F2FA221449042005F078FCEAE70E4B0F
:10EFA0001B6813F4804F03D00C4B1B68032B06DC4B
:10EFB0002379012BB8D10720FFF7FAFEB4E7084BFD
:10EFC000D3F804350A4A009240F20532064904207B
:10EFD00005F05CFCECE700BFAC210020A82100207C
:10EFE00000100140600104001701040088010400C2
:10EFF000AC010400062976D1F0B585B01546067837
:10F00000B20102F4FE5241788478C3781B0443EACB
:10F010000463047943EA042344791C4376B242EA48
:10F0200091012846FFF788FB0746E0B1002E2FDB51
:10F03000C289A98A8A422BD02B4B1B6813F0040F7C
:10F040003ED02A4B1B68012B3ADD294BD3F80435FF
:10F0500002910192274A009240F2856226490220DD
:10F0600005F014FC2CE0204B1B6813F0040F27D094
:10F070001E4B1B68012B23DD1D4BD3F804351F4AA3
:10F08000009240F281621C49022005F0FFFB17E06C
:10F09000002E17DB3D6D25433D65BCB13B78D3B1F8
:10F0A0007B7A5A1C01239340013B9D4217D00021DB
:10F0B00087F854103846FFF739FD3846FFF78CFDC6
:10F0C00005B0F0BDAB8AA7F85C30E3E70321384612
:10F0D000FFF722FEF4E77846FFF7EEF9E0E738465F
:10F0E000FFF786FEECE77047AC210020A821002046
:10F0F000001001400402040017010400D4010400C0
:10F1000038B504460B460978C17000214162996800
:10F110000B2903D8197B49B3012100E0012121709B
:10F120000020A07029B199680731C90801396172BE
:10F1300020720121E17504F10C055969186985E80F
:10F140000300D989A18299692162197FA1751B6A7F
:10F15000E362A26220461EF0FBFF30B1237B012B4D
:10F1600006D0E36A43F02003E36238BD0021D6E70E
:10F170002023E362F9E710B50446808A02F018FE06
:10F1800001281CD1237BE3B194F91620002A1ADB55
:10F19000E27D4AB1022B18D094F90330002B16DB24
:10F1A000A378B3B900200BE0E2780AB9012B12D1A1
:10F1B000237893B9A378042B11D1002000E010200C
:10F1C00010BD1020FCE70720FAE71020F8E7072021
:10F1D000F6E70720F4E70720F2E70020F0E7072032
:10F1E000EEE738B5044603784BB1C388C26981693C
:10F1F000808A06F08DFE054645B9284638BDC269AD
:10F200008169808A06F07EFE0546F5E7E169002205
:10F2100001F00101A08AFFF72DFBEEE72DE9F04197
:10F220008AB007460E4614461D461046FFF7D9FF22
:10F2300050B994F80380B8F1000F08D12B4622464C
:10F2400031463846FFF7D6FE0AB0BDE8F0814046A9
:10F25000FFF7CAFA02460028F6D08DF80480236A28
:10F260000793A38AADF8123005AB2169E06883E803
:10F270000300A37D8DF820300297039623788DF844
:10F280001030E36A0993294601A89047DCE70000A3
:10F290002DE9F04107460D4616464B1EDBB2012B09
:10F2A00010D8B6F5C07F11D8012D13D00024032C3F
:10F2B00024D83E4A742303FB042393F84C305BB1FB
:10F2C0000134F4E77846FFF7F7F8EAE77846FFF706
:10F2D000F3F8E9E70124EAE74FF0740808FB042893
:10F2E0001CB9334BC8F870300AE0304609F007FC0F
:10F2F0002E4B742202FB0434206701E04FF000081B
:10F30000B8F1000F32D0D8F87030002B4BD03B460C
:10F31000424607F1300ED3F800C05C689868D9689F
:10F32000C2F800C054609060D16010331032734551
:10F33000F1D10023C8F85030A8F84E60012D18D044
:10F340006FF00103C8F82830002388F86C30194B9F
:10F35000C8F85C30C8F86480174BC8F83830C8F873
:10F360004080012002F0AEF988F84C504046BDE8DC
:10F37000F081124B1B7D88F85530002388F85630F9
:10F3800088F8573088F85430BA6AC8F85820A8F876
:10F390005C306FF00103C8F82830094BC8F83830EA
:10F3A000C8F84080DDE79846E0E700BF842A0020E7
:10F3B00004290020BBFB0100E5ED0100EC28002042
:10F3C0001FF50100F0B5C7B00F46164682783244EB
:10F3D000C37D2BB14FF48073934279D3002303E0B4
:10F3E0004FF4C073F8E70133032B17D83A4D742458
:10F3F00004FB035494F84C40012CF4D1742101FB1C
:10F4000003518C8A818A8C42EDD1742101FB035116
:10F41000CC89C1898C42E6D1082552E00121FFF751
:10F4200037FF0446002855D032463946006F1FF09A
:10F4300014FE0023459345A92046FFF777FB0546B8
:10F4400008B1042840D1459B0BBB244B1B6813F02B
:10F45000040F35D0224B1B68032B31DDB4F84E70FE
:10F46000802F28BF80270023BB4214D2226FD25C9A
:10F470001C490D68100959002E5C04A800F813609F
:10F4800002F00F020131AA5C42540133ECE720463E
:10F49000FFF7A2FBD9E704AA002302F8173003F113
:10F4A000804303F58833D3F8043502920E4A019263
:10F4B0000E4A00924FF4AD620D49042005F0E6F9C2
:10F4C0000025284647B0F0BD2046FFF703FCF8E7CB
:10F4D0000925F6E70425F4E7842A0020AC21002062
:10F4E000A8210020B02100204802040068FE03008B
:10F4F0001701040070B504460D461646FFF73BFEA3
:10F5000030B923782BB1324629462046FFF75AFFFF
:10F5100070BD324629462046FFF72DFBF8E710B5AF
:10F520000C4691F84C30012B09D108F02BFE50B15C
:10F53000002008F02DFE022384F8483010BD7846E4
:10F54000FEF7BAFFF1E72046FFF778FCF6E7000088
:10F5500000B585B000228DF80F20E8B10B460246B9
:10F5600002320A600DF10F01184604F0DEF89DF832
:10F570000F308BB1174B1B6813F0040F03D0164BE1
:10F580001B68032B0DDC134B1B6813F4804F03D057
:10F59000114B1B68032B10DC9DF80F0005B05DF8C4
:10F5A00004FB0E4BD3F804350D4A009240F21C4286
:10F5B0000C49042005F06AF9E5E7084BD3F8043557
:10F5C000074A009240F21D420649042005F05EF908
:10F5D000E2E700BFAC210020A8210020001001407C
:10F5E00058020400170104002DE9F04391B00546CC
:10F5F0000E4614461F46D0F8188003784BB1C388D6
:10F60000C8F30C029A4230D29B1A4344A3F500532C
:10F61000AB6105F10C00EB7853B30121AA780DF131
:10F6200030094B46082A14BF0022012204F081F859
:10F63000C5F81880CDF810900596AB78E21A92B212
:10F64000ADF8182032440A9209978DF82C30002327
:10F65000ADF82030EB78002B40D02B7B022B09D06B
:10F6600000236B620193029324E09B1A4344CFE78B
:10F670000221D3E71023ADF820302B690793EFE781
:10F680000134012C14D810AB03EB840353F83C0C69
:10F6900070B103A9FFF75CFF0028F1D010AB03EBBA
:10F6A000840454F83C3C6B62002011B0BDE8F08348
:10F6B000019B3BB102AB01AA2979286A10F080FFB7
:10F6C0000024DEE72B7B022B2CD105F10C01E8890D
:10F6D00011F030F80028C0D10520E6E72B7B012B84
:10F6E00001D00520E1E7EB89ADF80430AB8AADF835
:10F6F00006300024012C13D82946002341F8243F6A
:10F7000010AB03EB440333F83C0C10F07EFF03A96D
:10F71000686AFFF71DFF08B90134EBE70020C4E772
:10F720000520C2E70520C0E770B5F0B00E461446CC
:10F730001D4610AB0A4601462046FFF755FF50B163
:10F74000214B1B6813F0040F03D0204B1B68052BC3
:10F750002DDC70B070BD2046FFF743FD0028F8D1C6
:10F7600003AB01228DF80C20A28AADF80E200022F6
:10F7700004928DF8142010AA0692A178711AADF89F
:10F780001C1008AA93E8030082E803000AAB216971
:10F79000E06883E80300A37D8DF83830236A0C937A
:10F7A000636A0D930F9505A800F08EFCD1E7084B16
:10F7B000D3F80435074A009240F20B72064906203E
:10F7C00005F064F8C5E700BFAC210020A8210020A7
:10F7D000001001406C0204001701040010B55478B9
:10F7E00014F0010F03D0D47D14B1FFF717FD10BD45
:10F7F000FFF79AFFFBE7F8B505460E4614461F468D
:10F80000537813F0020F06D13B462246711E681C46
:10F81000FFF7E4FFF8BD0123C9B21EF00DFCF3E7CA
:10F8200038B504460D46CB695B780371CB691B780C
:10F8300083F00103C370CB6943628B8A0B2B07D81B
:10F84000CB7A002B40D10B7B012B02D0002300E0B0
:10F8500001232370002B3CD0287B022836D0FEF7F2
:10F86000BDFFA070AB8A03440B331E4A82FB032307
:10F870005B10013B6372002323720023E37504F1E4
:10F880000C0395E8030083E80300AB6923622B892E
:10F89000A382AB7AA3752B6AA362DF23E3622846B7
:10F8A00011F0BCF820B12B78012B15D0FF23E362B7
:10F8B00020461EF04DFC30B1237B012B0ED0E36AB5
:10F8C00043F02003E36238BD0123C2E7064B987D75
:10F8D000C5E70423A370D0E72023E8E72023E362F1
:10F8E000F1E700BFABAAAA2AEC28002010B54FF41C
:10F8F000E872002115481FF0D9FB06F0D5FA002464
:10F90000134B1C608022214612481FF0CFFB124B84
:10F91000124A1A60124A5A604CF250329A601149E7
:10F92000D9601A6104221A759C7508225A750E480E
:10F9300003F09AFD0D4B18600D4B1C600D4806F04E
:10F94000ADFD0D4802F0E2FB10BD00BF842A00208F
:10F95000C028002040280020EC2800208096980035
:10F96000F049020020A10700ADFB0100E8280020BB
:10F97000C4280020ADE801009021002008B506F061
:10F98000B3FA08BD98B110B58CB00446036983B1D1
:10F99000C36983B1836983B101466846FFF740FFBD
:10F9A000A28A21696846FFF7A5FD0CB010BD0E20A4
:10F9B00070470E20F9E70E20F7E70E20F5E700006C
:10F9C00058B310B590B00A46044643683BB3836908
:10F9D0003BB3014604A8FFF793FB134B1B6813F0DE
:10F9E000040F03D0114B1B68062B06DCA26861686C
:10F9F00004A8FFF77FFD10B010BD0D4BD3F8043500
:10FA00002278A169029101920A4A009240F60D0201
:10FA10000949072004F03AFFE8E70E2070470E205E
:10FA2000E9E70E20E7E700BFAC210020A821002075
:10FA3000001001409802040017010400037B012B11
:10FA400001D00020704730B591B004460D463D4BC3
:10FA50001B6813F0040F03D03B4B1B68032B4ADCDD
:10FA6000384B1B6813F4804F03D0374B1B68032BB4
:10FA70004DDC04A900230593CDF81730E288C2F3CA
:10FA8000861092008DF811202A0E8DF812202A0C73
:10FA90008DF813202A0A8DF814208DF815506278FD
:10FAA000022A0CBF80221A4642EA00028DF810207A
:10FAB0004FF0060209924FF001028DF82C20A28A25
:10FAC000ADF82E200C938DF81C300891226A0D920F
:10FAD0008DF82830E36A0F9325D0E389ADF82A30FA
:10FAE000A37D53BB8DF838306FF0010107A8FFF7F5
:10FAF00067FF11B030BD154BD3F80435144A00929E
:10FB000040F263221349042004F0C0FEA8E70F4B23
:10FB1000D3F80435104A00924FF419720D490420AD
:10FB200004F0B4FEA5E70DF10E0103A810F01EFECF
:10FB3000BDF80C30ADF82A30D2E7084B5B7D8DF86C
:10FB40003830D1E7AC210020A8210020001001406E
:10FB5000C402040017010400D4020400EC280020B1
:10FB600090F84C30022B00D0704710B5044690F846
:10FB70006C30022B00D010BD016DFFF75FFF002835
:10FB8000F9D1002384F86C30F5E7000010B50024AB
:10FB900006E0054B742000FB0430FFF7E1FF013461
:10FBA000032CF6D910BD00BF842A002008B5FFF74A
:10FBB00037F8FFF7EBFF012008BD10B50C4691F8B0
:10FBC0004C30022B06D1022384F86C302046FFF71C
:10FBD000C7FF10BD7846FEF76FFCF4E7F0B583B0C1
:10FBE0000446C5698269C3882F0A2E06C2F30C0534
:10FBF000AB4232D95B1B1344A3F50053F61847F10F
:10FC0000000732463B46A08AFEF7FAFC002840F087
:10FC1000CF802046FEF7C4FD054648B3D0F81CC08F
:10FC20008269C3884FEA1C214FEA0C60C2F30C0CB6
:10FC30009C4515D2A3EB0C031344A3F50053C01845
:10FC400041F10001B94208BFB0420DD38F4208BF55
:10FC5000864242D3284603B0F0BD5B1B1344CDE778
:10FC6000A3EB0C031344EAE705212846FFF754F8F9
:10FC7000E388E269A169A08A06F01CFA002848D14D
:10FC800032463B46A08A1EF0E1FA00285BD108F01C
:10FC900079FA002867D1627A531CE17D002966D089
:10FCA000082202FB03F2002963D04FF480739342D1
:10FCB00062D302212046FFF7EBFA05460028C9D19E
:10FCC00008F060FA00286FD100212046FFF7B6FE49
:10FCD00002210020FEF7BAFDBCE708F053FA40B15C
:10FCE000344B1B6813F0040F03D0334B1B68012BFC
:10FCF00001DC0025AEE7314BD3F80435E2880192F0
:10FD00002F4A009240F23D322E49022004F0BEFDFF
:10FD1000EFE7E388E269A169A08A06F043FA60B1DF
:10FD2000237863B1617A4B1C012199400139204647
:10FD3000FFF784FE2046FFF754FA00258AE778464D
:10FD4000FEF7BAFBEEE723784BB1617A4B1C012139
:10FD5000994001392046FFF771FE00257AE7784681
:10FD6000FEF7AAFBF1E70520FFF722F893E70C2244
:10FD700097E74FF4C0739AE70E4B1B6813F0040F1C
:10FD800003D00D4B1B68002B01DC002562E70B4BF9
:10FD9000D3F8043501920C4A009240F285320949A9
:10FDA000012004F073FDF0E77846FEF785FB8BE752
:10FDB00000254FE7AC210020A821002000100140C1
:10FDC000F802040017010400240304002DE9F047A1
:10FDD00082B007460E46144698461046FFF7FEFED0
:10FDE000002855D005465C4B1B6813F0040F03D068
:10FDF0005A4B1B68032B4EDC574B1B6813F4804F88
:10FE000003D0564B1B68032B53DC08F0BBF90028CA
:10FE10005DD0296D237A01229A40114238D10A43DC
:10FE20002A65A6F1040A237AE27D002A5DD04FF00C
:10FE3000080C0CFB03FC697A8B4259D0002A5CD079
:10FE4000082353455BD1AA69A3699A420BD205F1F5
:10FE50000C0E04F10C09B9E80F00AEE80F0099E8A8
:10FE600003008EE80300286F5246391D60441FF0DE
:10FE7000F4F8637813F0020F46D12E6D2B78002B27
:10FE800049D06B7A5A1C01239340013B9E4246D0D5
:10FE900002B0BDE8F087324BD3F80435227A0192E4
:10FEA000304A009240F2A9322F49042004F0EEFCBF
:10FEB000A2E72B4BD3F80435227A0192294A00920B
:10FEC00040F2AA322849042004F0E0FC9DE72846CD
:10FED000FEF7CCFE2B7B012B9BD195F86C30002BD1
:10FEE00097D12846FEF7D8FE93E74FF00C0CA0E719
:10FEF0000CEB0A03A5F84E30A5E70C23A1E704217B
:10FF00002846FEF709FFC3E701232246F1B238462F
:10FF10001EF092F8B1E77846FEF7CEFAB1E708F0A6
:10FF200031F970B1637813F0020F0FD143462A46BE
:10FF3000B5F84E10286FFFF751FC2846FEF7CAFEB1
:10FF4000A6E7296D2846FFF779FDEBE70122E18856
:10FF5000A08A1EF057F9E9E7AC210020A821002073
:10FF60000010014038030400170104002DE9F0419E
:10FF700090B0002859D00F4614461E468046002AED
:10FF800055D004AB00933346FEF7A8FC054618B1E4
:10FF9000284610B0BDE8F08104A8FFF7ECF805464C
:10FFA0000028F5D1204608F00DF904A81EF0D0F87D
:10FFB00028B19DF8113043F002038DF81130002371
:10FFC0000293039302A9608810F0B4FB28B19DF856
:10FFD000113043F001038DF811302269E168208966
:10FFE00006F020F838B19DF8113003F0FE038DF8CB
:10FFF0001130002BCCD09DF81130002BC8D013F05D
:020000022000DC
:10000000010F01D0039B08939DF8103033B13346A4
:1000100004AA39464046FFF7D9FEB9E7334604AA99
:1000200039464046FFF7E7FBB2E70E25B0E70E255D
:10003000AEE7000020B3F8B50E460546164B1F6824
:10004000032F1FD80024B4420FD205EBC4035B6812
:10005000D3B115F8340015F93430002B16DBB8B1E4
:10006000FEF7C2FBB0B90134EDE70C4B43F8375053
:1000700003EBC7035E600137074B1F60002002E0FF
:100080000E2070470420F8BD0E20FCE70B20FAE795
:100090000F20F8E70F20F6E7C4280020C82800202A
:1000A000084B196861B110B504E0064804F058FB2C
:1000B000214624B10C680B79002BF9D0F5E710BD6F
:1000C000704700BF582C002038B5054630B1104BA2
:1000D0001C68C4B10F4B01221A7004E07846FEF789
:1000E000EBF9F4E724683CB12379002BFAD154F8FA
:1000F000043C28469847F5E7064B1B78022B03D0B3
:10010000044B00221A7038BDFFF7CAFFF8E700BFA2
:10011000582C0020542C002010B5044630B1002388
:100120002372211D034804F0F0FA10BD7846FEF753
:10013000C3F9F4E7582C002010B5044658B10A4B17
:100140001B78013BDBB2012B09D8074B02221A7046
:100150000123237210BD7846FEF7AEF9EFE7211DAB
:10016000024804F0FDFAF5E7542C0020582C00203A
:100170000A8883689B5A07339BB223F00303134416
:100180009BB20288043A934200D900230B80704747
:1001900010B582B004468368C91AADF806100DF197
:1001A0000601FFF7E5FFBDF80630A068184402B06D
:1001B00010BD0088043880B2704743888268D01828
:1001C000D15201238370704782680023937043806B
:1001D00083807047073189B221F0030189B24288D8
:1001E00083889A4204D29B1A99421EDC00207047F1
:1001F00010B59A420FD90488A41AA14217D98B428C
:1002000017D3032C03D98368134404229A70002364
:100210004380184604E0826813449B780BB10420A5
:1002200010BDFFF7D1FF0020FAE70420704700203F
:10023000F6E70420F4E738B504460D468368828863
:1002400013448B4202D07846FEF736F90023AB7098
:10025000211D2046FFF78CFFA288A36813449B78DA
:10026000042B00D038BD0023A380FBE710B50C465B
:100270008368428813448B4202D07846FEF71CF90B
:100280000023A37010BD70B5054614460E46002924
:1002900044D0002D46D0B6F1005F08D94FF080530E
:1002A000D3F80C3103F50023B6EB832F0ED3B6F54C
:1002B000000F08D94FF08053D3F80C3103F50053E9
:1002C000B6EB832F02D37846FEF7F6F8631E33446D
:1002D000B3F1005F08D94FF08052D2F80C2102F53B
:1002E0000022B3EB822F0ED3B3F5000F08D94FF0E5
:1002F0008052D2F80C2102F50052B3EB822F02D3C8
:100300007846FEF7D9F8042C10D92C8000236B8096
:10031000AB80AE60043C3480B37070BD7846FEF7AD
:10032000CBF8B6E77846FEF7C7F8B4E77846FEF7AD
:10033000C3F8EAE738B50446A0B16288A36813445D
:100340009B78012B12D0EFF3108572B6A388A168B9
:1003500019448B78032B0DD02046FFF735FF05B9E4
:1003600062B638BD7846FEF7A7F8E6E77846FEF7AE
:10037000A3F8E8E72046FFF70BFFA368C31A6380E2
:1003800000238370EBE72DE9F0410E461446054645
:10039000D0B1EEB16A88AB6813449B78012B1BD0B7
:1003A00024B32846FFF705FFA04221D3EFF31088BE
:1003B00072B621462846FFF70DFF074680B1B8F117
:1003C000000F16D162B614E07846FEF775F8E0E744
:1003D0007846FEF771F8DDE77846FEF76DF8DFE75F
:1003E00021462846FFF7E9FE3060E8E7092700E0EC
:1003F00009273846BDE8F081F8B50C461546064693
:10040000E0B1FCB1A378012B20D12388AB4221D3EA
:1004100025B3EFF3108772B625800223A370F1187D
:100420003046FFF7A5FE7388B288934203D0B268C6
:10043000134400229A7007B962B6F8BD7846FEF7F9
:100440003BF8DEE77846FEF737F8DBE77846FEF75D
:1004500033F8DAE77846FEF72FF8D9E77846FEF763
:100460002BF8D6E770B50C46054690B1ACB1EFF36A
:10047000108672B6AA88AB6813449A78042A10D002
:100480009A78022A15D0032A18D0052006B962B638
:1004900070BD7846FEF710F8E8E77846FEF70CF8EE
:1004A000E5E7291D2846FFF763FEAA88AB681344D9
:1004B000E6E703229A7023600020E7E77846FDF71D
:1004C000FBFF0020E2E738B5044680B1EFF310856A
:1004D00072B6A088A16801448B78042B0BD0887871
:1004E000022814BF0020012005B962B638BD784645
:1004F000FDF7E2FFEAE72046FFF74AFE0146EEE796
:1005000038B5054678B1EFF3108472B6A888A968AB
:1005100001448878C31EDBB2012B08D82846FFF7B8
:1005200037FE0146F5E77846FDF7C6FFEBE7022800
:1005300014BF0020012004B962B638BD70B50C4666
:10054000064678B194B1EFF3108572B6A378012B0B
:1005500010D0032B13D121463046FFF76CFE05B9AE
:1005600062B670BD7846FDF7A7FFEBE77846FDF76A
:10057000A3FFE8E721463046FFF778FEEFE778462D
:10058000FDF79AFFEBE710B5EFF3108472B683889E
:10059000816819448B78042B06D08878B0FA80F0F3
:1005A000400904B962B610BDFFF7F2FD0146F4E759
:1005B000024B00221A769A60022070475C2C0020C1
:1005C00008B5064B986800221A605A609A60DA6093
:1005D0001A615A619A6105F021F908BD5C2C00206E
:1005E00000B585B00A4BDB6802228DF8002001932C
:1005F0004FF480530293074A6946012001F0EEFA56
:1006000018B9012005B05DF804FB0020FAE700BF2F
:100610005C2C00207A2C002000B585B00A4B1B68AA
:1006200002228DF8002001934FF480530293074A71
:100630006946012001F0D2FA18B9012005B05DF831
:1006400004FB0020FAE700BF7C2C00207A2C00205D
:10065000164BDA68137951795B1A03F57F2303F699
:10066000FF7302EB03339A4205D002F580520F4B21
:10067000DA600320704700B585B00D4B1B68012080
:100680008DF8000001930B4B0393042302930A4A55
:10069000694601F0A3FA18B1002005B05DF804FB2B
:1006A000024B01221A760220F7E700BF5C2C0020E3
:1006B0007C2C0020802C00207A2C002000B585B0F6
:1006C0000C4BDA680C4B1B68043301208DF80000DA
:1006D0000192039340F6FC730293084A694601F0C5
:1006E0007DFA28B90120034B187605B05DF804FBAC
:1006F0000020FAE75C2C00207C2C00207A2C0020C3
:1007000000B585B00A4B1B6801208DF800000193ED
:10071000084B039304230293074A694601F05EFAEB
:1007200018B9012005B05DF804FB0020FAE700BF0E
:100730007C2C0020682C00207A2C002010B584B07E
:10074000104BDA681478104B1B68043301208DF8C5
:1007500000000193039202940C4A694601F03EFAAC
:1007600070B9094B1B6804F0FC041C440434054BAD
:100770005C61D9680A780A441A61012004B010BD8E
:100780000020FBE75C2C00207C2C00207A2C002031
:1007900008B500230A2B09D8064A52F823208242C2
:1007A00001D00133F6E7044A536002E07846FDF7D2
:1007B00083FE08BDF40304005C2C002010B5214B1F
:1007C000DB6853B11F4B1B7E5BB91E4B5B680A2B6A
:1007D00026D97846FDF770FE22E07846FDF76CFEDC
:1007E000F0E77846FDF768FEEFE7164A53680133F5
:1007F00053600A2B21D97846FDF75EFE1DE0114BB0
:1008000000225A6019E00F4B1B7E1BB10D4B0222D8
:100810001A7012E0FFF7D4FE0FE00A4B1B7E83B97B
:10082000084B5A68084B53F8223098470446022870
:10083000E9D00328E3D00128D7D0012CEDD0032C38
:10084000EBD010BD5C2C0020F4030400104B1B689F
:100850001B685A1E12F1030F18D8C3F30B020AB11A
:100860000020704710B50B4AD360002313765376EF
:100870000124147093600848FFF78AFF0749204657
:1008800001F09AF9FFF79AFF204610BD002070474B
:100890007C2C00205C2C0020E1050200A108020055
:1008A00008B50B78032B06D00B4B1B78012B06D019
:1008B000022B0BD008BD084B00221A76F4E7064B3A
:1008C0001B7E002BF6D1FFF779FFF3E70B78032BA4
:1008D000F0D1FFF775FEEDE75C2C002000B585B088
:1008E000174BDB6818784FF6FF7203F580511844F8
:1008F00005F08AFDE0B10246114BD9680B780B4434
:10090000984217D00E4B5B7E83B10E4B01208DF8C1
:10091000000001920393042302930B4A694601F0FD
:100920005DF948B90120064B187606E0074BEDE764
:10093000012002E0012000E0002005B05DF804FB8A
:100940005C2C0020D80604007A2C0020D406040079
:1009500008B5104BDB681878002203F58051184465
:1009600005F052FD08B1012008BD0A4BDA68137981
:1009700051795B1A03F57F2303F6FF7302EB033310
:100980009A4205D002F58052024BDA600320EBE771
:100990000220E9E75C2C0020F0B585B0514BDE6801
:1009A00072793379591E8A4214D006F580510D7838
:1009B0000D444D490968081D0F7907449B1A06EB41
:1009C00003366B88013B9BB247F6FE62934260D9C7
:1009D0002C461AE00120434B58767EE07846FDF71E
:1009E0006BFD15E024F47F6424F00F0404F58054BB
:1009F00023781C44A64247D9A54247D26388013BCD
:100A00009BB247F6FE62934211D92388002BE5D0B2
:100A1000238804EB830323F47F6222F00F029342C6
:100A2000E0D06288B2F5FE4FDCD01C46E2E72546F6
:100A30002FE07846FDF740FD15E024F47F6424F0B4
:100A40000F0404F5805423781C44A64220D9A54203
:100A50003BD26388013B9BB247F6FE62934211D9B9
:100A60002388002BE5D0238804EB830323F47F62E3
:100A700022F00F029342E0D06288B2F5FE4FDCD044
:100A80001C46E2E7254604E0002502E0002500E0E0
:100A90000025E5B1144B19686A8801F58051384684
:100AA00005F0B2FC074690B101200E4B18768DF888
:100AB000000001950D4B0393042302930C4A6946F1
:100AC00001F08CF858B92C46CAE70025E1E7B5FAE1
:100AD00085F56D09034B5D76012005B0F0BD002062
:100AE000FBE700BF5C2C00207C2C0020D00604001B
:100AF0007A2C00202DE9F04186B0644B1B692BB1A4
:100B0000624B5B6933B14FF0000846E07846FDF771
:100B1000D3FCF5E77846FDF7CFFCF4E77846FDF720
:100B2000CBFC15E025F47F6525F00F0505F5805514
:100B30002B781D44AF421CD9AC421ED26B88013BBE
:100B40009BB247F6FE62934211D92B88002BE5D069
:100B50002B8805EB830323F47F6222F00F0293427C
:100B6000E0D06A88B2F5FE4FDCD01D46E2E72C46A5
:100B700000E000241CB100943AE00024FAE70023CE
:100B80000093019B002B5CD14FF00108002C77D023
:100B9000628847F6FF739A4272D0B8F1000F73D1A2
:100BA0003A4B5A6922F47F6626F00F06B61A06F50C
:100BB00080561C69DF683B797A799B1A07EB03370B
:100BC000002301936388013B9BB247F6FE62934288
:100BD000D1D92546B9E77846FDF76EFC23E024F429
:100BE0007F6424F00F0404F58054237823441C46CA
:100BF000A742C6D92388019A02EB83029642C0D944
:100C0000009B634023F47F6323F00F03002BB8D1D4
:100C10006388013B9BB247F6FE618B42B1D80192DB
:100C20002388002BD7D0238804EB830323F47F622F
:100C300022F00F029342D2D06288B2F5FE4FD6D195
:100C4000CDE7124A526901208DF808000392009AFC
:100C5000059204930E4A02A900F0C0FF70B90B4937
:100C6000019B23F003024B6913444B6114B1074B02
:100C70001C618BE77846FDF71FFCF8E7002000E0D9
:100C8000012006B0BDE8F0810120FAE75C2C0020CD
:100C90007A2C002000B585B0274B00221A7040F650
:100CA000F8731B68B3F1FF3F09D0B3F1FF3F0CD0DD
:100CB0007BB1B3F1FF3F37D0A3F580520FE01F4A5D
:100CC0001268B2F1FF3FF0D103E01C4A1268002A1B
:100CD000EFD14FF080514B690A6902FB03F2A2F594
:100CE0008052174B1A60174B1B6813F4801F16D0E5
:100CF000154B1B68062B12DD144BD3F8043540F658
:100D0000F8710968B1F1FF3F13D002920191104AC6
:100D1000009240F276220F49072003F0B7FDFFF75B
:100D200095FD05B05DF804FB044B1A68A2F58052EE
:100D3000D5E702490968E8E7782C00201410001074
:100D40007C2C0020AC210020A821002000100140B4
:100D5000C0030400A703040010B50446B0B1104B53
:100D60001B78BBB10E4BD968E3685879A3EB00320E
:100D7000914211D31A79121A02F57F2202F6FF72FC
:100D800003EB0233994209D8012004E07846FDF7CD
:100D900093FBE4E7002010BD0020FCE70020FAE709
:100DA0005C2C0020024B1878003818BF01207047D7
:100DB0005C2C002010B50446124B1B78BBB923787D
:100DC000032B18D10F4B9C60E268DA600E4B1B7846
:100DD000ABB10A220B4B5A6000221A760120187020
:100DE0005A760A4900F0E8FEFFF7E8FC10BD7846A5
:100DF000FDF762FBE3E77846FDF75EFBE2E70022E2
:100E0000E8E700BF5C2C0020782C0020A10802003D
:100E1000014B1868704700BF7C2C002010B50446B9
:100E200080B163681BB123680BB1A36813B978461E
:100E3000FDF742FBA3685A1E134207D10023E3606B
:100E4000236110BD7846FDF737FBEAE77846FDF7EA
:100E500033FBF3E7F8B500B30F4604468368F3B1FC
:100E6000EFF3108572B60369C268934211D001682E
:100E700042688668013E334003FB021117B13846D1
:100E80001EF0EBF823690133236155B962B6284699
:100E9000F8BD05B962B60525F9E70E25F7E709257E
:100EA000F5E70025F3E700000246C0F30B0040BB66
:100EB00049B310B401F6FF710C0B144B0221C3F8B7
:100EC0000415124BD3F80034002BFAD001460AE087
:100ED0000E4BC3F808250D4BD3F80034002BFAD085
:100EE00002F580520131A142F2D3084B0022C3F82F
:100EF0000425064BD3F80034002BFAD05DF8044BE0
:100F00007047102070470920704700BF00E0014083
:100F100010F0030F2FD110B4044611F0030F2CD1A1
:100F20006AB312F0030F2CD19008174B0122C3F8BB
:100F30000425154BD3F80034002BFAD002E004341A
:100F400004311046421E50B10B68B3F1FF3FF6D09A
:100F500023600D4BD3F80034002BFAD0EFE70A4B97
:100F60000022C3F80425084BD3F80034002BFAD034
:100F70005DF8044B7047102070471020F8E70920F7
:100F8000F6E70920F4E700BF00E00140094B1B78B9
:100F900013F0040F02D00378122B00D07047064BD9
:100FA0001A68064B5A60034B1A786FF382021A7064
:100FB000F4E700BF282D0020182D0020B42C0020BD
:100FC00010B582B001900C46000C012810D12368A6
:100FD000094A136009490B7843F001030B705B0861
:100FE00083F0010303F001031371002002B010BD70
:100FF0007846FDF761FAEAE7182D0020282D002039
:1010000010B582B001900C46000C02280FD1226866
:10101000094B1A6022791A71002058719871D871A1
:10102000064A137843F00203137002B010BD7846ED
:10103000FDF742FAEBE700BF102D0020282D00201D
:1010400010B582B001900C46000C032806D1054B68
:10105000186820601B79237102B010BD7846FDF737
:101060002BFAF4E7182D002010B582B001900C4641
:10107000000C03280CD1084B2068186022791A71E3
:10108000064A137843F001031370002002B010BD2C
:101090007846FDF711FAEEE7182D0020282D0020E4
:1010A00010B582B001900C46000C042805D1054B08
:1010B00003CB2060616002B010BD7846FDF7FCF9FB
:1010C000F5E700BF102D002010B582B001900C464E
:1010D000000C04280BD1084B2068616803C3074A41
:1010E000137843F002031370002002B010BD78465D
:1010F000FDF7E2F9EFE700BF102D0020282D0020BA
:1011000000B583B00190000C032806D1054B0022E6
:101110001A601A7103B05DF804FB7846FDF7CCF94C
:10112000F4E700BF182D002000B583B00190000C3B
:10113000042806D1054B00221A605A6003B05DF8FE
:1011400004FB7846FDF7B8F9F4E700BF102D002046
:1011500000B585B0184B1B7813F0400F0FD0164B1D
:101160001B7813F0040F07D1144B5B6803F5005391
:101170000193B3F1807F06D905B05DF804FB784692
:10118000FDF79AF9EBE70E4B1B788DF808300A4A09
:10119000137843F0040313700023ADF80C300323DD
:1011A000ADF80E3001A9039806F0FCFA0028E3D050
:1011B0007846FDF781F9DFE7282D0020B42C0020C8
:1011C000292D002000B585B00022ADF809200F4B75
:1011D000996801911B7B8DF808300D490B7801331C
:1011E000DBB20B708DF80B30ADF80C200423ADF89A
:1011F0000E300DEB0301039806F0D4FA10B905B0D8
:101200005DF804FB7846FDF757F9F8E7B42C0020A9
:10121000292D002000B585B00F4B9A6801921A7BEA
:101220008DF808201B8AADF809300C4B1B788DF81F
:101230000B300023ADF80C300423ADF80E300DEB6D
:101240000301039806F0AEFA10B905B05DF804FB8F
:101250007846FDF731F9F8E7B42C0020292D00205D
:1012600000B58DB00B4B1B7B012B0ED0094A926849
:1012700004928DF80830039002238DF8043001A801
:10128000FEF722FF0DB05DF804FB024A9268013AB6
:101290000492EEE7B42C002008B51D481D4B0360F6
:1012A00000F034FF1C4B1B7813F0200F2AD103F001
:1012B0000303032B14D1194B1968194A916019794A
:1012C0001173B3F805001082DB79164A1370164AC1
:1012D0001279934217D0B1B9114B00221A6007E07E
:1012E0000F4B00221A609A601A731A82FFF76AFF86
:1012F0000B4B1A685A60084A137843F04003137086
:10130000FFF726FF08BD084B1A68054B1A60EFE788
:10131000042D00208D0F0200282D0020102D00200C
:10132000B42C0020292D0020182D002010B582B0EB
:101330000024ADF800400123ADF80230009806F01B
:1013400062FAADF804400223ADF80630019806F0C9
:101350005AFA02B010BD000008B5002006F07AFA73
:10136000084B00221A605A609A60DA601A61064AD5
:10137000137803F0DF0343F040031370FFF7E8FE38
:1013800008BD00BFB42C0020282D002038B50C4D1E
:1013900000242C606C60AC60EC602C6101F002FAFF
:1013A000084B5860084A9A60084ADA601C615C6120
:1013B000074B1A7864F3C3021A706C6038BD00BF23
:1013C000B42C0020902C00202D15020000879303E0
:1013D000282D002008B50C4B1B7813F0100F00D0FF
:1013E00008BD0A480A4B036000F090FEFFF754FF67
:1013F000FFF79CFF074801F059F9034A137843F0BF
:1014000010031370ECE700BF282D0020A82C00204B
:1014100085160200902C0020034B1878800880F07D
:10142000010000F001007047282D002010B501F0E8
:10143000A3FF174B1B7B1BBB154B9B7B2BBB144B81
:101440001A8A41F282639A4206D8124B1B7813F033
:10145000080F05D0012300E001231BB9082410E088
:101460000023FAE70A4B01221A7300241C829A68AF
:1014700001329A60FFF7A6FE2046FFF7F1FE00E07A
:10148000082401F0BDFF204610BD0824F9E700BF85
:10149000B42C0020282D002010B501F06DFF214B49
:1014A0005B7BABB11F4B9B7B03BB1E4B1A8A41F28C
:1014B00082639A4206D81C4B1B7813F0080F05D0A4
:1014C000012300E001239BB1012302E00023FAE79E
:1014D00000231C460BB3134B00225A731B7B4BB1EA
:1014E000012B0ED07846FCF7E7FF16E00023F0E76B
:1014F0000023EEE7FFF79AFF78B17846FCF7DCFFB0
:101500000BE0084B00201860586018731882FFF732
:10151000A7FEFFF757FEFFF71BFE01F071FF204605
:1015200010BD00BFB42C0020282D002008B52C4B86
:101530001B7BDBB1012B2ED07846FCF7BDFF284A80
:10154000138A01339BB21382264AA2FB03121209AB
:10155000C2EB0212A3EB42039BB2002B3DD0204B07
:101560005B8A13B1013B1E4A538208BD1C4B1A8A89
:1015700041F282639A4206D81B4B1B7813F0080F86
:1015800007D0012300E00123002BD8D0FFF784FF10
:10159000E5E70023F8E7124B1B8A41F2826293428F
:1015A00006D8114A127812F0080F14D0012200E078
:1015B0000122002AC3D042F2B012934202D9084B52
:1015C00001225A73FFF768FF0028C8D1044B5B7BE8
:1015D000012BB4D1C3E70022EBE7FFF71BFEBEE708
:1015E000B42C002089888888282D002010B5244B31
:1015F0001B7B002B35D10446214B5B8A2BBB1AB9D0
:101600001F4B9B688B4205D3FAB11D4B9B6801337E
:101610008B421AD21A4B9B682A338B4223D3184B26
:101620009B7B03BB164B996000221A605A601A829A
:1016300042F6065159825A731A73FFF7C3FDFFF73A
:1016400087FD2046FFF70CFE0DE062B10C4B9B6856
:1016500001338B4207D10A4B01225A73FFF71CFF5B
:1016600001E0012B00D010BD002AFCD1044B9B6887
:101670008B42F8D1024B01225A73FFF70DFFF2E7BC
:10168000B42C002010B50378042B02D0162B11D0F7
:1016900010BD42681278002AF8D08468027E437E2A
:1016A000012A14BF00220122416904F11000FFF752
:1016B0009DFFEDE7037A427AC1680020FFF796FFAD
:1016C000E6E7000008B538B10D4B01229A730D4AC8
:1016D00013680133136008BD0A4B1B685BB1094AEC
:1016E0001368013B1360002BF5D1054B00229A7360
:1016F000FFF7D2FEEFE77846FCF7DEFEEFE700BF2C
:10170000B42C0020842C002000B58DB0ADF808006A
:101710008DF81020039103238DF8043001A8FEF703
:10172000D3FC0DB05DF804FB014B9868704700BF17
:10173000B42C0020054B1B7B012B02D0034B986877
:101740007047024B98680138704700BFB42C0020E6
:101750001D4B1B7813F0400F34D070B504460D4676
:101760001A4B1A685B689A4228D2184B1B7B012BD4
:1017700017D0174B9A4216D2144B1A685B68403B3D
:101780009A4218D2EFF3108672B6104A1368591CA9
:1017900011602B60FFF7CEFF206006B962B6002013
:1017A00070BD0C4BE6E7094B01225A73FFF774FE3C
:1017B0000028E7D1E0E7FFF7CBFCE3E7FFF7C8FC41
:1017C0000F20EDE70F207047282D0020B42C0020BB
:1017D000FFFF7F0000E0FF00044B9B68584010F0C3
:1017E000010F00D0013B1846704700BFB42C002009
:1017F000014B187B704700BFB42C0020F8B5104B8C
:101800001B7813F0200F01D00820F8BD17460C4EAE
:1018100043F0200333700B4DA860297300242C8201
:10182000FFF7D0FC2046FFF71BFD2F606F60337879
:1018300043F040033370FFF78BFC2046E5E700BF21
:10184000282D0020B42C002008B50022FFF7D6FF79
:1018500008BD00002DE9F041002624E02449BC2306
:1018600003FB04F3CA5A0132CA520221284602F08D
:1018700091FD01370221284602F05CFD014679B155
:101880001B4ABC2303FB0423D3F80880B8F1000FE4
:10189000E4D0BC2303FB04F3D25A3046C047DDE753
:1018A00097B90136F6B2022E1FD83446BC2303FB8B
:1018B00006F308330E4D1D4404350221284602F07C
:1018C00039FD01460027DAE7284602F0CBFD08285B
:1018D000E7D1074BBC2202FB0434A368002BE0D005
:1018E0000022044930469847DBE70120BDE8F0813B
:1018F000342D00203004040008B50823837310231E
:10190000437300F11C0343610323037300F11803C5
:1019100003610C3002F078FD08BD000008B50378C3
:10192000012B06D0022B06D07846FCF7C5FD00201F
:1019300002E02B2000E0014808BD00BFCC550100AB
:1019400008B50378012B07D0022B12D07846FCF79C
:10195000B3FD4FF4FA7307E08368591A89082B2303
:1019600003FB01F303F5FA730648984228BF1846B3
:1019700008BD8368591A090B034B03FB01F303F5F8
:10198000FA73F1E760850100CC55010038B50446D3
:1019900001210C3002F0CEFC054678B1084BC4F8AA
:1019A0009C300023C4F8A0306168FFF7C9FFC4F879
:1019B000A800C4F8AC40012384F8B830284638BDEC
:1019C000E11A020010B50446FFF7E0FF20B104F170
:1019D0009C000FF0D9FD00B910BD7846FCF76CFDF6
:1019E000FAE70000F8B505460C4616461768037876
:1019F000012B19D11249A1FB0431C9088B00AC6835
:101A0000E41BB4EB810F00D31C468CB1686827F04F
:101A10000307E968224639443844FFF779FA58B990
:101A200033681C443460F8BD7846FCF745FDE1E7B7
:101A30007846FCF741FDE9E77846FCF73DFDEFE726
:101A400083BEA02FF8B506460C46154617680378E6
:101A5000022B17D1114BA3FB04231B0C1A03B468F0
:101A6000E41BB4EB033F00D314467CB1706827F04D
:101A7000030721463844FFF717FA58B92B681C446E
:101A80002C60F8BD7846FCF717FDE3E77846FCF7D5
:101A900013FDEBE77846FCF70FFDEFE72D57BDBFD1
:101AA00038B505460C4611462378012B06D0022B8B
:101AB0000FD07846FCF700FD002304E0021D20460D
:101AC000FFF790FFA3686868984214BF00200120C8
