:1000000000000420750300005D0300005F03000092
:1000100061030000630300006503000000000000AE
:100020000000000000000000000000006703000066
:1000300069030000000000006B0300006D03000076
:10004000653300006F030000393A00006F030000C1
:100050006F0300006F030000093700006F0300000A
:100060006F0300006F0300006F0300006F030000C8
:100070006F030000593C00006F0300006F03000095
:100080006F030000B11200006F0300006F03000057
:100090006F0300006F0300001D0500006F030000E8
:1000A0006F0300006F0300006F0300006F03000088
:1000B0006F0300006F03000000000000000000005C
:1000C0006F0300006F0300006F0300006F03000068
:1000D0006F0300006F0300006F0300006F03000058
:1000E0006F0300006F0300006D6700000000000058
:1000F000000000006F030000000000006F0300001C
:1001000000000000000000000000000000000000EF
:1001100000000000000000000000000000000000DF
:1001200000000000000000000000000000000000CF
:1001300000000000000000000000000000000000BF
:1001400000000000000000000000000000000000AF
:10015000000000000000000000000000000000009F
:10016000000000000000000000000000000000008F
:10017000000000000000000000000000000000007F
:10018000000000000000000000000000000000006F
:10019000000000000000000000000000000000005F
:1001A000000000000000000000000000000000004F
:1001B000000000000000000000000000000000003F
:1001C000000000000000000000000000000000002F
:1001D000000000000000000000000000000000001F
:1001E000000000000000000000000000000000000F
:1001F00000000000000000000000000000000000FF
:10020000354936480A1A02D0072291438D463449AF
:1002100034480A1A06D00722914381F30988022242
:1002200082F3148830483149314A00F044F83148AB
:100230003149324A00F03FF831483249324A00F041
:100240003AF832483249334A00F035F832483349F7
:10025000334A00F030F833483349344A00F02BF881
:1002600033483449344A00F026F8344834490022EF
:1002700000F02CF833483449002200F027F83348C6
:100280003349091A082902DB002202604160314A21
:1002900090471F481F49884205D00268043003B4C4
:1002A000904703BCF7E700208646EC46002000217B
:1002B000294A9047FEE7884207D0521A05D00378B2
:1002C00001300B700131013AF9D17047884202D0F8
:1002D00002700130FAE770470000042000E00320BC
:1002E0000000042000000420B48C00000000002066
:1002F00078000020D0030000D0030000446E00000E
:10030000B48C00000000002000000020446F0000BA
:10031000446F0000446F0000446F0000446F000011
:10032000446F0000446F0000446F0000B18C000077
:100330002C8D00007800002078000020780000203C
:10034000682B0020682B0020682B0020682B0020E1
:10035000684B00209D030000494C0000FEE7FEE7CB
:10036000FEE7FEE7FEE7FEE7FEE7FEE7FEE7FEE765
:1003700000F002B8FFF7FCBF0F484FF007018843B9
:1003800085460E4880470E48016841F470010160BF
:10039000BFF34F8FBFF36F8FFFF732BF09480A4992
:1003A0000A4A884207D0521A05D0037801300B70F0
:1003B0000131013AF9D1704700000420694E000074
:1003C00088ED00E0446F00000000002000000020E5
:1003D00010DF704713B504460949684601F08AF8F2
:1003E000019808B902B010BDD0E90021204690471D
:1003F00018B1684601F098F8F2E71120F2E700BF63
:10040000B86F000013B504460749684601F072F85A
:10041000019B0BB902B010BD2046D3E900219047E3
:10042000684601F081F8F3E7D06F00000C4991F8BD
:1004300016335A09EC231341DB0706D5094B9A689A
:100440004AB94FF480030B607047074AA12142F27A
:10045000020001F02DB91A6842F480021A60704758
:1004600000E100E098010020446F0000F7B5194F4B
:100470003C7864BB184E012520463570FFF7AAFF73
:10048000112821D02046FFF7BDFF144B8DF8034003
:10049000186801900DF1030001F08CF9104901A8D2
:1004A000FFF796FF0446B0FA80F0400938709DF8D7
:1004B000030001F0AFF93CB90A4B34701C70FFF730
:1004C000B5FF2846FFF79EFF204603B0F0BD082485
:1004D000FAE700BF7900002078000020B46F000028
:1004E000CD1600007A000020014B1878704700BF3D
:1004F0007900002007B50849684600F0FBFF019B22
:1005000013B903B05DF804FBD3E9002090476846B7
:1005100001F00AF8F3E700BFC46F0000FFF7EABF7D
:1005200060DF704769DF704761DF7047F0B51A4BD5
:100530001B7891B06BB3194C194B1A4E1A4FE41A31
:10054000E408240444F0040434250DF1020103A856
:10055000ADF80250FFF7E8FFA0B931462046BDF8DC
:100560000C2002F075FB394601A800F0C3FF029B86
:10057000002BEAD003A8D3E90021904701A800F09E
:10058000D3FFF4E7052804D0084A40F23D1101F0FA
:100590008FF811B0F0BD00BF7B000020C06E0000DE
:1005A000606E0000DC6F000010730000ED6F000053
:1005B00010B50A4B04460A481B1ADB081B0443F01B
:1005C000030024B9074902F03FFB0E2010BD064985
:1005D00002F03AFB054B23600020F7E7C06E0000F5
:1005E000606E0000597000005F7000000000002085
:1005F0007FB5064608460C46FFF7DAFF0546002899
:1006000040F0908001460C2201A804F094FF0123E1
:100610008DF8063022688DF80460062301A9202099
:10062000ADF80830FFF77EFF60B101F00BF8404BEA
:100630004049024640481B1ADB081B0443F00100F6
:1006400002F006FB0C22002101A804F074FF002335
:1006500022688DF8053001A94020ADF80630FFF77B
:1006600061FF60B100F0EEFF314B34490246324881
:100670001B1ADB081B0443F0010002F0E9FA0C220C
:10068000002101A804F057FF002322688DF80430F0
:1006900001A90120FFF746FF60B100F0D3FF244B12
:1006A0002749024624481B1ADB081B0443F00100BB
:1006B00002F0CEFA0C22002101A804F03CFFF8233E
:1006C0002268019301A9A120FFF72CFF60B100F07F
:1006D000B9FF174B1B49024617481B1ADB081B04BE
:1006E00043F0010002F0B4FA0C22002101A804F04A
:1006F00022FF9DF8043022686FF3000301A9A020B7
:100700008DF80430FFF70EFF78B100F09BFF084B27
:100710000D49024608481B1ADB081B0443F0010080
:1007200002F096FA284604B070BD0546FAE700BF0D
:10073000C06E000067700000606E0000AD700000C9
:10074000F97000004571000096710000F7B5076868
:10075000274C0546FFF7E4FE264BE41A2B68E40815
:10076000BB4206464FEA04441FD944F00200224926
:10077000019002F069FA2B68204901983A4602F08C
:1007800070FA4FF080532A68D3F80C311C499B0251
:1007900003F100539A1A019802F05AFAF6B9194B6C
:1007A00001221A70304603B0F0BD44F004003A460E
:1007B0001549019002F04CFA2A68BA42EED013496A
:1007C000019802F045FA4FF080532A68D3F80C31B3
:1007D0000F499B0203F100539A1ADCE7304600F000
:1007E00031FF0C49024644F0010002F031FAD9E72A
:1007F000C06E0000606E0000E97100001872000019
:10080000497200007B0000207372000086720000B5
:10081000B2720000E47200004BDF70471FB50E4C4F
:1008200001A8FFF7F9FF70B9214602A800F062FEA7
:10083000039B002BF4D00198D3E90021904702A834
:1008400000F072FEF4E7052803D0044A6B2100F0A3
:100850002FFF04B010BD00BF947300001C73000094
:10086000C30710B507D4F023054A4008145C2340A1
:100870001943115410BD0901C9B20F23F4E700BF99
:10088000B0000020034B044819680022490800F01A
:1008900031BA00BF800000208800002038B50B4B23
:1008A0001C780B4B196800239C4206DC0949882000
:1008B00004F0C2F90022104638BD11F833508542C9
:1008C00001EBC302F7D00133EEE700BF7C0000204C
:1008D000D0000020A073000013B504460191FFF77B
:1008E000DDFF38B143682BB10199204602B0BDE865
:1008F0001040184702B010BD10B5C0B2FFF7CEFFD0
:100900000446007802F0E8FE63785A1E53425341D1
:10091000834208D1044BD3E90023134303D1BDE83C
:100920001040FFF7AFBF10BDA800002037B5430847
:10093000354AD35CC2074CBF1B0903F00F030446C2
:100940000D46042B35D8DFE803F003252C383C0096
:1009500079B30121FFF784FF00230DF107008DF823
:10096000073000F027FF0120A4F12003C4F120018B
:10097000264A20FA01F100FA03F30B43A040D2E922
:10098000004120430B43C2E900039DF8070000F03B
:1009900041FF0EE0002918BF02212046FFF760FF4B
:1009A00007E041B10321FFF75BFF01212046FFF77C
:1009B00093FF03B030BD0121EFE70029F9D10421F5
:1009C000EBE709B10321E8E7FFF74AFF2946204694
:1009D000FFF782FF0DF107008DF8075000F0EAFEE7
:1009E0000120A4F12003C4F12001084A20FA01F1FA
:1009F00000FA03F30B43A040D2E9004124EA0000CF
:100A000021EA0303BFE700BFB0000020A8000020D8
:100A10002DE9F041124E134F00243378A34208DC35
:100A2000114BD3E90023134318D0BDE8F041FFF781
:100A300029BF3D6805EBC40815F8340002F04CFEF0
:100A400098F801305A1E53425341181A414241410D
:100A500015F83400FFF76AFF0134DEE7BDE8F081E6
:100A60007C000020D0000020A8000020092AF7B553
:100A700005460C4616463CD902F038FDD8B11E4B4F
:100A80001E481D601E4B1F4F1C701F4B0021202253
:100A90001E6004F050FD1D4B00200021C3E9000141
:100AA000013CE4B20326FF2C0BD1194A194800215E
:100AB00000F004F903E002F0DFFC0028DFD003B00F
:100AC000F0BD9DF8063015F834008DF8046005EB94
:100AD000C40223F007038DF8063001A993788DF83E
:100AE00005303A4602F00CFD013CE4B20028DAD0B1
:100AF000E5E70720E3E700BFD0000020B0000020BA
:100B00007C000020F908000080000020A8000020E0
:100B1000110A00001874000070B50B4D2A6822B944
:100B20000A4940F2351004F087F8094E0024337862
:100B3000A34201D8002070BD2B68012113F83400B6
:100B400002F06AFD0134F2E7D0000020A07300003B
:100B50007C000020D0E90223D1E90201994208BFBC
:100B600090422CBF012000207047000008B50B48C0
:100B700000F087FB0A4B0B49D3E900231218D1E997
:100B8000000143F100038B4208BF824203D212F1FD
:100B9000807243F100031046194608BD0000002092
:100BA000D80000205001002037B505460C460A4801
:100BB00001A900F09AFB60B10570446001A90648E4
:100BC00000F0BDFB18B1054800F060FB002003B049
:100BD00030BD0420FBE700BF3C01002000000020E6
:100BE00038B5436904461BB91849A22004F024F81B
:100BF000174B1B7813B90025284638BD237F03F017
:100C0000FF05002BF7D0FFF7B1FFD4E9022399428B
:100C100008BF904214D3236903B92377D4E9053080
:100C2000984721690029E6D0237F03F0FF05002BB8
:100C3000E1D0D4E90223521843F10003C4E90223AE
:100C40000448214600F08CFCD6E700BF1C7400006D
:100C5000E00000209474000013B5114B114918688E
:100C6000019008231048582200F02CFB044698B944
:100C70000E4A0F4801A900F09DF9044660B90C48DE
:100C8000012100F0E5FA01230A4A0948194600F05B
:100C900033FA094B01221A70204602B010BD00BF82
:100CA00090740000E40000203C010020690D000069
:100CB00000000020FFFF7F00E000002070B50C4620
:100CC0001546064620B90A4940F22E2003F0B4FF2B
:100CD00035B940F22F20064903F0AEFF072070BD62
:100CE000621E3368544254415D611C610020F6E786
:100CF0001C74000070B50D461646044620B90D4917
:100D000040F23E2003F098FF237F83B9A661FFF7EE
:100D10002DFF2369401941F10001C4E9020103B12B
:100D2000256121460020BDE87040FFF73DBF00204F
:100D300070BD00BF1C74000010B5044620B9064900
:100D40004FF4157003F078FF00232377214601202C
:100D5000BDE81040FFF728BF1C740000014800F0F8
:100D600090BA00BF000000202DE9F04F85B0064684
:100D700000F072FA40B16A4AD2E9003113F180738F
:100D800041F10001C2E900310021304600F06EFA65
:100D9000E8B1644B1A689846CAB1304600F071FA5F
:100DA00000210746304600F066FA381A20F07F40EE
:100DB000B0F5960F04D35C494FF4957003F03CFFF7
:100DC000D8F80000FFF70CFF0023C8F8003001211D
:100DD000304600F04BFA20B1FFF7C8FE534BC3E991
:100DE00000015348DFF83C81524FDFF8509103A9CE
:100DF00000F0B5FA002846D1DFF83891494FDFF806
:100E000040A1484600F0D8FB3B6800287DD07BB16C
:100E10003B68D0E90201D3E90223994208BF90421E
:100E20002ED23B681B7F1BB13968484600F098FB07
:100E3000484600F0B1FBD0E902B380460193FFF7CA
:100E400095FE019BBBEB000463EB0105012C75F1E2
:100E5000000349DBB4F5350F43D3FFF77FFF364A74
:100E600002444FF496030021504600F073F9002825
:100E700044D13B6813B9304600F022F9C7F800802E
:100E800005B0BDE8F08F0378012B1DD0022B09D1EE
:100E90004FF0000A384600F07FFB00283BD080F876
:100EA0001CA0F7E73BB941680B7F23B901230B77FF
:100EB000384600F055FB03A91D4800F07BFA03A952
:100EC0001B4800F04CFA95E74168D8F80030994289
:100ED00003D10023C8F80030EDE7384600F078FB76
:100EE000E9E7D8F80820BCE70021504600F0B8F93F
:100EF0004046FFF775FE00233B6082E70D28F7D0E0
:100F00000949F52003F098FEF5E7002BB8D13046EB
:100F100000F0E4F8B4E7012389F80030CBE700BF24
:100F2000D8000020580100201C740000500100204F
:100F30003C01002094740000FFFFB400E00000209A
:100F40000000002038B50C46054618B90449B32006
:100F500003F072FE2B68C3F84843C3F8084338BD5A
:100F6000A074000070B50C461646054618B9054930
:100F7000A92003F061FE2B68C3F844430EB1C3F807
:100F8000044370BDA074000037B50C46054618B97F
:100F90000749BA2003F050FE2B68185928B10022E7
:100FA0001A511B590193019B012003B030BD00BFB2
:100FB000A07400002DE9F8430F461546044618B901
:100FC0003449552003F038FE1FB93249562003F04A
:100FD00033FE1DB92F49572003F02EFE63792E4AA8
:100FE0002E4E42F823502E4AB61A2E4A02EBC30365
:100FF000F6081B79360490463BB146F002002A49B8
:1010000001F022FE0820BDE8F8833D88D4F8009066
:10101000B5F5805F04D325494FF4BE7003F00CFE94
:10102000C9F80855BF7894F90450BB1E012B06D9A6
:101030007B1F022B03D91E496B2003F0FDFD002D01
:10104000B6BF1C4B05F1604505F00F054FEA471789
:10105000FFB2AABF05F561455F5585F8007394F9A5
:101060000430002B08DB0122590903F01F0302FAA8
:1010700003F3114A42F82130637908EBC3020121DE
:10108000117146F0030048F833400C4901F0DCFDD3
:101090000020B8E7A074000064010020A06E0000EA
:1010A000606E00005C0100200675000028750000DD
:1010B0005875000014ED00E000E100E08A750000C2
:1010C00010B5044618B90449872003F0B5FD23681C
:1010D00001221A6010BD00BFA074000010B50446C4
:1010E00018B904498D2003F0A7FD236801225A6036
:1010F00010BD00BFA07400002DE9F3410C46164658
:101100001F46804618B91249962003F095FD04F158
:1011100050018900D8F8000089B24FF48035A5400D
:101120000023C0F80853C0F84853435004F5A8748E
:101130004358019326F07F46019B40F82460C0F895
:1011400044530FB1C0F8045302B0BDE8F08100BFB2
:10115000A07400002DE9F74F0D4614469846074647
:1011600018B93949CD2003F067FD4FF4803909FAE9
:1011700005F949463846FFF7E5FE3A6805F150069D
:1011800002EB8500B600B6B2D2F80415D0F84035AF
:10119000C0F840154FF0000B42F806B05B1A9259A8
:1011A000009223F07F43012B009A24F07F444FEA02
:1011B000850A0BD1254B4FF4806043F0010398471B
:1011C0003B6843F806B09B590193019B3868D0F8FF
:1011D0000465C0F84493A31B23F07F43012B1AD16D
:1011E0001A4B05F5A875013440F8254043F001037A
:1011F0004FF4806098473B68D3F804359E4208D18D
:10120000384601224946FFF7ADFE002003B0BDE895
:10121000F08F0D20FAE700EB0A03621EC3F8404589
:10122000D0F80415C8F1FF18521A22F07F4208F5D1
:101230007F489045EDD3002AE2D10134C3F8404500
:10124000D0F804359942DAE7A0740000A0750000D8
:101250000A460221FFF786BE4FF48271FFF794BE63
:101260004FF4803303FA01F1FFF76CBE503189006F
:1012700089B2FFF789BE036801F5A87153F8210010
:1012800070470368D3F804057047000090F90430F4
:10129000002B09DB5A09012103F01F0301FA03F3B4
:1012A0004032024941F82230704700BF00E100E0BF
:1012B000024B034A1B681068184700BF64010020F6
:1012C0005C01002010B561B1B2FBF3F403FB142400
:1012D000A4B244B9C0E9001484608281C38120466D
:1012E00010BD0E20FCE70920FAE737B550E8013FB2
:1012F0009DB2C48925448489A54228BF2D1B048939
:10130000A54202BFBFF32F8F002207E0C5EA030505
:1013100040E80154002CE9D14FF001028DF8032080
:101320000193019B9DF803200B6002F0FF0322B1A3
:101330000B880068184403B030BD1846FBE70A88E4
:101340004B889A4209D150E8012FC2EA024240E894
:101350000123002BF7D1012070470020704737B5DB
:1013600050E8023F1FFAA3F5C488A54202BFBFF3AD
:101370002F8F00220DE0C48925448489A54228BF0F
:101380002D1BC3EA054540E80254002CE8D14FF07C
:1013900001028DF803200193019B9DF803200B604F
:1013A00002F0FF0322B14B880068184403B030BD3F
:1013B0001846FBE70A884B889A4209D150E8022F69
:1013C000C2EA224240E80223002BF7D101207047F5
:1013D0000020704710B5034653E8000F0A4643E863
:1013E000002494F0000FF7D110BD10B5034653E868
:1013F000002F42EA010043E8000494F0000FF6D108
:1014000010BD10B5034653E8000F00EA010243E89F
:10141000002494F0000FF6D110BD10B5034653E838
:10142000002F02EB010043E8000494F0000FF6D116
:1014300010BD10B5034653E8002FA2EB010043E8AE
:10144000000494F0000FF6D110BD0121FFF7CDBFCD
:101450000021FFF7D6BF41DF70470000064B10B5F3
:1014600000241C70054B1C60BFF35F8F04490548C6
:1014700000F040F8204610BD7001002074010020EB
:10148000207600006801002013B500230DF107004D
:101490008DF8073000F08EF9F1EE104A24F09F032A
:1014A000E1EE103ABFF35F8F104B4022C3F8842166
:1014B0009DF8070000F0AEF9630703D00C497D20CA
:1014C00003F0BAFBFFF710F858B1FFF7C4FF30F094
:1014D000020304D006494FF4B07003F0ADFB02B034
:1014E00010BD20BF40BF20BFF9E700BF00E100E012
:1014F000A675000038B50D46044618B909495020B4
:1015000003F09AFB1DB90749512003F095FB2B68A6
:101510006A686360934208BF0023256008BF636068
:1015200038BD00BF2C76000010B5044618B90B4931
:10153000632003F081FB23681BB90849642003F092
:101540007BFB636843B12268916852680B44934205
:10155000636004BF0023636010BD00BF2C760000F1
:1015600070B50C46064618B90A493A2003F064FBE8
:101570001CB908493B2003F05FFB7568286818B167
:10158000B3682146984718B92B6823602C6070BD5A
:101590002D68F3E7AF76000010B5044618B9054989
:1015A000512003F049FB6368186808B102681A60AB
:1015B00010BD00BFAF76000010B5044618B903494E
:1015C0005D2003F039FB6368186810BDAF7600003A
:1015D00038B50C46054618B90A49692003F02CFBBA
:1015E0001CB908496A2003F027FB6B68186820B112
:1015F000A04203D102681A60012038BD034600688A
:10160000F5E700BFAF76000010B50D49A1F5947263
:10161000914201D800200FE08C1AE30F03EBE403A2
:101620005B1002EBC30452F83330834205D802D278
:1016300004F10802ECE7606810BD2146E8E700BF4E
:101640001C7C000008B5FFF7DFFF024B002808BF35
:10165000184608BDE07A000082B001238DF80730FB
:101660009DF80730114B1860596044F2010188421F
:101670009A6012D044F20201884206D1DA60DA6838
:1016800012689A61DA685268DA6172B69DF80730BA
:10169000002BFBD162B602B070471A611A699268DA
:1016A0005A611A6912689A611A69ECE77801002098
:1016B00000B583B002900091019244F2010071469E
:1016C0006A4600F003F803B000BD0000F0B506461E
:1016D00087B00F46154672B601F000FB01F05EF9C7
:1016E0000028FBD1234B244CE41AE40844F2010304
:1016F00024049E4244F001042AD00BD8012E14D0B9
:1017000041F201039E4221D01C493A46204601F095
:101710009FFA0EE044F202039E42F5D1D5E9003271
:101720001749204601F09DFA03E01649204601F0D2
:101730008BFA154B1B68DB0700D500BE2A463946DD
:10174000304607B0BDE8F040FFF786BF0F49EDE730
:10175000AA6805921046FFF775FF29680297019164
:101760006968009103460A49059A204601F083FA08
:101770000849DBE7606E0000906E0000AF7C00005F
:101780005B7C00001C7C0000F0ED00E0397C000078
:10179000757C00009B7C0000EFF30583C3F3080316
:1017A0002BB9EFF31480C04300F001007047012013
:1017B0007047000070B50446FFF7EEFF012803D024
:1017C0001049432003F038FAEFF3108672B60E4A40
:1017D0009068012398B993600C4B0D4DD3F880109D
:1017E00029401160C3F88050D3F8841051604FF045
:1017F000FF32C3F88420207006B962B670BD237032
:10180000FAE700BFC77C00009801002000E100E07B
:10181000FC06FFBD10B50446FFF7BEFF012803D04C
:101820000949512003F008FA084B9A685AB154B993
:10183000EFF3108172B6064A18681060586850605D
:101840009C6001B962B610BDC77C00009801002001
:1018500000E100E010B50446002834D003681BB94D
:101860001A49FF2003F0E8F9636823B917494FF4D8
:10187000807003F0E1F9A36823B9144940F2011024
:1018800003F0DAF9E36823B910494FF4817003F0EB
:10189000D3F9238A23B90D4940F2031003F0CCF9A0
:1018A000D4E9012321689B1ADBB20A60013BDBB259
:1018B000FF2B226802D10020107110BD1168481C56
:1018C00010600B70F2E70E20F7E700BF3F7D0000CD
:1018D00037B5044620B913494FF4927003F0ACF9C0
:1018E00000250DF107008DF80750FFF763FF226810
:1018F0006368116899420ED9481E106011F8015CA6
:10190000E368218A01FB0535A36811791B1ADBB254
:10191000994238BF13719DF80700FFF77BFF2846F7
:1019200003B030BD3F7D000037B50C46054620B9F9
:10193000104940F2471003F07FF924B90D494FF4E4
:10194000A47003F079F900230DF107008DF807303A
:10195000FFF730FF2A681368591C1160E968641AA0
:10196000298AB4FBF1F41C709DF80700FFF752FFC1
:1019700003B030BD3F7D000010B5044618B90649DC
:10198000312003F059F9A2682AB1636921682069FE
:1019900098470023A36010BDA97D00000EB433B5A5
:1019A000059D044618B91149422003F045F96369C1
:1019B0001BB90E49432003F03FF923681BB90B49BB
:1019C000442003F039F963681BB90849452003F046
:1019D00033F935B106AB01AA29462046019300F040
:1019E00071F802B0BDE8304003B07047A97D000037
:1019F000826830B40468551C8560A154D0E9013276
:101A00009A4202D330BCFFF7B7BF30BC704700002A
:101A10002DE9F84F9846DDE90A43154682460F4600
:101A20000A464FF00109AA420FD2C14538BFC1464C
:101A300013F0010B01D16CB900240126B8F1010F9C
:101A40001BD908F1FF386E43F8E709F10109B2FB31
:101A5000F5F2E8E79B070ED5B8F1000F0CBF302672
:101A60002026A145E9D2013C31465046FFF7C0FF90
:101A7000002CF6D1E0E72026F3E7B7FBF6F39D4212
:101A8000E1D9DFF83C80B7FBF6F3504618F80310B5
:101A900006FB1377FFF7ACFF3346AB42B6FBF5F618
:101AA000F1D2BBF1000F02D00CB1A14501D3BDE8CA
:101AB000F88F20215046013CFFF79AFFF4E700BF62
:101AC000707E00002DE9F74F88461746054620B97D
:101AD000B14940F2522003F0AFF86B6923B9AE4927
:101AE0004FF4157003F0A8F82B6823B9AA4940F207
:101AF000552003F0A1F86B6823B9A74940F256209E
:101B000003F09AF8B8F1000F00F0428118F8011BB9
:101B100049B92B7B002B00F03B81284603B0BDE880
:101B2000F04FFFF729BF252940F0B780002698F82D
:101B300000302D2B424608F1010823D0302B24D051
:101B40002B2B25D000242A2B02F1010123D13B6845
:101B50001A1D1B683A601C440A4613782E2B26D1A6
:101B600001324FF0000A104610F8011BA1F1300CB1
:101B7000BCF1090F1DD80A2303FB0A13A3F1300A95
:101B80000246F0E746F00106D1E746F00206CEE74E
:101B900046F00406CBE711F8013CA3F13000092818
:101BA000DBD80A2202FB0434303C0A46CBE74FF074
:101BB000000A12F8011B01F0FB0068289046F8D0DB
:101BC000782909D86F290CD8632962D022D8252911
:101BD00063D0582900F0888098F80030002B95D108
:101BE00097E770390829F7D801A353F821F000BF0F
:101BF0006B1D0000D91B0000D91B0000F91C000060
:101C0000D91B0000D71C0000D91B0000D91B000005
:101C1000E91C0000642901D06929DDD13A68D2F8B5
:101C20000090111D89EAE9723960A2EBE9724FF068
:101C3000010B092A35DCD34538BFD3462CB1B9F1A5
:101C4000000F01DB720700D5013CB30702D5BAF1E2
:101C5000000F03D0F00701D44CBB0024B9F1000FF2
:101C60002DDAC9F100092D212846FFF7C1FE06F043
:101C70000302022A04D1BAF1000F01D11CBB0024D7
:101C8000CDE9004653460A2249462846FFF7C0FEE2
:101C9000A2E73B681A1D19783A602846FFF7A8FEAC
:101CA0009AE70A230BF1010BB2FBF3F2C1E7A3455C
:101CB000D4D220212846013CFFF79AFECCE77107D9
:101CC000D5D52B21D0E7A345DAD230212846013CD7
:101CD000FFF78EFED2E73968CDE900460A1D3A606B
:101CE00053460A220968D0E739680A1D3A60CDE9EF
:101CF000004653461022F5E73B681A1D3A6016F07D
:101D00000106D3F8009028D1B9F1000F03D048465E
:101D100003F066FC0646B44200D904BB09F1FF3962
:101D200019F8011F00293FF457AF2846FFF760FE5E
:101D3000F6E728460136FFF75BFE19F80610002982
:101D4000F7D1A642BFF448AF002C3FF445AF2021A5
:101D50002846013CFFF74CFEF3E70026EDE7202183
:101D60002846013CFFF744FED5E73B681A1D3A6060
:101D7000302128461C68FFF73BFE78212846FFF7F4
:101D800037FE00220823CDE90032214610227CE7ED
:101D900003B0BDE8F08F00BF097E00002DE9F74FCA
:101DA00099469DF83030009388469346064618B908
:101DB0002349B62002F040FFF18872794A43043A81
:101DC0004A4505D81E490192C42002F035FF019A08
:101DD000DBF80070B6F806A007EB0901914209F1A3
:101DE000040488BFA2EB0907B4FBFAF5CBF8007036
:101DF0000AFB154445B9AAEB040BBB4528BFBB46FB
:101E00002FB903B0BDE8F08F3668013DF2E7009BC3
:101E1000043408EB050034445A466BB12146A7EB65
:101E20000B0703F05FFBBA455D443668D3464FF0BD
:101E3000000428BFBB46E3E701462046EFE700BFAA
:101E4000807E0000FFF706BDF8B546790146721E98
:101E50000546002393422D6803D30024A64202D8EE
:101E6000F8BD0133F6E70F682846FFF75DFD013442
:101E70003946F3E72DE9F843068ACD1C0746FFF7FC
:101E800027FD043E35440446B5FBF6F5F0B14FF4AA
:101E90008073EDB28380C680013D076081464FF0BC
:101EA0000008A84512D23846FFF712FD064648B191
:101EB00063790133637108F10108C9F80000076014
:101EC0008146EEE72046FFF7BFFF34462046BDE8D7
:101ED000F88301210430FFF7A0BA10B501210446B0
:101EE0000430FFF7A6FA10F0FF0F04D12046BDE83A
:101EF0001040FFF7A9BF10BD1FB514460392002282
:101F0000009203AAFFF74AFF039BA34203D00349B1
:101F1000F62002F091FE04B010BD00BF807E0000EC
:101F20001FB5144603920122009203AAFFF736FF61
:101F3000039BA34204D003494FF4807002F07CFE5F
:101F400004B010BD807E000002681368526893429E
:101F500091BFD01A80680130801888BFC01A7047BE
:101F600038B50C46054618B90449832002F064FED2
:101F7000AB68A3428CBF601C002038BDEA7E000025
:101F800038B5044618B90749982002F055FE236871
:101F900020461D685968FFF7E3FF431B584258412C
:101FA00038BD00BFEA7E00002DE9F3410D4604462E
:101FB00018B92F49A32002F03FFE1DB92C49A420D7
:101FC00002F03AFE00230DF107008DF80730FFF70D
:101FD000F1FB2046FFF7D4FF074610B1237C002B0E
:101FE0003DD1D4F800802046D8F80460D8F8041019
:101FF000FFF7B6FFC8F804002FB1276820463968FC
:10200000FFF7AEFF3860E2686068531E072B20D8E8
:10201000DFE803F004101F141F1F1F182B788355CF
:102020002046FFF791FF23689A68824200D29860A9
:10203000002415E02B8820F81630F1E72B6840F8D3
:102040002630EDE7D5E9002300EBC600C0E9002308
:10205000E6E7294606FB020003F044FAE0E7042421
:102060009DF80700FFF7D6FB204602B0BDE8F081DF
:10207000EA7E0000836800225A60C3E904229A6065
:10208000DA601A6070476DDF704779DF70477DDF77
:10209000704764DF70472DE9F04F85B000250E9C36
:1020A000BDF83CB0B4F800A00191074690461E462A
:1020B000A9463A884A450DDC45B12388013BA3EB8C
:1020C0000A039BB2FF2B3AD806F80A30002005B06D
:1020D000BDE8F08F7A6852F82900039000220DF1D4
:1020E0000B0103A8FFF7D5FF0028F0D19DF80B20C6
:1020F000424521D12288002D14BF0020022002EB8E
:102100000801014459451ADC3DB9013292B2019BE4
:102110002280B35422880132228022880DF10B01E3
:10212000324403A8FFF7B5FF0028D0D121889DF8DD
:102130000B200A442280012509F10109B9E70C208E
:10214000C5E72DE9F341089FBDF824801546CDE988
:102150000078022204461E46FFF79DFF50B9334621
:10216000102229462046CDE9087802B0BDE8F041AA
:10217000FFF791BF02B0BDE8F0812DE9F04F0023D9
:102180001788138090F82D3085B006460D4614460A
:1021900053B3082F01D80C2027E102A8FFF773FFE3
:1021A000002840F0228123880822EA542388013342
:1021B0009BB21B222380EA542088013080B2208009
:1021C00006220DF10901284403F08CF923889DF8BB
:1021D000082006339BB212F0FE0218BF01222380B2
:1021E000EA54238801332380B378FBB12388043376
:1021F000BB42D0D802A8FFF748FF002840F0F58086
:1022000023880322EA54238801339BB219222380B6
:10221000EA542388BDF8082001339BB2E9182380D3
:10222000EA54120A4A70238802332380F2789AB162
:102230002388D91CB942AED80221E954238801333E
:102240009BB201212380E95423880B449BB2238055
:10225000EA5423880B4423807268AAB12388D91CCE
:10226000B94298D8022192F90020E9542388013319
:102270009BB20A212380E954238801339BB2238037
:10228000EA542388013323803389002B40F0A18056
:10229000338A5BB1CDE900472B460722032106F1C3
:1022A0001000FFF74EFF002840F09F80338B5BB19A
:1022B000CDE900472B461522142106F11800FFF73F
:1022C00040FF002840F09180326A002A40F0908060
:1022D000D6F82480B8F1000F30D0B8F80430218847
:1022E000981C8A1C0244BA423FF655AFFE283FF6BE
:1022F00052AF03336B54238801339BB2FF222380F8
:10230000EA54238801339BB22380B8F80020EA54B2
:10231000E918120A4A702088023080B22080B8F88A
:1023200004205AB1D8F8081000296BD0284403F0D3
:10233000D9F82388B8F804201344238096F82C3069
:10234000002B40F09A80307800284ED03388012B43
:1023500058D0228802F1020CBC453FF61CAF012880
:1023600005D17378023313449F42FFF414AF023F48
:10237000BF1ABFB202A905EB0C00ADF80870FFF759
:1023800086FE90BB3178BDF80830022900F0BA8093
:1023900072789A4202D3BB4240F2B280012940F0E7
:1023A000B380974293B2C0F0AF80ADF808300821F7
:1023B000BDF80830FE2B3FF6EEAE22880133AB5459
:1023C0002288013292B22280A954228813442380A9
:1023D0000BE0CDE900472B460622022106F108005A
:1023E000FFF7AFFE00283FF453AF05B0BDE8F08F14
:1023F000B4F800C00CF10603BB423FF6CCAE118826
:10240000052901D80720F0E76FF4486E01EB0E03B1
:102410009BB24FF27D3E7345F4D95388052BF1D919
:102420006FF44860181880B27045EBD94FF6FF7012
:10243000814203D0834201D09942E3D8052305F8B5
:102440000C30238801339BB212212380E954238866
:1024500001339BB223801188E954E818090A4170BE
:10246000238802339BB223805288EA54E918120A67
:102470004A702388023323802AE7B36A002BC1D035
:102480004FF000094FF00C0A4FF0160B96F82C3065
:102490005FFA89F293427FF656AFB16A0AFB02F205
:1024A00001EB0208B8F80430981CFE283FF673AE22
:1024B000208803332B54238801339BB2238005F8F3
:1024C00003B0238801339BB223808A5AEA54E91867
:1024D000120A4A702088023080B22080B8F80420A6
:1024E0005AB1D8F8081000298CD0284402F0FAFF1D
:1024F0002388B8F804201344238009F10109C5E7B3
:10250000092155E7BB42FBD9ADF808704FE770478A
:1025100007B5044B0093044A402300F032F803B09F
:102520005DF804FB2D250000A50100202DE9F843EE
:1025300088461446B2B10F4B0F4E0325002743F0D7
:102540000109224608EB0701002002F09DFE074426
:10255000241A48B933782BB14FF47A40C847013D6B
:1025600002D13570BDE8F88301233370002CE8D127
:10257000F8E700BF607F0000A4010020704702F070
:10258000B7BEF0B595B01D46164608460C46FFF797
:10259000A0FC1A9B0D93CDE9086500252B46082267
:1025A00005A920460A958DF82C500C95FFF7B8FC2C
:1025B000079B0293069B03939DF814308DF81150EE
:1025C00003F00302012A1DD1BDF81420059DC3F3B9
:1025D000C203C2F383168DF81030B20008230EA98F
:1025E0002046FFF79DFCC5F3952508AB00933246C6
:1025F00002AB0EA9284600F0E5FB2046FFF76DFC74
:1026000015B0F0BD022AF8D1BDF81650C3F3C203CD
:10261000C5F389158DF810300827082D2E4628BFE0
:1026200008263B4632460EA92046FFF779FCAD1B33
:1026300008AB02AA31460EA8374400F027FC002D53
:10264000EBD1DAE77047000007B5044B0093044A6A
:102650004023FFF796FF03B05DF804FBBD260000A2
:10266000E601002030B5114D0FCD89B06C460FC486
:1026700095E80F0084E80F004FF0FF330622CDE904
:102680000023CDE902330A484FF0EB73002269467C
:10269000069301F085F918B1064A4321FFF708F8BF
:1026A000054B00221A7009B030BD00BFEC7F00005E
:1026B00008000020747F0000E501002038B50E4BB3
:1026C0000E4D002018700E4804782D5DD2B21C46C5
:1026D00075B1043001F0F6FF18B10A4A5321FEF734
:1026E000E7FF094B1A7812B12378002BFBD038BDD5
:1026F0000C3001F021FDEFE7260200209C080020AD
:1027000008000020747F0000E501002008B508489B
:10271000084A0378D35C33B1043001F04FFFBDE8C1
:102720000840FFF79FBF0C3001F0A8FCF7E700BF9F
:10273000080000209C080020FFF794BF08B5FFF7B1
:102740001EFF0E48042100F0A7FA002803DA0C4906
:10275000412002F071FA0B4B01225A71FFF7ECFF96
:102760000948042100F098FA002803DA04494820B7
:1027700002F062FA054B01225A7108BDE86E0000B2
:10278000188000001C000020F86E000024000020CB
:10279000037813F0040216D003F00303012B03D0D7
:1027A000022B09D0012070470A6800880232C0F36A
:1027B000831002440A60F5E70B684288023303EB9A
:1027C00092130B60EEE71046704700002DE9F04FC2
:1027D00087B000230446861C0DF107000F461546FE
:1027E0008DF80730FEF7E6FF424A5168396093687A
:1027F00003F580735B1A924602F21C4702F5836967
:1028000002F21448B3421AD30020002D6DD004F018
:102810000F039B0143F0050363F30F00DAF8043064
:10282000DAB203321E444AF822009DF80700CAF8C3
:102830000460FEF7EFFF012007B0BDE8F08F012133
:102840003846FEF7EAFD4846FEF7FFFD4046FEF734
:10285000FCFDDAF808000290C0B203300AEB8000F9
:1028600002A9FFF795FF029B8346B8B9DAB20AEBDB
:102870008202D16803919A1C0133DBB20AEB830315
:102880000292D86801F00303012B26D0022B07D057
:1028900019494FF4C27002F0CFF90BE0D8B2DCE76F
:1028A000BDF80E30C3F3891303334FEA104B02EB2C
:1028B000930302934046FEF7CBFD10B1029BCAF88A
:1028C000083059463846FEF7A8FDDAF80830DAF83D
:1028D000042003F580739B1A94E7BDF80C30C3F312
:1028E00083134FEA104B1344E3E7A40544F00600BA
:1028F00094E700BFF8020020B2800000064B0748B2
:1029000010B501221A70FFF79DFA044610B9044869
:10291000FFF7B0FB204610BDF8020020086F000052
:102920003881000030B50A4C71B10A4A0A49121BBD
:10293000D20800239A4201D1002030BD31F8235043
:10294000854202D00133F5E7034654F83300F4E73B
:10295000606E0000E86E000000000020094B0139A5
:1029600003EBC000032909D8DFE801F00A020406DE
:102970000420704700797047407970470020704705
:1029800002207047606E0000034BD3E90130C31A88
:1029900058425841704700BFF80200202DE9F0412D
:1029A00086B0FFF7F1FF0546002840F0E680744C42
:1029B000C4F81804BFF34F8FA3680293DBB203334C
:1029C00004EB830002A9FFF7E3FE029B18B1D4F8E1
:1029D0001824002A55D0DAB2991C013304EB820284
:1029E000DBB204EB8303D268DB68049302F00303D9
:1029F000022B039202914FD1BDF80E306148C3F310
:102A00008917502F3E4628BF502666F38F1306F1D4
:102A10000801ADF80E30FFF72DFA0546002800F04A
:102A20009780FFF756FA002303A908222846FFF7EC
:102A300063FA0299CB43DBB20133C9B20331B6EB7F
:102A4000830F4FEA830804EB810122D90823424611
:102A5000A6EB08062846FFF74FFAF6B24A4908F1F6
:102A6000080332462846FFF747FA029B033703EB79
:102A700097070297D4F81834002B41D1D4F810648A
:102A800051E062689A4299D8A260284606B0BDE833
:102A9000F08108233246E5E7012B59D1BDF80C300F
:102AA0003848C3F38311062928BF062161F389132F
:102AB00002318900ADF80C30FFF7DCF9054600283B
:102AC00046D0FFF706FA0023082203A92846FFF79D
:102AD00013FA0026BDF80C20C2F38312B30096420D
:102AE00003F10803C6D202994A1CC9B2033102920B
:102AF00004EB810104222846FFF7FEF90136E9E7DD
:102B00002846FFF7EAF9FFF73FFF80F00100C5B262
:102B1000BBE7F3685B7923B1336829461B6830460D
:102B20009847F3681E68002EF3D12846FFF7D5F9C1
:102B30000DF107008DF80760FEF73CFED4F818345D
:102B40000BB9029BA3609DF80700FEF763FEDAE76E
:102B5000D4F8104454B90D4B0D480E49C01AC008A2
:102B6000000440F0020000F06FF8CCE72368204634
:102B70009B689847E3681C68ECE7002585E700BF81
:102B8000F8020020086F000004030020606E0000BF
:102B9000906E0000238100002DE9F34704460F46A4
:102BA000914601A9012218461E46FFF70FFEDFF8E5
:102BB000948068B3019D0023A81CB34203EB00017D
:102BC00030D11C480021FEF705FC80F3100A1A4B97
:102BD0001A4A4FEA14499B1AB9EBD30F04D3184988
:102BE00040F2A91002F028F86B1CDBB2E40008EBFD
:102BF000830304F0380449EA0A40EDB244F00104CA
:102C0000D860033544EA861343EA872348F8253021
:102C100098F800301BB1FFF7C1FE0028FBD102B0CD
:102C2000BDE8F087C9B208EB810159F82320CA60DA
:102C30000133C2E714070020E86E0000606E000058
:102C4000B2800000F802002000231A46FFF7A4BF5C
:102C500007B50123019201AAFFF79EFF03B05DF8BB
:102C600004FB07B5CDE9002302236A46FFF794FF72
:102C700003B05DF804FB7FB5CDE90123089B039306
:102C8000099B04930A9B059301AA0523FFF784FF80
:102C900007B05DF804FB000030B50F49D1F81024EF
:102CA00003460020144634B9DC6820714AB9C1F8E3
:102CB0001034226030BDE4682579854206D024684E
:102CC000F1E7D268116821601360F3E701300A2848
:102CD000E8D14FF0FF30EDE7F8020020084A38B5A0
:102CE0000123D2F8104413701D4604B938BDE368BF
:102CF0005D71236820465B689847E3681C68F4E7C9
:102D0000F802002007B503460846197A052911D0B4
:102D10005B7A2BB1094A0A490190FEF73FFE019800
:102D200008490190FEF73AFE019803B05DF804EB04
:102D3000FEF722BE002AF8D0F2E700BF448100006F
:102D4000498100006981000030B5C38885B0044620
:102D50000D4633B1144A00921449154A2846FEF72D
:102D60001DFE217A05291DD0637A4BB1A088FFF79B
:102D7000F5FD104B104953F820202846FEF70EFEB3
:102D8000227A0E4BA08853F8222003920021FFF7ED
:102D9000C9FD039A0A490346284605B0BDE83040FC
:102DA000FEF7FCBD05B030BD448100005481000039
:102DB0004C810000D081000049810000F4810000B6
:102DC0006C8100002DE9F04385B01F460C9D002367
:102DD00095F80C902B7306460C46904629463846CB
:102DE000FFF7B2FFB8F1060F09D8DFE808F00412C8
:102DF000181F2833400031462846FEF7CFFD002239
:102E000029463846FFF77EFF85F80C9005B0BDE8EF
:102E1000F083226831462846FEF7C0FDEFE7D4E98B
:102E2000002331462846FEF7B9FDE8E7A368009382
:102E30003146D4E900232846FEF7B0FDDFE7E3681A
:102E40000193A36800933146D4E900232846FEF796
:102E5000A5FDD4E723690293E3680193A368009377
:102E60003146D4E900232846FEF798FDC7E7636999
:102E7000039323690293E3680193A36800933146A7
:102E8000D4E900232846FEF789FDB8E708292DE993
:102E9000F74F80460E4617461C463CD8002593F84F
:102EA0000C901D7319461046FFF74EFFDFF888A0FF
:102EB000DFF888B0AE4231D918F8052059462046CF
:102EC000FEF76CFD0135082DF4D11949194DDFF8D5
:102ED00070A02046FEF762FD4FF0000B5E4522D940
:102EE00018F80B207E2A05D81046019202F0C2FA8B
:102EF000019A00B92E2251462046FEF74FFD0BF1F4
:102F0000010BBBF1080FE9D1012221463846FFF73A
:102F1000F9FE84F80C9003B0BDE8F08F51462046CE
:102F2000FEF73CFDCEE729462046FEF737FDE6E7F3
:102F3000808100007E8100007C810000768100009D
:102F4000828100000268530910B5044618D0012B95
:102F50004FF6FF7318BF002302F01F02D340DB07B8
:102F600004D409494FF4F67001F066FE23681F2B64
:102F700083BF03F01F03054823604FF0A04010BD3E
:102F80004FF0FF33E8E700BF088200000003005065
:102F9000032813B5044603D909493A2001F04CFE31
:102FA000084B01A81B5D0193FFF7CCFF019BD0F8F4
:102FB0000405D840C04300F0010002B010BD00BFBE
:102FC0003982000099820000032813B5044603D912
:102FD0000849412001F030FE074B01A81B5D019319
:102FE000FFF7B0FF019A01239340C0F80C3502B0FF
:102FF00010BD00BF3982000099820000032813B57C
:10300000044603D90849472001F016FE074B01A8E2
:103010001B5D0193FFF796FF019A01239340C0F8CF
:10302000083502B010BD00BF39820000998200004F
:1030300008B50020FFF7E2FF0120FFF7DFFF0220C5
:10304000FFF7DCFFBDE808400320FFF7D7BF08B556
:103050000020FFF7B9FF0120FFF7B6FF0220FFF7BE
:10306000B3FFBDE808400320FFF7AEBF032813B548
:10307000044603D90B495F2001F0DEFD0A4B01A88D
:103080001B5D0193FFF75EFF0199D0F80435012223
:103090008A4022EA03011340C0F80815C0F80C3535
:1030A00002B010BD39820000998200000B2809D0BF
:1030B0000C2809D0182809D019280CBF03204FF07C
:1030C000FF30704700207047012070470220704792
:1030D000F7B5C207044612D5134E0025032716F88C
:1030E000013B019301A8FFF72DFF019B013503F57B
:1030F000E073042D40F82370F1D1FFF799FFA30787
:1031000010D50A4D00240C2615F8013B019301A8A7
:10311000FFF718FF019B013403F5E073042C40F81E
:103120002360F1D103B0F0BD9982000095820000C8
:1031300038B5074C051E04F1080318BF1C46236868
:103140002BB11A6822605B6828469847F7E738BDBC
:10315000B807002020B9054B01225A70FFF7E8BFDD
:10316000012802D1014A9070F8E77047B0070020AB
:1031700020B9034B01225A70FFF7DABF704700BF36
:10318000B007002038B50E4C2378B3B90D48636002
:10319000A3602361E36000F093F80546FDF7A4F90E
:1031A00008B900F0A1F801232370074BD3F80034CD
:1031B0000BB10123A370284638BD8525F5E700BF74
:1031C000B0070020553100000000014037B5174C12
:1031D000237823B9164940F2171001F02DFDE3685A
:1031E00023B913494FF48C7001F026FD00230DF133
:1031F00007008DF80730FEF7DDFAE368013BE36076
:10320000E3686BB9FDF770F918B109497B2001F04B
:1032100013FD084BD3F8005415B900F083F8A570DE
:103220009DF80700FEF7F6FA03B030BDB0070020A6
:103230009D82000000000140012813B50CD0032836
:1032400020D038B9164B0122C3F88020BFF34F8F2E
:10325000BFF36F8F02B010BD124C00230DF10700B9
:103260008DF80730FEF7A6FA23780BB9FFF78AFF2F
:10327000E3689DF807000133E3600123A370FEF7C4
:10328000C9FAE7E7074B1B7823B9074940F25220F8
:1032900001F0D2FC00F028F8FFF798FFDAE700BF52
:1032A00000E100E0B00700209D82000000F18040B6
:1032B000002382B0036003680193019B02B0704752
:1032C00010B5044618B90649A42001F0B5FC054A1A
:1032D000107918B901211460918010BD8520FCE798
:1032E0000C830000C407002008B50B4B1B791BB9E9
:1032F0000A49BD2001F0A0FC094B1A68D20704D48A
:10330000C02283F8002301221A604FF0804301227B
:10331000C3F8182508BD00BFC40700200C830000B7
:1033200000E100E008B50C4B1B791BB90B49F720F5
:1033300001F082FC4FF080420223C2F808334FF4C0
:103340008270FFF7B3FF064B01211960D2F81834E1
:10335000DB03FBD408BD00BFC40700200C830000C2
:103360000C000040124B1B6810B573B14FF4807015
:10337000FFF79CFF4FF080430122C3F808230D4B59
:10338000587910B95A711B6898470B4B1B6873B179
:103390004FF48270FFF78AFF4FF080430222C3F898
:1033A0000823044BBDE810401B680120184710BDDE
:1033B00000010040C40700200401004000F18040EB
:1033C00000F5C040002382B0036003680193019BB5
:1033D00002B0704743090BD0012B4FF6FF7318BFA3
:1033E000002300F01F0023FA00F000F001007047F6
:1033F0004FF0FF33F5E70000054B4FF0FF32072891
:1034000043F8202084BFC01880F85820704700BFC0
:10341000CC07002010B504460068FFF7DBFF20B999
:1034200007494FF4F67001F007FC23681F2B83BF98
:1034300003F01F03034823604FF0A04010BD00BFFE
:10344000088200000003005013B5019001A80C464B
:10345000FFF7E0FF019B00EB8300D0F8003723F477
:103460004033C0F80037D0F8003743EA0443C0F8CF
:10347000003702B010BD000010B5184C94F86A2057
:1034800052BBFF211046FFF7A5FF10B1A31883F828
:1034900030100132302AF5D10021C8B2FFF7ACFF5D
:1034A00001310C29F9D1062200210D4802F043F820
:1034B0000C4BC02283F8062340221A604FF4BE70E2
:1034C000FFF77CFF084B4FF00042C3F804230123B1
:1034D00084F86A30002010BD0820FCE7CC070020EB
:1034E0003008002000E100E000600040034B93F84A
:1034F0006A00003818BF0120704700BFCC070020C9
:103500002DE9F34105460F469046FFF763FF20B9CA
:103510003E494FF40C7001F08FFB3D4E731993F947
:103520003030002B6FDABB78C3F34003002B15BF9C
:103530000024082408220C22944203D1042002B063
:10354000BDE8F08156F82410013143D1721946F8D4
:10355000248082F8304013B9331983F85850BB786F
:103560005A0717D4D90737D501A80195FFF752FF9D
:10357000019B00EB8300D0F8003723F00203C0F872
:1035800000372449EA0805F0070001238340885CDE
:1035900003438B54BB783A7813F002002AD0A4007E
:1035A00004F1804404F5C0442D02D4F8103523F40E
:1035B0004F3323F44073C4F810351204D4F8103597
:1035C00005F47C5502F4403215431D43C4F81055F0
:1035D0000020B4E70134AFE701A897F80180019516
:1035E000FFF718FF019B03F5E0734FEA880240F8EC
:1035F0002320C6E7083C344494F8605045EA821220
:1036000084F860209BE7082099E700BF79830000D9
:10361000CC07002030080020F7B505460E46FFF71E
:10362000D9FE20B929494FF4187001F005FB284C48
:10363000631993F93030002B04DA244940F26120F9
:1036400001F0FAFA671997F93020072A1ADD2244A7
:1036500092F858309B09032B0FD101A80195FFF771
:10366000D9FE019BD0F81015D94001F001010231BB
:103670002846FFF7E9FE03B0F0BD012B0CBF022185
:103680000321F5E7D3B2072BF5D8930003F180436C
:1036900003F5C04302F14000D3F81015800041F05B
:1036A0000101C3F8101580B2FFF788FE002EE2D0AA
:1036B00097F9303054F82330002BDCD0012303FA83
:1036C00002F2044BC3F80423D5E700BF798300005E
:1036D000CC0700200060004013B50446FFF77AFED7
:1036E00020B9084940F2AF2001F0A6FA01A80194E0
:1036F000FFF790FE019BD0F81005D84000F00100C4
:1037000002B010BD798300002DE9F04F002485B090
:10371000CDE90244594D4FF48072012102F18043FA
:1037200003F5C04390B21B68012B06D1D5F80433D2
:103730000B4202D0FFF742FE0C430432B2F5907FF9
:103740004FEA4101EAD14E4B1B68012B11D14FF4D6
:10375000BE70FFF733FE4FF0A04344F00044D3F8AF
:1037600020250292C3F82025D3F820280392C3F81D
:10377000202814F0FF0F1AD0424F002501263442B2
:1037800010D0AB0003F1804303F5C043D3F810051C
:10379000D3F8101557F8253023B1C1F30141C0F318
:1037A000052098470135082D4FEA4606E7D1002C41
:1037B0005CDA344D344C354E4FF00009012716F9D0
:1037C000013B5A1C3FD0C3F3C20204A90A445FFA6A
:1037D00083FA12F8082C03F03F0803F0070307FAF6
:1037E00003F31A422FD001A8CDF80480FFF712FE90
:1037F000019B03F5E07350F82330C3F3014BBBF199
:10380000020F0CBF032102214046FFF71DFE01A855
:10381000CDF80480FFF7FEFD019B07FA03F3C0F823
:10382000203505EB080393F9303055F8233053B1B8
:103830004FEA9A11032904D0BBF1020F19D10129D3
:1038400001D14046984709F10109B9F1040FB6D1F9
:103850004FF0A043D3F820250292C3F82025D4F8D6
:1038600020350393C4F820351343A4D105B0BDE837
:10387000F08FBBF1030FE6D10229E1E700600040C1
:103880007C610040CC070020000300502C08002081
:103890001FB500238DF807000DF10F008DF80F30D4
:1038A000FDF788FFFCF720FE50B909480DF107012C
:1038B000FEF77AFB0648FEF763FB08B100F094F9C7
:1038C0009DF80F00FDF7A6FF05B05DF804FB00BFF3
:1038D0004C6E000007B520B103280BD003B05DF893
:1038E00004FB124B1B78012BF8D100F07DF900F09E
:1038F00091F9F3E700230DF107008DF80730FDF78C
:1039000059FF0A480378012B0BD10949013000F017
:1039100003F920B1074940F2071001F08DF900F0DA
:1039200043F99DF80700FDF775FFD7E788080020E9
:1039300091380000E88300001FB503788DF800304F
:103940004368019383688DF80830C368054A039380
:10395000054B684653F8213052F82110984705B0BE
:103960005DF804FB8C080020940800201FB5037844
:103970008DF800304368019383688DF80830C36880
:10398000054A0393054B684653F8213052F821103D
:10399000984705B05DF804FB8C08002094080020CF
:1039A0002DE9F0411E4B90F8008043F828201D4B74
:1039B0001646B8F1010F0A6943F8282088B0074677
:1039C0000C4605D14B7F1BB91749762001F034F91D
:1039D000DFF860C0637F0CF808300FCC6D460FC570
:1039E00094E80F0085E80F003B78CDF810801CF8B4
:1039F000033053B1002E0D4A694608BF3246381DC8
:103A000000F0E2FC08B0BDE8F081002E084A6946EB
:103A100008BF324607F10C0000F044FAF2E700BF9D
:103A2000940800208C0800205384000039390000DD
:103A30006D3900009C08002010B5054C22681AB9A9
:103A40000449512001F0F8F82368BDE810401847F8
:103A5000A0080020BB840000F7B51E4C1E4D0E468A
:103A600090B91E49772001F0E7F80020FDF7EAFD44
:103A7000641BE40824040346194A1A4944F003006D
:103A8000FFF7EFF8002023E0174B9842EDD1002319
:103A90000DF107008DF80730FDF78CFE134B1F79F1
:103AA00017B901221E601A719DF80700FDF7B2FEDA
:103AB000002FDAD01120FDF7C5FD641BE4082404B3
:103AC0000346074A074944F00200FFF7CAF81120ED
:103AD00003B0F0BD706E0000606E0000BB8400009B
:103AE000468500002485000000200040A00800203A
:103AF00018B906499B2001F09FB8054B984201BFB9
:103B0000044B00221A601A71704700BFBB8400008A
:103B100000200040A008002070B50E46044618B9E9
:103B20001B493E2001F088F81EB919493F2001F0D9
:103B300083F8184D2B784BBB174B1E60237813F07E
:103B4000010F164B1EBFD3F8042542F00102C3F843
:103B50000425D3F8002222F00102C3F80022647881
:103B6000A31E012B06D9631F022B03D90C496B201E
:103B700001F062F80B4B6401E4B283F80D434FF49B
:103B800000521A6001232B70002070BD8520FCE7D5
:103B900057850000AC080020A808002000D0004095
:103BA0005875000000E100E007B50B4B1B78012BB6
:103BB00003D00A49562001F03FF8094B00221A6051
:103BC0001B680193019B074B0122C3F804231A6071
:103BD00003B05DF804FB00BFAC080020578500006F
:103BE00000D1004000D0004008B5074B1B78012BE6
:103BF00003D006495E2001F01FF8054A0123C2F8F0
:103C00000833536008BD00BFAC0800205785000092
:103C100000D0004010B50C4C2278012A03D00B498B
:103C2000652001F009F80A4A0123C2F808335360FD
:103C3000084B4FF40052C3F88020BFF34F8FBFF3FF
:103C40006F8F0023237010BDAC0800205785000043
:103C500000D0004000E100E0074B00221A6082B073
:103C60001B680193019B054BD3F80805044B1B68A7
:103C7000C0B202B0184700BF00D1004000D00040E1
:103C8000A80800200023435082B043580193019BB1
:103C900002B070470A4610B54FF48E71FFF7F2FF7D
:103CA000136A9168C95C136A01331362C0F81C156A
:103CB00010BD00000268530910B5044618D0012B4E
:103CC0004FF6FF7318BF002302F01F02D340DB073B
:103CD00004D409494FF4F67000F0AEFF23681F2B9F
:103CE00083BF03F01F03054823604FF0A04010BDC1
:103CF0004FF0FF33E8E700BF0882000000030050E8
:103D000007B5019001A8FFF7D5FF019B03F5E0730C
:103D1000022240F8232003B05DF804FB8B690A46B9
:103D200010B54FF4847123B9FFF7ACFFD0F8183504
:103D300010BDFFF7A7FF536AD168D0F81805C85423
:103D4000536A01335362F3E71FB501238DF8003046
:103D5000044BCDE90110D3E900126846904705B045
:103D60005DF804FBB008002030B54C48D0F80433AF
:103D700013F4007F85B005464DD0D0F82431002BD8
:103D800049D04FF49271FFF77DFF4FF40173C0F8F3
:103D90000833434B93F829200AB9012242603F4976
:103DA00002228DF80020D1F88024C1F880240392EB
:103DB0009A690292DA6801920022C3E906226846F3
:103DC000D3E9001290473548D0F81C315BB1344933
:103DD0004A690B6A9A420A464AD991F82830002B60
:103DE00046D1FFF757FF2D48D0F844318BB14FF43F
:103DF000A271FFF747FF2A4B93F829200AB101224D
:103E000002609A692AB10022586AD9689A61FFF75C
:103E10009BFF05B030BDD5F804335B07D3D5D5F88B
:103E20000831002BCFD01E4C1C482146FFF776FFEF
:103E3000636AA2699A422346C5D1E269E1684AB140
:103E40002369E3600023606AA261E3616362FFF7B4
:103E50007BFFB8E794F829200AB901226A600F4A6B
:103E60004FF40170C2F808030022586A9A61EEE725
:103E70000A484FF48E71FFF705FF5369002BB2D04B
:103E800051690291002391688DF8003001915361CE
:103E90006846D2E900139847A5E700BF002000401C
:103EA000B00800202DE9F347054691460C4619B9A4
:103EB0006B49AA2000F0C0FE6A4B2E792C2202FB2F
:103EC0000632984692F82A20002A40F0C5806649BA
:103ED0002868FFF7C1FD0746002840F0BF8023682F
:103EE0005A1C13D001A80193FFF7E4FE019A0123A5
:103EF0009340C0F808352368019301A8FFF7DAFE64
:103F0000019B03F5E073032240F823206368581CEB
:103F100009D001A80193FFF7CDFE019B03F5E073E3
:103F2000002240F823202B68A269C3F82425217DB4
:103F3000627D0A43C3F86C25D4E900020129C3F865
:103F40001425C3F80C052AD1A368591C09D001A86F
:103F50000193FFF7AFFE019B03F5E073002240F8E9
:103F60002320E3685A1C13D001A80193FFF7A2FE97
:103F7000019A01239340C0F80835E368019301A832
:103F8000FFF798FE019B03F5E073032240F823201E
:103F9000D4E902212B68C3F80815C3F810252C2397
:103FA000734308EB0302C2F80490226948F8032027
:103FB000B9F1000F3CD02868247F4FF48E71FFF7D1
:103FC00061FE28684FF4A271FFF75CFE2B68274A58
:103FD000C3F804234FEA133A43F30739A31E012B16
:103FE00006D9631F022B03D921496B2000F024FE60
:103FF000B9F1000FAEBF09F160431E4B0AF00F028A
:104000004FEA4414A8BF03F56143E4B2B4BF9C5423
:1040100083F800432B681A0B43F30733002B07DBAD
:1040200002F01F0101228A405B09134941F8232055
:104030002B680422C3F800252C2303FB06830022EF
:10404000C3E9062283F829205A61012283F82A2035
:10405000384602B0BDE8F0870827F9E71127F7E7EF
:10406000C0850000B0080020693D0000800002000B
:104070005875000014ED00E000E100E02DE9F84380
:1040800003680579294E0022C3F800252C2202FB83
:10409000056204465268A2B1254AC3F808231A0BE8
:1040A00043F30733002B0CDB02F01F015B090122F5
:1040B0008A4020331F4941F82320BFF34F8FBFF3BD
:1040C0006F8F2368D3F80C05D3F81495D3F80875CF
:1040D000D3F810854FF0FF329042C3F81425C3F88F
:1040E0000C25C3F80825C3F8102501D0FFF708FEFA
:1040F000B9F1FF3F02D04846FFF702FEB8F1FF3F9B
:1041000002D04046FFF7FCFD7B1C02D03846FFF78B
:10411000F7FD2068FFF7ECFC2C2303FB056500236B
:1041200085F82A306B60BDE8F88300BFB008002036
:104130008402020000E100E02DE9F84F344E0779D7
:1041400091462C2202FB0762054692F82A20012A9A
:10415000884604D02F494FF48C7000F06DFDB8F103
:10416000000F04D12B4940F2191000F065FDB9F1A0
:10417000000F04D127494FF48D7000F05DFD2B79BD
:104180002C2404FB0363D3F814B0BBF1000F3BD124
:1041900007FB046A2868CAF814904FF48E71CAF8B5
:1041A00020B0CAF808808AF828B0FFF76BFD2868AD
:1041B000012383605146FFF76DFDDAF80430544661
:1041C0008BB92868DAF81480236A984511D82B68CF
:1041D000D3F81C21002AFBD00122DA602C2303FB38
:1041E000076300225A615846BDE8F88F94F82830DA
:1041F0003BB9D0F81C31002BF8D05146FFF74AFDEF
:10420000E2E74FF00F0BE9E74FF0110BEBE700BFD0
:10421000B0080020C08500000023435082B04358FE
:104220000193019B02B070470268530910B5044620
:1042300018D0012B4FF6FF7318BF002302F01F02A6
:10424000D340DB0704D409494FF4F67000F0F4FCC6
:1042500023681F2B83BF03F01F03054823604FF023
:10426000A04010BD4FF0FF33E8E700BF0882000018
:104270000003005007B5019001A8FFF7D5FF019B8F
:1042800003F5E073022240F8232003B05DF804FB3D
:104290001FB501238DF80030044BCDE90110D3E99F
:1042A00000126846904705B05DF804FBDC0800206A
:1042B0007FB5434AD2F82461002E60D010464FF4F7
:1042C0009271FFF7A9FF02238DF80030D2F88034F5
:1042D000C2F880340393D2F83C350293394BDA6844
:1042E00001920022C3E906226846D3E900129047F2
:1042F0003348D0F8443173B14FF4A271FFF78CFF0B
:10430000304B9A693AB10022C3E90622D968D0F845
:104310003C05FFF7BDFF2A48D0F82031ABB14FF480
:104320009071FFF779FF0123C360264B5A6962B190
:10433000D0F84C150291002299688DF80020019167
:104340005A616846D3E9001290471D48D0F85831A9
:104350009BB14FF4AC71FFF75FFF1A4B5A6962B122
:10436000D0F84C150291002299688DF80020019137
:104370005A616846D3E90012904704B070BDD2F884
:104380001031002BB4D04FF488711046FFF744FF72
:104390000C4BD2F83C0599698842A9D1DC69D968EF
:1043A00064B1D2F8005225F02005C2F800521A6913
:1043B0009C61DA60DE61FFF76BFF99E79C61FAE7C9
:1043C00000200040DC0800202DE9F3470546914617
:1043D0000C4619B97249CF2000F02EFC714B2E7992
:1043E000242202FB0632984692F82020002A40F050
:1043F000D2806D492868FFF72FFB0746002840F060
:10440000CC8023685A1C13D001A80193FFF70CFF3E
:10441000019A01239340C0F808352368019301A84D
:10442000FFF702FF019B03F5E073032240F823200E
:104430006368581C09D001A80193FFF7F5FE019BA2
:1044400003F5E073002240F823202B68A269C3F82B
:104450002425217D627D0A43C3F86C25D4E9002020
:104460000129C3F80C25C3F814052AD1A368591CE7
:1044700009D001A80193FFF7D7FE019B03F5E07374
:10448000002240F82320E3685A1C13D001A80193AE
:10449000FFF7CAFE019A01239340C0F80835E3688C
:1044A000019301A8FFF7C0FE019B03F5E07303220F
:1044B00040F82320D4E902212B68C3F80815C3F87B
:1044C00010252423734308EB0302C2F804902269E9
:1044D00048F80320B9F1000F4BD02868247F4FF42F
:1044E0008871FFF799FE28684FF49071FFF794FEEA
:1044F00028684FF49271FFF78FFE28684FF4A2717D
:10450000FFF78AFE28684FF4AC71FFF785FE2B6831
:10451000264AC3F804234FEA133A43F30739A31E8C
:10452000012B06D9631F022B03D921496B2000F010
:1045300083FBB9F1000FAEBF09F160431D4B0AF0D8
:104540000F024FEA4414A8BF03F56143E4B2B4BFBD
:104550009C5483F800432B681A0B43F30733002B5A
:1045600007DB02F01F0101228A405B09124941F872
:1045700023202B680822C3F80025242303FB06838D
:104580000022C3E906225A61012283F8202038461E
:1045900002B0BDE8F0870827F9E71127F7E700BF69
:1045A0002B860000DC080020B1420000100342000E
:1045B0005875000014ED00E000E100E02DE9F8433B
:1045C0003D4E05790468242303FB056302465B68BE
:1045D000ABB13A4BC4F8083344F30733002B4FEA2E
:1045E00014310CDB01F01F005B09012181402033F5
:1045F000334840F82310BFF34F8FBFF36F8FD4F8C9
:10460000003223F02003C4F80032242303FB0563A7
:104610009B6933B14FF4A2712046FFF7FDFD0123E2
:1046200063604FF4AC712046FFF7F6FD0123E360B1
:10463000242303FB0563D4F858110029FBD09969A2
:1046400019B1D4F844110029F5D00023C4F800357D
:104650001368D3F80C05D3F81495D3F80875D3F87C
:1046600010854FF0FF329042C3F80C25C3F8142593
:10467000C3F80825C3F8102501D0FFF7FBFDB9F1F9
:10468000FF3F02D04846FFF7F5FDB8F1FF3F02D0EB
:104690004046FFF7EFFD7B1C02D03846FFF7EAFDEE
:1046A0002046FFF725FA242303FB0565002385F840
:1046B00020306B60BDE8F883DC0800201003420066
:1046C00000E100E02DE9F047374F90F80480242303
:1046D00003FB0873064693F82030012B8946924667
:1046E00004D0324940F2531000F0A6FAB9F1000F9D
:1046F00004D12E494FF4AA7000F09EFABAF1000FCF
:1047000004D12A4940F2551000F096FA337913B9D2
:10471000BAF5803F04D325494FF4AB7000F08CFA12
:1047200009F06043B3F1005F3AD13379242505FBEA
:1047300003735C69002C35D105FB08753068C5F83A
:1047400014A04FF49071C5F80890FFF765FD4FF481
:10475000AC713068FFF760FD33686A69A968C3F817
:104760004415C3F8482501229A606A68AAB9D3F8AB
:104770002021D3F858411AB9002CF8D00F2407E0B3
:10478000002CFBD10122DA60D3F85821002AFBD09B
:10479000242303FB087700237B612046BDE8F087D4
:1047A0001024FAE71124F8E7DC0800202B8600002B
:1047B0000220FEF75BBC00002DE9F04780460D4665
:1047C000FEF774FC0328044610D8012D10D0022DEA
:1047D00030D05DB91A48FCF7AFFA1A4B04EB44022B
:1047E00013449E78184B1B5DB34219D0BDE8F08787
:1047F000144D00EB4002A918AE5C4A78470052B154
:10480000DFF84C900E484A464FF48041FCF772FAAC
:1048100008B989F800803B192B449A780A4B1A553D
:10482000002EE3D0094B1B68002BDFD03046BDE8DB
:10483000F047184700EB4004024804446678EFE76D
:104840002809002068090020810900207C09002037
:104850000009002000780221FFF7AEBF08B5094B20
:104860001B7853B10020FEF7C9FB0120FEF7C6FB01
:10487000BDE808400320FEF7C1BBBDE80840FEF7D5
:10488000D7BB00BF01090020F8B57B4C2378054653
:104890001BB100232370FFF7E1FF172D00F2888082
:1048A000DFE805F00C17174354657680888D888DF6
:1048B000959A9A9A9A9AC4C9D1D9E4E4FFF7CEFF9F
:1048C0006E48FCF739FA6E4B002204461A702046F7
:1048D000F8BD0020FEF75CFBF8B10020FEF78EFB70
:1048E000022D0CBF4FF4E1614FF47A61644B1D70EF
:1048F0004FF400404FF47A740025E0FB01454FF47B
:10490000FA6200232046294600F0F4FC002201460A
:10491000BDE8F8405948FCF7EDB9FEF755FB022D0C
:104920000CBFC8214FF4C871E0E70020FEF730FB50
:1049300040B10020FEF762FB4FF44871504B032258
:104940001A70D5E7FEF740FBC821F7E70020FEF715
:104950001FFB38B10020FEF751FB4FF47A61484B42
:104960000422EDE7FEF730FB4FF4C871F7E70020B3
:10497000FEF70EFB48B10020FEF740FB404B05223E
:104980001A7040F6CD410022C2E7FEF71DFBF5E7A5
:104990000020FEF76BFB3A4B06221A70002240F211
:1049A0006661B5E70020FEF70FFB354B07221A7052
:1049B00000248CE701202070FEF758FBEEE7012071
:1049C0002070FEF753FB00224FF40051A0E7FEF7E2
:1049D0003EFB2B4B0C22EAE72A482B4EFCF7ACF9A6
:1049E000D5F1110504461CD0D8B9012D13D0C82328
:1049F0005D434FF400474FF47A7000214FF4FA62A0
:104A00000023C7FB050100F075FC224601461D4846
:104A1000FCF770F904460220FEF7D6FA0123337042
:104A200055E70220FEF7EAFA0023F8E7FFF716FF42
:104A3000134B1222BBE7FFF711FF0020FEF7C4FA69
:104A40000F4B1322B3E7FFF709FF0120FEF7BCFA73
:104A50000B4B1422ABE7FFF701FF0020FEF7B4FA7F
:104A60000120FEF7B1FA064B1522A0E7FEF7EFFA98
:104A7000034B1D709CE700BF780900204809002007
:104A8000800900200809002001090020044B1B6850
:104A9000DB0703D5034B1878FFF7F6BE704700BF5E
:104AA000740900208009002038B51C4B18601C4B8D
:104AB00010F00204054619601AD01A4B1A480E224B
:104AC0001A700F22DA7010229A7111225A72042180
:104AD00040F23332FBF7CAFF044648B9FCF71CF832
:104AE000044628B90146114A1148FCF7E7F8044684
:104AF000EB0711D50120FEF7EBFA6CB921460D4A00
:104B00000D48FCF7DBF8044630B9BDE838400B4AE5
:104B10000B480121FCF7D2B8204638BD74090020AB
:104B20007C09002068090020988600005548000094
:104B3000BC8600008D4A0000C0860000B14700001E
:104B4000B8860000F8B50A4F0A4C0B4DE41B012152
:104B5000E40829700026A64203D102232B7000200E
:104B6000F8BD57F8363098470028F9D10136F2E7FA
:104B7000446E00004C6E000085090020054B1A7839
:104B8000022A04D01878431E584258417047012029
:104B9000704700BF8509002070B506460D466A467D
:104BA000194B9A4205D3FFF7E9FF78B94FF4054056
:104BB00070BD164B16481749C01AC008000440F0D3
:104BC0000100FEF741F848F21950F1E7124C236852
:104BD00023B1124B1A68124B9A420FD086B97DB995
:104BE00010481149206000F0ADFA0028E0D10B4BCD
:104BF0000B4A1A6023680D4A1A60D9E70020D7E7EC
:104C000048F21750D4E700BF00E00320606E0000B8
:104C1000906E0000C486000054220020700A00201C
:104C20006572E54B88090020740A00206169614DB6
:104C300072DF704777DF70470A4601460148FCF78C
:104C400037BD00BFEFBEADDEF0B54FF4804193B08D
:104C50000020FDF753FE20B1624A4FF49571FCF736
:104C600027FDFDF76BFDFFF76DFF20B15D4A40F2B8
:104C70003711FCF71DFD5C4B5C4D5D49ED1AED08ED
:104C80002D0445F003042046FDF7DEFFFBF7E4FFAB
:104C900018B1544AE621FCF70BFD56492046FDF7B2
:104CA000D3FF00210120FFF7FFFE18B14D4ADE219E
:104CB000FCF7FEFC50492046FDF7C6FFFCF7CEFB93
:104CC00018B1484AF021FCF7F3FC4C492046FDF7A7
:104CD000BBFF4B492046FDF7B7FFFBF7C7FB20B1F1
:104CE000404A40F20B11FCF7E3FC46492046FDF731
:104CF000ABFF002303A901200393FBF779FC20B14C
:104D0000384A4FF48971FCF7D3FC20463E49FDF741
:104D10009BFF03A8FBF71AFD20B1324A40F217119E
:104D2000FCF7C6FC39493A4E2046FDF78DFF592362
:104D30000027ADF800303C222223002103A8ADF863
:104D4000043000F0F8FB4FF4C063182239463046B7
:104D5000ADF80E308DF80C70CDF830D000F0EBFBD4
:104D60000A232C4A3370A023B3604FF48063B382CC
:104D700052F8041B7760042303A8B781B375FDF7CD
:104D8000FCF918B1174AC221FCF792FC204A2149CC
:104D90002148FFF74DFF18B1124AC521FCF788FCE6
:104DA0001D4B082219780120FFF744FF18B10D4A66
:104DB000C921FCF77DFC19491948202200F05FFB4E
:104DC00050B918492046FDF73FFFFDF7E7FD0028E1
:104DD000FBD1FCF759FBF8E7134945F00100FDF75B
:104DE00033FFFEE7DD860000606E0000906E00007D
:104DF000458700005B870000668700006F87000022
:104E00007987000081870000908700009887000064
:104E1000582200202C0000203C0000203D000020F3
:104E200070220020B0870000D4870000034B186870
:104E3000A0F1080358425841704700BF30010010EC
:104E4000064B1B68082B06D1054B1B68032B02D8A9
:104E5000044AD05C70470020704700BF300100104A
:104E600034010010EB87000008B5FFF7DFFF40B109
:104E70004FF080430022C3F80C21C3F81021C3F87F
:104E80003825FFF7D3FF002846D04FF080525E4B05
:104E9000D2F80414C3F82015D2F80814C3F8241566
:104EA000D2F80C14C3F82815D2F81014C3F82C1536
:104EB000D2F81414C3F83015D2F81814C3F8341506
:104EC000D2F81C14C3F84015D2F82014C3F84415C6
:104ED000D2F82414C3F84815D2F82814C3F84C1596
:104EE000D2F82C14C3F85015D2F83014C3F8541566
:104EF000D2F83414C3F86015D2F83814C3F8641526
:104F0000D2F83C14C3F86815D2F84014C3F86C15F5
:104F1000D2F84424C3F87025FFF792FF10B13B4B41
:104F20003B4A1A60FFF78CFF18B13A4BFB22C3F8DB
:104F30001825FFF785FF48B13749384B0A681B68C9
:104F400022F00F0203F00F0313430B60FFF778FF0B
:104F500018B1334B4FF400721A60FFF767FF48B186
:104F60004FF08043D3F80024D20744BF6FF0010212
:104F7000C3F800242B4AD2F8883043F47003C2F8F7
:104F80008830BFF34F8FBFF36F8F4FF01023D3F8EC
:104F90000022002A03DBD3F80432002B2FDA224B45
:104FA0000122C3F80425D3F80024002AFBD04FF0D7
:104FB00010221221C2F80012D3F80024002AFBD0DC
:104FC0004FF010231222C3F80422174B1A46D3F8CD
:104FD00000140029FBD00021C3F80415D2F80034D6
:104FE000002BFBD0BFF34F8F0E49104BCA6802F461
:104FF000E0621343CB60BFF34F8F00BFFDE70C4B64
:105000000C4A1A6008BD00BF00C000408C5600402A
:105010004881030000F00040E40E004058020010F8
:105020004096024000ED00E000E001400400FA0577
:10503000600000200090D003002110B50846FFF763
:10504000ABFD044608B901F06BFA204610BD000024
:1050500008B5074B00221A60BFF35F8F01F02CFAEE
:10506000014618B9BDE80840FFF796BD032008BD0A
:10507000B8220020002844D0A0F57000A0F54060C0
:10508000352839D8352837D8DFE800F0211E3624F6
:1050900027272A3330363636361E361E393939360A
:1050A000363636363636363636363636242A2427DF
:1050B0001B2D362D3636363636363636212A2736ED
:1050C0001E1E48F21750704748F20350704748F2CE
:1050D0001350704748F21050704748F21150704713
:1050E00048F21450704748F20150704748F202509D
:1050F000704748F27150704748F21650704748F2B6
:105100007050704708B501210448FCF763F9BFF3FC
:105110005F8FB0FA80F0400908BD00BFB8220020C0
:1051200010B5064C2268012A03D005499320FFF7E9
:1051300083FDBFF35F8F0023236010BDB8220020E2
:10514000EF87000013B502680C4B01919A420446A8
:105150000ED0FFF7D7FF68B10199201D00F0C2FC07
:10516000FFF788FF0446FFF7DBFF204602B010BDC3
:105170000024FAE748F20454F7E700BF6169614D83
:105180000369C1688B429DBF8268D21802F1FF3269
:1051900003F1FF3394BF501A581A70472DE9F843B2
:1051A000D0E902940546A9EB0408406890452044E4
:1051B0000F46144404D900F095F9EC60BDE8F8837B
:1051C0004246A4EB090400F08DF96868224607EB1B
:1051D0000801F0E72DE9F843C568064689461746F9
:1051E0004FF000083469B3687068A54228BFE4181E
:1051F000013C621B5C1BBC4228BF3C46944228BF5A
:10520000144649462844224600F06CF9B368254408
:10521000AB4208BF00253F1BA044A144F560E1D18B
:105220004046BDE8F883000010B5114C114AA26158
:105230000223C4E90433104BE361A2644FF400631A
:105240000E4A0F492362E26400231022E01DA3628C
:105250006362E362A3656365E365226500F09EF91E
:105260000849204600F09AF92023A37110BD00BF21
:10527000BC22002029880000442300203423002081
:105280003288000036880000F8B5184C182300FB5F
:10529000033503FB00402544C46A012C0F46164623
:1052A0000FD0022C1AD0F4B92846FFF769FF8642C6
:1052B00005D8324639462846FFF770FF3446204667
:1052C000F8BD2846FFF75CFF8642344628BF0446F7
:1052D000224639462846FFF761FFF0E72846BDE839
:1052E000F840FFF777BF0024E9E700BFBC220020A9
:1052F000FFF79ABF53EA020C61D02DE9F04BB3FAE5
:1053000083F51E0007BFB2FA82F502FA05F403FA2C
:1053100005F41646C5F120051EBF22FA05F73C43E9
:10532000203556EA044C4FEA144418BF0134A34612
:105330004FF00009C846904271EB030C39D3094283
:1053400007BFB0FA80F700FA07F6B1FA81F701FA61
:1053500007F6C7F120071EBF20FA07FC46EA0C0635
:105360002037B6FBFBFC7F1B103F07F01F04C4F186
:1053700020060CFA04F42CFA06F644BF3446002644
:10538000202FA4BF2646002454EA060C08BF01249F
:1053900018EB040849EB0609A4FB027CC01B06FBC2
:1053A00002CC04FB03CC71EB0C01904271EB030CBB
:1053B000C5D20B46024649464046BDE8F08BB2FBDB
:1053C000F3F200007F2805D8034B185C034B5B5CAD
:1053D00018407047002070474C880000CC880000BF
:1053E000A0F16103192B98BF20387047A0F1410349
:1053F000192B98BF203070477F2805D8034B185CC5
:10540000034B5B5C18407047002070474C880000DD
:10541000CC880000A0F16103192B98BF2038704799
:10542000A0F14103192B98BF203070477F299ABF04
:10543000017001206FF02E0070475AB10A787F2A60
:105440000AD800B10260002119605960501A18BFD3
:1054500001207047002070476FF02E007047000059
:1054600008B5034B5B689B681B68984708BD00BF85
:105470006400002008B50921FFF7F2FF08BD7AB3E8
:1054800070B414460F2A15D902460B4640EA0105AE
:1054900015F0030F01D0013C0EE01946104604320E
:1054A000043306680D68AE4204D110461946043C28
:1054B000042CF2D8013C0ED00A460346044411469F
:1054C00018460133013206780D78AE4203D11846F2
:1054D0001146A342F3D100780B78C01A70BC704714
:1054E00000207047844640EA010313F0030F18D1EF
:1054F0008446202A0BD32DE9F007B1E8F807A0E88D
:10550000F807A2F12002202AF7D2BDE8F007042A0A
:1055100007D351F8043B40F8043BA2F10402042AEB
:10552000F7D2002A05D011F8013B00F8013B013AFF
:10553000F9D1604670478446002A2DD010F0030F41
:1055400004D000F8011B013A26D0F7E7C9B241EABE
:10555000012141EA0141202A12D3A2F120022DE9C2
:10556000F0030B460C460D460E460F46884689460C
:10557000A0E8FA03203AFBD2BDE8F00320320BD0BA
:10558000042A05D340F8041B043A05D0042AF9D2B2
:1055900000F8011B013AFBD160467047024610F04B
:1055A000030F16D111F0030F13D12DE9F0004FF0C6
:1055B00001374FF0803351F8044BA4EB070525EA7F
:1055C00004051D4002D142F8044BF4E7A1F10401A7
:1055D000F0BC11F8013B02F8013B002BF9D17047F8
:1055E00000F1010110F0030F11D010F8012B002A77
:1055F00023D010F0030F0AD010F8012B002A1CD082
:1056000010F0030F03D010F8012B002A15D02DE95C
:1056100070004FF001324FF0803350F8044BA4EB90
:10562000020525EA04051D4000D1F6E7A0F10400BB
:1056300070BC10F8012B002AFBD1A0EB01007047D1
:10564000F0B5054699B01F4600230E46144605A83E
:1056500019460322D5F8D05000F096FD38BB01461C
:10566000AD00082303AA05A8CDE9034500F0CCFD51
:10567000E8B9611905A800F0EBFDC0B937B92346B8
:105680001022314605A800F0FBFD80B905F110039A
:1056900002A9019100941946324605A8029300F030
:1056A0002DFE044B002818BF184619B0F0BD014864
:1056B00019B0F0BD360CF0002DE9F04F864C804655
:1056C0009E460F4694460FCCB7B00DF11C0A5546C6
:1056D0000FC594E80F0004F1100685E80F000FCE07
:1056E0000FAD0FC596E80F00303485E80F000FCCE2
:1056F00017AD0FC50FCC0FC594E80F00D8F8D040F8
:10570000CDF80CE0042C85E80F0001D0082C6BD1FB
:10571000409A231DB2EB830F4FEA830B03D06F48EF
:1057200037B0BDE8F08F07EB0C019CFA8CF30CF15D
:1057300018060CF109003B609BFA8BF5802326F0DC
:105740000F06321A7D6038440B72002100F078FF9A
:10575000409B1B09ABF1100B00F0BB80042C47D021
:10576000DDF80C90CDF808B04B4617ADB1464FF0C0
:10577000000823ACBB461E4624E0029FCDF814A0CF
:10578000069700F041FD03462946204610353BBBF5
:1057900000F05EFD84464FF0100E4B465A464946D7
:1057A0002046BCF1000F1BD10DEB0E07CDE90067C1
:1057B000CDF810E000F0A2FD103688B9409BB8EBA0
:1057C000131F58D2002319460222204600F0DCFCA9
:1057D000014608F10108082305AA20460029CCD07B
:1057E0003F4837B0BDE8F08F3E4837B0BDE8F08F96
:1057F000DDF80C90CDF808B033460FAD4E464FF0B3
:10580000000823ACBB46994626E0029FCDF814A0C1
:10581000069700F0F9FC0346294620461035002B78
:10582000DED100F015FD84464FF0100E4B465A466F
:1058300049462046BCF1000FD2D10DEB0E07CDE951
:105840000067CDF810E000F059FD10360028C7D1F0
:10585000409BB8EB131F0ED20023194602222046AC
:1058600000F092FC014608F10108082305AA204631
:105870000029CAD0B4E7DDF808B0039D002319461B
:1058800001222046CDE9055B00F07EFC01460028A0
:10589000A6D1082305AA204600F0B6FC00289FD117
:1058A00005EB0B01204600F0D3FC0146002897D100
:1058B000409A284600F0C4FE409B009540A9019103
:1058C0002A462046194600F019FD00283FF428AF6B
:1058D00086E723ACD1E700BFF08A0000230CF0007C
:1058E000360CF000210CF0002DE9F0438FB0884613
:1058F00007A91746044600F075FD054600284ED15D
:10590000D4F8D050042D01D0082D4ED1D4F8C43095
:105910000C2B62D8B8F1000F45D02E1D760106AAD7
:1059200004ABCDE90032029707A905AB002220465F
:10593000059600F00FFC00283CD1069B0498D4F893
:10594000C42023F00303083304F1840918449200AF
:10595000494600F073FED4F8C400069A04992B1D42
:105960009E0002EB800200964B4620460692FFF70F
:10597000A3FE054650B9B8F1010F33D003462246C5
:1059800049462046FFF75CFEB0B105462046E421BB
:1059900000F058FE38464FF4BF5100F053FE284641
:1059A0000FB0BDE8F0836E01B9E71B4D28460FB07C
:1059B000BDE8F083194DE9E7D4F8D430012243F073
:1059C0000103C4F8D430C4F8CC2000234846C4F8FE
:1059D000C430402100F036FEDCE7114D28460FB000
:1059E000BDE8F0833146204600F02CFE2B462246CF
:1059F00049462046FFF724FE0028C6D1D4F8D4300B
:105A0000084AC4F8CC8023F4803343F00103C4F87F
:105A1000D430C4F8DC20D8E7210CF000260CF000CC
:105A2000040CF000CDAB230170B5002849D00D4621
:105A3000002943D0244E04464FF0FF31306800F077
:105A400021FE90BB002000F0B1FE50BB20462A464C
:105A50000121FFF749FF0446012000F0A7FEB8B975
:105A6000306800F029FE50B9012000F09FFE08B90F
:105A7000204670BD154800F0CDFD204670BD14488D
:105A800000F0C8FD012000F091FE0028F0D0F1E701
:105A90000E4800F0BFFD306800F00EFE0028E3D095
:105AA000EDE70C4800F0B6FDD0E70B4800F0B2FD82
:105AB000002000F07BFE0028C8D0F2E7074C20460B
:105AC00070BD074C204670BD5C2B0020D08A0000C2
:105AD000988A0000B08A0000808A0000200CF00044
