:020000022000DC
:10700000000004205D730200457302004773020014
:10701000497302004B7302004D7302000000000030
:107020000000000000000000000000004F7302009C
:1070300051730200000000005373020055730200F8
:1070400057730200577302008591020057730200C4
:10705000577302005773020005900200658A020010
:107060001D8A02002D8A02003D8A02005773020029
:1070700057730200F1920200577302005773020027
:1070800057730200FD83020057730200577302001A
:107090005773020057730200E9B9020057730200E8
:1070A00057730200577302005773020057730200B0
:1070B0005773020057730200000000000000000038
:1070C0005773020057730200577302005773020090
:1070D0005773020057730200577302005773020080
:1070E00057730200577302001DD402000000000015
:1070F00000000000577302000000000057730200F8
:10710000000000000000000000000000000000007F
:10711000000000000000000000000000000000006F
:10712000000000000000000000000000000000005F
:10713000000000000000000000000000000000004F
:10714000000000000000000000000000000000003F
:10715000000000000000000000000000000000002F
:10716000000000000000000000000000000000001F
:10717000000000000000000000000000000000000F
:1071800000000000000000000000000000000000FF
:1071900000000000000000000000000000000000EF
:1071A00000000000000000000000000000000000DF
:1071B00000000000000000000000000000000000CF
:1071C00000000000000000000000000000000000BF
:1071D00000000000000000000000000000000000AF
:1071E000000000000000000000000000000000009F
:1071F000000000000000000000000000000000008F
:10720000314932480A1A02D0072291438D4630494B
:1072100030480A1A06D00722914381F309880222D6
:1072200082F314882C482D492D4A00F03CF82D4853
:107230002D492E4A00F037F82D482E492E4A00F0ED
:1072400032F82E482E492F4A00F02DF82E482F49AB
:107250002F4A00F028F82F482F49304A00F023F831
:107260002F483049304A00F01EF83048304900229B
:1072700000F024F82F483049002200F01FF82F4A70
:1072800090471F481F49884205D00268043003B464
:10729000904703BCF7E700208646EC46002000211B
:1072A000274A9047FEE7884207D0521A05D0037854
:1072B00001300B700131013AF9D17047884202D098
:1072C00002700130FAE770470000042000F8032044
:1072D0000000042000000420BCEB0200D82800209D
:1072E0000C290020B8730200B8730200F4DA02001F
:1072F000BCEB0200D8280020D8280020FCDB0200CC
:10730000FCDB0200FCDB0200FCDB0200FCDB020019
:10731000FCDB0200FCDB0200FCDB0200B9EB02003C
:10732000F0EB02000C2900200C2900200C29002081
:10733000804F0020804F0020804F00208573020086
:10734000A5AA0200FEE7FEE7FEE7FEE7FEE7FEE78E
:10735000FEE7FEE7FEE7FEE700F002B8FFF7FCBF3E
:107360000F484FF00701884385460E4880470E4876
:10737000016841F470010160BFF34F8FBFF36F8F5D
:10738000FFF73EBF09480A490A4A884207D0521A05
:1073900005D0037801300B700131013AF9D1704703
:1073A00000000420DDAB020088ED00E0FCDB020001
:0873B000D8280020D828002095
:1073B800022002F0BBBC00002DE9F04780460D46D4
:1073C80002F0CEFC0328044610D8012D10D0022D5F
:1073D80030D05DB91A4800F0C6FD1A4B04EB4402E0
:1073E80013449E78184B1B5DB34219D0BDE8F08753
:1073F800144D00EB4002A918AE5C4A78470052B120
:10740800DFF84C900E484A464FF4804100F093FD57
:1074180008B989F800803B192B449A780A4B1A5509
:10742800002EE3D0094B1B68002BDFD03046BDE8A7
:10743800F047184700EB4004024804446678EFE739
:107448003029002070290020892900208429002063
:107458000C29002000780221FFF7AEBF08B5094BC0
:107468001B7853B1002002F02FFC012002F02CFC05
:10747800BDE80840032002F027BCBDE8084002F040
:1074880037BC00BF0D290020F8B57B4C2378054692
:107498001BB100232370FFF7E1FF172D00F288804E
:1074A800DFE805F00C17174354657680888D888DC2
:1074B800959A9A9A9A9AC4C9D1D9E4E4FFF7CEFF6B
:1074C8006E4800F050FD6E4B002204461A702046AC
:1074D800F8BD002002F0D0FBF8B1002002F0F4FB68
:1074E800022D0CBF4FF4E1614FF47A61644B1D70BB
:1074F8004FF400404FF47A740025E0FB01454FF447
:10750800FA6200232046294604F002FC00220146C4
:10751800BDE8F840594800F00EBD02F0C1FB022D4D
:107528000CBFC8214FF4C871E0E7002002F0A4FBAB
:1075380040B1002002F0C8FB4FF44871504B0322C1
:107548001A70D5E702F0ACFBC821F7E7002002F07B
:1075580093FB38B1002002F0B7FB4FF47A61484B37
:107568000422EDE702F09CFB4FF4C871F7E7002016
:1075780002F082FB48B1002002F0A6FB404B052236
:107588001A7040F6CD410022C2E702F089FBF5E708
:10759800002002F0CBFB3A4B06221A70002240F280
:1075A8006661B5E7002002F07BFB354B07221A70B5
:1075B80000248CE70120207002F0B8FBEEE70120E0
:1075C800207002F0B3FB00224FF40051A0E702F054
:1075D8009EFB2B4B0C22EAE72A482B4E00F0C3FCFB
:1075E800D5F1110504461CD0D8B9012D13D0C823F4
:1075F8005D434FF400474FF47A7000214FF4FA626C
:107608000023C7FB050104F083FB224601461D4801
:1076180000F091FC0446022002F042FB0123337083
:1076280055E7022002F050FB0023F8E7FFF716FFAA
:10763800134B1222BBE7FFF711FF002002F030FBCB
:107648000F4B1322B3E7FFF709FF012002F028FBD5
:107658000B4B1422ABE7FFF701FF002002F020FBE1
:10766800012002F01DFB064B1522A0E702F04FFB9C
:10767800034B1D709CE700BF802900205029002083
:1076880088290020102900200D290020044B1B68A0
:10769800DB0703D5034B1878FFF7F6BE704700BF2A
:1076A8007C29002088290020044B1B6813F0010363
:1076B80001D0FFF7E9BE1846704700BF7C290020BB
:1076C80038B51C4B18601C4B10F0020405461960B5
:1076D8001AD01A4B1A480E221A700F22DA7010228A
:1076E8009A7111225A72042140F2333200F0B8F92B
:1076F800044648B900F00AFA044628B90146114A76
:10770800114800F00DFC0446EB0711D5012002F0EA
:1077180039FB6CB921460D4A0D4800F001FC0446BE
:1077280030B9BDE838400B4A0B48012100F0F8BBDE
:10773800204638BD7C29002084290020702900209B
:10774800FCDB02005D74020020DC0200957602007A
:1077580024DC0200B97302001CDC0200032811D8E3
:10776800012A0AD101290FD100F10E02D2B20D4B24
:1077780000EB40001A54002070470129F7D0022975
:1077880004D049B1072070470022F8E7054B00EB09
:10779800400018444270EEE7024B00EB40001844EA
:1077A8008270E8E77029002008B501220221002034
:1077B800FFF7D4FF08B1072810D1072202210120C2
:1077C800FFF7CCFF08B1072808D100210A22084694
:1077D800FFF7C4FF10B1072808BF002008BD00004C
:1077E8000388102B10B502D0112B1ED010BD1A4CD7
:1077F8002168B1B901220846FFF7B0FF08B1072890
:1078080024D1072202210120FFF7A8FF08B1072889
:107818001CD1042202210020FFF7A0FF08B107288D
:1078280014D1236801332360E0E70B4A1368013B56
:107838001360002BDAD1FFF7B7FF0028D6D0074B2B
:107848001B68002BD2D0BDE810401847034B1B68BB
:10785800002BE6D09847E4E79429002090290020DF
:10786800C30710B507D4F023054A4008145C234029
:107878001943115410BD0901C9B20F23F4E700BF21
:10788800C829002030B5094B1C78094B196800231A
:107898009C4202DC0022104630BD11F8335085426C
:1078A80001EBC302F7D00133F2E700BF98290020AB
:1078B800E829002013B504460191FFF7E3FF38B12A
:1078C80043682BB10199204602B0BDE81040184723
:1078D80002B010BD034B044819680022490800F0A3
:1078E8002ABB00BF9C290020A029002010B5C0B2E7
:1078F800FFF7C8FF0446007801F072FB63785A1E50
:1079080053425341834208D1044BD3E90023134324
:1079180003D1BDE81040FFF7DDBF10BDC02900202E
:1079280037B54308354AD35CC2074CBF1B0903F07F
:107938000F0304460D46042B35D8DFE803F0032572
:107948002C383C0079B30121FFF78AFF00230DF1A1
:1079580007008DF8073000F0DFFB0120A4F12003B9
:10796800C4F12001264A20FA01F100FA03F30B437F
:10797800A040D2E9004120430B43C2E900039DF82F
:10798800070000F0EDFB0EE0002918BF0221204699
:10799800FFF766FF07E041B10321FFF761FF01210F
:1079A8002046FFF787FF03B030BD0121EFE700292C
:1079B800F9D10421EBE709B10321E8E7FFF750FF0C
:1079C80029462046FFF776FF0DF107008DF807508E
:1079D80000F0A2FB0120A4F12003C4F12001084A11
:1079E80020FA01F100FA03F30B43A040D2E9004169
:1079F80024EA000021EA0303BFE700BFC8290020EA
:107A0800C02900202DE9F041124E134F002433788D
:107A1800A34208DC114BD3E90023134318D0BDE877
:107A2800F041FFF757BF3D6805EBC40815F834006F
:107A380001F0D6FA98F801305A1E53425341181AE9
:107A48004142414115F83400FFF76AFF0134DEE78F
:107A5800BDE8F08198290020E8290020C0290020ED
:107A6800092AF7B505460C4616463CD901F0E8F94F
:107A7800D8B11E4B1E481D601E4B1F4F1C701F4B5C
:107A8800002120221E6004F0CCFB1D4B00200021A9
:107A9800C3E90001013CE4B20326FF2C0BD1194ACB
:107AA8001948002100F03CFA03E001F083F90028AE
:107AB800DFD003B0F0BD9DF8063015F834008DF81E
:107AC800046005EBC40223F007038DF8063001A912
:107AD80093788DF805303A4601F0BCF9013CE4B2E0
:107AE8000028DAD0E5E70720E3E700BFE82900200F
:107AF800C829002098290020F57802009C29002038
:107B0800C02900200D7A020034DC020070B5084D4F
:107B1800084E00242B789C4201D3002070BD3368A6
:107B2800012113F8340001F011FA0134F2E700BF23
:107B380098290020E829002049B152B1531E1A4063
:107B480007D1826001608380C260104670470E20B2
:107B580070470920704710B58468C2688388121B73
:107B6800934208D3C26813400268D154C3680133F2
:107B7800C360002010BD0420FCE78268C3689A42F5
:107B88000AD08268838813400268D35C0B708368CC
:107B98000133836000207047052070470648074A74
:107BA80003780749D35C012213B1043001F0F8BF10
:107BB8000C3001F0B3BD00BFD8280020842B002072
:107BC800142A00200648074A03780749D35C012293
:107BD80013B1043001F09CBF0C3001F059BD00BF57
:107BE800D8280020842B0020152A002037B50578D6
:107BF800012D0BD0022D2ED065B91E491E48FFF766
:107C0800BCFF002832D1FFF7DDFF03E0037A1BB980
:107C1800FFF7C4FF03B030BD4368184C19782046FD
:107C2800FFF799FF80B18DF800500190144B68461A
:107C38001B689847A168E368A2885B1A9A42E7D252
:107C4800104B01221A70E5E7A268E3689A42F1D066
:107C58008DF80000EAE7C3688DF800500193FFF73C
:107C68009DFF074B68461B689847D3E703238DF8A9
:107C78000030F6E7152A0020042A0020F029002009
:107C8800EC290020002A0020F0B51F46234B89B0BC
:107C980004461A600D4600293DD08A8820480968A4
:107CA800FFF74AFF002834D1AA89A9681D48FFF7C1
:107CB80043FF00282DD11C4E0FCE6D460FC596E808
:107CC8000F0085E80F0063690693237C174A18485C
:107CD8008DF81C70003B18BF01238DF81430637CAD
:107CE800002B14BF0E2300238DF81530E368029390
:107CF800A36803932368019369466368009300F0BF
:107D0800DDFF30B90B4B18702368013301D0FFF742
:107D180045FF09B0F0BD0720FBE700BFEC290020B4
:107D2800F0290020042A002038DC0200F57B02003C
:107D3800D8280020002A00201FB50021039001AA9E
:107D480044F20100CDE9011100F004F805B05DF836
:107D580004FB000010B572B602F06AFA02F000F9EE
:107D68000028FBD1104B114C1149E41AE4082404F3
:107D780044F0010002F038FA0E4B1B68DB0700D50F
:107D880000BE0D4944F0020002F02EFABFF34F8FF7
:107D98000A490B4BCA6802F4E0621343CB60BFF395
:107DA8004F8F00BFFDE700BFF4DA020034DB0200AA
:107DB80058DC0200F0ED00E064DC020000ED00E0B9
:107DC8000400FA05D0E90223D1E90201994208BF6B
:107DD80090422CBF012000207047000008B50B48D6
:107DE80000F0F1FA0A4B0B49D3E900231218D1E944
:107DF800000143F100038B4208BF824203D212F113
:107E0800807243F100031046194608BDEC28002093
:107E1800202A0020982A002037B505460C460A4833
:107E280001A900F004FB60B10570446001A906488F
:107E380000F027FB18B1054800F0CAFA002003B08B
:107E480030BD0420FBE700BF842A0020EC28002076
:107E580038B5184B1B78044613B90025284638BD99
:107E68000028FAD0037F03F0FF05002BF5D0FFF7B9
:107E7800B5FFD4E90223994208BF904214D323697D
:107E880003B92377D4E90530984721690029E4D05C
:107E9800237F03F0FF05002BDFD0D4E9022352181B
:107EA80043F10003C4E902230348214600F03DFDE5
:107EB800D4E700BF282A002080DC020013B5114B4C
:107EC80011491868019008231048582200F09CFABC
:107ED800044698B90E4A0F4801A900F065F904460E
:107EE80060B90C48012100F051FA01230A4A0948F7
:107EF800194600F0B3F9094B01221A70204602B066
:107F080010BD00BF7CDC02002C2A0020842A00203F
:107F1800897F0200EC280020FFFF7F00282A00202C
:107F28003AB103685A614A1E514251411961002011
:107F380070470720704738B5037F04460D4683B95C
:107F48008261FFF74BFF2369401941F10001C4E941
:107F5800020103B1256121460020BDE83840FFF742
:107F68005BBF002038BD0023014603770120FFF7DF
:107F780053BF0000014800F026BA00BFEC280020DB
:107F88002DE9F04F85B0804600F008FA40B15A4A12
:107F9800D2E9003113F1807341F10001C2E90031E7
:107FA8000021404600F009FA38B1544E336823B135
:107FB8003068FFF74DFF002333600121404600F091
:107FC800FCF920B1FFF70AFF4D4BC3E900014D480A
:107FD8004A4F4D4EDFF8389103A900F062FA0028A5
:107FE80045D1DFF82491454EDFF828A1484600F036
:107FF800B2FC3368002875D07BB13368D0E9020140
:10800800D3E90223994208BF90422DD233681B7FDF
:108018001BB13168484600F088FC484600F095FCE2
:10802800D0E902B307460193FFF7D8FE019BBBEBEB
:10803800000463EB0105012C75F1000345DBB4F581
:10804800350F40D3FFF796FF304A02444FF49603AA
:108058000021504600F022F900283ED1336813B9B8
:10806800404600F0F3F8376005B0BDE8F08F0378BC
:10807800012B1DD0022B09D14FF0000A304600F029
:1080880064FC002834D080F81CA0F7E73BB94168AD
:108098000B7F23B901230B77304600F046FC03A978
:1080A800184800F029FA03A9164800F0FAF996E7EB
:1080B80041683B68994202D100233B60EFE73046B4
:1080C80000F04CFCEBE7BA68C0E70021504600F02E
:1080D8006AF93846FFF7BCFE01E00D28F9D0002305
:1080E800336083E7002BBFD1404600F0B3F8BBE70D
:1080F800012389F80030D2E7202A0020A02A002096
:10810800982A0020842A002080DC0200FFFFB400A7
:10811800282A0020EC28002070B5EFF3108672B6EC
:108128000C4A946801239CB993600B4B0B4DD3F810
:10813800801029401160C3F88050D3F88410516032
:108148004FF0FF32C3F88420047006B962B670BDE0
:108158000370FAE7A42A002000E100E0FC06FFBD56
:10816800084B9A6810B55AB150B9EFF3108172B63E
:10817800054A1C6814605C685460986001B962B66E
:1081880010BD00BFA42A002000E100E0435882B0DF
:108198003BB10023435043580193019B012002B097
:1081A80070471846FBE70000F8B5204B4479204D8E
:1081B80043F824201F4A204B05EBC4049B1A22795C
:1081C800DB081B0432B143F002001C4902F00CF832
:1081D8000820F8BD02680C88C2F8084590F90460C8
:1081E8008A7804795201002ED2B219DB14498F190A
:1081F80087F800230122760904F01F0402FA04F428
:1082080041F82640427905EBC201012445F83200C5
:108218000C7143F003000B4901F0E6FF0020D8E79A
:10822800094904F00F040A55ECE700BFB82A0020FA
:10823800B02A0020F4DA020044DB02008CDC0200E1
:1082480000E100E0AEDC020014ED00E0036801226A
:108258001A607047036801225A60704773B501F1CC
:108268005005AD000068ADB24FF480348C40002654
:10827800C0F80843C0F84843465101F5A87145596C
:10828800019522F07F42019D40F82120C0F8444327
:108298000BB1C0F8044302B070BD00002DE9F74FE0
:1082A8000D4622F07F4402684FF4803705F15006EE
:1082B8008F408046B60002EB8500C2F84873B6B21C
:1082C800C2F80873D2F8041599464FF0000BD0F89D
:1082D8004035C0F8401542F806B05B1A9259009232
:1082E80023F07F43012B009A4FEA850A0CD1264BD5
:1082F8004FF4806043F001039847D8F8003043F802
:1083080006B09B590193019BD8F80010D1F8046579
:10831800C1F84473A31B23F07F43012B1CD11A4BD4
:1083280005F5A875013443F0010341F825404FF4E1
:1083380080609847D8F80030D3F804359E4209D1B8
:10834800D8F800300020C3F84473C3F8047303B0AE
:10835800BDE8F08F0D20FAE78A44C9F1FF13CAF887
:108368004045D1F80405221A013A22F07F4203F56C
:108378007F439342EED3002AE2D10134CAF8404544
:10838800D1F804359842DAE7C0DC0200036802221B
:10839800C3F8442309B1C3F80423704700684FF4B5
:1083A8008271FFF7F3BE4FF4803303FA01F10368DB
:1083B800C3F84813C3F808137047503189000068A0
:1083C80089B2FFF7E3BE0368D3F8040570470000DD
:1083D80090F90430002B09DB5A09012103F01F032F
:1083E80001FA03F34032024941F82230704700BFD6
:1083F80000E100E0024B034A1B681068184700BF01
:10840800B82A0020B02A002010B561B1B2FBF3F4FD
:1084180003FB1424A4B244B9C0E900148460828127
:10842800C381204610BD0E20FCE70920FAE737B5C6
:1084380050E8013F9DB2C48925448489A54228BFDC
:108448002D1B0489A54202BFBFF32F8F002207E02E
:10845800C5EA030540E80154002CE9D14FF00102B8
:108468008DF803200193019B9DF803200B6002F017
:10847800FF0322B10B880068184403B030BD1846CA
:10848800FBE70A884B889A4209D150E8012FC2EAD3
:10849800024240E80123002BF7D101207047002059
:1084A800704737B550E8023F1FFAA3F5C488A542C4
:1084B80002BFBFF32F8F00220DE0C48925448489B1
:1084C800A54228BF2D1BC3EA054540E80254002CED
:1084D800E8D14FF001028DF803200193019B9DF82C
:1084E80003200B6002F0FF0322B14B880068184498
:1084F80003B030BD1846FBE70A884B889A4209D179
:1085080050E8022FC2EA224240E80223002BF7D1AA
:10851800012070470020704701F01F024B0901211C
:10852800914000EB830000F01EB801F01F03012208
:108538009A404B0900EB8300D14300F02CB84B095B
:1085480001F01F0150F82300C84000F001007047F7
:1085580010B5034653E8000F0A4643E8002494F098
:10856800000FF7D110BD10B5034653E8002F42EABB
:10857800010043E8000494F0000FF6D110BD10B5D7
:10858800034653E8000F00EA010243E8002494F090
:10859800000FF6D110BD10B5034653E8002F02EACC
:1085A800010043E8000494F0000FF6D110BD10B5A7
:1085B800034653E8002F02EB010043E8000494F05F
:1085C800000FF6D110BD10B5034653E8002FA2EBFB
:1085D800010043E8000494F0000FF6D110BD01211A
:1085E800FFF7C1BF0021FFF7CABF10B590B1D0E9AE
:1085F800012301689B1ADBB20A60013BDBB2FF2B47
:10860800026802D10020107110BD11684C1C146062
:108618000B70F2E70E20F7E737B5054600240DF199
:1086280007008DF80740FFF777FD2A686B68116827
:1086380099420ED9481E106011F8014CEB68298A3E
:1086480001FB0434AB6811791B1ADBB2994238BFBD
:1086580013719DF80700FFF783FD204603B030BD76
:1086680037B5054600230DF107000C468DF8073095
:10867800FFF752FD2A681368591C1160E968641AEB
:10868800298AB4FBF1F41C709DF80700FFF768FD18
:1086980003B030BD2DE9F84FB0F806A04579D2F8FF
:1086A80000B09DF828900AFB05F5043D88460BEBC1
:1086B8000301A94203F1040488BFA5EB030BB4FB33
:1086C800FAF607460AFB1644C2F800B04EB9AAEB00
:1086D80004055D4528BF5D46BBF1000F04D1BDE828
:1086E800F88F3F68013EF1E7043408EB06003C448C
:1086F8002A46B9F1000F0DD02146ABEB050B03F06C
:1087080067FDDA452E443F6855464FF0000428BF00
:108718005D46E1E701462046EFE7FFF766BFF8B59B
:1087280046790146721E0546002393422D6803D3FD
:108738000024A64202D8F8BD0133F6E70F682846A0
:10874800FFF78EFF01343946F3E72DE9F843068A2F
:10875800CD1C0746FFF760FF043E35440446B5FBD1
:10876800F6F5F0B14FF48073EDB28380C680013D19
:10877800076081464FF00008A84512D23846FFF737
:108788004BFF064648B163790133637108F101086C
:10879800C9F8000007608146EEE72046FFF7BFFFF3
:1087A80034462046BDE8F88301210430FFF7FFBEB8
:1087B80010B5012104460430FFF705FF10F0FF0F44
:1087C80004D12046BDE81040FFF7A9BF10BD1FB572
:1087D80003920022009203AAFFF75CFF05B05DF840
:1087E80004FB0000064B10B500241C70054B1C60F0
:1087F800BFF35F8F0449054800F081F8204610BD9B
:10880800C42A0020C82A0020D8DC0200BC2A002084
:10881800026813685268934291BFD01A8068013089
:10882800801888BFC01A7047036881681A685B6837
:108838008B4234BF01330023D31A58425841704742
:10884800F7B5002304460DF107000D468DF80730F3
:10885800FFF762FC2046FFF7E7FF10B1237C002BEF
:108868003CD12268A66853685168B14234BF0131CF
:108878000021516030B11168A068814234BF0131D4
:1088880000211160E2686068511E072920D8DFE8DE
:1088980001F004101F141F1F1F182A78C254204605
:1088A800FFF7B6FF23689A68824200D298600024D6
:1088B80015E02A8820F81320F1E72A6840F82320D9
:1088C800EDE7D5E9006700EBC300C0E90067E6E71C
:1088D800294602FB030003F07BFCE0E704249DF833
:1088E8000700FFF73DFC204603B0F0BD8368002277
:1088F8005A60C3E904229A60DA601A6070470B680C
:108908004A684360934208BF0023016008BF436080
:108918007047436843B10268916852680B449342B8
:10892800436004BF00234360704770B5446806463F
:108938000D46206818B1B3682946984718B92368C6
:108948002B60256070BD2468F3E74368186808B198
:1089580002681A6070474368186870474368186867
:1089680000B97047884203D102681A600120704735
:1089780003460068F4E7000010B50D49A1F59472AC
:10898800914201D800200FE08C1AE30F03EBE403B7
:108998005B1002EBC30452F83330834205D802D28D
:1089A80004F10802ECE7606810BD2146E8E700BF63
:1089B800E4E1020008B5FFF7DFFF024B002808BF1B
:1089C800184608BDA7E002002DE9F7430024064633
:1089D8000F4600F5A0754FF48038A1462B688BB17F
:1089E800D6F8043308FA04F21A420BD0C5F80090FE
:1089F8002B680193019BA30003F5A07398B2D7E9F4
:108A0800003198470134042C05F10405E6D103B080
:108A1800BDE8F08301490248FFF7D6BFCC2A002001
:108A28000080004001490248FFF7CEBFD82A002045
:108A38000090004001490248FFF7C6BFE42A002021
:108A480000A0004000F1804000F5E040002382B023
:108A5800036003680193019B02B07047F0B5504B67
:108A6800504C1B6885B0002B3DD04FF4827094F8B1
:108A78002E20FFF7E7FF2AB394F82F3013BB4A4B99
:108A88001B68002B33D04FF48070FFF7DBFF638B3C
:108A980094F82D108B424FD922895B1A9BB292B25F
:108AA8006383D31A626802EB4303404AC2F82C3648
:108AB800C2F830164FF48270FFF7C4FF3C4B012216
:108AC8001A6014E0636802932389ADF80C30E368F8
:108AD80000218DF8041023BB2374236801A898474C
:108AE800002384F82F3094F82E30002BC7D1314B57
:108AF8001B685BB14FF48870FFF7A4FF0023237451
:108B080002238DF8043001A8236898472A4B1B6874
:108B1800EBB14FF48A70FFF795FF0023237405B07B
:108B2800F0BD208B608363602081E160002AD4D18E
:108B38001E4B01221A60D0E7BCD1E368012284F8F9
:108B48002F2013B100226283AFE76383B2E766691F
:108B58004FF000470125002EE1D0B6FA86F227FA39
:108B680002F34632920026EA030602F1804303F537
:108B7800E0431B68002BEED01046FFF763FFA2F519
:108B88008C72D30882F00402C2F380028DF8083098
:108B98008DF8045023688DF8092001A89847DAE772
:108BA80004710040F02A002000710040007000406D
:108BB8000470004010710040147100401FB500237C
:108BC8008DF807000DF10F008DF80F30FFF7A4FAAC
:108BD80002F0ECFE50B909480DF10701FFF730FE2D
:108BE8000648FFF721FE08B100F05EFB9DF80F0074
:108BF800FFF7B6FA05B05DF804FB00BFE0DB020042
:108C080007B520B103280BD003B05DF804FB0F4B68
:108C18001B78012BF8D100F047FB00F04DFBF3E780
:108C280000230DF107008DF80730FFF775FA0748A4
:108C38000378012B05D10649013000F0F5FA00F060
:108C480021FB9DF80700FFF78BFADDE7702B00206A
:108C5800C58B02001FB503788DF800304368019377
:108C680083688DF80830C368054A0393054B684646
:108C780053F8213052F82110984705B05DF804FBED
:108C8800742B00207C2B00201FB503788DF8003052
:108C98004368019383688DF80830C368054A0393D5
:108CA800054B684653F8213052F82110984705B013
:108CB8005DF804FB742B00207C2B0020F0B5194BC9
:108CC80090F800C0DFF86CE043F82C20164B1646ED
:108CD8000A6943F82C204B7F0EF80C300C460746E7
:108CE8000FCC89B06D460FC594E80F0085E80F00DA
:108CF8001EF80C30CDF810C04BB1002E0B4A694657
:108D080008BF3246381D00F025FE09B0F0BD002E20
:108D1800074A694608BF324607F10C0000F0E6FB37
:108D2800F3E700BF7C2B0020742B00205D8C020031
:108D3800918C0200842B002000F1804000F5C04097
:108D4800002382B0036003680193019B02B070475F
:108D580003681F2B83BF03F01F03036001484FF014
:108D6800A04070470003005007B5019001A8FFF725
:108D7800EFFF019B00EB8300D0F8003723F440336A
:108D8800C0F80037D0F8003743EA0141C0F80017AF
:108D980003B05DF804FB0000054B4FF0FF320728D5
:108DA80043F8202084BFC01880F85820704700BFBF
:108DB800882B002038B51E4C94F86A30ABBB4FF6B0
:108DC800FF71FF205A09012A14BF4FF0FF320A46EB
:108DD80003F01F05EA40D20748BFE21803F1010378
:108DE80048BF82F83000302BECD10021C8B2FFF721
:108DF800D3FF01310C29F9D1062200210D4803F0D7
:108E080010FA0D4BC02283F8062340221A604FF453
:108E1800BE70FFF791FF094B4FF00042C3F80423DF
:108E2800012384F86A30002038BD0820FCE700BF21
:108E3800882B0020EC2B002000E100E000600040BF
:108E4800034B93F86A00003818BF0120704700BF31
:108E5800882B0020F7B53B4E3318054693F9303080
:108E6800002B6CDA8B78C3F34003002B0BBF08246C
:108E780000240C200820844202D1042003B0F0BD55
:108E880056F82470013743D1701946F8242080F829
:108E9800304013B9331983F858508B785A0717D4D0
:108EA800D80737D501A80195FFF752FF019B00EBC2
:108EB8008300D0F8003723F00203C0F800372248B7
:108EC800EA0805F007070123BB40875C3B4383544E
:108ED8008B780A7813F0020328D0A40004F18044A8
:108EE80004F5C0442D02D4F8103523F44F3323F48D
:108EF8004073C4F810351204D4F8103505F47C55C5
:108F080002F4403215431D43C4F810550020B5E75C
:108F18000134B0E701A84A780195FFF719FF019BD2
:108F280003F5E073920040F82320C8E7083C344476
:108F380094F8605045EA821284F86020E6E7082039
:108F48009CE700BF882B0020EC2B002073B5224C37
:108F58002618054696F93020072A1ADD224492F889
:108F680058309B09032B0FD1019001A8FFF7F0FEA1
:108F7800019BD0F81015D94001F0010102312846B3
:108F8800FFF7F2FE02B070BD012B0CBF02210321D6
:108F9800F5E7D3B2072BF5D8930003F1804303F527
:108FA800C043D3F8100540F00100C3F8100502F1E2
:108FB8004000800080B2FFF7BFFE0029E2D096F99A
:108FC800303054F82330002BDCD0012303FA02F2AE
:108FD800024BC3F80423D5E7882B0020006000402B
:108FE80007B5019001A8FFF7B3FE019BD0F8100563
:108FF800D84000F0010003B05DF804FB2DE9FF47FD
:109008000024CDE90244584D4FF48072012102F149
:10901800804303F5C04390B21B68012B06D1D5F8F5
:1090280004330B4202D0FFF787FE0C430432B2F53B
:10903800907F4FEA4101EAD14C4B1B68012B11D1BB
:109048004FF4BE70FFF778FE4FF0A04344F00044A1
:10905800D3F820250292C3F82025D3F820280392BC
:10906800C3F8202814F0FF0F1AD0414F002501261D
:10907800344210D0AB0003F1804303F5C043D3F86A
:109088001005D3F8101557F8253023B1C1F3014165
:10909800C0F3052098470135082D4FEA4606E7D169
:1090A800002C59DA324D334C334E4FF0000801276B
:1090B80016F9013B5A1C3CD0C3F3C20104A8014471
:1090C8005FFA83F911F8081C03F03F0203F0070365
:1090D80007FA03F319422CD001A80192FFF738FED2
:1090E800019B03F5E07350F82330C3F3014ABAF14A
:1090F800020F10460CBF03210221FFF735FE01A81D
:109108000192FFF725FE019B07FA03F3C0F820350B
:10911800AB1893F9303055F8233053B14FEA991111
:10912800032904D0BAF1020F19D1012901D110463F
:10913800984708F10108B8F1040FB9D14FF0A043DE
:10914800D3F820250292C3F82025D4F820350393BC
:10915800C4F820351343A7D104B0BDE8F087BAF1AD
:10916800030FE6D10229E1E7006000407C6100407E
:10917800882B002000030050E82B0020014B1B68BF
:10918800184700BFF42B00202DE9F3411F4B204C5A
:10919800E41A204BE408240498420E4644F00307DE
:1091A80029D11D4D1D492A46384601F021F80023D2
:1091B8000DF107008DF80730FEF7AEFF95F8048033
:1091C800B8F1000F02D101232E602B719DF8070022
:1091D800FEF7C6FFB8F1000F0DD01120FFF7EAFB2C
:1091E8000F4A1049034644F0020001F00AF8112022
:1091F80002B0BDE8F0810020FFF7DCFB084A09490E
:109208000346384600F0FDFF0020F1E7F4DA0200DB
:1092180004DB020000200040F42B0020BFE3020022
:1092280021E20200FFE1020010B5124C2278FAB9DF
:10923800114B1960037813F0010F104B1EBFD3F8C0
:10924800042542F00102C3F80425D3F8002222F0D5
:109258000102C3F800224378094A5B01DBB282F8B5
:109268000D334FF40053136001232370002010BD09
:109278008520FCE7002C0020FC2B002000D00040BB
:1092880000E100E0064B00221A6082B01B680193DF
:10929800019B044B0122C3F804231A6002B07047F3
:1092A80000D1004000D00040024A0123C2F8083330
:1092B8005360704700D00040084A0123C2F80833C1
:1092C8005360074B4FF40052C3F88020BFF34F8F11
:1092D800BFF36F8F034B00221A70704700D0004015
:1092E80000E100E0002C0020074B00221A6082B049
:1092F8001B680193019B054BD3F80805044B1B68B9
:10930800C0B202B0184700BF00D1004000D00040F2
:10931800FC2B00200023435082B043580193019B4B
:1093280002B070470A4610B54FF48E71FFF7F2FF8E
:10933800136A9168C95C136A01331362C0F81C157B
:1093480010BD024608B500684FF49271FFF7E2FFBE
:109358004FF484711068FFF7DDFF136801221A606B
:1093680008BD8B690A4610B54FF4847123B9FFF71D
:10937800D1FFD0F8183510BDFFF7CCFF536AD1687C
:10938800D0F81805C854536A01335362F3E7000054
:109398001FB501238DF80030044BCDE90110D3E946
:1093A80000126846904705B05DF804FB042C0020C5
:1093B80030B54C48D0F8043313F4007F85B0054627
:1093C8004DD0D0F82431002B49D04FF49271FFF7DB
:1093D800A1FF4FF40173C0F80833434B93F82920D9
:1093E8000AB9012242603F4902228DF80020D1F8D3
:1093F8008024C1F8802403929A690292DA68019263
:109408000022C3E906226846D3E90012904735488E
:10941800D0F81C315BB134494A690B6A9A420A4652
:109428004AD991F82830002B46D1FFF77BFF2D4809
:10943800D0F844318BB14FF4A271FFF76BFF2A4B80
:1094480093F829200AB1012202609A692AB1002200
:10945800586AD9689A61FFF79BFF05B030BDD5F807
:1094680004335B07D3D5D5F80831002BCFD01E4C79
:109478001C482146FFF775FF636AA2699A42234692
:10948800C5D1E269E1684AB12369E3600023606AF3
:10949800A261E3616362FFF77BFFB8E794F82920D4
:1094A8000AB901226A600F4A4FF40170C2F8080332
:1094B8000022586A9A61EEE70A484FF48E71FFF766
:1094C80029FF5369002BB2D051690291002391689A
:1094D8008DF80030019153616846D2E9001398472E
:1094E800A5E700BF00200040042C00202DE9F84328
:1094F800614B057991462C2202FB0532064692F80B
:109508002A200C469846002A40F0B1805B49006842
:10951800FFF73AFE0746002840F0AB8021684A1C56
:1095280010D01F2987BF564A01F01F030B464FF082
:10953800A0420120984003F5E073C2F80805032013
:1095480042F823006068431C0DD01F288BBF00F031
:109558001F0303464A4A4FF0A04203F5E0734FF059
:10956800000C42F823C03368A269C3F8242594F894
:1095780014C0627DBCF1010F4CEA0202C3F86C25ED
:10958800C3F81405C3F80C152BD1A168481C0DD0DD
:109598001F298BBF01F01F020A4639484FF0A0402F
:1095A80002F5E0724FF0000C40F822C0E068421C5F
:1095B80013D01F2887BF324A00F01F0C84464FF093
:1095C800A0424FF0010E0EFA0CFE0CF5E07CC2F83A
:1095D80008E54FF0030E42F82CE0C3F80805C3F87D
:1095E80010152C236B4308EB0302C2F80490226980
:1095F80048F80320B9F1000F21D03068247F4FF4D8
:109608008E71FFF787FE4FF4A2713068FFF782FE74
:1096180032681C4BC2F80433110B42F30732630162
:10962800002ADBB21EDB1848841884F800330123B3
:10963800520901F01F0103FA01F140F822103368C2
:109648000422C3F800252C2303FB05830022C3E969
:10965800062283F829205A61012283F82A203846F5
:10966800BDE8F883094A01F00F015354E7E70827DA
:10967800F5E71127F3E700BF042C0020B993020097
:10968800000300508000020000E100E014ED00E05B
:109698002DE9F047204F90F804904FF02C0808FB74
:1096A800097405466669002E34D162610068A160BC
:1096B80026624FF48E7184F82860FFF72BFE286825
:1096C800012383602146FFF72DFE6368A0468BB90E
:1096D8002868D4F814A0236A9A4511D82A68D2F8C1
:1096E8001C31002BFBD00123D3602C2303FB09730F
:1096F80000225A613046BDE8F08794F828303BB91B
:10970800D0F81C31002BF8D04146FFF70BFEE2E7FA
:109718000F26EAE71126EDE7042C00202DE9F8438F
:10972800394F05792C2303FB057306465C6824B181
:1097380003684FF40170C3F808032C2303FB057377
:10974800986950B1D86900283ED024B133684FF4E5
:109758000172C3F80423112433E09A61D960586276
:10976800D8612C2303FB057393F829301BB910B972
:109778003046FFF7E6FD4FF02C0909FB0578306805
:10978800D8F80430002B34D14FF4A271C146FFF74A
:10979800C1FD3068D0F82431D0F80821D0F8444110
:1097A800B2B90CB9002BF4D02C2202FB05750022AB
:1097B800AA6123BB2CBB95F8291033680122B1B1EB
:1097C8001A602046BDE8F8831961DA610120C8E70C
:1097D800002BE9D1002CE7D14946FFF7C2FDD8F8A4
:1097E8002430D8F818209A42D3D82346DCE75A60A8
:1097F800E7E74FF40173C0F804330024E1E70324DA
:10980800DFE70F24DDE700BF042C002000234350CE
:1098180082B043580193019B02B070471FB50123E2
:109828008DF80030044BCDE90110D3E900126846E9
:10983800904705B05DF804FB302C00207FB5434A03
:10984800D2F82461002E60D010464FF49271FFF7D1
:10985800DDFF02238DF80030D2F88034C2F880345E
:109868000393D2F83C350293394BDA68019200220F
:10987800C3E906226846D3E9001290473348D0F876
:10988800443173B14FF4A271FFF7C0FF304B9A69AE
:109898003AB10022C3E90622D968D0F83C05FFF79F
:1098A800BDFF2A48D0F82031ABB14FF49071FFF7D3
:1098B800ADFF0123C360264B5A6962B1D0F84C153D
:1098C8000291002299688DF8002001915A6168463A
:1098D800D3E9001290471D48D0F858319BB14FF496
:1098E800AC71FFF793FF1A4B5A6962B1D0F84C1567
:1098F8000291002299688DF8002001915A6168460A
:10990800D3E90012904704B070BDD2F81031002B93
:10991800B4D04FF488711046FFF778FF0C4BD2F89B
:109928003C0599698842A9D1DC69D96864B1D2F843
:10993800005225F02005C2F800521A699C61DA60CD
:10994800DE61FFF76BFF99E79C61FAE700200040B2
:10995800302C00202DE9F843674B067991462422E4
:1099680002FB0632044692F820200D469846002A4B
:1099780040F0BE8061490068FFF706FC07460028F2
:1099880040F0B8802868421C10D01F2887BF5C4A66
:1099980000F01F0303464FF0A0420121994003F550
:1099A800E073C2F80815032142F8231069684B1CBC
:1099B8000DD01F298BBF01F01F030B46504A4FF0F3
:1099C800A04203F5E0734FF0000C42F823C023686F
:1099D800AA69C3F8242595F814C06A7DBCF1010F63
:1099E8004CEA0202C3F86C25C3F80C05C3F8141539
:1099F8002BD1A968481C0DD01F298BBF01F01F026D
:109A08000A463F484FF0A04002F5E0724FF0000CC4
:109A180040F822C0E868421C13D01F2887BF384A84
:109A280000F01F0C84464FF0A0424FF0010E0EFAD2
:109A38000CFE0CF5E07CC2F808E54FF0030E42F886
:109A48002CE0C3F80805C3F810152423734308EB6A
:109A58000302C2F804902A6948F80320B9F1000FFC
:109A680030D020682A7F4FF48871FFF7CFFE206836
:109A78004FF49071FFF7CAFE20684FF49271FFF718
:109A8800C5FE20684FF4A271FFF7C0FE4FF4AC7119
:109A98002068FFF7BBFE23681A49C3F80413190BA3
:109AA80043F307335201002BD2B21CDB1648C5180A
:109AB80085F8002301225B0901F01F0102FA01F178
:109AC80040F8231023680822C3F80025242303FB49
:109AD80006830022C3E906225A61012283F8202066
:109AE8003846BDE8F883094B01F00F015A54E9E7FD
:109AF8000827F5E71127F3E7302C002045980200E6
:109B0800000300501003420000E100E014ED00E003
:109B180001F06043B3F1005F2DE9F041064638D10A
:109B28001E4B0779242505FB073598466C69002CE0
:109B380031D16A610068A9604FF49071FFF766FE41
:109B48004FF4AC713068FFF761FE33686A69A96841
:109B5800C3F84415C3F8482501229A606A68AAB96F
:109B6800D3F82021D3F858411AB9002CF8D00F2483
:109B780007E0002CFBD10122DA60D3F85821002A33
:109B8800FBD0242303FB078700237B612046BDE825
:109B9800F0811024FAE71124F8E700BF302C0020E8
:109BA800F8B501F06043B3F1005F04460F465ED19B
:109BB8000379304D242101FB0351496821B1006824
:109BC8004FF40476C0F80863242000FB03539E6911
:109BD80056B1D869002839D021B123684FF40472EE
:109BE800C3F80423112030E09A61DF60DE61206849
:109BF8004FF48871FFF70AFE20684FF4A271FFF74F
:109C080005FE2368C3F83475C3F8382516BB01224E
:109C18001A602179242202FB015252680ABBD3F848
:109C28001041D3F84421D3F82401144302D1002869
:109C3800F5D02246242303FB01550023984218BF80
:109C480003209A42AB6118BF0F20F8BD1F61DA618B
:109C58000126CCE7D3F8002242F02002C3F8002204
:109C6800D7E74FF40472C3F804230020EDE710206F
:109C7800EBE700BF302C0020074B1B5C1F2B8ABF73
:109C8800064A4FF0A04203F01F03D2F80405D8405B
:109C9800C04300F00100704741E202000003005099
:109CA800074B1B5C1F2B86BF064903F01F034FF0B1
:109CB800A041012202FA03F3C1F80C35704700BF36
:109CC80041E2020000030050074B1B5C1F2B86BFBC
:109CD800064903F01F034FF0A041012202FA03F3E3
:109CE800C1F80835704700BF41E202000003005088
:109CF80008B50020FFF7E8FF0120FFF7E5FF022085
:109D0800FFF7E2FFBDE808400320FFF7DDBF08B515
:109D18000020FFF7C5FF0120FFF7C2FF0220FFF771
:109D2800BFFFBDE808400320FFF7BABF0A4B185C25
:109D38001F288ABF094B4FF0A04300F01F00D3F83B
:109D480004250121814021EA02000A40C3F80805E0
:109D5800C3F80C25704700BF41E202000003005021
:109D68000B2809D00C2809D0182809D019280CBFAD
:109D780003204FF0FF3070470020704701207047E4
:109D880002207047C20710B504460CD54FF0A04317
:109D98000322C3F83427C3F83827C3F83C27C3F88D
:109DA8004027FFF7A5FFA3070AD54FF0A0430C22D1
:109DB800C3F82C27C3F83027C3F86027C3F86427F3
:109DC80010BD7047037813F0040216D003F00303A4
:109DD800012B03D0022B09D0012070470A680088A4
:109DE8000232C0F3831002440A60F5E70B68428828
:109DF800023303EB92130B60EEE710467047000046
:109E08002DE9F04F87B000230446861C0DF10700AA
:109E18000F4615468DF80730FEF77EF9404A51681F
:109E28003960936803F580735B1A924602F21C4707
:109E380002F5836902F21448B3421AD30020002DB8
:109E480069D004F00F039B0143F0050363F30F008F
:109E5800DAF80430DAB203321E444AF822009DF8D8
:109E68000700CAF80460FEF77BF9012007B0BDE8D7
:109E7800F08F01213846FEF79AFB4846FEF7AFFB04
:109E88004046FEF7ACFBDAF808000290C0B2033097
:109E98000AEB800002A9FFF795FF029B30BBDAB2FC
:109EA8000AEB8202D16803919A1C0133DBB20AEBF8
:109EB80083030292D3F80CB001F00303012B22D0E4
:109EC800022B15D083464046FEF78CFB10B1029B4F
:109ED800CAF8083059463846FEF769FBDAF8083000
:109EE800DAF8042003F580739B1AA5E7D8B2CEE709
:109EF800BDF80E30C3F3891303334FEA1B4B02EB53
:109F080093030293DFE7BDF80C30C3F383134FEAE2
:109F18001B4B1344F5E7A40544F0060098E700BF7F
:109F2800242D0020064B074810B501221A70FEF7B1
:109F3800F4FB044610B90448FEF7D8FC204610BDCF
:109F4800242D002094DB02005CE20200034BD3E9DD
:109F58000130C31A58425841704700BF242D0020D1
:109F68002DE9F04186B0FFF7F1FF0546002840F0E3
:109F7800E680744CC4F81804BFF34F8FA3680293AB
:109F8800DBB2033304EB830002A9FFF71BFF029B3C
:109F980018B1D4F81824002A55D0DAB2991C013324
:109FA80004EB8202DBB204EB8303D268DB68049320
:109FB80002F00303022B039202914FD1BDF80E3039
:109FC8006148C3F38917502F3E4628BF502666F3D1
:109FD8008F1306F10801ADF80E30FEF7B6FB054603
:109FE800002800F09780FEF7DFFB002303A9082272
:109FF8002846FEF7ECFB0299CB43DBB20133C9B22A
:10A008000331B6EB830F4FEA830804EB810122D9B1
:10A0180008234246A6EB08062846FEF7D8FBF6B208
:10A028004A4908F1080332462846FEF7D0FB029B4E
:10A03800033703EB97070297D4F81834002B41D164
:10A04800D4F8106451E062689A4299D8A260284610
:10A0580006B0BDE8F08108233246E5E7012B59D167
:10A06800BDF80C303848C3F38311062928BF0621F0
:10A0780061F3891302318900ADF80C30FEF765FBF6
:10A088000546002846D0FEF78FFB0023082203A9C7
:10A098002846FEF79CFB0026BDF80C20C2F383126D
:10A0A800B300964203F10803C6D202994A1CC9B20A
:10A0B8000331029204EB810104222846FEF787FB54
:10A0C8000136E9E72846FEF773FBFFF73FFF80F00C
:10A0D8000100C5B2BBE7F3685B7923B13368294651
:10A0E8001B6830469847F3681E68002EF3D128464F
:10A0F800FEF75EFB0DF107008DF80760FEF70CF820
:10A10800D4F818340BB9029BA3609DF80700FEF73A
:10A1180027F8DAE7D4F8104454B90D4B0D480E4926
:10A12800C01AC008000440F0020000F05DF8CCE757
:10A13800236820469B689847E3681C68ECE700257D
:10A1480085E700BF242D002094DB0200302D00207D
:10A15800F4DA020034DB020045E202002DE9F3479D
:10A1680004460E46924601A9012218469946FFF771
:10A1780047FE1B4F10B3019D4FF00008AA1CC845AD
:10A1880008EB020123D117480021FEF7E1F980F31B
:10A198001000000440EA1440E4006B1C04F038048A
:10A1A800DBB2EDB244F0010407EB8303033544EA64
:10A1B800881444EA8624D86047F825403B781BB1C8
:10A1C800FFF7CEFE0028FBD102B0BDE8F087C9B288
:10A1D80007EB81015AF82830CB6008F10108CEE777
:10A1E800242D00204031002000231A46FFF7B6BF77
:10A1F80007B50123019201AAFFF7B0FF03B05DF88C
:10A2080004FB07B5CDE9002302236A46FFF7A6FF42
:10A2180003B05DF804FB1FB5CDE90123069B03934A
:10A2280001AA0323FFF79AFF05B05DF804FB0000BD
:10A23800084A38B50123D2F8104413701D4604B9F2
:10A2480038BDE3685D71236820465B689847E3681A
:10A258001C68F4E7242D00202DE9F843124F134C15
:10A26800134E144DDFF8549001223A70124AA41A82
:10A27800E408AD1B2404ED0844F003044FF0000883
:10A28800A84504D102233B700020BDE8F88332467C
:10A2980049462046FFF7ACFF56F8083B9847002888
:10A2A800F3D108F10108EBE7DC31002034DB0200D0
:10A2B800F4DB0200FCDB0200F4DA020068E20200D0
:10A2C800054B1A78022A04D01878431E5842584180
:10A2D80070470120704700BFDC31002070B506468A
:10A2E8000D466A46194B9A4205D3FFF7E9FF78B93C
:10A2F8004FF4054070BD164B16481749C01AC008E0
:10A30800000440F00100FFF76FFF48F21950F1E731
:10A31800124C236823B1124B1A68124B9A420FD081
:10A3280086B97DB910481149206000F0AFFD0028BA
:10A33800E0D10B4B0B4A1A6023680D4A1A60D9E723
:10A348000020D7E748F21750D4E700BF00F80320F1
:10A35800F4DA020034DB020078E20200AC4A0020A2
:10A36800C83200206572E54BE0310020CC32002075
:10A378006169614D72DF704773DF704774DF704742
:10A3880077DF7047014B01221A707047D34D0020C8
:10A398002DE9F041154B164C1649174DE41AE408FF
:10A3A800240444F003042046FFF71EFFFDF7E2FDF6
:10A3B8002B68124902462046FFF723FFFDF7DAFD16
:10A3C8002B68C01AB0F5A03F0DD900250C4E0D4FD3
:10A3D800A846002239462046013506F8018BFFF7CA
:10A3E80007FF062DF5D1BDE8F08100BFF4DA0200C1
:10A3F80034DB020091E20200B84A0020A3E2020026
:10A40800C44A0020C0E20200024B800143F001036D
:10A41800184700BF90E4020010B503780446CBB19A
:10A42800022B0ED10C4B0D480D491B1ADB081B04DF
:10A4380043F00300FFF7D8FE6068BDE81040FDF761
:10A448007BBC012B06D1044B044806491B1ADB08C8
:10A458001B04EDE710BD00BF34DB0200F4DA020094
:10A46800CDE20200D6E202001F2886BF00F01F00DE
:10A47800044B4FF0A04300F5E070032243F820207E
:10A48800704700BF000300501F2886BF054A00F030
:10A498001F004FF0A042012303FA00F0C2F808059C
:10A4A800704700BF000300501F2886BF054A00F010
:10A4B8001F004FF0A042012303FA00F0C2F80C0578
:10A4C800704700BF0003005070B5234E234C30780E
:10A4D80092B0FFF753FF5923ADF80030204B029399
:10A4E800002517233C22002103A8ADF8043001F011
:10A4F80098FE1822294620468DF80C50CDF830D009
:10A508008DF80E5001F08DFE0A23164A23704FF481
:10A51800C873A3604FF48063A38252F8041B65607C
:10A52800042303A8A581A37500F04AFD08B1FDF72F
:10A5380003FC0A4A0B490848FFF71CFF08B1FDF75E
:10A54800FBFB317808220120FFF71AFF08B1FDF75D
:10A55800F3FB12B070BD00BF04290020DC4A0020C4
:10A56800C44A0020F428002008B5084B01211878B7
:10A57800FFF702FF08B1FDF7DFFB0220FDF794F8B3
:10A5880018B1BDE80840FDF7D7BB08BD0429002075
:10A5980070B500252C464FF0A0460220FFF774FF47
:10A5A8000120FFF731FF0220FFF77EFF0120FFF7B0
:10A5B8002BFFD6F81035DB0FAB4001351C43082DB7
:10A5C800E4B2EAD1204670BD70B505460E460024B7
:10A5D80045FA04F3DB074FF01F0016D4FFF764FFBA
:10A5E8000120FFF711FF0220FFF74EFF0120FFF7C0
:10A5F8000BFF6EB1072C0BD14FF0A0430C22C3F810
:10A608007C270134082CE3D170BDFFF73DFFE7E755
:10A618000220FFF749FF0120FFF7F6FEF1E708B532
:10A628002B20FFF741FF2B20FFF71EFF0220FFF72B
:10A638003BFF0220FFF718FF1F20FFF715FF2B2015
:10A64800FFF722FFBDE808400420FFF7DDBE08B58C
:10A658002B20FFF729FFBDE808400420FFF7D4BEF0
:10A6680038B50446FFF7DBFF0121BF20FFF7ACFF39
:10A67800651E0734FFF78CFF05F8010FA542F9D1D5
:10A68800BDE83840FFF7E3BF10B51B4C8AB0204641
:10A69800FFF7E6FF2378190903F00F020A2313FBDB
:10A6A800012201926278110902F00F0213FB0122C4
:10A6B8000292A278110902F00F0213FB0122039201
:10A6C800E278110902F00F0213FB012221790492AA
:10A6D8000A0901F00F0113FB0212013A0592A2794F
:10A6E800110902F00F0213FB0123643301A806933A
:10A6F80001F0B0FC0AB010BDB04A00202DE9F74FB8
:10A70800594D5A4C6B7895F80090DFF8B0B1DFF8E6
:10A71800B0810746564849EA0309241AAB780E4621
:10A72800E4085449240459EA030944F0030406EBF5
:10A73800010A5ED150492046FFF756FD4F4932467F
:10A748002046FFF755FD4E4A4E492046FFF750FD7B
:10A758004D49CBF800A052462046FFF749FDDBF8EB
:10A7680000202A70110C130AA970C9B26B700091ED
:10A77800DBB24649D2B22046FFF74DFDAB786A7886
:10A7880043491B0443EA02232A7820461A43FFF769
:10A798002FFDF023EB707B783A783E491B0943EA9A
:10A7A80002132B717B783C4F03F00F036B7120462B
:10A7B8000523C8F80030FFF717FD15F8012B3946B7
:10A7C800204609F10109FFF713FDB9F12B0FF4D168
:10A7D800D8F80030292B09DD304B314901222046B9
:10A7E8001A70FFF701FD0023C8F8003003B0BDE878
:10A7F800F08FDBF80020891A0E4420462949FFF71C
:10A80800F7FC294952462046FFF7F2FC3246274911
:10A818002046FFF7EDFCD8F8002025492046FFF731
:10A82800E7FCD8F800307878E918F0224E708A7082
:10A838003A78120142EA1012CA707A781D491E4FFE
:10A84800043302F00F022046EA54C8F80030FFF73C
:10A85800CBFC002615F8012B394620460136FFF7B8
:10A86800C7FC2B2EF6D1B3E7A84C002034DB02003E
:10A87800F4DA0200407F55A0DFE20200F9E20200AC
:10A88800C080AA5F01E302000AE3020015E30200A8
:10A898002AE3020039E30200C8E30200D44D002095
:10A8A8008BE302004DE302005AE3020062E3020078
:10A8B8006CE3020074E30200BFE30200BC4A00201C
:10A8C800C04A00202DE9F0410E4C0F490F4FDFF828
:10A8D800448006460E48241AE408240444F003047D
:10A8E8002046FFF781FC0425B36941465A5D07F805
:10A8F800012B20460135FFF77BFC092DF4D1BDE87B
:10A90800F08100BF34DB020099E30200C44A002052
:10A91800F4DA0200ABE302002DE9F043394B3A4C7C
:10A928003A49E41AE4082404064644F003048DB0C6
:10A938002046FFF759FC33881D2B4FF000054BD1FB
:10A94800B18C2F462B468D4249D3DFF8E09006F1B3
:10A958000B0506F1110815F8012B49462046FFF7AB
:10A9680047FCA845F7D196F91B2029492046FFF74F
:10A978003FFC8FB3FDF7FEFA264B274918600246C5
:10A98800264D2046FFF734FC06F10800FFF79AFF32
:10A99800FFF79AFDFFF7E8FD2B78EBB12049204639
:10A9A800FFF722FCFFF770FE1E4902462046FFF71C
:10A9B8001FFC9DF80E309DF80C201B490093204683
:10A9C8009DF80D30FFF727FCFFF75EFE014603A850
:10A9D800FFF794FE00232B700DB0BDE8F083326AB8
:10A9E800907859280BD1D07848B9032D07D9505DF4
:10A9F8000CAA1A44013302F8240CDBB201270135F2
:10AA0800EDB2A0E7F4DA020034DB0200B2E30200A0
:10AA1800C2E30200B84A0020CBE30200D34D002075
:10AA2800DFE302000EE302000AE40200BAE30200D8
:10AA380030B5134D0FCD8BB004AC0FC495E80300AF
:10AA4800104B114A00934FF4807384E80300CDE95A
:10AA5800022301930D4A0723694604A8FDF714F958
:10AA680008B1FDF769F90A4B0A480B49C01AC00832
:10AA7800000440F00300FFF7B7FB0BB030BD00BF88
:10AA880078E40200D34C0020D54D002021A4020018
:10AA9800F4DA020034DB02001DE4020013B5FFF70C
:10AAA800C7FF4FF480410020FFF73CFA08B1FDF7DB
:10AAB80043F9FFF786F9FDF701FA08B1FDF73CF90C
:10AAC80000210120FCF7FCFD08B1FDF735F9FDF781
:10AAD80089FE08B1FDF730F900F02AFF08B1FDF74B
:10AAE8002BF9002301A90120019300F0DDFF08B133
:10AAF800FDF722F901A801F085F808B1FDF71CF966
:10AB08001B4A1C480121FDF70BFA08B1FDF714F99F
:10AB1800194A1A480121FDF703FA08B1FDF70CF9A3
:10AB280000224FF480411648164CFDF704FA002223
:10AB38004FF480311448FDF7FEF9144B1449E41A18
:10AB4800E408240444F003042046FFF74DFBFFF714
:10AB580083FB08B1FDF7F0F820460E49FFF744FBE8
:10AB6800FFF7B2FCFFF700FD002002B010BD00BFE8
:10AB78008DA3020098E4020099A302009CE402005D
:10AB8800384B002034DB0200184B0020F4DA0200B6
:10AB980046E402005FE40200034B1868A0F10803D2
:10ABA80058425841704700BF30010010064B1B68DF
:10ABB800082B06D1054B1B68032B02D8044AD05C2E
:10ABC80070470020704700BF3001001034010010AA
:10ABD800A0E4020008B5FFF7DFFF40B14FF0804363
:10ABE8000022C3F80C21C3F81021C3F83825FFF759
:10ABF800D3FF002846D04FF080525E4BD2F80414A1
:10AC0800C3F82015D2F80814C3F82415D2F80C1488
:10AC1800C3F82815D2F81014C3F82C15D2F8141458
:10AC2800C3F83015D2F81814C3F83415D2F81C1428
:10AC3800C3F84015D2F82014C3F84415D2F82414E8
:10AC4800C3F84815D2F82814C3F84C15D2F82C14B8
:10AC5800C3F85015D2F83014C3F85415D2F8341488
:10AC6800C3F86015D2F83814C3F86415D2F83C1448
:10AC7800C3F86815D2F84014C3F86C15D2F8442408
:10AC8800C3F87025FFF792FF10B13B4B3B4A1A609F
:10AC9800FFF78CFF18B13A4BFB22C3F81825FFF7D2
:10ACA80085FF48B13749384B0A681B6822F00F0204
:10ACB80003F00F0313430B60FFF778FF18B1334B12
:10ACC8004FF400721A60FFF767FF48B14FF08043F6
:10ACD800D3F80024D20744BF6FF00102C3F8002460
:10ACE8002B4AD2F8883043F47003C2F88830BFF397
:10ACF8004F8FBFF36F8F4FF01023D3F80022002A35
:10AD080003DBD3F80432002B2FDA224B0122C3F8DD
:10AD18000425D3F80024002AFBD04FF0102212217A
:10AD2800C2F80012D3F80024002AFBD04FF01023F9
:10AD38001222C3F80422174B1A46D3F8001400292C
:10AD4800FBD00021C3F80415D2F80034002BFBD047
:10AD5800BFF34F8F0E49104BCA6802F4E0621343E9
:10AD6800CB60BFF34F8F00BFFDE70C4B0C4A1A6056
:10AD780008BD00BF00C000408C5600404881030059
:10AD880000F00040E40E00405802001040960240D7
:10AD980000ED00E000E001400400FA050829002069
:10ADA8000090D003002110B50846FFF797FA044633
:10ADB80008B902F009FA204610BD000008B5074B93
:10ADC80000221A60BFF35F8F02F0CAF9014618B972
:10ADD800BDE80840FFF782BA032008BDD84E00201E
:10ADE800002844D0A0F57000A0F54060352839D877
:10ADF800352837D8DFE800F0211E362427272A33E4
:10AE080030363636361E361E393939363636363607
:10AE18003636363636363636242A24271B2D362D36
:10AE28003636363636363636212A27361E1E48F24C
:10AE38001750704748F20350704748F21350704754
:10AE480048F21050704748F21150704748F21450B9
:10AE5800704748F20150704748F20250704748F274
:10AE68007150704748F21650704748F2705070475A
:10AE780008B501210448FDF76BFBBFF35F8FB0FAFB
:10AE880080F0400908BD00BFD84E002013B5026805
:10AE98000C4B01919A4204460FD0FFF7E9FF70B1BD
:10AEA8000199201D01F072FCFFF79AFFBFF35F8F35
:10AEB800054B00221A6002B010BD0020FBE748F2E3
:10AEC8000450F8E76169614DD84E00206DDF704786
:10AED80079DF70477DDF704764DF70472DE9F04FF9
:10AEE80085B000250E9CBDF83CB0B4F800A00191D7
:10AEF800074690461E46A9463A884A450DDC45B1A4
:10AF08002388013BA3EB0A039BB2FF2B3AD806F830
:10AF18000A30002005B0BDE8F08F7A6852F82900A1
:10AF2800039000220DF10B0103A8FFF7D5FF0028BD
:10AF3800F0D19DF80B20424521D12288002D14BF65
:10AF48000020022002EB0801014459451ADC3DB9F2
:10AF5800013292B2019B2280B354228801322280AE
:10AF680022880DF10B01324403A8FFF7B5FF002832
:10AF7800D0D121889DF80B200A442280012509F1AF
:10AF88000109B9E70C20C5E72DE9F341089FBDF891
:10AF980024801546CDE90078022204461E46FFF7B4
:10AFA8009DFF50B93346102229462046CDE908783E
:10AFB80002B0BDE8F041FFF791BF02B0BDE8F081F3
:10AFC8002DE9F04F00231788138090F82D3085B0B5
:10AFD80006460D46144653B3082F01D80C2027E126
:10AFE80002A8FFF773FF002840F022812388082277
:10AFF800EA54238801339BB21B222380EA54208819
:10B00800013080B2208006220DF10901284401F0A8
:10B01800DFF823889DF8082006339BB212F0FE0261
:10B0280018BF01222380EA54238801332380B37890
:10B03800FBB123880433BB42D0D802A8FFF748FFEE
:10B04800002840F0F58023880322EA54238801333E
:10B058009BB219222380EA542388BDF808200133C3
:10B068009BB2E9182380EA54120A4A7023880233F3
:10B078002380F2789AB12388D91CB942AED802212C
:10B08800E954238801339BB201212380E9542388A2
:10B098000B449BB22380EA5423880B4423807268B4
:10B0A800AAB12388D91CB94298D8022192F9002064
:10B0B800E954238801339BB20A212380E954238869
:10B0C80001339BB22380EA542388013323803389D8
:10B0D800002B40F0A180338A5BB1CDE900472B46B5
:10B0E8000722032106F11000FFF74EFF002840F069
:10B0F8009F80338B5BB1CDE900472B461522142185
:10B1080006F11800FFF740FF002840F09180326AEE
:10B11800002A40F09080D6F82480B8F1000F30D093
:10B12800B8F804302188981C8A1C0244BA423FF6B9
:10B1380055AFFE283FF652AF03336B5423880133D3
:10B148009BB2FF222380EA54238801339BB22380D9
:10B15800B8F80020EA54E918120A4A702088023028
:10B1680080B22080B8F804205AB1D8F80810002915
:10B178006BD0284401F02CF82388B8F80420134435
:10B18800238096F82C30002B40F09A8030780028E5
:10B198004ED03388012B58D0228802F1020CBC45CE
:10B1A8003FF61CAF012805D17378023313449F4240
:10B1B800FFF414AF023FBF1ABFB202A905EB0C009F
:10B1C800ADF80870FFF786FE90BB3178BDF80830FF
:10B1D800022900F0BA8072789A4202D3BB4240F248
:10B1E800B280012940F0B380974293B2C0F0AF809B
:10B1F800ADF808300821BDF80830FE2B3FF6EEAE5A
:10B2080022880133AB542288013292B22280A95499
:10B218002288134423800BE0CDE900472B46062201
:10B22800022106F10800FFF7AFFE00283FF453AFF4
:10B2380005B0BDE8F08FB4F800C00CF10603BB42BE
:10B248003FF6CCAE1188052901D80720F0E76FF446
:10B25800486E01EB0E039BB24FF27D3E7345F4D965
:10B268005388052BF1D96FF44860181880B27045DF
:10B27800EBD94FF6FF70814203D0834201D0994247
:10B28800E3D8052305F80C30238801339BB212213B
:10B298002380E954238801339BB223801188E95421
:10B2A800E818090A4170238802339BB22380528828
:10B2B800EA54E918120A4A702388023323802AE7DD
:10B2C800B36A002BC1D04FF000094FF00C0A4FF0C1
:10B2D800160B96F82C305FFA89F293427FF656AF38
:10B2E800B16A0AFB02F201EB0208B8F80430981CB4
:10B2F800FE283FF673AE208803332B54238801338E
:10B308009BB2238005F803B0238801339BB22380C6
:10B318008A5AEA54E918120A4A702088023080B220
:10B328002080B8F804205AB1D8F8081000298CD029
:10B33800284400F04DFF2388B8F8042013442380E4
:10B3480009F10109C5E7092155E7BB42FBD9ADF869
:10B3580008704FE730B5C8B1F2B10024651C8D42C2
:10B3680006DA1588A54212D805196D789D420ED1C6
:10B37800A14211D9005D48B1013880B230B1023420
:10B38800A3B210FA84F4A14206DB138030BD055D38
:10B3980001352C44A4B2E1E70020F7E7F7B5002314
:10B3A8000646ADF80630144612B9002003B0F0BDC9
:10B3B80009230DF10602FFF7CDFFBDF8067005461B
:10B3C800002FF2D00028F0D0204600F05DFFA84200
:10B3D8000246EAD1F119204600F012FDB0FA80F0D9
:10B3E8004009E3E7F0B587B0002306460C4610464F
:10B3F800ADF8063002AA10230DF105018DF80530CD
:10B40800FFF76AFD16B9002007B0F0BD0028FAD191
:10B418009DF80550042D2BD0102D2BD0022DF3D1E3
:10B428000323BDF806207AB90DF1060221463046FD
:10B43800FFF790FFBDF806302BB92B460DF1060239
:10B448003046FFF787FF0446BDF80670002FDAD0B4
:10B458000025AC42D7D9E8199DF8052002A9304447
:10B4680000F0CEFC48B19DF805301D44ADB2F0E7C0
:10B478000523D6E706250723D3E70120C4E70AB149
:10B48800FDF74AB8FDF751B873B50191019C06461E
:10B498006CB100252C46294601A8FDF750F818B1D3
:10B4A80006EB440301349D800135142DF3D1304659
:10B4B800346002B070BD00002DE9F047038884882D
:10B4C800103B8CB005460A2B1FD8DFE803F0063F77
:10B4D8001E1E1E1E1E1E1E604400314EB368DB4336
:10B4E800009371686846FDF756F8009901A8FFF7C0
:10B4F800CBFF0DF108094FF00008019B984507D3D1
:10B50800132C13D90420FCF717FC0CB0BDE8F08706
:10B5180039F802AB00270137514606EB8700FDF7E3
:10B5280004F81E2FF7D108F10108E6E71D48214667
:10B53800FCF7F2FF1C482146FCF7EEFFEB7B022BE1
:10B54800E3D11A482146FCF7E7FFDEE71548214614
:10B55800FCF7EBFFD9E7027A15483F2A4FEA1215A4
:10B56800214694BF00220122FFF789FF022D94BFD4
:10B57800002201220F482146FFF781FF012D0E48C6
:10B5880094BF002201222146FFF779FFBDE7037A25
:10B59800002BBAD1427A0648C2F3C0022146F3E72B
:10B5A800DC4E0020E44E0020E04E0020E84E002053
:10B5B800F44E0020F04E0020EC4E00208ADF704749
:10B5C8008BDF70478CDF704730B590F82A3089B030
:10B5D80004460D465BB390F834300193FFF7F0FF53
:10B5E8001422002103A800F01CFE04F12C02019B88
:10B5F80004F13601A81CFFF7E5FF0E4B0E4905467E
:10B608000E481B1ADB081B0443F004000190FEF7E8
:10B61800EBFD05230A4901988DF80C302A4604955C
:10B62800FEF7E6FD1DB1636C0BB103A8984709B09E
:10B6380030BD00BF4CDB0200A4E40200F4DA0200D3
:10B64800AFE4020090F83600C0F3C0007047000075
:10B658002DE9F04F80468FB038F8083B1B2B064683
:10B668000C4600F0C1801D2B16D0102B32D11422AD
:10B67800002109A800F0D5FD06238DF82430B388F1
:10B68800ADF82C3004F136030D93636CCDF82880A7
:10B69800002B40F0C8801DE01422002109A800F00A
:10B6A800C0FD04F1360320460D93FFF7CBFF04F5E8
:10B6B800A47B90B102238DF8243009A8636CCDF8DF
:10B6C8002880984759460020FFF778FF41462046D2
:10B6D800FFF77AFF0FB0BDE8F08F94F8283094F8A0
:10B6E8002150029394F827300393002D3BD094F80F
:10B6F8002090B6F824A0274604EB49194F4521D1DC
:10B7080000252F464FF00109039B002B4AD094F8DF
:10B718002830019394F826300493049AB18C09F1E7
:10B72800010904EB82025FFA89F9234605924FF07A
:10B73800000A059A9A4219D1019B3BB3049B5345D1
:10B7480030D126E03A46306A5146FFF727FE2037C7
:10B7580005460028D2D09DF82C3043F001038DF81F
:10B768002C300127CEE72F46A946CDE703F1220268
:10B77800306ACDE90613FFF735FEDDE9061338B365
:10B78800019A0AF1010A5FFA8AFA22BBBAF1000F9C
:10B7980008D09DF82C30039D013743F00403FFB215
:10B7A8008DF82C30029BCDF82880B3B1B94517D15C
:10B7B8000023414620468DF82430FFF705FF636CCF
:10B7C8000BB109A8984759460020FFF7F7FE81E713
:10B7D800019A002AB2D10433ABE70DB1029BE8E726
:10B7E80003238DF82430EAE71422002109A800F089
:10B7F80018FD337A012B7FF46DAF0C4B0C480D49C3
:10B80800C01AC008000440F00400FEF7EDFC636CA9
:10B81800002B3FF45FAF04228DF824203634327AAF
:10B828000D948DF8282009A8984753E7F4DA020008
:10B838004CDB0200C5E4020010DF7047F7B5154B7A
:10B84800154C1649164FE41AE408240444F004047D
:10B85800024606462046FEF7CBFC12496846FDF72D
:10B868004EF8019D0DB9284612E0D5E90031304661
:10B8780098472A4638B120463946FEF7B9FC68464B
:10B88800FDF747F8EDE720460749FEF7B1FC112020
:10B8980003B0F0BDF4DA02005CDB0200E7E5020069
:10B8A800FDE5020064E602001DE6020013B50E4B3A
:10B8B8000E4904460E481B1ADB081B0443F004001B
:10B8C8002246FEF795FC0B496846FDF718F8019BE0
:10B8D8000BB902B010BD2046D3E900219047684655
:10B8E800FDF717F8F3E700BF5CDB020040E6020053
:10B8F800F4DA02007CE602000B4991F816335A0983
:10B90800EC231341DB0706D5084B9A683AB94FF484
:10B9180080030B60704742F20200FCF70DBA1A6808
:10B9280042F480021A60704700E100E0A42A002077
:10B93800F7B5194F3C7864BB184E01252046357081
:10B94800FFF77CFF112821D02046FFF7AFFF144BEB
:10B958008DF80340186801900DF10300FCF7DCFB3B
:10B96800104901A8FFF768FF0446B0FA80F04009C3
:10B9780038709DF80300FCF7F3FB3CB90A4B3470B0
:10B988001C70FFF7B9FF2846FFF790FF204603B069
:10B99800F0BD0824FAE700BF594F0020584F002097
:10B9A8005DE602005D7D02005A4F0020014B1878C9
:10B9B800704700BF594F002007B508496846FCF793
:10B9C8009EFF019B13B903B05DF804FBD3E9002087
:10B9D80090476846FCF79DFFF3E700BF70E602005A
:10B9E800FFF7EABF60DF704769DF704761DF7047C4
:10B9F800F0B5184B1B7891B053B3174C174B184E32
:10BA0800184FE41AE408240444F0040434250DF122
:10BA1800020103A8ADF80250FFF7E8FFA0B93146CC
:10BA28002046BDF80C20FEF7E3FB394601A8FCF7D9
:10BA380066FF029B002BEAD003A8D3E900219047B8
:10BA480001A8FCF766FFF4E7052801D0FCF774F9B4
:10BA580011B0F0BD5B4F002064DB0200F4DA020095
:10BA680088E6020048E9020010B50A4B04460A4875
:10BA78001B1ADB081B0443F0030024B90749FEF72F
:10BA8800B3FB0E2010BD0649FEF7AEFB054B236045
:10BA98000020F7E764DB0200F4DA02005EDC020053
:10BAA80099E60200D82800207FB5064608460C46CD
:10BAB800FFF7DAFF0546002840F0908001460C2287
:10BAC80001A800F0AEFB01238DF8063022688DF83E
:10BAD8000460062301A92020ADF80830FFF784FF91
:10BAE80060B1FCF767FF404B4049024640481B1ACB
:10BAF800DB081B0443F00100FEF77AFB0C2200214F
:10BB080001A800F08EFB002322688DF8053001A9FA
:10BB18004020ADF80630FFF767FF60B1FCF74AFF39
:10BB2800314B3449024632481B1ADB081B0443F0E8
:10BB38000100FEF75DFB0C22002101A800F071FB5B
:10BB4800002322688DF8043001A90120FFF74CFF7B
:10BB580060B1FCF72FFF244B2749024624481B1AE3
:10BB6800DB081B0443F00100FEF742FB0C22002116
:10BB780001A800F056FBF8232268019301A9A1202F
:10BB8800FFF732FF60B1FCF715FF174B1B49024660
:10BB980017481B1ADB081B0443F00100FEF728FBBB
:10BBA8000C22002101A800F03CFB9DF8043022681B
:10BBB8006FF3000301A9A0208DF80430FFF714FFEC
:10BBC80078B1FCF7F7FE084B0D49024608481B1AE6
:10BBD800DB081B0443F00100FEF70AFB284604B00B
:10BBE80070BD0546FAE700BF64DB0200A1E602006B
:10BBF800F4DA0200E7E6020033E702007FE702001A
:10BC0800D0E70200F7B50768274C0546FFF7EAFEBC
:10BC1800264BE41A2B68E408BB4206464FEA044464
:10BC28001FD944F0020022490190FEF7DDFA2B6883
:10BC3800204901983A46FEF7E4FA4FF080532A6803
:10BC4800D3F80C311C499B0203F100539A1A01984E
:10BC5800FEF7CEFAF6B9194B01221A70304603B036
:10BC6800F0BD44F004003A4615490190FEF7C0FAC9
:10BC78002A68BA42EED013490198FEF7B9FA4FF094
:10BC880080532A68D3F80C310F499B0203F1005303
:10BC98009A1ADCE73046FCF78DFE0C49024644F060
:10BCA8000100FEF7A5FAD9E764DB0200F4DA020026
:10BCB80023E8020052E8020083E802005B4F0020FC
:10BCC800ADE80200C0E80200ECE802001EE902004C
:10BCD8004BDF70471FB50D4C01A8FFF7F9FF70B98E
:10BCE800214602A8FCF70BFE039B002BF4D0019819
:10BCF800D3E90021904702A8FCF70BFEF4E70528DA
:10BD080001D0FCF719F804B010BD00BF60E90200CB
:10BD180053EA020C61D02DE9F04BB3FA83F51E000B
:10BD280007BFB2FA82F502FA05F403FA05F41646DB
:10BD3800C5F120051EBF22FA05F73C43203556EA17
:10BD4800044C4FEA144418BF0134A3464FF00009CD
:10BD5800C846904271EB030C39D3094207BFB0FAC9
:10BD680080F700FA07F6B1FA81F701FA07F6C7F18A
:10BD780020071EBF20FA07FC46EA0C062037B6FB50
:10BD8800FBFC7F1B103F07F01F04C4F120060CFAD0
:10BD980004F42CFA06F644BF34460026202FA4BF2C
:10BDA8002646002454EA060C08BF012418EB0408B0
:10BDB80049EB0609A4FB027CC01B06FB02CC04FB72
:10BDC80003CC71EB0C01904271EB030CC5D20B460E
:10BDD800024649464046BDE8F08BB2FBF3F210B488
:10BDE80091FBF2F302FB1314002904DB03604460A7
:10BDF8005DF8044B7047002CC4BF0133A41AF5E763
:10BE08007AB370B414460F2A15D902460B4640EA95
:10BE1800010515F0030F01D0013C0EE0194610464C
:10BE28000432043306680D68AE4204D11046194640
:10BE3800043C042CF2D8013C0ED00A4603460444C4
:10BE4800114618460133013206780D78AE4203D107
:10BE580018461146A342F3D100780B78C01A70BC7B
:10BE680070470020704700002DE9F04383B0044676
:10BE780001683B293ED861683B294CD8A16817293D
:10BE88005AD821690B2968D8636903F26C7113F0D9
:10BE9800030F0AD16D4A82FB0132CB17C3EB621341
:10BEA800642202FB1313002B68D1684A82FB01321B
:10BEB800CB17C3EBE2134FF4C87202FB1313B3FAA8
:10BEC80083F35B095A001344614A02EB8302E36877
:10BED800002B55DD2069155CAB4240F3B380DFF8D9
:10BEE80070C10027594E4FF4C87E4FF064084FF0D8
:10BEF800010983E03C226846FFF771FF019A22603E
:10BF0800636800990B446360002AB4DA3C3222600B
:10BF1800013B6360AFE73C226846FFF760FF019A88
:10BF28006260A36800990B44A360002AA6DA3C3239
:10BF38006260013BA360A1E718226846FFF74FFF44
:10BF4800019AA260E36800990B44E360002A98DA3A
:10BF58001832A260013BE36093E70C226846FFF7C2
:10BF68003EFF019A2261636900990B446361002ACC
:10BF78008ADA0C322261013B636185E70123A1E77C
:10BF8800334F0B26314D4FF4C87C4FF0640E4FF001
:10BF9800010814E085FB0102C817C0EBE2120CFB94
:10BFA8001212B2FA82F252095000024407EB8202DE
:10BFB80026612069105C0344E360002B42DC2069A1
:10BFC80088B96269013A6261013911F0030FE1D160
:10BFD80085FB0102C817C0EB62120EFB1212002A81
:10BFE800D8D04246E0E701382061E2E74A4623E03C
:10BFF800013020612069155CAB4223DD5B1BE360E7
:10C008000B28F5D1626901326261013111F0030F29
:10C0180008D186FB0102C817C0EB621208FB121296
:10C02800002AE3D186FB0102C817C0EBE2120EFB1F
:10C038001212B2FA82F25209500002440CEB820248
:10C048002761D7E703B0BDE8F08300BF1F85EB5138
:10C058006CE902002DE9F0410446FFF705FF656928
:10C0680005F26C7615F0030F09D1544A82FB0632AB
:10C07800F317C3EB6213642202FB1363A3BB4F4A9B
:10C0880082FB0632F317C3EBE2134FF4C87000FBD0
:10C098001363B3FA83F35B0958000344484800EB81
:10C0A8008300E368013B2169002907DD421E01394D
:10C0B800084412F8011F0B448242FAD1E36140F2AE
:10C0C800B272964212DC40F2B172964257DC05F227
:10C0D8006B7540F2B170394E4FF4C87C4FF0640E66
:10C0E8004FF00108374F3CE00123D5E705F26C75A6
:10C0F80040F2B270314E4FF4C87C4FF0640E4FF0EE
:10C108000108304F0FE086FB0012C117C1EBE212A5
:10C118000CFB1202B2FA82F2520937F912201344C8
:10C12800013085422BD010F0030FECD186FB0012B2
:10C13800C117C1EB62120EFB1202002AE3D042467D
:10C14800EBE786FB0012C117C1EBE2120CFB1202EF
:10C15800B2FA82F2520937F912209B1A0138A84222
:10C168000DD010F0030FECD186FB0012C117C1EB04
:10C1780062120EFB1202002AE3D04246EBE7191DB9
:10C18800114A82FB01025018CA17C2EBA002C2EB87
:10C19800C2028A1A48BF0732A2616268C2EB021261
:10C1A800206800EB8200A2684FF4616101FB020283
:10C1B800064800FB0320BDE8F08100BF1F85EB5156
:10C1C8006CE9020084E9020093244992805101003D
:10C1D800844640EA010313F0030F18D18446202A4D
:10C1E8000BD32DE9F007B1E8F807A0E8F807A2F1AA
:10C1F8002002202AF7D2BDE8F007042A07D351F815
:10C20800043B40F8043BA2F10402042AF7D2002AB6
:10C2180005D011F8013B00F8013B013AF9D160461D
:10C2280070478446002A2DD010F0030F04D000F880
:10C23800011B013A26D0F7E7C9B241EA012141EAD8
:10C248000141202A12D3A2F120022DE9F0030B4666
:10C258000C460D460E460F4688468946A0E8FA0366
:10C26800203AFBD2BDE8F00320320BD0042A05D3D4
:10C2780040F8041B043A05D0042AF9D200F8011B3F
:10C28800013AFBD16046704700F1010110F0030F3D
:10C2980011D010F8012B002A23D010F0030F0AD078
:10C2A80010F8012B002A1CD010F0030F03D010F84F
:10C2B800012B002A15D02DE970004FF001324FF004
:10C2C800803350F8044BA4EB020525EA04051D4011
:10C2D80000D1F6E7A0F1040070BC10F8012B002A89
:10C2E800FBD1A0EB01007047F0B5054699B01F4699
:10C2F80000230E46144605A819460322D5F8D05047
:10C3080000F096FD38BB0146AD00082303AA05A836
:10C31800CDE9034500F0CCFDE8B9611905A800F0A6
:10C32800EBFDC0B937B923461022314605A800F005
:10C33800FBFD80B905F1100302A90191009419468B
:10C34800324605A8029300F02DFE044B002818BFC2
:10C35800184619B0F0BD014819B0F0BD360CF00010
:10C368002DE9F04F864C80469E460F4694460FCCEA
:10C37800B7B00DF11C0A55460FC594E80F0004F13B
:10C38800100685E80F000FCE0FAD0FC596E80F0019
:10C39800303485E80F000FCC17AD0FC50FCC0FC593
:10C3A80094E80F00D8F8D040CDF80CE0042C85E8CC
:10C3B8000F0001D0082C6BD1409A231DB2EB830FDC
:10C3C8004FEA830B03D06F4837B0BDE8F08F07EB17
:10C3D8000C019CFA8CF30CF118060CF109003B6077
:10C3E8009BFA8BF5802326F00F06321A7D603844BD
:10C3F8000B72002100F078FF409B1B09ABF1100B7A
:10C4080000F0BB80042C47D0DDF80C90CDF808B0C4
:10C418004B4617ADB1464FF0000823ACBB461E464D
:10C4280024E0029FCDF814A0069700F041FD0346D2
:10C438002946204610353BBB00F05EFD84464FF090
:10C44800100E4B465A4649462046BCF1000F1BD1F8
:10C458000DEB0E07CDE90067CDF810E000F0A2FD66
:10C46800103688B9409BB8EB131F58D200231946E1
:10C478000222204600F0DCFC014608F101080823EE
:10C4880005AA20460029CCD03F4837B0BDE8F08F38
:10C498003E4837B0BDE8F08FDDF80C90CDF808B015
:10C4A80033460FAD4E464FF0000823ACBB469946C5
:10C4B80026E0029FCDF814A0069700F0F9FC034689
:10C4C800294620461035002BDED100F015FD8446A4
:10C4D8004FF0100E4B465A4649462046BCF1000F15
:10C4E800D2D10DEB0E07CDE90067CDF810E000F0D2
:10C4F80059FD10360028C7D1409BB8EB131F0ED248
:10C50800002319460222204600F092FC014608F159
:10C518000108082305AA20460029CAD0B4E7DDF897
:10C5280008B0039D0023194601222046CDE9055B8A
:10C5380000F07EFC01460028A6D1082305AA204663
:10C5480000F0B6FC00289FD105EB0B01204600F057
:10C55800D3FC0146002897D1409A284600F0C4FE33
:10C56800409B009540A901912A462046194600F0B3
:10C5780019FD00283FF428AF86E723ACD1E700BFB8
:10C58800F8E90200230CF000360CF000210CF00052
:10C598002DE9F0438FB0884607A91746044600F0F6
:10C5A80075FD054600284ED1D4F8D050042D01D091
:10C5B800082D4ED1D4F8C4300C2B62D8B8F1000F36
:10C5C80045D02E1D760106AA04ABCDE900320297AC
:10C5D80007A905AB00222046059600F00FFC0028AD
:10C5E8003CD1069B0498D4F8C42023F003030833F5
:10C5F80004F1840918449200494600F073FED4F807
:10C60800C400069A04992B1D9E0002EB8002009636
:10C618004B4620460692FFF7A3FE054650B9B8F1EF
:10C62800010F33D00346224649462046FFF75CFEF9
:10C63800B0B105462046E42100F058FE38464FF4D4
:10C64800BF5100F053FE28460FB0BDE8F0836E01DD
:10C65800B9E71B4D28460FB0BDE8F083194DE9E74F
:10C66800D4F8D430012243F00103C4F8D430C4F81C
:10C67800CC2000234846C4F8C430402100F036FEE0
:10C68800DCE7114D28460FB0BDE8F083314620465F
:10C6980000F02CFE2B46224649462046FFF724FE92
:10C6A8000028C6D1D4F8D430084AC4F8CC8023F482
:10C6B800803343F00103C4F8D430C4F8DC20D8E751
:10C6C800210CF000260CF000040CF000CDAB230187
:10C6D80070B5002849D00D46002943D0244E0446A1
:10C6E8004FF0FF31306800F021FE90BB002000F0D1
:10C6F800B1FE50BB20462A460121FFF749FF0446F8
:10C70800012000F0A7FEB8B9306800F029FE50B942
:10C71800012000F09FFE08B9204670BD154800F0C2
:10C72800CDFD204670BD144800F0C8FD012000F082
:10C7380091FE0028F0D0F1E70E4800F0BFFD306808
:10C7480000F00EFE0028E3D0EDE70C4800F0B6FD3F
:10C75800D0E70B4800F0B2FD002000F07BFE002877
:10C76800C8D0F2E7074C204670BD074C204670BD84
:10C77800744F0020D8E90200A0E90200B8E90200DD
:10C7880088E90200200CF000250CF00000284CD0AD
:10C79800F0B50D4689B0002938D00446E42100F0F0
:10C7A800A5FD01A9204600F071FC10B1204809B090
:10C7B800F0BD204F4FF0FF31386800F0B7FD80BB67
:10C7C800002000F047FE40BB01A92A46204600F0A1
:10C7D80021FB0646012000F03DFED0B9386800F084
:10C7E800BFFD78B9002EE1D12046E42100F07EFD9E
:10C7F80029462046FFF76CFF0F4B002818BF184644
:10C8080009B0F0BD0D4800F059FDEBE70C4809B040
:10C81800F0BD0C4800F052FDE0E70B4800F04EFD7B
:10C82800D2E70A4800F04AFDCAE70948704700BF46
:10C83800110CF000744F0020120CF000A0E9020067
:10C84800200CF000D8E90200B8E9020088E90200EB
:10C85800250CF00038B504464FF4806000F0A6FDC2
:10C86800054D06480649074A00232B6003600B68FC
:10C878002360136038BD00BFC8B102502CB102500C
:10C8880004B1025008B102500138072805D8DFE882
:10C8980000F00A0E041204040406094870478B6964
:10C8A8008B6000207047CB688B60002070470B6955
:10C8B8008B60002070474B698B600020704700BF79
:10C8C800310CF1000B6802E0082B0B6006D84268B7
:10C8D80013424FEA4303F7D00020704700487047DF
:10C8E800310CF100084B094A002119601368002B2C
:10C8F800FCD107480749084A03604FF480604FF0AD
:10C90800FF330860136070472CB1025010B9025011
:10C91800C4B1025008BA025008B10250002877D0BA
:10C92800F8B50C46002971D01D46002B6ED006467E
:10C9380022B1012200232A60C0F8D8302B68002BCE
:10C9480062D029462046FFF7BDFF00285BD1286842
:10C958002146FFF799FF002855D1364B3649374A0B
:10C9680001271F609C460F60CCF80070A368136015
:10C9780011688B42F8D1324F3249334A334B4FF06A
:10C98800000CC7F800C004270F600A2111606FF07F
:10C998003A021A60079B012B4FF080533AD0D3F824
:10C9A800002C013243D0D3F8002C294BA3FB0232D0
:10C9B8001209A368274C2849284F03FB02F303EB0D
:10C9C8004303DB039B092360254B2C680C601A602A
:10C9D800069A244C3A604FF48062226001224FF09C
:10C9E800FF3441F8C44C43F80C2CD6F8D8302A68E8
:10C9F80023F07F4343EA0263C6F8D8302A6843EA43
:10CA08000223C6F8D830F8BD1748F8BD1748F8BD56
:10CA180016487047D3F80C2C013206D0D3F80C2CEA
:10CA28000B4BA3FB0232FA40C3E71622C1E70622EA
:10CA3800BFE700BFC4B1025040B1025030B102504C
:10CA48002CB102500CB1025038B1025000B1025062
:10CA5800ABAAAAAAD8B10250CCB10250D0B10250A8
:10CA6800D4B1025008BA0250310CF100350CF10073
:10CA7800F0B4C900002401F1FF3C2646274606E031
:10CA88009F4216D00126654519D82C461F466309D2
:10CA980004F01F0150F823301F2923FA01F304F191
:10CAA800010518BF03F00103002CE9D10126354622
:10CAB800EBE701369642E6D10248F0BC7047002009
:10CAC800F0BC7047360CF100002861D02DE9F04128
