:020000022000DC
:1070000000000420F1720200197302001B730200D9
:107010001D7302001F7302002173020000000000B4
:1070200000000000000000000000000023730200C8
:10703000257302000000000027730200297302007C
:107040002B7302002B730200698502002B73020070
:107050002B7302002B730200AD8202002B7302001F
:107060002B7302002B7302002B7302002B730200A0
:107070002B730200298702002B7302002B7302007E
:107080002B73020061A302002B7302002B7302001A
:107090002B7302002B730200A5C802002B730200A1
:1070A0002B7302002B7302002B7302002B73020060
:1070B0002B7302002B730200000000000000000090
:1070C0002B7302002B7302002B7302002B73020040
:1070D0002B7302002B7302002B7302002B73020030
:1070E0002B7302002B730200A1EB020000000000D2
:1070F000000000002B730200000000002B73020050
:10710000000000000000000000000000000000007F
:10711000000000000000000000000000000000006F
:10712000000000000000000000000000000000005F
:10713000000000000000000000000000000000004F
:10714000000000000000000000000000000000003F
:10715000000000000000000000000000000000002F
:10716000000000000000000000000000000000001F
:10717000000000000000000000000000000000000F
:1071800000000000000000000000000000000000FF
:1071900000000000000000000000000000000000EF
:1071A00000000000000000000000000000000000DF
:1071B00000000000000000000000000000000000CF
:1071C00000000000000000000000000000000000BF
:1071D00000000000000000000000000000000000AF
:1071E000000000000000000000000000000000009F
:1071F000000000000000000000000000000000008F
:107200000348044B834202D0034B03B11847704735
:10721000FC290020FC290020000000000548064948
:10722000091A891001EBD171491002D0034B03B147
:1072300018477047FC290020FC29002000000000AE
:1072400010B5064C237843B9FFF7DAFF044B13B1AE
:107250000448AFF300800123237010BD002A0020F2
:10726000000000003034030008B5044B1BB1044992
:107270000448AFF30080BDE80840CFE700000000FD
:10728000042A002030340300134B002B08BF114B9D
:107290009D46A3F5803A00218B460F461148124ABD
:1072A000121A08F01DF90D4B002B00D098470C4B1B
:1072B000002B00D098470020002104000D000B484F
:1072C00007F0DAFF08F00CF82000290005F0A0F91B
:1072D00007F0D8FF000008000000042000000000B4
:1072E00000000000002A00204C510020ADF20200F6
:1072F0000649074A074B9B1A03DD043BC858D05088
:10730000FBDC02F0EFF8FFF7BFFF00003C350300A5
:10731000D8280020002A0020FEE7FEE7FEE7FEE76F
:10732000FEE7FEE7FEE7FEE7FEE7FEE7022000F0ED
:10733000BBBC00BF2DE9F0470D46064600F0CEFC71
:1073400003281ED8012D04461DD00ED3022D18D1BE
:107350001B4B00EB40041C44657895B1194B1B682E
:107360007BB12846BDE8F0471847174802F040FEB9
:10737000134B164A04EB44010B44125D9D78AA425C
:10738000EBD0BDE8F0870E4F4FEA400808EB000352
:10739000FA18FD5C53782BB9A04447440B4BBA78DC
:1073A0001A55DAE7DFF8289007484A464FF480413B
:1073B00002F0CEFD0028EFD189F80060ECE700BFB5
:1073C000802A0020942A0020402A00209C2A0020A5
:1073D0001C2A002010B5007800F080FC03280BD890
:1073E000064B00EB40001844407828B1044B1B6862
:1073F00013B1BDE81040184710BD00BF802A00201F
:10740000942A0020B44B1B68DB0700D4704770B58A
:10741000B24DB34E2B7834786BB1B24B1B78002051
:107420002870002B4BD000F0FFFB012000F0FCFB8C
:10743000032000F0F9FB172C40D8DFE814F0B60069
:10744000F400F400DC000801CA001301EE00500053
:107450004300500043006100180018001800180095
:107460001800660077008B009F005D005D009E485D
:1074700002F0BEFDD4F11104054600F000810028A1
:1074800040F0FD80012C13D0C82303FB04F44FF41B
:107490007A704FF400430021C3FB04014FF4FA62F9
:1074A00000230AF01BFC2A4601468F4802F050FDDB
:1074B000022000F0A5FB8B4B01221A7070BD00F07A
:1074C000C7FBB8E7012318462B7000F0EDFB002244
:1074D0004FF400518548BDE8704002F039BD0123EA
:1074E00018462B7000F0E0FB002240F266617F48F6
:1074F000BDE8704002F02CBD00F0C0FB347070BDE0
:1075000000F0BCFB0C23337070BD764B1B78002B56
:1075100000F0BF80002000F087FB012000F084FB1A
:10752000032000F081FB1223337070BD6D4B1B787C
:10753000002B00F0B180002000F076FB012000F06D
:1075400073FB032000F070FB002000F059FB1323B5
:10755000337070BD634B1B78002B00F0AD800020B2
:1075600000F062FB012000F05FFB032000F05CFBF9
:10757000012000F045FB1423337070BD594B1B787C
:10758000002B00F08380002000F04EFB012000F073
:107590004BFB032000F048FB002000F031FB0120F2
:1075A00000F02EFB1523337070BD4E4B1B78002B63
:1075B00000F08A80002000F037FB012000F034FB4F
:1075C000032000F031FB494802F012FD0023337024
:1075D00070BD002000F000FB002860D0002000F00B
:1075E00023FB05233370002240F6CD413F48BDE820
:1075F000704002F0ADBC002000F0EEFA00285ED032
:10760000002000F011FB43F23331032333700022DA
:107610003648BDE8704002F09BBC002000F0F0FA54
:107620000723337070BD002000F0D6FAD0B30020DD
:1076300000F0FAFA022C47F2333118BF4FF48031D0
:10764000347000222948BDE8704002F081BC00205F
:1076500000F0C2FAD8B3002000F0E6FA4FF480310F
:107660000423D3E7002000F01FFB06233370002221
:1076700040F266611D48BDE8704002F069BC02201E
:1076800000F0D2FA174B00221A7070BD00F0E0FA39
:1076900082E700F0DDFA46E700F0DAFA54E700F09E
:1076A000AFFA9EE700F0ACFA41F69A1140F6CD43EE
:1076B000022C08BF1946C3E700F0CAFA58E700F0E9
:1076C0009FFA40F6CD41A0E700F0C2FA7BE700F058
:1076D00097FA41F69A11C3E78C2A0020902A0020DD
:1076E000982A00201D2A0020202A0020602A00203D
:1076F00038B5C54B1C6814F0010401D1204638BDD3
:10770000C24C2378054663B1C14B1B780020207022
:1077100023B300F089FA012000F086FA032000F07C
:1077200083FA172D00F26D81DFE815F0C300EC003D
:10773000EC001001D90023010201360128001B00D2
:1077400028001B006A007100710071007100710057
:107750009A00AD0035004B006400640000F078FA38
:10776000DFE701231846237000F09EFA00224FF451
:107770000051A848BDE8384002F0EABB0123184692
:10778000237000F091FA002240F26661A148BDE842
:10779000384002F0DDBB9E4B1B78002B00F01681B9
:1077A000002000F041FA012000F03EFA032000F032
:1077B0003BFA012000F024FA974B14221A7000249F
:1077C0009CE7934B1B78002B00F00381002000F016
:1077D0002BFA012000F028FA032000F025FA0020FF
:1077E00000F00EFA012000F00BFA8B4B15221A70F4
:1077F000002483E700F042FA874B00241D707DE7E8
:1078000000F03CFA844B0C221A70002476E783487F
:1078100002F0EEFB0446D5F1110000F0C580002C0B
:1078200040F0C280012814D0C82505FB00F54FF4B4
:1078300000434FF47A700021C3FB05014FF4FA6254
:1078400000230AF04BFA22460146744802F080FBFE
:107850000446022000F0D4F96D4B01221A704DE766
:107860006B4B1B78002B00F0AE80002000F0DCF9A1
:10787000012000F0D9F9032000F0D6F9664B12225E
:107880001A7000243AE7624B1B78002B00F09380BB
:10789000002000F0C9F9012000F0C6F9032000F033
:1078A000C3F9002000F0ACF95B4B13221A700024DE
:1078B00024E7574B1B78002B00F08E80002000F04F
:1078C000B3F9012000F0B0F9032000F0ADF9514800
:1078D00002F08EFB504B002204461A700EE7002087
:1078E00000F07AF9002869D0002000F09DF94FF4EB
:1078F0008031494B474804241C700022BDE83840C1
:1079000002F026BB002000F067F900286CD00020B0
:1079100000F08AF9022D47F2333118BF4FF480315D
:107920003D4B3C481D700022BDE8384002F010BBC2
:10793000002000F0B9F9384B364806241C700022AC
:1079400040F26661BDE8384002F002BB002000F062
:1079500043F9002843D0002000F066F943F23331A8
:107960002D4B2C4803241C700022BDE8384002F047
:10797000EFBA002000F030F900283FD0002000F0DE
:1079800053F9254B234805241C70002240F6CD41B5
:10799000BDE8384002F0DCBA002000F031F91E4B9F
:1079A00007221A700024A9E6022000F03DF9184BC6
:1079B00000221A70A2E600F04BF972E700F020F9FD
:1079C00041F69A1195E700F043F957E700F040F9C6
:1079D000EFE600F03DF902E700F03AF977E700F052
:1079E0000FF940F6CD41BBE700F00AF941F69A11D4
:1079F00040F6CD43022D08BF194691E700F000F98B
:107A0000BFE700247AE600BF8C2A0020902A0020DD
:107A10001D2A0020602A0020982A0020202A002009
:107A200038B5244B244A19608307106000F0010523
:107A300003D4CDB92C46204638BD204B20480E2417
:107A40000F2210211C701124DA7099715C7240F2BF
:107A50003332042101F0E0FF0446B8B115B1012032
:107A600000F04EF9204638BD012000F049F9154AD2
:107A70001548002102F05EFA04460028F2D1134AAC
:107A800013480121BDE8384002F054BA02F020F852
:107A900004460028E2D101460E4A0F4802F04AFA95
:107AA0000446002DDED0012000F02AF9002CD9D1A7
:107AB000DDE700BF942A00208C2A0020802A0020C5
:107AC000F41F0300057402001C2003002D73020044
:107AD00014200300D573020018200300032811D8D6
:107AE000012A0BD0012919D00ED302290AD10E4B3D
:107AF00000EB4000034400205A70704701290AD06F
:107B00000022EFE707207047074B00EB40000344DB
:107B100000209A70704700F10E02D2B200EB4003D1
:107B200001490020CA547047802A002010B50388FC
:107B3000102B07D0112B04D1254B18680138186081
:107B400030B110BD224C216881B10131216010BDDE
:107B500001220221FFF7C2FF38B3072825D01D4BB1
:107B60001B68002BEDD0BDE81040184701220846E5
:107B7000FFF7B4FF38B1072805D0164B1B6803B1D7
:107B800098472168E1E7072202210120FFF7A6FFBD
:107B900008B10728F1D1042202210020FFF79EFF3F
:107BA0000028EED00728E8D1EBE7072202210120C8
:107BB000FFF794FF08B10728D1D1002108460A2217
:107BC000FFF78CFF0028BCD00728C8D110BD00BF2C
:107BD000A42A0020A02A0020074B1B5C1F2B8ABF71
:107BE000064A4FF0A04203F01F03D2F80405D84024
:107BF000C04300F001007047202003000003005044
:107C0000074B1B5C1F2B86BF03F01F0305494FF07A
:107C1000A041012202FA03F3C1F80C35704700BFFE
:107C20002020030000030050074B1B5C1F2B86BF66
:107C300003F01F0305494FF0A041012202FA03F3AC
:107C4000C1F80835704700BF202003000003005032
:107C50004FF0A04310B44FF480404FF400544FF461
:107C600000414FF48032C3F80845C3F80805C3F853
:107C70000815C3F808255DF8044B70474FF0A04382
:107C800010B44FF480404FF400544FF400414FF4CF
:107C90008032C3F80C45C3F80C05C3F80C15C3F8C3
:107CA0000C255DF8044B70470A4B195C1F298ABFED
:107CB00009484FF0A04001F01F01D0F8043501221F
:107CC0008A4022EA03011340C0F80815C0F80C35B9
:107CD000704700BF20200300000300500B2809D08C
:107CE0000C2809D0182809D019280CBF03204FF000
:107CF000FF30704700207047012070470220704716
:107D0000C20730B40ED483070AD54FF0A0430C222B
:107D1000C3F82C27C3F83027C3F86027C3F86427BB
:107D200030BC70474FF0A0430322C3F834274FF410
:107D30000055C3F838274FF48044C3F83C274FF46C
:107D40000041C3F840274FF48032C3F80855C3F808
:107D50000845C3F80815C3F80825D4E700B585B071
:107D600004AB002203F8012D8DF80700184602F03D
:107D700067F904F091FD30B19DF80F0002F086F92B
:107D800005B05DF804FB0DF10701084803F0CAF8DF
:107D9000064803F0B9F80028EED000F09BFC9DF8EF
:107DA0000F0002F073F905B05DF804FB083503001D
:107DB00000B583B090B103280DD102A8002300F8CC
:107DC000013D02F03DF90D480378012B0FD09DF8DD
:107DD000070002F05BF903B05DF804FB074B1B786A
:107DE000012BF8D100F076FC00F080FCF3E70449A9
:107DF000013000F02DFC00F05BFCE8E7F82A0020E1
:107E00005D7D020030B585B0047845688DF800408E
:107E1000D0E90240064A074B039053F82130019500
:107E20008DF8084052F821106846984705B030BDDB
:107E3000FC2A0020042B002030B585B0047845686A
:107E40008DF80040D0E90240064A074B039053F8F2
:107E5000213001958DF8084052F821106846984766
:107E600005B030BDFC2A0020042B00202DE9F04392
:107E7000DFF8748006784B7F08F806300D46074619
:107E800096460FCD89B06C460FC495E80F003D783B
:107E9000DFF85890DFF858C018F8055049F826E088
:107EA00084E80F004CF82600049665B1BEF1000F7F
:107EB0000B4A694607F1040008BF002201F058F898
:107EC00009B0BDE8F083BEF1000F064A694607F12C
:107ED0000C0008BF002200F01DFD09B0BDE8F083D2
:107EE000057E0200397E0200C8500020042B0020CD
:107EF000FC2A002030B5254C94F86A3083B0002B62
:107F000041D14FF0FF32FF254FF6FF7005E05A09CF
:107F1000012A0CBF02464FF0FF3203F01F01CA4096
:107F2000D20744BFE21882F830502F2B03F101032F
:107F3000EDD14FF0FF330622002115482366C4E936
:107F40000033C4E90233C4E90433C4E90633C4E9A5
:107F50000833C4E90A3307F0C3FA0E4BC02283F892
:107F6000062340221A600C4B0C4A002018601B6844
:107F70000193019D01214FF0004384F86A10C2F87B
:107F8000043303B030BD082003B030BD0C2B0020FB
:107F9000702B002000E100E07C61004000600040A8
:107FA000034B93F86A00003018BF0120704700BFF0
:107FB0000C2B0020F0B5744B1C1894F93050002D98
:107FC0006ADA8E78C6F340069646002E5ED11D6AA8
:107FD000013500F0C48009240C2553F824700137C2
:107FE0005DD004F1010C53F82C70013700F0C28011
:107FF000A71CAF4248D253F82720013200F0BC80C2
:1080000004F1030CAC453FD253F82C70013700F05B
:10801000B18004F1040CAC4536D253F82C70013712
:1080200000F0A88004F1050CAC452DD253F82C705B
:10803000013700F09F8004F1060CAC4524D253F8C0
:108040002C70013700F0968004F1070CAC451BD270
:1080500053F82C70013700F08D8004F1080CAC450A
:1080600012D253F82C70013700F0848004F1090C0F
:10807000AC4509D253F82C7001377BD00A34AC429E
:1080800002D2DC6A013409D00420F0BD1D6801353C
:1080900074D001240825A0E70820F0BD0B241F1888
:1080A00065B243F824E087F83050002E5ED08A781D
:1080B00054071AD4D60741D41F284A7887BF334EB5
:1080C00000F01F0404464FF0A04604F5E07492004F
:1080D00046F824202E4EC40800F0070C375D01221C
:1080E00002FA0CF23A4332558A780C7812F0020206
:1080F00009D1083D2B44104693F8602042EA8414CD
:1081000083F86040F0BDAB0003F1804303F5C0434A
:108110000202D3F8101521F44F3121F44071C3F855
:1081200010152404D3F8101504F4403402F47C52E2
:1081300022430A43C3F810250020F0BD1F2887BF43
:10814000124A00F01F0404464FF0A04202EB8402E2
:10815000D2F8004724F00204C2F80047BAE7082624
:1081600084F83060C3F820E0354634461C4484F877
:1081700058009CE7644692E73C4690E700251A6069
:1081800084F8305093E700BF0C2B00200003005010
:10819000702B002070B43A4D2E1883B096F9303011
:1081A000072B20DD2B4493F858309B09032B45D037
:1081B000012B14BF4FF440314FF400311F284DD92B
:1081C00000F01F002F4B03EB8000D0F8002722F4B3
:1081D0004032C0F80027D0F800370B43C0F8003712
:1081E00003B070BC7047DAB2072AF9D8980000F1E2
:1081F000804000F5C04003F14002D0F810459200E5
:1082000092B244F0010402F18042C0F8104502F538
:10821000C04200200190019C10600029E0D096F936
:10822000302055F82220002ADAD00122164902FA1D
:1082300003F3C1F8043303B070BC70471F2810D992
:10824000104BD3F8103500F01F00C34013F0010F9E
:108250000CBF4FF400314FF44031B3E74FF0A0436F
:10826000B1E74FF0A0421346D2F81025C24012F0F9
:10827000010F14BF4FF440314FF40031A3E700BFAA
:108280000C2B002000030050006000401F288ABF14
:10829000054B4FF0A04300F01F00D3F8103523FA30
:1082A00000F000F001007047000300502DE9F04F8E
:1082B000002385B0CDE902339D4A1168012900F001
:1082C000C1801E469B4B1A68012A00F0AD809A4B74
:1082D0001A68012A00F09A80984B1A68012A57D030
:1082E000974B1A68012A63D0964B1A68012A6FD0FF
:1082F000954B1A68012A7BD0944B1A68012A3AD010
:10830000934B1A68012A13D100221A601B6801934B
:108310004FF0A042019BD2F820158E4B0291C2F87B
:108320002015D3F82025039246F00046C3F82025F7
:1083300016F0FF0F1AD0884F00240125A30003F187
:1083400080432E4203F5C0434FEA45050BD0D3F8D6
:10835000100557F82420D3F81015C0F30520C1F3F9
:10836000014102B190470134082CE7D1002E75DBA2
:1083700005B0BDE8F08F794AD2F804231206BFD5C4
:1083800000221A601B680093009B46F08006B7E746
:10839000724AD2F804231507A2D500221A601B687E
:1083A0000093009B664B1A68012A46F008069BD191
:1083B0006A4AD2F80423D40696D500221A601B68B4
:1083C0000093009B5F4B1A68012A46F010068FD17C
:1083D000624AD2F8042390068AD500221A601B68EC
:1083E0000093009B584B1A68012A46F0200683D15F
:1083F0005A4AD2F8042351067FF57EAF00221A6054
:108400001B680093009B46F0400675E7534AD2F87C
:10841000042357077FF560AF00221A601B680093A2
:10842000009B46F0040657E74C4AD2F80423920713
:108430007FF54DAF00221A601B680093009B46F049
:10844000020644E74549D1F8046316F001063FF4FB
:1084500039AF136013680093009B33E7404EDFF899
:10846000F480A6F164073F4C012514F9011B4B1C55
:108470003CD0C9B204AB21F0C00003EBD00201F044
:10848000070312F8082C05FA03F31A422ED01F280E
:1084900087BF01F01F0CC24684464FF0A04A0AEB8A
:1084A0008C033A18D3F800E7D3F8009792F93020FC
:1084B00029F44039C3F80097CEF3014ED3F8009762
:1084C00057F82220BEF1020F14BF4FF4003B4FF4C7
:1084D000403B05FA0CFC49EA0B09C3F80097CAF8BF
:1084E00020C51AB18909032915D19047B442BCD1DE
:1084F0004FF0A042D2F820350293C2F82035D8F8C8
:1085000020250392C8F82025002BACD1002AAAD13F
:1085100005B0BDE8F08FBEF1020F05D0BEF1030F2C
:10852000E4D10229E2D1E0E70129DFD1DDE700BF94
:108530000061004004610040086100400C6100409F
:108540001061004014610040186100401C6100404F
:108550007C610040000300500C2B002000600040B4
:10856000702B00206C2B0020014B1B68184700BFAC
:10857000782B0020F0B51F4A1F4C204BA41AE408AA
:108580002404984283B044F003050BD0002002F08D
:1085900095FD1B4A1B490346284603F08DF9002030
:1085A00003B0F0BD184F28463A460E46174903F06F
:1085B0000DF902A8002300F8013D01F041FD3B79CF
:1085C00083B19DF8070001F061FD112002F076FDF6
:1085D0000B4A0C49034644F0020003F06DF91120E8
:1085E00003B0F0BD01239DF807003E603B7101F030
:1085F0004DFDCBE7343403003C3403000020004041
:108600003020030044200300782B0020442803007E
:108610000A4B984200D07047094B0A480A49C01AD1
:1086200010B5C008094C000440F00300224603F0D6
:10863000CDF800232360237110BD00BF002000404F
:10864000343403003C34030044280300782B00201A
:10865000134A137813BB10B40378124CDB07216064
:1086600006D51149D1F8043543F00103C1F80435AA
:108670000D4C0E49D4F8003223F00103C4F8003247
:1086800043785B01DBB281F80D334FF400530B608C
:108690000123137000205DF8044B7047852070475C
:1086A000842B0020802B002000D0004000E100E05F
:1086B000064A074B0021116082B0126801920199AD
:1086C0000122C3F804231A6002B0704700D10040B1
:1086D00000D000400349044A0123C1F80833136065
:1086E000704700BF00D0004004D0004010B40A48DA
:1086F0000A4C0B4A01234FF40051C4F808330360BD
:10870000C2F88010BFF34F8FBFF36F8F054B00226D
:108710001A705DF8044B704704D0004000D0004050
:1087200000E100E0842B0020074B0849084A0020A4
:10873000186082B01B680193019BD1F8080513688B
:10874000C0B202B0184700BF00D1004000D00040C6
:10875000802B002030B56D4AD2F8043399058BB0D8
:1087600068D5D2F82431002B64D00023C2F824311C
:10877000D2F8243101934FF40171654B0198C2F88E
:10878000081393F8291009B9012151605F490222A9
:108790008DF81820D1F88024C1F880249869D96810
:1087A00009920022CDE90710C3E90622D3E900149B
:1087B00006A8A047554AD2F81C31CBB1544B586992
:1087C000196A88426BD851490022C1F81C21D1F89E
:1087D0001C1102910299596951B1586999688DF833
:1087E000182008905A61079106A8D3E90012904713
:1087F000464AD2F84431DBB10021454BC2F844115E
:10880000D2F8440193F829100090009809B1012191
:1088100011609A6962B10022586AD9689A6101228E
:10882000CDE907108DF8182006A8D3E9001290476B
:108830000BB030BD354AD2F804335B07BAD5D2F855
:108840000831002BB6D0324B996900293CD0002169
:10885000C2F80811D2F8081104910499D868596A2D
:10886000D2F8182542545A6A996901325A625A6AF2
:108870008A429FD1DA691968002A2ED0D8685D6AC9
:108880001C699A61079000220120DC60DA615A625B
:108890008DF8180008955B6806A898478AE793F852
:1088A000281001F0FF0000298DD1C2F81C01D2F878
:1088B0001C11039103999C68186A196A205C0131A4
:1088C0001962C2F81C0593E7C2F80811D2F8080132
:1088D00005900598D2F81825C9E793F8292012B910
:1088E0000A4A01205060094A4FF40170C2F8080397
:1088F000586ADA6808900024012007928DF8180061
:108900005A689C6106A8904754E700BF00200040C9
:10891000882B00202DE9F041724F06792C2505FBAC
:10892000067582B095F82A30002B40F09C800D46E9
:1089300004466D4900689046FFF71CFE002840F091
:108940008E802B68591C19D01F2B4FF001028ABF53
:1089500066494FF0A04103F01F0302FA03F3C1F888
:1089600008352B681F2B86BF03F01F035F4A4FF0AB
:10897000A04203F5E073032142F823106B685A1CF0
:108980000BD01F2B86BF03F01F03584A4FF0A042A5
:1089900003F5E073002142F823102368AA69C3F8A5
:1089A0002425297D6B7D22680B43C2F86C35D5E9FF
:1089B00000122368C3F81425C3F80C152B7D012B76
:1089C00055D02C2303FB06F3FA18C2F804802A6959
:1089D000FA50B8F1000F2FD022682B7F444D0021B0
:1089E000C2F81C11D2F81C2100922268DDF800C0E8
:1089F000C2F84411D2F84411226801910199C2F8D9
:108A000004532168090B4AB25B01002ADBB263DB25
:108A100002F1604202F5614282F8003321680A0BDC
:108A200053B2002B09DB01215B09324D02F01F021A
:108A300001FA02F245F8232021682C2303FB067378
:108A4000002201250424C1F8004583F82A50C3E917
:108A5000062283F829205A6102B0BDE8F081112076
:108A600002B0BDE8F081082002B0BDE8F081AB683B
:108A7000591C0BD01F2B86BF03F01F031B4A4FF05E
:108A8000A04203F5E073002142F82310EB685A1C62
:108A90001BD01F2B4FF001028ABF14494FF0A04199
:108AA00003F01F0302FA03F3C1F80835EB681F2B2C
:108AB00088BF03F01F0303F5E0738CBF0B4A4FF030
:108AC000A042032142F82310EB682268A968C2F88B
:108AD0000835C2F8101574E7074A01F00F010A447F
:108AE00013769BE7882B0020558702000003005077
:108AF0008000020000E100E0FCEC00E0F8B53D4F32
:108B0000047902682C2303FB047300215B68C2F81C
:108B10000015B3B10368384AC3F808230368190B7A
:108B20004AB2002A0EDB520920320123334D01F0F4
:108B30001F0103FA01F145F82210BFF34F8FBFF375
:108B40006F8F0368D3F80C65D3F81455D3F8082554
:108B5000D3F810154FF0FF3CC3F814C5C3F80CC58B
:108B600003686645C3F808C5C3F810C50CD01F2EAE
:108B700086BF06F01F06224B4FF0A04306F5E076B5
:108B80004FF0020C43F826C06E1C0BD01F2D86BF81
:108B900005F01F051A4B4FF0A04305F5E0750226BE
:108BA00043F825604D1C0BD01F2986BF01F01F0123
:108BB000134B4FF0A04301F5E071022543F821501B
:108BC000531C0BD01F2A86BF02F01F020C494FF026
:108BD000A04102F5E072022341F822300068FFF75D
:108BE00017FD2C2303FB0474002384F82A306360F0
:108BF000F8BD00BF882B00208402020000E100E0E5
:108C000000030050F0B5314E05792C2303FB0563BA
:108C100085B05C69002C53D15A6199601C6283F85D
:108C200028400268C2F81C41D2F81C110268029167
:108C30000121029F91600268D3F808C0C2F81C416C
:108C4000D2F81C1101910199D3F820E0196A5F68EC
:108C50001CF80EE001311962C2F81CE517B120467C
:108C600005B0F0BD5C691A6A0168944203D819E046
:108C700093F828203ABBD1F81C21002AF8D0C1F87B
:108C80001C71D1F81C210392039AD3F820E01A6AD0
:108C90001CF80EE001321A62C1F81CE51A6A94420F
:108CA000E9D80168D1F81C31002BFBD00123CB603F
:108CB00000202C2303FB056500236B6105B0F0BD8C
:108CC000112005B0F0BD0F20F3E700BF882B002076
:108CD000F0B4514D04792C2303FB045386B05F6834
:108CE00027B103684FF40176C3F808632C2303FB14
:108CF00004539E696EB1DE690EB3002F00F08480CC
:108D000003684FF401721120C3F8042306B0F0BCCD
:108D1000704793F829709A61D9605E62DE61002F16
:108D200060D02C2202FB04520168536853B14FF407
:108D30000173C1F80433002006B0F0BC704719611C
:108D4000DA61EEE7C1F84431D1F844310393039B73
:108D50000368D3F82461D3F80871D3F8441157B9E4
:108D6000002936D1002EF4D02C2303FB0454002319
:108D7000A3610320E0E7002EF6D161BB966996B1AE
:108D8000C3F80811D3F8081104910499D668516A00
:108D9000D3F818357354536A916901335362536A97
:108DA0009942D5D808E0C3F80861D3F808110591B5
:108DB0000599D3F81835536A2C2303FB0454002279
:108DC00094F82930A2610BB30368012110461960A1
:108DD000B2E7002EC8D12C2303FB04540023A36167
:108DE0000F20A9E70368C3F82471D3F8242103688E
:108DF0000192019AC3F80871D3F80821036802921E
:108E0000012202991A608CE7112095E7026801217E
:108E10001846516090E700BF882B0020F0B5524BF8
:108E2000D3F824218BB0002A6ED00021C3F824117E
:108E3000D3F82421049202228DF81820049AD3F842
:108E400080044A4AC3F880040990D3F83C05D368EB
:108E50000890C2E9061107931168536806A898475D
:108E6000414BD3F84421BAB10021404AC3F8441120
:108E7000D3F8444190690394039C68B1D3F83C351E
:108E8000D06808930123C2E9061107908DF81830C5
:108E900006A8D2E900139847334BD3F82021BAB182
:108EA0000021C3F82011D3F82021029201202F4A7B
:108EB000029CD860506958B1D3F84C05936808906B
:108EC0008DF818105161079306A8D2E9001398474E
:108ED000254BD3F85821AAB10021C3F85811D3F873
:108EE0005801224A01900198506958B1D3F84C05B5
:108EF000936808908DF818105161079306A8D2E97D
:108F0000001398470BB0F0BDD3F810110029A7D07B
:108F1000C3F81021D3F810111448059105998169FF
:108F2000D3F83C458C429BD1C569C768D0E900168F
:108F30008DB1D3F800C285612CF02005C261C3F861
:108F400000520369C3600122CDE907748DF818202F
:108F500006A8B04784E701238561CDE907748DF841
:108F6000183006A8B0477BE700200040B42B002053
:108F70002DE9F0430779854E4FEAC70808EB07054E
:108F800006EB850587B095F82030002B40F0BA80BD
:108F9000894604467E4900681546FFF7EBFA00282B
:108FA00040F0AC80D9F80030591C1AD01F2B4FF07C
:108FB00001028ABF77494FF0A04103F01F0302FA74
:108FC00003F3C1F80835D9F800301F2B86BF03F032
:108FD0001F03704A4FF0A04203F5E073032142F8EB
:108FE0002310D9F804305A1C0BD01F2B86BF03F076
:108FF0001F03684A4FF0A04203F5E073002142F8D6
:1090000023102368D9F81820C3F8242599F81410E0
:1090100099F8152023680A43C3F86C25D9E9003173
:109020002268C2F80C35C2F8141599F81430012BD7
:109030006CD008EB07029200B3185D60D9F81030CD
:10904000B3502168002D48D0002399F81C20C1F8A6
:109050001031D1F8101101912168DDF804C0C1F878
:109060002031D1F8201102912168DDF808C0C1F843
:109070002431D1F8241103912168DDF80CC0C1F826
:109080004431D1F8441104912168DDF810C0C1F8D1
:109090005831D1F85811236805913F4D0599C3F80F
:1090A00004532168090B53014AB2002ADBB267DB83
:1090B00002F1604202F5614282F8003321680A0B36
:1090C00053B2002B09DB01215B09344D02F01F0272
:1090D00001FA02F245F82320216808EB070306EBAA
:1090E0008303002201250824C1F8004583F820509D
:1090F000C3E906225A6107B0BDE8F083112007B02A
:10910000BDE8F083082007B0BDE8F083D9F8083047
:10911000591C0BD01F2B86BF03F01F031D4A4FF0B5
:10912000A04203F5E073002142F82310D9F80C3077
:109130005A1C1DD01F2B4FF001028ABF15494FF05A
:10914000A04103F01F0302FA03F3C1F80835D9F870
:109150000C301F2B88BF03F01F0303F5E0738CBF97
:109160000C4A4FF0A042032142F82310D9F80C30EA
:109170002268D9F80810C2F80835C2F8101558E767
:10918000074A01F00F010A44137697E7B42B002039
:109190001D8E0200000300501003420000E100E0B9
:1091A000FCEC00E02DE9F0410679544C0268F50032
:1091B000AB1904EB830382B05B68B3B1504BC2F8C8
:1091C000083303681B0B59B200290EDB4909203113
:1091D0000127DFF834C103F01F0307FA03F34CF84B
:1091E0002130BFF34F8FBFF36F8FA91904EB8101BB
:1091F000D2F80032896923F02003C2F8003241B16D
:109200000023C2F84431D2F844310093012300997D
:1092100053600023C2F85831D2F858310193AB198A
:10922000012104EB8303019FD1609969D2F8583181
:10923000002BFBD019B1D2F84431002BF6D000231B
:10924000C2F8003503684FF0FF38D3F80CE5D3F8C7
:1092500014C5D3F80815D3F81075C3F80C85C3F8F6
:1092600014850368C645C3F80885C3F810850CD07B
:10927000BEF11F0F86BF0EF01F0E224B4FF0A04312
:109280000EF5E07E022043F82E00BCF1FF3F0CD02B
:10929000BCF11F0F86BF0CF01F0C1A4B4FF0A04300
:1092A0000CF5E07C022043F82C00781C0BD01F2F1B
:1092B00086BF07F01F07134B4FF0A04307F5E07779
:1092C000022043F827004B1C0BD01F2986BF01F05A
:1092D0001F010C484FF0A04001F5E071022340F857
:1092E00021301046FFF794F9354404EB8504002340
:1092F00084F82030636002B0BDE8F081B42B002018
:10930000100342000003005000E100E001F0604360
:10931000B3F1005F2CD1F0B40579264EEF007C1933
:1093200006EB840482B0636923BB6261A1600268BA
:10933000C2F82031D2F820C10268CDF804C0DDF8AF
:1093400004C0C2F85831D2F8582100920268DDF802
:1093500000C0D4F814C0C2F84415C2F848C5026869
:109360000121916062684AB1184602B0F0BC7047B2
:1093700010207047112002B0F0BC7047036800E075
:10938000B2B9D3F82011D3F858210029F8D07AB90E
:109390000122DA600268D2F85831002BFBD000209D
:1093A0003D4406EB85060023736102B0F0BC7047B4
:1093B0000F20F5E7B42B002001F06043B3F1005F0C
:1093C0007ED1F0B40579464CEB005E1904EB8606BD
:1093D00082B0766826B107684FF4047CC7F808C3EA
:1093E0002B4404EB83039D69002D42D19A61DD611A
:1093F000D9600368C3F81051D3F81061036801966F
:10940000019EC3F84451D3F8445103680095009D70
:10941000C3F83415C3F83825036801221A600579AA
:109420000368EE00721904EB820252685AB14FF4DD
:109430000472C3F80423002002B0F0BC7047002976
:1094400042D1002846D1D3F81021D3F84411D3F8E3
:109450002401002AF3D0354400284FF0000304EB28
:10946000850414BF032018469942A36118BF0F203A
:10947000E2E7DD693DB12EB303684FF40472C3F82F
:1094800004231120D8E71961DA610368C3F8105189
:10949000D3F8106103680196019EC3F84451D3F8D4
:1094A000445103680095009DC3F83415C3F838256E
:1094B0000268D2F8003243F02003C2F80032AEE76F
:1094C000102070471120B7E7354404EB85040F20C6
:1094D000A261B1E7354404EB85040320A161ABE749
:1094E000B42B002010B4754B1B68082B1CD0744A99
:1094F000D2F8883043F47003C2F88830BFF34F8F3E
:10950000BFF36F8F4FF01023D3F80022002AC0F270
:10951000A380D3F80432002BC0F29E80694B6A4AC4
:109520001A605DF8044B70474FF080414FF0805255
:109530000020C1F80C01654BC1F81001C1F83805D5
:10954000D2F80414C3F82015D2F80814C3F824156F
:10955000D2F80C14C3F82815D2F81014C3F82C153F
:10956000D2F81414C3F83015D2F81814C3F834150F
:10957000D2F81C14C3F84015D2F82014C3F84415CF
:10958000D2F82414C3F84815D2F82814C3F84C159F
:10959000D2F82C14C3F85015D2F83014C3F854156F
:1095A000D2F83414C3F86015D2F83814C3F864152F
:1095B000D2F83C04C3F868054549D2F84004C3F822
:1095C0006C050968D2F84424C3F87025032937D8FC
:1095D000404B5B5C13B1404B404A1A60404B5B5CB4
:1095E00063B1364B3F491B68394AFB20C1F8180567
:1095F000082B11687FF47BAF032921D83A4B5B5CC1
:1096000093B13A483A4B2D4C02681B6824683049A4
:1096100022F00F0203F00F031343082C09680360C4
:109620007FF465AF03290BD8324B5B5C43B1234B0E
:10963000314A1B684FF40071082B11607FF457AF5B
:109640004FF08043D3F80024D2077FF550AF6FF07E
:109650000102C3F800244AE7284B0122C3F804257D
:10966000D3F80024002AFBD04FF010231222234904
:10967000C3F80022D1F80034002BFBD04FF01022A9
:1096800012211E4BC2F80412D3F80024002AFBD08A
:1096900000221A49C3F80425D1F80034002BFBD06E
:1096A000BFF34F8F0649164BCA6802F4E0621343BA
:1096B000CB60BFF34F8F00BFFDE700BF300100104C
:1096C00000ED00E0D82800200090D00300C000404A
:1096D000340100107C2003008C56004048810300B8
:1096E0007C20030000F000407C200300E40E0040DA
:1096F000580200107C2003004096024000E0014028
:109700000400FA0570B51A4B1D789DB1194B1C6801
:109710002378C0B2984210D004F10802002306E07A
:1097200014F833108142164602F1080206D00133C4
:109730009D42F5D100231B78FFDE2646FEF7A6FDED
:109740007378A3F10103B3FA83F35B09834200D07A
:1097500070BD094BD3E900231343F9D1074B0848E7
:10976000196800224908BDE8704000F0F1BB00BF55
:10977000D82B0020282C0020002C0020DC2B0020DF
:10978000E02B00202DE9F04F9D4E337887B0002B61
:1097900000F030819B4F9C4DDFF8788200244FF021
:1097A0000109D7F800B01BF83400FEF76FFD0BEB92
:1097B000C4031BF834B05B784FEA5B0C1BF0010E5E
:1097C00015F80C10A3F10103B3FA83F314BF0A09CF
:1097D00001F00F025B09042A00F2D080DFE812F0EA
:1097E0009800D000690048000500834200F0E9803D
:1097F000BEF1000F0CBFF0230F233078194005F89D
:109800000C10A8B1D7F800C09CF800305B4500F000
:10981000E7800CF10802002304E01CF833105945DE
:1098200000F0DF8001338342964602F10802F4D152
:109830004FF000030DF117008DF81730002303934C
:1098400000F0FEFBABF12002CBF1200329FA03F379
:1098500009FA02F21A4309FA0BF103920291D8E9CC
:109860000023DDE9020122EA000023EA01017DE094
:10987000834232780CD0BEF1000F0CBFF0230F23CF
:1098800003EA01030CBF04214021194305F80C1021
:109890000134944285DBD8E90023134306D05B4BA7
:1098A0005B4819680022490800F052FB07B0BDE888
:1098B000F08F834276D1BEF1000F14BF0F23F02347
:1098C00003EA0103327814BF30210321194305F85C
:1098D0000C10002ADFD0D7F800C09CF800305B45A0
:1098E00000F08B800CF108010023013393428E4677
:1098F00001F10801CCD01CF833005845F5D1DEF851
:109900000430002BC4D05846012198473278BFE775
:10991000834233D1BEF1000F0CBFF0230F2303EAC3
:1099200001030CBF0121102119434FF000030DF179
:1099300017008DF817300023019305F80C1000F084
:109940007FFBABF1200309FA03F301930198CBF1FC
:10995000200129FA01F1084309FA0BF10190009165
:10996000D8E90023DDE900011043194302460B4604
:109970009DF81700C8E9002300F088FB327887E7DC
:10998000834213BF0023202302221A46BEF1000F98
:1099900012BF0F20F020134601400B4305F80C3096
:1099A000327875E7BEF1000F0CBFF0230F2303EAF6
:1099B00001030CBF01211021194305F80C10327866
:1099C00066E7BEF1000F14BF0F23F02303EA010383
:1099D00014BF30210321194305F80C10327857E7E2
:1099E000E646DEF80430002B3FF422AF0021584653
:1099F00098471DE7DFF81C804DE7E6467FE700BF8C
:109A0000D82B0020282C0020082C0020DC2B002044
:109A1000E02B0020002C0020092A40D9F0B583B0AB
:109A20000E4605461446FEF7BBFA002831D0204A00
:109A30002049214B15600E70202200211F481C6018
:109A400005F04EFD1E4B00200021741EC3E90001ED
:109A5000E4B236B305EBC4041A4E083D032701E017
:109A6000A5421ED09DF8063020788DF8047003F0D2
:109A7000FC036FF382038DF80630A3788DF8053070
:109A8000324601A9FEF796FA083C0028E8D003B058
:109A9000F0BDFEF72FFA0028C9D003B0F0BD0720B3
:109AA0007047094A0948002100F044FA03B0F0BDAC
:109AB000282C0020D82B0020DC2B0020082C002094
:109AC000002C0020059702008597020080200300EB
:109AD00070B5084D2B785BB1074E00243368012127
:109AE00013F83400FEF756FB2B780134A342F5D867
:109AF000002070BDD82B0020282C002000B585B098
:109B000000230390194601AA44F20100CDE9013374
:109B100000F004F805B05DF804FB00BF10B572B6A4
:109B200002F00CF801F0CAFF0028FBD1104B114CD9
:109B30001149E41AE408240444F0010001F0B2FCE5
:109B40000E4B1B68DB0700D500BE44F002000C4939
:109B500001F0A8FCBFF34F8F0A490B4BCA6802F40F
:109B6000E0621343CB60BFF34F8F00BFFDE700BF40
:109B7000343403005C34030090200300F0ED00E077
:109B80009C20030000ED00E00400FA05D0E9022368
:109B9000D1E90201994208BF90422CBF0120002068
:109BA000704700BF2DE9F04F87B0039000F094FBA1
:109BB00040B19B49D1E9002312F1807443F10005C3
:109BC000C1E9004500210398964C00F0A1FB60B16B
:109BD000236853B1944B25681B7823B11DB12B7FAB
:109BE000002B40F02D81002323600121039800F019
:109BF0008FFB002840F0F38005A98C4800F00EFC94
:109C000018B38B4E884F894D0378012B00F0C68026
:109C1000C0F0CC80022B0ED130464FF0000801F08E
:109C20002FFA30B180F81C80304601F029FA002864
:109C3000F8D101233B7005A9284600F01DFC05A9B9
:109C4000284600F0EBFB0028DED1794E794FDFF893
:109C5000D09103E00D2855D000232360304601F059
:109C600015FA2368002800F0B48063B12368D0E9B6
:109C70000201D3E90223994208BF90423BD22368F4
:109C80001B7F002B7FD1304601F0FAF90546D5E95C
:109C900002233846CDE9002300F04CFBD9E900232C
:109CA000DFF8948112EB000A43F1000BD8E900239E
:109CB0009B4508BF924503D21AF1807A4BF1000B05
:109CC000DDE90001B0EB0A0061EB0B01012871F145
:109CD000000313DBDFF864A1504559D8AA684FF49C
:109CE00096030021384600F071FA0028B2D12368AB
:109CF000002B67D0256007B0BDE8F08F0021384603
:109D000000F0FAFA484B1B78002BA5D02B7F002BD4
:109D1000A2D0384600F00EFBD8E90023D9E900AB09
:109D2000CDE900231AEB00024BF10003104619465F
:109D3000DDE90023994208BF904203D210F1807000
:109D400041F10001D5E90223994208BF904261D355
:109D50002B6903B92B77D5E9053098472969002984
:109D60003FF47AAF2B7F002B3FF476AFD5E9022387
:109D700012EB010A43F1000BC5E902AB294630465C
:109D800001F06AF968E72168304601F065F97AE781
:109D9000384600F0CFFA00EB0A02A0E741682368DA
:109DA000994213D0304601F075F944E743681A7FB1
:109DB000002A7FF440AF01221A774168304601F053
:109DC0004BF938E7039800F0D3F993E700232360B9
:109DD00031E7002B8FD1039800F0CEF98BE71548BF
:109DE000DFF8548000F0A6FA0D4BD3E90067D8E9FC
:109DF000002316EB000947F1000A9A4508BF914578
:109E00004846514603D219F180704AF10001C8E971
:109E10000001F1E62946304601F01EF91CE700BFBB
:109E2000302C0020B02C0020382C0020942C002056
:109E3000B0200300DC280020A82C0020FFFFB40085
:109E40001D4800F077FA1D4A1D4BD2E90067D3E99F
:109E5000002316EB000847F10009994508BF90451B
:109E60004046494603D218F1807049F10001D5E916
:109E70000223994208BF904219D32B6903B92B776B
:109E8000D5E905309847296900293FF4ACAE2B7F0E
:109E9000002B3FF4A8AED5E90223561843F1000782
:109EA000C5E902672946074801F0D6F89BE629462E
:109EB000044801F0D1F896E6DC280020302C002080
:109EC000A82C0020B020030010B5134B13491B68C9
:109ED000134882B058220193082300F04BFA04463D
:109EE00010B1204602B010BD0E4A0F4801A900F083
:109EF000E5F804460028F4D101210B4800F0E2F90E
:109F000001231946094A084800F03AF9084B012292
:109F100020461A7002B010BDAC2003003C2C00207B
:109F2000942C0020A59B0200DC280020FFFF7F006E
:109F3000382C00204AB1A1F101010368B1FA81F186
:109F40004909C3E90412002070470720704700BF89
:109F5000037F0BB1002070472DE9F048826182B089
:109F600004461F480D4600F0E5F91E4B1E49D3E993
:109F70000023D1E9006712EB000B43F1000CBC4554
:109F800008BFB34503D21BF1807B4CF1000C1BEBE7
:109F9000050221694CF10003C4E9022379B901A942
:109FA000124800F0FFF988B100254460057001A94E
:109FB0000E4800F023FA68B902B0BDE8F0882561C8
:109FC00001A90A4800F0EEF90028EDD1042002B002
:109FD000BDE8F088024800F0B1F92846ECE700BF80
:109FE000DC280020302C0020A82C0020942C0020FD
:109FF00030B5002583B00446057701A90B4800F071
:10A00000D1F978B101234460037001A9074800F039
:10A01000F5F908B903B030BD054800F08FF92846BE
:10A0200003B030BD042003B030BD00BF942C00202D
:10A03000DC280020014800F07DB900BFDC280020AA
:10A0400070B4EFF3108472B60D4B9A68AAB90D493B
:10A050000D4E01259D60D1F8805035401D60C1F83E
:10A060008060D1F884505D604FF0FF33C1F88430D8
:10A07000027004B962B670BC704701230370F8E740
:10A08000CC50002000E100E0FC06FFBD094B9A68BF
:10A090007AB170B910B4EFF3108172B6064A1C6839
:10A0A00014605C685460986001B962B65DF8044B56
:10A0B00070477047CC50002000E100E0F8B5244E16
:10A0C0004579244C244B254F9B1B04EBC506DB082C
:10A0D000367947F825201B0496BB02680D88C2F824
:10A0E000085590F904208978002A21DB02F16042AA
:10A0F00002F561424901C9B282F8001390F90420C7
:10A10000002A07DB164D02F01F0601215209B1405B
:10A1100045F822104279134944F8320004EBC20496
:10A1200043F003000123237101F0BCF90020F8BDC6
:10A130000D4D02F00F0249011544C9B22976DDE741
:10A1400043F00200094901F0ADF90820F8BD00BF55
:10A1500034340300B42C00206C340300BC2C0020E9
:10A1600000E100E0FC200300FCEC00E0D82003004C
:10A17000036801221A607047036801225A60704721
:10A18000F0B404684FF480358D40C4F80853066875
:10A190008C00C6F8485304F5A0740668A4B20027E2
:10A1A000375182B036590468019601F5A87122F042
:10A1B0007F42019E44F821200268C2F8445313B143
:10A1C0000368C3F8045302B0F0BC70472DE9F047B0
:10A1D00088464FF48037016807FA08F7C1F84873DA
:10A1E0000168C1F80873064600684FEA880401193F
:10A1F000D0F80455D1F84005C1F8405504F5A074D5
:10A20000A4B231684FF0000941F8049082B0401BBD
:10A210000959009120F07F4001289A4622F07F459D
:10A22000009B0BD1264B4FF4806043F0010398470D
:10A23000336843F804901B590193019B3368D3F8AA
:10A240000445C3F844732B1B23F07F43012B08F50F
:10A25000A87817D130681A4B013540F8285043F0E0
:10A2600001034FF4806098473268D2F804359C426D
:10A2700022D1C2F8447333680020C3F8047302B0DB
:10A28000BDE8F087336843F828503268D2F80415E7
:10A290006B1ACAF1FF1A013B0AF57F4A23F07F438C
:10A2A0009A4509D3002BE4D1013542F82850326891
:10A2B000D2F804359942DCD00D2002B0BDE8F08719
:10A2C000D020030002680223C2F8443311B10268AF
:10A2D000C2F80433704700BF0368D3F8040150B1DB
:10A2E000002282B0C3F80421D3F804310193019B0A
:10A2F000012002B0704770474FF48033026803FAC0
:10A3000001F1C2F848130368C3F80813704700BF8F
:10A31000890001F5A07189B20368585840B1002244
:10A320005A5082B05B580193019B012002B07047E4
:10A33000704700BF0368D3F80405704790F90430F4
:10A34000002B09DB5A09403203F01F0301210348A7
:10A3500001FA03F340F82230704700BF00E100E04B
:10A36000024A034B10681B68184700BFB42C00203A
:10A37000BC2C002099B110B4B2FBF3F403FB1424FD
:10A38000A4B244B9C0E9001484608281C38120462C
:10A390005DF8044B704709205DF8044B70470E20B0
:10A3A000704700BF30B482B050E8013F9DB2C4890D
:10A3B00025448489A54228BF2D1B0489A54202BFDC
:10A3C000BFF32F8F002207E0C5EA030540E80154E0
:10A3D000002CE9D14FF001028DF803200193019B7D
:10A3E0009DF803200B602AB10B880068184402B066
:10A3F00030BC704702F0FF031846F8E70A884B8824
:10A400009A4201D00020704750E8012FC2EA024270
:10A4100040E80123002BF7D10120704730B482B00F
:10A4200050E8023F1FFAA3F5C488A54202BFBFF35C
:10A430002F8F00220DE0C48925448489A54228BFBE
:10A440002D1BC3EA054540E80254002CE8D14FF02B
:10A4500001028DF803200193019B9DF803200B60FE
:10A460002AB14B880068184402B030BC704702F033
:10A47000FF031846F8E700BF0A884B889A4201D0CC
:10A480000020704750E8022FC2EA224240E802232F
:10A49000002BF7D10120704701F01F024B09012169
:10A4A00000EB8300914000F01FB800BF01F01F02D5
:10A4B00001234909934000EB8100D94300F020B803
:10A4C0004B0901F01F0150F82300C84000F00100C3
:10A4D000704700BF50E8002F0B4640E8003C9CF05E
:10A4E000000FF7D11046704750E8003F43EA0102E1
:10A4F00040E8002C9CF0000FF6D11046704700BFDA
:10A5000050E8003F03EA010240E8002C9CF0000FF5
:10A51000F6D11046704700BF50E8003F03EB010240
:10A5200040E8002C9CF0000FF6D11046704700BFA9
:10A5300050E8003FA3EB010240E8002C9CF0000F24
:10A54000F6D11046704700BF012350E8002F42EAC1
:10A55000030C40E800C191F0000FF6D1604670474F
:10A56000002350E800CF0CEA030240E8002191F0FC
:10A57000000FF6D160467047B8B130B4D0E901128F
:10A58000521A0468D2B2531E2160DBB242B1016894
:10A590000A685C1E551C0D601370E3B2FF2BF6D1E8
:10A5A00003680020187130BC70470E20704700BF50
:10A5B000F0B583B002AB002503F8015D04461846F0
:10A5C000FFF73EFDD4E900311A688A4210D9511EC6
:10A5D00019602168A3680F6812F8015C0A79268A5D
:10A5E000E068DB1BDBB29A4206FB050538BF0B7146
:10A5F0009DF80700FFF74AFD284603B0F0BD00BFF5
:10A6000030B583B002AB002203F8012D0546184691
:10A610000C46FFF715FD2A681368591C1160E9689C
:10A620002A8A641AB4FBF2F41C709DF80700FFF745
:10A630002DFD03B030BD00BF826842B110B50446A5
:10A6400043690168006998470023A36010BD704703
:10A650000EB400B582B0039929B102AA04AB42F846
:10A66000043D00F08BF802B05DF804EB03B07047D6
:10A670002DE9F84F88469045174605461E46DDE908
:10A680000AB175D343464FF00109B3FBF7F39F427C
:10A6900009F10109F9D9B14538BFB14611F0010AF4
:10A6A000AA6802D1BBF1000F43D1012402E0013EB0
:10A6B00007FB04F4012EFAD8B8FBF4F18F42F7D966
:10A6C0002D4E05E0B4FBF7F4A4B1B8FBF4F1AA6891
:10A6D000705C531CAB602B689854D5E901329A42E8
:10A6E00004FB1188EED32846FFF7A6FFB4FBF7F46E
:10A6F000002CEAD1BAF1000F15D0BBF1000F12D037
:10A70000CB4510D92024AB682A68591CA960D454C1
:10A71000D5E901329A420BF1FF3B06D2BBF1000FA3
:10A7200001D0CB45EFD1BDE8F88F2846FFF784FF75
:10A73000F4E78B0717D42024CB45B6D92B68511CDE
:10A74000A9609C54D5E901329A420BF1FF3B05D236
:10A75000BBF1000FA9D0CB45F0D1A6E72846FFF703
:10A760006BFFAA68F4E7002E0CBF30242024E3E737
:10A770004FF001098FE700BF1C210300002900F002
:10A78000F4812DE9F04F054685B092460C460B78D2
:10A79000DFF8A0B501E0237893B1013483B1252B14
:10A7A00015D0AA682968501CA8608B54D5E90132DD
:10A7B0009A42F0D32846FFF73FFF2378002BECD1D5
:10A7C0002B7B002B40F0148105B0BDE8F08F2146B3
:10A7D000002711F8012B2D2A00F0E180302A00F02B
:10A7E000E2802B2A00F0D2802A2A00F0E080A2F139
:10A7F0003006F3B2092B03D9B8E1A3F130060146C4
:10A80000084606EB860310F8012BA2F13004092C50
:10A8100002EB4303F1D92E2A00F0D5800023013149
:10A8200001E011F8012B02F0FB0068280C46F8D07B
:10A83000253A532AAFD801A151F822F0FDA9020010
:10A8400097A7020097A7020097A7020097A7020008
:10A8500097A7020097A7020097A7020097A70200F8
:10A8600097A7020097A7020097A7020097A70200E8
:10A8700097A7020097A7020097A7020097A70200D8
:10A8800097A7020097A7020097A7020097A70200C8
:10A8900097A7020097A7020097A7020097A70200B8
:10A8A00097A7020097A7020097A7020097A70200A8
:10A8B00097A7020097A7020097A7020097A7020098
:10A8C00097A7020097A7020097A7020097A7020088
:10A8D00097A7020097A7020097A7020097A7020078
:10A8E00097A7020097A7020097A7020097A7020068
:10A8F00097A7020097A7020097A7020097A7020058
:10A9000097A7020097A7020017AA020097A70200C4
:10A9100097A7020097A7020097A7020097A7020037
:10A9200097A7020097A7020097A7020097A7020027
:10A9300097A7020031AA020053AA020097A70200BB
:10A9400097A7020097A7020097A7020053AA020048
:10A9500097A7020097A7020097A7020097A70200F7
:10A9600097A7020097A70200A3AA020097A70200D8
:10A9700097A7020017AB020097A7020051AB020095
:10A9800097A7020097A7020017AA020047F0040742
:10A990000C46214611F8012B2D2A7FF41FAF47F0FA
:10A9A00001070C46F5E747F002070C46F1E7DAF835
:10A9B00000301A1DCAF8002062781E682E2A04F1A1
:10A9C00002007FF42BAF4A78A2F13003092B00F28A
:10A9D0005081002303EB830302EB430310F8012FA4
:10A9E000A2F130010929A3F13003F3D9014616E79A
:10A9F000284605B0BDE8F04FFFF71EBEAB682A68D9
:10AA0000591CA9604FF02501D154D5E901329A4271
:10AA1000FFF4C1AECEE6DAF80020111DCAF800102E
:10AA200011682846CDE900671022FFF721FEB2E643
:10AA3000DAF80020131DCAF80030AB6829681278D4
:10AA4000581CA860CA54D5E901329A42FFF4A3AE5B
:10AA5000B0E6DAF80020111DCAF80010D2F8008024
:10AA600088EAE872A2EBE872092A4FF0010107DDDB
:10AA7000AF48A0FB0202D208092A01F10101F7DC6C
:10AA8000994238BF1946894607F00202002E71D15B
:10AA90002AB1002B00F04781FA0700F18D800026D3
:10AAA0008AE0DAF80020131DCAF80030AB68296884
:10AAB0001768581C3022A860CA54D5E90123934274
:10AAC00080F028812A68581C7821A860D154D5E9E3
:10AAD0000123934280F019810F2F03D93A461209BE
:10AAE0000F2AFCD84FF0805603E036093FF453AEEE
:10AAF000AB682968B7FBF6F2581CA8601BF8020087
:10AB0000C854D5E90131994206FB1277EDD32846A6
:10AB1000FFF792FDE9E7DAF800301A1DCAF80020C5
:10AB2000D3F80080FB077ED54746A7EB080917F846
:10AB3000013B002B5DD0AA682968501CA8608B548B
:10AB4000D5E901329A42F0D32846FFF775FDECE7CC
:10AB5000DAF80020111DCAF8001011682846CDE966
:10AB600000670A22FFF784FD15E6704708460026B5
:10AB7000214650E6B8F1000F01DB780700D5013E11
:10AB800002B1CBB1F90717D4002E88D0B14513D24A
:10AB900020220393A9682B68481CA8605A54D5E961
:10ABA0000131994206F1FF365DD2002E00F0BD80E2
:10ABB000B145EFD1039B4E46B8F1000FC0F2928031
:10ABC0007A070AD5A9684A1CAA602A682B20505423
:10ABD000D5E90121914280F0928007F00302022A18
:10ABE0005FD0CDE9006741460A222846FFF740FDC5
:10ABF000D1E54E457FF6CFAD202705E04E453FF429
:10AC0000CAAD002E3FF4C7ADAB682A68591CA960D5
:10AC1000D754D5E901329A4206F1FF36EED32846E1
:10AC2000FFF70AFDEAE7B8F1000F24D0404605F02F
:10AC300067FA0746BE4220D9FEB14FF0200902E074
:10AC4000BE421AD0CEB1AB682A68591CA96002F87E
:10AC50000390D5E901329A4206F1FF36F0D3284637
:10AC6000FFF7EAFCECE728460292FFF7E5FC029AC0
:10AC70009BE70146D2E54746DCE708F1FF3818F8C4
:10AC8000013F002B3FF487ADAA682968501CA860DB
:10AC90008B54D5E901329A42F1D32846FFF7CCFC18
:10ACA000EDE7002B9DD1002E3BD0B14599D2029308
:10ACB00023464C469946AA682B68501C4FF0300139
:10ACC000A8609954D5E901329A4206F1FF3605D2BF
:10ACD0002EB3B442EFD1029B4C4682E72846FFF7E1
:10ACE000ABFCF5E7A9684A1CAA602A682D205054DD
:10ACF000D5E901219142C8F10008FFF46EAF284662
:10AD00000293FFF799FC029B67E72846FFF794FC44
:10AD1000AB68E1E62846FFF78FFCAB68D2E6029B02
:10AD20004C4600265DE71E4646E7039BB7E600BF9C
:10AD3000CDCCCCCC1C210300FFF71EBC2DE9F0418B
:10AD4000058ACE1C043D2E440746B6FBF5F6FFF7F8
:10AD50002FFC78B3F6B24FF48073013E0446C580F1
:10AD60000760838027D08046002509E06379AE42E2
:10AD700003F101036371C8F80000076080461AD030
:10AD80003846FFF715FC01350028EFD16679721EB1
:10AD900014D02346013082421B68FBD11F684EB19C
:10ADA000002523682146013538461C46FFF728FC5C
:10ADB000AE42F6D100242046BDE8F0812768EFE7D7
:10ADC00004300121FFF7A8BBF8B501210446043087
:10ADD000FFF7AEFBC0B200B1F8BD6679721E12D0AB
:10ADE0002346013082421B68FBD11F68002EF3D03E
:10ADF000002523682146013538461C46FFF700FC34
:10AE0000AE42F6D1F8BD2768F2E700BF2DE9F8435E
:10AE1000C788467907FB06F6043E02EB030C04469E
:10AE2000664503F1040015468846B0FBF7F238BFCB
:10AE3000F51A07FB120012B1013A2468FCD13E1A40
:10AE4000AE4228BF2E469DB14FF000090430AD1B25
:10AE50002044324608EB090104F0A8FAAF42B1449D
:10AE600024683E464FF0000028BF2E46002DEDD14D
:10AE7000BDE8F8832DE9F843C7884679154607FBF6
:10AE800006F6043E05EB030C1A1D6645044688468B
:10AE9000B2FBF7F038BFF51A07FB102110B10138EB
:10AEA0002468FCD17E1AAE4228BF2E469DB14FF0D9
:10AEB000000904312144AD1B324608EB090004F0BF
:10AEC00075FAAF42B14424683E464FF0000128BFF6
:10AED0002E46002DEDD1BDE8F88300BF064A074B92
:10AEE00010B5002414701C60BFF35F8F044905483F
:10AEF00000F09CF8204610BDC82C0020CC2C00206F
:10AF00002C210300C02C00200368826818685B684D
:10AF1000934234BF01330023C01AB0FA80F04009D5
:10AF2000704700BFF0B583B002AB002503F8015DA8
:10AF3000044618460F46FFF783F82368A2681E6888
:10AF40005868904238BF451CAE4213D05D685968BE
:10AF50008A420CD800225A60E2686068531E072BB0
:10AF600046D8DFE803F0423E4531454545190131F9
:10AF70005960F1E7207C002840D15D6859688A4219
:10AF800044D9013159602268A16813688B4234BFEB
:10AF9000013300231360DFE7D7E9002300EBC5008E
:10AFA000C0E90023226813685068834214D8C31A8A
:10AFB00091689DF80700994238BF9360FFF766F8E3
:10AFC0000024204603B0F0BD3B6840F825302268DD
:10AFD000136850688342EAD9A16801310144CB1A51
:10AFE000E6E73B8820F81530DCE73B784355D9E7A6
:10AFF000394605FB020004F0D9F9D3E79DF80700B4
:10B00000FFF744F80424204603B0F0BD5860BAE7C7
:10B01000826800239360826813618268536182684A
:10B02000D3608268536082681360704701600B6868
:10B0300043604A68934204BF00234360704700BFE7
:10B04000436843B1026891680B444360526893427D
:10B0500004BF00234360704770B54468064620680B
:10B060000D4618B908E02468206828B1B36829465D
:10B0700098470028F7D120682860256070BD00BF80
:10B080004368186808B102681A6070474368186816
:10B09000704700BF4068036873B18B4203D107E07B
:10B0A000814204D0034618680028F9D17047184639
:10B0B0000B680360012070471846704730B4184D84
:10B0C000A5F59472AB1ADB1003EBD3735B1002EBA4
:10B0D000C30152F83330984228BF0C4605D311E023
:10B0E00052F8333098420CD221468B1ADB1003EB16
:10B0F000D3735B108A4202EBC304F1D3094830BC1E
:10B1000070470D46984204D904F10802AA42D9D3E7
:10B11000F4E76068034B002808BF1846EFE700BF5C
:10B120008C22030050210300F0B595B00024154691
:10B130000F4608461E46FFF743FE3846234608954D
:10B14000082205A91A9D09960D950A948DF82C40A0
:10B150000C94FFF78FFE9DF814308DF81140DDE957
:10B16000061003F00302012ACDE9020127D0022ACA
:10B1700004D03846FFF728FE15B0F0BDBDF81650D4
:10B18000C3F3C2038DF81030AD090826082D2C46F4
:10B1900028BF0824334622460EA93846FFF76AFE28
:10B1A0002D1B214608AB02AA0EA8264400F080FD04
:10B1B000002DEBD13846FFF707FE15B0F0BDBDF806
:10B1C0001460059DC6F38316C3F3C204B2000EA932
:10B1D000384608238DF81040C5F39525FFF74AFE41
:10B1E00008AB324628460EA9009302AB00F0BAFC29
:10B1F0003846FFF7E9FD15B0F0BD00BF704700BF4E
:10B2000000B583B0044B0093044A4023FFF78CFF42
:10B2100003B05DF804FB00BF21B20200D42C002073
:10B2200038B50E480E4D03780E4CEB5C0025D2B2BB
:10B23000257053B90C30FDF7E5FC58B90A4B1B7863
:10B2400013B12378002BFCD038BD0430FEF75EF834
:10B250000028F3D0FEF752FCF0E700BFE4280020FE
:10B26000C8500020142D0020D02C002070B51348A9
:10B27000134A0378D35C88B0DBB90C30FDF73EFC91
:10B28000104D0FCD6C460FC495E80F0008AD062693
:10B2900045F8206D84E80F00294600220748FCF796
:10B2A000E5FD08B1FEF72AFC074B00221A7008B032
:10B2B00070BD0430FDF776FFE2E700BFE428002010
:10B2C000C850002078260300D02C002070B50D4D0A
:10B2D0000FCD88B06C460FC495E80F0008AD062668
:10B2E00045F8206D84E80F00294600220648FCF747
:10B2F000BDFD08B1FEF702FC044B00221A7008B035
:10B3000070BD00BF78260300E4280020D02C002068
:10B3100008B5FFF7DBFF0421034800F0DBFB034B1C
:10B3200001225A7108BD00BF24350300F82800200F
:10B33000F0B52F4C85B004F58360FFF705F904F2F2
:10B340001440FFF701F9A368DAB2D01C04EB8001C6
:10B3500014F8200010F0040041D09F1C0E7806F075
:10B360000306012E3D4633D0022E02F1030621D002
:10B3700004EB86010028F1D104EB82020133D2688C
:10B380000192DBB204EB830302F00302012ADE68C0
:10B3900027D0022A21D1BDF806309B090333360C91
:10B3A00005EB93051348FFF7DBF800B1A5603046C5
:10B3B00005B0F0BD4B8807EB9313DAB2D11C9F1C8C
:10B3C00014F821003D4604EB810100F00400D1E7B0
:10B3D0000B88C3F383133B44EFE70026E2E79D1C91
:10B3E000CAE7BDF80430C3F38313360C1D44D9E714
:10B3F000E82D0020FC310020064B074810B5012243
:10B400001A70FFF799FC044610B90448FFF700FED4
:10B41000204610BDE82D0020BC340300B8260300F0
:10B4200021B9124B03EBC00000687047104A0F4966
:10B43000521AD20815D030B40E4D2B88834212D048
:10B44000002303E035F82340844205D001339A42BB
:10B45000F8D1002030BC704701EBC300006830BC5D
:10B460007047104670470846F8E700BF34340300C1
:10B47000BC340300FC290020094B013903EBC00058
:10B4800003290BD8DFE801F0020806040220704708
:10B49000407970470079704704207047002070475A
:10B4A000343403002DE9F04182B002AB002203F8EE
:10B4B000012D324C074618468846FEF7C1FDD4E9F7
:10B4C000015303F580735B1B012B54D804F21C4617
:10B4D00001213046FFF720F8FFF72AFF01463046EA
:10B4E000FFF71AF8D4E9012303F580739B1A012BA7
:10B4F000EED9D3B20333023205219DF8070044F898
:10B5000023106260FEF7C2FD00211D48FEF7E2FF36
:10B5100080F310006B1CDBB204EB83030004EDB27C
:10B52000033540EA1740D86014F8253067F3C503A7
:10B5300004F8253034F825306FF3891324F82530CA
:10B5400054F8252068F39F221346012161F301037B
:10B550006FF3820344F8252004F8253023781BB9C3
:10B5600006E000F00FF818B1D4E901329A42F8D1A0
:10B5700002B0BDE8F0812A46BBE700BFE82D0020FD
:10B58000043200202DE9F0438A4C002385B0C4F832
:10B590001834BFF34F8FA568EAB2D31C04EB8301C4
:10B5A00014F82330580718D566680B7803F00303A6
:10B5B000012B42D0022B03D14B88023505EB9315AA
:10B5C000EAB2D4F81804D31C04EB830128B9AE42C4
:10B5D00039D914F823305B07E7D404EB82026B1CE3
:10B5E000D2680192DBB204EB830302F00302DB6852
:10B5F0000293022A05F1020600F08C80012A26D06F
:10B60000D4F810543DB12B6828469B689847EB68E6
:10B610001D68002DF7D16848684B6949C01AC008F9
:10B62000000440F00200FFF73DFFD4E90130C01AEA
:10B6300018BF012005B0BDE8F0830B880235C3F3C5
:10B6400083131D44BCE7A66005B0BDE8F083BDF8D8
:10B6500004205C48C2F38313062B28BF062363F340
:10B66000891202339900ADF80420FFF767FB074603
:10B670000028C5D0FFF7A4FB0023082201A9384603
:10B68000FFF7C4FBBDF8043013F4707F00F08F8027
:10B690006FF00109A9EB05090825F1B203312B462A
:10B6A000042204EB81013846FFF7B0FBBDF80430FB
:10B6B00006F1010809EB0802C3F3831393424646DF
:10B6C00005F10405E9D8D4F81834002B65D1D4F875
:10B6D000105465B1EB685A7928463946002A58D08B
:10B6E0002B681B689847EB681D68002DF2D138461F
:10B6F000FFF76AFB04A8002300F80D3DFEF7A0FC4D
:10B70000D4F818340BB9C4F808809DF80300FEF78C
:10B71000BDFC8AE7BDF806302A484FEA93194D462A
:10B72000502D28BF502565F38F1305F10801ADF8A2
:10B730000630FFF703FB074600283FF461AF6FEACE
:10B7400006085FFA88F8FFF73BFB08F1010801A93A
:10B75000002308223846FFF759FB4FEA8808F1B268
:10B760000331454504EB81011BD9A5EB08050823EE
:10B7700042463846EDB2FFF749FB2A4608F1080376
:10B7800011493846FFF742FB09F1030806EB980818
:10B7900099E71D68002D9DD1A9E73846FFF714FBF6
:10B7A00043E72A4608233846FFF730FBECE7B0466C
:10B7B00089E700BFE82D00205C3403003434030027
:10B7C000C4260300BC340300F42D00202DE9F0430F
:10B7D00083B002AB002403F8014D354C07461846F0
:10B7E00088469146FEF72CFCD4E9015303F580739B
:10B7F0005B1B022B5AD804F21C4601213046FEF78F
:10B800008BFEFFF795FD01463046FEF785FED4E935
:10B81000012303F580739B1A022BEED9D3B20333B5
:10B820004521033244F823109DF807006260FEF7BB
:10B830002DFCAB1CDBB204EB830300211D48C3F8D5
:10B840000C90FEF747FE80F310006B1CDBB204EB9C
:10B8500083030004EDB2033540EA1740D86014F8C2
:10B86000253067F3C50304F8253034F8253001216D
:10B8700061F3891324F8253054F8252068F39F22BA
:10B88000134661F301036FF3820344F8252004F8A3
:10B89000253023781BB906E0FFF774FE18B1D4E910
:10B8A00001329A42F8D103B0BDE8F0832A46B5E7E9
:10B8B000E82D0020043200202DE9F04782B002ADCF
:10B8C000002405F8014D394C07462846994688461C
:10B8D0009246FEF7B5FBD4E9015303F580735B1B79
:10B8E000032B61D804F21C4601213046FEF714FEFA
:10B8F000FFF71EFD01463046FEF70EFED4E9012398
:10B9000003F580739B1A032BEED9D3B20333852141
:10B9100044F8231004329DF807006260FEF7B6FB7E
:10B92000AA1CEB1CD2B2DBB204EB820204EB830351
:10B9300000211F48C2F80CA0C3F80C90FEF7CAFD06
:10B9400080F310006B1CDBB204EB83030004EDB248
:10B95000033540EA1740D86014F8253067F3C50373
:10B9600004F8253034F82530022262F3891324F8D4
:10B97000253054F8252068F39F221346012161F3F6
:10B9800001036FF3820344F8252004F8253023785F
:10B990001BB906E0FFF7F6FD18B1D4E901329A426F
:10B9A000F8D102B0BDE8F0872A46AEE7E82D0020C6
:10B9B000043200202DE9F04B82B002AD002405F8DE
:10B9C000014D3C4C804628461F4689469346FEF76B
:10B9D00037FBD4E9015303F580735B1B042B66D856
:10B9E00004F21C4601213046FEF796FDFFF7A0FC4D
:10B9F00001463046FEF790FDD4E9012303F580733C
:10BA00009B1A042BEED9D3B20333C52144F823107B
:10BA100005329DF807006260FEF738FBA81CEA1C9F
:10BA20002B1DC0B2D2B204EB800004EB8202DBB269
:10BA300004EB8303C0F80CB00021D7601E480A9ABB
:10BA4000DA60FEF747FD80F310006B1CDBB204EBFD
:10BA500083030004EDB2033540EA1840D86014F8BF
:10BA6000253068F3C50304F8253034F82530032267
:10BA700062F3891324F8253054F8252069F39F22B6
:10BA80001346012161F301036FF3820344F825207B
:10BA900004F8253023781BB906E0FFF773FD18B1D1
:10BAA000D4E901329A42F8D102B0BDE8F08B2A46BF
:10BAB000A9E700BFE82D002004320020044BD3E9A1
:10BAC00001239A4201D0FFF75DBD0020704700BFFF
:10BAD000E82D002030B4184DD5F8104400215CB199
:10BAE000E3681A798A4204D116E0DB681A798A423F
:10BAF00012D01B68002BF8D1C3681971D5F8103427
:10BB000093B1DA68C36812681A60D5F81034DB683C
:10BB1000186030BC0846704701310A29DFD14FF068
:10BB2000FF31084630BC7047C5F81004C268136086
:10BB3000084630BC704700BFE82D002038B5084BE0
:10BB4000D3F8104401251D704CB1E3685D71236882
:10BB500020465B689847E3681C68002CF5D138BD27
:10BB6000E82D00202DE9F04784B01D460C9C0023F1
:10BB700094F80C802373EB8881460E461746002B01
:10BB800040D1297A05290ED06B7AA88873BB404B27
:10BB900053F821A00021FFF743FC524603463D49DC
:10BBA0002046FEF755FD062F09D8DFE807F0046AA6
:10BBB0004249525D330049462046FEF749FD2B7A43
:10BBC000052B05D06B7A5BB933492046FEF740FD63
:10BBD0002046FEF731FD84F80C8004B0BDE8F08704
:10BBE0002E4A2F492046FEF733FDEDE7FFF744FCD0
:10BBF0002C4B2B4953F820202046FEF729FD297AAB
:10BC0000A888C4E7254A00922749284A2046FEF71B
:10BC10001FFDB6E7D6E90410D6E900230390D6E964
:10BC200002070291CDE9000749462046FEF710FDC4
:10BC3000C5E74946D6E900232046FEF709FDBEE7E1
:10BC4000B168D6E90023204600914946FEF700FD81
:10BC5000B5E7D6E90201D6E90023019100904946F3
:10BC60002046FEF7F5FCAAE7D6E90371B068D6E9ED
:10BC700000230291CDE9000749462046FEF7E8FC83
:10BC80009DE7326849462046FEF7E2FC97E700BF91
:10BC90004C27030040270300103103003427030022
:10BCA0003C270300DC2603001C27030014270300A5
:10BCB000082900D970472DE9F04F1C46174600238C
:10BCC000227B237385B0FB88039206460D46002B2A
:10BCD0007ED1397A05290FD07B7AB888002B6BD1B9
:10BCE0003F4B53F821800021FFF79AFB4246034661
:10BCF0003C492046FEF7ACFCDFF808A1DFF80891CC
:10BD00004FF0000808E016F8082008F10108FEF7D7
:10BD10009FFCB8F1080F0BD0454549462046F2D8A4
:10BD2000514608F10108FEF793FCB8F1080FF3D172
:10BD30002D49DFF8D8A0DFF8D880DFF8D89020466A
:10BD4000FEF786FC4FF0000B0EE012F8091011F020
:10BD5000970F08BF2E22414620460BF1010BFEF73C
:10BD600077FCBBF1080F10D05D4505D916F80B2004
:10BD70007E2AEAD92E22EEE7514620460BF1010B2E
:10BD8000FEF766FCBBF1080FEED13B7A052B01D024
:10BD90007B7A5BB915492046FEF75AFC2046FEF730
:10BDA0004BFC039B237305B0BDE8F08F104A11498B
:10BDB0002046FEF74DFCEDE7FFF75EFB0E4B0D490D
:10BDC00053F820202046FEF743FC397AB88887E7ED
:10BDD000074A009209490A4A2046FEF739FC78E7EB
:10BDE0004C270300402703000C27030010310300F9
:10BDF000342703003C270300DC2603001C27030034
:10BE00001427030008270300002703004827030026
:10BE100010270300853103002DE9F041144B154C28
:10BE2000154FA3EB04085FEAD8084FF001033B70FD
:10BE300018D0124D124B134EED1AED082D0404EBE1
:10BE4000C80845F0030501E0A0450BD02246314665
:10BE50002846FFF7BBFC2368984708340028F3D036
:10BE6000BDE8F08102233B700020BDE8F08100BFF7
:10BE7000243503001C350300A03200205C3403008D
:10BE800034340300B8270300064B1A78022A06D080
:10BE90001878A0F10100B0FA80F040097047012045
:10BEA000704700BFA032002070B56A461A4B9A4214
:10BEB00013D304460D46FFF7E7FF58B1174E33681A
:10BEC00023B1174A174B12689A4223D094B148F213
:10BED000175070BD4FF4054070BD134B1348144903
:10BEE000C01AC008000440F00100FFF7DBFA48F276
:10BEF000195070BD002DEAD10E480F49306001F095
:10BF0000CFFB0028E5D13168054B0C4C054A0C608D
:10BF10001A6070BD002070BD00C00320704B00206F
:10BF20008C3300206572E54B343403005C3403002D
:10BF3000C8270300A4320020903300206169614DBE
:10BF400072DF704773DF704774DF704777DF7047C9
:10BF5000014B01221A707047484E00202DE9F04134
:10BF6000154B164C1649174DE41AE408240444F006
:10BF700003042046FFF796FAFEF75CF82B68124997
:10BF800002462046FFF798FCFEF754F82B68C01ACB
:10BF9000B0F5A03F0DD90D4DDFF83480AF1D002660
:10BFA00005F8016B002241462046FFF70FFCBD4219
:10BFB000F6D1BDE8F08100BF343403005C340300E7
:10BFC000CC290300744B0020E0290300DC50002042
:10BFD000002A0300037833B1022B10B5044603D0C6
:10BFE000012B10D010BD704709480A4B0A49C01AEE
:10BFF000C008000440F00300FFF754FA6068BDE891
:10C000001040FDF77BBD0248024B0449EFE700BF3B
:10C010005C34030034340300102A03001C2A03009C
:10C02000F0B5244E244C307893B0FFF78DFF0025F7
:10C0300059232249ADF800303C221723029103A86E
:10C040002946ADF8043003F04BFA29461822204661
:10C050008DF80C508DF80E50CDF830D003F040FA2A
:10C06000174A65600A214FF4C87C4FF480670423A7
:10C07000217003A852F8041BA581C4F808C0A78248
:10C08000A37500F00DFE90B90B4A0D490948FFF762
:10C0900057FF48B9317808220120FFF757FF08B150
:10C0A000FDF72CFD13B0F0BDFDF728FDF2E7FDF71D
:10C0B00025FDE9E7102900207C4B0020DC50002002
:10C0C0000029002008B5094B01211878FFF73AFF35
:10C0D00040B90220FBF70CFB00B908BDBDE80840E1
:10C0E000FDF70CBDFDF70AFDF3E700BF10290020A6
:10C0F0002DE9F04F354B364D4FF0A04803224FF459
:10C1000000610424C3F80C1581B0C3F82C278146C4
:10C11000C8F80C4545F00105C8F808274FF48070B1
:10C12000C8F87C27C3F80815A8470024BF2703E0F8
:10C13000C8F80C650134A84747FA04F313F0010F5F
:10C140004FF000430CBFC8F80C35C8F80835402044
:10C150000426A8474020C8F80865A847072C4FF0D8
:10C160004000E5D10C23C8F87C37374609F1FF3889
:10C1700009F107094FF0000BDA464FF0A0444020C8
:10C18000C4F80875A847C4F80C654020A847D4F83F
:10C190001035DB0F03FA0BF30BF1010B43EA0A0A2C
:10C1A000BBF1080F5FFA8AFAE9D108F801AFC84578
:10C1B000E0D1064B4FF40062C3F80C254FF48070B9
:10C1C0002B4601B0BDE8F04F184700BF00030050F8
:10C1D00090280300F0B51C4C8BB02046FFF788FF79
:10C1E000237994F806C027786678A578E07803F07C
:10C1F0000F0219090A2313FB01214FEA1C120CF04C
:10C200000F0C13FB02C2643206923A0907F00F07C3
:10C2100013FB0277320906F00F0613FB02662A09A8
:10C2200005F00F0513FB0255020900F00F0013FB88
:10C230000203013901A80591CDE90176CDE9035347
:10C2400003F0A0FA0BB0F0BD205100202DE9F0471B
:10C250005C4A5D4D5D4E5E4C3378AD1AED082D04A1
:10C2600082B08A46814645F003050C4413B97378C1
:10C27000002B51D0574B564F1A685749DFF8A08111
:10C28000BF1A2846FFF7A2FA574422465349544C96
:10C290002846FFF79BFA3A4652492846FFF796FA96
:10C2A000D8F8002050492846FFF790FAD8F8003017
:10C2B00099F80100F118F0224F708A7099F8002067
:10C2C0004A4F120142EA1012CA7099F801204849F7
:10C2D000043302F00F022846F254C8F80030FFF78A
:10C2E000E1F804F12B0614F8012F39462846FFF730
:10C2F0006DFAA642F7D1D8F80030292B09DD3D4B65
:10C300003D49012228461A70FFF7CCF80023C8F8EF
:10C31000003002B0BDE8F087B378002BAAD13749CE
:10C320002C4FDFF8FC802846FFF7BCF85246344912
:10C330002846FFF74BFA334A33492846FFF746FAB7
:10C34000224632493C602846FFF740FA3A6832708C
:10C35000100C140AC3B200932D49B070E3B274708C
:10C36000D2B22846FFF726FBB37870783278294995
:10C37000294F1B0443EA00231A432846FFF726FAF5
:10C38000F023F37099F8013099F8002023491B0934
:10C3900043EA0213337199F80130052203F00F03C9
:10C3A00028467371C8F80020FFF77CF8741E2A36FF
:10C3B00014F8012F39462846FFF708FAB442F7D19E
:10C3C00099E700BF343403005C340300F4500020CC
:10C3D000407F55A0D85000201029030020290300D9
:10C3E000F3500020282903003429030044280300C7
:10C3F0003C290300494E00205429030098280300DB
:10C40000B4280300C080AA5FBC280300C82803002A
:10C41000D4280300EC280300F8280300FC280300BC
:10C42000784B00202DE9F0434F4B504C5049E41A13
:10C43000E4082404064644F003048DB02046FFF7C8
:10C4400031F833881D2B38D1B58C0023002D00F036
:10C4500086801F46306A9C4602E0D3B2AB4217D2B8
:10C460008178592903F10102F7D1C1780029F4D16B
:10C47000032BF2D90CA96144C35C01F8243CD3B26C
:10C480000CF1010CAB425FFA8CFC4FF00107E7D3D3
:10C49000DFF8089106F10B0506F1110815F8012BDC
:10C4A00049462046FFF792F94545F7D196F91B20FA
:10C4B00030492046FFF78AF917B90DB0BDE8F0837F
:10C4C000FDF7B8FD2C4B2D49186002462046FFF7BA
:10C4D0007DF92B492B4FDFF8C8802046FEF7E2FF9D
:10C4E0000425336A5A5D07F8012B01354146204681
:10C4F000FFF76CF9092DF4D1FFF792FD224B0121D2
:10C500001878FFF71FFD60BB0220FBF7F1F808B1B8
:10C51000FDF7F4FA1D4D2B78002BCED020461C4998
:10C52000FEF7C0FFFFF756FE1A4902462046FFF706
:10C530004DF99DF80E109DF80D309DF80C200091DE
:10C5400020461549FFF736FAFFF744FE014603A8D7
:10C55000FFF77CFE00232B700DB0BDE8F0830027B1
:10C5600096E7FDF7CBFACFE7343403005C340300E1
:10C57000FC2703000C280300744B0020182803003C
:10C580002C280300DC50002010290020484E0020F9
:10C5900048280300CC280300742803000428030063
:10C5A0004028030030B5134D134B8BB004AC0093FF
:10C5B0000FCD0FC495E8030084E803000F4C104A28
:10C5C0004FF480750723694604A80195CDE902451B
:10C5D00001F098F908B1FDF791FA0A4B0A480B49A6
:10C5E000C01AC008000440F00300FEF75BFF0BB068
:10C5F00030BD00BFE4270300484D00204C4E002012
:10C60000D5BF0200343403005C3403006429030006
:10C6100010B582B0FFF7C6FF4FF480410020FEF74F
:10C62000EBFE08B1FDF76AFAFEF772FEFDF74CFC6F
:10C6300008B1FDF763FA00210120FBF7F1F908B119
:10C64000FDF75CFAFEF74AFC08B1FDF757FA00F077
:10C6500067F800284AD102AC002344F8043D0120C9
:10C66000214600F07DF900283DD1204600F028FA4F
:10C6700008B1FDF743FA1F4A1F480121FDF75AFC94
:10C6800070BB1E4A1E480121FDF754FC08B1FDF79E
:10C6900035FA00224FF480411A481B4CFDF758FC34
:10C6A00000224FF480311948FDF752FC184B19490C
:10C6B000E41AE408240444F003042046FEF7F2FEE2
:10C6C000FFF7AAFB08B1FDF719FA20461249FEF759
:10C6D000E9FEFFF7A5FCFFF7F5FC002002B010BD56
:10C6E000FDF70CFACDE7FDF709FABEE7FDF706FA0C
:10C6F000B1E700BF51BF0200902903005DBF0200F7
:10C7000094290300D84B00205C340300B84B002070
:10C710003434030098290300B429030010DF704764
:10C720002DE9F0414D4E327884B0002A40F08680E9
:10C730004B4B4C4D4C4F4D49ED1AED082D0445F037
:10C740000405012328463B70FFF740F802A848493A
:10C75000FEF76CFC039CE4B1DFF8388107E0284663
:10C76000FFF734F802A8FEF76BFC039C8CB1D4E908
:10C770000031002098472246034641460028EED16A
:10C7800028463C491C46FFF721F8204604B0BDE886
:10C79000F081002238492846FFF718F8374902A8E7
:10C7A000FEF744FC039B4BB1D3E9002100209047E6
:10C7B00002A8FEF745FC039B002BF5D1304A00236D
:10C7C00012688DF8083002A80192FDF739FC2D4956
:10C7D00001A8FFF7A3FFB0FA80F304465B099DF8B8
:10C7E00008003370FDF752FC002CCED1264B2749B0
:10C7F0001C703C7091F81623EC2352091341DB079F
:10C8000026D5234B9A68F2B94FF480030B60284673
:10C8100001221949FEF7DAFF184902A8FEF706FCC3
:10C82000039B002BB1D0D3E900210120904702A83F
:10C83000FEF706FC039B002BF5D1A6E70824204653
:10C8400004B0BDE8F0811A6842F480021A60DEE7A5
:10C8500042F20200FDF752F9D9E700BF4D4F002028
:10C8600034340300843403004C4F00202C2A03008E
:10C87000A02A0300642A0300882A0300B82A0300C0
:10C88000282A03001D9B02004E4F002000E100E01B
:10C89000CC500020442A0300014B1878704700BF99
:10C8A0004D4F002000B583B068460849FEF7BEFB37
:10C8B000019B43B1D3E9002090476846FEF7C0FBD7
:10C8C000019B002BF6D103B05DF804FBAC2A0300FA
:10C8D00060DF704769DF704761DF70471B4B1B7873
:10C8E000002B31D0F0B51A4B1A4C1B4E1B4DE41ADD
:10C8F000E408240491B044F0040434270DF102014B
:10C9000003A8ADF80270FFF7E7FFB8B9BDF80C2037
:10C9100031462046FEF75AFF01A82946FEF786FB5E
:10C92000029B002BEAD0D3E9002103A8904701A87D
:10C93000FEF786FB029B002BF5D1DFE7052801D02F
:10C94000FDF7DCF811B0F0BD704700BF4F4F00207D
:10C95000343403008C340300802D0300942D030035
:10C96000F0B54D4B4D4CE41AE4082404064685B05E
:10C9700044F0030000296DD00D464949FEF792FDB1
:10C98000484B2B600C22002101A802F0A9FD0127D1
:10C99000062301A92A688DF8046020208DF806700E
:10C9A000ADF80830FFF796FF002859D10C2200217E
:10C9B00001A802F095FD00232A688DF8053001A931
:10C9C00040208DF806308DF80730FFF783FF0028F0
:10C9D00037D10C22002101A802F082FD00232A6831
:10C9E0008DF8043001A90120FFF774FF002849D118
:10C9F0000C22002101A802F073FDF8232A6801939C
:10CA000001A9A120FFF766FF98BB0C22002101A815
:10CA100002F066FD9DF804302A686FF3000301A957
:10CA2000A0208DF80430FFF755FF40B1FEF746FB1C
:10CA30001D49024644F00100FEF7C8FE002005B083
:10CA4000F0BDFEF73BFB1949024644F00100FEF73A
:10CA5000BDFEBEE71649FEF725FD0E2005B0F0BD70
:10CA6000FEF72CFB1349024644EA0700FEF7AEFE30
:10CA70009CE7FEF723FB1049024644F00100FEF755
:10CA8000A5FEC2E7FEF71AFB0C49024644F001007E
:10CA9000FEF79CFEACE700BF343403008C34030087
:10CAA000CC2A0300D8280020082C03001C2B0300EC
:10CAB00098270300D42A0300B42B0300682B03003B
:10CAC0002DE9F04105460668264CFFF701FF264A8E
:10CAD0002B68A41AE408B34207464FEA04441FD95E
