:020000022000DC
:1070000000000420757302005D7302005F730200CC
:1070100061730200637302006573020000000000E8
:107020000000000000000000000000006773020084
:1070300069730200000000006B7302006D730200B0
:107040005D9502006F730200F99902006F730200F0
:107050006F7302006F730200799802006F73020071
:107060006F7302006F7302006F7302006F73020090
:107070006F7302006F7302006F7302006F73020080
:107080006F730200B18602006F7302006F7302001B
:107090006F7302006F730200B5AE02006F730200DF
:1070A0006F7302006F7302006F7302006F73020050
:1070B0006F7302006F730200000000000000000008
:1070C0006F7302006F7302006F7302006F73020030
:1070D0006F7302006F7302006F7302006F73020020
:1070E0006F7302006F7302006F73020000000000F4
:1070F000000000006F730200000000006F730200C8
:10710000000000000000000000000000000000007F
:10711000000000000000000000000000000000006F
:10712000000000000000000000000000000000005F
:10713000000000000000000000000000000000004F
:10714000000000000000000000000000000000003F
:10715000000000000000000000000000000000002F
:10716000000000000000000000000000000000001F
:10717000000000000000000000000000000000000F
:1071800000000000000000000000000000000000FF
:1071900000000000000000000000000000000000EF
:1071A00000000000000000000000000000000000DF
:1071B00000000000000000000000000000000000CF
:1071C00000000000000000000000000000000000BF
:1071D00000000000000000000000000000000000AF
:1071E000000000000000000000000000000000009F
:1071F000000000000000000000000000000000008F
:10720000354936480A1A02D0072291438D4634493F
:1072100034480A1A06D00722914381F309880222D2
:1072200082F3148830483149314A00F044F831483B
:107230003149324A00F03FF831483249324A00F0D1
:107240003AF832483249334A00F035F83248334987
:10725000334A00F030F833483349344A00F02BF811
:1072600033483449344A00F026F83448344900227F
:1072700000F02CF833483449002200F027F8334856
:107280003349091A082902DB002202604160314AB1
:1072900090471F481F49884205D00268043003B454
:1072A000904703BCF7E700208646EC46002000210B
:1072B000294A9047FEE7884207D0521A05D0037842
:1072C00001300B700131013AF9D17047884202D088
:1072D00002700130FAE770470000042000E003204C
:1072E0000000042000000420A8C00200D8180020DC
:1072F00028190020D0730200D0730200EEB3020000
:10730000A8C00200D8180020D8180020A4B4020099
:10731000A4B40200A4B40200A4B40200A4B4020005
:10732000A4B40200A4B40200A4B40200A6C00200E7
:10733000F8C0020028190020281900202819002070
:10734000DB210020DC210020DC210020DC210020CA
:10735000DC4100209D73020095A70200FEE7FEE7D6
:10736000FEE7FEE7FEE7FEE7FEE7FEE7FEE7FEE7F5
:1073700000F002B8FFF7FCBF0F484FF00701884349
:1073800085460E4880470E48016841F4700101604F
:10739000BFF34F8FBFF36F8FFFF732BF09480A4922
:1073A0000A4A884207D0521A05D0037801300B7080
:1073B0000131013AF9D1704700000420A98F020081
:1073C00088ED00E0A4B40200D8180020D8180020EE
:1073D000F0B595B01D46164608460C4601F0F2FC85
:1073E0001A9B0D93CDE9086500252B46082205A9B7
:1073F00020460A958DF82C500C9501F000FD079B56
:107400000293069B03939DF814308DF8115003F0FE
:107410000302012A1DD1BDF81420059DC3F3C20348
:10742000C2F383168DF81030B20008230EA920464F
:1074300001F0E5FCC5F3952508AB0093324602AB9D
:107440000EA9284600F0AAFB204601F0BFFC15B0AB
:10745000F0BD022AF8D1BDF81650C3F3C203C5F33C
:1074600089158DF810300827082D2E4628BF0826CC
:107470003B4632460EA9204601F0C1FCAD1B08ABCD
:1074800002AA31460EA8374400F0ECFB002DEBD1E8
:10749000DAE70000014B01221A70704769190020D9
:1074A0007047000070B5124D06460FCD88B06C468F
:1074B0000FC495E80F00002E84E80F004FF0FF3353
:1074C0004FF00602CDE90023CDE90233094A0A480C
:1074D0004FF0EB7308BF00226946069301F0C4FF2A
:1074E00008B100F087FD054B1E7008B070BD00BFED
:1074F000A4B4020095740200D818002028190020B6
:1075000007B5044B0093044A4023FFF761FF03B023
:107510005DF804FB1D7502002919002038B50D4BDC
:107520000D4D002018700D4804782D5DD2B21C4618
:1075300065B1043002F00AFF08B100F05BFD084BB2
:107540001A7812B12378002BFBD038BD0C3002F032
:10755000A1FCF1E76919002020200020D8180020A4
:107560002819002008B50848084A0378D35C3BB1C5
:10757000043002F067FEBDE808400020FFF792BF2C
:107580000C3002F02BFCF6E7D81800202020002059
:107590000120FFF787BF000008B5FFF7F9FF044897
:1075A000042100F065FA034B01225A7108BD00BFA7
:1075B00094B40200EC180020037813F0040216D0F3
:1075C00003F00303012B03D0022B09D001207047E5
:1075D0000A6800880232C0F3831002440A60F5E7AB
:1075E0000B684288023303EB92130B60EEE7104600
:1075F000704700002DE9F04F87B000230446861C39
:107600000DF107000F4615468DF8073000F0E2FE39
:10761000404A51683960936803F580735B1A92465B
:1076200002F21C4702F5836902F21448B3421AD3EE
:107630000020002D69D004F00F039B0143F00503E7
:1076400063F30F00DAF80430DAB203321E444AF86A
:1076500022009DF80700CAF8046000F0DFFE012058
:1076600007B0BDE8F08F0121384601F0D6F8484652
:1076700001F0EBF8404601F0E8F8DAF80800029073
:10768000C0B203300AEB800002A9FFF795FF029B0E
:1076900030BBDAB20AEB8202D16803919A1C013343
:1076A000DBB20AEB83030292D3F80CB001F00303C0
:1076B000012B22D0022B15D08346404601F0C8F89A
:1076C00010B1029BCAF808305946384601F0A5F8B7
:1076D000DAF80830DAF8042003F580739B1AA5E77E
:1076E000D8B2CEE7BDF80E30C3F3891303334FEAA7
:1076F0001B4B02EB93030293DFE7BDF80C30C3F39F
:1077000083134FEA1B4B1344F5E7A40544F006002E
:1077100098E700BF3C1A0020064B074810B500222E
:107720001A7001F008FB044610B9044801F0B0FBE0
:10773000204610BD3C1A002010B40200F8B402002C
:1077400030B50A4C71B10A4A0A49121BD20800230B
:107750009A4201D1002030BD31F82350854202D039
:107760000133F5E7034654F83300F4E724B402008C
:1077700094B40200D8180020094B013903EBC00073
:10778000032909D8DFE801F00A0204060420704743
:107790000079704740797047002070470220704799
:1077A00024B40200034BD3E90130C31A58425841B4
:1077B000704700BF3C1A00202DE9F04186B0FFF76A
:1077C000F1FF0546002840F0E680744CC4F8180428
:1077D000BFF34F8FA3680293DBB2033304EB830044
:1077E00002A9FFF7E9FE029B18B1D4F81824002A79
:1077F00055D0DAB2991C013304EB8202DBB204EB00
:107800008303D268DB68049302F00303022B039224
:1078100002914FD1BDF80E306148C3F38917502F44
:107820003E4628BF502666F38F1306F10801ADF8D7
:107830000E3001F098FA0546002800F0978001F01C
:10784000C1FA002303A90822284601F0CEFA0299C2
:10785000CB43DBB20133C9B20331B6EB830F4FEA3E
:10786000830804EB810122D908234246A6EB0806CF
:10787000284601F0BAFAF6B24A4908F1080332463E
:10788000284601F0B2FA029B033703EB97070297F1
:10789000D4F81834002B41D1D4F8106451E0626858
:1078A0009A4299D8A260284606B0BDE8F081082324
:1078B0003246E5E7012B59D1BDF80C303848C3F307
:1078C0008311062928BF062161F38913023189003B
:1078D000ADF80C3001F047FA0546002846D001F01B
:1078E00071FA0023082203A9284601F07EFA002637
:1078F000BDF80C20C2F38312B300964203F10803D3
:10790000C6D202994A1CC9B20331029204EB81012A
:107910000422284601F069FA0136E9E7284601F019
:1079200055FAFFF73FFF80F00100C5B2BBE7F368EF
:107930005B7923B1336829461B6830469847F36862
:107940001E68002EF3D1284601F040FA0DF1070021
:107950008DF8076000F03EFDD4F818340BB9029B97
:10796000A3609DF8070000F059FDDAE7D4F8104451
:1079700054B90D4B0D480E49C01AC008000440F020
:10798000020000F05DF8CCE7236820469B6898472A
:10799000E3681C68ECE7002585E700BF3C1A00207F
:1079A00010B40200481A002024B402004CB40200B3
:1079B000E1B402002DE9F34704460E46924601A9C0
:1079C000012218469946FFF715FE1B4F10B3019D83
:1079D0004FF00008AA1CC84508EB020123D1174844
:1079E000002100F0F7FE80F31000000440EA14408C
:1079F000E4006B1C04F03804DBB2EDB244F0010487
:107A000007EB8303033544EA881444EA8624D860EC
:107A100047F825403B781BB1FFF7CEFE0028FBD18D
:107A200002B0BDE8F087C9B207EB81015AF82830EF
:107A3000CB6008F10108CEE73C1A0020581E002058
:107A400000231A46FFF7B6BF07B50123019201AA2A
:107A5000FFF7B0FF03B05DF804FB07B5CDE90023E5
:107A600002236A46FFF7A6FF03B05DF804FB00009F
:107A700030B50F49D1F8102403460020144634B91C
:107A8000DC6820714AB9C1F81034226030BDE46866
:107A90002579854206D02468F1E7D2681168216013
:107AA0001360F3E701300A28E8D14FF0FF30EDE72B
:107AB0003C1A0020084A38B50123D2F8104413704C
:107AC0001D4604B938BDE3685D71236820465B68D4
:107AD0009847E3681C68F4E73C1A002007B50346A2
:107AE0000846197A052911D05B7A2BB1094A0A494F
:107AF000019000F010FF01980849019000F00BFF81
:107B0000019803B05DF804EB00F0FABE002AF8D04B
:107B1000F2E700BF04B5020009B5020029B5020072
:107B200030B5C38885B004460D4633B1144A00927F
:107B30001449154A284600F0EEFE217A05291DD089
:107B4000637A4BB1A088FFF717FE104B104953F82A
:107B50002020284600F0DFFE227A0E4BA08853F842
:107B6000222003920021FFF7EBFD039A0A49034606
:107B7000284605B0BDE8304000F0CDBE05B030BDB0
:107B800004B5020014B502000CB5020090B5020065
:107B900009B50200B4B502002CB502002DE9F0438E
:107BA00085B01F460C9D002395F80C902B7306465C
:107BB0000C46904629463846FFF7B2FFB8F1060F4B
:107BC00009D8DFE808F00412181F283340003146B6
:107BD000284600F0A0FE002229463846FFF77EFF27
:107BE00085F80C9005B0BDE8F08322683146284640
:107BF00000F091FEEFE7D4E900233146284600F07B
:107C00008AFEE8E7A36800933146D4E900232846BA
:107C100000F081FEDFE7E3680193A368009331463B
:107C2000D4E90023284600F076FED4E723690293C6
:107C3000E3680193A36800933146D4E90023284602
:107C400000F069FEC7E76369039323690293E36861
:107C50000193A36800933146D4E90023284600F03D
:107C60005AFEB8E708292DE9F74F80460E46174619
:107C70001C463CD8002593F80C901D7319461046FD
:107C8000FFF74EFFDFF888A0DFF888B0AE4231D9A9
:107C900018F805205946204600F03DFE0135082D14
:107CA000F4D11949194DDFF870A0204600F033FED9
:107CB0004FF0000B5E4522D918F80B207E2A05D81C
:107CC0001046019203F002FB019A00B92E225146A0
:107CD000204600F020FE0BF1010BBBF1080FE9D1AB
:107CE000012221463846FFF7F9FE84F80C9003B0D4
:107CF000BDE8F08F5146204600F00DFECEE7294644
:107D0000204600F008FEE6E740B502003EB502005E
:107D10003CB5020036B5020042B50200C30710B5FB
:107D200007D4F023054A4008145C2340194311543A
:107D300010BD0901C9B20F23F4E700BF281F0020BE
:107D400030B5094B1C78094B196800239C4202DCB2
:107D50000022104630BD11F83350854201EBC302BA
:107D6000F7D00133F2E700BFF41E0020481F0020C7
:107D700013B504460191FFF7E3FF38B143682BB117
:107D80000199204602B0BDE81040184702B010BD6E
:107D9000034B044819680022490800F02ABA00BFC2
:107DA000F81E0020001F002010B5C0B2FFF7C8FF6A
:107DB0000446007801F052FD63785A1E5342534145
:107DC000834208D1044BD3E90023134303D1BDE818
:107DD0001040FFF7DDBF10BD201F002037B543085E
:107DE000354AD35CC2074CBF1B0903F00F0304469E
:107DF0000D46042B35D8DFE803F003252C383C0072
:107E000079B30121FFF78AFF00230DF107008DF8F8
:107E1000073000F0DFFA0120A4F12003C4F12001B3
:107E2000264A20FA01F100FA03F30B43A040D2E9FD
:107E3000004120430B43C2E900039DF8070000F016
:107E4000EDFA0EE0002918BF02212046FFF766FF79
:107E500007E041B10321FFF761FF01212046FFF751
:107E600087FF03B030BD0121EFE70029F9D10421DC
:107E7000EBE709B10321E8E7FFF750FF2946204669
:107E8000FFF776FF0DF107008DF8075000F0A2FA1A
:107E90000120A4F12003C4F12001084A20FA01F1D5
:107EA00000FA03F30B43A040D2E9004124EA0000AA
:107EB00021EA0303BFE700BF281F0020201F002086
:107EC0002DE9F041124E134F00243378A34208DC11
:107ED000114BD3E90023134318D0BDE8F041FFF75D
:107EE00057BF3D6805EBC40815F8340001F0B6FC37
:107EF00098F801305A1E53425341181A41424141E9
:107F000015F83400FFF76AFF0134DEE7BDE8F081C1
:107F1000F41E0020481F0020201F0020092AF7B56A
:107F200005460C4616463CD901F0C8FBD8B11E4B9D
:107F30001E481D601E4B1F4F1C701F4B002120222E
:107F40001E6003F0F1F91D4B00200021C3E9000180
:107F5000013CE4B20326FF2C0BD1194A1948002139
:107F600000F03CF903E001F063FB0028DFD003B030
:107F7000F0BD9DF8063015F834008DF8046005EB6F
:107F8000C40223F007038DF8063001A993788DF819
:107F900005303A4601F09CFB013CE4B20028DAD0FF
:107FA000E5E70720E3E700BF481F0020281F002067
:107FB000F41E0020A97D0200F81E0020201F0020D2
:107FC000C17E0200D4B5020070B5084D084E0024F1
:107FD0002B789C4201D3002070BD3368012113F837
:107FE000340001F0F1FB0134F2E700BFF41E002081
:107FF000481F00201FB50021039001AA44F2010090
:10800000CDE9011100F004F805B05DF804FB0000B3
:1080100010B572B6FFF74EFDFFF7CEFB0028FBD17F
:10802000104B114C1149E41AE408240444F00100F7
:10803000FFF706FD0E4B1B68DB0700D500BE0D49A0
:1080400044F00200FFF7FCFCBFF34F8F0A490B4BD3
:10805000CA6802F4E0621343CB60BFF34F8F00BFE6
:10806000FDE700BF24B402004CB40200D8B5020002
:10807000F0ED00E0E4B5020000ED00E00400FA05D8
:10808000D0E90223D1E90201994208BF90422CBFF6
:10809000012000207047000008B50B4800F0F1FAFD
:1080A0000A4B0B49D3E900231218D1E9000143F12F
:1080B00000038B4208BF824203D212F1807243F167
:1080C00000031046194608BDF4180020501F002078
:1080D000C81F002037B505460C460A4801A900F024
:1080E00004FB60B10570446001A9064800F027FB5D
:1080F00018B1054800F0CAFA002003B030BD0420D2
:10810000FBE700BFB41F0020F418002038B5184B5F
:108110001B78044613B90025284638BD0028FAD03C
:10812000037F03F0FF05002BF5D0FFF7B5FFD4E97F
:108130000223994208BF904214D3236903B92377DD
:10814000D4E90530984721690029E4D0237F03F062
:10815000FF05002BDFD0D4E90223521843F10003BE
:10816000C4E902230348214600F0B1FED4E700BF72
:10817000581F002000B6020013B5114B11491868B2
:10818000019008231048582200F09CFA044698B940
:108190000E4A0F4801A900F065F9044660B90C4881
:1081A000012100F051FA01230A4A0948194600F05A
:1081B000B3F9094B01221A70204602B010BD00BF6E
:1081C000FCB502005C1F0020B41F00203D820200AD
:1081D000F4180020FFFF7F00581F00203AB1036809
:1081E0005A614A1E514251411961002070470720CF
:1081F000704738B5037F04460D4683B98261FFF7A7
:108200004BFF2369401941F10001C4E9020103B1A8
:10821000256121460020BDE83840FFF75BBF002004
:1082200038BD0023014603770120FFF753BF00004C
:10823000014800F026BA00BFF41800202DE9F04FE5
:1082400085B0804600F008FA40B15A4AD2E90031C0
:1082500013F1807341F10001C2E900310021404671
:1082600000F009FA38B1544E336823B13068FFF793
:108270004DFF002333600121404600F0FCF920B19E
:10828000FFF70AFF4D4BC3E900014D484A4F4D4EE1
:10829000DFF8389103A900F062FA002845D1DFF831
:1082A0002491454EDFF828A1484600F026FE3368A9
:1082B000002875D07BB13368D0E90201D3E90223ED
:1082C000994208BF90422DD233681B7F1BB13168A1
:1082D000484600F0FCFD484600F009FED0E902B334
:1082E00007460193FFF7D8FE019BBBEB000463EB4D
:1082F0000105012C75F1000345DBB4F5350F40D3C2
:10830000FFF796FF304A02444FF49603002150468F
:1083100000F022F900283ED1336813B9404600F03E
:10832000F3F8376005B0BDE8F08F0378012B1DD05E
:10833000022B09D14FF0000A304600F0D8FD00288A
:1083400034D080F81CA0F7E73BB941680B7F23B914
:1083500001230B77304600F0BAFD03A9184800F05E
:1083600029FA03A9164800F0FAF996E741683B6834
:10837000994202D100233B60EFE7304600F0C0FD98
:10838000EBE7BA68C0E70021504600F06AF93846CA
:10839000FFF7BCFE01E00D28F9D00023336083E72E
:1083A000002BBFD1404600F0B3F8BBE7012389F8AA
:1083B0000030D2E7501F0020D01F0020C81F00202F
:1083C000B41F002000B60200FFFFB400581F0020B9
:1083D000F418002070B5EFF3108672B60C4A94685A
:1083E00001239CB993600B4B0B4DD3F880102940AF
:1083F0001160C3F88050D3F8841051604FF0FF3201
:10840000C3F88420047006B962B670BD0370FAE741
:10841000D41F002000E100E0FC06FFBD084B9A6875
:1084200010B55AB150B9EFF3108172B6054A1C6805
:1084300014605C685460986001B962B610BD00BFFA
:10844000D41F002000E100E0435882B03BB100237C
:10845000435043580193019B012002B070471846D6
:10846000FBE70000F8B5204B4479204D43F8242069
:108470001F4A204B05EBC4049B1A2279DB081B041E
:1084800032B143F002001C49FFF7DAFA0820F8BDC8
:1084900002680C88C2F8084590F904608A7804796B
:1084A0005201002ED2B219DB14498F1987F800232C
:1084B0000122760904F01F0402FA04F441F8264070
:1084C000427905EBC201012445F832000C7143F0FA
:1084D00003000B49FFF7B4FA0020D8E7094904F07C
:1084E0000F040A55ECE700BFE81F0020E01F002042
:1084F00024B402005CB402000CB6020000E100E00B
:108500002EB6020014ED00E0036801221A607047E5
:10851000036801225A60704773B501F15005AD0040
:108520000068ADB24FF480348C400026C0F8084398
:10853000C0F84843465101F5A8714559019522F00C
:108540007F42019D40F82120C0F844430BB1C0F8A0
:10855000044302B070BD00002DE9F74F0D4622F034
:108560007F4402684FF4803705F150068F40804603
:10857000B60002EB8500C2F84873B6B2C2F80873C1
:10858000D2F8041599464FF0000BD0F84035C0F8EA
:10859000401542F806B05B1A9259009223F07F43CF
:1085A000012B009A4FEA850A0CD1264B4FF48060CC
:1085B00043F001039847D8F8003043F806B09B59C0
:1085C0000193019BD8F80010D1F80465C1F84473F9
:1085D000A31B23F07F43012B1CD11A4B05F5A87573
:1085E000013443F0010341F825404FF4806098477F
:1085F000D8F80030D3F804359E4209D1D8F80030BD
:108600000020C3F84473C3F8047303B0BDE8F08FCF
:108610000D20FAE78A44C9F1FF13CAF84045D1F8A2
:108620000405221A013A22F07F4203F57F43934268
:10863000EED3002AE2D10134CAF84045D1F804351E
:108640009842DAE740B6020003680222C3F84423E6
:1086500009B1C3F80423704700684FF48271FFF733
:10866000F3BE4FF4803303FA01F10368C3F84813F3
:10867000C3F80813704750318900006889B2FFF7CA
:10868000E3BE0368D3F804057047000090F9043096
:10869000002B09DB5A09012103F01F0301FA03F340
:1086A0004032024941F82230704700BF00E100E04B
:1086B000024B034A1B681068184700BFE81F0020E0
:1086C000E01F002010B561B1B2FBF3F403FB1424EA
:1086D000A4B244B9C0E9001484608281C3812046F9
:1086E00010BD0E20FCE70920FAE737B550E8013F3E
:1086F0009DB2C48925448489A54228BF2D1B0489C5
:10870000A54202BFBFF32F8F002207E0C5EA030591
:1087100040E80154002CE9D14FF001028DF803200C
:108720000193019B9DF803200B6002F0FF0322B12F
:108730000B880068184403B030BD1846FBE70A8870
:108740004B889A4209D150E8012FC2EA024240E820
:108750000123002BF7D1012070470020704737B567
:1087600050E8023F1FFAA3F5C488A54202BFBFF339
:108770002F8F00220DE0C48925448489A54228BF9B
:108780002D1BC3EA054540E80254002CE8D14FF008
:1087900001028DF803200193019B9DF803200B60DB
:1087A00002F0FF0322B14B880068184403B030BDCB
:1087B0001846FBE70A884B889A4209D150E8022FF5
:1087C000C2EA224240E80223002BF7D10120704781
:1087D0000020704710B5034653E8000F0A4643E8EF
:1087E000002494F0000FF7D110BD10B5034653E8F4
:1087F000002F42EA010043E8000494F0000FF6D194
:1088000010BD10B5034653E8000F00EA010243E82B
:10881000002494F0000FF6D110BD10B5034653E8C4
:10882000002F02EB010043E8000494F0000FF6D1A2
:1088300010BD10B5034653E8002FA2EB010043E83A
:10884000000494F0000FF6D110BD0121FFF7CDBF59
:108850000021FFF7D6BF10B590B1D0E90123016820
:108860009B1ADBB20A60013BDBB2FF2B026802D12C
:108870000020107110BD11684C1C14600B70F2E7E1
:108880000E20F7E737B5054600240DF107008DF8F7
:108890000740FFF79FFD2A686B68116899420ED95F
:1088A000481E106011F8014CEB68298A01FB043462
:1088B000AB6811791B1ADBB2994238BF13719DF86E
:1088C0000700FFF7ABFD204603B030BD37B50546C6
:1088D00000230DF107000C468DF80730FFF77AFDF5
:1088E0002A681368591C1160E968641A298AB4FB64
:1088F000F1F41C709DF80700FFF790FD03B030BD48
:10890000826810B504462AB1436901680069984736
:108910000023A36010BD0EB403B5039921B104ABCD
:1089200001AA019300F076F802B05DF804EB03B001
:1089300070470A2938B504460D4602D10D21FFF7CC
:10894000F8FFA3682268591CA160D554D4E901320C
:108950009A4204D32046BDE83840FFF7D1BF38BD66
:108960002DE9F84F9846DDE90A43154682460F4641
:108970000A464FF00109AA420FD2C14538BFC1468D
:1089800013F0010B01D16CB900240126B8F1010FDD
:108990001BD908F1FF386E43F8E709F10109B2FB72
:1089A000F5F2E8E79B070ED5B8F1000F0CBF3026B3
:1089B0002026A145E9D2013C31465046FFF7B9FFD8
:1089C000002CF6D1E0E72026F3E7B7FBF6F39D4253
:1089D000E1D9DFF83C80B7FBF6F3504618F80310F6
:1089E00006FB1377FFF7A5FF3346AB42B6FBF5F660
:1089F000F1D2BBF1000F02D00CB1A14501D3BDE80B
:108A0000F88F20215046013CFFF793FFF4E700BFA9
:108A100046B602002DE9F74F05461746884600295D
:108A200000F0428118F8011B49B92B7B002B00F0A4
:108A30003B81284603B0BDE8F04FFFF761BF252911
:108A400040F0B780002698F800302D2B424608F100
:108A5000010823D0302B24D02B2B25D000242A2B07
:108A600002F1010123D13B681A1D1B683A601C44C6
:108A70000A4613782E2B26D101324FF0000A1046F9
:108A800010F8011BA1F1300CBCF1090F1DD80A230D
:108A900003FB0A13A3F1300A0246F0E746F0010691
:108AA000D1E746F00206CEE746F00406CBE711F820
:108AB000013CA3F130000928DBD80A2202FB043470
:108AC000303C0A46CBE74FF0000A12F8011B01F0D8
:108AD000FB0068289046F8D0782909D86F290CD86F
:108AE000632962D022D8252963D0582900F08880D4
:108AF00098F80030002B95D197E770390829F7D8FE
:108B000001A353F821F000BF838C0200F18A020018
:108B1000F18A0200118C0200F18A0200EF8B020040
:108B2000F18A0200F18A0200018C0200642901D05E
:108B30006929DDD13A68D2F80090111D89EAE972FD
:108B40003960A2EBE9724FF0010B092A35DCD345FD
:108B500038BFD3462CB1B9F1000F01DB720700D545
:108B6000013CB30702D5BAF1000F03D0F00701D4DE
:108B70004CBB0024B9F1000F2DDAC9F100092D21F9
:108B80002846FFF7D6FE06F00302022A04D1BAF106
:108B9000000F01D11CBB0024CDE9004653460A2238
:108BA00049462846FFF7DCFEA2E73B681A1D197804
:108BB0003A602846FFF7BDFE9AE70A230BF1010B46
:108BC000B2FBF3F2C1E7A345D4D220212846013CF1
:108BD000FFF7AFFECCE77107D5D52B21D0E7A34532
:108BE000DAD230212846013CFFF7A3FED2E73968EC
:108BF000CDE900460A1D3A6053460A220968D0E7CB
:108C000039680A1D3A60CDE9004653461022F5E75F
:108C10003B681A1D3A6016F00106D3F8009028D17F
:108C2000B9F1000F03D0484602F0B1FB0646B4424A
:108C300000D904BB09F1FF3919F8011F00293FF4DD
:108C400057AF2846FFF775FEF6E728460136FFF7CF
:108C500070FE19F806100029F7D1A642BFF448AFFC
:108C6000002C3FF445AF20212846013CFFF761FE70
:108C7000F3E70026EDE720212846013CFFF759FEE7
:108C8000D5E73B681A1D3A60302128461C68FFF77B
:108C900050FE78212846FFF74CFE00220823CDE93C
:108CA0000032214610227CE703B0BDE8F08F00BF00
:108CB0002DE9F84FB0F806A04579D2F800B09DF83C
:108CC00028900AFB05F5043D88460BEB0301A942F9
:108CD00003F1040488BFA5EB030BB4FBFAF60746C7
:108CE0000AFB1644C2F800B04EB9AAEB04055D4574
:108CF00028BF5D46BBF1000F04D1BDE8F88F3F6887
:108D0000013EF1E7043408EB06003C442A46B9F181
:108D1000000F0DD02146ABEB050B02F0DCFADA4573
:108D20002E443F6855464FF0000428BF5D46E1E7FA
:108D300001462046EFE7FFF78EBDF8B546790146BC
:108D4000721E0546002393422D6803D30024A642D9
:108D500002D8F8BD0133F6E70F682846FFF7B6FDE5
:108D600001343946F3E72DE9F843068ACD1C07465E
:108D7000FFF788FD043E35440446B5FBF6F5F0B137
:108D80004FF48073EDB28380C680013D0760814659
:108D90004FF00008A84512D23846FFF773FD06468B
:108DA00048B163790133637108F10108C9F8000023
:108DB00007608146EEE72046FFF7BFFF34462046B6
:108DC000BDE8F88301210430FFF727BD10B501216C
:108DD00004460430FFF72DFD10F0FF0F04D12046AC
:108DE000BDE81040FFF7A9BF10BD1FB503920022D8
:108DF000009203AAFFF75CFF05B05DF804FB1FB506
:108E000003920122009203AAFFF752FF05B05DF81A
:108E100004FB41DF70470000064B10B500241C70B6
:108E2000054B1C60BFF35F8F0449054800F039F81B
:108E3000204610BDF41F0020F81F002060B602007D
:108E4000EC1F002007B500230DF107008DF8073057
:108E5000FFF7C0FAF1EE103A23F09F03E1EE103A6B
:108E6000BFF35F8F094B4022C3F884219DF80700B0
:108E7000FFF7D4FA02F004F820B1FFF7CAFF03B0FD
:108E80005DF804FB20BF40BF20BFF8E700E100E031
:108E9000836800225A60C3E904229A60DA601A608B
:108EA00070470B684A684360934208BF0023016023
:108EB00008BF43607047436843B1026891685268D5
:108EC0000B449342436004BF00234360704770B576
:108ED000446806460D46206818B1B368294698478D
:108EE00018B923682B60256070BD2468F3E74368D8
:108EF000186808B102681A607047436818687047BC
:108F00004368186800B97047884203D102681A6044
:108F10000120704703460068F4E7000010B50D49D2
:108F2000A1F59472914201D800200FE08C1AE30F52
:108F300003EBE4035B1002EBC30452F833308342CB
:108F400005D802D204F10802ECE7606810BD2146A2
:108F5000E8E700BF6CBB020008B5FFF7DFFF024B7C
:108F6000002808BF184608BD2FBA0200034B186836
:108F7000A0F1080358425841704700BF300100106B
:108F8000064B1B68082B06D1054B1B68032B02D828
:108F9000044AD05C70470020704700BF30010010C9
:108FA000340100106CBB020008B5FFF7DFFF40B1D1
:108FB0004FF080430022C3F80C21C3F81021C3F8FE
:108FC0003825FFF7D3FF002846D04FF080525E4B84
:108FD000D2F80414C3F82015D2F80814C3F82415E5
:108FE000D2F80C14C3F82815D2F81014C3F82C15B5
:108FF000D2F81414C3F83015D2F81814C3F8341585
:10900000D2F81C14C3F84015D2F82014C3F8441544
:10901000D2F82414C3F84815D2F82814C3F84C1514
:10902000D2F82C14C3F85015D2F83014C3F85415E4
:10903000D2F83414C3F86015D2F83814C3F86415A4
:10904000D2F83C14C3F86815D2F84014C3F86C1574
:10905000D2F84424C3F87025FFF792FF10B13B4BC0
:109060003B4A1A60FFF78CFF18B13A4BFB22C3F85A
:109070001825FFF785FF48B13749384B0A681B6848
:1090800022F00F0203F00F0313430B60FFF778FF8A
:1090900018B1334B4FF400721A60FFF767FF48B105
:1090A0004FF08043D3F80024D20744BF6FF0010291
:1090B000C3F800242B4AD2F8883043F47003C2F876
:1090C0008830BFF34F8FBFF36F8F4FF01023D3F86B
:1090D0000022002A03DBD3F80432002B2FDA224BC4
:1090E0000122C3F80425D3F80024002AFBD04FF056
:1090F00010221221C2F80012D3F80024002AFBD05B
:109100004FF010231222C3F80422174B1A46D3F84B
:1091100000140029FBD00021C3F80415D2F8003454
:10912000002BFBD0BFF34F8F0E49104BCA6802F4DF
:10913000E0621343CB60BFF34F8F00BFFDE70C4BE2
:109140000C4A1A6008BD00BF00C000408C560040A9
:109150004881030000F00040E40E00405802001077
:109160004096024000ED00E000E001400400FA05F6
:10917000FC1800200090D003074B1B5C1F2B8ABFFC
:10918000064A4FF0A04203F01F03D2F80405D8406E
:10919000C04300F00100704770BB020000030050A4
:1091A000074B1B5C1F2B86BF064903F01F034FF0C4
:1091B000A041012202FA03F3C1F80C35704700BF49
:1091C00070BB020000030050074B1B5C1F2B86BFC7
:1091D000064903F01F034FF0A041012202FA03F3F6
:1091E000C1F80835704700BF70BB02000003005093
:1091F00008B50020FFF7E8FF0120FFF7E5FF022098
:10920000FFF7E2FFBDE808400320FFF7DDBF08B528
:109210000020FFF7C5FF0120FFF7C2FF0220FFF784
:10922000BFFFBDE808400320FFF7BABF0A4B185C38
:109230001F288ABF094B4FF0A04300F01F00D3F84E
:1092400004250121814021EA02000A40C3F80805F3
:10925000C3F80C25704700BF70BB0200000300502C
:109260000B2809D00C2809D0182809D019280CBFC0
:1092700003204FF0FF3070470020704701207047F7
:1092800002207047C20710B504460CD54FF0A0432A
:109290000322C3F83427C3F83827C3F83C27C3F8A0
:1092A0004027FFF7A5FFA3070AD54FF0A0430C22E4
:1092B000C3F82C27C3F83027C3F86027C3F8642706
:1092C00010BD000038B5074C051E04F1080318BF97
:1092D0001C4623682BB11A6822605B6828469847B1
:1092E000F7E738BD0420002020B9054B01225A7051
:1092F000FFF7E8BF012802D1014A9070F8E77047F4
:10930000FC1F002020B9034B01225A70FFF7DABF7F
:10931000704700BFFC1F002038B50E4C2378B3B94E
:109320000D486360A3602361E36000F0E5F8054643
:1093300001F0A6FD08B900F0EBF801232370074BFC
:10934000D3F800340BB10123A370284638BD85251E
:10935000F5E700BFFC1F0020E99202000000014079
:1093600037B50D4C00230DF107008DF80730FFF7DE
:1093700031F8E368013BE360E36833B9074BD3F8A6
:10938000005415B900F0D6F8A5709DF80700FFF756
:1093900045F803B030BD00BFFC1F002000000140B5
:1093A000012813B50CD0032820D038B9124B012264
:1093B000C3F88020BFF34F8FBFF36F8F02B010BD93
:1093C0000E4C00230DF107008DF80730FFF702F86F
:1093D00023780BB9FFF7A0FFE3689DF8070001337E
:1093E000E3600123A370FFF719F8E7E700F090F8B6
:1093F000FFF7B6FFE2E700BF00E100E0FC1F00203E
:109400001FB503788DF800304368019383688DF8A9
:109410000830C368054A0393054B684653F821306A
:1094200052F82110984705B05DF804FB1020002089
:10943000182000201FB503788DF800304368019391
:1094400083688DF80830C368054A0393054B684666
:1094500053F8213052F82110984705B05DF804FB0D
:109460001020002018200020F0B5194B90F800C003
:10947000DFF86CE043F82C20164B16460A6943F8D7
:109480002C204B7F0EF80C300C4607460FCC89B0D1
:109490006D460FC594E80F0085E80F001EF80C30EC
:1094A000CDF810C04BB1002E0B4A694608BF3246BA
:1094B000381D00F0E9FD09B0F0BD002E074A6946ED
:1094C00008BF324607F10C0000F0B6FBF3E700BF1F
:1094D0001820002010200020019402003594020082
:1094E0002020002000F18040002382B00360036848
:1094F0000193019B02B07047044A137923B90121FB
:109500001060918018467047852070472420002005
:10951000074B1A68D20704D4C02283F80023012223
:109520001A604FF080430122C3F81825704700BF2E
:1095300000E100E04FF0804208B50223C2F8083392
:109540004FF48270FFF7CEFF034B01211960D2F870
:109550001834DB03FBD408BD0C000040124B1B6821
:1095600010B573B14FF48070FFF7BCFF4FF080432C
:109570000122C3F808230D4B587910B95A711B68A2
:1095800098470B4B1B6873B14FF48270FFF7AAFF2B
:109590004FF080430222C3F80823044BBDE810407B
:1095A0001B680120184710BD000100402420002046
:1095B0000401004000F1804000F5C040002382B06B
:1095C000036003680193019B02B0704703681F2B7F
:1095D00083BF03F01F03036001484FF0A0407047B2
:1095E0000003005007B5019001A8FFF7EFFF019BB2
:1095F00000EB8300D0F8003723F44033C0F8003785
:10960000D0F8003743EA0141C0F8001703B05DF815
:1096100004FB0000054B4FF0FF32072843F82020E1
:1096200084BFC01880F85820704700BF2C2000204D
:1096300038B51E4C94F86A30ABBB4FF6FF71FF2073
:109640005A09012A14BF4FF0FF320A4603F01F05E2
:10965000EA40D20748BFE21803F1010348BF82F88D
:109660003000302BECD10021C8B2FFF7D3FF01311D
:109670000C29F9D1062200210D4801F055FE0D4BB1
:10968000C02283F8062340221A604FF4BE70FFF711
:1096900091FF094B4FF00042C3F80423012384F8E3
:1096A0006A30002038BD0820FCE700BF2C200020D5
:1096B0009020002000E100E000600040034B93F8A0
:1096C0006A00003818BF0120704700BF2C2000201E
:1096D000F7B53B4E3318054693F93030002B6CDA62
:1096E0008B78C3F34003002B0BBF082400240C200D
:1096F0000820844202D1042003B0F0BD56F8247043
:10970000013743D1701946F8242080F8304013B94E
:10971000331983F858508B785A0717D4D80737D5A0
:1097200001A80195FFF752FF019B00EB8300D0F8E1
:10973000003723F00203C0F800372248EA0805F09A
:1097400007070123BB40875C3B4383548B780A782F
:1097500013F0020328D0A40004F1804404F5C044AF
:109760002D02D4F8103523F44F3323F44073C4F89A
:1097700010351204D4F8103505F47C5502F440324B
:1097800015431D43C4F810550020B5E70134B0E778
:1097900001A84A780195FFF719FF019B03F5E073D3
:1097A000920040F82320C8E7083C344494F8605005
:1097B00045EA821284F86020E6E708209CE700BFB3
:1097C0002C2000209020002073B5224C261805463E
:1097D00096F93020072A1ADD224492F858309B0966
:1097E000032B0FD1019001A8FFF7F0FE019BD0F8E9
:1097F0001015D94001F0010102312846FFF7F2FEB1
:1098000002B070BD012B0CBF02210321F5E7D3B2DA
:10981000072BF5D8930003F1804303F5C043D3F839
:10982000100540F00100C3F8100502F1400080006F
:1098300080B2FFF7BFFE0029E2D096F9303054F82D
:109840002330002BDCD0012303FA02F2024BC3F8D1
:109850000423D5E72C2000200060004007B50190CC
:1098600001A8FFF7B3FE019BD0F81005D84000F027
:10987000010003B05DF804FB2DE9FF470024CDE9AA
:109880000244584D4FF48072012102F1804303F5E8
:10989000C04390B21B68012B06D1D5F804330B42AC
:1098A00002D0FFF787FE0C430432B2F5907F4FEAF7
:1098B0004101EAD14C4B1B68012B11D14FF4BE7012
:1098C000FFF778FE4FF0A04344F00044D3F8202582
:1098D0000292C3F82025D3F820280392C3F8202849
:1098E00014F0FF0F1AD0414F00250126344210D04A
:1098F000AB0003F1804303F5C043D3F81005D3F860
:10990000101557F8253023B1C1F30141C0F30520EC
:1099100098470135082D4FEA4606E7D1002C59DA61
:10992000324D334C334E4FF00008012716F9013BFE
:109930005A1C3CD0C3F3C20104A801445FFA83F966
:1099400011F8081C03F03F0203F0070307FA03F3C2
:1099500019422CD001A80192FFF738FE019B03F5B4
:10996000E07350F82330C3F3014ABAF1020F1046F6
:109970000CBF03210221FFF735FE01A80192FFF77A
:1099800025FE019B07FA03F3C0F82035AB1893F9C5
:10999000303055F8233053B14FEA9911032904D0E0
:1099A000BAF1020F19D1012901D11046984708F1E7
:1099B0000108B8F1040FB9D14FF0A043D3F8202526
:1099C0000292C3F82025D4F820350393C4F820353B
:1099D0001343A7D104B0BDE8F087BAF1030FE6D175
:1099E0000229E1E7006000407C6100402C2000205B
:1099F000000300508C200020014B1B68184700BF5B
:109A0000982000200E4B984237B50C4602D000201B
:109A100003B030BD00230DF107008DF80730FEF7CD
:109A2000D9FC084B1D7915B901221C601A719DF8EB
:109A30000700FEF7F3FC002DE9D01120E8E700BF96
:109A40000020004098200020034B984201BF034BA8
:109A500000221A601A7170470020004098200020F0
:109A60000023435082B043580193019B02B07047DA
:109A70000A4610B54FF48E71FFF7F2FF136A916832
:109A8000C95C136A01331362C0F81C1510BD8B69E1
:109A90000A4610B54FF4847123B9FFF7E1FFD0F8FF
:109AA000183510BDFFF7DCFF536AD168D0F81805F0
:109AB000C854536A01335362F3E700001FB5012312
:109AC0008DF80030044BCDE90110D3E9001268464F
:109AD000904705B05DF804FBA020002030B54C484D
:109AE000D0F8043313F4007F85B005464DD0D0F88C
:109AF0002431002B49D04FF49271FFF7B1FF4FF49E
:109B00000173C0F80833434B93F829200AB90122A6
:109B100042603F4902228DF80020D1F88024C1F82C
:109B2000802403929A690292DA6801920022C3E9C2
:109B300006226846D3E9001290473548D0F81C3118
:109B40005BB134494A690B6A9A420A464AD991F88C
:109B50002830002B46D1FFF78BFF2D48D0F8443139
:109B60008BB14FF4A271FFF77BFF2A4B93F82920AA
:109B70000AB1012202609A692AB10022586AD968A2
:109B80009A61FFF79BFF05B030BDD5F804335B0742
:109B9000D3D5D5F80831002BCFD01E4C1C48214618
:109BA000FFF775FF636AA2699A422346C5D1E2694D
:109BB000E1684AB12369E3600023606AA261E3615E
:109BC0006362FFF77BFFB8E794F829200AB9012206
:109BD0006A600F4A4FF40170C2F808030022586A05
:109BE0009A61EEE70A484FF48E71FFF739FF536927
:109BF000002BB2D051690291002391688DF800309A
:109C0000019153616846D2E900139847A5E700BF68
:109C100000200040A02000201F2886BF00F01F0069
:109C2000044B4FF0A04300F5E070022243F82020DF
:109C3000704700BF000300502DE9F843614B0579E0
:109C400091462C2202FB0532064692F82A200C4649
:109C50009846002A40F0B1805B490068FFF7D2FEC9
:109C60000746002840F0AB8021684A1C10D01F290D
:109C700087BF564A01F01F030B464FF0A042012058
:109C8000984003F5E073C2F80805032042F823006A
:109C90006068431C0DD01F288BBF00F01F030346D4
:109CA0004A4A4FF0A04203F5E0734FF0000C42F82F
:109CB00023C03368A269C3F8242594F814C0627DD8
:109CC000BCF1010F4CEA0202C3F86C25C3F814057D
:109CD000C3F80C152BD1A168481C0DD01F298BBFD0
:109CE00001F01F020A4639484FF0A04002F5E07229
:109CF0004FF0000C40F822C0E068421C13D01F282F
:109D000087BF324A00F01F0C84464FF0A0424FF04C
:109D1000010E0EFA0CFE0CF5E07CC2F808E54FF0DF
:109D2000030E42F82CE0C3F80805C3F810152C23E5
:109D30006B4308EB0302C2F80490226948F8032041
:109D4000B9F1000F21D03068247F4FF48E71FFF7F6
:109D500087FE4FF4A2713068FFF782FE32681C4B19
:109D6000C2F80433110B42F307326301002ADBB25D
:109D70001EDB1848841884F800330123520901F0CF
:109D80001F0103FA01F140F8221033680422C3F8DE
:109D900000252C2303FB05830022C3E9062283F858
:109DA00029205A61012283F82A203846BDE8F88329
:109DB000094A01F00F015354E7E70827F5E7112797
:109DC000F3E700BFA0200020DD9A0200000300504E
:109DD0008000020000E100E014ED00E02DE9F04118
:109DE00003680479284D0022C3F800252C2202FBC9
:109DF000045201465268A2B1244AC3F808231A0B40
:109E000043F30733002B0CDB02F01F005B09012238
:109E1000824020331E4840F82320BFF34F8FBFF30A
:109E20006F8F0B68D3F80C05D3F81485D3F8086549
:109E3000D3F810754FF0FF329042C3F81425C3F8E1
:109E40000C25C3F80825C3F8102501D0FFF7E4FE60
:109E5000B8F1FF3F02D04046FFF7DEFE7A1C02D089
:109E60003846FFF7D9FE731C02D03046FFF7D4FE08
:109E70000868FFF7E9FD2C2303FB0454002384F852
:109E80002A306360BDE8F081A02000208402020037
:109E900000E100E02DE9F047204F90F804904FF0EA
:109EA0002C0808FB097405466669002E34D16261EE
:109EB0000068A16026624FF48E7184F82860FFF775
:109EC000CFFD2868012383602146FFF7D1FD636839
:109ED000A0468BB92868D4F814A0236A9A4511D8F3
:109EE0002A68D2F81C31002BFBD00123D3602C232D
:109EF00003FB097300225A613046BDE8F08794F8ED
:109F000028303BB9D0F81C31002BF8D04146FFF780
:109F1000AFFDE2E70F26EAE71126EDE7A0200020DB
:109F20000023435082B043580193019B02B0704715
:109F30001FB501238DF80030044BCDE90110D3E9A2
:109F400000126846904705B05DF804FBCC20002065
:109F50001F2886BF00F01F00044B4FF0A04300F500
:109F6000E070022243F82020704700BF0003005039
:109F70007FB5434AD2F82461002E60D010464FF4DA
:109F80009271FFF7CDFF02238DF80030D2F88034B4
:109F9000C2F880340393D2F83C350293394BDA6827
:109FA00001920022C3E906226846D3E900129047D5
:109FB0003348D0F8443173B14FF4A271FFF7B0FFCA
:109FC000304B9A693AB10022C3E90622D968D0F829
:109FD0003C05FFF7ADFF2A48D0F82031ABB14FF474
:109FE0009071FFF79DFF0123C360264B5A6962B150
:109FF000D0F84C150291002299688DF8002001914B
:10A000005A616846D3E9001290471D48D0F858318C
:10A010009BB14FF4AC71FFF783FF1A4B5A6962B1E1
:10A02000D0F84C150291002299688DF8002001911A
:10A030005A616846D3E90012904704B070BDD2F867
:10A040001031002BB4D04FF488711046FFF768FF31
:10A050000C4BD2F83C0599698842A9D1DC69D968D2
:10A0600064B1D2F8005225F02005C2F800521A69F6
:10A070009C61DA60DE61FFF75BFF99E79C61FAE7BC
:10A0800000200040CC2000202DE9F843674B0679E2
:10A090009146242202FB0632044692F820200D4607
:10A0A0009846002A40F0BE8061490068FFF7AAFC8C
:10A0B0000746002840F0B8802868421C10D01F28AE
:10A0C00087BF5C4A00F01F0303464FF0A042012106
:10A0D000994003F5E073C2F80815032142F82310F4
:10A0E00069684B1C0DD01F298BBF01F01F030B4665
:10A0F000504A4FF0A04203F5E0734FF0000C42F8D5
:10A1000023C02368AA69C3F8242595F814C06A7D82
:10A11000BCF1010F4CEA0202C3F86C25C3F80C0530
:10A12000C3F814152BD1A968481C0DD01F298BBF6B
:10A1300001F01F020A463F484FF0A04002F5E072CE
:10A140004FF0000C40F822C0E868421C13D01F28D2
:10A1500087BF384A00F01F0C84464FF0A0424FF0F2
:10A16000010E0EFA0CFE0CF5E07CC2F808E54FF08B
:10A17000030E42F82CE0C3F80805C3F81015242399
:10A18000734308EB0302C2F804902A6948F80320DD
:10A19000B9F1000F30D020682A7F4FF48871FFF7A3
:10A1A000BFFE20684FF49071FFF7BAFE20684FF4AD
:10A1B0009271FFF7B5FE20684FF4A271FFF7B0FE71
:10A1C0004FF4AC712068FFF7ABFE23681A49C3F85F
:10A1D0000413190B43F307335201002BD2B21CDBDB
:10A1E0001648C51885F8002301225B0901F01F01FC
:10A1F00002FA01F140F8231023680822C3F8002571
:10A20000242303FB06830022C3E906225A610122AC
:10A2100083F820203846BDE8F883094B01F00F0190
:10A220005A54E9E70827F5E71127F3E7CC20002087
:10A23000719F0200000300501003420000E100E0A3
:10A2400014ED00E02DE9F0413D4E0579046824232A
:10A2500003FB056302465B68ABB13A4BC4F80833B5
:10A2600044F30733002B4FEA14310CDB01F01F00DD
:10A270005B09012181402033334840F82310BFF3AC
:10A280004F8FBFF36F8FD4F8003223F02003C4F850
:10A290000032242303FB05639B6933B14FF4A271A1
:10A2A0002046FFF73DFE012363604FF4AC7120466A
:10A2B000FFF736FE0123E360242303FB0563D4F894
:10A2C00058110029FBD0996919B1D4F8441100291B
:10A2D000F5D00023C4F800351368D3F80C05D3F883
:10A2E0001485D3F80815D3F810754FF0FF3290425B
:10A2F000C3F80C25C3F81425C3F80825C3F81025A6
:10A3000001D0FFF725FEB8F1FF3F02D04046FFF72E
:10A310001FFE7A1C02D03846FFF71AFE4B1C02D0F3
:10A320000846FFF715FE2046FFF78EFB242303FBAC
:10A330000565002385F820306B60BDE8F08100BF23
:10A34000CC2000201003420000E100E001F0604357
:10A35000B3F1005F2DE9F041064638D11E4B077975
:10A36000242505FB073598466C69002C31D16A61BC
:10A370000068A9604FF49071FFF7D2FD4FF4AC7103
:10A380003068FFF7CDFD33686A69A968C3F84415E2
:10A39000C3F8482501229A606A68AAB9D3F8202137
:10A3A000D3F858411AB9002CF8D00F2407E0002C3C
:10A3B000FBD10122DA60D3F85821002AFBD02423F4
:10A3C00003FB078700237B612046BDE8F081102452
:10A3D000FAE71124F8E700BFCC2000200220FEF7A6
:10A3E00025BF00002DE9F04780460D46FEF738FFF7
:10A3F0000328044610D8012D10D0022D30D05DB9AD
:10A400001A48FDF70EFF1A4B04EB440213449E78E2
:10A41000184B1B5DB34219D0BDE8F087144D00EB1B
:10A420004002A918AE5C4A78470052B1DFF84C9060
:10A430000E484A464FF48041FDF7DBFE08B989F823
:10A4400000803B192B449A780A4B1A55002EE3D012
:10A45000094B1B68002BDFD03046BDE8F04718479A
:10A4600000EB4004024804446678EFE7182100201E
:10A4700058210020712100206C210020F0200020B4
:10A4800000780221FFF7AEBF08B5094B1B7853B126
:10A490000020FEF799FE0120FEF796FEBDE8084079
:10A4A0000320FEF791BEBDE80840FEF7A1BE00BF45
:10A4B000F1200020F8B57B4C237805461BB1002322
:10A4C0002370FFF7E1FF172D00F28880DFE805F029
:10A4D0000C17174354657680888D888D959A9A9AC3
:10A4E0009A9AC4C9D1D9E4E4FFF7CEFF6E48FDF7CC
:10A4F00098FE6E4B002204461A702046F8BD0020DC
:10A50000FEF73AFEF8B10020FEF75EFE022D0CBF0A
:10A510004FF4E1614FF47A61644B1D704FF40040D9
:10A520004FF47A740025E0FB01454FF4FA620023F2
:10A530002046294600F00AFE00220146BDE8F84008
:10A540005948FDF756BEFEF72BFE022D0CBFC82161
:10A550004FF4C871E0E70020FEF70EFE40B1002086
:10A56000FEF732FE4FF44871504B03221A70D5E7C4
:10A57000FEF716FEC821F7E70020FEF7FDFD38B113
:10A580000020FEF721FE4FF47A61484B0422EDE7EC
:10A59000FEF706FE4FF4C871F7E70020FEF7ECFD6A
:10A5A00048B10020FEF710FE404B05221A7040F61D
:10A5B000CD410022C2E7FEF7F3FDF5E70020FEF7EC
:10A5C00035FE3A4B06221A70002240F26661B5E76A
:10A5D0000020FEF7E5FD354B07221A7000248CE7BA
:10A5E00001202070FEF722FEEEE701202070FEF72A
:10A5F0001DFE00224FF40051A0E7FEF708FE2B4B92
:10A600000C22EAE72A482B4EFDF70BFED5F1110587
:10A6100004461CD0D8B9012D13D0C8235D434FF494
:10A6200000474FF47A7000214FF4FA620023C7FB11
:10A63000050100F08BFD224601461D48FDF7D9FDBE
:10A6400004460220FEF7ACFD0123337055E70220DB
:10A65000FEF7BAFD0023F8E7FFF716FF134B1222AF
:10A66000BBE7FFF711FF0020FEF79AFD0F4B132207
:10A67000B3E7FFF709FF0120FEF792FD0B4B142211
:10A68000ABE7FFF701FF0020FEF78AFD0120FEF790
:10A6900087FD064B1522A0E7FEF7B9FD034B1D70A1
:10A6A0009CE700BF68210020382100207021002095
:10A6B000F8200020F1200020044B1B68DB0703D5A5
:10A6C000034B1878FFF7F6BE704700BF64210020E7
:10A6D00070210020044B1B6813F0010301D0FFF729
:10A6E000E9BE1846704700BF6421002038B51C4BF6
:10A6F00018601C4B10F00204054619601AD01A4B62
:10A700001A480E221A700F22DA7010229A71112242
:10A710005A72042140F23332FDF700FC044648B976
:10A72000FDF752FC044628B90146114A1148FDF7CD
:10A7300055FD0446EB0711D50120FEF7A3FD6CB9CA
:10A7400021460D4A0D48FDF749FD044630B9BDE8E4
:10A7500038400B4A0B480121FDF740BD204638BD6B
:10A76000642100206C2100205821002098BB0200A9
:10A7700081A40200BCBB0200B9A60200C0BB02005B
:10A78000DDA30200B8BB020072DF704773DF7047C1
:10A7900077DF704700B54FF48041A3B00020FCF78D
:10A7A000BBFF08B1FDF726FCFCF7F6FEFDF7E4FC65
:10A7B00008B1FDF71FFC00210120FFF797FF08B14A
:10A7C000FDF718FCFEF728FB08B1FDF713FC00F0BD
:10A7D00019FB08B1FDF70EFC002313A90120139308
:10A7E00000F098FB08B1FDF705FC13A800F042FC4F
:10A7F00008B1FDF7FFFB344B344C039300252223B3
:10A800003C22002104A8ADF8083000F08DFD01AB1A
:10A810003C22294613A80D938DF810508DF8125044
:10A8200000F082FD18222946204600F07DFD0A2313
:10A8300023704023A3604FF48063A38204236560E8
:10A84000A581A375224C224604A852F8041B00F0EF
:10A85000C5F808B1FDF7CEFB1E4AA16813A800F0A9
:10A86000BDF808B1FDF7C6FB184A19491A48FFF7A9
:10A870008BFF08B1FDF7BEFB174C082221780120A1
:10A88000FFF786FF08B1FDF7B5FB144B14481549D7
:10A89000C01AC008000440F00300FDF7D1F820788A
:10A8A0000121FFF773FF08B1FDF7A4FB0220FFF7BA
:10A8B00011FF08B1FDF79EFBFCF77EFF0028FBD1DE
:10A8C000FEF7C0FAF8E700BF7521002098210020AC
:10A8D000001900200C1900201019002024B40200D7
:10A8E0004CB40200C4BB02006DDF704779DF7047D3
:10A8F0007DDF704764DF70472DE9F04F85B000259C
:10A900000E9CBDF83CB0B4F800A0019107469046FB
:10A910001E46A9463A884A450DDC45B12388013BCD
:10A92000A3EB0A039BB2FF2B3AD806F80A300020AB
:10A9300005B0BDE8F08F7A6852F829000390002234
:10A940000DF10B0103A8FFF7D5FF0028F0D19DF80A
:10A950000B20424521D12288002D14BF0020022067
:10A9600002EB0801014459451ADC3DB9013292B2AB
:10A97000019B2280B35422880132228022880DF16B
:10A980000B01324403A8FFF7B5FF0028D0D121887E
:10A990009DF80B200A442280012509F10109B9E73D
:10A9A0000C20C5E72DE9F341089FBDF8248015462A
:10A9B000CDE90078022204461E46FFF79DFF50B9FC
:10A9C0003346102229462046CDE9087802B0BDE87A
:10A9D000F041FFF791BF02B0BDE8F0812DE9F04FE3
:10A9E00000231788138090F82D3085B006460D4659
:10A9F000144653B3082F01D80C2027E102A8FFF713
:10AA000073FF002840F0228123880822EA5423881B
:10AA100001339BB21B222380EA542088013080B28C
:10AA2000208006220DF10901284400F054FC2388FF
:10AA30009DF8082006339BB212F0FE0218BF0122D7
:10AA40002380EA54238801332380B378FBB1238821
:10AA50000433BB42D0D802A8FFF748FF002840F0DB
:10AA6000F58023880322EA54238801339BB21922FC
:10AA70002380EA542388BDF8082001339BB2E918EB
:10AA80002380EA54120A4A70238802332380F27822
:10AA90009AB12388D91CB942AED80221E95423883F
:10AAA00001339BB201212380E95423880B449BB2DC
:10AAB0002380EA5423880B4423807268AAB1238838
:10AAC000D91CB94298D8022192F90020E954238870
:10AAD00001339BB20A212380E954238801339BB2BE
:10AAE0002380EA542388013323803389002B40F0EC
:10AAF000A180338A5BB1CDE900472B4607220321B1
:10AB000006F11000FFF74EFF002840F09F80338BC6
:10AB10005BB1CDE900472B461522142106F1180040
:10AB2000FFF740FF002840F09180326A002A40F091
:10AB30009080D6F82480B8F1000F30D0B8F80430F7
:10AB40002188981C8A1C0244BA423FF655AFFE2861
:10AB50003FF652AF03336B54238801339BB2FF227D
:10AB60002380EA54238801339BB22380B8F8002065
:10AB7000EA54E918120A4A702088023080B2208014
:10AB8000B8F804205AB1D8F8081000296BD028442E
:10AB900000F0A1FB2388B8F804201344238096F822
:10ABA0002C30002B40F09A80307800284ED033882B
:10ABB000012B58D0228802F1020CBC453FF61CAF95
:10ABC000012805D17378023313449F42FFF414AF78
:10ABD000023FBF1ABFB202A905EB0C00ADF8087026
:10ABE000FFF786FE90BB3178BDF80830022900F0EF
:10ABF000BA8072789A4202D3BB4240F2B2800129F5
:10AC000040F0B380974293B2C0F0AF80ADF8083007
:10AC10000821BDF80830FE2B3FF6EEAE2288013346
:10AC2000AB542288013292B22280A9542288134464
:10AC300023800BE0CDE900472B460622022106F1D6
:10AC40000800FFF7AFFE00283FF453AF05B0BDE8A2
:10AC5000F08FB4F800C00CF10603BB423FF6CCAE57
:10AC60001188052901D80720F0E76FF4486E01EB41
:10AC70000E039BB24FF27D3E7345F4D95388052BEA
:10AC8000F1D96FF44860181880B27045EBD94FF6CF
:10AC9000FF70814203D0834201D09942E3D805235B
:10ACA00005F80C30238801339BB212212380E9542C
:10ACB000238801339BB223801188E954E818090ADC
:10ACC0004170238802339BB223805288EA54E918EA
:10ACD000120A4A702388023323802AE7B36A002BC2
:10ACE000C1D04FF000094FF00C0A4FF0160B96F848
:10ACF0002C305FFA89F293427FF656AFB16A0AFBB5
:10AD000002F201EB0208B8F80430981CFE283FF666
:10AD100073AE208803332B54238801339BB22380E6
:10AD200005F803B0238801339BB223808A5AEA5482
:10AD3000E918120A4A702088023080B22080B8F8E0
:10AD400004205AB1D8F8081000298CD0284400F00B
:10AD5000C2FA2388B8F804201344238009F10109BA
:10AD6000C5E7092155E7BB42FBD9ADF808704FE7AD
:10AD700010DF704713B5044609496846FEF791F89D
:10AD8000019808B902B010BDD0E9002120469047D3
:10AD900018B16846FEF78FF8F2E71120F2E700BF1E
:10ADA000E8BB020013B5044607496846FEF779F888
:10ADB000019B0BB902B010BD2046D3E9002190479A
:10ADC0006846FEF778F8F3E700BC02000B4991F8FB
:10ADD00016335A09EC231341DB0706D5084B9A6852
:10ADE0003AB94FF480030B60704742F20200FDF75E
:10ADF00001B91A6842F480021A60704700E100E06D
:10AE0000D41F0020F7B5194F3C7864BB184E0125BC
:10AE100020463570FFF7AEFF112821D02046FFF7FE
:10AE2000C1FF144B8DF80340186801900DF1030029
:10AE3000FDF7D0FA104901A8FFF79AFF0446B0FACF
:10AE400080F0400938709DF80300FDF7E7FA3CB93F
:10AE50000A4B34701C70FFF7B9FF2846FFF7A2FFBA
:10AE6000204603B0F0BD0824FAE700BFD821002037
:10AE7000D7210020E4BB020011800200D92100206C
:10AE8000014B1878704700BFD821002007B508494A
:10AE90006846FEF706F8019B13B903B05DF804FBA2
:10AEA000D3E9002090476846FEF705F8F3E700BFB6
:10AEB000F4BB0200FFF7EABF60DF704769DF70474D
:10AEC00061DF704730B5114B1B7891B0E3B1104D85
:10AED00034240DF1020103A8ADF80240FFF7F0FFA2
:10AEE00070B9294601A8FDF7DCFF029B002BF0D0CA
:10AEF00003A8D3E90021904701A8FDF7DCFFF4E7A0
:10AF0000052801D0FDF776F811B030BDDA21002018
:10AF100044BE020030B5054685B00C46002900F05D
:10AF200097804C4B0B600C22002101A800F0FCF92B
:10AF300001238DF8063022688DF80450062301A9FC
:10AF40002020ADF80830FFF7B9FF60B1FEF704F834
:10AF5000414B4249024642481B1ADB081B0443F09E
:10AF60000100FCF771FD0C22002101A800F0DCF9C2
:10AF7000002322688DF8053001A94020ADF8063085
:10AF8000FFF79CFF60B1FDF7E7FF334B3549024601
:10AF900033481B1ADB081B0443F00100FCF754FD87
:10AFA0000C22002101A800F0BFF9002322688DF8CF
:10AFB000043001A90120FFF781FF60B1FDF7CCFF4C
:10AFC000254B2949024626481B1ADB081B0443F07F
:10AFD0000100FCF739FD0C22002101A800F0A4F9C2
:10AFE000F8232268019301A9A120FFF767FF60B150
:10AFF000FDF7B2FF184B1D49024619481B1ADB0822
:10B000001B0443F00100FCF71FFD0C22002101A8E6
:10B0100000F08AF99DF8043022686FF3000301A95B
:10B02000A0208DF80430FFF749FF034668B1FDF713
:10B0300093FF094B0E49024609481B1ADB081B0403
:10B0400043F00100FCF700FD0023184605B030BDB9
:10B050000E23FAE7D818002074B402000CBC0200DA
:10B0600024B4020052BC02009EBC0200EABC0200F2
:10B070003BBD020073B505460668FFF71DFF2B6850
:10B08000B34204461DD91A481A4B1B491B1ADB0848
:10B090001B0443F002000190FCF7D2FC2B68174917
:10B0A00001983246FCF7D9FC4FF080532A68D3F858
:10B0B0000C31134901989B0203F100539A1AFCF7D3
:10B0C000C3FC2CB90F4B01221A70204602B070BD90
:10B0D0002046FDF741FF074B0B49024604481B1A67
:10B0E000DB081B0443F00100FCF7AEFCEDE700BFFA
:10B0F00024B4020074B402008EBD0200BDBD020083
:10B10000EEBD0200DA21002018BE02004BDF7047BE
:10B110001FB50D4C01A8FFF7F9FF70B9214602A831
:10B12000FDF7BFFE039B002BF4D00198D3E900216B
:10B13000904702A8FDF7BFFEF4E7052801D0FCF711
:10B1400059FF04B010BD00BF5CBE020053EA020C00
:10B1500061D02DE9F04BB3FA83F51E0007BFB2FAB8
:10B1600082F502FA05F403FA05F41646C5F1200546
:10B170001EBF22FA05F73C43203556EA044C4FEA3D
:10B18000144418BF0134A3464FF00009C84690424A
:10B1900071EB030C39D3094207BFB0FA80F700FA0C
:10B1A00007F6B1FA81F701FA07F6C7F120071EBFCB
:10B1B00020FA07FC46EA0C062037B6FBFBFC7F1B97
:10B1C000103F07F01F04C4F120060CFA04F42CFA17
:10B1D00006F644BF34460026202FA4BF264600248E
:10B1E00054EA060C08BF012418EB040849EB0609D1
:10B1F000A4FB027CC01B06FB02CC04FB03CC71EB5E
:10B200000C01904271EB030CC5D20B460246494635
:10B210004046BDE8F08BB2FBF3F200007F2805D872
:10B22000034B185C034B5B5C184070470020704771
:10B2300074BE0200F4BE0200A0F16103192B98BF96
:10B2400020387047A0F14103192B98BF2030704778
:10B250007F2805D8034B185C034B5B5C1840704794
:10B260000020704774BE0200F4BE0200A0F161032A
:10B27000192B98BF20387047A0F14103192B98BFB4
:10B28000203070477F299ABF017001206FF02E0097
:10B2900070475AB10A787F2A0AD800B102600021AB
:10B2A00019605960501A18BF01207047002070477C
:10B2B0006FF02E007047000008B5034B5B689B6879
:10B2C0001B68984708BD00BF1419002008B5092164
:10B2D000FFF7F2FF08BD844640EA010313F0030FB5
:10B2E00018D18446202A0BD32DE9F007B1E8F807DE
:10B2F000A0E8F807A2F12002202AF7D2BDE8F00763
:10B30000042A07D351F8043B40F8043BA2F104029D
:10B31000042AF7D2002A05D011F8013B00F8013BBE
:10B32000013AF9D1604670478446002A2DD010F0CA
:10B33000030F04D000F8011B013A26D0F7E7C9B289
:10B3400041EA012141EA0141202A12D3A2F120025F
:10B350002DE9F0030B460C460D460E460F46884677
:10B360008946A0E8FA03203AFBD2BDE8F003203278
:10B370000BD0042A05D340F8041B043A05D0042A54
:10B38000F9D200F8011B013AFBD16046704700F189
:10B39000010110F0030F11D010F8012B002A23D067
:10B3A00010F0030F0AD010F8012B002A1CD010F067
:10B3B000030F03D010F8012B002A15D02DE97000DF
:10B3C0004FF001324FF0803350F8044BA4EB0205EC
:10B3D00025EA04051D4000D1F6E7A0F1040070BC89
:0EB3E00010F8012B002AFBD1A0EB01007047F2
:08B3F0000593020000000000BB
:08B3F800A19302000000000017
:10B40000C5AE02000000000011B102000000000003
:10B410006C190020341A00203C1A002074190020F6
:04B420001800000010
:10B424007ABB02000000000080BB020000000000A4
:10B4340087BB0200000000008BBB0200000000007C
:10B4440090BB020000000000F2B4020000000303FD
:10B45400C8B5020000000000F1B5020000000000C1
:10B4640074BB020000000000DCBB02000000030308
:10B4740035BE02000000030350BE020000000303B7
:10B4840056B60200000000006CB602000000000086
:10B49400C4B4020000000000D0B40200EC18002084
:10B4A400FFFFFFFFFFFFFFFFFFFFFFFFFFFFFFFFA8
:10B4B40000000000000000000000D60106010000AA
:10B4C4000175020065750200A17402007561727451
:10B4D4005F6C6F675F6261636B656E64004261639A
:10B4E4006B656E647320666C757368656400617067
:10B4F400700000005C1E00207F000000DC1E0020A5
:10B504001B5B306D002573001B5B313B33316D00D9
:10B5140025734C6F67732064726F707065642028A4
:10B5240025642925730D0A003C25733E2025733AB2
:10B534002000202530327800202020007C00256364
:10B54400001B5B313B33306D001B5B313B33326D91
:10B55400001B5B313B33336D001B5B313B33346D7C
:10B56400001B5B313B33356D001B5B313B33366D68
:10B57400001B5B313B33376D007761726E696E6718
:10B5840000696E666F0064656275670004B5020049
:10B5940045B502000CB502004DB5020055B50200D8
:10B5A4005DB5020065B502006DB5020075B5020017
:10B5B40000000000DEB502007DB5020085B5020082
:10B5C4008AB502006170705F627574746F6E0000FA
:10B5D400001F0020466174616C206572726F7200F6
:10B5E40053797374656D207265736574006170704E
:10B5F4005F74696D657200000100060000000000C0
:10B604004C1F00208180020052544320696E7374E1
:10B61400616E636520616C726561647920696E692D
:10B624007469616C697A65642E005254433A2069E6
:10B634006E697469616C697A65642E000338FDD89B
:10B644007047303132333435363738394142434428
:10B6540045467077725F6D676D740000F8B3020041
:10B66400F8B3020004000000736F72746C697374A1
:10B67400004E52465F53554343455353004E524682
:10B684005F4552524F525F5356435F48414E444CBC
:10B6940045525F4D495353494E47004E52465F450C
:10B6A40052524F525F534F46544445564943455FA7
:10B6B4004E4F545F454E41424C4544004E52465F06
:10B6C4004552524F525F494E5445524E414C004EE2
:10B6D40052465F4552524F525F4E4F5F4D454D00AB
:10B6E4004E52465F4552524F525F4E4F545F464F43
:10B6F400554E44004E52465F4552524F525F4E4F94
:10B70400545F535550504F52544544004E52465F77
:10B714004552524F525F494E56414C49445F504145
:10B7240052414D004E52465F4552524F525F494E70
:10B7340056414C49445F5354415445004E52465F70
:10B744004552524F525F494E56414C49445F4C4515
:10B754004E475448004E52465F4552524F525F493D
:10B764004E56414C49445F464C414753004E524665
:10B774005F4552524F525F494E56414C49445F44D3
:10B78400415441004E52465F4552524F525F44412C
:10B7940054415F53495A45004E52465F4552524FF9
:10B7A400525F54494D454F5554004E52465F4552E1
:10B7B400524F525F4E554C4C004E52465F455252CA
:10B7C4004F525F464F5242494444454E004E524602
:10B7D4005F4552524F525F494E56414C49445F4176
:10B7E400444452004E52465F4552524F525F4255B6
:10B7F4005359004E52465F4552524F525F434F4E8B
:10B804004E5F434F554E54004E52465F4552524F81
:10B81400525F5245534F5552434553004E52465F73
:10B824004552524F525F4D4F44554C455F4E4F5415
:10B834005F494E495449414C495A4544004E524689
:10B844005F4552524F525F4D555445585F494E49DA
:10B85400545F4641494C4544004E52465F4552525E
:10B864004F525F4D555445585F4C4F434B5F4641D3
:10B87400494C4544004E52465F4552524F525F4D2B
:10B88400555445585F554E4C4F434B5F4641494CC8
:10B894004544004E52465F4552524F525F4D5554F7
:10B8A40045585F434F4E445F494E49545F464149B2
:10B8B4004C4544004E52465F4552524F525F4D4FE5
:10B8C40044554C455F414C52454144595F494E49AA
:10B8D4005449414C495A4544004E52465F455252E0
:10B8E4004F525F53544F524147455F46554C4C00AD
:10B8F4004E52465F4552524F525F4150495F4E4F40
:10B90400545F494D504C454D454E544544004E52AC
:10B91400465F4552524F525F464541545552455F2A
:10B924004E4F545F454E41424C4544004E52465F93
:10B934004552524F525F494F5F50454E44494E471E
:10B94400004E52465F4552524F525F4452565F5426
:10B9540057495F4552525F4F56455252554E004E1D
:10B9640052465F4552524F525F4452565F545749B4
:10B974005F4552525F414E41434B004E52465F4534
:10B9840052524F525F4452565F5457495F45525288
:10B994005F444E41434B004E52465F4552524F5214
:10B9A4005F424C455F495053505F52585F504B546F
:10B9B4005F5452554E4341544544004E52465F45F0
:10B9C40052524F525F424C455F495053505F434877
:10B9D400414E4E454C5F414C52454144595F455898
:10B9E40049535453004E52465F4552524F525F42A0
:10B9F4004C455F495053505F4C494E4B5F4449534B
:10BA0400434F4E4E4543544544004E52465F4552C3
:10BA1400524F525F424C455F495053505F50454529
:10BA2400525F52454A454354454400556E6B6E6F10
:10BA3400776E206572726F7220636F646500000018
:10BA44000000000075B602000100000081B602008B
:10BA5400020000009FB6020003000000C0B602000E
:10BA640004000000D3B6020005000000E4B60200A2
:10BA740006000000F8B602000700000010B702003C
:10BA84000800000028B702000900000040B70200C7
:10BA94000A00000059B702000B00000071B7020051
:10BAA4000C00000088B702000D0000009CB70200E3
:10BAB4000E000000AEB702000F000000BDB7020088
:10BAC40010000000D1B7020011000000E8B7020026
:10BAD40012000000F7B70200130000000CB80200C7
:10BAE4008000000020B802008100000041B802007C
:10BAF400820000005DB802008300000079B80200F3
:10BB04008400000097B8020085000000B8B8020065
:10BB140086000000DDB8020090000000F4B80200C6
:10BB24009100000012B902009200000030B9020036
:10BB34000082000045B902000182000063B90200DE
:10BB4400028200007FB90200008400009BB9020059
:10BB540001840000BFB9020002840000E9B90200B8
:10BB6400038400000EBA0200010000000D0E0F1045
:10BB7400636C6F636B00434C4F434B004750494F1A
:10BB840054450050525300554152540055415254AB
:10BB9400450000000B000300E5A302000C000300B5
:10BBA400E5A3020018000300E5A302001900030046
:10BBB400E5A30200F82000201821002038210020ED
:10BBC400426561636F6E206578616D706C6520738A
:10BBD4007461727465642E006E72665F73646800CB
:10BBE40001000007F8B30200F8B3020008000000E7
:10BBF40000B4020010B4020008000000F8B3020010
:10BC040000B402000800000073645F626C655F6347
:10BC140066675F73657428292072657475726E6532
:10BC240064202573207768656E20617474656D7077
:10BC340074696E6720746F2073657420424C455F8D
:10BC4400434F4E4E5F4346475F4741502E00736457
:10BC54005F626C655F6366675F7365742829207231
:10BC6400657475726E6564202573207768656E202F
:10BC7400617474656D7074696E6720746F20736588
:10BC84007420424C455F4741505F4346475F524FE3
:10BC94004C455F434F554E542E0073645F626C6590
:10BCA4005F6366675F7365742829207265747572B3
:10BCB4006E6564202573207768656E2061747465F1
:10BCC4006D7074696E6720746F2073657420424CC4
:10BCD400455F434F4D4D4F4E5F4346475F56535F5D
:10BCE400555549442E0073645F626C655F636667F3
:10BCF4005F73657428292072657475726E6564209B
:10BD04002573207768656E20617474656D7074693D
:10BD14006E6720746F2073657420424C455F474101
:10BD24005454535F4346475F415454525F54414215
:10BD34005F53495A452E0073645F626C655F6366A6
:10BD4400675F73657428292072657475726E656403
:10BD5400202573207768656E20617474656D707436
:10BD6400696E6720746F2073657420424C455F4789
:10BD7400415454535F4346475F53455256494345E4
:10BD84005F4348414E4745442E00496E73756666CD
:10BD9400696369656E742052414D20616C6C6F63F8
:10BDA4006174656420666F722074686520536F66E1
:10BDB400744465766963652E004368616E67652027
:10BDC4007468652052414D207374617274206C6FE5
:10BDD400636174696F6E2066726F6D2030782578A8
:10BDE40020746F20307825782E004D6178696D7548
:10BDF4006D2052414D2073697A6520666F7220610F
:10BE040070706C69636174696F6E20697320307837
:10BE140025782E0073645F626C655F656E61626C89
:10BE24006528292072657475726E65642025732EE9
:10BE3400006E72665F7364685F626C650000000088
:10BE4400F8B30200F8B30200080000006E72665FE7
:10BE54007364685F736F6300F0B30200F8B30200A9
:10BE64000800000043000000504F534958000000F0
:10BE74002020202020202020206828282828202056
:10BE840020202020202020202020202020202020AE
:10BE94004810101010101010101010101010101066
:10BEA4008484848484848484848410101010101006
:10BEB400108181818181810101010101010101015F
:10BEC4000101010101010101010101101010101013
:10BED4001082828282828202020202020202020230
:10BEE40002020202020202020202021010101020D8
:10BEF40000070320041702010857104080000000C7
:10BF040068BE02006CBF020080C0020053756E0060
:10BF14004D6F6E0054756500576564005468750074
:10BF24004672690053617400000000004A616E00AB
:10BF3400466562004D617200417072004D61790086
:10BF44004A756E004A756C00417567005365700050
:10BF54004F6374004E6F7600446563000000000078
:10BF6400414D00504D000000A4C00200A0C00200DA
:10BF7400A0C00200A0C00200A0C00200A0C0020035
:10BF8400A0C00200A0C00200A0C00200A0C0020025
:10BF9400FFFFFFFFFFFFFFFFFFFFFFFFFFFF0000AB
:10BFA400E0BF020010BF02001CC0020030BF02004C
:10BFB40064BF0200C4BF020074C00200D0BF02000C
:10BFC400256D2F25642F257900000000256120258B
:10BFD40062202565202554202559000053756E6480
:10BFE4006179004D6F6E64617900547565736461A5
:10BFF40079005765646E657364617900546875727D
:10C00400736461790046726964617900536174757F
:10C0140072646179000000004A616E756172790092
:10C024004665627275617279004D617263680041A0
:10C034007072696C004D6179004A756E65004A75CD
:10C044006C79004175677573740053657074656D20
:10C05400626572004F63746F626572004E6F76653D
:10C064006D62657200446563656D6265720000000F
:10C0740025483A254D3A2553000000001DB2020020
:10C0840039B2020045B2020051B202006DB20200A0
:10C0940079B2020085B2020093B2020000000000EF
:02C0A4002E006C
:10C0A80000000000002000400000000000200040C8
:10C0B8000000000000000000FF0000000010014028
:10C0C800110004000090D003B021002027000000D8
:10C0D8000000000000000000FF00000004BF020094
:10C0E80004BF020004BF020004BF020004BF020034
:0400000320007375F1
:00000001FF
