:10000000000004205D0300004503000047030000DA
:10001000490300004B0300004D03000000000000F6
:100020000000000000000000000000004F0300007E
:1000300051030000000000005303000055030000BE
:100040005703000057030000B10F000057030000E2
:100050005703000057030000570300005703000038
:100060005703000057030000570300005703000028
:100070005703000057030000570300005703000018
:100080005703000057030000570300005703000008
:1000900057030000570300005703000057030000F8
:1000A00057030000570300005703000057030000E8
:1000B000570300005703000000000000000000008C
:1000C00057030000570300005703000057030000C8
:1000D00057030000570300005703000057030000B8
:1000E0005703000057030000C93B00000000000058
:1000F000000000005703000000000000570300004C
:1001000000000000000000000000000000000000EF
:1001100000000000000000000000000000000000DF
:1001200000000000000000000000000000000000CF
:1001300000000000000000000000000000000000BF
:1001400000000000000000000000000000000000AF
:10015000000000000000000000000000000000009F
:10016000000000000000000000000000000000008F
:10017000000000000000000000000000000000007F
:10018000000000000000000000000000000000006F
:10019000000000000000000000000000000000005F
:1001A000000000000000000000000000000000004F
:1001B000000000000000000000000000000000003F
:1001C000000000000000000000000000000000002F
:1001D000000000000000000000000000000000001F
:1001E000000000000000000000000000000000000F
:1001F00000000000000000000000000000000000FF
:10020000314932480A1A02D0072291438D463049BB
:1002100030480A1A06D00722914381F30988022246
:1002200082F314882C482D492D4A00F03CF82D48C3
:100230002D492E4A00F037F82D482E492E4A00F05D
:1002400032F82E482E492F4A00F02DF82E482F491B
:100250002F4A00F028F82F482F49304A00F023F8A1
:100260002F483049304A00F01EF83048304900220B
:1002700000F024F82F483049002200F01FF82F4AE0
:1002800090471F481F49884205D00268043003B4D4
:10029000904703BCF7E700208646EC46002000218B
:1002A000274A9047FEE7884207D0521A05D00378C4
:1002B00001300B700131013AF9D17047884202D008
:1002C00002700130FAE770470000042000C00320EC
:1002D0000000042000000420D86600000000002078
:1002E00034000020B8030000B80300007051000083
:1002F000D86600000000002000000020B45100007B
:10030000B4510000B4510000B4510000B4510000D9
:10031000B4510000B4510000B4510000D866000090
:100320000C6700003400002034000020340000205E
:10033000CC3A0020CC3A0020CC3A002085030000C3
:10034000B91C0000FEE7FEE7FEE7FEE7FEE7FEE77A
:10035000FEE7FEE7FEE7FEE700F002B8FFF7FCBFAE
:100360000F484FF00701884385460E4880470E48E6
:10037000016841F470010160BFF34F8FBFF36F8FCD
:10038000FFF73EBF09480A490A4A884207D0521A75
:1003900005D0037801300B700131013AF9D1704773
:1003A000000004201523000088ED00E0B451000097
:0803B000000000200000002005
:1003B800F0B595B01D46164608460C4600F04CFDB3
:1003C8001A9B0D93CDE9086500252B46082205A93F
:1003D80020460A958DF82C500C9500F051FD079B8E
:1003E8000293069B03939DF814308DF8115003F087
:1003F8000302012A1DD1BDF81420059DC3F3C203D1
:10040800C2F383168DF81030B20008230EA92046D7
:1004180000F036FDC5F3952508AB0093324602ABD4
:100428000EA9284600F03EF9204600F019FD15B047
:10043800F0BD022AF8D1BDF81650C3F3C203C5F3C4
:1004480089158DF810300827082D2E4628BF082654
:100458003B4632460EA9204600F012FDAD1B08AB04
:1004680002AA31460EA8374400F080F9002DEBD1DE
:10047800DAE70000014B01221A707047750000206E
:100488007047000070B5134D06460FCD88B06C4616
:100498000FC495E80F00002E84E80F004FF0FF33DB
:1004A8004FF00602CDE90023CDE902330A4A0B4892
:1004B8004FF0EB7308BF00226946069300F028FD51
:1004C80018B1074A432100F0ADF9064B1E7008B079
:1004D80070BD00BF2C5200007D0400000000002009
:1004E800B45100003400002007B5044B0093044ABF
:1004F8004023FFF75DFF03B05DF804FB0D05000026
:100508003500002038B50E4B0E4D002018700E48EF
:1005180004782D5DD2B21C4675B1043001F0A8FAFA
:1005280018B10A4A532100F07DF9094B1A7812B123
:100538002378002BFBD038BD0C3000F0D5FFEFE757
:10054800750000205C01002000000020B45100006C
:100558003400002008B50848084A0378D35C3BB14A
:10056800043001F001FABDE808400020FFF78ABF17
:100578000C3000F05BFFF6E7000000205C01002073
:1005880030B50A4C71B10A4A0A49121BD208002335
:100598009A4201D1002030BD31F82350854202D063
:1005A8000133F5E7034654F83300F4E780510000BF
:1005B800A051000000000020094B013903EBC000E6
:1005C800032909D8DFE801F00A020406042070476D
:1005D80000797047407970470020704702207047C3
:1005E8008051000007B503460846197A052911D03D
:1005F8005B7A2BB1094A0A49019000F0BBF90198CE
:100608000849019000F0B6F9019803B05DF804EBD1
:1006180000F09EB9002AF8D0F2E700BF6D52000042
:1006280072520000095F000030B5C38885B00446E7
:100638000D4633B1144A00921449154A284600F071
:1006480099F9217A05291DD0637A4BB1A088FFF763
:10065800B3FF104B104953F82020284600F08AF9C0
:10066800227A0E4BA08853F8222003920021FFF72C
:1006780087FF039A0A490346284605B0BDE830407B
:1006880000F078B905B030BD6D5200007D52000011
:1006980075520000005300007252000024530000FD
:1006A800955200002DE9F04385B01F460C9D0023AC
:1006B80095F80C902B7306460C469046294638460A
:1006C800FFF7B2FFB8F1060F09D8DFE808F0041207
:1006D800181F283340003146284600F04BF9002205
:1006E80029463846FFF77EFF85F80C9005B0BDE82F
:1006F800F08322683146284600F03CF9EFE7D4E958
:1007080000233146284600F035F9E8E7A36800934E
:100718003146D4E90023284600F02CF9DFE7E368E6
:100728000193A36800933146D4E90023284600F0DA
:1007380021F9D4E723690293E3680193A36800933E
:100748003146D4E90023284600F014F9C7E7636965
:10075800039323690293E3680193A36800933146E6
:10076800D4E90023284600F005F9B8E708292DE95F
:10077800F74F80460E4617461C463CD8002593F88E
:100788000C901D7319461046FFF74EFFDFF888A03E
:10079800DFF888B0AE4231D918F80520594620460E
:1007A80000F0E8F80135082DF4D11949194DDFF8A2
:1007B80070A0204600F0DEF84FF0000B5E4522D90D
:1007C80018F80B207E2A05D81046019201F0DEFEAB
:1007D800019A00B92E225146204600F0CBF80BF1C1
:1007E800010BBBF1080FE9D1012221463846FFF77A
:1007F800F9FE84F80C9003B0BDE8F08F514620460E
:1008080000F0B8F8CEE72946204600F0B3F8E6E74E
:10081800A9520000A7520000A55200009F520000F4
:10082800AB52000000B583B002900091019244F2EF
:10083800010071466A4601F03FFD03B000BD0000AB
:1008480072B6024A136801331360704748010020EA
:10085800034A1368013B136003B962B6704700BFCF
:1008680048010020EFF30583C3F308032BB9EFF326
:100878001480C04300F00100704701207047000059
:1008880008B5FFF7EFFF012803D00449432000F023
:1008980017F8BDE80840FFF7D3BF00BF3853000082
:1008A80008B5FFF7DFFF012803D00449512000F005
:1008B80007F8BDE80840FFF7CBBF00BF385300007A
:1008C80007B5CDE900016A46002144F2020001F0B3
:1008D800F3FC03B05DF804FB10B5034653E8002FA2
:1008E80002EB010043E8000494F0000FF6D110BDBC
:1008F80010B5034653E8002FA2EB010043E80004BB
:1009080094F0000FF6D110BD38B50C46054620B955
:100918000E4940F24710FFF7D3FF24B90B494FF4B3
:10092800A470FFF7CDFF0020FFF7AAFF2A6813681D
:10093800591C1160E968641A298AB4FBF1F41C7027
:10094800BDE838400020FFF7ABBF00BFA753000049
:1009580010B5044618B906493120FFF7B1FFA2685F
:100968002AB163692168206998470023A36010BDF4
:10097800115400000EB433B5059D044618B9114949
:100988004220FFF79DFF63691BB90E494320FFF71B
:1009980097FF23681BB90B494420FFF791FF636851
:1009A8001BB908494520FFF78BFF35B106AB01AAF3
:1009B80029462046019300F079F802B0BDE830409E
:1009C80003B07047115400000A2938B504460D4693
:1009D80002D10D21FFF7F8FFA3682268591CA16016
:1009E800D554D4E901329A4204D32046BDE83840B0
:1009F800FFF7AEBF38BD00002DE9F84F9846DDE996
:100A08000A43154682460F460A464FF00109AA4294
:100A18000FD2C14538BFC14613F0010B01D16CB9E3
:100A280000240126B8F1010F1BD908F1FF386E43E5
:100A3800F8E709F10109B2FBF5F2E8E79B070ED5E3
:100A4800B8F1000F0CBF30262026A145E9D2013CA1
:100A580031465046FFF7B8FF002CF6D1E0E72026D4
:100A6800F3E7B7FBF6F39D42E1D9DFF83C80B7FB2B
:100A7800F6F3504618F8031006FB1377FFF7A4FFA8
:100A88003346AB42B6FBF5F6F1D2BBF1000F02D00C
:100A98000CB1A14501D3BDE8F88F20215046013C97
:100AA800FFF792FFF4E700BFD85400002DE9F74F95
:100AB80088461746054620B9B14940F25220FFF74B
:100AC800FFFE6B6923B9AE494FF41570FFF7F8FEC6
:100AD8002B6823B9AA4940F25520FFF7F1FE6B684D
:100AE80023B9A74940F25620FFF7EAFEB8F1000FF4
:100AF80000F0428118F8011B49B92B7B002B00F04C
:100B08003B81284603B0BDE8F04FFFF721BF2529F8
:100B180040F0B780002698F800302D2B424608F1A7
:100B2800010823D0302B24D02B2B25D000242A2BAE
:100B380002F1010123D13B681A1D1B683A601C446D
:100B48000A4613782E2B26D101324FF0000A1046A0
:100B580010F8011BA1F1300CBCF1090F1DD80A23B4
:100B680003FB0A13A3F1300A0246F0E746F0010638
:100B7800D1E746F00206CEE746F00406CBE711F8C7
:100B8800013CA3F130000928DBD80A2202FB043417
:100B9800303C0A46CBE74FF0000A12F8011B01F07F
:100BA800FB0068289046F8D0782909D86F290CD816
:100BB800632962D022D8252963D0582900F088807B
:100BC80098F80030002B95D197E770390829F7D8A5
:100BD80001A353F821F000BF5B0D0000C90B000012
:100BE800C90B0000E90C0000C90B0000C70C00008D
:100BF800C90B0000C90B0000D90C0000642901D002
:100C08006929DDD13A68D2F80090111D89EAE972A4
:100C18003960A2EBE9724FF0010B092A35DCD345A4
:100C280038BFD3462CB1B9F1000F01DB720700D5EC
:100C3800013CB30702D5BAF1000F03D0F00701D485
:100C48004CBB0024B9F1000F2DDAC9F100092D21A0
:100C58002846FFF7B9FE06F00302022A04D1BAF1CA
:100C6800000F01D11CBB0024CDE9004653460A22DF
:100C780049462846FFF7C0FEA2E73B681A1D1978C7
:100C88003A602846FFF7A0FE9AE70A230BF1010B0A
:100C9800B2FBF3F2C1E7A345D4D220212846013C98
:100CA800FFF792FECCE77107D5D52B21D0E7A345F6
:100CB800DAD230212846013CFFF786FED2E73968B0
:100CC800CDE900460A1D3A6053460A220968D0E772
:100CD80039680A1D3A60CDE9004653461022F5E707
:100CE8003B681A1D3A6016F00106D3F8009028D127
:100CF800B9F1000F03D0484601F0CBFC0646B442D8
:100D080000D904BB09F1FF3919F8011F00293FF484
:100D180057AF2846FFF758FEF6E728460136FFF793
:100D280053FE19F806100029F7D1A642BFF448AFC0
:100D3800002C3FF445AF20212846013CFFF744FE34
:100D4800F3E70026EDE720212846013CFFF73CFEAB
:100D5800D5E73B681A1D3A60302128461C68FFF722
:100D680033FE78212846FFF72FFE00220823CDE91D
:100D78000032214610227CE703B0BDE8F08F00BFA7
:100D8800715400002DE9F74F99469DF830300093D3
:100D980088469346064618B92349B620FFF790FDC2
:100DA800F18872794A43043A4A4505D81E490192A6
:100DB800C420FFF785FD019ADBF80070B6F806A09D
:100DC80007EB0901914209F1040488BFA2EB090766
:100DD800B4FBFAF5CBF800700AFB154445B9AAEB49
:100DE800040BBB4528BFBB462FB903B0BDE8F08F45
:100DF8003668013DF2E7009B043408EB05003444F3
:100E08005A466BB12146A7EB0B0701F0C4FBBA4564
:100E18005D443668D3464FF0000428BFBB46E3E77D
:100E280001462046EFE700BFE8540000F8B54679D0
:100E38000146721E0546002393422D6803D3002401
:100E4800A64202D8F8BD0133F6E70F682846FFF737
:100E58005BFD01343946F3E701210430FFF73CBD5F
:100E680010B5012104460430FFF742FD10F0FF0FD2
:100E780004D12046BDE81040FFF7D8BF10BD0000E0
:100E88001FB5144603920122009203AAFFF77AFFC6
:100E9800039BA34204D003494FF48070FFF710FD71
:100EA80004B010BDE85400001FB503788DF8003079
:100EB8004368019383688DF80830C368054A039333
:100EC800054B684653F8213052F82110984705B071
:100ED8005DF804FB4C010020540100201FB5037885
:100EE8008DF800304368019383688DF80830C36833
:100EF800054A0393054B684653F8213052F82110F0
:100F0800984705B05DF804FB4C010020540100200F
:100F18002DE9F0411E4B90F8008043F828201D4B26
:100F28001646B8F1010F0A6943F8282088B0074629
:100F38000C4605D14B7F1BB917497620FFF7C0FC3B
:100F4800DFF860C0637F0CF808300FCC6D460FC522
:100F580094E80F0085E80F003B78CDF810801CF866
:100F6800033053B1002E0D4A694608BF3246381D7A
:100F780000F002FC08B0BDE8F081002E084A69467E
:100F880008BF324607F10C0000F064F9F2E700BF31
:100F9800540100204C01002052550000B10E000001
:100FA800E50E00005C01002010B5054C22681AB956
:100FB80004495120FFF784FC2368BDE81040184716
:100FC80060010020BA55000038B50D4628B90C4913
:100FD8007720FFF775FC002038BD0A4B9842FAD1FC
:100FE8000020FFF74DFC084B1C7914B901221D6045
:100FF8001A710020FFF754FC002CECD01120EBE70D
:10100800BA550000002000406001002018B90649C8
:101018009B20FFF755BC054B984201BF044B0022AB
:101028001A601A71704700BFBA55000000200040CE
:10103800600100200023435082B043580193019B74
:1010480002B070470A4610B54FF48E71FFF7F2FFF1
:10105800136A9168C95C136A01331362C0F81C15DE
:1010680010BD00000268530910B5044618D0012BC2
:101078004FF6FF7318BF002302F01F02D340DB07AF
:1010880004D409494FF4F670FFF71AFC23681F2BA4
:1010980083BF03F01F03054823604FF0A04010BD35
:1010A8004FF0FF33E8E700BF275600000003005069
:1010B80007B5019001A8FFF7D5FF019B03F5E07381
:1010C800022240F8232003B05DF804FB8B690A462E
:1010D80010B54FF4847123B9FFF7ACFFD0F8183579
:1010E80010BDFFF7A7FF536AD168D0F81805C85498
:1010F800536A01335362F3E71FB501238DF80030BB
:10110800044BCDE90110D3E900126846904705B0B9
:101118005DF804FB6801002030B54C48D0F8043372
:1011280013F4007F85B005464DD0D0F82431002B4C
:1011380049D04FF49271FFF77DFF4FF40173C0F867
:101148000833434B93F829200AB9012242603F49EA
:1011580002228DF80020D1F88024C1F8802403925F
:101168009A690292DA6801920022C3E90622684667
:10117800D3E9001290473548D0F81C315BB13449A7
:101188004A690B6A9A420A464AD991F82830002BD4
:1011980046D1FFF757FF2D48D0F844318BB14FF4B3
:1011A800A271FFF747FF2A4B93F829200AB10122C1
:1011B80002609A692AB10022586AD9689A61FFF7D1
:1011C8009BFF05B030BDD5F804335B07D3D5D5F800
:1011D8000831002BCFD01E4C1C482146FFF776FF64
:1011E800636AA2699A422346C5D1E269E1684AB1B5
:1011F8002369E3600023606AA261E3616362FFF729
:101208007BFFB8E794F829200AB901226A600F4ADF
:101218004FF40170C2F808030022586A9A61EEE799
:101228000A484FF48E71FFF705FF5369002BB2D0BF
:1012380051690291002391688DF800300191536142
:101248006846D2E900139847A5E700BF0020004090
:10125800680100202DE9F347054691460C4619B967
:101268006B49AA20FFF72CFB6A4B2E792C2202FB34
:101278000632984692F82A20002A40F0C48066492F
:101288002868FFF7A1FE0746002840F0BE802368C3
:101298005A1C13D001A80193FFF7E4FE019A012319
:1012A8009340C0F808352368019301A8FFF7DAFED8
:1012B800019B03F5E073032240F823206368581C60
:1012C80009D001A80193FFF7CDFE019B03F5E07358
:1012D800002240F823202B68A269C3F82425217D29
:1012E800627D0A43C3F86C25D4E900020129C3F8DA
:1012F8001425C3F80C052AD1A368591C09D001A8E4
:101308000193FFF7AFFE019B03F5E073002240F85D
:101318002320E3685A1C13D001A80193FFF7A2FE0B
:10132800019A01239340C0F80835E368019301A8A6
:10133800FFF798FE019B03F5E073032240F8232092
:10134800D4E902212B68C3F80815C3F810252C230B
:10135800734308EB0302C2F80490226948F803209B
:10136800B9F1000F3BD0286894F81C904FF48E71A7
:10137800FFF760FE28684FF4A271FFF75BFE2C6848
:10138800264AC4F80423B9F1070F4FEA143A44F384
:10139800073403D922496B20FFF792FA002CAEBF1D
:1013A80004F160431F4B0AF00F0A4FEA4919A8BF1E
:1013B80003F561435FFA89F9B4BF03F80A9083F82B
:1013C80000932B681A0B43F30733002B07DB02F05B
:1013D8001F0101228A405B09134941F823202B6829
:1013E8000422C3F800252C2303FB06830022C3E94B
:1013F800062283F829205A61012283F82A203846D8
:1014080002B0BDE8F0870827F9E71127F7E700BF22
:1014180058560000680100202111000080000200D9
:10142800BE56000014ED00E000E100E02DE9F843AD
:1014380003680579294E0022C3F800252C2202FBF7
:10144800056204465268A2B1254AC3F808231A0B5C
:1014580043F30733002B0CDB02F01F015B09012269
:101468008A4020331F4941F82320BFF34F8FBFF331
:101478006F8F2368D3F80C05D3F81495D3F8087543
:10148800D3F810854FF0FF329042C3F81425C3F803
:101498000C25C3F80825C3F8102501D0FFF708FE6E
:1014A800B9F1FF3F02D04846FFF702FEB8F1FF3F0F
:1014B80002D04046FFF7FCFD7B1C02D03846FFF700
:1014C800F7FD2068FFF7A2FD2C2303FB0565002329
:1014D80085F82A306B60BDE8F88300BF68010020FA
:1014E8008402020000E100E02DE9F84F344E07794C
:1014F80091462C2202FB0762054692F82A20012A0F
:10150800884604D02F494FF48C70FFF7D9F9B8F109
:10151800000F04D12B4940F21910FFF7D1F9B9F1A6
:10152800000F04D127494FF48D70FFF7C9F92B79C3
:101538002C2404FB0363D3F814B0BBF1000F3BD198
:1015480007FB046A2868CAF814904FF48E71CAF829
:1015580020B0CAF808808AF828B0FFF76BFD286821
:10156800012383605146FFF76DFDDAF804305446D5
:101578008BB92868DAF81480236A984511D82B6843
:10158800D3F81C21002AFBD00122DA602C2303FBAC
:10159800076300225A615846BDE8F88F94F828304E
:1015A8003BB9D0F81C31002BF8D05146FFF74AFD63
:1015B800E2E74FF00F0BE9E74FF0110BEBE700BF45
:1015C80068010020585600000023435082B0435859
:1015D8000193019B02B070470268530910B5044695
:1015E80018D0012B4FF6FF7318BF002302F01F021B
:1015F800D340DB0704D409494FF4F670FFF760F9CC
:1016080023681F2B83BF03F01F03054823604FF097
:10161800A04010BD4FF0FF33E8E700BF2756000099
:101628000003005007B5019001A8FFF7D5FF019B03
:1016380003F5E073022240F8232003B05DF804FBB1
:101648001FB501238DF80030044BCDE90110D3E913
:1016580000126846904705B05DF804FB940100202D
:101668007FB5434AD2F82461002E60D010464FF46B
:101678009271FFF7A9FF02238DF80030D2F8803469
:10168800C2F880340393D2F83C350293394BDA68B8
:1016980001920022C3E906226846D3E90012904766
:1016A8003348D0F8443173B14FF4A271FFF78CFF7F
:1016B800304B9A693AB10022C3E90622D968D0F8BA
:1016C8003C05FFF7BDFF2A48D0F82031ABB14FF4F5
:1016D8009071FFF779FF0123C360264B5A6962B105
:1016E800D0F84C150291002299688DF800200191DC
:1016F8005A616846D3E9001290471D48D0F858311E
:101708009BB14FF4AC71FFF75FFF1A4B5A6962B196
:10171800D0F84C150291002299688DF800200191AB
:101728005A616846D3E90012904704B070BDD2F8F8
:101738001031002BB4D04FF488711046FFF744FFE6
:101748000C4BD2F83C0599698842A9D1DC69D96863
:1017580064B1D2F8005225F02005C2F800521A6987
:101768009C61DA60DE61FFF76BFF99E79C61FAE73D
:1017780000200040940100202DE9F34705469146DA
:101788000C4619B97149CF20FFF79AF8704B2E799A
:10179800242202FB0632984692F82020002A40F0C4
:1017A800D1806C492868FFF70FFC0746002840F0F5
:1017B800CB8023685A1C13D001A80193FFF70CFFB4
:1017C800019A01239340C0F808352368019301A8C2
:1017D800FFF702FF019B03F5E073032240F8232083
:1017E8006368581C09D001A80193FFF7F5FE019B17
:1017F80003F5E073002240F823202B68A269C3F8A0
:101808002425217D627D0A43C3F86C25D4E9002094
:101818000129C3F80C25C3F814052AD1A368591C5B
:1018280009D001A80193FFF7D7FE019B03F5E073E8
:10183800002240F82320E3685A1C13D001A8019322
:10184800FFF7CAFE019A01239340C0F80835E36800
:10185800019301A8FFF7C0FE019B03F5E073032283
:1018680040F82320D4E902212B68C3F80815C3F8EF
:1018780010252423734308EB0302C2F8049022695D
:1018880048F80320B9F1000F4AD0286894F81C9052
:101898004FF48871FFF798FE28684FF49071FFF7AE
:1018A80093FE28684FF49271FFF78EFE28684FF474
:1018B800A271FFF789FE28684FF4AC71FFF784FE28
:1018C8002C68254AC4F80423B9F1070F4FEA143AE3
:1018D80044F3073403D921496B20FEF7F1FF002CAC
:1018E800AEBF04F160431E4B0AF00F0A4FEA4919D4
:1018F800A8BF03F561435FFA89F9B4BF03F80A90FA
:1019080083F800932B681A0B43F30733002B07DB8C
:1019180002F01F0101228A405B09124941F8232085
:101928002B680822C3F80025242303FB0683002222
:10193800C3E906225A61012283F82020384602B002
:10194800BDE8F0870827F9E71127F7E7F556000003
:10195800940100206916000010034200BE560000E2
:1019680014ED00E000E100E02DE9F8433D4E057973
:101978000468242303FB056302465B68ABB13A4B5A
:10198800C4F8083344F30733002B4FEA14310CDB57
:1019980001F01F005B09012181402033334840F8E2
:1019A8002310BFF34F8FBFF36F8FD4F8003223F0AB
:1019B8002003C4F80032242303FB05639B6933B179
:1019C8004FF4A2712046FFF7FFFD012363604FF437
:1019D800AC712046FFF7F8FD0123E360242303FBE5
:1019E8000563D4F858110029FBD0996919B1D4F8C6
:1019F80044110029F5D00023C4F800351368D3F842
:101A08000C05D3F81495D3F80875D3F810854FF062
:101A1800FF329042C3F80C25C3F81425C3F80825F3
:101A2800C3F8102501D0FFF7FDFDB9F1FF3F02D043
:101A38004846FFF7F7FDB8F1FF3F02D04046FFF7F1
:101A4800F1FD7B1C02D03846FFF7ECFD2046FFF77E
:101A5800DDFA242303FB0565002385F820306B603D
:101A6800BDE8F883940100201003420000E100E083
:101A78002DE9F047374F90F80480242303FB0873BF
:101A8800064693F82030012B8946924604D0324905
:101A980040F25310FEF714FFB9F1000F04D12E499C
:101AA8004FF4AA70FEF70CFFBAF1000F04D12A49CF
:101AB80040F25510FEF704FF337913B9BAF5803FA9
:101AC80004D325494FF4AB70FEF7FAFE09F06043E2
:101AD800B3F1005F3AD13379242505FB03735C69C0
:101AE800002C35D105FB08753068C5F814A04FF4F3
:101AF8009071C5F80890FFF767FD4FF4AC71306836
:101B0800FFF762FD33686A69A968C3F84415C3F82A
:101B1800482501229A606A68AAB9D3F82021D3F827
:101B280058411AB9002CF8D00F2407E0002CFBD13B
:101B38000122DA60D3F85821002AFBD0242303FBC2
:101B4800087700237B612046BDE8F0871024FAE778
:101B58001124F8E794010020F55600002DE9F04F14
:101B6800ADF5417D0DF1480840220021404600F0C6
:101B78003BFDDFF830A1DFF830B10026414DDFF83A
:101B88002C91002700E001274FF4807122A801F072
:101B980083FF402102A801F07FFFD5F8482205F510
:101BA800A37122A801F074FFB5F8442105F58271EC
:101BB80002A801F06DFF2B463A465146002000F07E
:101BC80049FBE6B94946304600F044FBD5F84832AF
:101BD8000093B5F84421D5F80001CDF8048022AB74
:101BE80002A901F01FFC044670B3274902460020F1
:101BF80000F030FB20460DF5417DBDE8F08F5946D9
:101C0800002000F027FBB5F84431D5F8001102AAEE
:101C180062A801F01FFB044610B11C490246E6E722
:101C2800D5F8482222A962A801F08CFB044610B11D
:101C380017490246DBE7414662A801F0A5FB0446C6
:101C480010B114490246D2E7D5F88C2205F5137174
:101C5800404601F005FF044620B10F49002000F07E
:101C6800F9FAC7E70D4900F0F5FA0D49204600F0EA
:101C7800F1FA05F52475002F85D0002EBAD13E461D
:101C88007CE700BF64570000CD5C0000055D0000E4
:101C9800285D00004D5D0000725D00008B5D000056
:101CA800935D0000845C0000EB5C0000B75C000002
:101CB80070B500F0DDFA044628B11A49002000F09A
:101CC800C9FA204670BD01F01BFE044638B116491A
:101CD8000246002000F0BEFA00F0E4FAF1E7134BE8
:101CE800134D1968286800F057FF044610B11149D0
:101CF8000246EEE7FFF732FF024670B10E49204672
:101D080000F0A8FA01F030FE286800F0A9FF0446A8
:101D18000028E1D009490246DBE7094900F09AFAB0
:101D2800F0E700BFAF5D0000CF5D0000A43A0020DF
:101D3800C0220020F15D0000135E00004C5E000030
:101D4800395E00000369C1688B429DBF8268D21862
:101D580002F1FF3203F1FF3394BF501A581A70474B
:101D68002DE9F843D0E902940546A9EB0408406838
:101D7800904520440F46144404D900F00CFCEC6054
:101D8800BDE8F8834246A4EB090400F004FC686847
:101D9800224607EB0801F0E72DE9F843C568064637
:101DA800894617464FF000083469B3687068A54241
:101DB80028BFE418013C621B5C1BBC4228BF3C46A0
:101DC800944228BF144649462844224600F0E3FBC3
:101DD800B3682544AB4208BF00253F1BA044A1447B
:101DE800F560E1D14046BDE8F883000010B5114C1C
:101DF800114AA2610223C4E90433104BE361A264CF
:101E080041F69C730E4A0F492362E26400231022B4
:101E1800E01DA3626362E362A3656365E36522650F
:101E280000F015FC0849204600F011FC2023A3719E
:101E380010BD00BFB80100207C5E000040020020F9
:101E480030020020855E0000895E0000F8B5184C5D
:101E5800182300FB033503FB00402544C46A012C0A
:101E68000F4616460FD0022C1AD0F4B92846FFF7B1
:101E780069FF864205D8324639462846FFF770FF83
:101E880034462046F8BD2846FFF75CFF86423446B4
:101E980028BF0446224639462846FFF761FFF0E787
:101EA8002846BDE8F840FFF777BF0024E9E700BF00
:101EB800B801002070B50B4B1B7804460D4616463A
:101EC8000BB9FFF793FF0020FEF7DAFC32462946EC
:101ED8002046FFF7BBFF04460020FEF7E1FC204642
:101EE80070BD00BFB8010020FFF780BF826810B541
:101EF80004464068531C834205D820688154A36077
:101F0800E3680133E360D4E901329A420BD12168D6
:101F18002069FFF7CFFFA368984215BF4FF0FF3342
:101F28000023E360A36010BD2DE9F84F9946DDE971
:101F38000A431646054688460A464FF0010AB24249
:101F480012D2CA4538BFCA4613F0010B01D184B971
:101F58000024EB68002B48DB0127B9F1010F1FD9DA
:101F680009F1FF397743F8E70AF1010AB2FBF6F203
:101F7800E5E79B0712D5B9F1000F0CBF30272027E2
:101F8800A245E6D239462846FFF7B0FFEB68002B9A
:101F980004F1FF34DDDB002CF2D1D9E72027EFE78D
:101FA800B8FBF7F39E42DDD9DFF84890B8FBF7F3AA
:101FB800284619F8031007FB1388FFF797FFEB680B
:101FC800002B03DBB7FBF6F3B74210D2BBF1000FCF
:101FD8000BD054B1A24508D220212846FFF786FF2E
:101FE800EB68002B04F1FF34F3DABDE8F88F1F46E5
:101FF800DCE700BF905E00002DE9F04F9BB00AAB14
:102008000E46059340210023CDE90613CDE908309B
:10201800039015464FF00A0A16F8011B39B9089BB8
:10202800002B00F30B8108981BB0BDE8F08F252921
:1020380040F0B5804FF0000B07E0302B0FD14BF08C
:10204800020B01E04BF0010B0E46314611F8013B43
:102058002D2BF7D0F1D8232B11D02B2B0CD000240B
:10206800314611F8013BA3F1300009280AD80AFBD0
:102078000434303C0E46F3E74BF0040BE4E74BF036
:10208800080BE1E72E2B0FD10E464FF00009304622
:1020980010F8011BA1F13007092F07D80AFB091313
:1020A800A3F130090646F2E74FF00009304610F870
:1020B800011B01F0FB07682F0646F8D0782909D8DC
:1020C8006F290BD8632966D020D8252967D05829CD
:1020D80000F09480089B002B9EDAA0E7703908294D
:1020E800F8D801A353F821F035220000DD200000C4
:1020F800DD20000015220000DD200000F321000093
:10210800DD200000DD200000052200006429E1D167
:1021180029680F68081D87EAE7712860A1EBE77155
:102128004FF0010809293EDCC84538BFC8462CB124
:10213800002F02DB1BF0040F00D0013C1BF0020F44
:1021480002D0B9F1000F04D01BF0010F01D17CBB04
:10215800002408990029BDDB002F35DA7F422D21A4
:1021680005A8FFF7C3FE08990029B3DB0BF00301AC
:10217800022904D1B9F1000F01D154BB00240899F8
:102188000029A7DBCDE9004B4B460A22394605A8B2
:10219800FFF7CAFE9EE72B681A1D19782A6005A862
:1021A800FFF7A4FE96E708F10108B1FBFAF1B9E7D9
:1021B800A045CED2202105A8FFF798FE089900294E
:1021C80004F1FF34C3DAC4E71BF0040FCBD02B2192
:1021D800C6E7A045D3D2302105A8FFF787FE0899A6
:1021E800002904F1FF34C8DAC9E72968CDE9004BB2
:1021F800081D28604B460A220968C8E72968CDE906
:10220800004B081D28604B461022F5E72B681A1D65
:102218002A601C6814F8011B00293FF45BAF05A86D
:10222800FFF764FE089B002BF4DA53E729680B1DBF
:102238002B6000220823CDE90032E5E7079A1AB19E
:1022480003980AA9FFF736FEDDE90723134408932C
:10225800E9E600BF0EB403B503AB01AA53F8041BAB
:102268000193FFF7C9FE02B05DF804EB03B07047B5
:1022780008B5074B074A1A60074B084A1A60FFF768
:1022880033FE07490020FFF7E5FF002008BD00BF27
:10229800C0220020DC210020A43A0020C422002013
:1022A800A05E000008B503490020FFF7D3FF30BF48
:1022B800FDE700BFD75E0000FEE70000024608B554
:1022C80002490020FFF7C6FFFEE700BF0C5F0000D1
:1022D800034B1868A0F1080358425841704700BFE3
:1022E80030010010064B1B68082B06D1054B1B68F4
:1022F800032B02D8044AD05C70470020704700BF07
:102308003001001034010010255F000008B5FFF708
:10231800DFFF40B14FF080430022C3F80C21C3F81F
:102328001021C3F83825FFF7D3FF002846D04FF017
:1023380080525E4BD2F80414C3F82015D2F8081462
:10234800C3F82415D2F80C14C3F82815D2F81014C1
:10235800C3F82C15D2F81414C3F83015D2F8181491
:10236800C3F83415D2F81C14C3F84015D2F8201459
:10237800C3F84415D2F82414C3F84815D2F8281421
:10238800C3F84C15D2F82C14C3F85015D2F83014F1
:10239800C3F85415D2F83414C3F86015D2F83814B9
:1023A800C3F86415D2F83C14C3F86815D2F8401481
:1023B800C3F86C15D2F84424C3F87025FFF792FFD0
:1023C80010B13B4B3B4A1A60FFF78CFF18B13A4BF0
:1023D800FB22C3F81825FFF785FF48B13749384B6A
:1023E8000A681B6822F00F0203F00F0313430B6007
:1023F800FFF778FF18B1334B4FF400721A60FFF7FC
:1024080067FF48B14FF08043D3F80024D20744BF98
:102418006FF00102C3F800242B4AD2F8883043F445
:102428007003C2F88830BFF34F8FBFF36F8F4FF040
:102438001023D3F80022002A03DBD3F80432002B40
:102448002FDA224B0122C3F80425D3F80024002AEE
:10245800FBD04FF010221221C2F80012D3F800244A
:10246800002AFBD04FF010231222C3F80422174B86
:102478001A46D3F800140029FBD00021C3F804152C
:10248800D2F80034002BFBD0BFF34F8F0E49104B0E
:10249800CA6802F4E0621343CB60BFF34F8F00BFFA
:1024A800FDE70C4B0C4A1A6008BD00BF00C0004095
:1024B8008C5600404881030000F00040E40E0040C4
:1024C800580200104096024000ED00E000E0014094
:1024D8000400FA051C0000200090D0037F2805D8CE
:1024E800034B185C034B5B5C184070470020704737
:1024F800385F0000B85F0000A0F16103192B98BF96
:1025080020387047A0F14103192B98BF203070473D
:102518007F2805D8034B185C034B5B5C1840704759
:1025280000207047385F0000B85F0000A0F1610329
:10253800192B98BF20387047A0F14103192B98BF79
:10254800203070477F299ABF017001206FF02E005C
:1025580070475AB10A787F2A0AD800B10260002170
:1025680019605960501A18BF012070470020704741
:102578006FF02E007047000008B5034B5B689B683E
:102588001B68984708BD00BF2000002008B5092136
:10259800FFF7F2FF08BD844640EA010313F0030F7A
:1025A80018D18446202A0BD32DE9F007B1E8F807A3
:1025B800A0E8F807A2F12002202AF7D2BDE8F00728
:1025C800042A07D351F8043B40F8043BA2F1040263
:1025D800042AF7D2002A05D011F8013B00F8013B84
:1025E800013AF9D1604670478446002A2DD010F090
:1025F800030F04D000F8011B013A26D0F7E7C9B24F
:1026080041EA012141EA0141202A12D3A2F1200224
:102618002DE9F0030B460C460D460E460F4688463C
:102628008946A0E8FA03203AFBD2BDE8F00320323D
:102638000BD0042A05D340F8041B043A05D0042A19
:10264800F9D200F8011B013AFBD1604670470246F7
:1026580010F0030F16D111F0030F13D12DE9F0007C
:102668004FF001374FF0803351F8044BA4EB0705C6
:1026780025EA04051D4002D142F8044BF4E7A1F114
:102688000401F0BC11F8013B02F8013B002BF9D121
:10269800704700F1010110F0030F11D010F8012B61
:1026A800002A23D010F0030F0AD010F8012B002ABB
:1026B8001CD010F0030F03D010F8012B002A15D0FE
:1026C8002DE970004FF001324FF0803350F8044B81
:1026D800A4EB020525EA04051D4000D1F6E7A0F1A8
:1026E800040070BC10F8012B002AFBD1A0EB0100FC
:1026F80070470000F0B5054699B01F4600230E4606
:10270800144605A819460322D5F8D05000F060FFFA
:1027180038BB0146AD00082303AA05A8CDE9034547
:1027280000F096FFE8B9611905A800F0B5FFC0B937
:1027380037B923461022314605A800F0C5FF80B9F5
:1027480005F1100302A9019100941946324605A823
:10275800029300F0F7FF044B002818BF184619B081
:10276800F0BD014819B0F0BD360CF0002DE9F04F6E
:10277800864C80469E460F4694460FCCB7B00DF166
:102788001C0A55460FC594E80F0004F1100685E8A9
:102798000F000FCE0FAD0FC596E80F00303485E857
:1027A8000F000FCC17AD0FC50FCC0FC594E80F0065
:1027B800D8F8D040CDF80CE0042C85E80F0001D003
:1027C800082C6BD1409A231DB2EB830F4FEA830B81
:1027D80003D06F4837B0BDE8F08F07EB0C019CFAC7
:1027E8008CF30CF118060CF109003B609BFA8BF591
:1027F800802326F00F06321A7D6038440B720021C0
:1028080001F048F9409B1B09ABF1100B00F0BB80AD
:10281800042C47D0DDF80C90CDF808B04B4617AD26
:10282800B1464FF0000823ACBB461E4624E0029F89
:10283800CDF814A0069700F00BFF03462946204662
:1028480010353BBB00F028FF84464FF0100E4B4676
:102858005A4649462046BCF1000F1BD10DEB0E0726
:10286800CDE90067CDF810E000F06CFF103688B9AC
:10287800409BB8EB131F58D200231946022220466A
:1028880000F0A6FE014608F10108082305AA204623
:102898000029CCD03F4837B0BDE8F08F3E4837B06C
:1028A800BDE8F08FDDF80C90CDF808B033460FADD9
:1028B8004E464FF0000823ACBB46994626E0029FDF
:1028C800CDF814A0069700F0C3FE0346294620461B
:1028D8001035002BDED100F0DFFE84464FF0100EDD
:1028E8004B465A4649462046BCF1000FD2D10DEB63
:1028F8000E07CDE90067CDF810E000F023FF103691
:102908000028C7D1409BB8EB131F0ED200231946ED
:102918000222204600F05CFE014608F10108082367
:1029280005AA20460029CAD0B4E7DDF808B0039DFF
:102938000023194601222046CDE9055B00F048FE38
:1029480001460028A6D1082305AA204600F080FEEB
:1029580000289FD105EB0B01204600F09DFE0146A3
:10296800002897D1409A284601F094F8409B00959A
:1029780040A901912A462046194600F0E3FE0028A6
:102988003FF428AF86E723ACD1E700BFDC61000045
:10299800230CF000360CF000210CF0002DE9F04378
:1029A8008FB0884607A91746044600F03FFF054642
:1029B80000284ED1D4F8D050042D01D0082D4ED186
:1029C800D4F8C4300C2B62D8B8F1000F45D02E1DB6
:1029D800760106AA04ABCDE90032029707A905AB38
:1029E80000222046059600F01BFC00283CD1069BDF
:1029F8000498D4F8C42023F00303083304F18409AD
:102A080018449200494601F043F8D4F8C400069AE5
:102A180004992B1D9E0002EB800200964B4620462F
:102A28000692FFF7A3FE054650B9B8F1010F33D05F
:102A38000346224649462046FFF75CFEB0B10546EC
:102A48002046E42101F028F838464FF4BF5101F040
:102A580023F828460FB0BDE8F0836E01B9E71B4D97
:102A680028460FB0BDE8F083194DE9E7D4F8D43013
:102A7800012243F00103C4F8D430C4F8CC20002369
:102A88004846C4F8C430402101F006F8DCE7114D8F
:102A980028460FB0BDE8F0833146204600F0FCFF21
:102AA8002B46224649462046FFF724FE0028C6D179
:102AB800D4F8D430084AC4F8CC8023F4803343F0E7
:102AC8000103C4F8D430C4F8DC20D8E7210CF000A6
:102AD800260CF000040CF000CDAB230170B50028E3
:102AE80049D00D46002943D0244E04464FF0FF310B
:102AF800306800F0F1FF90BB002001F081F850BB76
:102B080020462A460121FFF749FF0446012001F02B
:102B180077F8B8B9306800F0F9FF50B9012001F032
:102B28006FF808B9204670BD1548FFF7C7FB204667
:102B380070BD1448FFF7C2FB012001F061F80028BE
:102B4800F0D0F1E70E48FFF7B9FB306800F0DEFF80
:102B58000028E3D0EDE70C48FFF7B0FBD0E70B48BF
:102B6800FFF7ACFB002001F04BF80028C8D0F2E7D3
:102B7800074C204670BD074C204670BDC03A002067
:102B8800BC610000846100009C6100006C61000071
:102B9800200CF000250CF00000284CD0F0B50D46B4
:102BA80089B0002938D00446E42100F075FF01A956
:102BB800204600F03BFE10B1204809B0F0BD204F80
:102BC8004FF0FF31386800F087FF80BB002001F02C
:102BD80017F840BB01A92A46204600F02DFB0646FF
:102BE800012001F00DF8D0B9386800F08FFF78B9EE
:102BF800002EE1D12046E42100F04EFF2946204670
:102C0800FFF76CFF0F4B002818BF184609B0F0BD3E
:102C18000D48FFF753FBEBE70C4809B0F0BD0C4833
:102C2800FFF74CFBE0E70B48FFF748FBD2E70A4801
:102C3800FFF744FBCAE70948704700BF110CF000D2
:102C4800C03A0020120CF00084610000200CF00053
:102C5800BC6100009C6100006C610000250CF00064
:102C680028B108B5E42100F017FF002008BD01488D
:102C7800704700BF250CF00038B504464FF480605B
:102C880000F06AFF054D06480649074A00232B60F5
:102C980003600B682360136038BD00BFC8B10250E1
:102CA8002CB1025004B1025008B102500138072873
:102CB80005D8DFE800F00A0E0412040404060948E7
:102CC80070478B698B6000207047CB688B60002051
:102CD80070470B698B60002070474B698B60002040
:102CE800704700BF310CF1000B6802E0082B0B6045
:102CF80006D8426813424FEA4303F7D000207047D2
:102D080000487047310CF100084B094A002119604E
:102D18001368002BFCD107480749084A03604FF4A1
:102D280080604FF0FF330860136070472CB1025089
:102D380010B90250C4B1025008BA025008B102508A
:102D4800002877D0F8B50C46002971D01D46002B15
:102D58006ED0064622B1012200232A60C0F8D8307E
:102D68002B68002B62D029462046FFF7BDFF0028BC
:102D78005BD128682146FFF799FF002855D1364BCB
:102D88003649374A01271F609C460F60CCF800700F
:102D9800A368136011688B42F8D1324F3249334A25
:102DA800334B4FF0000CC7F800C004270F600A210E
:102DB80011606FF03A021A60079B012B4FF08053A5
:102DC8003AD0D3F8002C013243D0D3F8002C294B49
:102DD800A3FB02321209A368274C2849284F03FB9A
:102DE80002F303EB4303DB039B092360254B2C68A9
:102DF8000C601A60069A244C3A604FF48062226094
:102E080001224FF0FF3441F8C44C43F80C2CD6F89B
:102E1800D8302A6823F07F4343EA0263C6F8D830E3
:102E28002A6843EA0223C6F8D830F8BD1748F8BD27
:102E38001748F8BD16487047D3F80C2C013206D055
:102E4800D3F80C2C0B4BA3FB0232FA40C3E7162233
:102E5800C1E70622BFE700BFC4B1025040B102502B
:102E680030B102502CB102500CB1025038B10250AE
:102E780000B10250ABAAAAAAD8B10250CCB10250F4
:102E8800D0B10250D4B1025008BA0250310CF1004E
:102E9800350CF100F0B4C900002401F1FF3C2646CE
:102EA800274606E09F4216D00126654519D82C46CC
:102EB8001F46630904F01F0150F823301F2923FA25
:102EC80001F304F1010518BF03F00103002CE9D157
:102ED80001263546EBE701369642E6D10248F0BCBA
:102EE80070470020F0BC7047360CF100002861D014
:102EF8002DE9F0414C1EB4F5047F27D233B32AB331
:102F0800CD00012B05F1FF3E30D000218C460F4645
:102F18000E4603F1FF384C0901F01F0550F8244014
:102F28001F2D24FA05F418BF04F0010421B9012665
:102F3800B44631462746EEE7B34213D0A74201D143
:102F48000CF1010C464504D1624502D21A48BDE88D
:102F5800F0813C4601318E4506F10106EAD2002097
:102F6800BDE8F08100264FF0010CF3E70026B446D7
:102F780037463446610904F01F0350F821101F2B0F
:102F880021FA03F118BF01F001013CB15FB98C458A
:102F980001D0614608E00136614605E00126344665
:102FA8008C460127E6E73E46B242CFD30134AC4215
:102FB800F6D1D4E700487047370CF1002DE9F04FFF
:102FC80089B01D46149BDDF84CA004460E461746F2
:102FD8004BB94FF08053D3F8002C013200F0A98090
:102FE800D3F800BC08E04FF08053D3F80C2C013222
:102FF80000F0A280D3F80CBC7C480AF5C1622A60B4
:10300800129A00234FF0FF31136000F065FD00288D
:1030180040F08680764A774B774910600432196011
:1030280013680693069BD907FAD5714A714B00219C
:1030380011601B680793043213680793079BDB072B
:10304800FAD56C4B6D4A1B680793DDF81C90136822
:103058000793079BD807FAD5644800F057FD002866
:103068005AD1654B994540F0B680D4F8D43013F462
:1030780000790ED1D90512D52B68129A1B681360F6
:103088003BB1D4F8D4309B055BD5484609B0BDE8C0
:10309800F08FDFF87C91484609B0BDE8F08F002F2B
:1030A80000F08780564A574B1168B2681B689A42ED
:1030B80045D10A2943D194F8DB3005930AF5C26A51
:1030C800042500274FF0805804A8FFF7D5FD049881
:1030D800820602D510F01A0039D0D4F8D810059A13
:1030E8000B0A03F47F030B4323F07F43082AC4F839
:1030F800D83077D0149B4FEA420CCDE900730022F8
:1031080005AB31462046CDF814C0FFF719FE00285C
:103118005FD1013DD8D1B4E73B48FFF7CFF8A0E72E
:103128003A48DFF8F090FFF7C9F8484609B0BDE81B
:10313800F08F4FF0900B5FE74FF4047B5CE7DFF80C
:10314800D890FFF7E1FD484609B0BDE8F08F129B23
:103158005246C3F800B0594600F09AFB002838D10F
:10316800D8F8043C129A013318BFD8F8043C116807
:1031780008BF51230293D8F8083C01332ED0D8F861
:10318800083C03934B1EB3F5047F0FD2029A0291B9
:103198005046FFF77FFE48B90299039A4FF48063BF
:1031A8005046FFF7A3FE00283FF46BAF129B1F6049
:1031B80093E723F00F03C4F8D430149B0122CDE920
:1031C8000093314605AB2046FFF7BAFD00283FF4CF
:1031D80075AF814655E7DFF83C9056E740F2373344
:1031E8000393CFE7DFF834904BE700BFC83A0020DD
:1031F80004BF025000BF025012FA12FA08BF025070
:1032080038B1025030B10250846100006C61000096
:10321800330CF000350CF000300CF100320CF100EA
:1032280030B4DDE90234049D02940024CDE903544E
:1032380030BCFFF7C3BE00BF10B586B005AB012494
:10324800CDE901240093002204ABFFF7B7FE06B0D6
:1032580010BD00BF002864D02DE9F0419046B0B001
:10326800002A60D01E46002B57D002290D4604467E
:103278001FD9CB1E012B1ED880274FF4BC712046C6
:1032880000F00AFC802110A800F006FCBE4232467D
:10329800414614D96B46284600F082FE60B9042DD9
:1032A80009D8224B694633F8152010A800F0F0FB26
:1032B80008E04027E1E71E4830B0BDE8F08110A8DB
:1032C80000F0E6FBBE08201D10A9002251F8043BBF
:1032D800013283F05C33B24240F8043BF6D300215C
:1032E80010AA1368013183F036338E4242F8043B4A
:1032F800F7D804F188063046294600F021FD002859
:10330800DAD13A4610A9304600F07EFD0028D3D124
:10331800084BC4F884502360CEE7074830B0BDE8B6
:10332800F081064870470648C6E700BF4C620000B7
:103338000103F000896745230703F0000003F0004C
:103348000603F000B0B170B40B4D0668AE4205D16B
:1033580039B162B170BC883000F056BD074870BC06
:103368007047002A064870BC08BF00207047104606
:1033780070BC704703487047896745230203F00013
:103388000303F0000003F00070B3F0B51F4B0268B0
:103398009A4291B0044624D10D4639B3D0F884300E
:1033A80000F18806032B3046694634BF4027802742
:1033B80000F0AAFD08B111B0F0BDD4F88410304671
:1033C80000F0BEFC0028F6D13A46211D304600F038
:1033D8001BFD0028EFD1D4F88430042B08D90C4801
:1033E800E9E70C4811B0F0BD0B4870470B48E2E71D
:1033F8000B4A6946D25C304600F006FD0028DAD157
:103408002946304600F080FDD5E700BF896745238F
:103418000103F0000203F0000003F0000503F000D0
:10342800586200002DE9F043ADF50F7D002900F04A
:10343800B3801446002A77D0022806461F468946DC
:1034480023D9C31E012B23D84FF0800830AD28465E
:103458004FF4BC7100F020FB802110A800F01CFB89
:103468004445224649461FD96B46304600F098FD30
:10347800044678B9042E00F292804C4B694633F822
:10348800162010A800F004FB11E04FF04008DDE71B
:10349800474C30AD28464FF4BC7100F0FDFA204689
:1034A8000DF50F7DBDE8F08310A800F0F1FA4FEAA2
:1034B800980010AC2946002254F8043B013283F0EE
:1034C8005C33824241F8043FF6D3002110AA136806
:1034D800013183F03633814242F8043BF7D352A8D6
:1034E800314600F02DFC04460028D3D1424610A9ED
:1034F80052A800F089FC04460028CBD1DFF8CC8024
:10350800969BC5F88460C5F8008087B18BB13946B1
:103518001A4652A800F078FC04460028BAD12B6855
:10352800434506D0234CB5E7234C30ADB2E7002B1A
:1035380037D1979B002B36D0D5F8843010A9032BB0
:1035480052A834BF4026802600F0DEFC044600283E
:10355800A0D1D5F8841052A800F0F2FB0446002848
:1035680098D1324631A952A800F04EFC04460028F2
:1035780090D1D5F88430042B11D8104A10A9D25C08
:1035880052A800F041FC0446002883D1979952A81C
:1035980000F0BAFC04467DE7094C30AD7AE7044CEC
:1035A80078E7084C76E7084C74E700BF4C620000E7
:1035B8000103F0000203F0000703F0005862000066
:1035C8000603F0000303F0000503F00089674523B4
:1035D80078B3032A70B50E461546044601D9052A64
:1035E8001CD1012E18D8ABB9022D19D0052D17D032
:1035F8004C21204600F050FA052D88BF4FF0FF32CD
:1036080013D900200123C4E90826C4E90B00C4E942
:103618000D3370BD094870BD094870BD094870BDBB
:1036280056B94C21204600F037FA074B53F82520AD
:10363800E7E74FF470007047044870BD0E00F000D3
:103648000600F0000200F000606200001200F000C6
:10365800C8B110B50C4682B18CB9082B0DD153688E
:10366800102B0ED1136843B101238362D2E90012F3
:10367800103000F00DFA204610BD044810BD044873
:1036880010BD044810BD4FF4700070470400F000EE
:103698000500F0000300F00070B108B5036A013BB3
:1036A800022B05D831B1102200F0F2F9002008BD34
:1036B800034808BD034808BD4FF47000704700BFB9
:1036C8000200F0000100F00038B349B31AB338B56E
:1036D80012F00F051BD1046A24F00404032C01D056
:1036E80003B31D4613462A4600F0B6FE58B1A0F5AE
:1036F8007100052818D8052816D8DFE800F005035A
:103708000A0303080A4838BD4FF4700038BD094859
:1037180038BD094838BD074870474FF470007047F6
:1037280006487047064838BD4FF4750038BD00BFDD
:103738000200F0000A00F0000600F0000800F000A7
:103748000900F000F8B5079F48B30E460546002A61
:1037580035D0994239D8002F41D02B6A23F0040183
:10376800032906991FD0002932D03968B14233D3D2
:10377800300703D0012B1CD8EB6A23B3114633461C
:10378800069A284600F074FF044660B3A0F5710459
:10379800052C37D8DFE804F00310251010174FF474
:1037A80070042046F8BDA9B139680F2914D931072A
:1037B800E4D0032BE2D1DFE7144C2046F8BD002902
:1037C800C9D0134CEDE7134CEBE7134C2046F8BD7A
:1037D800002ED3D0114CE4E7114C2046F8BD114C13
:1037E800DFE7114CDDE72B6A23F00403032B01D03C
:1037F8003E60D6E706982946102200F049F91023C2
:103808003B60CEE74FF47504CBE700BF0200F00041
:103818000800F0000A00F0000C00F0000900F000B9
:103828000D00F0001100F0000600F00030B5042291
:1038380085B00123C0F8D0200B6068460023CDE98D
:103848000033CDE902330C4600F04EF80546C8B9FE
:10385800DDE90030DDE90212E360003BC4E9040160
:1038680018BF0123A26108B143F0020309B143F074
:1038780004030AB143F00803002228466360A260EB
:1038880005B030BD0148FEF719FDE1E77862000098
:1038980030B585B004460D46104803924FF0FF310D
:1038A80000F01AF9039A68B920460095012300210F
:1038B80001F012F90446094800F028F938B9204601
:1038C80005B030BD0648FEF7F9FC039AECE7054859
:1038D800FEF7F4FC204605B030BD00BFC83A002012
:1038E8006C6100008461000000234FF4FA714FF40A
:1038F8007A72C0E900228160C3601846704700BF31
:1039080010B500F039F8A0B900F012F920B103247D
:1039180000F078F8204610BD00F072F9034680B92F
:103928000D4A1268120EF02A06D0052400F006F996
:10393800EEE70424204610BD0849094A0968914267
:1039480001D00624F2E7074A0120136000F058F975
:1039580004460028DED0E8E728B9025024BA02500D
:103968000000E0200CBA025008B500F0E7F8BDE806
:10397800084000F047B800BF08B5184800F090F8B4
:1039880098B9174800F08CF8B8B9164800F088F8CC
:10399800D8B9154B124A15481A6000F081F8C0B919
:1039A800134B124A1A60002008BD1248FEF786FC25
:1039B8000B4800F075F80028E7D00F48FEF77EFCAA
:1039C800084800F06DF80028E3D00C48FEF776FCB4
:1039D800DFE70B48FEF772FCE2E700BFC83A0020B9
:1039E800B83A0020C43A0020C03A0020BC3A00206F
:1039F800B03A0020A8620000C4620000E062000043
:103A08000063000008B500F029F80F4800F056F8E8
:103A180004210D4800F040F80C4800F04FF80B481E
:103A2800042100F039F80A4800F048F840B909487C
:103A380000F044F8BDE808400648042100F02CB81E
:103A48000548FEF73BFCF2E7C83A0020B83A0020E8
:103A5800C43A0020BC3A0020E0620000704700BF72
:103A6800A2B1013A30B401398518421E002012F87B
:103A7800013F11F8014F954283EA040340EA03002D
:103A8800F5D1003818BF012030BC70471046704788
:103A9800FEF781BDFEF7A8BD0A460021FEF7A4BDCA
:103AA80010B5044610B10020206010BD0248FEF792
:103AB80005FC0020206010BD2063000010B50446FE
:103AC80010B10020206010BD0248FEF7F7FB00206F
:103AD800206010BD2063000010B5044680B10123AA
:103AE800BFF35B8F54E8002F44E800310029F9D177
:103AF800BFF35B8F012AF3D0BFF35F8F002010BDA7
:103B08000148FEF7DBFBEAE74463000010B5044612
:103B180020B1BFF35F8F0020206010BD0348FEF77F
:103B2800CDFBBFF35F8F0020206010BD64630000F1
:103B3800014B002018607047A83A00200020704709
:103B4800014B1860704700BF08BA0250014B18605B
:103B5800704700BF04BA025010B5044682B0C0B125
:103B6800124A134BC14311601B680193019B184211
:103B78000AD1104A20BFBFF35B8F1368BFF35B8F76
:103B88000193019B2342F5D00B4B1C60019802B0B6
:103B980010BD0A48FEF792FB044A054B4FF0FF316F
:103BA80011601B680193019BE3E700BF04BA025050
:103BB80000BA0250A83A002008BA025084630000F4
:103BC8000B490C4B0C4A4FF0FF3008601B68BFF3E1
:103BD8005B8F52E8001F42E800300028F9D1BFF39C
:103BE8005B8F9942F3D1BFF35F8F044A136070472C
:103BF80004BA025000BA0250A83A002008BA02508B
:103C080038B54FF0FF3104461E48FFF765FF08BB83
:103C18001D4A54B11368C3B1012B1CD0013B13607A
:103C2800BDE838401748FFF771BF106858B9174CFE
:103C3800174B18490125C4F800554FF480645C609F
:103C48000B68002BFCD101301060BDE838400D48EE
:103C5800FFF75CBF38BD0F490B68002BFCD10B4840
:103C68000B49C0F800354FF48063C1F88430BFF3C6
:103C78004F8FBFF36F8F084B6FF07E411960136849
:103C8800CCE700BFC43A0020AC3A002000A00250A4
:103C980000E100E010B9025004BA02502DE9F041E9
:103CA8000546D0E917301E1AB6FBF3F403FB14647B
:103CB800944228BF1446174688469CBB984224D095
:103CC800B7FBF3F403FB04F46CB1D5F8E8302246F3
:103CD800414628469847064610B93E1BA0442EB9CF
:103CE8003046BDE8F0813E46002EF9D0286E1930E6
:103CF80005EB800032464146FFF7CAFE2A6E324481
:103D08002A6600263046BDE8F0811A4605F16401AE
:103D1800D5F8E8302846984706460028E0D1EB6DEC
:103D28002866CDE705F1640318442246FFF7B0FE84
:103D3800D5E917302044A0443F1B2866BEE700BFE2
:103D4800002849D038B50D46F0210446FFF7A4FEF7
:103D5800042D04D8DFE805F01E2A310305001F48AA
:103D680038BD1F491F4A204BC4F8E430C4E93A1251
:103D7800032580202560E065204698471B4B984224
:103D8800EDD021D80028EBD0B0F5720F21D1A0F5E5
:103D9800FF3038BD164B1749174AC4F8E4300025E0
:103DA8004020C4E93A122560E065E5E7104B114967
:103DB800114AC4F8E4300225F2E70D4B0D490E4ACA
:103DC800C4F8E4300125EBE70C4B984201D10C48CC
:103DD80038BD4FF4750038BD0A4870470102F0003D
:103DE800114900009D490000DD4800000100F20073
:103DF800AD40000001410000294300000200F2002C
:103E08000202F0000002F0002DE9F041002853D032
:103E1800154622B30E46002961D0D0F80480044626
:103E2800B8F1000F20D1D0E91723D01AB0FBF2F770
:103E380002FB1707AF4228BF2F4687BB9A4224D000
:103E4800B5FBF2F702FB07F747B1D4F8E8303A467A
:103E5800314620469847A0BB3E44ED1B4DB94FF074
:103E680000084046BDE8F081DFF88C804046BDE898
:103E7800F081206E19302A46314604EB8000FFF7A6
:103E880007FE226E2A442266EBE7D4F8E83004F1F4
:103E9800640120469847A0B9E26D2066D0E704F196
:103EA800640018443A46FFF7F3FDD4E917233B446E
:103EB8003E44ED1B2366C1E7DFF838804046BDE885
:103EC800F0810B4B984210D0013398420AD0094B2D
:103ED800B0F5720F14BF4FF475089846C1E7DFF8C4
:103EE8001C80BEE7DFF81880BBE7DFF81880B8E76A
:103EF8000100F2000002F0000C02F0000302F000E2
:103F08000202F0000102F00070B5002837D00E461A
:103F1800002937D0026E0446DAB9114601236360DE
:103F28002046D4F8E8309847B0B9D4F8EC302046A9
:103F380098470546C0B923682066032B1CD8144A45
:103F480004F1080152F823203046FFF7A1FD284666
:103F580070BD00F16401E1E7A0F57203022B13D8EC
:103F6800A0F5FF35284670BDA0F57203022B0BD8CB
:103F7800A0F5FF35284670BD064D284670BD064D94
:103F8800284670BD054DE2E74FF47505DFE700BF31
:103F9800B46300000102F0000002F0000502F00026
:103FA800F0B5BDB004460E466846F02117461D46DA
:103FB800FFF772FD042C2FD8DFE804F030351F2EF0
:103FC8000300032300938023294A1793294B2A4C83
:103FD8003994CDE93A236846A047284CA0421BD023
:103FE80032D828B3B0F5720F3BD1254C6846F02182
:103FF800FFF752FD20463DB0F0BD224C224A3994CD
:104008000123009340231793204B6846CDE93A23B8
:10401800A0471A4CA042E3D11D4CE7E7194C1A4AB5
:1040280039940023EDE7174C174A39940223E8E73F
:104038008FB1DEB1019BBBB93A4631466846FFF7FE
:104048002DFEA042E8D004D9124B984209D1124C57
:10405800CCE70028C6D129466846FFF755FF044635
:10406800C4E74FF47504C1E70C4CBFE70C4CBDE73F
:10407800114900009D490000DD4800000100F200E0
:104088000002F000AD40000001410000294300009B
:104098000102F0000200F2000202F0000C02F0003F
:1040A8000302F000E8B110B50468012C04D0022C1A
:1040B80010D044B10C4810BD0C4908302022FFF73D
:1040C800E7FC002010BD0A4908301422FFF7E0FC85
:1040D800204610BD074908302022FFF7D9FC0020F0
:1040E80010BD4FF4720070470100F200F863000041
:1040F800C4630000D8630000002800F0DE80F8B533
:1041080003680E4615460446002B00F0B480013BB8
:10411800012B00F2C3806A484FF0FF310227FFF7F6
:10412800DBFC002840F0B0800020FFF769FD002884
:1041380040F0BB80634A1368002BFCD1624A1368C5
:10414800002BFCD161480368002BFCD14FF0FF30F5
:10415800FFF7F6FC5E4B186820F04000FFF7F6FC0E
:104168005C485D4A5D4901230360072010600B60CD
:10417800A2F59A72A36C1360594BE16C51601F60F1
:1041880023685BB1013B012B17D8564B626A1A6052
:10419800226A43F8042CE26943F8082C524BA269BE
:1041A8001A60626943F8042C226943F8082CE26813
:1041B80043F80C2CA26843F8102C434A1368002BD0
:1041C800FCD1002D53D06368012B04BF474A13600C
:1041D800474A484B166040201D60FFF7BDFC3A4A2D
:1041E8001368002BFCD1394A1368002BFCD12368D3
:1041F8005BB1013B012B17D83A4A3F4B1268626208
:104208001A682262043B1B68E361374A3B4B126819
:10421800A2611A68626153F8042C226153F8082CD1
:10422800E2600C3B1B68A360354A364B1268A264F7
:104238001B682A4D2D483449E364234A002301248E
:104248002C6003600B601368002BFCD12149204AC5
:104258000B60106840F04000FFF778FC0120FFF782
:10426800CFFC30BB1648FFF751FCC8B9F8BD264B48
:1042780004221A60B3E712484FF0FF310127FFF715
:104288002BFC00283FF450AF2048FEF717F8002019
:10429800FFF7B6FC00283FF44DAF06E01C48F8BD18
:1042A8001C48FEF70BF80020F8BD1B48FEF706F87F
:1042B80040E71A48FEF702F8D4E74FF47200704757
:1042C800C83A00201CB9025010B9025020BC025054
:1042D80004BA025018B8025000B90250C4B70250CC
:1042E800C0B702505CB6025050B6025084B60250B5
:1042F80028BC02502CBC025058B602504CB6025092
:10430800CCB70250D0B70250C8B702506C61000059
:104318000100F200846100009C610000BC610000A3
:1043280000283BD0F0B482B0436A0193836893FAC3
:1043380083FC019BD0E90712D0E90376D0E9055444
:104348001BBA4362436C019309BA836AC16112BA0A
:1043580002623FBAD0E90F1236BA2DBA24BAC0E9C0
:1043680002C7C0E90465C76A066B456B846193FAA6
:1043780083FC846B019B3FBA36BA2DBA24BA09BABA
:1043880012BA1BBAC0E90AC7C0E90C65C0E90E41F8
:10439800C0E91023002002B0F0BC70474FF472004F
:1043A800704700BF38B5224B224A012105461960E3
:1043B8001368002BFCD1204A1368002BFCD11F4A3C
:1043C8001368002BFCD11E4A1368002BFCD11D4B2F
:1043D8001C68002CFCD14FF0FF30FFF7B1FB2B6AB3
:1043E80023F00403032B184B18680CBF20F040007F
:1043F80020F08000FFF7AAFB144B00221A602B6AFA
:1044080023F00402032A18BF6C6A114A4FEA830397
:1044180018BF04F0010403F01C031C4314602B6A4A
:10442800072B02D10B4B01221A60002038BD00BFB8
:1044380000B9025070B4025020BD025020BC025096
:1044480038BD025038BC025004BA0250BCB4025005
:10445800C0B402507CB40250002800F0BF80F8B508
:104468001D46436B0E4617460446002B35D0012BDC
:1044780002D1B5F5803F33D265484FF0FF31FFF7E1
:104488002BFB002857D10020FFF7BAFB00284ED19C
:10449800604B01221A60236A032B28DC002B28DAE0
:1044A8005D4A1368002BFCD15A4A1360236A23F033
:1044B8000403032B594B18680CBF40F0400040F030
:1044C8008000FFF743FB0120FFF79AFB002836D155
:1044D8004F48FFF71BFB28B9F8BDB5F5805FCBD374
:1044E8004F48F8BD4F48FDF7E9FE0020F8BD072BFF
:1044F800D6D1636A012BD3D8636B012BD0D8A36BB9
:10450800012BCDD82046FFF74DFF0028C8D1A36A5C
:10451800012B6CD033F0020263D0236A5A1E062A9C
:104528001BD8DFE802F0104B101A1A1A10003E4888
:10453800FDF7C4FEACE73D48FDF7C0FEA3E73C48E5
:10454800FDF7BCFEC4E73B4B22681A6062685A60FC
:10455800A2689A60E268DA60236A23F00403032BF6
:1045680031D0A36B012B4CD0334A344B1760202039
:104578001D60636B012B2CD0314A324B16601D60D5
:10458800FFF7EAFA244A1368002BFCD1236A013B9F
:10459800062B10D8DFE803F00414040F0F0F0400F3
:1045A800244A294B126822601A6862605A68A2601D
:1045B80008331B68E3600123236371E7234BC3E7D8
:1045C800224A234BEEE7636B012B01D01020D3E77F
:1045D8004020204A204B16601D60D1E74FF471003F
:1045E80070471E491E4A0B600123136095E71D4B57
:1045F80022691A6062695A60A2699A60E269DA609F
:104608008BE7194A194B176080201D60B1E700BF7E
:10461800C83A002010B8025010B9025004BA02502B
:104628000500F100846100009C6100006C610000DD
:10463800BC61000040B4025030BD025034BD02508D
:1046480030BC025034BC025044B4025060B4025032
:1046580064B4025028BC02502CBC025038BA025034
:1046680078B4025000B4025028BD02502CBD02504C
:104678002DE9F041002800F081801D46036A072BD0
:104688000F46044616D055B9032B0FD1036B6BB9EF
:10469800C0E90F55C0E9115500F13C0710252B461C
:1046A80039462046BDE8F041FFF7D6BE2E463046D3
:1046B800BDE8F081436B002B37D1B5F5805F39D267
:1046C80015B9236B002B35D167484FF0FF31FFF741
:1046D80003FA002840F097800020FFF791FA00289D
:1046E80040F09980614B01221A60236A032B23DC76
:1046F800002B23DA5E4E5F4A1368002BFCD15B491E
:104708005D4A0B60106840F04000FFF71FFA012077
:10471800FFF776FA00287AD15348FFF7F7F900280F
:10472800C5D05648FDF7CAFDC1E7012BC8D1B5F57C
:10473800803FC5D3524EBAE7072BDBD1636A012B02
:1047480078D8636B012B57D8A36B012B00F28480B8
:104758002046FFF727FE06460028CCD1A36A012B86
:104768006AD033F0020271D0236A013B062B13D8BA
:10477800DFE803F009440912121209004FF4710628
:104788003046BDE8F0813F4B22681A6062685A6083
:10479800A2689A60E268DA603B493C4A01230B60F0
:1047A8001560002D3BD1226B0AB9394A1360314B91
:1047B8001E68002EFCD1236A013B062B9BD801A260
:1047C80052F823F0E947000009480000E9470000D3
:1047D800FF460000FF460000FF460000E9470000D2
:1047E800284A2C4B126822601A6862605A68A260D4
:1047F80008331B68E3607EE7274E7CE7274BC3E757
:10480800264A274BEEE72748FDF758FD64E7264878
:10481800FDF754FD80E72548FDF750FD62E7636B1F
:10482800012B1BD0224A234B176010201D60FFF775
:1048380093F9BCE7204E5EE7204B22691A60626953
:104848005A60A2699A60E269DA608DE71C491D4ADC
:104858000B600123136087E71B4E4CE71B4A1C4B78
:10486800176040201D60E2E7C83A002010B80250E7
:104878000100F10010B9025004BA0250846100002E
:104888000500F10040B402507CB40250BCB40250A0
:1048980024B5025044B402500300F10060B4025041
:1048A80064B402506C610000BC6100009C610000AF
:1048B80030BC025034BC02500200F10000B4025077
:1048C80038BA025078B402500400F10028BC0250F3
:1048D8002CBC025078B110B50368032B044601D0F4
:1048E800064810BD064940220830FFF7D1F8054BAD
:1048F800A365002010BD4FF4720070470100F2005C
:10490800186400007856341200283CD02DE9F04392
:104918001E4B9046826D9A42A1B0064603D01C48B1
:1049280021B0BDE8F083D0F85C90B8FBF9F707FB3D
:1049380009F30C460422D900483000F033F914F08A
:10494800030514D0C1450ED8F26D002521466846EE
:10495800FFF79EF86946304600F06AF90135F26DB6
:10496800AF421444F2D8002021B0BDE8F083C1451D
:10497800F9D82146304600F05BF90135F36DAF42B6
:104988001C44F6D8EFE74FF472007047785634129B
:104998000200F200002800F098802DE9F0414C4B0D
:1049A800826D9A42E0B0804603D04A4860B0BDE8C4
:1049B800F081016E00F148052846C900042200F084
:1049C800F1F8D8F8543020A84FF4807200211CBAAE
:1049D800FFF760F8D8F85C20E308B3FBF2F402FBB9
:1049E8001434141B102C98BFA41820ABA4F1100089
:1049F80018442946102280258DF88050FFF748F882
:104A08002A46684608F16401FFF742F8D8E91723F7
:104A18000DEB05010DEB0300D21AFFF739F8D8E9C1
:104A28001753ED1AADB26946404600F001F9A542A8
:104A38003FD3D8E90641D8E90823D8E90207D8E9DD
:104A4800046500BA3FBA24BA09BA12BAC8E90270B2
:104A580036BAD8F83400C8F81C402DBAD8F8304017
:104A6800C8F818101BBAC8F82420D8E90F12D8F8CB
:104A78003870C8F81460C8F81050D8F82860D8F80A
:104A88002C50C8F82030D8F8443024BA00BAC8E905
:104A98000C0436BA2DBA3FBA09BA12BA1BBA0020AA
:104AA800C8E90A56C8E90E17C8E9103260B0BDE86F
:104AB800F08120AB59196846D8F85C20FEF7E8FF6A
:104AC8006946404600F0B4F8B3E74FF47200704707
:104AD800785634120200F200F8B5069E002E33D044
:104AE80001292FD8012B31D81C4C074600251C481A
:104AF80025600468002CFCD11A4D2C68002CFCD1D0
:104B0800194D2C68002CFCD1184D2C68002CFCD1B8
:104B1800174D2C68002CFCD1012B19D01548164BC9
:104B2800026020201E6001290BBF144B144B154A4C
:104B3800154A17601E60FFF70FF8144B1868002815
:104B4800FCD1F8BD1248F8BD1248F8BD1248F8BDAE
:104B58001248134B026080201E60E4E700B902503F
:104B680070B4025020BD025020BC025038BD025023
:104B780038BC025030BD025034BD02502CBC02502B
:104B880034BC025028BC025030BC025010B902504C
:104B98000200F4000100F4000300F40028BD0250F4
:104BA8002CBD0250F0B48AB3051F2B4605EB8206D4
:104BB800970053F8044F24BA9E421C60F9D13C1F59
:104BC80003595918015116D3931E00EB830150F86D
:104BD8002340661CA64240F823600CD80BB90AE0B3
:104BE8003BB151F8044D651CA54203F1FF330D603C
:104BF800F6D94AB1051F2846002150F8043F013173
:104C08001BBA8A420360F8D8F0BC704750F8043CDD
:104C18005B1840F8043CF7D350F8084C631C9C42DE
:104C280040F8083CA0F10801EED36FF00103D8E783
:104C38002DE9F04F2DED028BADF5597D00F10805FA
:104C48000C464022002128A8FDF7CEFC294628A8BA
:104C58004022FEF71DFF2A9B1493319B1593329B2C
:104C68001693339B1793349B1893359B1993369B54
:104C78001A93379B1B93289B1293299B2B9A2D9849
:104C88002F9F309E2C99139308EE105A784B2E9D27
:104C98001C921E9021971F961D91209504F1040CDB
:104CA80001930D92DDE915420292179A0392189A20
:104CB800149B0B92199A0093DDE91AAB03460C92E8
:104CC8003046DDE912620DF1E009CDE90607CDF8BD
:104CD80020A0CDF824B00A9104951746CA469B46F1
:104CE80012E002990B9103990C9100990A91069987
:104CF800DDF834B00096CDE902140D97CDF818E030
:104D080044461E461746704683044FEA844EA10364
:104D18004EEA903E43EA943841EA90410B9BC20523
:104D2800850302988EEA010142EA542283EA000EC2
:104D380006984A4045EA9445E10588EA05030EEAE3
:104D4800000E0C9D249241EA502103980B9ADDF83D
:104D58009090594045400C9B2591DCF800005CF888
:104D6800041C25405D408EEA0202964690FA80F8BF
:104D7800259A259509BA3D01CAE900810198259926
:104D880045EA1678B50745EA970519EB0E0388EA50
:104D98000505F0E9028941EB0202710641EAD711E3
:104DA8004D4001900A9900982495350145EA177EEF
:104DB8000143BD070A9845EA96058EEA0505864629
:104DC800009831400EEA000E41EA0E010D9822913A
:104DD800790641EAD61113EB080385EA01054BEA87
:104DE800000142EB09023940FAE8028925950BEAED
:104DF80000050D43DDF890E022992395089D099858
:104E080013EB080342EB09025B1942EB0000024670
:104E1800DDF894800498239D11EB0E0145EB0805FD
:104E280010EB030E0798CDF81CB040EB0208CDE953
:104E38002215CB180B99089158A945EB02020A983C
:104E48000C9D049051450CF1080C09957FF449AF6D
:104E58001946084B0E93B6ABCDF83CB0CDE90746E2
:104E6800DDF800B00997CDE9001236A8119314E0D7
:104E780050640000D0640000069A0292079A0392D8
:104E8800DDE908B20D92009A0892019A0992CDE9DB
:104E98000034CDE906E8CE46D046D0E91E64F300DA
:104EA800620343EA547342EAD6425A40A30643EAED
:104EB8009613D0E9047C5A404FEAC409730343EAC5
:104EC800D44349EA5676056D5E4086EA94164FEA61
:104ED800CC73446DA91843EA57094FEA0C6344EBB5
:104EE800060643EA17234FEA884489EA030344EA9B
:104EF8009E394FEA883444EA9E44C0E9221689EA7A
:104F08000404F0E9029ACDE9049A4FEA4C6949EAA7
:104F1800D71983EA090326934FEA0769FB0743EA8F
:104F28005C0349EA1C275F404FEACE53029A069D6C
:104F3800DDF898A043EA58235C40249414466C405A
:104F480004EA0E04079D5440039A87EADC174FEAE7
:104F58008E434FEA8E3C27974CEA984C82EA050725
:104F680043EA9833049D83EA0C0307EA08074FEAEB
:104F7800C85C57404CEA5E2C4A19059D83EA0C032D
:104F8800DDF89CC0259345EB060612EB0A0246EBBA
:104F98000C01019E249B009D2494DDE9249425970F
:104FA800370147EA15770E9DDDF894C0C0F88020D8
:104FB80013EB0903F5E9029A0E95009D109144EB55
:104FC8000C044FEA857C009DC0F88410CDE9049A52
:104FD8004CEA960C4FEA0519009D009987EA0C07E0
:104FE80049EA16794FEA867C089E4CEA950C009DA2
:104FF80089EA0C094BEA060C0CEA050C049D5B19BE
:10500800059D45EB0404019D4FEA416A4AEAD51A19
:10501800009987EA0A0A6F0647EAD117099D0D9990
:1050280089EA07070BEA06094CEA090CCDF888C09B
:105038009B1841EA050C01EA0502109D019E45EB0B
:1050480004040B9DCDE924A75B190C9D0CEA060C02
:105058004CEA020244EB0505DDF888C091462C466F
:10506800259A0A9DCDF828B01CEB0A0749EB0202E5
:1050780015EB03090F9D0F9145EB040AFB1842EB52
:105088000404CDE92272029A0B92039A0C92119AA7
:1050980082427FF4F1AE129A0898219E159FD31888
:1050A800139ADDE9001542EB0404149A52181C996E
:1050B800009241EB05051D99099A2B9509181E9830
:1050C800019140EB020220980D99049210EB0B001D
:1050D80046EB01011F9E08901698069A049D0991B7
:1050E80016EB090647EB0A0710EB0E0E179840EB74
:1050F8000808189810EB020C1998079A40EB020957
:105108001A98029A10EB020A1B98039A2D95099D8A
:105118002F95009D2A95019D2C9540EB020B089D2B
:10512800CDF8C8E038A84FF420720021CDE9283422
:10513800CDF8D0C03197CDF8CC80CDF8D490CDF84B
:10514800DCB02E953096CDF8D8A0FEF7A3FC18EE6B
:10515800100A28A94022FEF79BFC0DF5597DBDECED
:08516800028BBDE8F08F00BFCF
:105170004C520000000000005852000014000020B3
:105180002356000000000000F05600000000000060
:105190005C5700000000000069520000000003039B
:1051A00078000020400100204801002080000020FD
:0451B00018000000E3
:1051B4002F6D6E742F686F6D655F746D702F6774DB
:1051C40065632F6769746C61622F70726C2F6E6FE8
:1051D400726469635F73646B2F6E5246355F534428
:1051E4004B5F31372E302E325F643637346464655A
:1051F4002F636F6D706F6E656E74732F6C6962725E
:1052040061726965732F6C6F672F7372632F6E728F
:10521400665F6C6F675F6261636B656E645F756127
:1052240072742E6300000000FFFFFFFFFFFFFFFF0B
:10523400FFFFFFFFFFFFFFFF000000000000000072
:105244000000D60106010000F10400005D05000025
:1052540089040000756172745F6C6F675F626163DB
:105264006B656E6400617070001B5B306D002573AC
:10527400001B5B313B33316D0025734C6F6773202A
:1052840064726F70706564202825642925730D0A83
:10529400003C25733E2025733A20002025303278C7
:1052A40000202020007C002563001B5B313B333051
:1052B4006D001B5B313B33326D001B5B313B333381
:1052C4006D001B5B313B33346D001B5B313B33356D
:1052D4006D001B5B313B33366D001B5B313B333759
:1052E4006D006572726F72007761726E696E67002D
:1052F400696E666F00646562756700006D52000038
:10530400AE52000075520000B6520000BE520000BA
:10531400C6520000CE520000D6520000DE520000F9
:1053240000000000E6520000EC520000F4520000BD
:10533400F95200002F6D6E742F686F6D655F746D88
:10534400702F677465632F6769746C61622F707264
:105354006C2F6E6F726469635F73646B2F6E524659
:10536400355F53444B5F31372E302E325F6436370E
:10537400346464652F636F6D706F6E656E74732F24
:105384006C69627261726965732F7574696C2F61DF
:1053940070705F7574696C5F706C6174666F726D48
:1053A4002E63002F6D6E742F686F6D655F746D7062
:1053B4002F677465632F6769746C61622F70726CF8
:1053C4002F6E6F726469635F73646B2F6E52463520
:1053D4005F53444B5F31372E302E325F643637349F
:1053E4006464652F636F6D706F6E656E74732F6C7C
:1053F40069627261726965732F62616C6C6F632F8D
:105404006E72665F62616C6C6F632E63002F6D6EEB
:10541400742F686F6D655F746D702F677465632F8B
:105424006769746C61622F70726C2F6E6F7264693D
:10543400635F73646B2F6E5246355F53444B5F3129
:10544400372E302E325F643637346464652F6578C6
:105454007465726E616C2F667072696E74662F6EFD
:1054640072665F667072696E74662E63002F6D6E6D
:10547400742F686F6D655F746D702F677465632F2B
:105484006769746C61622F70726C2F6E6F726469DD
:10549400635F73646B2F6E5246355F53444B5F31C9
:1054A400372E302E325F643637346464652F657866
:1054B4007465726E616C2F667072696E74662F6E9D
:1054C40072665F667072696E74665F666F726D6134
:1054D400742E630030313233343536373839414233
:1054E400434445462F6D6E742F686F6D655F746D10
:1054F400702F677465632F6769746C61622F7072B3
:105504006C2F6E6F726469635F73646B2F6E5246A7
:10551400355F53444B5F31372E302E325F6436375C
:10552400346464652F636F6D706F6E656E74732F72
:105534006C69627261726965732F6D656D6F626A01
:105544002F6E72665F6D656D6F626A2E63002F6DDC
:105554006E742F686F6D655F746D702F677465630B
:105564002F6769746C61622F70726C2F6E6F726436
:1055740069635F73646B2F6E5246355F53444B5FB0
:1055840031372E302E325F643637346464652F69C8
:105594006E746567726174696F6E2F6E7266782FB0
:1055A4006C65676163792F6E72665F6472765F758E
:1055B4006172742E63002F6D6E742F686F6D655F5A
:1055C400746D702F677465632F6769746C61622FE3
:1055D40070726C2F6E6F726469635F73646B2F6E8D
:1055E4005246355F53444B5F31372E302E325F6461
:1055F4003637346464652F6D6F64756C65732F6E14
:105604007266782F647269766572732F7372632F72
:105614007072732F6E7266785F7072732E630050AF
:105624005253002E2E2F2E2E2F2E2E2F2E2E2F2E77
:105634002E2F2E2E2F2E2E2F6D6F64756C65732FCB
:105644006E7266782F68616C2F6E72665F67706920
:105654006F2E68002F6D6E742F686F6D655F746DAB
:10566400702F677465632F6769746C61622F707241
:105674006C2F6E6F726469635F73646B2F6E524636
:10568400355F53444B5F31372E302E325F643637EB
:10569400346464652F6D6F64756C65732F6E726608
:1056A400782F647269766572732F7372632F6E72CA
:1056B40066785F756172742E63002E2E2F2E2E2F46
:1056C4002E2E2F2E2E2F2E2E2F2E2E2F2E2E2F69B6
:1056D4006E746567726174696F6E2F6E7266782F6F
:1056E4006E7266785F676C75652E6800554152541A
:1056F400002F6D6E742F686F6D655F746D702F670A
:105704007465632F6769746C61622F70726C2F6E9D
:105714006F726469635F73646B2F6E5246355F53B7
:10572400444B5F31372E302E325F64363734646435
:10573400652F6D6F64756C65732F6E7266782F6458
:105744007269766572732F7372632F6E7266785FF7
:1057540075617274652E6300554152544500000012
:10576400484D41432D534841312F496E7075745F44
:10577400646174615F33322F4B65795F33322F007C
:105784000000000000000000000000000000000015
:105794000000000000000000000000000000000005
:1057A40000000000000000000000000000000000F5
:1057B40000000000000000000000000000000000E5
:1057C40000000000000000000000000000000000D5
:1057D40000000000000000000000000000000000C5
:1057E40000000000000000000000000000000000B5
:1057F40000000000000000000000000000000000A5
:105804000000000000000000000000000000000094
:105814000000000000000000000000000000000084
:105824000000000000000000000000000000000074
:105834000000000000000000000000000000000064
:105844000000000000000000000000000000000054
:105854000000000000000000000000000000000044
:1058640000000000F64AB23F7A95929E9EA624D983
:105874005A6836D51283650B67DC902E535A8D0D0A
:1058840075F01ABC000000000000000000000000D9
:105894000000000000000000000000000000000004
:1058A4000000000020005722D9E2ED48F425A8CEDC
:1058B4007F703DE6EF37E73271C159E47D74F82417
:1058C400AE5347B2D1C50000000000000000000044
:1058D40000000000000000000000000000000000C4
:1058E40000000000000000000000000000000000B4
:1058F40000000000000000000000000000000000A4
:105904000000000000000000000000000000000093
:105914000000000000000000000000000000000083
:105924000000000000000000000000000000000073
:105934000000000000000000000000000000000063
:105944000000000000000000000000000000000053
:105954000000000000000000000000000000000043
:105964000000000000000000000000000000000033
:105974000000000000000000000000000000000023
:105984000000000000000000000000000000000013
:105994000000000000000000000000000000000003
:1059A4000000000000000000200000004F52686565
:1059B4005FCA83678E8E7A8F04089D13F2057B1667
:1059C40000000000000000000000000000000000D3
:1059D40000000000000000000000000000000000C3
:1059E400000000000000000000000000140000009F
:1059F400484D41432D5348413235362F496E707519
:105A0400745F646174615F36352F4B65795F363539
:105A14002F00000000000000000000000000000053
:105A24000000000000000000000000000000000072
:105A34000000000000000000000000000000000062
:105A44000000000000000000000000000000000052
:105A54000000000000000000000000000000000042
:105A64000000000000000000000000000000000032
:105A74000000000000000000000000000000000022
:105A84000000000000000000000000000000000012
:105A94000000000000000000000000000000000002
:105AA40000000000000000000000000000000000F2
:105AB40000000000000000000000000000000000E2
:105AC40000000000000000000000000000000000D2
