:020000022000DC
:10700000000004205D730200457302004773020014
:10701000497302004B7302004D7302000000000030
:107020000000000000000000000000004F7302009C
:1070300051730200000000005373020055730200F8
:107040005773020057730200A197020057730200A2
:10705000577302005773020021960200B18D02009F
:10706000698D0200798D0200898D0200577302003C
:1070700057730200499902005773020057730200C8
:1070800057730200FD81020057730200577302001C
:107090005773020057730200D5C3020057730200F2
:1070A00057730200577302005773020057730200B0
:1070B0005773020057730200000000000000000038
:1070C0005773020057730200577302005773020090
:1070D0005773020057730200577302005773020080
:1070E000577302005773020001EA0200000000001B
:1070F00000000000577302000000000057730200F8
:10710000000000000000000000000000000000007F
:10711000000000000000000000000000000000006F
:10712000000000000000000000000000000000005F
:10713000000000000000000000000000000000004F
:10714000000000000000000000000000000000003F
:10715000000000000000000000000000000000002F
:10716000000000000000000000000000000000001F
:10717000000000000000000000000000000000000F
:1071800000000000000000000000000000000000FF
:1071900000000000000000000000000000000000EF
:1071A00000000000000000000000000000000000DF
:1071B00000000000000000000000000000000000CF
:1071C00000000000000000000000000000000000BF
:1071D00000000000000000000000000000000000AF
:1071E000000000000000000000000000000000009F
:1071F000000000000000000000000000000000008F
:10720000314932480A1A02D0072291438D4630494B
:1072100030480A1A06D00722914381F309880222D6
:1072200082F314882C482D492D4A00F03CF82D4853
:107230002D492E4A00F037F82D482E492E4A00F0ED
:1072400032F82E482E492F4A00F02DF82E482F49AB
:107250002F4A00F028F82F482F49304A00F023F831
:107260002F483049304A00F01EF83048304900229B
:1072700000F024F82F483049002200F01FF82F4A70
:1072800090471F481F49884205D00268043003B464
:10729000904703BCF7E700208646EC46002000211B
:1072A000274A9047FEE7884207D0521A05D0037854
:1072B00001300B700131013AF9D17047884202D098
:1072C00002700130FAE770470000042000F8032044
:1072D0000000042000000420200C0300D828002017
:1072E00058290020B8730200B87302009CF602000F
:1072F000200C0300D8280020D8280020ACF702007A
:10730000ACF70200ACF70200ACF70200ACF70200E9
:10731000ACF70200ACF70200ACF70200200C03004F
:10732000A00C0300582900205829002058290020CB
:10733000BC560020BC560020BC56002085730200BD
:107340005DB50200FEE7FEE7FEE7FEE7FEE7FEE7CB
:10735000FEE7FEE7FEE7FEE700F002B8FFF7FCBF3E
:107360000F484FF00701884385460E4880470E4876
:10737000016841F470010160BFF34F8FBFF36F8F5D
:10738000FFF73EBF09480A490A4A884207D0521A05
:1073900005D0037801300B700131013AF9D1704703
:1073A00000000420CDB7020088ED00E0ACF7020039
:0873B000D8280020D828002095
:1073B800022002F0F3BF00002DE9F04780460D4699
:1073C80003F006F80328044610D8012D10D0022D2A
:1073D80030D05DB91A4800F0C6FC1A4B04EB4402E1
:1073E80013449E78184B1B5DB34219D0BDE8F08753
:1073F800144D00EB4002A918AE5C4A78470052B120
:10740800DFF84C900E484A464FF4804100F093FC58
:1074180008B989F800803B192B449A780A4B1A5509
:10742800002EE3D0094B1B68002BDFD03046BDE8A7
:10743800F047184700EB4004024804446678EFE739
:1074480080290020C0290020D9290020D429002023
:107458005829002000780221FFF7AEBF08B5094B74
:107468001B7853B1002002F067FF012002F064FF8F
:10747800BDE80840032002F05FBFBDE8084002F005
:107488006FBF00BF59290020F8B57B4C237805460B
:107498001BB100232370FFF7E1FF172D00F288804E
:1074A800DFE805F00C17174354657680888D888DC2
:1074B800959A9A9A9A9AC4C9D1D9E4E4FFF7CEFF6B
:1074C8006E4800F050FC6E4B002204461A702046AD
:1074D800F8BD002002F008FFF8B1002002F02CFFF0
:1074E800022D0CBF4FF4E1614FF47A61644B1D70BB
:1074F8004FF400404FF47A740025E0FB01454FF447
:10750800FA6200232046294605F0FEFA00220146C9
:10751800BDE8F840594800F00EBC02F0F9FE022D13
:107528000CBFC8214FF4C871E0E7002002F0DCFE70
:1075380040B1002002F000FF4FF44871504B032285
:107548001A70D5E702F0E4FEC821F7E7002002F040
:10755800CBFE38B1002002F0EFFE4FF47A61484BC1
:107568000422EDE702F0D4FE4FF4C871F7E70020DB
:1075780002F0BAFE48B1002002F0DEFE404B0522C0
:107588001A7040F6CD410022C2E702F0C1FEF5E7CD
:10759800002002F003FF3A4B06221A70002240F244
:1075A8006661B5E7002002F0B3FE354B07221A707A
:1075B80000248CE70120207002F0F0FEEEE70120A5
:1075C800207002F0EBFE00224FF40051A0E702F019
:1075D800D6FE2B4B0C22EAE72A482B4E00F0C3FBC1
:1075E800D5F1110504461CD0D8B9012D13D0C823F4
:1075F8005D434FF400474FF47A7000214FF4FA626C
:107608000023C7FB050105F07FFA224601461D4805
:1076180000F091FB0446022002F07AFE0123337049
:1076280055E7022002F088FE0023F8E7FFF716FF6F
:10763800134B1222BBE7FFF711FF002002F068FE90
:107648000F4B1322B3E7FFF709FF012002F060FE9A
:107658000B4B1422ABE7FFF701FF002002F058FEA6
:10766800012002F055FE064B1522A0E702F087FE26
:10767800034B1D709CE700BFD0290020A0290020E3
:10768800D82900206029002059290020044B1B68B4
:10769800DB0703D5034B1878FFF7F6BE704700BF2A
:1076A800CC290020D8290020044B1B6813F00103C3
:1076B80001D0FFF7E9BE1846704700BFCC2900206B
:1076C80038B51C4B18601C4B10F0020405461960B5
:1076D8001AD01A4B1A480E221A700F22DA7010228A
:1076E8009A7111225A72042140F2333200F0B8F92B
:1076F800044648B900F00AFA044628B90146114A76
:10770800114800F00DFB0446EB0711D5012002F0EB
:1077180071FE6CB921460D4A0D4800F001FB044684
:1077280030B9BDE838400B4A0B48012100F0F8BADF
:10773800204638BDCC290020D4290020C0290020AB
:10774800ACF702005D740200D0F7020095760200E3
:10775800D4F70200B9730200CCF70200032811D84D
:10776800012A0AD101290FD100F10E02D2B20D4B24
:1077780000EB40001A54002070470129F7D0022975
:1077880004D049B1072070470022F8E7054B00EB09
:10779800400018444270EEE7024B00EB40001844EA
:1077A8008270E8E7C029002008B5012202210020E4
:1077B800FFF7D4FF08B1072810D1072202210120C2
:1077C800FFF7CCFF08B1072808D100210A22084694
:1077D800FFF7C4FF10B1072808BF002008BD00004C
:1077E8000388102B10B502D0112B1ED010BD1A4CD7
:1077F8002168B1B901220846FFF7B0FF08B1072890
:1078080024D1072202210120FFF7A8FF08B1072889
:107818001CD1042202210020FFF7A0FF08B107288D
:1078280014D1236801332360E0E70B4A1368013B56
:107838001360002BDAD1FFF7B7FF0028D6D0074B2B
:107848001B68002BD2D0BDE810401847034B1B68BB
:10785800002BE6D09847E4E7E4290020E02900203F
:10786800C30710B507D4F023054A4008145C234029
:107878001943115410BD0901C9B20F23F4E700BF21
:10788800182A002030B5094B1C78094B19680023C9
:107898009C4202DC0022104630BD11F8335085426C
:1078A80001EBC302F7D00133F2E700BFE82900205B
:1078B800382A002013B504460191FFF7E3FF38B1D9
:1078C80043682BB10199204602B0BDE81040184723
:1078D80002B010BD034B044819680022490800F0A3
:1078E8002ABA00BFEC290020F029002010B5C0B248
:1078F800FFF7C8FF0446007801F080FE63785A1E3F
:1079080053425341834208D1044BD3E90023134324
:1079180003D1BDE81040FFF7DDBF10BD102A0020DD
:1079280037B54308354AD35CC2074CBF1B0903F07F
:107938000F0304460D46042B35D8DFE803F0032572
:107948002C383C0079B30121FFF78AFF00230DF1A1
:1079580007008DF8073000F0DFFA0120A4F12003BA
:10796800C4F12001264A20FA01F100FA03F30B437F
:10797800A040D2E9004120430B43C2E900039DF82F
:10798800070000F0EDFA0EE0002918BF022120469A
:10799800FFF766FF07E041B10321FFF761FF01210F
:1079A8002046FFF787FF03B030BD0121EFE700292C
:1079B800F9D10421EBE709B10321E8E7FFF750FF0C
:1079C80029462046FFF776FF0DF107008DF807508E
:1079D80000F0A2FA0120A4F12003C4F12001084A12
:1079E80020FA01F100FA03F30B43A040D2E9004169
:1079F80024EA000021EA0303BFE700BF182A002099
:107A0800102A00202DE9F041124E134F002433783C
:107A1800A34208DC114BD3E90023134318D0BDE877
:107A2800F041FFF757BF3D6805EBC40815F834006F
:107A380001F0E4FD98F801305A1E53425341181AD8
:107A48004142414115F83400FFF76AFF0134DEE78F
:107A5800BDE8F081E8290020382A0020102A0020FB
:107A6800092AF7B505460C4616463CD901F0F6FC3E
:107A7800D8B11E4B1E481D601E4B1F4F1C701F4B5C
:107A8800002120221E6005F02DF91D4B0020002149
:107A9800C3E90001013CE4B20326FF2C0BD1194ACB
:107AA8001948002100F03CF903E001F091FC00289E
:107AB800DFD003B0F0BD9DF8063015F834008DF81E
:107AC800046005EBC40223F007038DF8063001A912
:107AD80093788DF805303A4601F0CAFC013CE4B2CF
:107AE8000028DAD0E5E70720E3E700BF382A0020BE
:107AF800182A0020E8290020F5780200EC29002047
:107B0800102A00200D7A0200E4F7020070B5084D33
:107B1800084E00242B789C4201D3002070BD3368A6
:107B2800012113F8340001F01FFD0134F2E700BF12
:107B3800E8290020382A00201FB50021039001AA57
:107B480044F20100CDE9011100F004F805B05DF838
:107B580004FB000010B572B603F014F802F094FEAE
:107B68000028FBD1104B114C1149E41AE4082404F5
:107B780044F0010002F0CCFF0E4B1B68DB0700D578
:107B880000BE0D4944F0020002F0C2FFBFF34F8F60
:107B98000A490B4BCA6802F4E0621343CB60BFF397
:107BA8004F8F00BFFDE700BF9CF60200DCF6020025
:107BB800E8F70200F0ED00E0F4F7020000ED00E065
:107BC8000400FA05D0E90223D1E90201994208BF6D
:107BD80090422CBF012000207047000008B50B48D8
:107BE80000F0F1FA0A4B0B49D3E900231218D1E946
:107BF800000143F100038B4208BF824203D212F115
:107C0800807243F100031046194608BDD8280020A9
:107C1800402A0020B82A002037B505460C460A48F5
:107C280001A900F004FB60B10570446001A9064891
:107C380000F027FB18B1054800F0CAFA002003B08D
:107C480030BD0420FBE700BFA42A0020D82800206C
:107C580038B5184B1B78044613B90025284638BD9B
:107C68000028FAD0037F03F0FF05002BF5D0FFF7BB
:107C7800B5FFD4E90223994208BF904214D323697F
:107C880003B92377D4E90530984721690029E4D05E
:107C9800237F03F0FF05002BDFD0D4E9022352181D
:107CA80043F10003C4E902230348214600F03FFFE3
:107CB800D4E700BF482A002010F8020013B5114B82
:107CC80011491868019008231048582200F09CFABE
:107CD800044698B90E4A0F4801A900F065F9044610
:107CE80060B90C48012100F051FA01230A4A0948F9
:107CF800194600F0B3F9094B01221A70204602B068
:107D080010BD00BF0CF802004C2A0020A42A002055
:107D1800897D0200D8280020FFFF7F00482A002024
:107D28003AB103685A614A1E514251411961002013
:107D380070470720704738B5037F04460D4683B95E
:107D48008261FFF74BFF2369401941F10001C4E943
:107D5800020103B1256121460020BDE83840FFF744
:107D68005BBF002038BD0023014603770120FFF7E1
:107D780053BF0000014800F026BA00BFD8280020F1
:107D88002DE9F04F85B0804600F008FA40B15A4A14
:107D9800D2E9003113F1807341F10001C2E90031E9
:107DA8000021404600F009FA38B1544E336823B137
:107DB8003068FFF74DFF002333600121404600F093
:107DC800FCF920B1FFF70AFF4D4BC3E900014D480C
:107DD8004A4F4D4EDFF8389103A900F062FA0028A7
:107DE80045D1DFF82491454EDFF828A1484600F038
:107DF800B4FE3368002875D07BB13368D0E902013E
:107E0800D3E90223994208BF90422DD233681B7FE1
:107E18001BB13168484600F08AFE484600F097FEDC
:107E2800D0E902B307460193FFF7D8FE019BBBEBED
:107E3800000463EB0105012C75F1000345DBB4F583
:107E4800350F40D3FFF796FF304A02444FF49603AC
:107E58000021504600F022F900283ED1336813B9BA
:107E6800404600F0F3F8376005B0BDE8F08F0378BE
:107E7800012B1DD0022B09D14FF0000A304600F02B
:107E880066FE002834D080F81CA0F7E73BB94168AB
:107E98000B7F23B901230B77304600F048FE03A976
:107EA800184800F029FA03A9164800F0FAF996E7ED
:107EB80041683B68994202D100233B60EFE73046B6
:107EC80000F04EFEEBE7BA68C0E70021504600F02C
:107ED8006AF93846FFF7BCFE01E00D28F9D0002307
:107EE800336083E7002BBFD1404600F0B3F8BBE70F
:107EF800012389F80030D2E7402A0020C02A002058
:107F0800B82A0020A42A002010F80200FFFFB400BD
:107F1800482A0020D828002070B5EFF3108672B6E2
:107F28000C4A946801239CB993600B4B0B4DD3F812
:107F3800801029401160C3F88050D3F88410516034
:107F48004FF0FF32C3F88420047006B962B670BDE2
:107F58000370FAE7C42A002000E100E0FC06FFBD38
:107F6800084B9A6810B55AB150B9EFF3108172B640
:107F7800054A1C6814605C685460986001B962B670
:107F880010BD00BFC42A002000E100E0435882B0C1
:107F98003BB10023435043580193019B012002B099
:107FA80070471846FBE70000F8B5204B4479204D90
:107FB80043F824201F4A204B05EBC4049B1A22795E
:107FC800DB081B0432B143F002001C4902F0A0FD9B
:107FD8000820F8BD02680C88C2F8084590F90460CA
:107FE8008A7804795201002ED2B219DB14498F190C
:107FF80087F800230122760904F01F0402FA04F42A
:1080080041F82640427905EBC201012445F83200C7
:108018000C7143F003000B4902F07AFD0020D8E709
:10802800094904F00F040A55ECE700BFD82A0020DC
:10803800D02A00209CF60200ECF602001CF8020090
:1080480000E100E03EF8020014ED00E003680122C0
:108058001A607047036801225A60704773B501F1CE
:108068005005AD000068ADB24FF480348C40002656
:10807800C0F80843C0F84843465101F5A87145596E
:10808800019522F07F42019D40F82120C0F8444329
:108098000BB1C0F8044302B070BD00002DE9F74FE2
:1080A8000D4622F07F4402684FF4803705F15006F0
:1080B8008F408046B60002EB8500C2F84873B6B21E
:1080C800C2F80873D2F8041599464FF0000BD0F89F
:1080D8004035C0F8401542F806B05B1A9259009234
:1080E80023F07F43012B009A4FEA850A0CD1264BD7
:1080F8004FF4806043F001039847D8F8003043F804
:1081080006B09B590193019BD8F80010D1F804657B
:10811800C1F84473A31B23F07F43012B1CD11A4BD6
:1081280005F5A875013443F0010341F825404FF4E3
:1081380080609847D8F80030D3F804359E4209D1BA
:10814800D8F800300020C3F84473C3F8047303B0B0
:10815800BDE8F08F0D20FAE78A44C9F1FF13CAF889
:108168004045D1F80405221A013A22F07F4203F56E
:108178007F439342EED3002AE2D10134CAF8404546
:10818800D1F804359842DAE750F802000368022271
:10819800C3F8442309B1C3F80423704700684FF4B7
:1081A8008271FFF7F3BE4FF4803303FA01F10368DD
:1081B800C3F84813C3F808137047503189000068A2
:1081C80089B2FFF7E3BE0368D3F8040570470000DF
:1081D80090F90430002B09DB5A09012103F01F0331
:1081E80001FA03F34032024941F82230704700BFD8
:1081F80000E100E0024B034A1B681068184700BF03
:10820800D82A0020D02A002010B561B1B2FBF3F4BF
:1082180003FB1424A4B244B9C0E900148460828129
:10822800C381204610BD0E20FCE70920FAE737B5C8
:1082380050E8013F9DB2C48925448489A54228BFDE
:108248002D1B0489A54202BFBFF32F8F002207E030
:10825800C5EA030540E80154002CE9D14FF00102BA
:108268008DF803200193019B9DF803200B6002F019
:10827800FF0322B10B880068184403B030BD1846CC
:10828800FBE70A884B889A4209D150E8012FC2EAD5
:10829800024240E80123002BF7D10120704700205B
:1082A800704737B550E8023F1FFAA3F5C488A542C6
:1082B80002BFBFF32F8F00220DE0C48925448489B3
:1082C800A54228BF2D1BC3EA054540E80254002CEF
:1082D800E8D14FF001028DF803200193019B9DF82E
:1082E80003200B6002F0FF0322B14B88006818449A
:1082F80003B030BD1846FBE70A884B889A4209D17B
:1083080050E8022FC2EA224240E80223002BF7D1AC
:10831800012070470020704701F01F024B0901211E
:10832800914000EB830000F01EB801F01F0301220A
:108338009A404B0900EB8300D14300F02CB84B095D
:1083480001F01F0150F82300C84000F001007047F9
:1083580010B5034653E8000F0A4643E8002494F09A
:10836800000FF7D110BD10B5034653E8002F42EABD
:10837800010043E8000494F0000FF6D110BD10B5D9
:10838800034653E8000F00EA010243E8002494F092
:10839800000FF6D110BD10B5034653E8002F02EACE
:1083A800010043E8000494F0000FF6D110BD10B5A9
:1083B800034653E8002F02EB010043E8000494F061
:1083C800000FF6D110BD10B5034653E8002FA2EBFD
:1083D800010043E8000494F0000FF6D110BD01211C
:1083E800FFF7C1BF0021FFF7CABF10B590B1D0E9B0
:1083F800012301689B1ADBB20A60013BDBB2FF2B49
:10840800026802D10020107110BD11684C1C146064
:108418000B70F2E70E20F7E737B5054600240DF19B
:1084280007008DF80740FFF777FD2A686B68116829
:1084380099420ED9481E106011F8014CEB68298A40
:1084480001FB0434AB6811791B1ADBB2994238BFBF
:1084580013719DF80700FFF783FD204603B030BD78
:1084680037B5054600230DF107000C468DF8073097
:10847800FFF752FD2A681368591C1160E968641AED
:10848800298AB4FBF1F41C709DF80700FFF768FD1A
:1084980003B030BD826810B504462AB1436901684B
:1084A800006998470023A36010BD0EB403B5039973
:1084B80021B104AB01AA019300F06EF802B05DF897
:1084C80004EB03B07047826830B40468551C8560BB
:1084D800A154D0E901329A4202D330BCFFF7DABF87
:1084E80030BC70472DE9F84F9846DDE90A43154638
:1084F80082460F460A464FF00109AA420FD2C145EB
:1085080038BFC14613F0010B01D16CB90024012614
:10851800B8F1010F1BD908F1FF386E43F8E709F1EC
:108528000109B2FBF5F2E8E79B070ED5B8F1000F99
:108538000CBF30262026A145E9D2013C31465046E1
:10854800FFF7C1FF002CF6D1E0E72026F3E7B7FBE1
:10855800F6F39D42E1D9DFF83C80B7FBF6F35046CD
:1085680018F8031006FB1377FFF7ADFF3346AB424D
:10857800B6FBF5F6F1D2BBF1000F02D00CB1A14564
:1085880001D3BDE8F88F20215046013CFFF79BFF3F
:10859800F4E700BF5FF802002DE9F74F05461746DC
:1085A8008846002900F0428118F8011B49B92B7B45
:1085B800002B00F03B81284603B0BDE8F04FFFF7E1
:1085C80069BF252940F0B780002698F800302D2B88
:1085D800424608F1010823D0302B24D02B2B25D07C
:1085E80000242A2B02F1010123D13B681A1D1B68C4
:1085F8003A601C440A4613782E2B26D101324FF0DC
:10860800000A104610F8011BA1F1300CBCF1090F4B
:108618001DD80A2303FB0A13A3F1300A0246F0E728
:1086280046F00106D1E746F00206CEE746F004061A
:10863800CBE711F8013CA3F130000928DBD80A2266
:1086480002FB0434303C0A46CBE74FF0000A12F82C
:10865800011B01F0FB0068289046F8D0782909D85A
:108668006F290CD8632962D022D8252963D05829CC
:1086780000F0888098F80030002B95D197E7703982
:108688000829F7D801A353F821F000BF0F8802008A
:108698007D8602007D8602009D8702007D8602009D
:1086A8007B8702007D8602007D8602008D8702009E
:1086B800642901D06929DDD13A68D2F80090111DEA
:1086C80089EAE9723960A2EBE9724FF0010B092AD5
:1086D80035DCD34538BFD3462CB1B9F1000F01DBE7
:1086E800720700D5013CB30702D5BAF1000F03D0D9
:1086F800F00701D44CBB0024B9F1000F2DDAC9F101
:1087080000092D212846FFF7DEFE06F00302022AA3
:1087180004D1BAF1000F01D11CBB0024CDE90046F9
:1087280053460A2249462846FFF7DCFEA2E73B6883
:108738001A1D19783A602846FFF7C5FE9AE70A23FA
:108748000BF1010BB2FBF3F2C1E7A345D4D2202110
:108758002846013CFFF7B7FECCE77107D5D52B219A
:10876800D0E7A345DAD230212846013CFFF7ABFE1B
:10877800D2E73968CDE900460A1D3A6053460A2215
:108788000968D0E739680A1D3A60CDE900465346C2
:108798001022F5E73B681A1D3A6016F00106D3F877
:1087A800009028D1B9F1000F03D0484604F0EFFA41
:1087B8000646B44200D904BB09F1FF3919F8011F74
:1087C80000293FF457AF2846FFF77DFEF6E7284615
:1087D8000136FFF778FE19F806100029F7D1A642EE
:1087E800BFF448AF002C3FF445AF20212846013C98
:1087F800FFF769FEF3E70026EDE720212846013C54
:10880800FFF761FED5E73B681A1D3A60302128461C
:108818001C68FFF758FE78212846FFF754FE00220F
:108828000823CDE90032214610227CE703B0BDE8D9
:10883800F08F00BF2DE9F84FB0F806A04579D2F8BF
:1088480000B09DF828900AFB05F5043D88460BEB1F
:108858000301A94203F1040488BFA5EB030BB4FB91
:10886800FAF607460AFB1644C2F800B04EB9AAEB5E
:1088780004055D4528BF5D46BBF1000F04D1BDE886
:10888800F88F3F68013EF1E7043408EB06003C44EA
:108898002A46B9F1000F0DD02146ABEB050B04F0C9
:1088A800F8F9DA452E443F6855464FF0000428BFD2
:1088B8005D46E1E701462046EFE7FFF796BDF8B5CC
:1088C80046790146721E0546002393422D6803D35C
:1088D8000024A64202D8F8BD0133F6E70F682846FF
:1088E800FFF7BEFD01343946F3E72DE9F843068A60
:1088F800CD1C0746FFF790FD043E35440446B5FB02
:10890800F6F5F0B14FF48073EDB28380C680013D77
:10891800076081464FF00008A84512D23846FFF795
:108928007BFD064648B163790133637108F101089C
:10893800C9F8000007608146EEE72046FFF7BFFF51
:1089480034462046BDE8F88301210430FFF72FBDE7
:1089580010B5012104460430FFF735FD10F0FF0F74
:1089680004D12046BDE81040FFF7A9BF10BD1FB5D0
:1089780003920022009203AAFFF75CFF05B05DF89E
:1089880004FB1FB503920122009203AAFFF752FFCE
:1089980005B05DF804FB41DF70470000064B10B5D9
:1089A80000241C70054B1C60BFF35F8F0449054809
:1089B80000F0A7F8204610BDE42A0020E82A00208D
:1089C80078F80200DC2A002007B500230DF1070023
:1089D8008DF80730FFF7A0FAF1EE103A23F09F0365
:1089E800E1EE103ABFF35F8F094B4022C3F88421B0
:1089F8009DF80700FFF7B4FA03F0CEFC20B1FFF7AB
:108A0800CAFF03B05DF804FB20BF40BF20BFF8E7F2
:108A180000E100E0026813685268934291BFD01ADF
:108A280080680130801888BFC01A70470368816861
:108A38001A685B688B4234BF01330023D31A58424B
:108A480058417047F7B5002304460DF107000D465D
:108A58008DF80730FFF760FA2046FFF7E7FF10B1FF
:108A6800237C002B3CD12268A66853685168B14228
:108A780034BF01310021516030B11168A0688142D2
:108A880034BF013100211160E2686068511E072976
:108A980020D8DFE801F004101F141F1F1F182A78C0
:108AA800C2542046FFF7B6FF23689A68824200D274
:108AB8009860002415E02A8820F81320F1E72A6836
:108AC80040F82320EDE7D5E9006700EBC300C0E9D3
:108AD8000067E6E7294602FB030004F0DAF8E0E75E
:108AE80004249DF80700FFF73BFA204603B0F0BDC9
:108AF800836800225A60C3E904229A60DA601A6027
:108B080070470B684A684360934208BF00230160BE
:108B180008BF43607047436843B102689168526870
:108B28000B449342436004BF00234360704770B511
:108B3800446806460D46206818B1B3682946984728
:108B480018B923682B60256070BD2468F3E7436873
:108B5800186808B102681A60704743681868704757
:108B68004368186800B97047884203D102681A60E0
:108B78000120704703460068F4E7000010B50D496E
:108B8800A1F59472914201D800200FE08C1AE30FEE
:108B980003EBE4035B1002EBC30452F83330834267
:108BA80005D802D204F10802ECE7606810BD21463E
:108BB800E8E700BF84FD020008B5FFF7DFFF024BBE
:108BC800002808BF184608BD47FC02002DE9F743F6
:108BD800002406460F4600F5A0754FF48038A146DC
:108BE8002B688BB1D6F8043308FA04F21A420BD07A
:108BF800C5F800902B680193019BA30003F5A073AF
:108C080098B2D7E9003198470134042C05F10405DE
:108C1800E6D103B0BDE8F083F7B506792F4D0C23F4
:108C28007343EF183C7A002C55D1EA504B687B60AF
:108C3800477903682246A446D4B2A7423CD8CA78EA
:108C480043F307345201002CC3F30733D2B23DDBA0
:108C5800234F07EB040C8CF800230122640903F06E
:108C68001F0302FA03F347F8243003684A78D3F85D
:108C7800040502F0030220F003000243C3F80425B0
:108C8800D3F808058A7820F0030002F003020243B3
:108C9800C3F80825D3F810050A7820F00F0102F070
:108CA8000F020A43C3F810250C2303FB06550123C2
:108CB8002B72002003B0F0BD940004F5A0740132BB
:108CC80043F804C01C590194019CB5E7054C03F016
:108CD8000F03E254C9E70820ECE700BFEC2A0020A4
:108CE80000E100E014ED00E0036801221A60037956
:108CF800034A0C2101FB032302221A72704700BFAA
:108D0800EC2A002037B54FF4803400688C407BB1E2
:108D18008B0003F5A0730025C550C3580193019B30
:108D2800C0F8044301F5A87140F8212003B030BD14
:108D3800C0F80843F6E770B4046840F20116D4F8A6
:108D480000528E4025EA0605C4F80052D4F80052B5
:108D58002B43C4F800329DF80C3070BCFFF7D2BF2B
:108D680001490248FFF732BFEC2A0020008000408A
:108D780001490248FFF72ABFF82A00200090004066
:108D880001490248FFF722BF042B002000A0004041
:108D980000F1804000F5E040002382B003600368E2
:108DA8000193019B02B07047F0B5504B504C1B68C3
:108DB80085B0002B3DD04FF4827094F82E20FFF739
:108DC800E7FF2AB394F82F3013BB4A4B1B68002BDC
:108DD80033D04FF48070FFF7DBFF638B94F82D10CE
:108DE8008B424FD922895B1A9BB292B26383D31A02
:108DF800626802EB4303404AC2F82C36C2F83016C8
:108E08004FF48270FFF7C4FF3C4B01221A6014E054
:108E1800636802932389ADF80C30E36800218DF86C
:108E2800041023BB2374236801A89847002384F8FF
:108E38002F3094F82E30002BC7D1314B1B685BB113
:108E48004FF48870FFF7A4FF0023237402238DF8E2
:108E5800043001A8236898472A4B1B68EBB14FF4EC
:108E68008A70FFF795FF0023237405B0F0BD208BAF
:108E7800608363602081E160002AD4D11E4B012207
:108E88001A60D0E7BCD1E368012284F82F2013B11F
:108E980000226283AFE76383B2E766694FF0004759
:108EA8000125002EE1D0B6FA86F227FA02F34632FF
:108EB800920026EA030602F1804303F5E0431B68AB
:108EC800002BEED01046FFF763FFA2F58C72D30893
:108ED80082F00402C2F380028DF808308DF8045045
:108EE80023688DF8092001A89847DAE70471004043
:108EF800102B0020007100400070004004700040FA
:108F0800107100401471004038B5204A92F82C3096
:108F18000446002B37D111601D490078C1F8F005CF
:108F28006078C1F8F4050125137482F82D30536177
:108F380082F82F30E07882F82E006FF0004382F834
:108F48002C504FF48270C1F80833FFF721FF4FF41B
:108F58008070FFF71DFF4FF48A70FFF719FFA378A1
:108F68000C485B01DBB280F80733802303600223DF
:108F7800C1F8043392F82E300BB1C1F80453C1F88C
:108F88000055002038BD0820FCE700BF102B00204A
:108F98000070004000E100E030B5224B1A7C002A46
:108FA8003ED100F10C0403EB4402127922B993F884
:108FB8002D20013283F82D2003EB4403CA790C7A63
:108FC8008D781A715C714B782D021B0105F4E065F0
:108FD80003F030032B430D7805F003052B43CD78C0
:108FE8002D0305F480552B430D792D0405F4E02558
:108FF8002B434D7989792D0505F48015090601F073
:1090080080712B430B43010101F1804101F5E041DF
:109018000020C1F81835C1F81445C1F8102530BD35
:109028001120FCE7102B0020054B93F82E30002B65
:1090380014BF0020042000F1804000F5E040704794
:10904800102B002070B5264A264B05461220C2F880
:1090580008031C7C022C03D1C2F80403112070BD44
:10906800187C01281DD1D86818B10223C2F804332E
:10907800F4E7DD60198393F82E3063B91A4A136850
:10908800002BFCD04FF48070FFF782FE144BC3F81E
:109098002C56C3F83016124B0222C3F804230020C2
:1090A800DDE7022093F82E40C2F8040301260020D1
:1090B8001E745D601981D8603CB1598393F82D30D6
:1090C800C2F82C56C2F83036C9E7C2F82C564FF40D
:1090D8008070C2F83016FFF75BFE20461660BEE7C8
:1090E80000700040102B002000710040034B1878DE
:1090F80010B901221A70704785207047402B002054
:109108001FB500238DF807000DF10F008DF80F3003
:10911800FEF702FF03F040F950B909480DF10701C5
:10912800FFF790FC0648FFF781FC08B100F0E8FB68
:109138009DF80F00FEF714FF05B05DF804FB00BFB3
:1091480070F7020007B520B103280BD003B05DF813
:1091580004FB0F4B1B78012BF8D100F0D1FB00F07A
:10916800D7FBF3E700230DF107008DF80730FEF772
:10917800D3FE07480378012B05D10649013000F0DA
:109188007FFB00F0ABFB9DF80700FEF7E9FEDDE78B
:10919800902B0020099102001FB503788DF800304C
:1091A8004368019383688DF80830C368054A0393C0
:1091B800054B684653F8213052F82110984705B0FE
:1091C8005DF804FB942B00209C2B00201FB503782E
:1091D8008DF800304368019383688DF80830C368C0
:1091E800054A0393054B684653F8213052F821107D
:1091F800984705B05DF804FB942B00209C2B0020B9
:10920800F0B5194B90F800C0DFF86CE043F82C205B
:10921800164B16460A6943F82C204B7F0EF80C3083
:109228000C4607460FCC89B06D460FC594E80F0071
:1092380085E80F001EF80C30CDF810C04BB1002E99
:109248000B4A694608BF3246381D00F0A3FE09B034
:10925800F0BD002E074A694608BF324607F10C00E8
:1092680000F070FCF3E700BF9C2B0020942B00203B
:10927800A1910200D5910200A42B00202DE9F74FFF
:109288004FF00009154D164F06464FF0040AC84620
:109298005FFA89FB01240DF1070004FA0BF48DF83D
:1092A8000780FEF739FE2C4208D03B6814EA030217
:1092B80001BF23433B6086F800B092469DF8070043
:1092C800FEF74EFEBAF1000F03D0A54309F10109DC
:1092D800DED1504603B0BDE8F08F00BFFFFF0100AC
:1092E800A82B002010B5A1B19AB101238340C3F384
:1092F800100484B10A4C246823420ED0C00000F147
:10930800804000F5F830C0F81015C0F8142500208A
:1093180010BD0E20FCE70720FAE70820F8E700BF99
:10932800A82B0020012202FA00F3580C400440B98F
:109338001BB1064A1268134205D0054AC2F8043523
:109348007047072070470820704700BFA82B0020EF
:1093580000F0014000F1804000F5C040002382B0D9
:10936800036003680193019B02B0704703681F2BD9
:1093780083BF03F01F03036001484FF0A04070470C
:109388000003005007B5019001A8FFF7EFFF019B0C
:1093980000EB8300D0F8003723F44033C0F80037DF
:1093A800D0F8003743EA0141C0F8001703B05DF870
:1093B80004FB0000054B4FF0FF32072843F820203C
:1093C80084BFC01880F85820704700BFAC2B00201D
:1093D80038B51E4C94F86A30ABBB4FF6FF71FF20CE
:1093E8005A09012A14BF4FF0FF320A4603F01F053D
:1093F800EA40D20748BFE21803F1010348BF82F8E8
:109408003000302BECD10021C8B2FFF7D3FF013177
:109418000C29F9D1062200210D4803F063FC0D4BFD
:10942800C02283F8062340221A604FF4BE70FFF76B
:1094380091FF094B4FF00042C3F80423012384F83D
:109448006A30002038BD0820FCE700BFAC2B0020A4
:10945800102C002000E100E000600040034B93F86E
:109468006A00003818BF0120704700BFAC2B0020ED
:10947800F7B53B4E3318054693F93030002B6CDABC
:109488008B78C3F34003002B0BBF082400240C2067
:109498000820844202D1042003B0F0BD56F824709D
:1094A800013743D1701946F8242080F8304013B9A9
:1094B800331983F858508B785A0717D4D80737D5FB
:1094C80001A80195FFF752FF019B00EB8300D0F83C
:1094D800003723F00203C0F800372248EA0805F0F5
:1094E80007070123BB40875C3B4383548B780A788A
:1094F80013F0020328D0A40004F1804404F5C0440A
:109508002D02D4F8103523F44F3323F44073C4F8F4
:1095180010351204D4F8103505F47C5502F44032A5
:1095280015431D43C4F810550020B5E70134B0E7D2
:1095380001A84A780195FFF719FF019B03F5E0732D
:10954800920040F82320C8E7083C344494F860505F
:1095580045EA821284F86020E6E708209CE700BF0D
:10956800AC2B0020102C002073B5224C2618054681
:1095780096F93020072A1ADD224492F858309B09C0
:10958800032B0FD1019001A8FFF7F0FE019BD0F843
:109598001015D94001F0010102312846FFF7F2FE0B
:1095A80002B070BD012B0CBF02210321F5E7D3B235
:1095B800072BF5D8930003F1804303F5C043D3F894
:1095C800100540F00100C3F8100502F140008000CA
:1095D80080B2FFF7BFFE0029E2D096F9303054F888
:1095E8002330002BDCD0012303FA02F2024BC3F82C
:1095F8000423D5E7AC2B00200060004007B501909C
:1096080001A8FFF7B3FE019BD0F81005D84000F081
:10961800010003B05DF804FB2DE9FF470024CDE904
:109628000244584D4FF48072012102F1804303F542
:10963800C04390B21B68012B06D1D5F804330B4206
:1096480002D0FFF787FE0C430432B2F5907F4FEA51
:109658004101EAD14C4B1B68012B11D14FF4BE706C
:10966800FFF778FE4FF0A04344F00044D3F82025DC
:109678000292C3F82025D3F820280392C3F82028A3
:1096880014F0FF0F1AD0414F00250126344210D0A4
:10969800AB0003F1804303F5C043D3F81005D3F8BA
:1096A800101557F8253023B1C1F30141C0F3052047
:1096B80098470135082D4FEA4606E7D1002C59DABC
:1096C800324D334C334E4FF00008012716F9013B59
:1096D8005A1C3CD0C3F3C20104A801445FFA83F9C1
:1096E80011F8081C03F03F0203F0070307FA03F31D
:1096F80019422CD001A80192FFF738FE019B03F50F
:10970800E07350F82330C3F3014ABAF1020F104650
:109718000CBF03210221FFF735FE01A80192FFF7D4
:1097280025FE019B07FA03F3C0F82035AB1893F91F
:10973800303055F8233053B14FEA9911032904D03A
:10974800BAF1020F19D1012901D11046984708F141
:109758000108B8F1040FB9D14FF0A043D3F8202580
:109768000292C3F82025D4F820350393C4F8203595
:109778001343A7D104B0BDE8F087BAF1030FE6D1CF
:109788000229E1E7006000407C610040AC2B00202A
:10979800000300500C2C0020014B1B68184700BF29
:1097A800182C00202DE9F3411F4B204CE41A204BC4
:1097B800E408240498420E4644F0030729D11D4DBD
:1097C8001D492A46384601F0A7F900230DF1070084
:1097D8008DF80730FEF7A0FB95F80480B8F1000F6C
:1097E80002D101232E602B719DF80700FEF7B8FB0C
:1097F800B8F1000F0DD01120FFF7DEF90F4A10491C
:10980800034644F0020001F090F9112002B0BDE8CF
:10981800F0810020FFF7D0F9084A09490346384685
:1098280001F083F90020F1E79CF60200ACF6020093
:1098380000200040182C002045FF0200C1FD020056
:109848009FFD0200094B984210B50ED1084B0948FC
:10985800094C0A49C01AC0080004224640F0030017
:1098680001F05AF900232360237110BD0020004045
:109878009CF60200ACF60200182C002045FF0200FE
:1098880010B5124C2278FAB9114B1960037813F00D
:10989800010F104B1EBFD3F8042542F00102C3F894
:1098A8000425D3F8002222F00102C3F800224378ED
:1098B800094A5B01DBB282F80D334FF400531360A1
:1098C80001232370002010BD8520FCE7242C0020F4
:1098D800202C002000D0004000E100E0064B0022D0
:1098E8001A6082B01B680193019B044B0122C3F8E4
:1098F80004231A6002B0704700D1004000D0004035
:10990800024A0123C2F808335360704700D0004070
:10991800084A0123C2F808335360074B4FF400523A
:10992800C3F88020BFF34F8FBFF36F8F034B002224
:109938001A70704700D0004000E100E0242C00209D
:10994800074B00221A6082B01B680193019B054BEC
:10995800D3F80805044B1B68C0B202B0184700BF13
:1099680000D1004000D00040202C002000234350AC
:1099780082B043580193019B02B070470A4610B564
:109988004FF48E71FFF7F2FF136A9168C95C136A8E
:1099980001331362C0F81C1510BD8B690A4610B557
:1099A8004FF4847123B9FFF7E1FFD0F8183510BDE3
:1099B800FFF7DCFF536AD168D0F81805C854536A1A
:1099C80001335362F3E700001FB501238DF800301F
:1099D800044BCDE90110D3E900126846904705B061
:1099E8005DF804FB282C002030B54C48D0F804332F
:1099F80013F4007F85B005464DD0D0F82431002BF4
:109A080049D04FF49271FFF7B1FF4FF40173C0F8DA
:109A18000833434B93F829200AB9012242603F4991
:109A280002228DF80020D1F88024C1F88024039206
:109A38009A690292DA6801920022C3E9062268460E
:109A4800D3E9001290473548D0F81C315BB134494E
:109A58004A690B6A9A420A464AD991F82830002B7B
:109A680046D1FFF78BFF2D48D0F844318BB14FF426
:109A7800A271FFF77BFF2A4B93F829200AB1012234
:109A880002609A692AB10022586AD9689A61FFF778
:109A98009BFF05B030BDD5F804335B07D3D5D5F8A7
:109AA8000831002BCFD01E4C1C482146FFF775FF0C
:109AB800636AA2699A422346C5D1E269E1684AB15C
:109AC8002369E3600023606AA261E3616362FFF7D0
:109AD8007BFFB8E794F829200AB901226A600F4A87
:109AE8004FF40170C2F808030022586A9A61EEE741
:109AF8000A484FF48E71FFF739FF5369002BB2D033
:109B080051690291002391688DF8003001915361E9
:109B18006846D2E900139847A5E700BF0020004037
:109B2800282C00201F2886BF00F01F00044B4FF090
:109B3800A04300F5E070022243F82020704700BFE0
:109B4800000300502DE9F843614B057991462C221A
:109B580002FB0532064692F82A200C469846002A4F
:109B680040F0B1805B490068FFF71CFE07460028FB
:109B780040F0AB8021684A1C10D01F2987BF564A85
:109B880001F01F030B464FF0A0420120984003F557
:109B9800E073C2F80805032042F823006068431CFC
:109BA8000DD01F288BBF00F01F0303464A4A4FF011
:109BB800A04203F5E0734FF0000C42F823C033686D
:109BC800A269C3F8242594F814C0627DBCF1010F82
:109BD8004CEA0202C3F86C25C3F81405C3F80C1547
:109BE8002BD1A168481C0DD01F298BBF01F01F0283
:109BF8000A4639484FF0A04002F5E0724FF0000CD9
:109C080040F822C0E068421C13D01F2887BF324AA0
:109C180000F01F0C84464FF0A0424FF0010E0EFAE0
:109C28000CFE0CF5E07CC2F808E54FF0030E42F894
:109C38002CE0C3F80805C3F810152C236B4308EB78
:109C48000302C2F80490226948F80320B9F1000F12
:109C580021D03068247F4FF48E71FFF787FE4FF4D0
:109C6800A2713068FFF782FE32681C4BC2F80433D9
:109C7800110B42F307326301002ADBB21EDB1848DE
:109C8800841884F800330123520901F01F0103FAF4
:109C980001F140F8221033680422C3F800252C2370
:109CA80003FB05830022C3E9062283F829205A61B1
:109CB800012283F82A203846BDE8F883094A01F0D2
:109CC8000F015354E7E70827F5E71127F3E700BF2B
:109CD800282C0020F19902000003005080000200A7
:109CE80000E100E014ED00E02DE9F041036804799B
:109CF800284D0022C3F800252C2202FB04520146FD
:109D08005268A2B1244AC3F808231A0B43F3073355
:109D1800002B0CDB02F01F005B090122824020337C
:109D28001E4840F82320BFF34F8FBFF36F8F0B6897
:109D3800D3F80C05D3F81485D3F80865D3F8107553
:109D48004FF0FF329042C3F81425C3F80C25C3F82E
:109D58000825C3F8102501D0FFF7E4FEB8F1FF3F4E
:109D680002D04046FFF7DEFE7A1C02D03846FFF7E5
:109D7800D9FE731C02D03046FFF7D4FE0868FFF7FF
:109D880061FD2C2303FB0454002384F82A3063600C
:109D9800BDE8F081282C00208402020000E100E0E8
:109DA8002DE9F047204F90F804904FF02C0808FB5D
:109DB800097405466669002E34D162610068A160A5
:109DC80026624FF48E7184F82860FFF7CFFD28686B
:109DD800012383602146FFF7D1FD6368A0468BB954
:109DE8002868D4F814A0236A9A4511D82A68D2F8AA
:109DF8001C31002BFBD00123D3602C2303FB0973F8
:109E080000225A613046BDE8F08794F828303BB903
:109E1800D0F81C31002BF8D04146FFF7AFFDE2E740
:109E28000F26EAE71126EDE7282C002000234350EF
:109E380082B043580193019B02B070471FB50123BC
:109E48008DF80030044BCDE90110D3E900126846C3
:109E5800904705B05DF804FB542C00201F2886BFEE
:109E680000F01F00044B4FF0A04300F5E070022201
:109E780043F82020704700BF000300507FB5434AD5
:109E8800D2F82461002E60D010464FF49271FFF78B
:109E9800CDFF02238DF80030D2F88034C2F8803428
:109EA8000393D2F83C350293394BDA6801920022C9
:109EB800C3E906226846D3E9001290473348D0F830
:109EC800443173B14FF4A271FFF7B0FF304B9A6978
:109ED8003AB10022C3E90622D968D0F83C05FFF759
:109EE800ADFF2A48D0F82031ABB14FF49071FFF79D
:109EF8009DFF0123C360264B5A6962B1D0F84C1507
:109F08000291002299688DF8002001915A616846F3
:109F1800D3E9001290471D48D0F858319BB14FF44F
:109F2800AC71FFF783FF1A4B5A6962B1D0F84C1530
:109F38000291002299688DF8002001915A616846C3
:109F4800D3E90012904704B070BDD2F81031002B4D
:109F5800B4D04FF488711046FFF768FF0C4BD2F865
:109F68003C0599698842A9D1DC69D96864B1D2F8FD
:109F7800005225F02005C2F800521A699C61DA6087
:109F8800DE61FFF75BFF99E79C61FAE7002000407C
:109F9800542C00202DE9F843674B0679914624227A
:109FA80002FB0632044692F820200D469846002A05
:109FB80040F0BE8061490068FFF7F4FB07460028BF
:109FC80040F0B8802868421C10D01F2887BF5C4A20
:109FD80000F01F0303464FF0A0420121994003F50A
:109FE800E073C2F80815032142F8231069684B1C76
:109FF8000DD01F298BBF01F01F030B46504A4FF0AD
:10A00800A04203F5E0734FF0000C42F823C0236828
:10A01800AA69C3F8242595F814C06A7DBCF1010F1C
:10A028004CEA0202C3F86C25C3F80C05C3F81415F2
:10A038002BD1A968481C0DD01F298BBF01F01F0226
:10A048000A463F484FF0A04002F5E0724FF0000C7E
:10A0580040F822C0E868421C13D01F2887BF384A3E
:10A0680000F01F0C84464FF0A0424FF0010E0EFA8C
:10A078000CFE0CF5E07CC2F808E54FF0030E42F840
:10A088002CE0C3F80805C3F810152423734308EB24
:10A098000302C2F804902A6948F80320B9F1000FB6
:10A0A80030D020682A7F4FF48871FFF7BFFE206800
:10A0B8004FF49071FFF7BAFE20684FF49271FFF7E2
:10A0C800B5FE20684FF4A271FFF7B0FE4FF4AC71F3
:10A0D8002068FFF7ABFE23681A49C3F80413190B6D
:10A0E80043F307335201002BD2B21CDB1648C518C4
:10A0F80085F8002301225B0901F01F0102FA01F132
:10A1080040F8231023680822C3F80025242303FB02
:10A1180006830022C3E906225A61012283F820201F
:10A128003846BDE8F883094B01F00F015A54E9E7B6
:10A138000827F5E71127F3E7542C0020859E020035
:10A14800000300501003420000E100E014ED00E0BD
:10A158002DE9F0413D4E05790468242303FB05638E
:10A1680002465B68ABB13A4BC4F8083344F3073393
:10A17800002B4FEA14310CDB01F01F005B090121B1
:10A1880081402033334840F82310BFF34F8FBFF38B
:10A198006F8FD4F8003223F02003C4F80032242350
:10A1A80003FB05639B6933B14FF4A2712046FFF7A7
:10A1B8003DFE012363604FF4AC712046FFF736FE85
:10A1C8000123E360242303FB0563D4F85811002915
:10A1D800FBD0996919B1D4F844110029F5D00023AE
:10A1E800C4F800351368D3F80C05D3F81485D3F8F0
:10A1F8000815D3F810754FF0FF329042C3F80C25BC
:10A20800C3F81425C3F80825C3F8102501D0FFF7B3
:10A2180025FEB8F1FF3F02D04046FFF71FFE7A1C2B
:10A2280002D03846FFF71AFE4B1C02D00846FFF74B
:10A2380015FE2046FFF706FB242303FB05650023D4
:10A2480085F820306B60BDE8F08100BF542C0020F9
:10A258001003420000E100E001F06043B3F1005F49
:10A268002DE9F041064638D11E4B0779242505FB18
:10A27800073598466C69002C31D16A610068A9607D
:10A288004FF49071FFF7D2FD4FF4AC713068FFF7CF
:10A29800CDFD33686A69A968C3F84415C3F8482531
:10A2A80001229A606A68AAB9D3F82021D3F85841E4
:10A2B8001AB9002CF8D00F2407E0002CFBD101229A
:10A2C800DA60D3F85821002AFBD0242303FB078740
:10A2D80000237B612046BDE8F0811024FAE71124B1
:10A2E800F8E700BF542C0020074B1B5C1F2B8ABFCC
:10A2F800064A4FF0A04203F01F03D2F80405D840E5
:10A30800C04300F001007047E1FD02000003005067
:10A31800074B1B5C1F2B86BF064903F01F034FF03A
:10A32800A041012202FA03F3C1F80C35704700BFBF
:10A33800E1FD020000030050074B1B5C1F2B86BF8A
:10A34800064903F01F034FF0A041012202FA03F36C
:10A35800C1F80835704700BFE1FD02000003005056
:10A3680008B50020FFF7E8FF0120FFF7E5FF02200E
:10A37800FFF7E2FFBDE808400320FFF7DDBF08B59F
:10A388000020FFF7C5FF0120FFF7C2FF0220FFF7FB
:10A39800BFFFBDE808400320FFF7BABF0A4B185CAF
:10A3A8001F288ABF094B4FF0A04300F01F00D3F8C5
:10A3B80004250121814021EA02000A40C3F808056A
:10A3C800C3F80C25704700BFE1FD020000030050F0
:10A3D8000B2809D00C2809D0182809D019280CBF37
:10A3E80003204FF0FF30704700207047012070476E
:10A3F80002207047C20710B504460CD54FF0A043A1
:10A408000322C3F83427C3F83827C3F83C27C3F816
:10A418004027FFF7A5FFA3070AD54FF0A0430C225A
:10A42800C3F82C27C3F83027C3F86027C3F864277C
:10A4380010BD704707B5044B0093044A402300F051
:10A4480032F803B05DF804FB59A40200792C00200F
:10A458002DE9F84388461446B2B10F4B0F4E032539
:10A46800002743F00109224608EB0701002001F00C
:10A4780055F90744241A48B933782BB14FF47A4078
:10A48800C847013D02D13570BDE8F8830123337018
:10A49800002CE8D1F8E700BFF0FD0200782C00207E
:10A4A800704701F06FB9F0B595B01D4616460846DD
:10A4B8000C46FEF749FA1A9B0D93CDE9086500256D
:10A4C8002B46082205A920460A958DF82C500C9594
:10A4D800FEF757FA079B0293069B03939DF81430E7
:10A4E8008DF8115003F00302012A1DD1BDF8142084
:10A4F800059DC3F3C203C2F383168DF81030B20072
:10A5080008230EA92046FEF73CFAC5F3952508ABAB
:10A518000093324602AB0EA9284600F0A7FB20465E
:10A52800FEF716FA15B0F0BD022AF8D1BDF816509C
:10A53800C3F3C203C5F389158DF810300827082D19
:10A548002E4628BF08263B4632460EA92046FEF76F
:10A5580018FAAD1B08AB02AA31460EA8374400F022
:10A56800E9FB002DEBD1DAE77047000007B5044B93
:10A578000093044A4023FFF796FF03B05DF804FBFD
:10A58800E1A50200BA2C002030B5104D0FCD89B0DE
:10A598006C460FC495E80F0084E80F004FF0FF33B6
:10A5A8000622CDE90023CDE9023309484FF0EB73C9
:10A5B800002269460693FEF723FE08B1FDF7BCFAB0
:10A5C800044B00221A7009B030BD00BF04FE02001F
:10A5D800E0280020B92C002038B50D4B0D4D002087
:10A5E80018700D4804782D5DD2B21C4665B1043050
:10A5F800FFF732FE08B1FDF79FFA084B1A7812B13F
:10A608002378002BFBD038BD0C30FFF7C9FBF1E7EE
:10A61800FA2C0020A42B0020E0280020B92C0020D0
:10A6280008B50848084A0378D35C33B10430FFF70B
:10A638008FFDBDE80840FFF7A7BF0C30FFF754FBBC
:10A64800F7E700BFE0280020A42B0020FFF79CBFFD
:10A6580038B50A4DFFF725FF0421284600F070FAA7
:10A66800074B01245C71FFF7F1FF042105F110008D
:10A6780000F066FA034B5C7138BD00BF8CF702002E
:10A68800F4280020FC280020037813F0040216D0D8
:10A6980003F00303012B03D0022B09D001207047DC
:10A6A8000A6800880232C0F3831002440A60F5E7A2
:10A6B8000B684288023303EB92130B60EEE71046F7
:10A6C800704700002DE9F04F87B000230446861C30
:10A6D8000DF107000F4615468DF80730FDF71CFCF5
:10A6E800404A51683960936803F580735B1A924653
:10A6F80002F21C4702F5836902F21448B3421AD3E6
:10A708000020002D69D004F00F039B0143F00503DE
:10A7180063F30F00DAF80430DAB203321E444AF861
:10A7280022009DF80700CAF80460FDF719FC012013
:10A7380007B0BDE8F08F01213846FDF738FE4846DE
:10A74800FDF74DFE4046FDF74AFEDAF80800029094
:10A75800C0B203300AEB800002A9FFF795FF029B05
:10A7680030BBDAB20AEB8202D16803919A1C01333A
:10A77800DBB20AEB83030292D3F80CB001F00303B7
:10A78800012B22D0022B15D083464046FDF72AFE26
:10A7980010B1029BCAF8083059463846FDF707FE43
:10A7A800DAF80830DAF8042003F580739B1AA5E775
:10A7B800D8B2CEE7BDF80E30C3F3891303334FEA9E
:10A7C8001B4B02EB93030293DFE7BDF80C30C3F396
:10A7D80083134FEA1B4B1344F5E7A40544F0060026
:10A7E80098E700BFCC2D0020064B074810B5012282
:10A7F8001A70FEF762F8044610B90448FEF778F9B3
:10A80800204610BDCC2D002034F7020068FE02005F
:10A8180030B50A4C71B10A4A0A49121BD208002302
:10A828009A4201D1002030BD31F82350854202D030
:10A838000133F5E7034654F83300F4E79CF60200C9
:10A8480034F70200D8280020094B013903EBC00077
:10A85800032909D8DFE801F00A020406042070473A
:10A868000079704740797047002070470220704790
:10A878009CF60200034BD3E90130C31A58425841F1
:10A88800704700BFCC2D00202DE9F04186B0FFF7BE
:10A89800F1FF0546002840F0E680744CC4F818041F
:10A8A800BFF34F8FA3680293DBB2033304EB83003B
:10A8B80002A9FFF7E9FE029B18B1D4F81824002A70
:10A8C80055D0DAB2991C013304EB8202DBB204EBF7
:10A8D8008303D268DB68049302F00303022B03921C
:10A8E80002914FD1BDF80E306148C3F38917502F3C
:10A8F8003E4628BF502666F38F1306F10801ADF8CF
:10A908000E30FDF7F2FF0546002800F09780FEF7AD
:10A918001BF8002303A908222846FEF728F8029905
:10A92800CB43DBB20133C9B20331B6EB830F4FEA35
:10A93800830804EB810122D908234246A6EB0806C6
:10A948002846FEF714F8F6B24A4908F108033246D9
:10A958002846FEF70CF8029B033703EB970702978C
:10A96800D4F81834002B41D1D4F8106451E062684F
:10A978009A4299D8A260284606B0BDE8F08108231B
:10A988003246E5E7012B59D1BDF80C303848C3F3FE
:10A998008311062928BF062161F389130231890032
:10A9A800ADF80C30FDF7A1FF0546002846D0FDF7AD
:10A9B800CBFF0023082203A92846FDF7D8FF00266D
:10A9C800BDF80C20C2F38312B300964203F10803CA
:10A9D800C6D202994A1CC9B20331029204EB810122
:10A9E80004222846FDF7C3FF0136E9E72846FDF7AC
:10A9F800AFFFFFF73FFF80F00100C5B2BBE7F36888
:10AA08005B7923B1336829461B6830469847F36859
:10AA18001E68002EF3D12846FDF79AFF0DF10700B6
:10AA28008DF80760FDF778FAD4F818340BB9029B53
:10AA3800A3609DF80700FDF793FADAE7D4F810440D
:10AA480054B90D4B0D480E49C01AC008000440F017
:10AA5800020000F05DF8CCE7236820469B68984721
:10AA6800E3681C68ECE7002585E700BFCC2D0020D3
:10AA780034F70200D82D00209CF60200DCF6020014
:10AA880051FE02002DE9F34704460E46924601A9FD
:10AA9800012218469946FFF715FE1B4F10B3019D7A
:10AAA8004FF00008AA1CC84508EB020123D117483B
:10AAB8000021FDF74DFC80F31000000440EA14402B
:10AAC800E4006B1C04F03804DBB2EDB244F001047E
:10AAD80007EB8303033544EA881444EA8624D860E4
:10AAE80047F825403B781BB1FFF7CEFE0028FBD185
:10AAF80002B0BDE8F087C9B207EB81015AF82830E7
:10AB0800CB6008F10108CEE7CC2D0020E831002009
:10AB180000231A46FFF7B6BF07B50123019201AA21
:10AB2800FFF7B0FF03B05DF804FB07B5CDE90023DC
:10AB380002236A46FFF7A6FF03B05DF804FB000096
:10AB480030B50F49D1F8102403460020144634B913
:10AB5800DC6820714AB9C1F81034226030BDE4685D
:10AB68002579854206D02468F1E7D268116821600A
:10AB78001360F3E701300A28E8D14FF0FF30EDE722
:10AB8800CC2D0020084A38B50123D2F810441370A0
:10AB98001D4604B938BDE3685D71236820465B68CB
:10ABA8009847E3681C68F4E7CC2D002007B50346F6
:10ABB8000846197A052911D05B7A2BB1094A0A4946
:10ABC8000190FDF772FC019808490190FDF76DFCB2
:10ABD800019803B05DF804EBFDF75CBC002AF8D0DF
:10ABE800F2E700BF74FE020079FE020099FE02003F
:10ABF80030B5C38885B004460D4633B1144A009277
:10AC08001449154A2846FDF750FC217A05291DD01C
:10AC1800637A4BB1A088FFF717FE104B104953F821
:10AC280020202846FDF741FC227A0E4BA08853F8D5
:10AC3800222003920021FFF7EBFD039A0A490346FD
:10AC4800284605B0BDE83040FDF72FBC05B030BD43
:10AC580074FE020084FE02007CFE020000FF020077
:10AC680079FE020024FF02009CFE02002DE9F04359
:10AC780085B01F460C9D002395F80C902B73064653
:10AC88000C46904629463846FFF7B2FFB8F1060F42
:10AC980009D8DFE808F00412181F283340003146AD
:10ACA8002846FDF702FC002229463846FFF77EFFBA
:10ACB80085F80C9005B0BDE8F08322683146284637
:10ACC800FDF7F3FBEFE7D4E9002331462846FDF70B
:10ACD800ECFBE8E7A36800933146D4E90023284653
:10ACE800FDF7E3FBDFE7E3680193A36800933146D0
:10ACF800D4E900232846FDF7D8FBD4E7236902935B
:10AD0800E3680193A36800933146D4E900232846F9
:10AD1800FDF7CBFBC7E76369039323690293E368F5
:10AD28000193A36800933146D4E900232846FDF730
:10AD3800BCFBB8E708292DE9F74F80460E461746B1
:10AD48001C463CD8002593F80C901D7319461046F4
:10AD5800FFF74EFFDFF888A0DFF888B0AE4231D9A0
:10AD680018F8052059462046FDF79FFB0135082DA8
:10AD7800F4D11949194DDFF870A02046FDF795FB6D
:10AD88004FF0000B5E4522D918F80B207E2A05D813
:10AD98001046019201F078FF019A00B92E2251461F
:10ADA8002046FDF782FB0BF1010BBBF1080FE9D13F
:10ADB800012221463846FFF7F9FE84F80C9003B0CB
:10ADC800BDE8F08F51462046FDF76FFBCEE72946D8
:10ADD8002046FDF76AFBE6E7B0FE0200AEFE020081
:10ADE800ACFE0200A6FE0200B2FE0200F8B5044660
:10ADF8000D4616461F4600F08BF868B17CB18DB140
:10AE080086B197B12B6865603A4631462046984727
:10AE180008B9074B2360F8BD4FF40540FBE748F23B
:10AE28000150F8E748F21050F5E748F21150F2E700
:10AE380011BADEBAF0B448B107680B4EB74209D16F
:10AE480059B16AB14368F0BC5B68184748F20150D1
:10AE5800F0BC704748F20250FAE748F21050F7E7A2
:10AE680048F21150F4E700BF11BADEBAF0B460B18D
:10AE780007680C4EB7420CD171B143681568DC689D
:10AE8800A5420CD3F0BC9B68184748F20150F0BCAF
:10AE9800704748F20250FAE748F21350F7E748F2D1
:10AEA8001450F4E711BADEBA2DE9F843124F134CE7
:10AEB800134E144DDFF8549001223A70124AA41A26
:10AEC800E408AD1B2404ED0844F003044FF0000827
:10AED800A84504D102233B700020BDE8F883324620
:10AEE80049462046FFF718FE56F8083B98470028C1
:10AEF800F3D108F10108EBE784320020DCF6020008
:10AF080084F702008CF702009CF6020038FF02006A
:10AF1800024B1878831E58425841704784320020EB
:10AF2800054B1A78022A04D01878431E5842584113
:10AF380070470120704700BF8432002070B5064674
:10AF48000D466A46194B9A4205D3FFF7E9FF78B9CF
:10AF58004FF4054070BD164B16481749C01AC00873
:10AF6800000440F00100FFF7D3FD48F21950F1E763
:10AF7800124C236823B1124B1A68124B9A420FD015
:10AF880086B97DB910481149206000F049FE0028B3
:10AF9800E0D10B4B0B4A1A6023680D4A1A60D9E7B7
:10AFA8000020D7E748F21750D4E700BF00F8032085
:10AFB8009CF60200DCF6020048FF0200544B002019
:10AFC800703300206572E54B88320020743300200E
:10AFD8006169614D72DF704773DF704774DF7047D6
:10AFE80077DF704770470000084902460020D1F813
:10AFF8001035C3F3C0239A4200D07047B0F5FA7FEA
:10B0080001D00130F3E74FF0FF30704700030050E4
:10B01800F0B52DED048B524D524ED3B000230322D0
:10B0280000938DF80430C5F82C274FF40062C5F85A
:10B038000C25142446F001064FF47A40B047013C31
:10B04800FAD14FF40063C5F808354FF42060B047D3
:10B058000C23C5F82C372046FFF7C6FF0120FFF761
:10B06800C3FF02AD2E460020FFF7BEFF306001206F
:10B07800FFF7BAFF0234502C706006F10806F2D1CF
:10B088000022D110D5E900401DF801305B00DBB289
:10B09800844202F1010238BF43F00103282A0DF867
:10B0A800013005F10805ECD19DF800109DF801204C
:10B0B8009DF802509DF803409DF804008B182B441E
:10B0C8002344DBB2984242D107EE901AB8EE677A71
:10B0D80007EE902ADFED248AF8EEE77AB2EE048ACA
:10B0E800E7EE287A87EE889A19EE100A01F0C8FC74
:10B0F800DFED1E7A77EEC97A064617EE900A0F46FC
:10B1080001F0BEFC14A3D3E9002301F01DFC0B469B
:10B1180002463946304601F013FC01F0CBFC144BD3
:10B12800186005F07F0307EE103A07EE904AB8EE74
:10B13800C77AF8EEE77A0F4BE7EE287A15F0800F1A
:10B1480087EE887A18BFB1EE477A83ED007A53B05C
:10B15800BDEC048BF0BD00BF9A9999999999F13F7C
:10B168000003005070FF0200000080430000C84246
:10B17800584B0020884D002070B5224E224C307864
:10B1880092B0FFF72BFF5923ADF800301F4B029305
:10B19800002523233C22002103A8ADF8043001F048
:10B1A800A1FD1822294620468DF80C50CDF830D044
:10B1B8008DF80E5001F096FD5023154AA3600A231E
:10B1C80023704FF48063A38252F8041B6560042344
:10B1D80003A8A581A37500F0BDFD08B1FCF7ACFC80
:10B1E800094A0B490748FFF7F5FE08B1FCF7A4FC2C
:10B1F800317808220120FFF7F3FE08B1FCF79CFC28
:10B2080012B070BD3C290020604B002004290020AA
:10B218002C29002008B5084B01211878FFF7DCFE1F
:10B2280008B1FCF789FC0220FCF73EFA18B1BDE82A
:10B238000840FCF781BC08BD3C2900201FB5FDF77C
:10B2480055FF08B1FCF778FC174A18480023CDE9E8
:10B25800022302A9164AFDF7DFFC08B1FCF76CFCD3
:10B26800144B1548D3F810250021D2B220FA02F267
:10B27800009101230D48FDF75EFD0C48FDF734FDF4
:10B28800FDF7D2FE04460D48FDF7F8FF08B1FCF7BC
:10B2980053FC0A4B0A4918782246FEF723F808B1EE
:10B2A800FCF74AFC04B010BD000003067CFF020056
:10B2B800EDAF02000090004000127A00614D0020BE
:10B2C8004091004008B5054B1878FEF72BF818B1E7
:10B2D800BDE80840FCF730BC08BD00BF614D002048
:10B2E800FDEEC07AF8EEE77A70EE677A30EE670A1C
:10B2F800BDEEC07A17EE103AB2EE047A67EE877A9E
:10B308000370FDEEE77A17EE903A4370704700003D
:10B3180013B52023044601930D4A0E490E48032312
:10B32800FFF764FD08B1FCF707FC0B48042221462F
:10B33800FFF780FD08B1FCF7FFFB0849064801AAA2
:10B34800FFF794FD08B1FCF7F7FB02B010BD00BF92
:10B358003D290020D4FF0200984B0020184D002002
:10B3680030B585B0014601A8FFF7BAFF9DF8042063
:10B378009DF80530244C0F2A4FEA021003F00F0302
:10B3880086BF120962F00F02F0220343B0EE600A92
:10B3980001A822706370FFF7A3FF9DF80430A37023
:10B3A800B0EE600A01A8FFF79BFF9DF80500B0EE1C
:10B3B800410A00F00F0501A8FFF792FF9DF804204D
:10B3C8009DF805306171100903F00F0302F00F02B8
:10B3D80043EA021340EA051002AA0B49E070237100
:10B3E8001046062311F8015B02F8015B013BF9D115
:10B3F800FFF78EFF054A062312F8011FE1540133B7
:10B40800262BF9D105B030BD04290020184D0020A5
:10B4180010B503780446002B46D140680821FDF793
:10B4280011FE08B1FCF788FB9FED200A6268F0EE78
:10B43800407A002332F9131007EE101AB8EEC77AD3
:10B44800D90703F101034CBF77EE877A30EE070A7C
:10B45800082BEFD1B5EE007A20EE070ADFED146A6B
:10B46800144B20EE260ADFED146A93ED001A134BF5
:10B4780067EE877A20EE260AF3EE036A87EEA67A4D
:10B48800D3ED000AFDEEC77A17EE900ADFED0C7ACD
:10B4980080EE270AFFF764FFFFF76EFEFFF7BAFE9C
:10B4A800084A13680133136010BD00BF0000000094
:10B4B80000404E45584B002000008039884D002040
:10B4C80000001A425C4B002000B589B00223ADF899
:10B4D800043006238DF80630194B1A494FF4A02280
:10B4E800CDE9022301A80023174A8DF810300593EF
:10B4F80006928DF81C30FDF707FD08B1FCF71CFB20
:10B5080002A90020FDF748FD08B1FCF715FB05A9C5
:10B518000120FDF741FD08B1FCF70EFB0B4808219F
:10B52800FDF790FD08B1FCF707FB09480821FDF776
:10B5380089FD08B1FCF700FB09B05DF804FB00BF0A
:10B548000200000219B4020002000005784B002036
:10B55800884B002007B54FF480410020FFF744F9DD
:10B5680008B1FCF7E9FAFFF773F8FCF7A7FB08B195
:10B57800FCF7E2FA00210120FCF7A2F808B1FCF779
:10B58800DBFAFDF70BFA08B1FCF7D6FA00F0C6FEB5
:10B5980008B1FCF7D1FA002301A90120019300F0BA
:10B5A80079FF08B1FCF7C8FA01A801F021F808B141
:10B5B800FCF7C2FA144A15480121FCF7B1FB08B19F
:10B5C800FCF7BAFA00224FF470311148FCF7B3FBCC
:10B5D800FFF77AFFFFF732FEFFF774FEFFF764FC10
:10B5E80008B1FCF7A9FAFFF7C7FDFFF713FEFFF74D
:10B5F8004BF908B9FDF7E8F9FDF7E6F9FFF744F963
:10B608000028FBD1F3E700BF19B0020078FF020061
:10B61800684D00200369C1688B429DBF8268D218BB
:10B6280002F1FF3203F1FF3394BF501A581A7047E2
:10B638002DE9F843D0E902940546A9EB04084068CF
:10B64800904520440F46144404D901F022FBEC60D5
:10B65800BDE8F8834246A4EB090401F01AFB6868C8
:10B66800224607EB0801F0E72DE9F843C5680646CE
:10B67800894617464FF000083469B3687068A542D8
:10B6880028BFE418013C621B5C1BBC4228BF3C4637
:10B69800944228BF144649462844224601F0F9FA44
:10B6A800B3682544AB4208BF00253F1BA044A14412
:10B6B800F560E1D14046BDE8F883000010B5114CB3
:10B6C800114AA2610223C4E90433104BE361A26466
:10B6D8004FF400630E4A0F492362E26400231022EC
:10B6E800E01DA3626362E362A3656365E3652265A7
:10B6F80001F02BFB0849204601F027FB2023A3710A
:10B7080010BD00BF8C4D002084FF0200144E0020A5
:10B71800044E00208DFF020091FF0200F8B5184C7E
:10B72800182300FB033503FB00402544C46A012CA1
:10B738000F4616460FD0022C1AD0F4B92846FFF748
:10B7480069FF864205D8324639462846FFF770FF1A
:10B7580034462046F8BD2846FFF75CFF864234464B
:10B7680028BF0446224639462846FFF761FFF0E71E
:10B778002846BDE8F840FFF777BF0024E9E700BF97
:10B788008C4D0020FFF79ABF034B1868A0F10803FF
:10B7980058425841704700BF30010010064B1B68E3
:10B7A800082B06D1054B1B68032B02D8044AD05C32
:10B7B80070470020704700BF3001001034010010AE
:10B7C80098FF020008B5FFF7DFFF40B14FF0804354
:10B7D8000022C3F80C21C3F81021C3F83825FFF75D
:10B7E800D3FF002846D04FF080525E4BD2F80414A5
:10B7F800C3F82015D2F80814C3F82415D2F80C148D
:10B80800C3F82815D2F81014C3F82C15D2F814145C
:10B81800C3F83015D2F81814C3F83415D2F81C142C
:10B82800C3F84015D2F82014C3F84415D2F82414EC
:10B83800C3F84815D2F82814C3F84C15D2F82C14BC
:10B84800C3F85015D2F83014C3F85415D2F834148C
:10B85800C3F86015D2F83814C3F86415D2F83C144C
:10B86800C3F86815D2F84014C3F86C15D2F844240C
:10B87800C3F87025FFF792FF10B13B4B3B4A1A60A3
:10B88800FFF78CFF18B13A4BFB22C3F81825FFF7D6
:10B8980085FF48B13749384B0A681B6822F00F0208
:10B8A80003F00F0313430B60FFF778FF18B1334B16
:10B8B8004FF400721A60FFF767FF48B14FF08043FA
:10B8C800D3F80024D20744BF6FF00102C3F8002464
:10B8D8002B4AD2F8883043F47003C2F88830BFF39B
:10B8E8004F8FBFF36F8F4FF01023D3F80022002A39
:10B8F80003DBD3F80432002B2FDA224B0122C3F8E2
:10B908000425D3F80024002AFBD04FF0102212217E
:10B91800C2F80012D3F80024002AFBD04FF01023FD
:10B928001222C3F80422174B1A46D3F80014002930
:10B93800FBD00021C3F80415D2F80034002BFBD04B
:10B94800BFF34F8F0E49104BCA6802F4E0621343ED
:10B95800CB60BFF34F8F00BFFDE70C4B0C4A1A605A
:10B9680008BD00BF00C000408C560040488103005D
:10B9780000F00040E40E00405802001040960240DB
:10B9880000ED00E000E001400400FA054029002035
:10B998000090D00320B3A0F57000A0F540700C28EB
:10B9A80019D80C2817D8DFE800F00716190A130D64
:10B9B8000A1316161616100048F20150704748F27E
:10B9C8001050704748F21350704748F217507047AC
:10B9D80048F21150704748F21650704748F202502A
:10B9E800704700002DE9F041DFF844800023054648
:10B9F8000F461360012140461446FCF7A9FC064691
:10BA0800BFF35F8F88B9394605F1080002F0B2FB31
:10BA18000246BFF35F8FC8F80060FFF7BBFF12B99B
:10BA28006B68DB682360BDE8F08148F20450FAE7F0
:10BA3800145600202DE9F84343681B7D05460E4641
:10BA480017467BB1012B2DD01B4B1C481C49C01A33
:10BA5800C008000440F00100FFF75AF848F203500C
:10BA6800BDE8F8834FF0020906F06043B3F1005FC8
:10BA78001BD1DFF8508001214046FCF769FC0446E1
:10BA8800BFF35F8FA0B9BBB23246494605F1080043
:10BA980002F0D6FABFF35F8FC8F80040BDE8F8435C
:10BAA800FFF778BF4FF00409DEE748F21250D7E7F6
:10BAB80048F20450D4E700BF9CF60200DCF602000E
:10BAC8009CFF02001456002001F06043B3F1005FB0
:10BAD8002DE9F04106460D46144623D101211548AB
:10BAE800FCF736FCBFF35F8F00BB4FF6FF780836D4
:10BAF8004445274628BF474629463A46304602F07D
:10BB080017FBE41B3D4458B9002CF1D1BFF35F8FFC
:10BB1800084B00222046BDE8F0411A60FFF73ABF03
:10BB28000446F3E748F21250BDE8F08148F20450A9
:10BB3800FAE700BF14560020002110B50846FFF7A9
:10BB4800FDF9044608B902F031FE204610BD000098
:10BB580008B5074B00221A60BFF35F8F02F0F2FDB1
:10BB6800014618B9BDE80840FFF7E8B9032008BD49
:10BB780014560020002844D0A0F57000A0F54060BD
:10BB8800352839D8352837D8DFE800F0211E362483
:10BB980027272A3330363636361E361E3939393697
:10BBA800363636363636363636363636242A24276C
:10BBB8001B2D362D3636363636363636212A27367A
:10BBC8001E1E48F21750704748F20350704748F25B
:10BBD8001350704748F21050704748F211507047A0
:10BBE80048F21450704748F20150704748F202502A
:10BBF800704748F27150704748F21650704748F243
:10BC08007050704708B501210448FCF7A1FBBFF349
:10BC18005F8FB0FA80F0400908BD00BF14560020BD
:10BC280013B502680C4B01919A4204460FD0FFF7F6
:10BC3800E9FF70B10199201D01F030FDFFF79AFF6F
:10BC4800BFF35F8F054B00221A6002B010BD0020C1
:10BC5800FBE748F20450F8E76169614D145600208B
:10BC68006DDF704779DF70477DDF704764DF7047AD
:10BC78002DE9F04F85B000250E9CBDF83CB0B4F816
:10BC880000A00191074690461E46A9463A884A45B3
:10BC98000DDC45B12388013BA3EB0A039BB2FF2BC4
:10BCA8003AD806F80A30002005B0BDE8F08F7A6867
:10BCB80052F82900039000220DF10B0103A8FFF7A9
:10BCC800D5FF0028F0D19DF80B20424521D12288CC
:10BCD800002D14BF0020022002EB08010144594541
:10BCE8001ADC3DB9013292B2019B2280B3542288FA
:10BCF8000132228022880DF10B01324403A8FFF79C
:10BD0800B5FF0028D0D121889DF80B200A44228055
:10BD1800012509F10109B9E70C20C5E72DE9F3412F
:10BD2800089FBDF824801546CDE900780222044614
:10BD38001E46FFF79DFF50B933461022294620467C
:10BD4800CDE9087802B0BDE8F041FFF791BF02B035
:10BD5800BDE8F0812DE9F04F00231788138090F893
:10BD68002D3085B006460D46144653B3082F01D82A
:10BD78000C2027E102A8FFF773FF002840F022817A
:10BD880023880822EA54238801339BB21B2223808C
:10BD9800EA542088013080B2208006220DF1090182
:10BDA800284400F076FF23889DF8082006339BB2CC
:10BDB80012F0FE0218BF01222380EA5423880133BF
:10BDC8002380B378FBB123880433BB42D0D802A8C0
:10BDD800FFF748FF002840F0F58023880322EA5443
:10BDE800238801339BB219222380EA542388BDF8A3
:10BDF800082001339BB2E9182380EA54120A4A70DA
:10BE0800238802332380F2789AB12388D91CB94257
:10BE1800AED80221E954238801339BB20121238043
:10BE2800E95423880B449BB22380EA5423880B44AB
:10BE380023807268AAB12388D91CB94298D80221F4
:10BE480092F90020E954238801339BB20A21238008
:10BE5800E954238801339BB22380EA5423880133B1
:10BE680023803389002B40F0A180338A5BB1CDE970
:10BE780000472B460722032106F11000FFF74EFF6B
:10BE8800002840F09F80338B5BB1CDE900472B46FB
:10BE98001522142106F11800FFF740FF002840F092
:10BEA8009180326A002A40F09080D6F82480B8F158
:10BEB800000F30D0B8F804302188981C8A1C02443E
:10BEC800BA423FF655AFFE283FF652AF03336B54E4
:10BED800238801339BB2FF222380EA54238801334D
:10BEE8009BB22380B8F80020EA54E918120A4A7075
:10BEF8002088023080B22080B8F804205AB1D8F8DF
:10BF0800081000296BD0284400F0C3FE2388B8F835
:10BF180004201344238096F82C30002B40F09A809C
:10BF2800307800284ED03388012B58D0228802F16F
:10BF3800020CBC453FF61CAF012805D173780233CB
:10BF480013449F42FFF414AF023FBF1ABFB202A9C5
:10BF580005EB0C00ADF80870FFF786FE90BB317852
:10BF6800BDF80830022900F0BA8072789A4202D3EC
:10BF7800BB4240F2B280012940F0B380974293B2AD
:10BF8800C0F0AF80ADF808300821BDF80830FE2BAE
:10BF98003FF6EEAE22880133AB542288013292B2CA
:10BFA8002280A9542288134423800BE0CDE900475E
:10BFB8002B460622022106F10800FFF7AFFE0028F3
:10BFC8003FF453AF05B0BDE8F08FB4F800C00CF1F2
:10BFD8000603BB423FF6CCAE1188052901D80720DD
:10BFE800F0E76FF4486E01EB0E039BB24FF27D3E13
:10BFF8007345F4D95388052BF1D96FF448601818A4
:10C0080080B27045EBD94FF6FF70814203D083426E
:10C0180001D09942E3D8052305F80C302388013371
:10C028009BB212212380E954238801339BB22380D9
:10C038001188E954E818090A4170238802339BB231
:10C0480023805288EA54E918120A4A702388023376
:10C0580023802AE7B36A002BC1D04FF000094FF0C4
:10C068000C0A4FF0160B96F82C305FFA89F29342BF
:10C078007FF656AFB16A0AFB02F201EB0208B8F884
:10C088000430981CFE283FF673AE208803332B54E7
:10C09800238801339BB2238005F803B0238801333A
:10C0A8009BB223808A5AEA54E918120A4A702088F7
:10C0B800023080B22080B8F804205AB1D8F80810AD
:10C0C80000298CD0284400F0E4FD2388B8F8042027
:10C0D8001344238009F10109C5E7092155E7BB424B
:10C0E800FBD9ADF808704FE70AB1FCF715B9FCF7B2
:10C0F8001CB973B50191019C06466CB100252C460C
:10C10800294601A8FCF71BF918B106EB44030134D2
:10C118009D800135142DF3D13046346002B070BDD6
:10C128002DE9F04703888488103B8CB005460A2B1C
:10C138001FD8DFE803F0063F1E1E1E1E1E1E1E60CF
:10C148004400314EB368DB43009371686846FCF7DE
:10C1580022F9009901A8FFF7CCFF0DF108094FF06B
:10C168000008019B984507D3132C13D90420FBF72B
:10C17800E3FC0CB0BDE8F08739F802AB00270137C3
:10C18800514606EB8700FCF7D0F81E2FF7D108F1CF
:10C198000108E6E71D482146FCF7BEF81C48214681
:10C1A800FCF7BAF8EB7B022BE3D11A482146FCF7DF
:10C1B800B3F8DEE715482146FCF7B7F8D9E7027A65
:10C1C80015483F2A4FEA1215214694BF0022012242
:10C1D800FFF78AFF022D94BF002201220F48214653
:10C1E800FFF782FF012D0E4894BF0022012221464D
:10C1F800FFF77AFFBDE7037A002BBAD1427A0648E7
:10C20800C2F3C0022146F3E718560020205600204A
:10C218001C56002024560020305600202C560020A2
:10C228002856002010DF7047F7B5154B154C1649F6
:10C23800164FE41AE408240444F0040402460646AF
:10C248002046FEF769FC12496846FCF75AFC019D36
:10C258000DB9284612E0D5E90031304698472A46FC
:10C2680038B120463946FEF757FC6846FCF753FCC0
:10C27800EDE720460749FEF74FFC112003B0F0BD5B
:10C288009CF60200FCF60200F00003000601030021
:10C298006C0103002601030013B50E4B0E4904463A
:10C2A8000E481B1ADB081B0443F004002246FEF765
:10C2B80033FC0B496846FCF724FC019B0BB902B020
:10C2C80010BD2046D3E9002190476846FCF723FCBF
:10C2D800F3E700BFFCF60200490103009CF60200E8
:10C2E800840103000B4991F816335A09EC231341D2
:10C2F800DB0706D5084B9A683AB94FF480030B6000
:10C30800704742F20200FBF717BC1A6842F4800239
:10C318001A60704700E100E0C42A0020F7B5194F01
:10C328003C7864BB184E012520463570FFF77CFF2A
:10C33800112821D02046FFF7AFFF144B8DF803409A
:10C34800186801900DF10300FBF7E6FD104901A8FC
:10C35800FFF768FF0446B0FA80F0400938709DF88E
:10C368000300FBF7FDFD3CB90A4B34701C70FFF766
:10C37800B9FF2846FFF790FF204603B0F0BD082418
:10C38800FAE700BF95560020945600206601030086
:10C398005D7B020096560020014B1878704700BF5D
:10C3A8009556002007B508496846FCF7AAFB019B8B
:10C3B80013B903B05DF804FBD3E900209047684641
:10C3C800FCF7A9FBF3E700BF78010300FFF7EABF1A
:10C3D80060DF704769DF704761DF7047F0B5184B61
:10C3E8001B7891B053B3174C174B184E184FE41ADB
:10C3F800E408240444F0040434250DF1020103A8E0
:10C40800ADF80250FFF7E8FFA0B931462046BDF865
:10C418000C20FEF781FB394601A8FCF772FB029B52
:10C42800002BEAD003A8D3E90021904701A8FCF724
:10C4380072FBF4E7052801D0FBF77EFB11B0F0BDD5
:10C448009756002004F702009CF6020090010300B2
:10C458005004030010B50A4B04460A481B1ADB08AF
:10C468001B0443F0030024B90749FEF751FB0E20D3
:10C4780010BD0649FEF74CFB054B23600020F7E78B
:10C4880004F702009CF60200EEF70200A101030087
:10C49800D82800207FB5064608460C46FFF7DAFF85
:10C4A8000546002840F0908001460C2201A800F0C3
:10C4B80019FC01238DF8063022688DF804600623E4
:10C4C80001A92020ADF80830FFF784FF60B1FCF720
:10C4D80073FB404B4049024640481B1ADB081B04CB
:10C4E80043F00100FEF718FB0C22002101A800F020
:10C4F800F9FB002322688DF8053001A94020ADF82A
:10C508000630FFF767FF60B1FCF756FB314B344943
:10C51800024632481B1ADB081B0443F00100FEF7F1
:10C52800FBFA0C22002101A800F0DCFB00232268A2
:10C538008DF8043001A90120FFF74CFF60B1FCF72A
:10C548003BFB244B2749024624481B1ADB081B04E3
:10C5580043F00100FEF7E0FA0C22002101A800F0E8
:10C56800C1FBF8232268019301A9A120FFF732FF3C
:10C5780060B1FCF721FB174B1B49024617481B1AF1
:10C58800DB081B0443F00100FEF7C6FA0C22002169
:10C5980001A800F0A7FB9DF8043022686FF30003A0
:10C5A80001A9A0208DF80430FFF714FF78B1FCF73B
:10C5B80003FB084B0D49024608481B1ADB081B04FD
:10C5C80043F00100FEF7A8FA284604B070BD0546FE
:10C5D800FAE700BF04F70200A90103009CF6020075
:10C5E800EF0103003B02030087020300D8020300A7
:10C5F800F7B50768274C0546FFF7EAFE264BE41A0D
:10C608002B68E408BB4206464FEA04441FD944F0AD
:10C61800020022490190FEF77BFA2B682049019815
:10C628003A46FEF782FA4FF080532A68D3F80C3165
:10C638001C499B0203F100539A1A0198FEF76CFA01
:10C64800F6B9194B01221A70304603B0F0BD44F018
:10C6580004003A4615490190FEF75EFA2A68BA4284
:10C66800EED013490198FEF757FA4FF080532A6825
:10C67800D3F80C310F499B0203F100539A1ADCE7F7
:10C688003046FCF799FA0C49024644F00100FEF7DF
:10C6980043FAD9E704F702009CF602002B030300D3
:10C6A8005A0303008B03030097560020B5030300C9
:10C6B800C8030300F4030300260403004BDF70479C
:10C6C8001FB50D4C01A8FFF7F9FF70B9214602A864
:10C6D800FCF717FA039B002BF4D00198D3E900214B
:10C6E800904702A8FCF717FAF4E7052801D0FBF7F2
:10C6F80023FA04B010BD00BF6804030030B591EA06
:10C70800030F00F18480841A71EB030C05D212190F
:10C7180053EB0C03001B71EB0C0140F2000CCFF63D
:10C72800E07C1CEA430F54D0BCEB410F61D90C0DDF
:10C73800A4EB135E31EA0C0141F4801133EA0C03D7
:10C7480043F48013DEF1200C2AD303FA0CF54019C8
:10C7580041F1000122FA0EF5401923FA0EF569415C
:10C7680012FA0CF2CD0208D349085FEA30005FEAFA
:10C77800320228BF42F001020134013C5FEA500C4A
:10C7880072F1004250F1000051EB04514FF40013D4
:10C7980013EB410F38BF30BD090D0905002030BD2E
:10C7A800BEF1200EBEF1200F1ED223FA0EF540195D
:10C7B80041F10001CEF1200C124218BF012203FA08
:10C7C8000CF52A43CEE711EA5C0F04BF00200021D4
:10C7D80030BD1CEA410F04BF01F00041002030BD0C
:10C7E80001F00041002030BD21F4801101EB04511B
:10C7F80030BD004218BF41F00101BCEB410F08BF3A
:10C8080030BD4FF0FE4141F47801002030BD83F087
:10C818000043841A71EB030E07D28EF0004E001B02
:10C8280071EB0E01121953EB0E0340F2000CCFF618
:10C83800E07C1CEA430FC6D0BCEB410F72D90C0D4B
:10C84800A4EB135EC90241EA5051C00241F0004115
:10C85800DB0243EA5253D20243F00043DEF1200CDC
:10C8680041D312FA0CF522FA0EF203FA0CF542EA59
:10C87800050218BF42F0010223FA0EF3801A99410B
:10C88800E30AC4F30A0411F0404F03D418D0013C62
:10C8980040004941013C23D44205C00A40EA4150C6
:10C8A800C90A51EAC3715FEA500C72F1004250F1B3
:10C8B800000051EB045130BD01002FD00020203C76
:10C8C8000029F9D0B1FA81FCDCF1200E11FA0CF143
:10C8D80030FA0EF510FA0CF02943A4EB0C04D9E752
:10C8E8000020D90730BDAEF1200EBEF1200F0DD2C9
:10C8F800CEF1200C03FA0CF533FA0EF32A4318BFD5
:10C9080043F00103C01A61F10001B9E721F00041C9
:10C91800C00A40EA4150C90A01EB045130BD002069
:10C92800002130BD004218BF41F00101BCEB410FAE
:10C938007FF467AFBCEB430F3FF463AF30BD00BF7C
:10C9480083F00043FFF7DABEF0B540F2FF7681EAE4
:10C95800030C16EA115E1EBFB64516EA1355B5421A
:10C968005AD021EA465141F48011A1FB024723EA3B
:10C97800465343F48013AE44A0FB03650CF0004C0F
:10C9880036197D41A1FB034747F10003A0FB0217BD
:10C99800F619654153F10003094218BF46F0010634
:10C9A80040F2FE74B3F5007F13D2AEF5806EA64553
:10C9B8002BD24CEA0331280341EA155140EA1650BC
:10C9C8003203450872F1004250F1000051EB0E515C
:10C9D800F0BDAEF2FF3EA64517D24CEAC321E802ED
:10C9E80041EA555140EA5650F202450872F10042B8
:10C9F80050F1000051EB0E51F0BD0CF0004141F038
:10CA0800FE4141F470010020F0BD1EEA0E0FF4D57E
:10CA18000CF000410020F0BD16EA115F04BF01F0E0
:10CA280000410020004218BF41F0010116EA135FDF
:10CA380004BF03F000430022124218BF43F0010371
:10CA480006EA1354B44218BF9EEA060F03D00CF04E
:10CA580000410020F0BD21F0004123F00043B1EB7C
:10CA6800065F06D8B3EB065F03D8002918BF002B72
:10CA7800C3D140F20001C7F6F8710020F0BD00BF35
:10CA8800C0F3C75191B142004FEA40704FEAD2015A
:10CA98004FEA310101F16051B2F17F4F38BF704761
:10CAA80001F1605118BF41F40021704710F00041B6
:10CAB8000020704701F000428B1AA3F16051B1F5D4
:10CAC800801F0ADBB1F17F6F09D242EAC102C100BF
