:1000000000000420750300005D0300005F03000092
:1000100061030000630300006503000000000000AE
:100020000000000000000000000000006703000066
:1000300069030000000000006B0300006D03000076
:10004000816500006F030000817500006F030000F0
:100050006F0300006F030000197200006F030000BF
:100060006F0300006F0300006F0300006F030000C8
:100070006F030000097A00006F0300006F030000A7
:100080006F030000392200006F0300006F030000BF
:100090006F0300006F030000850800006F0300007D
:1000A0006F0300006F0300006F0300006F03000088
:1000B0006F0300006F03000000000000000000005C
:1000C0006F0300006F0300006F0300006F03000068
:1000D0006F0300006F0300006F0300006F03000058
:1000E0006F0300006F030000CDBF000000000000A0
:1000F000000000006F030000000000006F0300001C
:1001000000000000000000000000000000000000EF
:1001100000000000000000000000000000000000DF
:1001200000000000000000000000000000000000CF
:1001300000000000000000000000000000000000BF
:1001400000000000000000000000000000000000AF
:10015000000000000000000000000000000000009F
:10016000000000000000000000000000000000008F
:10017000000000000000000000000000000000007F
:10018000000000000000000000000000000000006F
:10019000000000000000000000000000000000005F
:1001A000000000000000000000000000000000004F
:1001B000000000000000000000000000000000003F
:1001C000000000000000000000000000000000002F
:1001D000000000000000000000000000000000001F
:1001E000000000000000000000000000000000000F
:1001F00000000000000000000000000000000000FF
:10020000354936480A1A02D0072291438D463449AF
:1002100034480A1A06D00722914381F30988022242
:1002200082F3148830483149314A00F044F83148AB
:100230003149324A00F03FF831483249324A00F041
:100240003AF832483249334A00F035F832483349F7
:10025000334A00F030F833483349344A00F02BF881
:1002600033483449344A00F026F8344834490022EF
:1002700000F02CF833483449002200F027F83348C6
:100280003349091A082902DB002202604160314A21
:1002900090471F481F49884205D00268043003B4C4
:1002A000904703BCF7E700208646EC46002000217B
:1002B000294A9047FEE7884207D0521A05D00378B2
:1002C00001300B700131013AF9D17047884202D0F8
:1002D00002700130FAE770470000042000E00320BC
:1002E000000004200000042004EA000000000020B8
:1002F000B4000020D0030000D0030000A4C600001A
:1003000004EA00000000002000000020A4C7000054
:10031000A4C70000A4C70000A4C70000A4C7000031
:10032000A4C70000A4C70000A4C7000001EA0000A1
:10033000B8EA0000B4000020B4000020B40000209F
:10034000A42B0020A42B0020A42B0020A42B0020F1
:10035000A44B00209D030000599F0000FEE7FEE72C
:10036000FEE7FEE7FEE7FEE7FEE7FEE7FEE7FEE765
:1003700000F002B8FFF7FCBF0F484FF007018843B9
:1003800085460E4880470E48016841F470010160BF
:10039000BFF34F8FBFF36F8FFFF732BF09480A4992
:1003A0000A4A884207D0521A05D0037801300B70F0
:1003B0000131013AF9D170470000042001A3000087
:1003C00088ED00E0A4C7000000000020000000202D
:1003D00082B003468DF807309DF90730002B0CDB07
:1003E0009DF8073003F01F0205499DF907305B09AE
:1003F000012000FA02F241F8232000BF02B070474A
:1004000000E100E082B003468DF807309DF9073027
:10041000002B09DB0B4A9DF90730134493F8003396
:10042000DBB25B09DBB20AE0074A9DF8073003F054
:100430000F03043B13441B7EDBB25B09DBB218469F
:1004400002B0704700E100E000ED00E000B583B0CD
:100450000190019B002B03D10449C42009F046FC04
:10046000019B5B68184603B05DF804FBA4C700005D
:1004700010DF704700BF184682B003468DF8073082
:100480009DF907301F2B0CDC9DF907300F4A22FA2B
:1004900003F303F00103002B14BF01230023DBB29D
:1004A00010E09DF907303F2B0BDC9DF90730203B16
:1004B000012202FA03F3002B14BF01230023DBB255
:1004C00000E00123184602B0704700BFFC06FFBDE4
:1004D00082B00190019B072B07D8EC22019B42FAC6
:1004E00003F303F00103002B01D1002300E00123FB
:1004F000184602B07047000000B583B003468DF87F
:1005000007309DF907301846FFF7B6FF0346002B6A
:1005100002D142F201032EE09DF907301846FFF7A1
:1005200071FF03461846FFF7D3FF0346002B02D1A5
:1005300042F202031FE0124B9B68002B15D09DF97D
:1005400007305B090E4A52F823209DF8073003F06C
:100550001F03012101FA03F319469DF907305B09D6
:100560000A43074941F8232004E09DF90730184663
:10057000FFF72EFF0023184603B05DF804FB00BF11
:10058000D001002000B587B003468DF80730284A17
:10059000284BD31ADB081B0443F004039DF8072003
:1005A0002549184604F062FE02AB2449184602F0C1
:1005B00083F830E002AB1846FFF748FF0590059B33
:1005C0001B680493059B59689DF80720049B1046FF
:1005D00098470346002B0CD0154A164BD31ADB085C
:1005E0001B0443F00403059A1549184604F03EFE27
:1005F0000DE00F4A0F4BD31ADB081B0443F0040332
:10060000059A1049184604F031FE11230BE002ABA5
:10061000184602F07BF802AB1846FFF717FF0346B7
:10062000002BC7D10023184607B05DF804FB00BFBC
:1006300018C70000C0C6000004C8000054C900006C
:100640001CC800003CC8000000B587B003468DF808
:100650000730194A194BD31ADB081B0443F0040373
:100660009DF807201649184604F000FE02AB154914
:10067000184602F021F812E002AB1846FFF7E6FE3A
:100680000590059B1B680493059B59689DF80720FE
:10069000049B1046984702AB184602F037F802ABAD
:1006A0001846FFF7D3FE0346002BE5D100BF00BF7D
:1006B00007B05DF804FB00BF18C70000C0C600000B
:1006C00060C8000060C9000000B583B01620FFF7C5
:1006D00013FF0190019B0093009B002B04D0044A60
:1006E000A121009802F07EF900BF03B05DF804FB81
:1006F00078C8000000B585B03F4B1B78002B01D0B7
:10070000082374E03D4B01221A700020FFF73AFFE6
:100710000346112B01D1002369E0394A394BD31A22
:10072000DB081B0443F004033749184604F090FD2E
:100730000020FFF789FF354B1B68029300238DF8DB
:1007400007300DF10703184602F080FA2C4A2D4BB2
:10075000D31ADB081B0443F004032D49184604F0A8
:1007600077FD02AB2B491846FFF782FE0390244A1F
:10077000244BD31ADB081B0443F00403039A2649D5
:10078000184604F073FD039B002B0CBF01230023CC
:10079000DAB2194B1A709DF80730184602F06CFA5D
:1007A000039B002B01D0039B21E0144B00221A7005
:1007B0001A4B00221A70124A124BD31ADB081B0480
:1007C00043F004031649184604F042FDFFF77CFF8E
:1007D0000B4A0C4BD31ADB081B0443F004031149EA
:1007E000184604F035FD0120FFF72EFF00231846C0
:1007F00005B05DF804FB00BFB4000020B600002087
:1008000018C70000C0C60000E0C800002CC90000E6
:10081000F0C80000012A000000C90000B500002057
:100820000CC900001CC90000014B1B78184670471A
:10083000B400002000B585B06B461149184601F0A0
:100840003BFF10E06B461846FFF700FE0390039B4A
:100850001B680293039B5A68029B104698476B469D
:10086000184601F053FF6B461846FFF7EFFD0346AD
:10087000002BE7D100BF00BF05B05DF804FB00BF4F
:100880006CC9000008B5FFF7D5FF00BF08BD60DFE9
:10089000704700BF184669DF704700BF184661DF28
:1008A000704700BF1846000000B583B00190019B5F
:1008B000002B03D10449C42009F018FA019B5B689E
:1008C000184603B05DF804FB78C9000000B583B09A
:1008D0000190019B002B0CD1104A114BD31ADB085D
:1008E0001B0443F003030F49184604F0B1FC0E2328
:1008F0000FE00A4A0A4BD31ADB081B0443F0030338
:100900000949184604F0A4FC084B1A46019B1A60DA
:100910000023184603B05DF804FB00BF20C70000A9
:10092000C0C60000DCC90000E4C9000000000020CF
:1009300010B586B0034600918DF807300098FFF798
:10094000C5FF0590059B002B01D0059BC3E002ABC2
:100950000C22002118460AF01EFA9DF807308DF887
:10096000083001238DF80A300623ADF80C30009BC7
:100970001A6802AB19462020FFF78DFF0590059BF2
:10098000002B0FD0554A564BD31ADB081B0443F0FB
:100990000104059801F092FF03461A46514920468A
:1009A00004F064FC02AB0C22002118460AF0F3F9B3
:1009B00000238DF8093000238DF80A3000238DF8CC
:1009C0000B30009B1A6802AB19464020FFF763FF0B
:1009D0000590059B002B0FD0404A414BD31ADB08F2
:1009E0001B0443F00104059801F068FF03461A4612
:1009F0003D49204604F03AFC02AB0C220021184687
:100A00000AF0C9F900238DF80830009B1A6802AB80
:100A100019460120FFF73FFF0590059B002B0FD0E3
:100A20002E4A2F4BD31ADB081B0443F00104059810
:100A300001F044FF03461A462C49204604F016FCF8
:100A400002AB0C22002118460AF0A5F9F823029304
:100A5000009B1A6802AB1946A120FFF71CFF059006
:100A6000059B002B0FD01D4A1D4BD31ADB081B041E
:100A700043F00104059801F021FF03461A461C4982
:100A8000204604F0F3FB02AB0C22002118460AF0CA
:100A900082F99DF808306FF300038DF80830009B51
:100AA0001A6802AB1946A020FFF7F5FE0590059BDA
:100AB000002B0FD0094A0A4BD31ADB081B0443F062
:100AC0000104059801F0FAFE03461A46094920463A
:100AD00004F0CCFB0023184606B010BD20C7000070
:100AE000C0C60000ECC9000034CA000080CA000083
:100AF000CCCA000020CB000082B04FF08053D3F866
:100B00000C319B020193019B03F10053184602B084
:100B10007047000010B584B00190019B1B680393DF
:100B20000198FFF7B4FE0290019B1B68039A9A425A
:100B30002AD23B4A3B4BD31ADB081B0443F0020387
:100B40003949184604F084FB354A364BD31ADB0882
:100B50001B0443F00200019B1B68039A334904F015
:100B600096FB2F4A2F4BD31ADB081B0443F00204D9
:100B7000FFF7C2FF0246019B1B68D31A1A462C4995
:100B8000204604F073FB2FE0254A264BD31ADB08DE
:100B90001B0443F00403039A2649184604F066FB3D
:100BA000019B1B68039A9A421ED01D4A1D4BD31A03
:100BB000DB081B0443F00400019B1B681A461E4916
:100BC00004F054FB164A174BD31ADB081B0443F0FE
:100BD0000404FFF791FF0246019B1B68D31A1A46D3
:100BE0001649204604F042FB029B002B03D1144B14
:100BF00001221A700FE00A4A0A4BD31ADB081B04C1
:100C000043F00104029801F059FE03461A460D49CB
:100C1000204604F02BFB029B184604B010BD00BF19
:100C200020C70000C0C6000074CB0000A4CB0000A9
:100C3000D8CB000004CC000018CC000044CC00004D
:100C4000B700002078CC000000B597B00190294B88
:100C50001B7883F00103DBB2002B47D13423ADF8BE
:100C600046300DF1460202AB11461846FFF717FE5B
:100C70001590159B002B03D0159B052B2FD136E02B
:100C800002AB14931C4A1D4BD31ADB081B0443F020
:100C90000400149B1B881A46194904F0E7FA0FABAD
:100CA0001849184601F008FD11E00FAB1846FFF790
:100CB000FBFD1390139B1B681293139B5A68129BA6
:100CC0001146149898470FAB184601F01FFD0FAB63
:100CD0001846FFF7E9FD0346002BE6D1BEE70A4AB6
:100CE00040F23D11159801F07DFE00E000BF17B005
:100CF0005DF804FBB700002020C70000C0C600005C
:100D000098CC000018CD0000ACCC000000B583B03A
:100D10000190019B002B03D10449C42008F0E6FF99
:100D2000019B5B68184603B05DF804FB24CD00000E
:100D30004BDF704700BF184600B589B0019004AB87
:100D40001846FFF7F5FF0790079B002B03D0079B82
:100D5000052B20D124E002AB1349184601F0ACFC6E
:100D600011E002AB1846FFF7D1FF0690069B1B6807
:100D70000593049A069B5968059B1046984702AB59
:100D8000184601F0C3FC02AB1846FFF7BFFF03464D
:100D9000002BE6D1D3E7054A6B21079801F022FE2C
:100DA00000BF09B05DF804FBF4CD000088CD000061
:100DB00084B003468DF807309DF807305B08DBB23E
:100DC0001A460D4B9B5C8DF80F309DF8073003F0F1
:100DD0000103002B04D09DF80F301B09DBB204E0A7
:100DE0009DF80F3003F00F03DBB28DF80E309DF845
:100DF0000E30184604B07047F000002084B003465F
:100E00000A468DF8073013468DF806309DF80730F6
:100E100003F00103002B01D00F2300E0F0238DF835
:100E20000F309DF8073003F00103002B04D09DF82C
:100E300006301B01DBB201E09DF806308DF80E3064
:100E40009DF807305B08DBB21A46114B9A5C9DF89F
:100E500007305B08DBB219469DF80F301340DAB259
:100E60000B4B5A549DF807305B08DBB21A46084B0F
:100E70009A5C9DF807305B08DBB219469DF80E308E
:100E80001343DAB2024B5A5400BF04B0704700BF9C
:100E9000F000002000B585B003468DF80730002330
:100EA000039310E00F4B1A68039BDB00134402937B
:100EB000029B1B789DF807209A4201D1029B0DE00E
:100EC000039B01330393084B1B781A46039B934201
:100ED000E8DB0649882008F009FF0023184605B022
:100EE0005DF804FBB8000020BC0000200CCE000020
:100EF00000B585B003460A468DF8073013468DF8D5
:100F000006309DF807301846FFF7C4FF0390039B97
:100F1000002B0BD0039B5B68002B07D0039B5B6807
:100F20009DF806109DF807201046984700BF05B0B1
:100F30005DF804FB2DE9F04F87B003460A468DF8B3
:100F40000F3013468DF80E309DF80F301846FFF71E
:100F50002FFF0346042B00F2C28001A252F823F0B7
:100F6000750F0000E90F00000510000035100000AB
:100F70004B1000009DF80E30002B00F0AD809DF866
:100F80000F3001211846FFF739FF00238DF8173085
:100F90000DF11703184601F059FE9DF80F104FF0A0
:100FA00001024FF00003A1F12004C1F1200003FA77
:100FB00001F702FA04F4274322FA00F0074302FA89
:100FC00001F6494BD3E9002346EA020100913B4375
:100FD0000193454BDDE90012C3E900129DF817307B
:100FE000184601F049FE77E09DF80E30002B01D045
:100FF000022200E000229DF80F3011461846FFF74C
:10100000FDFE6CE09DF80E30002B0CD09DF80F30EB
:1010100003211846FFF7F2FE9DF80F300121184614
:10102000FFF766FF5BE09DF80F3001211846FFF7E0
:10103000E5FE54E09DF80E30002B4FD19DF80F30A7
:1010400004211846FFF7DAFE48E09DF80E30002B29
:1010500006D09DF80F3003211846FFF7CFFE3EE083
:101060009DF80F3000211846FFF7C8FE9DF80F309D
:1010700000211846FFF73CFF00238DF816300DF1D4
:101080001603184601F0E2FD9DF80F104FF0010223
:101090004FF00003A1F12006C1F1200003FA01F591
:1010A00002FA06F6354322FA00F0054302FA01F48B
:1010B0006FEA04086FEA05090B4BD3E9002308EA3D
:1010C000020A09EA030B084BC3E900AB9DF816308E
:1010D000184601F0D1FD02E000BF00E000BF00BFF4
:1010E00007B0BDE8F08F00BFE800002000B583B076
:1010F0000648074B1B685B080022194600F056FCA7
:10110000019000BF03B05DF804FB00BFC8000020E1
:10111000C000002000B587B001900023059328E0AF
:101120001C4B1A68059BDB0013440493049B1B783B
:10113000184605F0C1FF03468DF80F30049B5B781D
:10114000012B0CBF01230023DBB21A469DF80F30A0
:101150009A420CBF012300238DF80E30049B1B78AC
:101160009DF80E2011461846FFF7E4FE059B01335B
:101170000593094B1B781A46059B9342D0DB074B1E
:10118000D3E90023134301D0FFF7B0FF00BF07B03E
:101190005DF804FBB8000020BC000020E80000203F
:1011A00000B585B001900B468DF80330019BDBB292
:1011B0001846FFF76FFE0390039B1B78184605F057
:1011C0007BFF03468DF80B30039B5B78012B0CBF34
:1011D00001230023DBB21A469DF80B309A420CBF64
:1011E000012300238DF80A309DF80A30002B06D029
:1011F000054BD3E90023134301D1FFF777FF00BF6D
:1012000005B05DF804FB00BFE800002000B58BB01E
:1012100003900B4601928DF80B30019B092B01D8EE
:10122000072367E005F03CFE034683F00103DBB2D1
:10123000002B09D005F0D0FD0990099B0893089B6D
:10124000002B01D0089B55E02C4A039B13602C4ACD
:101250009DF80B3013702B4A019B13602022002154
:10126000294809F098FD29494FF000024FF000038A
:10127000C1E9002331E09DF80B30DB00039A1344F1
:10128000079303238DF8143000238DF815309DF853
:1012900016306FF300038DF816309DF816306FF39B
:1012A00041038DF816309DF816306FF382038DF8E8
:1012B0001630079B9B788DF81530079B1B781846D6
:1012C00005AB134A194605F0F7FD0990099B0693F3
:1012D000069B002B01D0069B0CE09DF80B305A1E9C
:1012E0008DF80B20002BC6D10A4A00210A4800F0D5
:1012F00029FB034618460BB05DF804FBB80000203C
:10130000BC000020C0000020F0000020E800002009
:10131000A11100001511000078CE000000B583B0C7
:10132000114B1B68002B04D1104940F2351008F016
:10133000DDFC002301930CE00B4B1A68019BDB00E2
:1013400013441B780121184605F032FE019B01333E
:101350000193074B1B781A46019B9342ECD3002361
:10136000184603B05DF804FBB80000200CCE000066
:10137000BC000020F0B583B0124800F042FF0346E5
:1013800018464FF00001104BD3E90023861841EBBB
:101390000307CDE900670D4BD3E90023DDE9000128
:1013A000994208BF904207D2DDE9002312F1807410
:1013B00043F10005CDE90045DDE90023104619465B
:1013C00003B0F0BD00000020180100202001002023
:1013D00088B001900091019B0793009B0693079BA7
:1013E000D3E90223CDE90423069BD3E90223CDE907
:1013F0000223DDE90423DDE90201994208BF90429E
:101400002CBF01230023DBB2184608B07047000050
:1014100030B585B00190019B5B69002B03D12B494E
:10142000A22008F063FC00238DF80F30284B1B78B6
:10143000002B45D0019B002B42D0019B1B7FDBB2D0
:10144000002B3DD0FFF796FF019BD3E90223994281
:1014500008BF90422CD3019B1B69002B02D1019B3A
:1014600000221A77019B5B69019A9269104698479E
:10147000019B1B69002B23D0019B1B7FDBB2002B40
:101480001ED0019BD3E90201019B1B691A464FF054
:101490000003841841EB0305019BC3E90245019B4E
:1014A00019460C4801F064F901238DF80F3007E06C
:1014B000019B1946074801F05BF901238DF80F30B5
:1014C0009DF80F30184605B030BD00BF88CE000033
:1014D00014010020F8CE0000F0B589B00190009111
:1014E0000D230793009B00221A70019BD3E902454C
:1014F000FFF740FF02460B46A61A65EB0307CDE94E
:101500000467DDE90423012A73F100031BDB049B5C
:10151000B3F5350F05D300F0A7FA0246154B134477
:1015200003E0019BD3E90223134603934FF4960390
:10153000039A0021104800F057FD0790079B002BED
:1015400005D1012313E000210B4800F025FE079B85
:101550000D2B07D10198FFF75BFF03461A46009B4E
:101560001A7003E00549F52008F0C0FB0023184677
:1015700009B0F0BDFFFFB4000000002088CE0000DD
:1015800000B583B0044801F02DF90190019B184685
:1015900003B05DF804FB00BFF8CE000000B583B0D7
:1015A000044801F041F90190019B184603B05DF831
:1015B00004FB00BFF8CE000000B583B0FFF7E0FFEA
:1015C0000190019B002B02D0019B00221A77019B06
:1015D000002BF3D100BF00BF03B05DF804FB000097
:1015E000054BD3E9002312F1807043F10001024B57
:1015F000C3E9000100BF70471801002010B582B098
:101600000190124B1B68002B1DD0019800F0F9FDD2
:1016100004460021019800F0E5FD034619462046E6
:1016200000F016FA0346B3F5960F04D308494FF4B9
:10163000957008F05BFB054B1B681846FFF7E8FE4A
:10164000024B00221A6000BF02B010BD1001002042
:1016500088CE000000B583B00190FFF78BFE0246F4
:101660000B460349C1E9002300BF03B05DF804FB4A
:101670002001002000B585B00190FFF78FFF039097
:1016800000238DF80B30039B002B48D02B4B1B689D
:10169000002B03D101238DF80B3019E0039BD3E914
:1016A0000201264B1B68D3E90223994208BF9042EE
:1016B0000ED201238DF80B30204B1B681B7FDBB251
:1016C000002B05D01D4B1B6819461D4801F050F832
:1016D0009DF80B30002B2AD0FFF752FF03900DF13D
:1016E0000A0319460398FFF7F7FE0346002B12D0B2
:1016F000124B1B68002B02D1019800F081FB0F4AAE
:10170000039B13609DF80A3083F00103DBB2002BCA
:10171000B3D000BF0EE0094B00221A60ADE7074BC3
:101720001B68002B05D1019800F080FB01E000BF91
:1017300000E000BF00BF05B05DF804FB1001002011
:10174000F8CE000000B587B001902C4A03AB1946D3
:10175000104600F054FE059048E0059B1B78022BD4
:101760002ED0022B32DC002B02D0012B14D02DE026
:10177000059B5B681B7FDBB283F00103DBB2002BB0
:1017800026D0059B5B6801221A77059B5B6819468A
:101790001B4800F0EDFF1BE0059B5A68194B1B68C6
:1017A0009A4203D1174B00221A6012E0059B5B6836
:1017B0001946134801F04CF803468DF8133008E041
:1017C000FFF7FAFE104B01221A7002E000BF00E0A2
:1017D00000BF0A4A03AB1946104600F029FE074A2B
:1017E00003AB1946104600F00AFE0590059B002B3E
:1017F000B3D100BF00BF07B05DF804FB800100203B
:10180000F8CE0000100100201401002000B583B0C4
:101810000190019800F0B3FC0346002B01D0FFF7C4
:10182000DFFE0021019800F0C8FC0346002B02D027
:101830000198FFF7E3FE0121019800F0BEFC03468A
:10184000002B02D00198FFF705FF0198FFF77AFF00
:101850000198FFF70FFF00BF03B05DF804FB000025
:1018600008B5024800F0DAFC00BF08BD0000002007
:1018700000B585B0034600918DF80730114A02ABE0
:101880001946104600F08EFD0390039B002B13D0E9
:10189000039B9DF807201A70039B009A5A60094A1F
:1018A00002AB1946104600F096FD0346002B01D00E
:1018B000FFF7D6FF002300E00423184605B05DF8CB
:1018C00004FB00BF8001002000B583B0164B1B68ED
:1018D0000093164808235822154900F030FD019066
:1018E000019B002B01D0019B19E06B46114A194660
:1018F000114800F007FA0190019B002B01D0019BD9
:101900000DE001210C4800F029FC01230B4A0121C4
:10191000094800F0A1FA0A4B01221A70019B1846EF
:1019200003B05DF804FB00BFF4CE0000800100208E
:10193000280100200D18000000000020FFFF7F009C
:101940001401002000B587B003900B4601928DF87A
:101950000B30039B002B04D1134940F22E2008F0DA
:10196000C5F9019B002B04D10F4940F22F2008F04C
:10197000BDF9019B002B01D1072310E0039B1B68DD
:101980000593059B019A5A619DF80B30012B0CBF02
:1019900001230023DBB21A46059B1A610023184677
:1019A00007B05DF804FB00BF88CE000030B587B0FB
:1019B000039002910192039B002B04D1154940F240
:1019C0003E2008F093F9039B0593059B1B7FDBB238
:1019D000002B01D000231AE0059B019A9A61FFF7C2
:1019E000C9FC029B1A464FF00003841841EB030523
:1019F000059BC3E90245059B1B69002B02D0059B93
:101A0000029A1A6105990020FFF732FF0346184633
:101A100007B030BD88CE000000B585B00190019BB5
:101A2000002B04D109494FF4157008F05FF9019BB0
:101A30000393039B00221A7703990120FFF718FFF5
:101A40000346184605B05DF804FB00BF88CE0000D1
:101A500082B001900091019A009BD31A23F07F433A
:101A6000184602B07047000008B5034800F0C9FBF3
:101A70000346184608BD00BF0000002082B00346A0
:101A80008DF807309DF90730002B0CDB9DF80730EF
:101A900003F01F0205499DF907305B09012000FA98
:101AA00002F241F8232000BF02B0704700E100E0DD
:101AB00082B003468DF807309DF90730002B0DDB0F
:101AC0009DF8073003F01F0206499DF907305B09B6
:101AD000012000FA02F2403341F8232000BF02B097
:101AE000704700BF00E100E082B0034600918DF82E
:101AF00007309DF90730002B0ADB009BDAB20C4956
:101B00009DF907305201D2B20B4483F800230BE059
:101B1000009BDAB207499DF8073003F00F03043B3E
:101B20005201D2B20B441A7600BF02B0704700BF18
:101B300000E100E000ED00E000B583B003460A4696
:101B40008DF8073013468DF806309DF80630012BCE
:101B500003D99DF80630032B0BD99DF80630042BD2
:101B600003D99DF80630072B03D908496B2008F0EC
:101B7000BDF89DF806209DF9073011461846FFF77D
:101B8000B3FF00BF03B05DF804FB00BF04CF00004B
:101B900000B583B003468DF807309DF9073018462D
:101BA000FFF76CFF00BF03B05DF804FB00B585B024
:101BB0000190019B002B0AD0074B43F001030393D4
:101BC000019B9B010293039B0298984700E000BF92
:101BD00005B05DF804FB00BF20D0000084B0039086
:101BE00002910192039B029A02F5A872019943F8AF
:101BF000221000BF04B0704782B001900091019B99
:101C0000009A02F5A87253F82230184602B07047C5
:101C100082B001900091019B009AC3F8042300BF99
:101C200002B0704782B001900091019B009AC3F806
:101C3000082300BF02B0704782B001900B46ADF898
:101C40000230BDF80230019A13441B68184602B0F6
:101C5000704784B001900B46ADF80230BDF80230F9
:101C6000019A134400221A60BDF80230019A13440D
:101C70001B680393039B00BF04B0704782B00190C0
:101C8000019BD3F80435184602B0704700B583B005
:101C900001900091009BB3F5805F04D306494FF497
:101CA000BE7008F023F8019B009AC3F8082500BF16
:101CB00003B05DF804FB00BF38CF000082B0019094
:101CC0000B468DF803309DF80320019B13441A4600
:101CD0000123136000BF02B0704782B001900091F1
:101CE000019B009AC3F8442300BF02B0704782B042
:101CF00001900091019B009AC3F8482300BF02B0F5
:101D00007047000000B587B0039002910192039BD9
:101D1000002B03D13349552007F0E8FF029B002B2D
:101D200003D13049562007F0E1FF019B002B03D17E
:101D30002C49572007F0DAFF039B5B7919462A4AA2
:101D4000019B42F82130039B5B79284ADB00134456
:101D50001B79002B0ED008230593254A254BD31A57
:101D6000DB081B0443F002032349184603F070FA12
:101D7000059B32E0039B1A68029B1B88194610469C
:101D8000FFF784FF039B93F90420029B9B7819467D
:101D90001046FFF7D1FE039B93F904301846FFF776
:101DA000F7FE039B5B79114ADB00134401221A7191
:101DB000039B5B7919460D4A039B42F8313000239F
:101DC00005930B4A0B4BD31ADB081B0443F00303A8
:101DD0000A49184603F03CFA059B184607B05DF81F
:101DE00004FB00BF68CF0000940100209801002090
:101DF00000C70000C0C60000D0CF0000F4CF000034
:101E000000B583B00190019B002B03D106498720C8
:101E100007F06CFF019B1B6800211846FFF74EFF7F
:101E200000BF03B05DF804FB68CF000000B583B0CD
:101E30000190019B002B03D106498D2007F056FF2E
:101E4000019B1B6804211846FFF738FF00BF03B051
:101E50005DF804FB68CF000000B587B003900291E5
:101E600001928DF80330039B002B03D1214996206A
:101E700007F03CFF4FF48032029B02FA03F3059314
:101E8000029B50339BB29B00ADF81230019B23F0B4
:101E90007F430193039B1B6805991846FFF7C2FE19
:101EA000039B1B6805991846FFF721FF039B1B68DE
:101EB000BDF8122011461846FFF7CBFE039B1B68A6
:101EC000019A02991846FFF789FE039B1B68059942
:101ED0001846FFF702FF9DF80330002B05D0039B47
:101EE0001B6805991846FFF793FE00BF07B05DF821
:101EF00004FB00BF68CF000000B585B003900291DD
:101F000013468DF80730039B002B03D10B49A92002
:101F100007F0ECFE039B1B6802991846FFF7DDFEF5
:101F20009DF80730002B05D0039B1B6802991846CB
:101F3000FFF76EFE00BF05B05DF804FB68CF000040
:101F400000B583B001900091019B002B03D10A4999
:101F5000B32007F0CBFE019B1B6800991846FFF7E2
:101F6000C6FE019B1B6800991846FFF75BFE00BF89
:101F700003B05DF804FB00BF68CF000000B583B07C
:101F800001900B46ADF80230019B002B03D10F49A5
:101F9000BA2007F0ABFE019B1B68BDF8022011467A
:101FA0001846FFF749FE0346002B09D0019B1B682A
:101FB000BDF8022011461846FFF74BFE012300E052
:101FC0000023184603B05DF804FB00BF68CF000093
:101FD00082B001900091019A009BD31A23F07F43B5
:101FE000184602B07047000000B58BB00390029114
:101FF00001920093039B002B03D15749CD2007F09A
:1020000075FE4FF48032029B02FA03F30993029BA0
:1020100050339BB29B00ADF82230019B23F07F43ED
:10202000019309990398FFF78BFF039B1B681846E0
:10203000FFF724FE0790039B1B6802991846FFF7E1
:10204000DBFD0690039B1B68079A02991846FFF771
:10205000C5FD039B1B68BDF8222011461846FFF7FB
:10206000F8FD07990698FFF7B3FF0346012B0AD145
:102070001020FFF79BFD039B1B68BDF82220114633
:102080001846FFF7E6FD039B1B681846FFF7F6FDB1
:10209000079007990198FFF79BFF0590039B1B682A
:1020A00009991846FFF719FE059B012B15D1039BD3
:1020B0001868019B01331A460299FFF78FFD102023
:1020C000FFF774FD039B1B681846FFF7D7FD024618
:1020D000079B934235D00D2339E0039B1B68019A7F
:1020E00002991846FFF77AFD039B1B681846FFF715
:1020F000C5FD0790019B013B07991846FFF768FF54
:102100000590009BC3F1FF1303F57F43059A9A42A4
:1021100001D90D231BE0059B002B12D1039B1868EE
:10212000019B01331A460299FFF758FD039B1B6878
:102130001846FFF7A3FD0246079B934201D00D23EB
:1021400005E0012209990398FFF7D6FE00231846FF
:102150000BB05DF804FB00BF68CF000000B583B092
:1021600001900B468DF803309DF803301A4602218A
:102170000198FFF7C1FE00BF03B05DF804FB00B596
:1021800083B001904FF482710198FFF7F7FE034688
:10219000184603B05DF804FB00B583B001900091D0
:1021A0004FF48032009B02FA03F319460198FFF7BF
:1021B000C7FE00BF03B05DF804FB00B585B0019019
:1021C0000091009B50339BB29B00ADF80E30BDF8E0
:1021D0000E3019460198FFF7D1FE0346184605B0A8
:1021E0005DF804FB00B583B001900091019B1B6872
:1021F00000991846FFF700FD0346184603B05DF846
:1022000004FB00B583B00190019B1B681846FFF7E3
:1022100035FD0346184603B05DF804FB00B583B0F6
:102220000190019B93F904301846FFF741FC00BF71
:1022300003B05DF804FB000008B5044B1B68044ABA
:1022400012681046984700BF08BD00BF94010020E7
:102250009801002086B001900091019B53E8011F76
:102260008AB2D88902449889824228BF121A1889F2
:10227000824202BFBFF32F8F002307E0C2EA0102B0
:1022800043E801200028E9D14FF001038DF80F3019
:10229000059002910492029A009B1A609DF80F30FB
:1022A000DBB2184606B0704784B00190019951E83E
:1022B000013FC3EA034341E80132002AF7D1039208
:1022C000029300BF04B0704786B001900091019B5B
:1022D00053E8021F1FFAA1F2D888824202BFBFF35F
:1022E0002F8F00230DE0D88902449889824228BFAD
:1022F000121AC1EA024243E802200028E8D14FF056
:1023000001038DF80F30059002910492029A009B10
:102310001A609DF80F30DBB2184606B0704784B0E3
:102320000190019951E8023FC3EA234341E8023298
:10233000002AF7D10392029300BF04B0704784B023
:102340000390029111461A460B46ADF8063013462B
:10235000ADF80430029B002B01D10E231FE0BDF825
:102360000630BDF80420B3FBF2F102FB01F29B1A28
:102370009BB2002B01D0092311E0039B029A1A6043
:10238000039B00225A60039B00229A60039BBDF8C6
:1023900006209A81039BBDF80420DA8100231846A9
:1023A00004B0704700B585B001900091009B1946BC
:1023B0000198FFF74FFF0346002B07D0019B1B68D6
:1023C000009A128813440393039B00E000231846ED
:1023D00005B05DF804FB00B583B001900091009B4F
:1023E0001A88009B5B889A4204D10198FFF75CFF32
:1023F000012300E00023184603B05DF804FB00B59C
:1024000085B001900091009B19460198FFF75CFF91
:102410000346002B07D0019B1B68009A5288134487
:102420000393039B00E00023184605B05DF804FB0E
:1024300000B583B001900091009B1A88009B5B88D7
:102440009A4204D10198FFF76AFF012300E00023BC
:10245000184603B05DF804FB10B487B001900091FA
:10246000019B009A53E8004F104643E8000191F0A9
:10247000000FF7D1059404900391059B184607B00F
:102480005DF8044B704710B487B001900091019B38
:10249000009A53E8004F44EA020043E8000191F03B
:1024A000000FF6D1059404900391049B184607B0E1
:1024B0005DF8044B704710B487B001900091019B08
:1024C000009A53E8004F04EA020043E8000191F04B
:1024D000000FF6D1059404900391059B184607B0B0
:1024E0005DF8044B704710B487B001900091019BD8
:1024F000009A53E8004F04EB020043E8000191F01A
:10250000000FF6D1059404900391049B184607B080
:102510005DF8044B704710B487B001900091019BA7
:10252000009A53E8004FA4EB020043E8000191F049
:10253000000FF6D1059404900391049B184607B050
:102540005DF8044B704700B583B0019001210198FC
:10255000FFF799FF0346184603B05DF804FB00B58A
:1025600083B0019000210198FFF7A5FF03461846AC
:1025700003B05DF804FB000082B003468DF807301D
:102580009DF90730002B0DDB9DF8073003F01F028B
:1025900006499DF907305B09012000FA02F2603319
:1025A00041F8232000BF02B0704700BF00E100E007
:1025B00000B583B00190019B002B03D10649722026
:1025C00007F094FB019B00221A60BFF35F8F00BFEE
:1025D00000BF03B05DF804FB80D0000041DF70470E
:1025E00000BF184600B585B000238DF803300DF10B
:1025F0000303184600F02AFBF1EE103A0193019B09
:102600000393039B23F09F030293029BE1EE103A96
:1026100000BFBFF35F8F00BF2620FFF7ADFF9DF81F
:102620000330184600F028FB039B03F00703002B40
:1026300003D004497D2007F059FB00BF05B05DF8C9
:1026400004FB00BFC8D0000008B5064B00221A707A
:102650000548FFF7ADFF0549054800F02DF80023B8
:10266000184608BDA4010020A001002038D10000B8
:10267000A801002000B583B0FFF7B4FFFEF7D4F83F
:102680000346002B0ED0FFF7A9FF0190019B002B02
:102690000BD0019B022B08D006494FF4B07007F015
:1026A00025FB02E020BF40BF20BF00BF03B05DF8A4
:1026B00004FB00BFC8D0000000B583B001900091BA
:1026C000019B002B03D11049502007F00FFB009B0A
:1026D000002B03D10C49512007F008FB019B009A05
:1026E0001A60019B1B681A68019B5A60019B5A681B
:1026F000019B1B685B689A4202D1019B00225A60D1
:1027000000BF03B05DF804FB44D1000000B583B006
:102710000190019B002B03D11449632007F0E6FAD6
:10272000019B1B68002B03D11049642007F0DEFADF
:10273000019B5B68002B14D0019B5B681A46019BD0
:102740001B689B6813441A46019B5A60019B5A6898
:10275000019B1B685B689A4204D1019B00225A606E
:1027600000E000BF03B05DF804FB00BF44D10000EF
:1027700000B585B001900091019B002B03D1184951
:102780003A2007F0B3FA009B002B03D114493B20F9
:1027900007F0ACFA019B5B6803930FE0019B9B6819
:1027A000039A1268009910469847034683F0010384
:1027B000DBB2002B07D1039B1B680393039B1B68B1
:1027C000002BEBD100E000BF039B1A68009B1A604E
:1027D000039B009A1A6000BF05B05DF804FB00BFC0
:1027E000D4D1000000B585B00190019B002B03D12E
:1027F0000C49512007F07AFA019B5B681B68039330
:10280000019B5B681B68002B06D0019B5B681A6804
:10281000019B5B6812681A60039B184605B05DF85F
:1028200004FB00BFD4D1000000B583B00190019B30
:10283000002B03D105495D2007F058FA019B5B6826
:102840001B68184603B05DF804FB00BFD4D100003C
:1028500000B585B001900091019B002B03D1164972
:10286000692007F043FA009B002B03D112496A202C
:1028700007F03CFA00238DF80B30019B5B68039353
:102880000FE0039B1B68009A9A4207D1009B1A68CD
:10289000039B1A6001238DF80B3006E0039B1B6835
:1028A0000393039B1B68002BEBD19DF80B3018465C
:1028B00005B05DF804FB00BFD4D1000000B585B0C1
:1028C0000190019800F00EF80390039B002B01D0BB
:1028D000039B00E0024B184605B05DF804FB00BF07
:1028E00044D2000086B00190164B0593164B04931A
:1028F0001FE0049A059BD31ADB10DA0F13445B1018
:10290000DB00059A13440393039B1B680293029A0E
:10291000019B9A4202D9039B04930AE0029A019B0D
:102920009A4203D2039B0833059302E0039B5B6842
:1029300004E0059A049B9A42DBD30023184606B0B4
:10294000704700BF44D600006CD7000086B00390EB
:102950000291019201238DF817309DF81730204A1B
:10296000039B13601E4A029B53601D4A019B9360A8
:10297000039B44F20102934212D0039B44F20202F1
:10298000934220D1019B164AD360154BDB681B682C
:10299000134A9361124BDB685B68114AD36112E002
:1029A000019B0F4A13610E4B1B699B680C4A5361D4
:1029B0000B4B1B691B680A4A9361094B1B695B68D7
:1029C000074AD36100BF72B600BF00BF9DF8173041
:1029D000DBB2002BFAD162B600BF00BF06B0704771
:1029E000B001002000B583B002900091019244F242
:1029F000010071466A4600F003F803B000BD00BF55
:102A000030B58BB007900691059272B600BF02F008
:102A1000BDFE00BF02F078FC0346002BFAD1079BF5
:102A200044F2020293422FD0079B44F202029342E7
:102A300069D8079B44F20102934237D0079B44F2C6
:102A4000010293425FD8079B012B05D0079B41F2FF
:102A5000010293420CD056E0394A3A4BD31ADB08B4
:102A60001B0443F001033849184602F0F1FB57E01C
:102A7000334A344BD31ADB081B0443F001033349B8
:102A8000184602F0E5FB4BE0059B09932C4A2D4BC1
:102A9000D31ADB081B0443F00100099B5B681A464C
:102AA000099B1B682A4902F0F2FB39E0059B089359
:102AB000234A244BD31ADB081B0443F00104089B70
:102AC0009D68089B9B681846FFF7F8FE034618466A
:102AD000089B5B681946089B1B68069A0292019343
:102AE000009103462A461B49204602F0E4FB144AA3
:102AF000144BD31ADB081B0443F001031649184694
:102B000002F0A6FB0CE00E4A0E4BD31ADB081B04A6
:102B100043F00103069A1149184602F0A7FB00BFD3
:102B20000F4B1B6803F00103002B00D000BE059A79
:102B300006990798FFF70AFF00BF0BB030BD00BF32
:102B4000F0C60000C0C600006CD700008CD70000A3
:102B5000B0D70000CCD70000F4D7000008D80000A0
:102B6000F0ED00E082B0EFF310830093009B01933F
:102B700072B600BF019B184602B0704762B600BF34
:102B800000BF704700B585B00190FFF7EBFF0390E1
:102B9000164B9B68002B1BD1144B01229A60144BDF
:102BA000D3F88020134B1340104A1360104B114A86
:102BB000C3F880200E4BD3F884300C4A53600C4B82
:102BC0004FF0FF32C3F88420019B00221A7002E00C
:102BD000019B01221A70039B002B01D1FFF7CEFF4E
:102BE0000023184605B05DF804FB00BFD0010020AB
:102BF00000E100E0FC06FFBD00B585B003468DF89E
:102C00000730104B9B68002B16D09DF80730002B27
:102C100012D1FFF7A7FF03900B4A0A4B1B68136002
:102C2000094A084B5B685360064B00229A60039B7D
:102C3000002B01D1FFF7A2FF0023184605B05DF875
:102C400004FB00BFD001002000E100E000B583B02C
:102C5000019000F02BF80346012B03D005494320D7
:102C600007F044F80198FFF78DFF00BF03B05DF84F
:102C700004FB00BF20D8000000B583B003468DF8E8
:102C8000073000F013F80346012B03D0064951200A
:102C900007F02CF89DF807301846FFF7ADFF00BF8E
:102CA00003B05DF804FB00BF20D8000084B0EFF350
:102CB00005830193019BC3F308030393039B002B3C
:102CC0000DD1EFF314830093009B0293029B03F05A
:102CD0000103002B0CBF01230023DBB200E0012322
:102CE000184604B07047000000B583B001900B4651
:102CF0008DF80330019B002B03D10849E82006F032
:102D0000F5FF019BDA689DF803300199098A01FB00
:102D100003F31344184603B05DF804FB9CD800008D
:102D200000B583B001900091019B002B03D10849AD
:102D3000F52006F0DBFF009B019AD2689B1A019AEE
:102D4000128AB3FBF2F3DBB2184603B05DF804FB62
:102D50009CD8000000B585B00190019B002B01D1EB
:102D60000E234CE0019B1B68002B03D12649FF205A
:102D700006F0BCFF019B5B68002B04D122494FF495
:102D8000807006F0B3FF019B9B68002B04D11E49A5
:102D900040F2011006F0AAFF019BDB68002B04D172
:102DA00019494FF4817006F0A1FF019B1B8A002B8B
:102DB00004D1154940F2031006F098FF019B9A6870
:102DC000019B5B68D31A8DF80F30019B1B68019A39
:102DD00052681A6007E0019B1A681368591C116059
:102DE0009DF80F201A709DF80F305A1E8DF80F2095
:102DF000002BF0D1019B1B6800221A71002318469A
:102E000005B05DF804FB00BF9CD8000000B585B09C
:102E10000190019B002B04D11F494FF4927006F0E2
:102E200065FF0023039300238DF80A300DF10A0398
:102E30001846FFF70BFF019B1B681A68019B5B6834
:102E40009A421FD9019B1B681A68013A1A601B68D5
:102E50001B7819460198FFF747FF0390019B9A687A
:102E6000019B1B681B68D31A8DF80B30019B1B68F4
:102E70001B799DF80B209A4204D9019B1B689DF891
:102E80000B201A719DF80A301846FFF7F5FE039BD8
:102E9000184605B05DF804FB9CD8000010B584B05E
:102EA00001900091019B002B04D1154940F247107D
:102EB00006F01CFF009B002B04D111494FF4A470B5
:102EC00006F014FF009B039300238DF80B300DF1E7
:102ED0000B031846FFF7BAFE019B1B681C68621CB7
:102EE0001A6003990198FFF71BFF034623709DF8B2
:102EF0000B301846FFF7C0FE00BF04B010BD00BF86
:102F00009CD8000000B583B00190019B002B03D139
:102F10000C49312006F0EAFE019B9B68002B0CD087
:102F2000019B5B69019A1069019A1168019A926884
:102F30009847019B00229A6000E000BF03B05DF853
:102F400004FB00BF08D900000EB400B584B00190A6
:102F5000019B002B03D11849422006F0C7FE019BBC
:102F60005B69002B03D11449432006F0BFFE019B8F
:102F70001B68002B03D11049442006F0B7FE019BCB
:102F80005B68002B03D10C49452006F0AFFE059B82
:102F9000002B0AD00023039306AB039303AB1A461E
:102FA0000599019800F0B0F900E000BF04B05DF8A9
:102FB00004EB03B0704700BF08D9000000B583B030
:102FC00001900B468DF80330019B1A68019B9B68AA
:102FD000581C0199886013449DF803201A70019BC6
:102FE0009A68019B5B689A4202D30198FFF78AFFB7
:102FF00000BF03B05DF804FB00B587B003900291F9
:103000000192009300230593009B03F00103002B22
:1030100024D00BE0029B01330293059B01330593FF
:103020009DF8133019460398FFF7C8FF029B1B78E1
:103030008DF813309DF81330002BEBD106E0019B87
:10304000013B019320210398FFF7B8FF019A059BEC
:103050009A422ED9019B002BF1D12AE0029B002B32
:103060000BD0029807F0ECFE059006E0019B013BB7
:10307000019320210398FFF7A1FF019A059B9A4233
:103080000FD9019B002BF1D10BE0029B013302937E
:10309000059B013305939DF8133019460398FFF7FC
:1030A0008DFF029B1B788DF813309DF81330002B99
:1030B000EBD100BF07B05DF804FB000000B589B09C
:1030C0000390029101920093029B079301230693C0
:1030D00007E0079A019BB2FBF3F30793069B0133CA
:1030E0000693079A019B9A42F3D2009A069B9A4252
:1030F00001D9009B06930B9B03F00103002B22D107
:103100000A9B002B1FD00B9B03F00203002B06D061
:10311000009B002B03D130238DF8173002E02023D1
:103120008DF8173008E00A9B013B0A939DF8173091
:1031300019460398FFF742FF0A9B002B03D0069A1B
:103140000A9B9A42EFD301230793009B012B03D9DB
:10315000009B013B009309E0029A079BB2FBF3F34B
:103160000493049A019B9A4200D205E0079B019ABE
:1031700002FB03F30793E8E7029A079BB2FBF3F322
:103180000493049B079A02FB03F3029AD31A029357
:10319000154A049B13441B7819460398FFF70EFF4A
:1031A000079A019BB2FBF3F30793079B002BE3D134
:1031B0000B9B03F00103002B11D00A9B002B0ED0B8
:1031C00006E00A9B013B0A9320210398FFF7F6FED5
:1031D0000A9B002B03D0069A0A9B9A42F1D300BFA8
:1031E00009B05DF804FB00BFD0D9000000B589B07C
:1031F0000590049103920293049B002BB8BF5B429D
:1032000006930123079307E0039B069A92FBF3F3CF
:103210000693079B01330793039B069A9A42F3DABE
:10322000029A079B9A4201D9029B07930A9B002BA3
:103230000AD0049B002B04DB0B9B03F00403002B40
:1032400002D00A9B013B0A930B9B03F00203002B65
:1032500002D0029B002B16D00B9B03F00103002B26
:1032600011D10A9B002B0ED006E00A9B013B0A936A
:1032700020210598FFF7A2FE0A9B002B03D0079A96
:103280000A9B9A42F1D3049B002B07DA049B5B4212
:1032900004932D210598FFF791FE08E00B9B03F0A6
:1032A0000403002B03D02B210598FFF787FE0B9B0F
:1032B00003F00203002B19D00B9B03F00103002B3A
:1032C00014D1029B002B11D10A9B002B0ED006E0DB
:1032D0000A9B013B0A9330210598FFF76FFE0A9B7A
:1032E000002B03D0079A0A9B9A42F1D304990B9BB7
:1032F00001930A9B0093029B039A0598FFF7DEFE59
:1033000000BF09B05DF804FB00B58FB005900491D3
:103310000392059B002B04D1B64940F2522006F0DF
:10332000E5FC059B5B69002B04D1B2494FF4157095
:1033300006F0DCFC059B1B68002B04D1AD4940F274
:10334000552006F0D3FC059B5B68002B04D1A949EE
:1033500040F2562006F0CAFC049B002B00F093813B
:10336000049B1B788DF83730049B013304939DF840
:103370003730002B00F07E819DF83730252B40F050
:103380006D8100230A9301230C93049B1B788DF815
:1033900037309DF83730302B0DD0302B1BDC2B2BEA
:1033A00011D02D2B17D10A9B43F001030A93049BE4
:1033B0000133049312E00A9B43F002030A93049B37
:1033C000013304930AE00A9B43F004030A93049B2D
:1033D0000133049302E000230C9300BF0C9B002BED
:1033E000D3D1002309939DF837302A2B0CD1039BAE
:1033F0001B68191D039A11601B68099A13440993ED
:10340000049B013304931AE0049B1B788DF837303A
:103410009DF837302F2B12D99DF83730392B0ED825
:10342000049B01330493099A13469B0013445B00E9
:103430001A469DF837301344303B0993D3E70023F5
:103440000B93049B1B788DF837309DF837302E2B6B
:103450001DD1049B01330493049B1B788DF83730F6
:103460009DF837302F2B12D99DF83730392B0ED8D5
:10347000049B013304930B9A13469B0013445B0097
:103480001A469DF837301344303B0B93E4E7049B16
:103490001B788DF837309DF837306C2B03D09DF8B2
:1034A0003730682B07D1049B01330493049B1B78AE
:1034B0008DF83730EFE79DF83730252B00F0C480CA
:1034C000252BC0F2C680782B00F3C380582BC0F2A6
:1034D000C080583B202B00F2BC8001A252F823F0A0
:1034E000CF3500005336000053360000533600003D
:1034F00053360000533600005336000053360000A8
:103500005336000053360000533600006535000086
:103510008735000053360000533600005336000054
:103520005336000087350000533600005336000044
:103530005336000053360000533600005336000067
:10354000153600005336000053360000F9350000F0
:1035500053360000AB3500005336000053360000F0
:10356000CF350000039B1B68191D039A11601B686F
:103570000C930C9B8DF81F309DF81F301946059851
:10358000FFF71CFD66E0039B1B68191D039A116081
:103590001B680C930A9B0193099B00930B9B0A22C7
:1035A0000C990598FFF722FE54E0039B1B68191D38
:1035B000039A11601B680C930C990A9B0193099B59
:1035C00000930B9B0A220598FFF778FD42E0039BCE
:1035D0001B68191D039A11601B680C930C990A9BB8
:1035E0000193099B00930B9B10220598FFF766FD42
:1035F00030E000BF68D90000039B1B68191D039AC7
:1036000011601B6808930A9B099A08990598FFF7AF
:10361000F3FC1FE0039B1B68191D039A11601B68D4
:103620000C9330210598FFF7C9FC78210598FFF726
:10363000C5FC0C9900230193082300930823102252
:103640000598FFF73BFD05E025210598FFF7B6FC3F
:1036500000E000BF049B0133049305E09DF8373080
:1036600019460598FFF7AAFC049B1B78002B7FF4F2
:1036700077AE00E000BF059B1B7B002B04D00598B4
:10368000FFF740FC00E000BF0FB05DF804FB00BF97
:1036900000B583B001900198FFF75CFB0346184624
:1036A00003B05DF804FB00B58BB001900091019B65
:1036B0001B8A043B0793009A079B1344DA1C079B61
:1036C000B2FBF3F38DF81B300198FFF79FFB0590D9
:1036D000059B002B01D1002338E0059B00221A71C5
:1036E000059B01225A71079B9AB2059BDA80059BC4
:1036F00009939DF81B30013B0493099B019A1A60C2
:10370000002308931DE00198FFF780FB0390039BC3
:10371000002B0ED0059B5B790133DAB2059B5A7101
:10372000099B039A1A60039B019A1A60039B0993F1
:1037300004E0059800F00EF8002307E0089B013331
:103740000893089A049B9A42DDD3059B18460BB058
:103750005DF804FB00B58BB00190019B0793079BBC
:103760005B798DF81B30019B08939DF81B30013B62
:1037700005930023099305E0089B1B680893099BA8
:1037800001330993099A059B9A42F5D3089B1B685C
:103790000493019B0893002309930BE0089B1B688B
:1037A000039308990498FFF779FB039B0893099BFF
:1037B000013309939DF81B30099A9A42EED300BF5A
:1037C00000BF0BB05DF804FB00B585B00190019B14
:1037D0000393039B043301211846FEF784FE00BFC8
:1037E00005B05DF804FB00B587B00190019B05931F
:1037F000059B043301211846FEF78DFE0346039313
:1038000003AB0493049B1B78002B02D10198FFF7B4
:10381000A1FF00BF07B05DF804FB000000B591B048
:103820000390029101920093039B002B03D1434923
:10383000B62006F05BFA039B0993039B0F93099B49
:10384000DB881A46099B5B7903FB02F3043B089370
:10385000009A089B9A4203D33849C42006F046FADE
:10386000099BDB880793009B1A1D079BB2FBF3F3B0
:103870000E93009B0433079AB3FBF2F2079901FB06
:1038800002F29B1A0D93019B1A68009B1344089A3D
:103890009A4203D2089A009BD31A01E0019B1B684D
:1038A0000C93019B0C9A1A6005E00F9B1B680F9309
:1038B0000E9B013B0E930E9B002BF6D100230B9326
:1038C000079A0D9BD31A0A930A9A0C9B934228BF1E
:1038D00013460A932AE0029A0B9B134406930F9A0D
:1038E0000D9B1344043305939DF84830002B05D0FD
:1038F0000A9A0599069807F025FA04E00A9A0699AB
:10390000059807F01FFA00230D930F9B1B680F9378
:103910000C9A0A9BD31A0C930B9A0A9B13440B9391
:10392000079A0C9B934228BF13460A930C9B002BCB
:10393000D1D100BF00BF11B05DF804FBE0D9000099
:1039400000B589B00590049103920293039B0793FD
:1039500007AA00230093029B04990598FFF75EFFD6
:10396000079B039A9A4203D00349F62006F0BEF95A
:1039700000BF09B05DF804FBE0D9000000B589B0D4
:103980000590049103920293039B079307AA0123D6
:103990000093029B04990598FFF740FF079B039A49
:1039A0009A4204D004494FF4807006F09FF900BF9A
:1039B00009B05DF804FB00BFE0D9000082B00190BF
:1039C000019B9B68024A12781344184602B0704764
:1039D000B4DA000000B583B001900091019B002B88
:1039E00003D10849832006F081F9019B9B68009A66
:1039F0009A4202D2009B013300E00023184603B034
:103A00005DF804FB4CDA000000B585B00190019B25
:103A10001B681B680393019B1B685B680293029AF7
:103A2000039B9A4203D3029A039BD31A07E001989F
:103A3000FFF7C4FF0246039BD21A029B13441846A9
:103A400005B05DF804FB000000B585B00190019B56
:103A5000002B03D10D49982006F048F9019B1B6803
:103A60001B680393019B1B685B6802930299019892
:103A7000FFF7B0FF0246039B93420CBF01230023D4
:103A8000DBB2184605B05DF804FB00BF4CDA00005D
:103A900010B588B00190009100230793019B002B83
:103AA00003D15649A32006F021F9009B002B03D136
:103AB0005249A42006F01AF900238DF80F300DF1B9
:103AC0000F031846FFF7C2F80198FFF7BDFF034642
:103AD0008DF81B309DF81B3083F00103DBB2002B07
:103AE00003D1019B1B7C002B7BD1019B1B685B6876
:103AF0000593019B1B685A68019B1C68114601983D
:103B0000FFF768FF034663609DF81B30002B0AD067
:103B1000019B1B681A68019B1C6811460198FFF7FE
:103B200059FF03462360019BDB68013B072B38D814
:103B300001A252F823F000BF593B0000693B00008E
:103B4000A33B00007B3B0000A33B0000A33B000025
:103B5000A33B00008D3B0000019B5A68059B13446A
:103B6000009A12781A702DE0019B5A68059B5B0041
:103B70001344009A12881A8024E0019B5A68059B1E
:103B80009B001344009A12681A601BE0019B5A685C
:103B9000059BDB00D118009BD3E90023C1E900237A
:103BA00010E0019B5B681946019BDB68059A02FBEC
:103BB00003F30B441846019BDB681A46009907F093
:103BC000C1F800BF0198FFF71FFF0490019B1B681D
:103BD0009B68049A9A4207D9019B1B68049A9A60D1
:103BE00002E00423079300E000BF9DF80F30184661
:103BF000FFF742F8079B184608B010BD4CDA0000EA
:103C000082B00190019B9B6800229A60019B9B6897
:103C100000221A61019B9B6800225A61019B9B68EC
:103C20000022DA60019B9B6800225A60019B9B681E
:103C300000221A6000BF02B070476DDF704700BFFE
:103C4000184679DF704700BF18467DDF704700BF18
:103C5000184664DF704700BF184682B003460091E3
:103C6000ADF80630BDF80630DAB2009B1A70BDF828
:103C700006301B0A9AB2009B0133D2B21A7002239B
:103C8000184602B0704700B589B003900291134600
:103C9000ADF80630029B1B8803F10902BDF806301F
:103CA0009A4201D90C2353E004AB1846FFF7C5FF35
:103CB0000790079B0693069B002B01D0069B47E0CD
:103CC000029B1B881A46039B134408221A70029B0E
:103CD0001B8801339AB2029B1A80029B1B881A46EA
:103CE000039B13441B221A70029B1B8801339AB258
:103CF000029B1A80029B1B881A46039B981804ABF0
:103D000001330622194607F01DF8029B1B88063373
:103D10009AB2029B1A809DF8103023F00103DBB2A7
:103D2000002B07D1029B1B881A46039B13440022D9
:103D30001A7006E0029B1B881A46039B134401225B
:103D40001A70029B1B8801339AB2029B1A800023CF
:103D5000184609B05DF804FB00B589B003900291E4
:103D60000192ADF80230039B1B78012B05D1039B18
:103D70005B78002B01D1072392E0019B1B889A1CE2
:103D8000BDF802309A420ED8039B1B78012B0CD150
:103D9000019B1B881A46039B5B7813449A1CBDF851
:103DA00002309A4201D90C237AE0019B1B88BDF8AE
:103DB0000220D31A9BB2023BADF81C30BDF81C3078
:103DC000ADF81230019B1B880233029A13440DF1A7
:103DD000120211461846FFF738FF0690069B05931E
:103DE000059B002B01D0059B5AE0039B1B78022BFF
:103DF00006D0039B5B789AB2BDF812309A4209D381
:103E0000BDF81230BDF81C209A4203D309238DF867
:103E10001F3017E008238DF81F30039B1B78012B00
:103E20000CD1039B5B789BB2BDF81C209A4205D352
:103E3000039B5B789BB2ADF8123003E0BDF81C30F9
:103E4000ADF81230BDF81230FE2B01D90C2327E05B
:103E5000BDF81230DAB2019B1B881946029B0B4455
:103E60000132D2B21A70019B1B8801339AB2019BB6
:103E70001A80019B1B881A46029B13449DF81F2041
:103E80001A70019B1B8801339AB2019B1A80019B17
:103E90001A88BDF8123013449AB2019B1A8000238D
:103EA000184609B05DF804FB00B589B00390029193
:103EB0001346ADF80630029B1B881A1DBDF806306C
:103EC0009A4201D90C233BE00DF116031846FFF787
:103ED000B8FE0790079B0693069B002B01D0069B1C
:103EE0002EE0029B1B881A46039B134403221A7080
:103EF000029B1B8801339AB2029B1A80029B1B888B
:103F00001A46039B134419221A70029B1B88013323
:103F10009AB2029B1A80BDF81620029B1B88194694
:103F2000039B0B4419461046FFF797FE03461946BC
:103F3000029B1A888BB213449AB2029B1A80002308
:103F4000184609B05DF804FB84B0029101921A464C
:103F500003468DF80F301346ADF80C30019B1B88DB
:103F6000DA1CBDF80C309A4201D90C2328E0019BE1
:103F70001B881A46029B134402221A70019B1B885D
:103F800001339AB2019B1A80019B1B881A46029B3F
:103F9000134401221A70019B1B8801339AB2019BC2
:103FA0001A80019B1B881A46029B13449DF80F2020
:103FB0001A70019B1B8801339AB2019B1A8000235F
:103FC000184604B0704784B0029101921A46034625
:103FD0008DF80F301346ADF80C30019B1B88DA1CAE
:103FE000BDF80C309A4201D90C2328E0019B1B88B4
:103FF0001A46029B134402221A70019B1B8801334C
:104000009AB2019B1A80019B1B881A46029B13449B
:104010000A221A70019B1B8801339AB2019B1A80F5
:10402000019B1B881A46029B13449DF80F201A70AF
:10403000019B1B8801339AB2019B1A80002318460A
:1040400004B0704700B58FB0039001930B468DF814
:104050000B3013468DF80A3000238DF83330109B57
:104060001B88ADF8303000230D9371E0039B5A6834
:104070000D9B9B001A4405AB106818600DF11B01E5
:1040800005AB00221846FFF7E4FD0A900A9B09934E
:10409000099B002B01D0099B7CE09DF81B309DF80B
:1040A0000A209A4251D19DF83330002B01D00023D1
:1040B00000E002238DF82330109B1B881A469DF8E0
:1040C0001B301A449DF823301A44BDF844309A42FC
:1040D00001DD0C235EE09DF8333083F00103DBB299
:1040E000002B16D0109B1B8801339AB2109B1A80AC
:1040F000109B1B881A46019B13449DF80B201A70D5
:10410000109B1B8801339AB2109B1A8001238DF8F3
:104110003330109B1B881A46019B1A440DF11B017A
:1041200005AB1846FFF795FD0A900A9B0793079B7E
:10413000002B01D0079B2DE0109B1A889DF81B30A7
:104140009BB213449AB2109B1A800D9B01330D93BE
:10415000039B1B881A460D9B934287DB9DF83330E7
:10416000002B16D0109B1A88BDF83030D31A9BB2A2
:10417000013BADF82E30BDF82E30FF2B01D90C23BA
:1041800008E0BDF83030019A1344BDF82E20D2B2B9
:104190001A70002318460FB05DF804FB00B58BB011
:1041A000059003930B468DF8133013468DF81230AB
:1041B0009DF81310BDF8343001930C9B0093039BC2
:1041C00002220598FFF73EFF0990099B0893089B80
:1041D000002B01D0089B14E09DF81210BDF834307C
:1041E00001930C9B0093039B10220598FFF72AFF75
:1041F0000990099B0793079B002B01D0079B00E0C8
:10420000002318460BB05DF804FB82B00190019BBF
:104210001B88052B0AD9019B1B88B3F5486F07D96A
:10422000019B1B884FF6FF72934201D0072325E0C4
:10423000019B5B88052B0AD9019B5B88B3F5486F0E
:1042400007D9019B5B884FF6FF72934201D0072389
:1042500014E0019B1B884FF6FF7293420DD0019B27
:104260005B884FF6FF72934207D0019B1A88019B2F
:104270005B889A4201D9072300E00023184602B068
:10428000704700B587B0039002910192ADF80230FB
:10429000019B1B889A1DBDF802309A4201D90C235C
:1042A0004DE00398FFF7B1FF0590059B0493049B35
:1042B000002B01D0049B42E0019B1B881A46029B05
:1042C000134405221A70019B1B8801339AB2019B8B
:1042D0001A80019B1B881A46029B134412221A70F3
:1042E000019B1B8801339AB2019B1A80039B1A8899
:1042F000019B1B881946029B0B4419461046FFF789
:10430000ACFC03461946019B1A888BB213449AB23F
:10431000019B1A80039B5A88019B1B881946029BAC
:104320000B4419461046FFF798FC03461946019BBB
:104330001A888BB213449AB2019B1A800023184644
:1043400007B05DF804FB00B587B0039002910192BD
:10435000ADF80230039B9B8802330593019B1B88B9
:104360001A46059B13449A1CBDF802309A4201D9A3
:104370000C2354E0059BFE2B01D90C234FE0059B39
:10438000DAB2019B1B881946029B0B440132D2B260
:104390001A70019B1B8801339AB2019B1A80019B02
:1043A0001B881A46029B1344FF221A70019B1B882C
:1043B00001339AB2019B1A80039B1A88019B1B88C8
:1043C0001946029B0B4419461046FFF746FC03466C
:1043D0001946019B1A888BB213449AB2019B1A802A
:1043E000039B9B88002B19D0039B9B68002B01D15A
:1043F000072314E0019B1B881A46029B9818039B15
:104400009968039B9B881A4606F09CFC019B1A88BE
:10441000039B9B8813449AB2019B1A800023184681
:1044200007B05DF804FB00B589B0039002910192DA
:10443000ADF80230039B9B6A002B01D1072372E089
:1044400000238DF81F3066E0039B996A9DF81F20BA
:1044500013465B0013449B000B440693069B9B880A
:1044600002330593059BFE2B01D90C235BE0059BD2
:10447000DAB2019B1B881946029B0B440132D2B26F
:104480001A70019B1B8801339AB2019B1A80019B11
:104490001B881A46029B134416221A70019B1B8824
:1044A00001339AB2019B1A80069B1A88019B1B88D4
:1044B0001946029B0B4419461046FFF7CEFB0346F4
:1044C0001946019B1A888BB213449AB2019B1A8039
:1044D000069B9B88002B19D0069B9B68002B01D163
:1044E000072320E0019B1B881A46029B9818069B15
:1044F0009968069B9B881A4606F024FC019B1A8843
:10450000069B9B8813449AB2019B1A809DF81F302A
:1045100001338DF81F30039B93F82C309DF81F203A
:104520009A4291D30023184609B05DF804FB00B508
:1045300095B005900491039200231393039B1B886D
:10454000ADF84A30039B00221A80059B93F82D306A
:10455000002B0ED0BDF84A301A4603990498FFF795
:1045600092FB1390139B1193119B002B01D0119B75
:10457000D8E0059B9B78002B0ED0BDF84A301A4638
:1045800003990498FFF790FC1390139B1093109BD2
:10459000002B01D0109BC5E0059BDB78002B10D0D1
:1045A000059BDB7858B2BDF84A30039A0499FFF7AF
:1045B000CBFC1390139B0F930F9B002B01D00F9BF1
:1045C000B0E0059B5B68002B11D0059B5B6893F9FD
:1045D0000000BDF84A30039A0499FFF7F4FC1390E9
:1045E000139B0E930E9B002B01D00E9B9AE0059B14
:1045F0001B89002B14D0059B03F10800BDF84A303D
:104600000193039B0093049B06220221FFF7C6FD42
:104610001390139B0D930D9B002B01D00D9B81E0FC
:10462000059B1B8A002B14D0059B03F11000BDF8DD
:104630004A300193039B0093049B07220321FFF759
:10464000ADFD1390139B0C930C9B002B01D00C9B86
:1046500068E0059B1B8B002B14D0059B03F1180011
:10466000BDF84A300193039B0093049B152214214B
:10467000FFF794FD1390139B0B930B9B002B01D022
:104680000B9B4FE0059B1B6A002B0FD0059B186A04
:10469000BDF84A30039A0499FFF7F3FD1390139B7A
:1046A0000A930A9B002B01D00A9B3BE0059B5B6AA7
:1046B000002B0FD0059B586ABDF84A30039A049925
:1046C000FFF741FE1390139B0993099B002B01D028
:1046D000099B27E0059B93F82C30002B0ED0BDF8EA
:1046E0004A30039A04990598FFF79DFE1390139B97
:1046F0000893089B002B01D0089B13E0059B1B78B7
:10470000002B0ED0BDF84A30039A04990598FFF7A4
:1047100023FB1390139B0793079B002B01D0079B50
:1047200000E0139B184615B05DF804FB00B585B09A
:104730000190019B002B0AD0074B43F00103039328
:10474000019B9B010293039B0298984700E000BFE6
:1047500005B05DF804FB00BFD0DA000000B583B0FF
:104760000190019B002B0AD04FF47A70FFF7DEFF17
:10477000019B013B0193019B002BF5D100E000BFA1
:1047800003B05DF804FB08B506F0E0F900BF08BD12
:1047900000B589B0039002910192019B002B33D0A8
:1047A0000023079303230693029A079B1344019A5D
:1047B0001946002006F07AF90590079A059B1344E4
:1047C0000793019A059BD31A0193059B002B13D1E4
:1047D0000F4B1B7883F00103DBB2002B13D10120B8
:1047E000FFF7BCFF069B013B0693069B002B03D102
:1047F000074B00221A7007E0054B01221A70019B3B
:10480000002BD1D100E000BF00BF09B05DF804FB70
:10481000DC01002000B585B003900291054B0093A8
:104820004023054A0299039800F012F800BF05B032
:104830005DF804FB91470000E001002082B0019088
:1048400000BF02B0704782B0019000BF02B0704755
:1048500000B5A1B005900491039202930498FEF76D
:10486000B3FF039B1593029B16930023179300231A
:104870008DF8603000231993229B1A9300231F9315
:104880000FA91F9B08220498FFF778F808231F93AD
:10489000119B1293BDF84030ADF84C30BDF842305A
:1048A000ADF84E3000238DF851309DF83C3003F0C8
:1048B0000303DBB2012B26D10F9BC3F395231C937B
:1048C0009DF83C30C3F3C203DBB28DF85030BDF825
:1048D0003C30C3F38313DBB21B931B9B9A0009A9E3
:1048E0001F9B0498FFF74AF81B9B9B001F9A1344D9
:1048F0001F9312AA09A915AB009313461B9A1C9883
:1049000000F0F0FF2FE09DF83C3003F00303DBB232
:10491000022B28D1BDF83E30C3F389139BB21E93FE
:104920009DF83C30C3F3C203DBB28DF850301E9BC0
:10493000082B28BF08231D9307A91F9B1D9A0498C5
:10494000FFF71CF81F9A1D9B13441F931E9A1D9B73
:10495000D31A1E9315AB12AA07A81D9901F064F88B
:104960001E9B002BE3D10498FEF73DFF00BF21B052
:104970005DF804FB00B583B00190019B1B781A46DB
:104980000C4B9B5C002B05D0019B0433184604F0B4
:10499000C9FA0BE0019B1B781A46064B9B5C002B67
:1049A00004D1019B0C33184603F038FC00BF03B060
:1049B0005DF804FBD808002000B587B00390029191
:1049C00013468DF8073000230593039B1B781A4686
:1049D000114B9B5C002B09D0039B04339DF80720EF
:1049E0000299184604F000FB05900FE0039B1B782A
:1049F0001A46094B9B5C002B08D1039B0C339DF896
:104A000007200299184603F081FC0590059B184683
:104A100007B05DF804FB00BFD808002082B0019009
:104A20000091034B01221A7000BF02B0704700BF13
:104A30006002002030B58DB003468DF807301A4B68
:104A400002AC1D460FCD0FC495E80F0084E80F009F
:104A5000062302934FF0FF3303934FF0FF33049389
:104A60004FF0FF3305934FF0EB7308939DF8073039
:104A7000002B01D00D4A00E0002202AB19460C4881
:104A800002F010FD0B900B9B0A930A9B002B04D0A5
:104A9000084A43210A98FDF7A5FF074A9DF8073009
:104AA000137000BF0DB030BD50DB00001D4A000088
:104AB00008000020D8DA00006102002000B583B0B1
:104AC00000238DF807309DF807301846FFF7B2FF36
:104AD00000BF03B05DF804FB00B589B003900291FC
:104AE0000192019B8DF81F30124B00221A709DF825
:104AF0001F301A4602991048FFF75EFF0690069B8A
:104B00000593059B002B04D00C4A53210598FDF713
:104B100069FF00BF0A4B1B78002B07D0054B1B78A1
:104B2000DBB283F00103DBB2002BF3D100BF09B08D
:104B30005DF804FB6002002008000020D8DA0000C5
:104B40006102002000B585B003900291054B0093EF
:104B50004023054A02990398FFF77AFE00BF05B08B
:104B60005DF804FBD94A00002002002082B00190C9
:104B700000BF02B07047000000B583B00190054847
:104B8000FFF7F8FE0020FFF755FF00BF03B05DF808
:104B900004FB00BF0800002082B00190019BDB688D
:104BA00001225A7100BF02B07047000000B583B007
:104BB0004FF0FF330193FFF7E6FD0421114800F0A9
:104BC000ADFD0190019B002B03DA0F49412005F058
:104BD0008DF80C48FFF7E0FFFFF770FF04210B484A
:104BE00000F09CFD0190019B002B03DA0649482050
:104BF00005F07CF80548FFF7CFFF00BF03B05DF874
:104C000004FB00BF48C70000A0DB000058C700003D
:104C100000B583B001900091019B1B681B6800994F
:104C20000198984700BF03B05DF804FB00B583B05E
:104C30000190019B1B685B680198984700BF03B017
:104C40005DF804FB00B583B00190019B1B689B6875
:104C50000198984700BF03B05DF804FB82B0019053
:104C60000B468DF80330019BDB689DF803201A7119
:104C700000BF02B0704782B00190019BDB681B79D6
:104C8000184602B0704782B00190019BDB68012298
:104C90005A7100BF02B0704782B00190019BDB687F
:104CA0005B79184602B0704700B585B0019000915D
:104CB0000C4B01221A700C48FEF7EAFC0390039B90
:104CC000002B01D0039B08E00848FEF799FF084A33
:104CD000084BD31ADB0802930023184605B05DF891
:104CE00004FB00BFCC03002068C700001CDC0000F0
:104CF00048C70000C0C60000024A034BD31ADB08B5
:104D00001846704748C70000C0C6000000B587B00D
:104D100001900B468DF803309DF80330002B1FD017
:104D2000FFF7EAFF04900023059313E0059B9B0027
:104D30000E4A13440393039B1B881A46019B1B686E
:104D40009A4204D1019B059A1A60002309E0059B51
:104D500001330593059A049B9A42E7D3052300E0AB
:104D60000023184607B05DF804FB00BF00000020D8
:104D700000B585B001900B468DF803309DF80320F7
:104D800001AB11461846FFF7C1FF0346002B07D1C0
:104D9000019BDB00054A13440393039B1B6800E05F
:104DA0000023184605B05DF804FB00BFC0C6000034
:104DB00084B001900B468DF80330019BDB00174A4D
:104DC000134402939DF80330013B032B1CD801A22E
:104DD00052F823F0E54D0000ED4D0000F54D0000C8
:104DE000FF4D000002238DF80F3011E004238DF8F1
:104DF0000F300DE0029B1B798DF80F3008E0029B0D
:104E00005B798DF80F3003E000238DF80F3000BF81
:104E10009DF80F30184604B0704700BFC0C60000B0
:104E200084B00190009100238DF80F30019B1B7816
:104E300003F00403DBB2002B24D0019B1B78C3F3E7
:104E40000103DBB2012B02D0022B0CD017E0009B38
:104E50001B68019A1288C2F38312D2B213449A1CBF
:104E6000009B1A600BE0009B1B68019A5288C2F3FA
:104E7000891292B213449A1C009B1A6000BF01234E
:104E80008DF80F309DF80F30184604B070470000C1
:104E900000B58BB00023ADF826303E48FDF753FB3C
:104EA0003D48FDF750FB3D4B9B6804933C4B1B6812
:104EB0000693049A069B134002339B00374A13441F
:104EC0000433089304AB19460898FFF7A9FF03467B
:104ED000002B09D0049A069B134002339B002F4AF3
:104EE000134404330893EDE700BF0023079311E058
:104EF000049B5A1C0492069A1340079A920001A937
:104F00000A44264902339B000B445B681360079BED
:104F100001330793079B012BEAD99DF80430C3F3B3
:104F20000103DBB2012B10D0022B1CD1BDF80A30DB
:104F3000ADF82630BDF80630C3F389139BB20333B6
:104F40009A08049B1344049313E0BDF80A30ADF8AB
:104F50002630BDF80430C3F38313DBB21A46049B3A
:104F60001344049305E00F494FF4C27004F0BEFEF1
:104F700000BF0948FDF7F3FA0590059B002B02D00E
:104F8000049B064A9360BDF8263018460BB05DF8C6
:104F900004FB00BFE4070020E0070020CC03002052
:104FA0002C0000202CDC000000B585B00021074853
:104FB000FDF752FA0390039B0293029B83F31003C5
:104FC0000193019B184605B05DF804FBE80700203B
:104FD00000B589B00390029101920093039B1B0CD2
:104FE0000793FFF7E1FF0690FFF786FE0246079B57
:104FF000934204D3214940F2A91004F077FE069BA6
:105000001904009B5A1C0A9B1340079A0A431C4927
:1050100002339B000B445A60009A0A9B13400233F0
:105020009B00174A134404330593039B03F00703C3
:10503000D9B2059A137861F3C5031370019B03F08D
:105040000F03D9B2059A138861F389131380029B69
:10505000C3F31501059A136861F39F231360059A42
:105060001378012161F301031370059A13786FF32C
:105070008203137000BF09B05DF804FB2CDC000054
:10508000CC03002000B58DB00390029113468DF83B
:105090000730039B02330A9301238DF82730002346
:1050A0008DF81B300DF11B031846FDF7CFFD404B6B
:1050B0005A68029B1A603F4B1A683D4B99683C4BFB
:1050C0005B68CB1A134401330B9314E001213A4877
:1050D000FDF709FAFFF7DCFE079007993648FDF760
:1050E00002FA344B1A68324B9968314B5B68CB1A21
:1050F000134401330B930A9A0B9B9A42E6D89DF80E
:105100002730002B48D0002305939DF80730002B53
:1051100017D09DF81430012262F301038DF814308A
:105120009DF8143043F004038DF81430039B03F012
:105130000F03DAB2BDF8143062F38913ADF81430FE
:1051400016E09DF81430022262F301038DF814304A
:105150009DF8143043F004038DF81430039BC3F31F
:1051600009039AB2BDF8163062F38F13ADF816300A
:105170000F4B5A680F4B1B68134002339B000C4ABD
:10518000134404330893059A089B1A60084B5A6825
:105190000A9B1344064A53609DF81B301846FDF7DE
:1051A0006BFD9DF8273018460DB05DF804FB00BF7D
:1051B000CC0300202C000020E807002000B58BB0B5
:1051C00005900491039202931F4B1B68079306AB53
:1051D000012219460298FFF755FF0346002B24D001
:1051E000069B023309930023089311E0089B9B0060
:1051F000039A1A44099B591C099107990B4012689C
:10520000124902339B000B445A60089B01330893F8
:10521000089A029B9A42E9D3069A079B0093134689
:10522000029A04990598FFF7D3FE084B1B78002BD0
:1052300005D000BF00F068F80346002BFAD100BF8C
:105240000BB05DF804FB00BF2C000020CC03002055
:1052500000B583B0019000910023002200990198CD
:10526000FFF7ACFF00BF03B05DF804FB00B587B0EB
:10527000039002910192019B059305AA01230299D3
:105280000398FFF79BFF00BF07B05DF804FB00B574
:1052900087B00390029101920093019B0493009BBD
:1052A000059304AA022302990398FFF787FF00BF22
:1052B00007B05DF804FB00B58BB00390029101923A
:1052C0000093019B0593009B06930C9B07930D9BFA
:1052D00008930E9B099305AA052302990398FFF7EB
:1052E0006DFF00BF0BB05DF804FB0000054B9A6832
:1052F000044B5B689A420CBF01230023DBB21846C3
:10530000704700BFCC03002000B599B0FFF7EEFF57
:105310000346002B01D00023C0E19B4B0022C3F8C1
:105320001824BFF34F8F00BF974B9B680493974B94
:105330001B681093049A109B134002339B00924AFF
:10534000134404331193002317930023169300236F
:105350000F9304AB19461198FFF762FD0346002B2B
:1053600019D0894BD3F81834002B14D1864B5A68C6
:10537000049B9A4205D8844B5B68834A9360002360
:105380008CE1049A109B134002339B007E4A134425
:1053900004331193DDE70023159311E0049B5A1C9D
:1053A0000492109A1340159A920001A90A44764972
:1053B00002339B000B445B681360159B013315930C
:1053C000159B012BEAD99DF8043003F00303DBB2EF
:1053D000022B40F09C80BDF80630C3F389139BB2CA
:1053E0000D93BDF80630C3F389139BB2502B28BF31
:1053F00050239BB20C930C9BC3F309039AB2BDF8E4
:10540000063062F38F13ADF806300C9B08330B9314
:105410009DF80430C3F3C203DBB20F930B995C48D1
:10542000FEF741F91790179B002B00F0D3801798D7
:10543000FEF7CAF901A9169B08221798FEF780FA11
:10544000169B08331693049BDA43109B13400133D9
:105450009B000A930C9A0A9B9A4242D90A9B002B02
:1054600008D0049A109B134002339B00464A134411
:10547000043300E0474B08930A9B002B02D00A9BA1
:10548000DBB201E00C9BDBB28DF81F300A9B002BD6
:1054900001D0404B00E0002306930A9B002B06D06E
:1054A0000C9BDAB20A9BDBB2D31ADBB200E000231A
:1054B0008DF817309DF81F20169B08991798FEF756
:1054C0003FFA9DF81F30169A13441693069B002B43
:1054D00016D09DF81720169B06991798FEF730FAFC
:1054E0000EE0049A109B134002339B00264A13449B
:1054F00004330993169B0C9A09991798FEF720FA22
:105500000D9B03339A08049B1344049362E09DF8B7
:10551000043003F00303DBB2012B5BD1BDF8043090
:10552000C3F38313DBB2062B28BF0623DAB2BDF820
:10553000043062F38913ADF80430BDF80430C3F3CE
:105540008313DBB202330E939DF80430C3F3C2031E
:10555000DBB20F930E9B9B0019460D48FEF7A3F894
:105560001790179B002B35D01798FEF72DF901A93E
:10557000169B08221798FEF7E3F9169B083316933B
:10558000002315931DE000BFCC0300202C00002059
:1055900068C70000D8030020049B5A1C0492109A8C
:1055A000134002339B003F4A1344191D169B0422EB
:1055B0001798FEF7C5F9169B04331693159B013314
:1055C0001593BDF80430C3F38313DBB21A46159B61
:1055D0009342E1D3179B002B40D0324BD3F81034C9
:1055E0001493304BD3F81834002B1BD01798FEF7C8
:1055F000FAF84DE000238DF84F301498FFF74CFB7C
:105600000346002B02D001238DF84F309DF84F3018
:10561000002B03D017991498FFF7FAFA149BDB6854
:105620001B681493149B002BE4D11798FEF7DBF84A
:1056300000238DF803300DF103031846FDF706FB38
:10564000184BD3F81834002B02D1049B154A9360F1
:105650009DF803301846FDF70FFB19E0114BD3F806
:105660001034129306E01298FFF7ECFA129BDB68F5
:105670001B681293129B002BF5D10B4A0B4BD31ACC
:10568000DB081B0443F0020309491846FFF7E0FD5D
:10569000FFF72CFE034683F00103DBB2184619B076
:1056A0005DF804FBCC030020F0C60000C0C600007B
:1056B000A0DC000000B585B00023039323E0164B67
:1056C000D3F81034029301238DF807300FE00298CD
:1056D000FFF7D1FA03461A46039B934203D10023F6
:1056E0008DF8073006E0029BDB681B680293029B83
:1056F000002BECD19DF80730002B01D0039B07E075
:10570000039B01330393039B092BD8DD4FF0FF3339
:10571000184605B05DF804FBCC03002000B585B049
:1057200001900B468DF80330FFF7C4FF0390039BF5
:10573000B3F1FF3F01D1039B22E0039BDBB219468B
:105740000198FFF78BFA104BD3F81034002B08D1D7
:105750000D4A019BC2F81034019BDB6800221A60DD
:105760000DE0094BD3F81034DA68019BDB6812684E
:105770001A60054BD3F81034DB68019A1A60039B5A
:10578000184605B05DF804FBCC03002000B583B0DB
:105790000C4BD3F8103401930A4B01221A7009E024
:1057A0000198FFF770FA0198FFF740FA019BDB6858
:1057B0001B680193019B002BF2D100BF00BF03B017
:1057C0005DF804FBCC03002082B00190009100BF83
:1057D00002B0704710B584B003900291039BDB8840
:1057E000002B0AD0039BDB881A461F4B00931346FD
:1057F0001E4A1F490298FDF7A7FB039B1B7A052B46
:105800002ED0039B5B7A002B12D0039B9B881A46F9
:10581000039B1B7A19461046FFF7CAFA03461A463D
:10582000144B53F822301A4613490298FDF78CFBAB
:10583000039B1B6819460298FFF7C6FF039B1B7A60
:105840001A460E4B53F82240039B9B8800211846B2
:10585000FFF78EFA0346224609490298FDF774FBCA
:1058600000BF04B010BD00BFD4DC0000E4DC0000C9
:105870001CDD00004400002034DD0000300000206A
:1058800038DD000000B585B00390029113468DF815
:105890000730039B1B7A052B0FD0039B5B7A002BF1
:1058A00006D00D4B1B681A460C490298FDF74CFBBD
:1058B0000B490298FDF748FB07E09DF80730002BE5
:1058C00003D007490298FDF73FFB0298FDF71AFB4A
:1058D00000BF05B05DF804FB4400002034DD00008B
:1058E00044DD000030B58BB007900691059204931B
:1058F0000E9B1B7B8DF827300E9B00221A730E998E
:105900000498FFF767FF059B062B7FD801A252F88A
:1059100023F000BF315900003B5900004B590000F3
:105920005F5900007D590000A5590000D5590000BD
:1059300007990E98FDF708FB69E0069B1B681A465D
:1059400007990E98FDF700FB61E0069B1A68069B1D
:1059500004331B6807990E98FDF7F6FA57E0069B8B
:105960001A68069B04331968069B08331B6800936A
:105970000B4607990E98FDF7E7FA48E0069B196871
:10598000069B04331868069B08331B68069A0C3282
:1059900012680192009303460A4607990E98FDF794
:1059A000D3FA34E0069B1868069B04331C68069BF8
:1059B00008331B68069A0C32126806991031096880
:1059C0000291019200932346024607990E98FDF733
:1059D000BBFA1CE0069B1C68069B04331D68069BF3
:1059E00008331B68069A0C32126806991031096850
:1059F00006981430006803900291019200932B46A0
:105A0000224607990E98FDF79FFA00E000BF00229A
:105A10000E990498FFF736FF0E9B9DF827201A7306
:105A200000BF0BB030BD00BF00B587B0039002913E
:105A300001920093029B082B60D8009B1B7B8DF882
:105A40001330009B00221A7300990198FFF7C2FEE1
:105A50000023059314E0059A029B9A4209D2039A07
:105A6000059B13441B781A4626490098FDF76CFAEB
:105A700003E025490098FDF767FA059B013305937C
:105A8000059B072BE7D921490098FDF75DFA002314
:105A9000059326E0059A029B9A421BD2039A059B26
:105AA00013441B788DF812309DF812307E2B0AD8E3
:105AB0009DF81230184605F00DF90346002B02D070
:105AC0009DF8123000E02E231A4611490098FDF788
:105AD0003BFA03E00F490098FDF736FA059B0133C6
