:1000000000000420750300005D0300005F03000092
:1000100061030000630300006503000000000000AE
:100020000000000000000000000000006703000066
:1000300069030000000000006B0300006D03000076
:100040006F0300006F030000491500006F030000FC
:100050006F0300006F0300006F0300006F030000D8
:100060006F0300006F0300006F0300006F030000C8
:100070006F0300006F0300006F0300006F030000B8
:100080006F0300006F0300006F0300006F030000A8
:100090006F0300006F0300006F0300006F03000098
:1000A0006F0300006F0300006F0300006F03000088
:1000B0006F0300006F03000000000000000000005C
:1000C0006F0300006F0300006F0300006F03000068
:1000D0006F0300006F0300006F0300006F03000058
:1000E0006F0300006F0300006F03000000000000BA
:1000F000000000006F030000000000006F0300001C
:1001000000000000000000000000000000000000EF
:1001100000000000000000000000000000000000DF
:1001200000000000000000000000000000000000CF
:1001300000000000000000000000000000000000BF
:1001400000000000000000000000000000000000AF
:10015000000000000000000000000000000000009F
:10016000000000000000000000000000000000008F
:10017000000000000000000000000000000000007F
:10018000000000000000000000000000000000006F
:10019000000000000000000000000000000000005F
:1001A000000000000000000000000000000000004F
:1001B000000000000000000000000000000000003F
:1001C000000000000000000000000000000000002F
:1001D000000000000000000000000000000000001F
:1001E000000000000000000000000000000000000F
:1001F00000000000000000000000000000000000FF
:10020000354936480A1A02D0072291438D463449AF
:1002100034480A1A06D00722914381F30988022242
:1002200082F3148830483149314A00F044F83148AB
:100230003149324A00F03FF831483249324A00F041
:100240003AF832483249334A00F035F832483349F7
:10025000334A00F030F833483349344A00F02BF881
:1002600033483449344A00F026F8344834490022EF
:1002700000F02CF833483449002200F027F83348C6
:100280003349091A082902DB002202604160314A21
:1002900090471F481F49884205D00268043003B4C4
:1002A000904703BCF7E700208646EC46002000217B
:1002B000294A9047FEE7884207D0521A05D00378B2
:1002C00001300B700131013AF9D17047884202D0F8
:1002D00002700130FAE770470000042000E00320BC
:1002E00000000420000004208029000000000020FD
:1002F0003C000020D0030000D003000004250000D3
:100300008029000000000020000000205825000087
:1003100058250000582500005825000058250000E9
:100320005825000058250000582500007E290000AF
:10033000BC2900003C0000203C0000203C000020C4
:100340004009002040090020400900204009002009
:10035000402900209D030000211F0000FEE7FEE76A
:10036000FEE7FEE7FEE7FEE7FEE7FEE7FEE7FEE765
:1003700000F002B8FFF7FCBF0F484FF007018843B9
:1003800085460E4880470E48016841F470010160BF
:10039000BFF34F8FBFF36F8FFFF732BF09480A4992
:1003A0000A4A884207D0521A05D0037801300B70F0
:1003B0000131013AF9D17047000004208521000085
:1003C00088ED00E05825000000000020000000201B
:1003D0007047000007B5044B0093044A402300F027
:1003E00032F803B05DF804FBF10300003D0000208B
:1003F0002DE9F84388461446B2B10F4B0F4E032542
:10040000002743F00109224608EB0701002001F014
:1004100065FE0744241A48B933782BB14FF47A406B
:10042000C847013D02D13570BDE8F8830123337020
:10043000002CE8D1F8E700BF602500003C00002058
:10044000704701F07FBEF0B595B01D4616460846D0
:100450000C4600F0D7FF1A9B0D93CDE908650025E7
:100460002B46082205A920460A958DF82C500C959C
:1004700000F0E5FF079B0293069B03939DF8143061
:100480008DF8115003F00302012A1DD1BDF814208C
:10049000059DC3F3C203C2F383168DF81030B2007A
:1004A00008230EA9204600F0CAFFC5F3952508AB26
:1004B0000093324602AB0EA9284600F09FFB20466F
:1004C00000F0A4FF15B0F0BD022AF8D1BDF8165017
:1004D000C3F3C203C5F389158DF810300827082D22
:1004E0002E4628BF08263B4632460EA9204600F07D
:1004F000A6FFAD1B08AB02AA31460EA8374400F098
:10050000E1FB002DEBD1DAE7014B01221A707047B5
:10051000BE0000207047000070B5124D06460FCD9A
:1005200088B06C460FC495E80F00002E84E80F00D9
:100530004FF0FF334FF00602CDE90023CDE902333F
:10054000094A0A484FF0EB7308BF00226946069338
:1005500000F0BCFF08B100F011FC054B1E7008B0A4
:1005600070BD00BF742500000905000000000020D8
:100570007D00002007B5044B0093044A4023FFF799
:1005800062FF03B05DF804FB910500007E000020CF
:1005900038B50D4B0D4D002018700D4804782D5DB9
:1005A000D2B21C4665B1043001F072FC08B100F013
:1005B000E5FB084B1A7812B12378002BFBD038BD2D
:1005C0000C3001F009FAF1E7BE0000205C060020C3
:1005D000000000207D00002008B50848084A037884
:1005E000D35C3BB1043001F0CFFBBDE808400020F4
:1005F000FFF792BF0C3001F093F9F6E700000020FE
:100600005C0600200120FFF787BF000038B50A4DC7
:10061000FFF717FF0421284600F05AFA074B012480
:100620005C71FFF7EFFF042105F1100000F050FAB4
:10063000034B5C7138BD00BF24250000140000206E
:100640001C000020037813F0040216D003F003030B
:10065000012B03D0022B09D0012070470A680088C3
:100660000232C0F3831002440A60F5E70B68428847
:10067000023303EB92130B60EEE710467047000065
:100680002DE9F04F044685B0861C00200F46154624
:1006900000F0CCFB3F4A51683960936803F58073E2
:1006A0005B1A924602F21C4702F5836902F2144873
:1006B000B34219D30020002D68D004F00F039B0132
:1006C00043F0050363F30F00DAF80430DAB20332C3
:1006D0001E444AF822000020CAF8046000F0A8FB7B
:1006E000012005B0BDE8F08F0121384600F0C5FBC0
:1006F000484600F0DAFB404600F0D7FBDAF8080085
:100700000090C0B203300AEB80006946FFF79AFF01
:10071000009B30BBDAB20AEB8202D16801919A1CCD
:100720000133DBB20AEB83030092D3F80CB001F083
:100730000303012B22D0022B15D08346404600F044
:10074000B7FB10B1009BCAF808305946384600F094
:1007500094FBDAF80830DAF8042003F580739B1A6A
:10076000A6E7D8B2CEE7BDF80630C3F3891303334A
:100770004FEA1B4B02EB93030093DFE7BDF8043015
:10078000C3F383134FEA1B4B1344F5E7A40544F06E
:10079000060099E790010020064B074810B500229B
:1007A0001A7000F0E8FD044610B9044800F051FE4C
:1007B000204610BD9001002044250000D8250000EF
:1007C00030B50A4C71B10A4A0A49121BD2080023FB
:1007D0009A4201D1002030BD31F82350854202D029
:1007E0000133F5E7034654F83300F4E7042500002D
:1007F0002425000000000020094B013903EBC00054
:10080000032909D8DFE801F00A0204060420704732
:100810000079704740797047002070470220704788
:1008200004250000034BD3E90130C31A5842584154
:10083000704700BF900100202DE9FF41FFF7F2FF54
:100840000546002840F0E280714CC4F81804BFF35C
:100850004F8FA3680093DBB2033304EB8300694638
:10086000FFF7F0FE009B18B1D4F81824002A55D0E9
:10087000DAB2991C013304EB8202DBB204EB83038E
:10088000D268DB68029302F00303022B019200910D
:100890004FD1BDF806305F48C3F38917502F3E464D
:1008A00028BF502666F38F1306F10801ADF8063015
:1008B00000F079FD0546002800F0938000F0A2FDCD
:1008C000002301A90822284600F0AFFD0099CB4380
:1008D000DBB20133C9B20331B6EB830F4FEA8308B1
:1008E00004EB810122D908234246A6EB08062846DC
:1008F00000F09BFDF6B2484908F10803324628464D
:1009000000F093FD009B033703EB97070097D4F8A3
:100910001834002B41D1D4F8106451E062689A4237
:1009200099D8A260284604B0BDE8F0810823324679
:10093000E5E7012B55D1BDF804303648C3F38311E8
:10094000062928BF062161F3891302318900ADF819
:10095000043000F028FD0546002842D000F052FD8A
:100960000023082201A9284600F05FFD0026BDF8FB
:100970000420C2F38312B300964203F10803C6D2E7
:1009800000994A1CC9B20331009204EB8101042290
:10099000284600F04AFD0136E9E7284600F036FD1A
:1009A000FFF740FF80F00100C5B2BBE7F3685B7959
:1009B00023B1336829461B6830469847F3681E68A0
:1009C000002EF3D1284600F021FD304600F02EFA2B
:1009D000D4F818340BB9009BA360002000F028FA6B
:1009E000DEE7D4F8104454B90C4B0D480D49C01A39
:1009F000C008000440F0020000F05CF8D0E7236873
:100A000020469B689847E3681C68ECE7002589E767
:100A100090010020442500009C01002004250000D6
:100A20001C250000C12500002DE9F34704460E46B1
:100A3000924601A9012218469946FFF721FE1B4F55
:100A400010B3019D4FF00008AA1CC84508EB020135
:100A500023D11748002100F0EDF980F310000004C5
:100A600040EA1440E4006B1C04F03804DBB2EDB241
:100A700044F0010407EB8303033544EA881444EA95
:100A80008624D86047F825403B781BB1FFF7D4FE99
:100A90000028FBD102B0BDE8F087C9B207EB8101A5
:100AA0005AF82830CB6008F10108CEE79001002009
:100AB000AC05002000231A46FFF7B6BF07B5012397
:100AC000019201AAFFF7B0FF03B05DF804FB00003C
:100AD00030B50F49D1F8102403460020144634B92C
:100AE000DC6820714AB9C1F81034226030BDE46876
:100AF0002579854206D02468F1E7D2681168216023
:100B00001360F3E701300A28E8D14FF0FF30EDE73A
:100B100090010020084A38B50123D2F81044137020
:100B20001D4604B938BDE3685D71236820465B68E3
:100B30009847E3681C68F4E79001002007B5034676
:100B40000846197A052911D05B7A2BB1094A0A495E
:100B5000019000F007FA01980849019000F002FAAC
:100B6000019803B05DF804EB00F0F1B9002AF8D069
:100B7000F2E700BFE4250000E92500000926000097
:100B800030B5C38885B004460D4633B1144A00928F
:100B90001449154A284600F0E5F9217A05291DD0A7
:100BA000637A4BB1A088FFF727FE104B104953F82A
:100BB0002020284600F0D6F9227A0E4BA08853F860
:100BC000222003920021FFF7FBFD039A0A49034606
:100BD000284605B0BDE8304000F0C4B905B030BDCE
:100BE000E4250000F4250000EC250000702600003C
:100BF000E9250000942600000C2600002DE9F043B2
:100C000085B01F460C9D002395F80C902B7306466B
:100C10000C46904629463846FFF7B2FFB8F1060F5A
:100C200009D8DFE808F00412181F283340003146C5
:100C3000284600F097F9002229463846FFF77EFF44
:100C400085F80C9005B0BDE8F0832268314628464F
:100C500000F088F9EFE7D4E900233146284600F098
:100C600081F9E8E7A36800933146D4E900232846D8
:100C700000F078F9DFE7E3680193A3680093314659
:100C8000D4E90023284600F06DF9D4E723690293E4
:100C9000E3680193A36800933146D4E90023284612
:100CA00000F060F9C7E76369039323690293E3687F
:100CB0000193A36800933146D4E90023284600F04D
:100CC00051F9B8E708292DE9F74F80460E46174637
:100CD0001C463CD8002593F80C901D73194610460D
:100CE000FFF74EFFDFF888A0DFF888B0AE4231D9B9
:100CF00018F805205946204600F034F90135082D32
:100D0000F4D11949194DDFF870A0204600F02AF9F6
:100D10004FF0000B5E4522D918F80B207E2A05D82B
:100D20001046019201F06EFB019A00B92E22514645
:100D3000204600F017F90BF1010BBBF1080FE9D1C8
:100D4000012221463846FFF7F9FE84F80C9003B0E3
:100D5000BDE8F08F5146204600F004F9CEE7294661
:100D6000204600F0FFF8E6E7202600001E260000DF
:100D70001C26000016260000222600001FB50021B8
:100D8000039001AA44F20100CDE9011100F004F83A
:100D900005B05DF804FB000010B572B6FFF7BAFEAF
:100DA000FFF74AFD0028FBD1104B114C1149E41A02
:100DB000E408240444F00100FFF77CFE0E4B1B689E
:100DC000DB0700D500BE0D4944F00200FFF772FEBC
:100DD000BFF34F8F0A490B4BCA6802F4E06213431A
:100DE000CB60BFF34F8F00BFFDE700BF04250000BD
:100DF0001C250000A8260000F0ED00E0B42600004D
:100E000000ED00E00400FA0572B6024A13680133EF
:100E10001360704748060020034A1368013B1360C3
:100E200003B962B6704700BF48060020FFF7ECBF69
:100E3000FFF7F2BF10B5034653E8000F0A4643E838
:100E4000002494F0000FF7D110BD10B5034653E80D
:100E5000002F42EA010043E8000494F0000FF6D1AD
:100E600010BD10B5034653E8000F00EA010243E845
:100E7000002494F0000FF6D110BD10B5034653E8DE
:100E8000002F02EB010043E8000494F0000FF6D1BC
:100E900010BD10B5034653E8002FA2EB010043E854
:100EA000000494F0000FF6D110BD0121FFF7CDBF73
:100EB0000021FFF7D6BF10B590B1D0E9012301683A
:100EC0009B1ADBB20A60013BDBB2FF2B026802D146
:100ED0000020107110BD11684C1C14600B70F2E7FB
:100EE0000E20F7E738B504460020FFF79FFF226881
:100EF00063681168994213D9481E106011F8015CAB
:100F0000E368218A01FB0535A36811791B1ADBB25E
:100F1000994200D213710020FFF78AFF284638BD9E
:100F20000025F8E738B5054600200C46FFF77EFFA0
:100F30002A681368591C1160E968641A298AB4FB8D
:100F4000F1F41C70BDE838400020FFF771BF8268E3
:100F500010B504462AB14369016800699847002327
:100F6000A36010BD0EB403B5039921B104AB01AA6F
:100F7000019300F06FF802B05DF804EB03B0704726
:100F8000826830B40468551C8560A154D0E90132F0
:100F90009A4202D330BCFFF7DABF30BC7047000082
:100FA0002DE9F84F9846DDE90A43154682460F467B
:100FB0000A464FF00109AA420FD2C14538BFC146C7
:100FC00013F0010B01D16CB900240126B8F1010F17
:100FD0001BD908F1FF386E43F8E709F10109B2FBAC
:100FE000F5F2E8E79B070ED5B8F1000F0CBF3026ED
:100FF0002026A145E9D2013C31465046FFF7C0FF0B
:10100000002CF6D1E0E72026F3E7B7FBF6F39D428C
:10101000E1D9DFF83C80B7FBF6F3504618F803102F
:1010200006FB1377FFF7ACFF3346AB42B6FBF5F692
:10103000F1D2BBF1000F02D00CB1A14501D3BDE844
:10104000F88F20215046013CFFF79AFFF4E700BFDC
:10105000C12600002DE9F74F0546174688460029AE
:1010600000F0428118F8011B49B92B7B002B00F0DE
:101070003B81284603B0BDE8F04FFFF768BF252944
:1010800040F0B780002698F800302D2B424608F13A
:10109000010823D0302B24D02B2B25D000242A2B41
:1010A00002F1010123D13B681A1D1B683A601C4400
:1010B0000A4613782E2B26D101324FF0000A104633
:1010C00010F8011BA1F1300CBCF1090F1DD80A2347
:1010D00003FB0A13A3F1300A0246F0E746F00106CB
:1010E000D1E746F00206CEE746F00406CBE711F85A
:1010F000013CA3F130000928DBD80A2202FB0434AA
:10110000303C0A46CBE74FF0000A12F8011B01F011
:10111000FB0068289046F8D0782909D86F290CD8A8
:10112000632962D022D8252963D0582900F088800D
:1011300098F80030002B95D197E770390829F7D837
:1011400001A353F821F000BFC312000031110000C9
:101150003111000051120000311100002F12000067
:10116000311100003111000041120000642901D04A
:101170006929DDD13A68D2F80090111D89EAE97237
:101180003960A2EBE9724FF0010B092A35DCD34537
:1011900038BFD3462CB1B9F1000F01DB720700D57F
:1011A000013CB30702D5BAF1000F03D0F00701D418
:1011B0004CBB0024B9F1000F2DDAC9F100092D2133
:1011C0002846FFF7DDFE06F00302022A04D1BAF139
:1011D000000F01D11CBB0024CDE9004653460A2272
:1011E00049462846FFF7DCFEA2E73B681A1D19783E
:1011F0003A602846FFF7C4FE9AE70A230BF1010B79
:10120000B2FBF3F2C1E7A345D4D220212846013C2A
:10121000FFF7B6FECCE77107D5D52B21D0E7A34564
:10122000DAD230212846013CFFF7AAFED2E739681E
:10123000CDE900460A1D3A6053460A220968D0E704
:1012400039680A1D3A60CDE9004653461022F5E799
:101250003B681A1D3A6016F00106D3F8009028D1B9
:10126000B9F1000F03D0484601F01CF90646B4421C
:1012700000D904BB09F1FF3919F8011F00293FF417
:1012800057AF2846FFF77CFEF6E728460136FFF702
:1012900077FE19F806100029F7D1A642BFF448AF2F
:1012A000002C3FF445AF20212846013CFFF768FEA3
:1012B000F3E70026EDE720212846013CFFF760FE1A
:1012C000D5E73B681A1D3A60302128461C68FFF7B5
:1012D00057FE78212846FFF753FE00220823CDE968
:1012E0000032214610227CE703B0BDE8F08F00BF3A
:1012F0002DE9F84FB0F806A04579D2F800B09DF876
:1013000028900AFB05F5043D88460BEB0301A94232
:1013100003F1040488BFA5EB030BB4FBFAF6074600
:101320000AFB1644C2F800B04EB9AAEB04055D45AD
:1013300028BF5D46BBF1000F04D1BDE8F88F3F68C0
:10134000013EF1E7043408EB06003C442A46B9F1BB
:10135000000F0DD02146ABEB050B01F058F8DA4534
:101360002E443F6855464FF0000428BF5D46E1E734
:1013700001462046EFE7FFF79EBDF8B546790146E6
:10138000721E0546002393422D6803D30024A64213
:1013900002D8F8BD0133F6E70F682846FFF7C2FD13
:1013A00001343946F3E72DE9F843068ACD1C074698
:1013B000FFF798FD043E35440446B5FBF6F5F0B161
:1013C0004FF48073EDB28380C680013D0760814693
:1013D0004FF00008A84512D23846FFF783FD0646B5
:1013E00048B163790133637108F10108C9F800005D
:1013F00007608146EEE72046FFF7BFFF34462046F0
:10140000BDE8F88301210430FFF737BD10B5012195
:1014100004460430FFF73DFD10F0FF0F04D12046D5
:10142000BDE81040FFF7A9BF10BD1FB50392002211
:10143000009203AAFFF75CFF05B05DF804FB1FB53F
:1014400003920122009203AAFFF752FF05B05DF854
:1014500004FB836800225A60C3E904229A60DA60C0
:101460001A6070471FB503788DF800304368019308
:1014700083688DF80830C368054A0393054B6846B6
:1014800053F8213052F82110984705B05DF804FB5D
:101490004C060020540600201FB503788DF800305C
:1014A0004368019383688DF80830C368054A039345
:1014B000054B684653F8213052F82110984705B083
:1014C0005DF804FB4C06002054060020F0B5194BD3
:1014D00090F800C0DFF86CE043F82C20164B16465D
:1014E0000A6943F82C204B7F0EF80C300C46074657
:1014F0000FCC89B06D460FC594E80F0085E80F004A
:101500001EF80C30CDF810C04BB1002E0B4A6946C6
:1015100008BF3246381D00F059FB09B0F0BD002E5F
:10152000074A694608BF324607F10C0000F026F969
:10153000F3E700BF540600204C06002065140000AD
:10154000991400005C060020014B1B68184700BF7F
:101550006006002038B50B4B98420C4601D00020A5
:1015600038BD0020FFF762FC074B1D7915B9012239
:101570001C601A710020FFF75BFC002DEFD01120DA
:10158000EEE700BF0020004060060020034B9842B9
:1015900001BF034B00221A601A71704700200040FF
:1015A000600600200023435082B043580193019B02
:1015B00002B070470A4610B54FF48E71FFF7F2FF84
:1015C000136A9168C95C136A01331362C0F81C1571
:1015D00010BD8B690A4610B54FF4847123B9FFF72B
:1015E000E1FFD0F8183510BDFFF7DCFF536AD16872
:1015F000D0F81805C854536A01335362F3E700006A
:101600001FB501238DF80030044BCDE90110D3E95B
:1016100000126846904705B05DF804FB680600209C
:1016200030B54C48D0F8043313F4007F85B005463C
:101630004DD0D0F82431002B49D04FF49271FFF7F0
:10164000B1FF4FF40173C0F80833434B93F82920DE
:101650000AB9012242603F4902228DF80020D1F8E8
:101660008024C1F8802403929A690292DA68019278
:101670000022C3E906226846D3E9001290473548A4
:10168000D0F81C315BB134494A690B6A9A420A4668
:101690004AD991F82830002B46D1FFF78BFF2D480F
:1016A000D0F844318BB14FF4A271FFF77BFF2A4B86
:1016B00093F829200AB1012202609A692AB1002216
:1016C000586AD9689A61FFF79BFF05B030BDD5F81D
:1016D00004335B07D3D5D5F80831002BCFD01E4C8F
:1016E0001C482146FFF775FF636AA2699A422346A8
:1016F000C5D1E269E1684AB12369E3600023606A09
:10170000A261E3616362FFF77BFFB8E794F82920E9
:101710000AB901226A600F4A4FF40170C2F8080347
:101720000022586A9A61EEE70A484FF48E71FFF77B
:1017300039FF5369002BB2D051690291002391689F
:101740008DF80030019153616846D2E90013984743
:10175000A5E700BF00200040680600201F2886BFC4
:1017600000F01F00044B4FF0A04300F5E070022290
:1017700043F82020704700BF000300502DE9F843D4
:10178000614B057991462C2202FB0532064692F800
:101790002A200C469846002A40F0B1805B49006838
:1017A000FFF7D8FE0746002840F0AB8021684A1CAE
:1017B00010D01F2987BF564A01F01F030B464FF078
:1017C000A0420120984003F5E073C2F80805032009
:1017D00042F823006068431C0DD01F288BBF00F027
:1017E0001F0303464A4A4FF0A04203F5E0734FF04F
:1017F000000C42F823C03368A269C3F8242594F88A
:1018000014C0627DBCF1010F4CEA0202C3F86C25E2
:10181000C3F81405C3F80C152BD1A168481C0DD0D2
:101820001F298BBF01F01F020A4639484FF0A04024
:1018300002F5E0724FF0000C40F822C0E068421C54
:1018400013D01F2887BF324A00F01F0C84464FF088
:10185000A0424FF0010E0EFA0CFE0CF5E07CC2F82F
:1018600008E54FF0030E42F82CE0C3F80805C3F872
:1018700010152C236B4308EB0302C2F80490226975
:1018800048F80320B9F1000F21D03068247F4FF4CD
:101890008E71FFF787FE4FF4A2713068FFF782FE6A
:1018A00032681C4BC2F80433110B42F30732630158
:1018B000002ADBB21EDB1848841884F800330123A9
:1018C000520901F01F0103FA01F140F822103368B8
:1018D0000422C3F800252C2303FB05830022C3E95F
:1018E000062283F829205A61012283F82A203846EB
:1018F000BDE8F883094A01F00F015354E7E70827D0
:10190000F5E71127F3E700BF680600202116000065
:10191000000300508000020000E100E014ED00E050
:101920002DE9F04103680479284D0022C3F8002511
:101930002C2202FB045201465268A2B1244AC3F889
:1019400008231A0B43F30733002B0CDB02F01F00B4
:101950005B090122824020331E4840F82320BFF358
:101960004F8FBFF36F8F0B68D3F80C05D3F8148536
:10197000D3F80865D3F810754FF0FF329042C3F8E2
:101980001425C3F80C25C3F80825C3F8102501D089
:10199000FFF7E4FEB8F1FF3F02D04046FFF7DEFE5E
:1019A0007A1C02D03846FFF7D9FE731C02D03046AD
:1019B000FFF7D4FE0868FFF7E9FD2C2303FB04546E
:1019C000002384F82A306360BDE8F08168060020B7
:1019D0008402020000E100E02DE9F047204F90F87A
:1019E00004904FF02C0808FB097405466669002E28
:1019F00034D162610068A16026624FF48E7184F870
:101A00002860FFF7CFFD2868012383602146FFF798
:101A1000D1FD6368A0468BB92868D4F814A0236A66
:101A20009A4511D82A68D2F81C31002BFBD001232B
:101A3000D3602C2303FB097300225A613046BDE8B2
:101A4000F08794F828303BB9D0F81C31002BF8D03F
:101A50004146FFF7AFFDE2E70F26EAE71126EDE783
:101A6000680600200023435082B043580193019B35
:101A700002B070471FB501238DF80030044BCDE94B
:101A80000110D3E900126846904705B05DF804FBE9
:101A9000940600201F2886BF00F01F00044B4FF063
:101AA000A04300F5E070022243F82020704700BFF9
:101AB000000300507FB5434AD2F82461002E60D065
:101AC00010464FF49271FFF7CDFF02238DF80030DE
:101AD000D2F88034C2F880340393D2F83C350293B4
:101AE000394BDA6801920022C3E906226846D3E93D
:101AF000001290473348D0F8443173B14FF4A271CB
:101B0000FFF7B0FF304B9A693AB10022C3E90622D1
:101B1000D968D0F83C05FFF7ADFF2A48D0F820314E
:101B2000ABB14FF49071FFF79DFF0123C360264BCB
:101B30005A6962B1D0F84C150291002299688DF86B
:101B4000002001915A616846D3E9001290471D4870
:101B5000D0F858319BB14FF4AC71FFF783FF1A4BAB
:101B60005A6962B1D0F84C150291002299688DF83B
:101B7000002001915A616846D3E90012904704B0F1
:101B800070BDD2F81031002BB4D04FF488711046DC
:101B9000FFF768FF0C4BD2F83C0599698842A9D140
:101BA000DC69D96864B1D2F8005225F02005C2F88A
:101BB00000521A699C61DA60DE61FFF75BFF99E70A
:101BC0009C61FAE700200040940600202DE9F843CC
:101BD000674B06799146242202FB0632044692F8AE
:101BE00020200D469846002A40F0BE8061490068DA
:101BF000FFF7B0FC0746002840F0B8802868421C78
:101C000010D01F2887BF5C4A00F01F0303464FF027
:101C1000A0420121994003F5E073C2F808150321A1
:101C200042F8231069684B1C0DD01F298BBF01F0AF
:101C30001F030B46504A4FF0A04203F5E0734FF0EC
:101C4000000C42F823C02368AA69C3F8242595F83C
:101C500014C06A7DBCF1010F4CEA0202C3F86C2586
:101C6000C3F80C05C3F814152BD1A968481C0DD076
:101C70001F298BBF01F01F020A463F484FF0A040CA
:101C800002F5E0724FF0000C40F822C0E868421CF8
:101C900013D01F2887BF384A00F01F0C84464FF02E
:101CA000A0424FF0010E0EFA0CFE0CF5E07CC2F8DB
:101CB00008E54FF0030E42F82CE0C3F80805C3F81E
:101CC00010152423734308EB0302C2F804902A6919
:101CD00048F80320B9F1000F30D020682A7F4FF474
:101CE0008871FFF7BFFE20684FF49071FFF7BAFECE
:101CF00020684FF49271FFF7B5FE20684FF4A2718F
:101D0000FFF7B0FE4FF4AC712068FFF7ABFE23681D
:101D10001A49C3F80413190B43F307335201002B7C
:101D2000D2B21CDB1648C51885F8002301225B09D6
:101D300001F01F0102FA01F140F823102368082284
:101D4000C3F80025242303FB06830022C3E90622EF
:101D50005A61012283F820203846BDE8F883094BF8
:101D600001F00F015A54E9E70827F5E71127F3E7D7
:101D700094060020B51A0000000300501003420032
:101D800000E100E014ED00E02DE9F0413D4E057961
:101D90000468242303FB056302465B68ABB13A4B3E
:101DA000C4F8083344F30733002B4FEA14310CDB3B
:101DB00001F01F005B09012181402033334840F8C6
:101DC0002310BFF34F8FBFF36F8FD4F8003223F08F
:101DD0002003C4F80032242303FB05639B6933B15D
:101DE0004FF4A2712046FFF73DFE012363604FF4DC
:101DF000AC712046FFF736FE0123E360242303FB8A
:101E00000563D4F858110029FBD0996919B1D4F8A9
:101E100044110029F5D00023C4F800351368D3F825
:101E20000C05D3F81485D3F80815D3F810754FF0C6
:101E3000FF329042C3F80C25C3F81425C3F80825D7
:101E4000C3F8102501D0FFF725FEB8F1FF3F02D0FF
:101E50004046FFF71FFE7A1C02D03846FFF71AFEF5
:101E60004B1C02D00846FFF715FE2046FFF78EFBFD
:101E7000242303FB0565002385F820306B60BDE853
:101E8000F08100BF940600201003420000E100E052
:101E900001F06043B3F1005F2DE9F041064638D10F
:101EA0001E4B0779242505FB073598466C69002CE5
:101EB00031D16A610068A9604FF49071FFF7D2FDDB
:101EC0004FF4AC713068FFF7CDFD33686A69A968DB
:101ED000C3F84415C3F8482501229A606A68AAB974
:101EE000D3F82021D3F858411AB9002CF8D00F2488
:101EF00007E0002CFBD10122DA60D3F85821002A38
:101F0000FBD0242303FB078700237B612046BDE829
:101F1000F0811024FAE71124F8E700BF94060020AE
:101F2000254B2DE9F743002119600846FEF734FCE4
:101F300008B1FEF723FFFEF769FB204C204B214937
:101F4000214DDFF88C80E41AE408240444F00304F3
:101F50002046FEF7AFFD012637463543C8F800702E
:101F6000D8F80031002BFBD00023C8F80031D8F896
:101F70000835164913F4007FD8F808351CBF6FEAFE
:101F800083536FEA9353002BB8BF03339B10019325
:101F9000C8F80460019A2046FEF790FD4FF4FA79E4
:101FA0004FF47A40A847B9F10109F9D1FEF744FC92
:101FB0000028FBD1D2E700BF04C500401C2500006B
:101FC00004250000E026000020270000FD26000078
:101FD00000C000400369C1688B429DBF8268D2186F
:101FE00002F1FF3203F1FF3394BF501A581A7047C1
:101FF0002DE9F843D0E902940546A9EB04084068AE
:10200000904520440F46144404D900F000FAEC60D7
:10201000BDE8F8834246A4EB090400F0F8F96868CB
:10202000224607EB0801F0E72DE9F843C5680646AC
:10203000894617464FF000083469B3687068A542B6
:1020400028BFE418013C621B5C1BBC4228BF3C4615
:10205000944228BF144649462844224600F0D7F946
:10206000B3682544AB4208BF00253F1BA044A144F0
:10207000F560E1D14046BDE8F883000010B5114C91
:10208000114AA2610223C4E90433104BE361A26444
:102090004FF400730E4A0F492362E26400231022BA
:1020A000E01DA3626362E362A3656365E365226585
:1020B00000F0D6F90849204600F0D2F92023A37198
:1020C00010BD00BFB80600202627000040070020F2
:1020D000300700202F27000033270000F8B5184CE8
:1020E000182300FB033503FB00402544C46A012C80
:1020F0000F4616460FD0022C1AD0F4B92846FFF727
:1021000069FF864205D8324639462846FFF770FFF8
:1021100034462046F8BD2846FFF75CFF8642344629
:1021200028BF0446224639462846FFF761FFF0E7FC
:102130002846BDE8F840FFF777BF0024E9E700BF75
:10214000B8060020FFF79ABF034B1868A0F10803F8
:1021500058425841704700BF30010010064B1B68C1
:10216000082B06D1054B1B68032B02D8044AD05C10
:1021700070470020704700BF30010010340100108C
:102180003A27000008B5FFF7DFFF40B14FF080436A
:102190000022C3F80C21C3F81021C3F83825FFF73B
:1021A000D3FF002846D04FF080525E4BD2F8041483
:1021B000C3F82015D2F80814C3F82415D2F80C146B
:1021C000C3F82815D2F81014C3F82C15D2F814143B
:1021D000C3F83015D2F81814C3F83415D2F81C140B
:1021E000C3F84015D2F82014C3F84415D2F82414CB
:1021F000C3F84815D2F82814C3F84C15D2F82C149B
:10220000C3F85015D2F83014C3F85415D2F834146A
:10221000C3F86015D2F83814C3F86415D2F83C142A
:10222000C3F86815D2F84014C3F86C15D2F84424EA
:10223000C3F87025FFF792FF10B13B4B3B4A1A6081
:10224000FFF78CFF18B13A4BFB22C3F81825FFF7B4
:1022500085FF48B13749384B0A681B6822F00F02E6
:1022600003F00F0313430B60FFF778FF18B1334BF4
:102270004FF400721A60FFF767FF48B14FF08043D8
:10228000D3F80024D20744BF6FF00102C3F8002442
:102290002B4AD2F8883043F47003C2F88830BFF379
:1022A0004F8FBFF36F8F4FF01023D3F80022002A17
:1022B00003DBD3F80432002B2FDA224B0122C3F8C0
:1022C0000425D3F80024002AFBD04FF0102212215D
:1022D000C2F80012D3F80024002AFBD04FF01023DC
:1022E0001222C3F80422174B1A46D3F8001400290F
:1022F000FBD00021C3F80415D2F80034002BFBD02A
:10230000BFF34F8F0E49104BCA6802F4E0621343CB
:10231000CB60BFF34F8F00BFFDE70C4B0C4A1A6038
:1023200008BD00BF00C000408C560040488103003B
:1023300000F00040E40E00405802001040960240B9
:1023400000ED00E000E001400400FA052400002058
:102350000090D0037F2805D8034B185C034B5B5CCF
:1023600018407047002070474C270000CC27000021
:10237000A0F16103192B98BF20387047A0F14103E9
:10238000192B98BF203070477F2805D8034B185C65
:10239000034B5B5C18407047002070474C270000DF
:1023A000CC270000A0F16103192B98BF203870479B
:1023B000A0F14103192B98BF203070477F299ABFA5
:1023C000017001206FF02E0070475AB10A787F2A01
:1023D0000AD800B10260002119605960501A18BF74
:1023E00001207047002070476FF02E0070470000FA
:1023F00008B5034B5B689B681B68984708BD00BF26
:102400002800002008B50921FFF7F2FF08BD844627
:1024100040EA010313F0030F18D18446202A0BD39E
:102420002DE9F007B1E8F807A0E8F807A2F12002CB
:10243000202AF7D2BDE8F007042A07D351F8043B5D
:1024400040F8043BA2F10402042AF7D2002A05D086
:1024500011F8013B00F8013B013AF9D160467047A1
:10246000024610F0030F16D111F0030F13D12DE91E
:10247000F0004FF001374FF0803351F8044BA4EBDC
:10248000070525EA04051D4002D142F8044BF4E794
:10249000A1F10401F0BC11F8013B02F8013B002B53
:1024A000F9D1704700F1010110F0030F11D010F8BD
:1024B000012B002A23D010F0030F0AD010F8012BB3
:1024C000002A1CD010F0030F03D010F8012B002AB3
:1024D00015D02DE970004FF001324FF0803350F8E5
:1024E000044BA4EB020525EA04051D4000D1F6E7E4
:1024F000A0F1040070BC10F8012B002AFBD1A0EB66
:04250000010070471F
:10250400D126000000000000D526000000000000D5
:10251400DA26000000000000D225000000000303BA
:102524006825000000000000B12500001400002010
:102534009425000000000000A02500001C000020DD
:10254400C00000208801002090010020C800002065
:04255400180000006B
:1025580000000000000000000338FDD870470000AC
:10256800D503000041040000D1030000FFFFFFFF76
:10257800FFFFFFFFFFFFFFFFFFFFFFFF000000005F
:10258800000000000000D6010601000075050000EB
:10259800D905000015050000756172745F6C6F67DE
:1025A8005F6261636B656E64007274745F6C6F6701
:1025B8005F6261636B656E64004261636B656E6444
:1025C8007320666C75736865640061707000000044
:1025D800B00500207F000000300600201B5B306D36
:1025E800002573001B5B313B33316D0025734C6F45
:1025F80067732064726F70706564202825642925CC
:10260800730D0A003C25733E2025733A20002025CF
:1026180030327800202020007C002563001B5B31CD
:102628003B33306D001B5B313B33326D001B5B313C
:102638003B33336D001B5B313B33346D001B5B3127
:102648003B33356D001B5B313B33366D001B5B3113
:102658003B33376D007761726E696E6700696E662D
:102668006F00646562756700E42500002526000098
:10267800EC2500002D260000352600003D26000030
:10268800452600004D2600005526000000000000E9
:10269800AE2600005D260000652600006A260000C0
:1026A800466174616C206572726F7200537973743D
:1026B800656D207265736574003031323334353698
:1026C80037383941424344454650525300554152E8
:1026D800540055415254450054656D7065726174DB
:1026E800757265206578616D706C652073746172B0
:1026F8007465642E0041637475616C2074656D7037
:10270800657261747572653A2025640000000000E6
:1027180000000000000000000338FDD87047546531
:10272800726D696E616C00525454005345474745B9
:10273800520001000000000043000000504F5349C0
:102748005800000020202020202020202068282851
:102758002828202020202020202020202020202061
:1027680020202020481010101010101010101010E9
:1027780010101010848484848484848484841010C9
:1027880010101010108181818181810101010101E6
:102798000101010101010101010101010101011012
:1027A80010101010108282828282820202020202BB
:1027B80002020202020202020202020202020210E3
:1027C80010101020000703200417020108571040BA
:1027D800800000004027000044280000582900001D
:1027E80053756E004D6F6E00547565005765640033
:1027F8005468750046726900536174000000000057
:102808004A616E00466562004D6172004170720057
:102818004D6179004A756E004A756C004175670014
:10282800536570004F6374004E6F76004465630013
:1028380000000000414D00504D0000007C290000C0
:1028480078290000782900007829000078290000FC
:1028580078290000782900007829000078290000EC
:1028680078290000FFFFFFFFFFFFFFFFFFFFFFFFCB
:10287800FFFF0000B8280000E8270000F428000047
:10288800082800003C2800009C2800004C29000073
:10289800A8280000256D2F25642F25790000000049
:1028A8002561202562202565202554202559000012
:1028B80053756E646179004D6F6E6461790054756B
:1028C8006573646179005765646E65736461790046
:1028D800546875727364617900467269646179003D
:1028E8005361747572646179000000004A616E7505
:1028F800617279004665627275617279004D617224
:10290800636800417072696C004D6179004A756EA8
:1029180065004A756C790041756775737400536575
:102928007074656D626572004F63746F62657200E2
:102938004E6F76656D62657200446563656D6265AC
:102948007200000025483A254D3A25530000000042
:1029580055230000712300007D2300008923000017
:10296800A5230000B1230000BD230000CB230000F5
:06297800000000002E002B
:102980000000000000200040000000000020004087
:102990000000000000000000FF0000000000000038
:1029A000FF0000000090D003DC270000DC270000BF
:0C29B000DC270000DC270000DC27000012
:040000030000037581
:00000001FF
